{"contracts/RuniverseItem.sol":{"RuniverseItem":{"abi":[{"inputs":[{"internalType":"string","name":"_baseURI","type":"string"}],"stateMutability":"nonpayable","type":"constructor"},{"inputs":[],"name":"Address0Error","type":"error"},{"anonymous":false,"inputs":[{"indexed":true,"internalType":"address","name":"owner","type":"address"},{"indexed":true,"internalType":"address","name":"approved","type":"address"},{"indexed":true,"internalType":"uint256","name":"tokenId","type":"uint256"}],"name":"Approval","type":"event"},{"anonymous":false,"inputs":[{"indexed":true,"internalType":"address","name":"owner","type":"address"},{"indexed":true,"internalType":"address","name":"operator","type":"address"},{"indexed":false,"internalType":"bool","name":"approved","type":"bool"}],"name":"ApprovalForAll","type":"event"},{"anonymous":false,"inputs":[{"indexed":true,"internalType":"address","name":"previousOwner","type":"address"},{"indexed":true,"internalType":"address","name":"newOwner","type":"address"}],"name":"OwnershipTransferred","type":"event"},{"anonymous":false,"inputs":[{"indexed":false,"internalType":"address","name":"account","type":"address"}],"name":"Paused","type":"event"},{"anonymous":false,"inputs":[{"indexed":false,"internalType":"address","name":"to","type":"address"},{"indexed":false,"internalType":"uint256","name":"tokenId","type":"uint256"}],"name":"RuniverseItemMinted","type":"event"},{"anonymous":false,"inputs":[{"indexed":true,"internalType":"address","name":"from","type":"address"},{"indexed":true,"internalType":"address","name":"to","type":"address"},{"indexed":true,"internalType":"uint256","name":"tokenId","type":"uint256"}],"name":"Transfer","type":"event"},{"anonymous":false,"inputs":[{"indexed":false,"internalType":"address","name":"account","type":"address"}],"name":"Unpaused","type":"event"},{"inputs":[{"internalType":"address","name":"to","type":"address"},{"internalType":"uint256","name":"tokenId","type":"uint256"}],"name":"approve","outputs":[],"stateMutability":"nonpayable","type":"function"},{"inputs":[{"internalType":"address","name":"owner","type":"address"}],"name":"balanceOf","outputs":[{"internalType":"uint256","name":"","type":"uint256"}],"stateMutability":"view","type":"function"},{"inputs":[],"name":"baseTokenURI","outputs":[{"internalType":"string","name":"","type":"string"}],"stateMutability":"view","type":"function"},{"inputs":[{"internalType":"uint256","name":"tokenId","type":"uint256"}],"name":"exists","outputs":[{"internalType":"bool","name":"","type":"bool"}],"stateMutability":"view","type":"function"},{"inputs":[{"internalType":"contract IERC20","name":"token","type":"address"},{"internalType":"uint256","name":"amount","type":"uint256"}],"name":"forwardERC20s","outputs":[],"stateMutability":"nonpayable","type":"function"},{"inputs":[{"internalType":"uint256","name":"tokenId","type":"uint256"}],"name":"getApproved","outputs":[{"internalType":"address","name":"","type":"address"}],"stateMutability":"view","type":"function"},{"inputs":[],"name":"getBaseURI","outputs":[{"internalType":"string","name":"","type":"string"}],"stateMutability":"view","type":"function"},{"inputs":[{"internalType":"address","name":"ownerAddress","type":"address"}],"name":"getTokens","outputs":[{"internalType":"uint256[]","name":"","type":"uint256[]"}],"stateMutability":"view","type":"function"},{"inputs":[{"internalType":"address","name":"owner","type":"address"},{"internalType":"address","name":"operator","type":"address"}],"name":"isApprovedForAll","outputs":[{"internalType":"bool","name":"","type":"bool"}],"stateMutability":"view","type":"function"},{"inputs":[{"internalType":"address","name":"recipient","type":"address"},{"internalType":"uint256","name":"tokenId","type":"uint256"}],"name":"mintTokenId","outputs":[],"stateMutability":"nonpayable","type":"function"},{"inputs":[],"name":"minterAddress","outputs":[{"internalType":"address","name":"","type":"address"}],"stateMutability":"view","type":"function"},{"inputs":[],"name":"name","outputs":[{"internalType":"string","name":"","type":"string"}],"stateMutability":"view","type":"function"},{"inputs":[],"name":"numMinted","outputs":[{"internalType":"uint256","name":"","type":"uint256"}],"stateMutability":"view","type":"function"},{"inputs":[],"name":"owner","outputs":[{"internalType":"address","name":"","type":"address"}],"stateMutability":"view","type":"function"},{"inputs":[{"internalType":"uint256","name":"tokenId","type":"uint256"}],"name":"ownerOf","outputs":[{"internalType":"address","name":"","type":"address"}],"stateMutability":"view","type":"function"},{"inputs":[],"name":"pauseContract","outputs":[],"stateMutability":"nonpayable","type":"function"},{"inputs":[],"name":"paused","outputs":[{"internalType":"bool","name":"","type":"bool"}],"stateMutability":"view","type":"function"},{"inputs":[],"name":"renounceOwnership","outputs":[],"stateMutability":"nonpayable","type":"function"},{"inputs":[{"internalType":"address","name":"from","type":"address"},{"internalType":"address","name":"to","type":"address"},{"internalType":"uint256","name":"tokenId","type":"uint256"}],"name":"safeTransferFrom","outputs":[],"stateMutability":"nonpayable","type":"function"},{"inputs":[{"internalType":"address","name":"from","type":"address"},{"internalType":"address","name":"to","type":"address"},{"internalType":"uint256","name":"tokenId","type":"uint256"},{"internalType":"bytes","name":"data","type":"bytes"}],"name":"safeTransferFrom","outputs":[],"stateMutability":"nonpayable","type":"function"},{"inputs":[{"internalType":"address","name":"operator","type":"address"},{"internalType":"bool","name":"approved","type":"bool"}],"name":"setApprovalForAll","outputs":[],"stateMutability":"nonpayable","type":"function"},{"inputs":[{"internalType":"string","name":"newBaseURI","type":"string"}],"name":"setBaseURI","outputs":[],"stateMutability":"nonpayable","type":"function"},{"inputs":[{"internalType":"address","name":"newMinter","type":"address"}],"name":"setMinter","outputs":[],"stateMutability":"nonpayable","type":"function"},{"inputs":[{"internalType":"bytes4","name":"interfaceId","type":"bytes4"}],"name":"supportsInterface","outputs":[{"internalType":"bool","name":"","type":"bool"}],"stateMutability":"view","type":"function"},{"inputs":[],"name":"symbol","outputs":[{"internalType":"string","name":"","type":"string"}],"stateMutability":"view","type":"function"},{"inputs":[{"internalType":"uint256","name":"index","type":"uint256"}],"name":"tokenByIndex","outputs":[{"internalType":"uint256","name":"","type":"uint256"}],"stateMutability":"view","type":"function"},{"inputs":[{"internalType":"address","name":"owner","type":"address"},{"internalType":"uint256","name":"index","type":"uint256"}],"name":"tokenOfOwnerByIndex","outputs":[{"internalType":"uint256","name":"","type":"uint256"}],"stateMutability":"view","type":"function"},{"inputs":[{"internalType":"uint256","name":"tokenId","type":"uint256"}],"name":"tokenURI","outputs":[{"internalType":"string","name":"","type":"string"}],"stateMutability":"view","type":"function"},{"inputs":[],"name":"totalSupply","outputs":[{"internalType":"uint256","name":"","type":"uint256"}],"stateMutability":"view","type":"function"},{"inputs":[{"internalType":"address","name":"from","type":"address"},{"internalType":"address","name":"to","type":"address"},{"internalType":"uint256","name":"tokenId","type":"uint256"}],"name":"transferFrom","outputs":[],"stateMutability":"nonpayable","type":"function"},{"inputs":[{"internalType":"address","name":"newOwner","type":"address"}],"name":"transferOwnership","outputs":[],"stateMutability":"nonpayable","type":"function"},{"inputs":[],"name":"unpauseContract","outputs":[],"stateMutability":"nonpayable","type":"function"},{"inputs":[],"name":"withdrawAll","outputs":[],"stateMutability":"payable","type":"function"}],"evm":{"bytecode":{"linkReferences":{},"object":"60806040526000600f553480156200001657600080fd5b50604051620050a1380380620050a183398181016040528101906200003c91906200038b565b6040518060400160405280600d81526020017f52756e6976657273654974656d000000000000000000000000000000000000008152506040518060400160405280600481526020017f5249544d000000000000000000000000000000000000000000000000000000008152508160009081620000b9919062000627565b508060019081620000cb919062000627565b5050506000600660006101000a81548160ff02191690831515021790555062000109620000fd6200012a60201b60201c565b6200013260201b60201c565b6001600c8190555080600e908162000122919062000627565b50506200070e565b600033905090565b6000600b60009054906101000a900473ffffffffffffffffffffffffffffffffffffffff16905081600b60006101000a81548173ffffffffffffffffffffffffffffffffffffffff021916908373ffffffffffffffffffffffffffffffffffffffff1602179055508173ffffffffffffffffffffffffffffffffffffffff168173ffffffffffffffffffffffffffffffffffffffff167f8be0079c531659141344cd1fd0a4f28419497f9722a3daafe3b4186f6b6457e060405160405180910390a35050565b6000604051905090565b600080fd5b600080fd5b600080fd5b600080fd5b6000601f19601f8301169050919050565b7f4e487b7100000000000000000000000000000000000000000000000000000000600052604160045260246000fd5b620002618262000216565b810181811067ffffffffffffffff8211171562000283576200028262000227565b5b80604052505050565b600062000298620001f8565b9050620002a6828262000256565b919050565b600067ffffffffffffffff821115620002c957620002c862000227565b5b620002d48262000216565b9050602081019050919050565b60005b8381101562000301578082015181840152602081019050620002e4565b60008484015250505050565b6000620003246200031e84620002ab565b6200028c565b90508281526020810184848401111562000343576200034262000211565b5b62000350848285620002e1565b509392505050565b600082601f83011262000370576200036f6200020c565b5b8151620003828482602086016200030d565b91505092915050565b600060208284031215620003a457620003a362000202565b5b600082015167ffffffffffffffff811115620003c557620003c462000207565b5b620003d38482850162000358565b91505092915050565b600081519050919050565b7f4e487b7100000000000000000000000000000000000000000000000000000000600052602260045260246000fd5b600060028204905060018216806200042f57607f821691505b602082108103620004455762000444620003e7565b5b50919050565b60008190508160005260206000209050919050565b60006020601f8301049050919050565b600082821b905092915050565b600060088302620004af7fffffffffffffffffffffffffffffffffffffffffffffffffffffffffffffffff8262000470565b620004bb868362000470565b95508019841693508086168417925050509392505050565b6000819050919050565b6000819050919050565b60006200050862000502620004fc84620004d3565b620004dd565b620004d3565b9050919050565b6000819050919050565b6200052483620004e7565b6200053c62000533826200050f565b8484546200047d565b825550505050565b600090565b6200055362000544565b6200056081848462000519565b505050565b5b8181101562000588576200057c60008262000549565b60018101905062000566565b5050565b601f821115620005d757620005a1816200044b565b620005ac8462000460565b81016020851015620005bc578190505b620005d4620005cb8562000460565b83018262000565565b50505b505050565b600082821c905092915050565b6000620005fc60001984600802620005dc565b1980831691505092915050565b6000620006178383620005e9565b9150826002028217905092915050565b6200063282620003dc565b67ffffffffffffffff8111156200064e576200064d62000227565b5b6200065a825462000416565b620006678282856200058c565b600060209050601f8311600181146200069f57600084156200068a578287015190505b62000696858262000609565b86555062000706565b601f198416620006af866200044b565b60005b82811015620006d957848901518255600182019150602085019450602081019050620006b2565b86831015620006f95784890151620006f5601f891682620005e9565b8355505b6001600288020188555050505b505050505050565b614983806200071e6000396000f3fe6080604052600436106101ee5760003560e01c80636352211e1161010d578063a22cb465116100a0578063d52079b41161006f578063d52079b4146106dc578063d547cfb714610707578063e985e9c514610732578063f2fde38b1461076f578063fca3b5aa14610798576101ee565b8063a22cb46514610636578063b33712c51461065f578063b88d4fde14610676578063c87b56dd1461069f576101ee565b8063853828b6116100dc578063853828b6146105ad5780638da5cb5b146105b757806395d89b41146105e25780639727151a1461060d576101ee565b80636352211e146104f157806370a082311461052e578063714c53981461056b578063715018a614610596576101ee565b806334d722c9116101855780634f558e79116101545780634f558e79146104235780634f6ccce71461046057806355f804b31461049d5780635c975abb146104c6576101ee565b806334d722c91461037b57806342842e0e146103a6578063439766ce146103cf578063450efe21146103e6576101ee565b806318160ddd116101c157806318160ddd146102c157806323b872dd146102ec5780632f745c591461031557806332761d1614610352576101ee565b806301ffc9a7146101f357806306fdde0314610230578063081812fc1461025b578063095ea7b314610298575b600080fd5b3480156101ff57600080fd5b5061021a60048036038101906102159190612ea2565b6107c1565b6040516102279190612eea565b60405180910390f35b34801561023c57600080fd5b506102456107d3565b6040516102529190612f95565b60405180910390f35b34801561026757600080fd5b50610282600480360381019061027d9190612fed565b610865565b60405161028f919061305b565b60405180910390f35b3480156102a457600080fd5b506102bf60048036038101906102ba91906130a2565b6108ab565b005b3480156102cd57600080fd5b506102d66109c2565b6040516102e391906130f1565b60405180910390f35b3480156102f857600080fd5b50610313600480360381019061030e919061310c565b6109cf565b005b34801561032157600080fd5b5061033c600480360381019061033791906130a2565b610a2f565b60405161034991906130f1565b60405180910390f35b34801561035e57600080fd5b50610379600480360381019061037491906130a2565b610ad4565b005b34801561038757600080fd5b50610390610c20565b60405161039d919061305b565b60405180910390f35b3480156103b257600080fd5b506103cd60048036038101906103c8919061310c565b610c46565b005b3480156103db57600080fd5b506103e4610c66565b005b3480156103f257600080fd5b5061040d6004803603810190610408919061315f565b610cec565b60405161041a919061324a565b60405180910390f35b34801561042f57600080fd5b5061044a60048036038101906104459190612fed565b610e7d565b6040516104579190612eea565b60405180910390f35b34801561046c57600080fd5b5061048760048036038101906104829190612fed565b610e8f565b60405161049491906130f1565b60405180910390f35b3480156104a957600080fd5b506104c460048036038101906104bf91906132d1565b610f00565b005b3480156104d257600080fd5b506104db610f1e565b6040516104e89190612eea565b60405180910390f35b3480156104fd57600080fd5b5061051860048036038101906105139190612fed565b610f35565b604051610525919061305b565b60405180910390f35b34801561053a57600080fd5b506105556004803603810190610550919061315f565b610fbb565b60405161056291906130f1565b60405180910390f35b34801561057757600080fd5b50610580611072565b60405161058d9190612f95565b60405180910390f35b3480156105a257600080fd5b506105ab611104565b005b6105b5611118565b005b3480156105c357600080fd5b506105cc6111cf565b6040516105d9919061305b565b60405180910390f35b3480156105ee57600080fd5b506105f76111f9565b6040516106049190612f95565b60405180910390f35b34801561061957600080fd5b50610634600480360381019061062f919061335c565b61128b565b005b34801561064257600080fd5b5061065d600480360381019061065891906133c8565b61137c565b005b34801561066b57600080fd5b50610674611392565b005b34801561068257600080fd5b5061069d60048036038101906106989190613538565b611419565b005b3480156106ab57600080fd5b506106c660048036038101906106c19190612fed565b61147b565b6040516106d39190612f95565b60405180910390f35b3480156106e857600080fd5b506106f16114f7565b6040516106fe91906130f1565b60405180910390f35b34801561071357600080fd5b5061071c6114fd565b6040516107299190612f95565b60405180910390f35b34801561073e57600080fd5b50610759600480360381019061075491906135bb565b61158b565b6040516107669190612eea565b60405180910390f35b34801561077b57600080fd5b506107966004803603810190610791919061315f565b61161f565b005b3480156107a457600080fd5b506107bf60048036038101906107ba919061315f565b6116a2565b005b60006107cc8261175d565b9050919050565b6060600080546107e29061362a565b80601f016020809104026020016040519081016040528092919081815260200182805461080e9061362a565b801561085b5780601f106108305761010080835404028352916020019161085b565b820191906000526020600020905b81548152906001019060200180831161083e57829003601f168201915b5050505050905090565b6000610870826117d7565b6004600083815260200190815260200160002060009054906101000a900473ffffffffffffffffffffffffffffffffffffffff169050919050565b60006108b682610f35565b90508073ffffffffffffffffffffffffffffffffffffffff168373ffffffffffffffffffffffffffffffffffffffff1603610926576040517f08c379a000000000000000000000000000000000000000000000000000000000815260040161091d906136cd565b60405180910390fd5b8073ffffffffffffffffffffffffffffffffffffffff16610945611822565b73ffffffffffffffffffffffffffffffffffffffff16148061097457506109738161096e611822565b61158b565b5b6109b3576040517f08c379a00000000000000000000000000000000000000000000000000000000081526004016109aa9061375f565b60405180910390fd5b6109bd838361182a565b505050565b6000600980549050905090565b6109e06109da611822565b826118e3565b610a1f576040517f08c379a0000000000000000000000000000000000000000000000000000000008152600401610a16906137f1565b60405180910390fd5b610a2a838383611978565b505050565b6000610a3a83610fbb565b8210610a7b576040517f08c379a0000000000000000000000000000000000000000000000000000000008152600401610a7290613883565b60405180910390fd5b600760008473ffffffffffffffffffffffffffffffffffffffff1673ffffffffffffffffffffffffffffffffffffffff168152602001908152602001600020600083815260200190815260200160002054905092915050565b610adc611c71565b610ae4610f1e565b15610b24576040517f08c379a0000000000000000000000000000000000000000000000000000000008152600401610b1b906138ef565b60405180910390fd5b600d60009054906101000a900473ffffffffffffffffffffffffffffffffffffffff1673ffffffffffffffffffffffffffffffffffffffff16610b65611822565b73ffffffffffffffffffffffffffffffffffffffff1614610bbb576040517f08c379a0000000000000000000000000000000000000000000000000000000008152600401610bb29061395b565b60405180910390fd5b600f60008154610bca906139aa565b919050819055507f604e0f34ba8d6d3f7f48c01c251c7bf880d71369b217e5b976ca6120cc51710c8282604051610c029291906139f2565b60405180910390a1610c148282611cc0565b610c1c611cde565b5050565b600d60009054906101000a900473ffffffffffffffffffffffffffffffffffffffff1681565b610c6183838360405180602001604052806000815250611419565b505050565b610c6e611ce8565b3073ffffffffffffffffffffffffffffffffffffffff16635c975abb6040518163ffffffff1660e01b8152600401602060405180830381865afa158015610cb9573d6000803e3d6000fd5b505050506040513d601f19601f82011682018060405250810190610cdd9190613a30565b610cea57610ce9611d66565b5b565b606060003073ffffffffffffffffffffffffffffffffffffffff166370a08231846040518263ffffffff1660e01b8152600401610d29919061305b565b602060405180830381865afa158015610d46573d6000803e3d6000fd5b505050506040513d601f19601f82011682018060405250810190610d6a9190613a72565b905060008167ffffffffffffffff811115610d8857610d8761340d565b5b604051908082528060200260200182016040528015610db65781602001602082028036833780820191505090505b50905060005b82811015610e72573073ffffffffffffffffffffffffffffffffffffffff16632f745c5986836040518363ffffffff1660e01b8152600401610dff9291906139f2565b602060405180830381865afa158015610e1c573d6000803e3d6000fd5b505050506040513d601f19601f82011682018060405250810190610e409190613a72565b828281518110610e5357610e52613a9f565b5b6020026020010181815250508080610e6a906139aa565b915050610dbc565b508092505050919050565b6000610e8882611dc9565b9050919050565b6000610e996109c2565b8210610eda576040517f08c379a0000000000000000000000000000000000000000000000000000000008152600401610ed190613b40565b60405180910390fd5b60098281548110610eee57610eed613a9f565b5b90600052602060002001549050919050565b610f08611ce8565b8181600e9182610f19929190613d17565b505050565b6000600660009054906101000a900460ff16905090565b600080610f4183611e0a565b9050600073ffffffffffffffffffffffffffffffffffffffff168173ffffffffffffffffffffffffffffffffffffffff1603610fb2576040517f08c379a0000000000000000000000000000000000000000000000000000000008152600401610fa990613e33565b60405180910390fd5b80915050919050565b60008073ffffffffffffffffffffffffffffffffffffffff168273ffffffffffffffffffffffffffffffffffffffff160361102b576040517f08c379a000000000000000000000000000000000000000000000000000000000815260040161102290613ec5565b60405180910390fd5b600360008373ffffffffffffffffffffffffffffffffffffffff1673ffffffffffffffffffffffffffffffffffffffff168152602001908152602001600020549050919050565b6060600e80546110819061362a565b80601f01602080910402602001604051908101604052809291908181526020018280546110ad9061362a565b80156110fa5780601f106110cf576101008083540402835291602001916110fa565b820191906000526020600020905b8154815290600101906020018083116110dd57829003601f168201915b5050505050905090565b61110c611ce8565b6111166000611e47565b565b611120611ce8565b60003373ffffffffffffffffffffffffffffffffffffffff164760405161114690613f16565b60006040518083038185875af1925050503d8060008114611183576040519150601f19603f3d011682016040523d82523d6000602084013e611188565b606091505b50509050806111cc576040517f08c379a00000000000000000000000000000000000000000000000000000000081526004016111c390613f77565b60405180910390fd5b50565b6000600b60009054906101000a900473ffffffffffffffffffffffffffffffffffffffff16905090565b6060600180546112089061362a565b80601f01602080910402602001604051908101604052809291908181526020018280546112349061362a565b80156112815780601f1061125657610100808354040283529160200191611281565b820191906000526020600020905b81548152906001019060200180831161126457829003601f168201915b5050505050905090565b611293611ce8565b600073ffffffffffffffffffffffffffffffffffffffff163373ffffffffffffffffffffffffffffffffffffffff16036112f9576040517f48ac165200000000000000000000000000000000000000000000000000000000815260040160405180910390fd5b8173ffffffffffffffffffffffffffffffffffffffff1663a9059cbb33836040518363ffffffff1660e01b81526004016113349291906139f2565b6020604051808303816000875af1158015611353573d6000803e3d6000fd5b505050506040513d601f19601f820116820180604052508101906113779190613a30565b505050565b61138e611387611822565b8383611f0d565b5050565b61139a611ce8565b3073ffffffffffffffffffffffffffffffffffffffff16635c975abb6040518163ffffffff1660e01b8152600401602060405180830381865afa1580156113e5573d6000803e3d6000fd5b505050506040513d601f19601f820116820180604052508101906114099190613a30565b1561141757611416612079565b5b565b61142a611424611822565b836118e3565b611469576040517f08c379a0000000000000000000000000000000000000000000000000000000008152600401611460906137f1565b60405180910390fd5b611475848484846120dc565b50505050565b606061148682611dc9565b6114c5576040517f08c379a00000000000000000000000000000000000000000000000000000000081526004016114bc90614009565b60405180910390fd5b600e6114d083612138565b6040516020016114e19291906140e8565b6040516020818303038152906040529050919050565b600f5481565b600e805461150a9061362a565b80601f01602080910402602001604051908101604052809291908181526020018280546115369061362a565b80156115835780601f1061155857610100808354040283529160200191611583565b820191906000526020600020905b81548152906001019060200180831161156657829003601f168201915b505050505081565b6000600560008473ffffffffffffffffffffffffffffffffffffffff1673ffffffffffffffffffffffffffffffffffffffff16815260200190815260200160002060008373ffffffffffffffffffffffffffffffffffffffff1673ffffffffffffffffffffffffffffffffffffffff16815260200190815260200160002060009054906101000a900460ff16905092915050565b611627611ce8565b600073ffffffffffffffffffffffffffffffffffffffff168173ffffffffffffffffffffffffffffffffffffffff1603611696576040517f08c379a000000000000000000000000000000000000000000000000000000000815260040161168d9061417e565b60405180910390fd5b61169f81611e47565b50565b6116aa611ce8565b600073ffffffffffffffffffffffffffffffffffffffff168173ffffffffffffffffffffffffffffffffffffffff1603611719576040517f08c379a0000000000000000000000000000000000000000000000000000000008152600401611710906141ea565b60405180910390fd5b80600d60006101000a81548173ffffffffffffffffffffffffffffffffffffffff021916908373ffffffffffffffffffffffffffffffffffffffff16021790555050565b60007f780e9d63000000000000000000000000000000000000000000000000000000007bffffffffffffffffffffffffffffffffffffffffffffffffffffffff1916827bffffffffffffffffffffffffffffffffffffffffffffffffffffffff191614806117d057506117cf82612206565b5b9050919050565b6117e081611dc9565b61181f576040517f08c379a000000000000000000000000000000000000000000000000000000000815260040161181690613e33565b60405180910390fd5b50565b600033905090565b816004600083815260200190815260200160002060006101000a81548173ffffffffffffffffffffffffffffffffffffffff021916908373ffffffffffffffffffffffffffffffffffffffff160217905550808273ffffffffffffffffffffffffffffffffffffffff1661189d83610f35565b73ffffffffffffffffffffffffffffffffffffffff167f8c5be1e5ebec7d5bd14f71427d1e84f3dd0314c0f7b2291e5b200ac8c7c3b92560405160405180910390a45050565b6000806118ef83610f35565b90508073ffffffffffffffffffffffffffffffffffffffff168473ffffffffffffffffffffffffffffffffffffffff1614806119315750611930818561158b565b5b8061196f57508373ffffffffffffffffffffffffffffffffffffffff1661195784610865565b73ffffffffffffffffffffffffffffffffffffffff16145b91505092915050565b8273ffffffffffffffffffffffffffffffffffffffff1661199882610f35565b73ffffffffffffffffffffffffffffffffffffffff16146119ee576040517f08c379a00000000000000000000000000000000000000000000000000000000081526004016119e59061427c565b60405180910390fd5b600073ffffffffffffffffffffffffffffffffffffffff168273ffffffffffffffffffffffffffffffffffffffff1603611a5d576040517f08c379a0000000000000000000000000000000000000000000000000000000008152600401611a549061430e565b60405180910390fd5b611a6a83838360016122e8565b8273ffffffffffffffffffffffffffffffffffffffff16611a8a82610f35565b73ffffffffffffffffffffffffffffffffffffffff1614611ae0576040517f08c379a0000000000000000000000000000000000000000000000000000000008152600401611ad79061427c565b60405180910390fd5b6004600082815260200190815260200160002060006101000a81549073ffffffffffffffffffffffffffffffffffffffff02191690556001600360008573ffffffffffffffffffffffffffffffffffffffff1673ffffffffffffffffffffffffffffffffffffffff168152602001908152602001600020600082825403925050819055506001600360008473ffffffffffffffffffffffffffffffffffffffff1673ffffffffffffffffffffffffffffffffffffffff16815260200190815260200160002060008282540192505081905550816002600083815260200190815260200160002060006101000a81548173ffffffffffffffffffffffffffffffffffffffff021916908373ffffffffffffffffffffffffffffffffffffffff160217905550808273ffffffffffffffffffffffffffffffffffffffff168473ffffffffffffffffffffffffffffffffffffffff167fddf252ad1be2c89b69c2b068fc378daa952ba7f163c4a11628f55a4df523b3ef60405160405180910390a4611c6c83838360016122fa565b505050565b6002600c5403611cb6576040517f08c379a0000000000000000000000000000000000000000000000000000000008152600401611cad9061437a565b60405180910390fd5b6002600c81905550565b611cda828260405180602001604052806000815250612300565b5050565b6001600c81905550565b611cf0611822565b73ffffffffffffffffffffffffffffffffffffffff16611d0e6111cf565b73ffffffffffffffffffffffffffffffffffffffff1614611d64576040517f08c379a0000000000000000000000000000000000000000000000000000000008152600401611d5b906143e6565b60405180910390fd5b565b611d6e61235b565b6001600660006101000a81548160ff0219169083151502179055507f62e78cea01bee320cd4e420270b5ea74000d11b0c9f74754ebdbfc544b05a258611db2611822565b604051611dbf919061305b565b60405180910390a1565b60008073ffffffffffffffffffffffffffffffffffffffff16611deb83611e0a565b73ffffffffffffffffffffffffffffffffffffffff1614159050919050565b60006002600083815260200190815260200160002060009054906101000a900473ffffffffffffffffffffffffffffffffffffffff169050919050565b6000600b60009054906101000a900473ffffffffffffffffffffffffffffffffffffffff16905081600b60006101000a81548173ffffffffffffffffffffffffffffffffffffffff021916908373ffffffffffffffffffffffffffffffffffffffff1602179055508173ffffffffffffffffffffffffffffffffffffffff168173ffffffffffffffffffffffffffffffffffffffff167f8be0079c531659141344cd1fd0a4f28419497f9722a3daafe3b4186f6b6457e060405160405180910390a35050565b8173ffffffffffffffffffffffffffffffffffffffff168373ffffffffffffffffffffffffffffffffffffffff1603611f7b576040517f08c379a0000000000000000000000000000000000000000000000000000000008152600401611f7290614452565b60405180910390fd5b80600560008573ffffffffffffffffffffffffffffffffffffffff1673ffffffffffffffffffffffffffffffffffffffff16815260200190815260200160002060008473ffffffffffffffffffffffffffffffffffffffff1673ffffffffffffffffffffffffffffffffffffffff16815260200190815260200160002060006101000a81548160ff0219169083151502179055508173ffffffffffffffffffffffffffffffffffffffff168373ffffffffffffffffffffffffffffffffffffffff167f17307eab39ab6107e8899845ad3d59bd9653f200f220920489ca2b5937696c318360405161206c9190612eea565b60405180910390a3505050565b6120816123a5565b6000600660006101000a81548160ff0219169083151502179055507f5db9ee0a495bf2e6ff9c91a7834c1ba4fdd244a5e8aa4e537bd38aeae4b073aa6120c5611822565b6040516120d2919061305b565b60405180910390a1565b6120e7848484611978565b6120f3848484846123ee565b612132576040517f08c379a0000000000000000000000000000000000000000000000000000000008152600401612129906144e4565b60405180910390fd5b50505050565b60606000600161214784612575565b01905060008167ffffffffffffffff8111156121665761216561340d565b5b6040519080825280601f01601f1916602001820160405280156121985781602001600182028036833780820191505090505b509050600082602001820190505b6001156121fb578080600190039150507f3031323334353637383961626364656600000000000000000000000000000000600a86061a8153600a85816121ef576121ee614504565b5b049450600085036121a6575b819350505050919050565b60007f80ac58cd000000000000000000000000000000000000000000000000000000007bffffffffffffffffffffffffffffffffffffffffffffffffffffffff1916827bffffffffffffffffffffffffffffffffffffffffffffffffffffffff191614806122d157507f5b5e139f000000000000000000000000000000000000000000000000000000007bffffffffffffffffffffffffffffffffffffffffffffffffffffffff1916827bffffffffffffffffffffffffffffffffffffffffffffffffffffffff1916145b806122e157506122e0826126c8565b5b9050919050565b6122f484848484612732565b50505050565b50505050565b61230a8383612890565b61231760008484846123ee565b612356576040517f08c379a000000000000000000000000000000000000000000000000000000000815260040161234d906144e4565b60405180910390fd5b505050565b612363610f1e565b156123a3576040517f08c379a000000000000000000000000000000000000000000000000000000000815260040161239a9061457f565b60405180910390fd5b565b6123ad610f1e565b6123ec576040517f08c379a00000000000000000000000000000000000000000000000000000000081526004016123e3906145eb565b60405180910390fd5b565b600061240f8473ffffffffffffffffffffffffffffffffffffffff16612aad565b15612568578373ffffffffffffffffffffffffffffffffffffffff1663150b7a02612438611822565b8786866040518563ffffffff1660e01b815260040161245a9493929190614660565b6020604051808303816000875af192505050801561249657506040513d601f19601f8201168201806040525081019061249391906146c1565b60015b612518573d80600081146124c6576040519150601f19603f3d011682016040523d82523d6000602084013e6124cb565b606091505b506000815103612510576040517f08c379a0000000000000000000000000000000000000000000000000000000008152600401612507906144e4565b60405180910390fd5b805181602001fd5b63150b7a0260e01b7bffffffffffffffffffffffffffffffffffffffffffffffffffffffff1916817bffffffffffffffffffffffffffffffffffffffffffffffffffffffff19161491505061256d565b600190505b949350505050565b600080600090507a184f03e93ff9f4daa797ed6e38ed64bf6a1f01000000000000000083106125d3577a184f03e93ff9f4daa797ed6e38ed64bf6a1f01000000000000000083816125c9576125c8614504565b5b0492506040810190505b6d04ee2d6d415b85acef81000000008310612610576d04ee2d6d415b85acef8100000000838161260657612605614504565b5b0492506020810190505b662386f26fc10000831061263f57662386f26fc10000838161263557612634614504565b5b0492506010810190505b6305f5e1008310612668576305f5e100838161265e5761265d614504565b5b0492506008810190505b612710831061268d57612710838161268357612682614504565b5b0492506004810190505b606483106126b057606483816126a6576126a5614504565b5b0492506002810190505b600a83106126bf576001810190505b80915050919050565b60007f01ffc9a7000000000000000000000000000000000000000000000000000000007bffffffffffffffffffffffffffffffffffffffffffffffffffffffff1916827bffffffffffffffffffffffffffffffffffffffffffffffffffffffff1916149050919050565b61273e84848484612ad0565b6001811115612782576040517f08c379a000000000000000000000000000000000000000000000000000000000815260040161277990614760565b60405180910390fd5b6000829050600073ffffffffffffffffffffffffffffffffffffffff168573ffffffffffffffffffffffffffffffffffffffff16036127c9576127c481612b2a565b612808565b8373ffffffffffffffffffffffffffffffffffffffff168573ffffffffffffffffffffffffffffffffffffffff1614612807576128068582612b73565b5b5b600073ffffffffffffffffffffffffffffffffffffffff168473ffffffffffffffffffffffffffffffffffffffff160361284a5761284581612ce0565b612889565b8473ffffffffffffffffffffffffffffffffffffffff168473ffffffffffffffffffffffffffffffffffffffff1614612888576128878482612db1565b5b5b5050505050565b600073ffffffffffffffffffffffffffffffffffffffff168273ffffffffffffffffffffffffffffffffffffffff16036128ff576040517f08c379a00000000000000000000000000000000000000000000000000000000081526004016128f6906147cc565b60405180910390fd5b61290881611dc9565b15612948576040517f08c379a000000000000000000000000000000000000000000000000000000000815260040161293f90614838565b60405180910390fd5b6129566000838360016122e8565b61295f81611dc9565b1561299f576040517f08c379a000000000000000000000000000000000000000000000000000000000815260040161299690614838565b60405180910390fd5b6001600360008473ffffffffffffffffffffffffffffffffffffffff1673ffffffffffffffffffffffffffffffffffffffff16815260200190815260200160002060008282540192505081905550816002600083815260200190815260200160002060006101000a81548173ffffffffffffffffffffffffffffffffffffffff021916908373ffffffffffffffffffffffffffffffffffffffff160217905550808273ffffffffffffffffffffffffffffffffffffffff16600073ffffffffffffffffffffffffffffffffffffffff167fddf252ad1be2c89b69c2b068fc378daa952ba7f163c4a11628f55a4df523b3ef60405160405180910390a4612aa96000838360016122fa565b5050565b6000808273ffffffffffffffffffffffffffffffffffffffff163b119050919050565b612adc84848484612e30565b612ae4610f1e565b15612b24576040517f08c379a0000000000000000000000000000000000000000000000000000000008152600401612b1b906148ca565b60405180910390fd5b50505050565b600980549050600a600083815260200190815260200160002081905550600981908060018154018082558091505060019003906000526020600020016000909190919091505550565b60006001612b8084610fbb565b612b8a91906148ea565b9050600060086000848152602001908152602001600020549050818114612c6f576000600760008673ffffffffffffffffffffffffffffffffffffffff1673ffffffffffffffffffffffffffffffffffffffff168152602001908152602001600020600084815260200190815260200160002054905080600760008773ffffffffffffffffffffffffffffffffffffffff1673ffffffffffffffffffffffffffffffffffffffff168152602001908152602001600020600084815260200190815260200160002081905550816008600083815260200190815260200160002081905550505b6008600084815260200190815260200160002060009055600760008573ffffffffffffffffffffffffffffffffffffffff1673ffffffffffffffffffffffffffffffffffffffff16815260200190815260200160002060008381526020019081526020016000206000905550505050565b60006001600980549050612cf491906148ea565b90506000600a6000848152602001908152602001600020549050600060098381548110612d2457612d23613a9f565b5b906000526020600020015490508060098381548110612d4657612d45613a9f565b5b906000526020600020018190555081600a600083815260200190815260200160002081905550600a6000858152602001908152602001600020600090556009805480612d9557612d9461491e565b5b6001900381819060005260206000200160009055905550505050565b6000612dbc83610fbb565b905081600760008573ffffffffffffffffffffffffffffffffffffffff1673ffffffffffffffffffffffffffffffffffffffff168152602001908152602001600020600083815260200190815260200160002081905550806008600084815260200190815260200160002081905550505050565b50505050565b6000604051905090565b600080fd5b600080fd5b60007fffffffff0000000000000000000000000000000000000000000000000000000082169050919050565b612e7f81612e4a565b8114612e8a57600080fd5b50565b600081359050612e9c81612e76565b92915050565b600060208284031215612eb857612eb7612e40565b5b6000612ec684828501612e8d565b91505092915050565b60008115159050919050565b612ee481612ecf565b82525050565b6000602082019050612eff6000830184612edb565b92915050565b600081519050919050565b600082825260208201905092915050565b60005b83811015612f3f578082015181840152602081019050612f24565b60008484015250505050565b6000601f19601f8301169050919050565b6000612f6782612f05565b612f718185612f10565b9350612f81818560208601612f21565b612f8a81612f4b565b840191505092915050565b60006020820190508181036000830152612faf8184612f5c565b905092915050565b6000819050919050565b612fca81612fb7565b8114612fd557600080fd5b50565b600081359050612fe781612fc1565b92915050565b60006020828403121561300357613002612e40565b5b600061301184828501612fd8565b91505092915050565b600073ffffffffffffffffffffffffffffffffffffffff82169050919050565b60006130458261301a565b9050919050565b6130558161303a565b82525050565b6000602082019050613070600083018461304c565b92915050565b61307f8161303a565b811461308a57600080fd5b50565b60008135905061309c81613076565b92915050565b600080604083850312156130b9576130b8612e40565b5b60006130c78582860161308d565b92505060206130d885828601612fd8565b9150509250929050565b6130eb81612fb7565b82525050565b600060208201905061310660008301846130e2565b92915050565b60008060006060848603121561312557613124612e40565b5b60006131338682870161308d565b93505060206131448682870161308d565b925050604061315586828701612fd8565b9150509250925092565b60006020828403121561317557613174612e40565b5b60006131838482850161308d565b91505092915050565b600081519050919050565b600082825260208201905092915050565b6000819050602082019050919050565b6131c181612fb7565b82525050565b60006131d383836131b8565b60208301905092915050565b6000602082019050919050565b60006131f78261318c565b6132018185613197565b935061320c836131a8565b8060005b8381101561323d57815161322488826131c7565b975061322f836131df565b925050600181019050613210565b5085935050505092915050565b6000602082019050818103600083015261326481846131ec565b905092915050565b600080fd5b600080fd5b600080fd5b60008083601f8401126132915761329061326c565b5b8235905067ffffffffffffffff8111156132ae576132ad613271565b5b6020830191508360018202830111156132ca576132c9613276565b5b9250929050565b600080602083850312156132e8576132e7612e40565b5b600083013567ffffffffffffffff81111561330657613305612e45565b5b6133128582860161327b565b92509250509250929050565b60006133298261303a565b9050919050565b6133398161331e565b811461334457600080fd5b50565b60008135905061335681613330565b92915050565b6000806040838503121561337357613372612e40565b5b600061338185828601613347565b925050602061339285828601612fd8565b9150509250929050565b6133a581612ecf565b81146133b057600080fd5b50565b6000813590506133c28161339c565b92915050565b600080604083850312156133df576133de612e40565b5b60006133ed8582860161308d565b92505060206133fe858286016133b3565b9150509250929050565b600080fd5b7f4e487b7100000000000000000000000000000000000000000000000000000000600052604160045260246000fd5b61344582612f4b565b810181811067ffffffffffffffff821117156134645761346361340d565b5b80604052505050565b6000613477612e36565b9050613483828261343c565b919050565b600067ffffffffffffffff8211156134a3576134a261340d565b5b6134ac82612f4b565b9050602081019050919050565b82818337600083830152505050565b60006134db6134d684613488565b61346d565b9050828152602081018484840111156134f7576134f6613408565b5b6135028482856134b9565b509392505050565b600082601f83011261351f5761351e61326c565b5b813561352f8482602086016134c8565b91505092915050565b6000806000806080858703121561355257613551612e40565b5b60006135608782880161308d565b94505060206135718782880161308d565b935050604061358287828801612fd8565b925050606085013567ffffffffffffffff8111156135a3576135a2612e45565b5b6135af8782880161350a565b91505092959194509250565b600080604083850312156135d2576135d1612e40565b5b60006135e08582860161308d565b92505060206135f18582860161308d565b9150509250929050565b7f4e487b7100000000000000000000000000000000000000000000000000000000600052602260045260246000fd5b6000600282049050600182168061364257607f821691505b602082108103613655576136546135fb565b5b50919050565b7f4552433732313a20617070726f76616c20746f2063757272656e74206f776e6560008201527f7200000000000000000000000000000000000000000000000000000000000000602082015250565b60006136b7602183612f10565b91506136c28261365b565b604082019050919050565b600060208201905081810360008301526136e6816136aa565b9050919050565b7f4552433732313a20617070726f76652063616c6c6572206973206e6f7420746f60008201527f6b656e206f776e6572206f7220617070726f76656420666f7220616c6c000000602082015250565b6000613749603d83612f10565b9150613754826136ed565b604082019050919050565b600060208201905081810360008301526137788161373c565b9050919050565b7f4552433732313a2063616c6c6572206973206e6f7420746f6b656e206f776e6560008201527f72206f7220617070726f76656400000000000000000000000000000000000000602082015250565b60006137db602d83612f10565b91506137e68261377f565b604082019050919050565b6000602082019050818103600083015261380a816137ce565b9050919050565b7f455243373231456e756d657261626c653a206f776e657220696e646578206f7560008201527f74206f6620626f756e6473000000000000000000000000000000000000000000602082015250565b600061386d602b83612f10565b915061387882613811565b604082019050919050565b6000602082019050818103600083015261389c81613860565b9050919050565b7f4d696e74696e6720697320706175736564000000000000000000000000000000600082015250565b60006138d9601183612f10565b91506138e4826138a3565b602082019050919050565b60006020820190508181036000830152613908816138cc565b9050919050565b7f4d696e7465722061646472657373206973206e6f742076616c69640000000000600082015250565b6000613945601b83612f10565b91506139508261390f565b602082019050919050565b6000602082019050818103600083015261397481613938565b9050919050565b7f4e487b7100000000000000000000000000000000000000000000000000000000600052601160045260246000fd5b60006139b582612fb7565b91507fffffffffffffffffffffffffffffffffffffffffffffffffffffffffffffffff82036139e7576139e661397b565b5b600182019050919050565b6000604082019050613a07600083018561304c565b613a1460208301846130e2565b9392505050565b600081519050613a2a8161339c565b92915050565b600060208284031215613a4657613a45612e40565b5b6000613a5484828501613a1b565b91505092915050565b600081519050613a6c81612fc1565b92915050565b600060208284031215613a8857613a87612e40565b5b6000613a9684828501613a5d565b91505092915050565b7f4e487b7100000000000000000000000000000000000000000000000000000000600052603260045260246000fd5b7f455243373231456e756d657261626c653a20676c6f62616c20696e646578206f60008201527f7574206f6620626f756e64730000000000000000000000000000000000000000602082015250565b6000613b2a602c83612f10565b9150613b3582613ace565b604082019050919050565b60006020820190508181036000830152613b5981613b1d565b9050919050565b600082905092915050565b60008190508160005260206000209050919050565b60006020601f8301049050919050565b600082821b905092915050565b600060088302613bcd7fffffffffffffffffffffffffffffffffffffffffffffffffffffffffffffffff82613b90565b613bd78683613b90565b95508019841693508086168417925050509392505050565b6000819050919050565b6000613c14613c0f613c0a84612fb7565b613bef565b612fb7565b9050919050565b6000819050919050565b613c2e83613bf9565b613c42613c3a82613c1b565b848454613b9d565b825550505050565b600090565b613c57613c4a565b613c62818484613c25565b505050565b5b81811015613c8657613c7b600082613c4f565b600181019050613c68565b5050565b601f821115613ccb57613c9c81613b6b565b613ca584613b80565b81016020851015613cb4578190505b613cc8613cc085613b80565b830182613c67565b50505b505050565b600082821c905092915050565b6000613cee60001984600802613cd0565b1980831691505092915050565b6000613d078383613cdd565b9150826002028217905092915050565b613d218383613b60565b67ffffffffffffffff811115613d3a57613d3961340d565b5b613d44825461362a565b613d4f828285613c8a565b6000601f831160018114613d7e5760008415613d6c578287013590505b613d768582613cfb565b865550613dde565b601f198416613d8c86613b6b565b60005b82811015613db457848901358255600182019150602085019450602081019050613d8f565b86831015613dd15784890135613dcd601f891682613cdd565b8355505b6001600288020188555050505b50505050505050565b7f4552433732313a20696e76616c696420746f6b656e2049440000000000000000600082015250565b6000613e1d601883612f10565b9150613e2882613de7565b602082019050919050565b60006020820190508181036000830152613e4c81613e10565b9050919050565b7f4552433732313a2061646472657373207a65726f206973206e6f74206120766160008201527f6c6964206f776e65720000000000000000000000000000000000000000000000602082015250565b6000613eaf602983612f10565b9150613eba82613e53565b604082019050919050565b60006020820190508181036000830152613ede81613ea2565b9050919050565b600081905092915050565b50565b6000613f00600083613ee5565b9150613f0b82613ef0565b600082019050919050565b6000613f2182613ef3565b9150819050919050565b7f776974686472617720776173206e6f742073756363657366756c6c0000000000600082015250565b6000613f61601b83612f10565b9150613f6c82613f2b565b602082019050919050565b60006020820190508181036000830152613f9081613f54565b9050919050565b7f4552433732314d657461646174613a2055524920717565727920666f72206e6f60008201527f6e6578697374656e7420746f6b656e0000000000000000000000000000000000602082015250565b6000613ff3602f83612f10565b9150613ffe82613f97565b604082019050919050565b6000602082019050818103600083015261402281613fe6565b9050919050565b600081905092915050565b600081546140418161362a565b61404b8186614029565b94506001821660008114614066576001811461407b576140ae565b60ff19831686528115158202860193506140ae565b61408485613b6b565b60005b838110156140a657815481890152600182019150602081019050614087565b838801955050505b50505092915050565b60006140c282612f05565b6140cc8185614029565b93506140dc818560208601612f21565b80840191505092915050565b60006140f48285614034565b915061410082846140b7565b91508190509392505050565b7f4f776e61626c653a206e6577206f776e657220697320746865207a65726f206160008201527f6464726573730000000000000000000000000000000000000000000000000000602082015250565b6000614168602683612f10565b91506141738261410c565b604082019050919050565b600060208201905081810360008301526141978161415b565b9050919050565b7f496e76616c6964206d696e746572206164647265737300000000000000000000600082015250565b60006141d4601683612f10565b91506141df8261419e565b602082019050919050565b60006020820190508181036000830152614203816141c7565b9050919050565b7f4552433732313a207472616e736665722066726f6d20696e636f72726563742060008201527f6f776e6572000000000000000000000000000000000000000000000000000000602082015250565b6000614266602583612f10565b91506142718261420a565b604082019050919050565b6000602082019050818103600083015261429581614259565b9050919050565b7f4552433732313a207472616e7366657220746f20746865207a65726f2061646460008201527f7265737300000000000000000000000000000000000000000000000000000000602082015250565b60006142f8602483612f10565b91506143038261429c565b604082019050919050565b60006020820190508181036000830152614327816142eb565b9050919050565b7f5265656e7472616e637947756172643a207265656e7472616e742063616c6c00600082015250565b6000614364601f83612f10565b915061436f8261432e565b602082019050919050565b6000602082019050818103600083015261439381614357565b9050919050565b7f4f776e61626c653a2063616c6c6572206973206e6f7420746865206f776e6572600082015250565b60006143d0602083612f10565b91506143db8261439a565b602082019050919050565b600060208201905081810360008301526143ff816143c3565b9050919050565b7f4552433732313a20617070726f766520746f2063616c6c657200000000000000600082015250565b600061443c601983612f10565b915061444782614406565b602082019050919050565b6000602082019050818103600083015261446b8161442f565b9050919050565b7f4552433732313a207472616e7366657220746f206e6f6e20455243373231526560008201527f63656976657220696d706c656d656e7465720000000000000000000000000000602082015250565b60006144ce603283612f10565b91506144d982614472565b604082019050919050565b600060208201905081810360008301526144fd816144c1565b9050919050565b7f4e487b7100000000000000000000000000000000000000000000000000000000600052601260045260246000fd5b7f5061757361626c653a2070617573656400000000000000000000000000000000600082015250565b6000614569601083612f10565b915061457482614533565b602082019050919050565b600060208201905081810360008301526145988161455c565b9050919050565b7f5061757361626c653a206e6f7420706175736564000000000000000000000000600082015250565b60006145d5601483612f10565b91506145e08261459f565b602082019050919050565b60006020820190508181036000830152614604816145c8565b9050919050565b600081519050919050565b600082825260208201905092915050565b60006146328261460b565b61463c8185614616565b935061464c818560208601612f21565b61465581612f4b565b840191505092915050565b6000608082019050614675600083018761304c565b614682602083018661304c565b61468f60408301856130e2565b81810360608301526146a18184614627565b905095945050505050565b6000815190506146bb81612e76565b92915050565b6000602082840312156146d7576146d6612e40565b5b60006146e5848285016146ac565b91505092915050565b7f455243373231456e756d657261626c653a20636f6e736563757469766520747260008201527f616e7366657273206e6f7420737570706f727465640000000000000000000000602082015250565b600061474a603583612f10565b9150614755826146ee565b604082019050919050565b600060208201905081810360008301526147798161473d565b9050919050565b7f4552433732313a206d696e7420746f20746865207a65726f2061646472657373600082015250565b60006147b6602083612f10565b91506147c182614780565b602082019050919050565b600060208201905081810360008301526147e5816147a9565b9050919050565b7f4552433732313a20746f6b656e20616c7265616479206d696e74656400000000600082015250565b6000614822601c83612f10565b915061482d826147ec565b602082019050919050565b6000602082019050818103600083015261485181614815565b9050919050565b7f4552433732315061757361626c653a20746f6b656e207472616e73666572207760008201527f68696c6520706175736564000000000000000000000000000000000000000000602082015250565b60006148b4602b83612f10565b91506148bf82614858565b604082019050919050565b600060208201905081810360008301526148e3816148a7565b9050919050565b60006148f582612fb7565b915061490083612fb7565b92508282039050818111156149185761491761397b565b5b92915050565b7f4e487b7100000000000000000000000000000000000000000000000000000000600052603160045260246000fdfea2646970667358221220eeb7189be3dde8306ef2c7680009eb7be898e95a76b0652a2d9cccaf9c06a98164736f6c63430008120033","opcodes":"PUSH1 0x80 PUSH1 0x40 MSTORE PUSH1 0x0 PUSH1 0xF SSTORE CALLVALUE DUP1 ISZERO PUSH3 0x16 JUMPI PUSH1 0x0 DUP1 REVERT JUMPDEST POP PUSH1 0x40 MLOAD PUSH3 0x50A1 CODESIZE SUB DUP1 PUSH3 0x50A1 DUP4 CODECOPY DUP2 DUP2 ADD PUSH1 0x40 MSTORE DUP2 ADD SWAP1 PUSH3 0x3C SWAP2 SWAP1 PUSH3 0x38B JUMP JUMPDEST PUSH1 0x40 MLOAD DUP1 PUSH1 0x40 ADD PUSH1 0x40 MSTORE DUP1 PUSH1 0xD DUP2 MSTORE PUSH1 0x20 ADD PUSH32 0x52756E6976657273654974656D00000000000000000000000000000000000000 DUP2 MSTORE POP PUSH1 0x40 MLOAD DUP1 PUSH1 0x40 ADD PUSH1 0x40 MSTORE DUP1 PUSH1 0x4 DUP2 MSTORE PUSH1 0x20 ADD PUSH32 0x5249544D00000000000000000000000000000000000000000000000000000000 DUP2 MSTORE POP DUP2 PUSH1 0x0 SWAP1 DUP2 PUSH3 0xB9 SWAP2 SWAP1 PUSH3 0x627 JUMP JUMPDEST POP DUP1 PUSH1 0x1 SWAP1 DUP2 PUSH3 0xCB SWAP2 SWAP1 PUSH3 0x627 JUMP JUMPDEST POP POP POP PUSH1 0x0 PUSH1 0x6 PUSH1 0x0 PUSH2 0x100 EXP DUP2 SLOAD DUP2 PUSH1 0xFF MUL NOT AND SWAP1 DUP4 ISZERO ISZERO MUL OR SWAP1 SSTORE POP PUSH3 0x109 PUSH3 0xFD PUSH3 0x12A PUSH1 0x20 SHL PUSH1 0x20 SHR JUMP JUMPDEST PUSH3 0x132 PUSH1 0x20 SHL PUSH1 0x20 SHR JUMP JUMPDEST PUSH1 0x1 PUSH1 0xC DUP2 SWAP1 SSTORE POP DUP1 PUSH1 0xE SWAP1 DUP2 PUSH3 0x122 SWAP2 SWAP1 PUSH3 0x627 JUMP JUMPDEST POP POP PUSH3 0x70E JUMP JUMPDEST PUSH1 0x0 CALLER SWAP1 POP SWAP1 JUMP JUMPDEST PUSH1 0x0 PUSH1 0xB PUSH1 0x0 SWAP1 SLOAD SWAP1 PUSH2 0x100 EXP SWAP1 DIV PUSH20 0xFFFFFFFFFFFFFFFFFFFFFFFFFFFFFFFFFFFFFFFF AND SWAP1 POP DUP2 PUSH1 0xB PUSH1 0x0 PUSH2 0x100 EXP DUP2 SLOAD DUP2 PUSH20 0xFFFFFFFFFFFFFFFFFFFFFFFFFFFFFFFFFFFFFFFF MUL NOT AND SWAP1 DUP4 PUSH20 0xFFFFFFFFFFFFFFFFFFFFFFFFFFFFFFFFFFFFFFFF AND MUL OR SWAP1 SSTORE POP DUP2 PUSH20 0xFFFFFFFFFFFFFFFFFFFFFFFFFFFFFFFFFFFFFFFF AND DUP2 PUSH20 0xFFFFFFFFFFFFFFFFFFFFFFFFFFFFFFFFFFFFFFFF AND PUSH32 0x8BE0079C531659141344CD1FD0A4F28419497F9722A3DAAFE3B4186F6B6457E0 PUSH1 0x40 MLOAD PUSH1 0x40 MLOAD DUP1 SWAP2 SUB SWAP1 LOG3 POP POP JUMP JUMPDEST PUSH1 0x0 PUSH1 0x40 MLOAD SWAP1 POP SWAP1 JUMP JUMPDEST PUSH1 0x0 DUP1 REVERT JUMPDEST PUSH1 0x0 DUP1 REVERT JUMPDEST PUSH1 0x0 DUP1 REVERT JUMPDEST PUSH1 0x0 DUP1 REVERT JUMPDEST PUSH1 0x0 PUSH1 0x1F NOT PUSH1 0x1F DUP4 ADD AND SWAP1 POP SWAP2 SWAP1 POP JUMP JUMPDEST PUSH32 0x4E487B7100000000000000000000000000000000000000000000000000000000 PUSH1 0x0 MSTORE PUSH1 0x41 PUSH1 0x4 MSTORE PUSH1 0x24 PUSH1 0x0 REVERT JUMPDEST PUSH3 0x261 DUP3 PUSH3 0x216 JUMP JUMPDEST DUP2 ADD DUP2 DUP2 LT PUSH8 0xFFFFFFFFFFFFFFFF DUP3 GT OR ISZERO PUSH3 0x283 JUMPI PUSH3 0x282 PUSH3 0x227 JUMP JUMPDEST JUMPDEST DUP1 PUSH1 0x40 MSTORE POP POP POP JUMP JUMPDEST PUSH1 0x0 PUSH3 0x298 PUSH3 0x1F8 JUMP JUMPDEST SWAP1 POP PUSH3 0x2A6 DUP3 DUP3 PUSH3 0x256 JUMP JUMPDEST SWAP2 SWAP1 POP JUMP JUMPDEST PUSH1 0x0 PUSH8 0xFFFFFFFFFFFFFFFF DUP3 GT ISZERO PUSH3 0x2C9 JUMPI PUSH3 0x2C8 PUSH3 0x227 JUMP JUMPDEST JUMPDEST PUSH3 0x2D4 DUP3 PUSH3 0x216 JUMP JUMPDEST SWAP1 POP PUSH1 0x20 DUP2 ADD SWAP1 POP SWAP2 SWAP1 POP JUMP JUMPDEST PUSH1 0x0 JUMPDEST DUP4 DUP2 LT ISZERO PUSH3 0x301 JUMPI DUP1 DUP3 ADD MLOAD DUP2 DUP5 ADD MSTORE PUSH1 0x20 DUP2 ADD SWAP1 POP PUSH3 0x2E4 JUMP JUMPDEST PUSH1 0x0 DUP5 DUP5 ADD MSTORE POP POP POP POP JUMP JUMPDEST PUSH1 0x0 PUSH3 0x324 PUSH3 0x31E DUP5 PUSH3 0x2AB JUMP JUMPDEST PUSH3 0x28C JUMP JUMPDEST SWAP1 POP DUP3 DUP2 MSTORE PUSH1 0x20 DUP2 ADD DUP5 DUP5 DUP5 ADD GT ISZERO PUSH3 0x343 JUMPI PUSH3 0x342 PUSH3 0x211 JUMP JUMPDEST JUMPDEST PUSH3 0x350 DUP5 DUP3 DUP6 PUSH3 0x2E1 JUMP JUMPDEST POP SWAP4 SWAP3 POP POP POP JUMP JUMPDEST PUSH1 0x0 DUP3 PUSH1 0x1F DUP4 ADD SLT PUSH3 0x370 JUMPI PUSH3 0x36F PUSH3 0x20C JUMP JUMPDEST JUMPDEST DUP2 MLOAD PUSH3 0x382 DUP5 DUP3 PUSH1 0x20 DUP7 ADD PUSH3 0x30D JUMP JUMPDEST SWAP2 POP POP SWAP3 SWAP2 POP POP JUMP JUMPDEST PUSH1 0x0 PUSH1 0x20 DUP3 DUP5 SUB SLT ISZERO PUSH3 0x3A4 JUMPI PUSH3 0x3A3 PUSH3 0x202 JUMP JUMPDEST JUMPDEST PUSH1 0x0 DUP3 ADD MLOAD PUSH8 0xFFFFFFFFFFFFFFFF DUP2 GT ISZERO PUSH3 0x3C5 JUMPI PUSH3 0x3C4 PUSH3 0x207 JUMP JUMPDEST JUMPDEST PUSH3 0x3D3 DUP5 DUP3 DUP6 ADD PUSH3 0x358 JUMP JUMPDEST SWAP2 POP POP SWAP3 SWAP2 POP POP JUMP JUMPDEST PUSH1 0x0 DUP2 MLOAD SWAP1 POP SWAP2 SWAP1 POP JUMP JUMPDEST PUSH32 0x4E487B7100000000000000000000000000000000000000000000000000000000 PUSH1 0x0 MSTORE PUSH1 0x22 PUSH1 0x4 MSTORE PUSH1 0x24 PUSH1 0x0 REVERT JUMPDEST PUSH1 0x0 PUSH1 0x2 DUP3 DIV SWAP1 POP PUSH1 0x1 DUP3 AND DUP1 PUSH3 0x42F JUMPI PUSH1 0x7F DUP3 AND SWAP2 POP JUMPDEST PUSH1 0x20 DUP3 LT DUP2 SUB PUSH3 0x445 JUMPI PUSH3 0x444 PUSH3 0x3E7 JUMP JUMPDEST JUMPDEST POP SWAP2 SWAP1 POP JUMP JUMPDEST PUSH1 0x0 DUP2 SWAP1 POP DUP2 PUSH1 0x0 MSTORE PUSH1 0x20 PUSH1 0x0 KECCAK256 SWAP1 POP SWAP2 SWAP1 POP JUMP JUMPDEST PUSH1 0x0 PUSH1 0x20 PUSH1 0x1F DUP4 ADD DIV SWAP1 POP SWAP2 SWAP1 POP JUMP JUMPDEST PUSH1 0x0 DUP3 DUP3 SHL SWAP1 POP SWAP3 SWAP2 POP POP JUMP JUMPDEST PUSH1 0x0 PUSH1 0x8 DUP4 MUL PUSH3 0x4AF PUSH32 0xFFFFFFFFFFFFFFFFFFFFFFFFFFFFFFFFFFFFFFFFFFFFFFFFFFFFFFFFFFFFFFFF DUP3 PUSH3 0x470 JUMP JUMPDEST PUSH3 0x4BB DUP7 DUP4 PUSH3 0x470 JUMP JUMPDEST SWAP6 POP DUP1 NOT DUP5 AND SWAP4 POP DUP1 DUP7 AND DUP5 OR SWAP3 POP POP POP SWAP4 SWAP3 POP POP POP JUMP JUMPDEST PUSH1 0x0 DUP2 SWAP1 POP SWAP2 SWAP1 POP JUMP JUMPDEST PUSH1 0x0 DUP2 SWAP1 POP SWAP2 SWAP1 POP JUMP JUMPDEST PUSH1 0x0 PUSH3 0x508 PUSH3 0x502 PUSH3 0x4FC DUP5 PUSH3 0x4D3 JUMP JUMPDEST PUSH3 0x4DD JUMP JUMPDEST PUSH3 0x4D3 JUMP JUMPDEST SWAP1 POP SWAP2 SWAP1 POP JUMP JUMPDEST PUSH1 0x0 DUP2 SWAP1 POP SWAP2 SWAP1 POP JUMP JUMPDEST PUSH3 0x524 DUP4 PUSH3 0x4E7 JUMP JUMPDEST PUSH3 0x53C PUSH3 0x533 DUP3 PUSH3 0x50F JUMP JUMPDEST DUP5 DUP5 SLOAD PUSH3 0x47D JUMP JUMPDEST DUP3 SSTORE POP POP POP POP JUMP JUMPDEST PUSH1 0x0 SWAP1 JUMP JUMPDEST PUSH3 0x553 PUSH3 0x544 JUMP JUMPDEST PUSH3 0x560 DUP2 DUP5 DUP5 PUSH3 0x519 JUMP JUMPDEST POP POP POP JUMP JUMPDEST JUMPDEST DUP2 DUP2 LT ISZERO PUSH3 0x588 JUMPI PUSH3 0x57C PUSH1 0x0 DUP3 PUSH3 0x549 JUMP JUMPDEST PUSH1 0x1 DUP2 ADD SWAP1 POP PUSH3 0x566 JUMP JUMPDEST POP POP JUMP JUMPDEST PUSH1 0x1F DUP3 GT ISZERO PUSH3 0x5D7 JUMPI PUSH3 0x5A1 DUP2 PUSH3 0x44B JUMP JUMPDEST PUSH3 0x5AC DUP5 PUSH3 0x460 JUMP JUMPDEST DUP2 ADD PUSH1 0x20 DUP6 LT ISZERO PUSH3 0x5BC JUMPI DUP2 SWAP1 POP JUMPDEST PUSH3 0x5D4 PUSH3 0x5CB DUP6 PUSH3 0x460 JUMP JUMPDEST DUP4 ADD DUP3 PUSH3 0x565 JUMP JUMPDEST POP POP JUMPDEST POP POP POP JUMP JUMPDEST PUSH1 0x0 DUP3 DUP3 SHR SWAP1 POP SWAP3 SWAP2 POP POP JUMP JUMPDEST PUSH1 0x0 PUSH3 0x5FC PUSH1 0x0 NOT DUP5 PUSH1 0x8 MUL PUSH3 0x5DC JUMP JUMPDEST NOT DUP1 DUP4 AND SWAP2 POP POP SWAP3 SWAP2 POP POP JUMP JUMPDEST PUSH1 0x0 PUSH3 0x617 DUP4 DUP4 PUSH3 0x5E9 JUMP JUMPDEST SWAP2 POP DUP3 PUSH1 0x2 MUL DUP3 OR SWAP1 POP SWAP3 SWAP2 POP POP JUMP JUMPDEST PUSH3 0x632 DUP3 PUSH3 0x3DC JUMP JUMPDEST PUSH8 0xFFFFFFFFFFFFFFFF DUP2 GT ISZERO PUSH3 0x64E JUMPI PUSH3 0x64D PUSH3 0x227 JUMP JUMPDEST JUMPDEST PUSH3 0x65A DUP3 SLOAD PUSH3 0x416 JUMP JUMPDEST PUSH3 0x667 DUP3 DUP3 DUP6 PUSH3 0x58C JUMP JUMPDEST PUSH1 0x0 PUSH1 0x20 SWAP1 POP PUSH1 0x1F DUP4 GT PUSH1 0x1 DUP2 EQ PUSH3 0x69F JUMPI PUSH1 0x0 DUP5 ISZERO PUSH3 0x68A JUMPI DUP3 DUP8 ADD MLOAD SWAP1 POP JUMPDEST PUSH3 0x696 DUP6 DUP3 PUSH3 0x609 JUMP JUMPDEST DUP7 SSTORE POP PUSH3 0x706 JUMP JUMPDEST PUSH1 0x1F NOT DUP5 AND PUSH3 0x6AF DUP7 PUSH3 0x44B JUMP JUMPDEST PUSH1 0x0 JUMPDEST DUP3 DUP2 LT ISZERO PUSH3 0x6D9 JUMPI DUP5 DUP10 ADD MLOAD DUP3 SSTORE PUSH1 0x1 DUP3 ADD SWAP2 POP PUSH1 0x20 DUP6 ADD SWAP5 POP PUSH1 0x20 DUP2 ADD SWAP1 POP PUSH3 0x6B2 JUMP JUMPDEST DUP7 DUP4 LT ISZERO PUSH3 0x6F9 JUMPI DUP5 DUP10 ADD MLOAD PUSH3 0x6F5 PUSH1 0x1F DUP10 AND DUP3 PUSH3 0x5E9 JUMP JUMPDEST DUP4 SSTORE POP JUMPDEST PUSH1 0x1 PUSH1 0x2 DUP9 MUL ADD DUP9 SSTORE POP POP POP JUMPDEST POP POP POP POP POP POP JUMP JUMPDEST PUSH2 0x4983 DUP1 PUSH3 0x71E PUSH1 0x0 CODECOPY PUSH1 0x0 RETURN INVALID PUSH1 0x80 PUSH1 0x40 MSTORE PUSH1 0x4 CALLDATASIZE LT PUSH2 0x1EE JUMPI PUSH1 0x0 CALLDATALOAD PUSH1 0xE0 SHR DUP1 PUSH4 0x6352211E GT PUSH2 0x10D JUMPI DUP1 PUSH4 0xA22CB465 GT PUSH2 0xA0 JUMPI DUP1 PUSH4 0xD52079B4 GT PUSH2 0x6F JUMPI DUP1 PUSH4 0xD52079B4 EQ PUSH2 0x6DC JUMPI DUP1 PUSH4 0xD547CFB7 EQ PUSH2 0x707 JUMPI DUP1 PUSH4 0xE985E9C5 EQ PUSH2 0x732 JUMPI DUP1 PUSH4 0xF2FDE38B EQ PUSH2 0x76F JUMPI DUP1 PUSH4 0xFCA3B5AA EQ PUSH2 0x798 JUMPI PUSH2 0x1EE JUMP JUMPDEST DUP1 PUSH4 0xA22CB465 EQ PUSH2 0x636 JUMPI DUP1 PUSH4 0xB33712C5 EQ PUSH2 0x65F JUMPI DUP1 PUSH4 0xB88D4FDE EQ PUSH2 0x676 JUMPI DUP1 PUSH4 0xC87B56DD EQ PUSH2 0x69F JUMPI PUSH2 0x1EE JUMP JUMPDEST DUP1 PUSH4 0x853828B6 GT PUSH2 0xDC JUMPI DUP1 PUSH4 0x853828B6 EQ PUSH2 0x5AD JUMPI DUP1 PUSH4 0x8DA5CB5B EQ PUSH2 0x5B7 JUMPI DUP1 PUSH4 0x95D89B41 EQ PUSH2 0x5E2 JUMPI DUP1 PUSH4 0x9727151A EQ PUSH2 0x60D JUMPI PUSH2 0x1EE JUMP JUMPDEST DUP1 PUSH4 0x6352211E EQ PUSH2 0x4F1 JUMPI DUP1 PUSH4 0x70A08231 EQ PUSH2 0x52E JUMPI DUP1 PUSH4 0x714C5398 EQ PUSH2 0x56B JUMPI DUP1 PUSH4 0x715018A6 EQ PUSH2 0x596 JUMPI PUSH2 0x1EE JUMP JUMPDEST DUP1 PUSH4 0x34D722C9 GT PUSH2 0x185 JUMPI DUP1 PUSH4 0x4F558E79 GT PUSH2 0x154 JUMPI DUP1 PUSH4 0x4F558E79 EQ PUSH2 0x423 JUMPI DUP1 PUSH4 0x4F6CCCE7 EQ PUSH2 0x460 JUMPI DUP1 PUSH4 0x55F804B3 EQ PUSH2 0x49D JUMPI DUP1 PUSH4 0x5C975ABB EQ PUSH2 0x4C6 JUMPI PUSH2 0x1EE JUMP JUMPDEST DUP1 PUSH4 0x34D722C9 EQ PUSH2 0x37B JUMPI DUP1 PUSH4 0x42842E0E EQ PUSH2 0x3A6 JUMPI DUP1 PUSH4 0x439766CE EQ PUSH2 0x3CF JUMPI DUP1 PUSH4 0x450EFE21 EQ PUSH2 0x3E6 JUMPI PUSH2 0x1EE JUMP JUMPDEST DUP1 PUSH4 0x18160DDD GT PUSH2 0x1C1 JUMPI DUP1 PUSH4 0x18160DDD EQ PUSH2 0x2C1 JUMPI DUP1 PUSH4 0x23B872DD EQ PUSH2 0x2EC JUMPI DUP1 PUSH4 0x2F745C59 EQ PUSH2 0x315 JUMPI DUP1 PUSH4 0x32761D16 EQ PUSH2 0x352 JUMPI PUSH2 0x1EE JUMP JUMPDEST DUP1 PUSH4 0x1FFC9A7 EQ PUSH2 0x1F3 JUMPI DUP1 PUSH4 0x6FDDE03 EQ PUSH2 0x230 JUMPI DUP1 PUSH4 0x81812FC EQ PUSH2 0x25B JUMPI DUP1 PUSH4 0x95EA7B3 EQ PUSH2 0x298 JUMPI JUMPDEST PUSH1 0x0 DUP1 REVERT JUMPDEST CALLVALUE DUP1 ISZERO PUSH2 0x1FF JUMPI PUSH1 0x0 DUP1 REVERT JUMPDEST POP PUSH2 0x21A PUSH1 0x4 DUP1 CALLDATASIZE SUB DUP2 ADD SWAP1 PUSH2 0x215 SWAP2 SWAP1 PUSH2 0x2EA2 JUMP JUMPDEST PUSH2 0x7C1 JUMP JUMPDEST PUSH1 0x40 MLOAD PUSH2 0x227 SWAP2 SWAP1 PUSH2 0x2EEA JUMP JUMPDEST PUSH1 0x40 MLOAD DUP1 SWAP2 SUB SWAP1 RETURN JUMPDEST CALLVALUE DUP1 ISZERO PUSH2 0x23C JUMPI PUSH1 0x0 DUP1 REVERT JUMPDEST POP PUSH2 0x245 PUSH2 0x7D3 JUMP JUMPDEST PUSH1 0x40 MLOAD PUSH2 0x252 SWAP2 SWAP1 PUSH2 0x2F95 JUMP JUMPDEST PUSH1 0x40 MLOAD DUP1 SWAP2 SUB SWAP1 RETURN JUMPDEST CALLVALUE DUP1 ISZERO PUSH2 0x267 JUMPI PUSH1 0x0 DUP1 REVERT JUMPDEST POP PUSH2 0x282 PUSH1 0x4 DUP1 CALLDATASIZE SUB DUP2 ADD SWAP1 PUSH2 0x27D SWAP2 SWAP1 PUSH2 0x2FED JUMP JUMPDEST PUSH2 0x865 JUMP JUMPDEST PUSH1 0x40 MLOAD PUSH2 0x28F SWAP2 SWAP1 PUSH2 0x305B JUMP JUMPDEST PUSH1 0x40 MLOAD DUP1 SWAP2 SUB SWAP1 RETURN JUMPDEST CALLVALUE DUP1 ISZERO PUSH2 0x2A4 JUMPI PUSH1 0x0 DUP1 REVERT JUMPDEST POP PUSH2 0x2BF PUSH1 0x4 DUP1 CALLDATASIZE SUB DUP2 ADD SWAP1 PUSH2 0x2BA SWAP2 SWAP1 PUSH2 0x30A2 JUMP JUMPDEST PUSH2 0x8AB JUMP JUMPDEST STOP JUMPDEST CALLVALUE DUP1 ISZERO PUSH2 0x2CD JUMPI PUSH1 0x0 DUP1 REVERT JUMPDEST POP PUSH2 0x2D6 PUSH2 0x9C2 JUMP JUMPDEST PUSH1 0x40 MLOAD PUSH2 0x2E3 SWAP2 SWAP1 PUSH2 0x30F1 JUMP JUMPDEST PUSH1 0x40 MLOAD DUP1 SWAP2 SUB SWAP1 RETURN JUMPDEST CALLVALUE DUP1 ISZERO PUSH2 0x2F8 JUMPI PUSH1 0x0 DUP1 REVERT JUMPDEST POP PUSH2 0x313 PUSH1 0x4 DUP1 CALLDATASIZE SUB DUP2 ADD SWAP1 PUSH2 0x30E SWAP2 SWAP1 PUSH2 0x310C JUMP JUMPDEST PUSH2 0x9CF JUMP JUMPDEST STOP JUMPDEST CALLVALUE DUP1 ISZERO PUSH2 0x321 JUMPI PUSH1 0x0 DUP1 REVERT JUMPDEST POP PUSH2 0x33C PUSH1 0x4 DUP1 CALLDATASIZE SUB DUP2 ADD SWAP1 PUSH2 0x337 SWAP2 SWAP1 PUSH2 0x30A2 JUMP JUMPDEST PUSH2 0xA2F JUMP JUMPDEST PUSH1 0x40 MLOAD PUSH2 0x349 SWAP2 SWAP1 PUSH2 0x30F1 JUMP JUMPDEST PUSH1 0x40 MLOAD DUP1 SWAP2 SUB SWAP1 RETURN JUMPDEST CALLVALUE DUP1 ISZERO PUSH2 0x35E JUMPI PUSH1 0x0 DUP1 REVERT JUMPDEST POP PUSH2 0x379 PUSH1 0x4 DUP1 CALLDATASIZE SUB DUP2 ADD SWAP1 PUSH2 0x374 SWAP2 SWAP1 PUSH2 0x30A2 JUMP JUMPDEST PUSH2 0xAD4 JUMP JUMPDEST STOP JUMPDEST CALLVALUE DUP1 ISZERO PUSH2 0x387 JUMPI PUSH1 0x0 DUP1 REVERT JUMPDEST POP PUSH2 0x390 PUSH2 0xC20 JUMP JUMPDEST PUSH1 0x40 MLOAD PUSH2 0x39D SWAP2 SWAP1 PUSH2 0x305B JUMP JUMPDEST PUSH1 0x40 MLOAD DUP1 SWAP2 SUB SWAP1 RETURN JUMPDEST CALLVALUE DUP1 ISZERO PUSH2 0x3B2 JUMPI PUSH1 0x0 DUP1 REVERT JUMPDEST POP PUSH2 0x3CD PUSH1 0x4 DUP1 CALLDATASIZE SUB DUP2 ADD SWAP1 PUSH2 0x3C8 SWAP2 SWAP1 PUSH2 0x310C JUMP JUMPDEST PUSH2 0xC46 JUMP JUMPDEST STOP JUMPDEST CALLVALUE DUP1 ISZERO PUSH2 0x3DB JUMPI PUSH1 0x0 DUP1 REVERT JUMPDEST POP PUSH2 0x3E4 PUSH2 0xC66 JUMP JUMPDEST STOP JUMPDEST CALLVALUE DUP1 ISZERO PUSH2 0x3F2 JUMPI PUSH1 0x0 DUP1 REVERT JUMPDEST POP PUSH2 0x40D PUSH1 0x4 DUP1 CALLDATASIZE SUB DUP2 ADD SWAP1 PUSH2 0x408 SWAP2 SWAP1 PUSH2 0x315F JUMP JUMPDEST PUSH2 0xCEC JUMP JUMPDEST PUSH1 0x40 MLOAD PUSH2 0x41A SWAP2 SWAP1 PUSH2 0x324A JUMP JUMPDEST PUSH1 0x40 MLOAD DUP1 SWAP2 SUB SWAP1 RETURN JUMPDEST CALLVALUE DUP1 ISZERO PUSH2 0x42F JUMPI PUSH1 0x0 DUP1 REVERT JUMPDEST POP PUSH2 0x44A PUSH1 0x4 DUP1 CALLDATASIZE SUB DUP2 ADD SWAP1 PUSH2 0x445 SWAP2 SWAP1 PUSH2 0x2FED JUMP JUMPDEST PUSH2 0xE7D JUMP JUMPDEST PUSH1 0x40 MLOAD PUSH2 0x457 SWAP2 SWAP1 PUSH2 0x2EEA JUMP JUMPDEST PUSH1 0x40 MLOAD DUP1 SWAP2 SUB SWAP1 RETURN JUMPDEST CALLVALUE DUP1 ISZERO PUSH2 0x46C JUMPI PUSH1 0x0 DUP1 REVERT JUMPDEST POP PUSH2 0x487 PUSH1 0x4 DUP1 CALLDATASIZE SUB DUP2 ADD SWAP1 PUSH2 0x482 SWAP2 SWAP1 PUSH2 0x2FED JUMP JUMPDEST PUSH2 0xE8F JUMP JUMPDEST PUSH1 0x40 MLOAD PUSH2 0x494 SWAP2 SWAP1 PUSH2 0x30F1 JUMP JUMPDEST PUSH1 0x40 MLOAD DUP1 SWAP2 SUB SWAP1 RETURN JUMPDEST CALLVALUE DUP1 ISZERO PUSH2 0x4A9 JUMPI PUSH1 0x0 DUP1 REVERT JUMPDEST POP PUSH2 0x4C4 PUSH1 0x4 DUP1 CALLDATASIZE SUB DUP2 ADD SWAP1 PUSH2 0x4BF SWAP2 SWAP1 PUSH2 0x32D1 JUMP JUMPDEST PUSH2 0xF00 JUMP JUMPDEST STOP JUMPDEST CALLVALUE DUP1 ISZERO PUSH2 0x4D2 JUMPI PUSH1 0x0 DUP1 REVERT JUMPDEST POP PUSH2 0x4DB PUSH2 0xF1E JUMP JUMPDEST PUSH1 0x40 MLOAD PUSH2 0x4E8 SWAP2 SWAP1 PUSH2 0x2EEA JUMP JUMPDEST PUSH1 0x40 MLOAD DUP1 SWAP2 SUB SWAP1 RETURN JUMPDEST CALLVALUE DUP1 ISZERO PUSH2 0x4FD JUMPI PUSH1 0x0 DUP1 REVERT JUMPDEST POP PUSH2 0x518 PUSH1 0x4 DUP1 CALLDATASIZE SUB DUP2 ADD SWAP1 PUSH2 0x513 SWAP2 SWAP1 PUSH2 0x2FED JUMP JUMPDEST PUSH2 0xF35 JUMP JUMPDEST PUSH1 0x40 MLOAD PUSH2 0x525 SWAP2 SWAP1 PUSH2 0x305B JUMP JUMPDEST PUSH1 0x40 MLOAD DUP1 SWAP2 SUB SWAP1 RETURN JUMPDEST CALLVALUE DUP1 ISZERO PUSH2 0x53A JUMPI PUSH1 0x0 DUP1 REVERT JUMPDEST POP PUSH2 0x555 PUSH1 0x4 DUP1 CALLDATASIZE SUB DUP2 ADD SWAP1 PUSH2 0x550 SWAP2 SWAP1 PUSH2 0x315F JUMP JUMPDEST PUSH2 0xFBB JUMP JUMPDEST PUSH1 0x40 MLOAD PUSH2 0x562 SWAP2 SWAP1 PUSH2 0x30F1 JUMP JUMPDEST PUSH1 0x40 MLOAD DUP1 SWAP2 SUB SWAP1 RETURN JUMPDEST CALLVALUE DUP1 ISZERO PUSH2 0x577 JUMPI PUSH1 0x0 DUP1 REVERT JUMPDEST POP PUSH2 0x580 PUSH2 0x1072 JUMP JUMPDEST PUSH1 0x40 MLOAD PUSH2 0x58D SWAP2 SWAP1 PUSH2 0x2F95 JUMP JUMPDEST PUSH1 0x40 MLOAD DUP1 SWAP2 SUB SWAP1 RETURN JUMPDEST CALLVALUE DUP1 ISZERO PUSH2 0x5A2 JUMPI PUSH1 0x0 DUP1 REVERT JUMPDEST POP PUSH2 0x5AB PUSH2 0x1104 JUMP JUMPDEST STOP JUMPDEST PUSH2 0x5B5 PUSH2 0x1118 JUMP JUMPDEST STOP JUMPDEST CALLVALUE DUP1 ISZERO PUSH2 0x5C3 JUMPI PUSH1 0x0 DUP1 REVERT JUMPDEST POP PUSH2 0x5CC PUSH2 0x11CF JUMP JUMPDEST PUSH1 0x40 MLOAD PUSH2 0x5D9 SWAP2 SWAP1 PUSH2 0x305B JUMP JUMPDEST PUSH1 0x40 MLOAD DUP1 SWAP2 SUB SWAP1 RETURN JUMPDEST CALLVALUE DUP1 ISZERO PUSH2 0x5EE JUMPI PUSH1 0x0 DUP1 REVERT JUMPDEST POP PUSH2 0x5F7 PUSH2 0x11F9 JUMP JUMPDEST PUSH1 0x40 MLOAD PUSH2 0x604 SWAP2 SWAP1 PUSH2 0x2F95 JUMP JUMPDEST PUSH1 0x40 MLOAD DUP1 SWAP2 SUB SWAP1 RETURN JUMPDEST CALLVALUE DUP1 ISZERO PUSH2 0x619 JUMPI PUSH1 0x0 DUP1 REVERT JUMPDEST POP PUSH2 0x634 PUSH1 0x4 DUP1 CALLDATASIZE SUB DUP2 ADD SWAP1 PUSH2 0x62F SWAP2 SWAP1 PUSH2 0x335C JUMP JUMPDEST PUSH2 0x128B JUMP JUMPDEST STOP JUMPDEST CALLVALUE DUP1 ISZERO PUSH2 0x642 JUMPI PUSH1 0x0 DUP1 REVERT JUMPDEST POP PUSH2 0x65D PUSH1 0x4 DUP1 CALLDATASIZE SUB DUP2 ADD SWAP1 PUSH2 0x658 SWAP2 SWAP1 PUSH2 0x33C8 JUMP JUMPDEST PUSH2 0x137C JUMP JUMPDEST STOP JUMPDEST CALLVALUE DUP1 ISZERO PUSH2 0x66B JUMPI PUSH1 0x0 DUP1 REVERT JUMPDEST POP PUSH2 0x674 PUSH2 0x1392 JUMP JUMPDEST STOP JUMPDEST CALLVALUE DUP1 ISZERO PUSH2 0x682 JUMPI PUSH1 0x0 DUP1 REVERT JUMPDEST POP PUSH2 0x69D PUSH1 0x4 DUP1 CALLDATASIZE SUB DUP2 ADD SWAP1 PUSH2 0x698 SWAP2 SWAP1 PUSH2 0x3538 JUMP JUMPDEST PUSH2 0x1419 JUMP JUMPDEST STOP JUMPDEST CALLVALUE DUP1 ISZERO PUSH2 0x6AB JUMPI PUSH1 0x0 DUP1 REVERT JUMPDEST POP PUSH2 0x6C6 PUSH1 0x4 DUP1 CALLDATASIZE SUB DUP2 ADD SWAP1 PUSH2 0x6C1 SWAP2 SWAP1 PUSH2 0x2FED JUMP JUMPDEST PUSH2 0x147B JUMP JUMPDEST PUSH1 0x40 MLOAD PUSH2 0x6D3 SWAP2 SWAP1 PUSH2 0x2F95 JUMP JUMPDEST PUSH1 0x40 MLOAD DUP1 SWAP2 SUB SWAP1 RETURN JUMPDEST CALLVALUE DUP1 ISZERO PUSH2 0x6E8 JUMPI PUSH1 0x0 DUP1 REVERT JUMPDEST POP PUSH2 0x6F1 PUSH2 0x14F7 JUMP JUMPDEST PUSH1 0x40 MLOAD PUSH2 0x6FE SWAP2 SWAP1 PUSH2 0x30F1 JUMP JUMPDEST PUSH1 0x40 MLOAD DUP1 SWAP2 SUB SWAP1 RETURN JUMPDEST CALLVALUE DUP1 ISZERO PUSH2 0x713 JUMPI PUSH1 0x0 DUP1 REVERT JUMPDEST POP PUSH2 0x71C PUSH2 0x14FD JUMP JUMPDEST PUSH1 0x40 MLOAD PUSH2 0x729 SWAP2 SWAP1 PUSH2 0x2F95 JUMP JUMPDEST PUSH1 0x40 MLOAD DUP1 SWAP2 SUB SWAP1 RETURN JUMPDEST CALLVALUE DUP1 ISZERO PUSH2 0x73E JUMPI PUSH1 0x0 DUP1 REVERT JUMPDEST POP PUSH2 0x759 PUSH1 0x4 DUP1 CALLDATASIZE SUB DUP2 ADD SWAP1 PUSH2 0x754 SWAP2 SWAP1 PUSH2 0x35BB JUMP JUMPDEST PUSH2 0x158B JUMP JUMPDEST PUSH1 0x40 MLOAD PUSH2 0x766 SWAP2 SWAP1 PUSH2 0x2EEA JUMP JUMPDEST PUSH1 0x40 MLOAD DUP1 SWAP2 SUB SWAP1 RETURN JUMPDEST CALLVALUE DUP1 ISZERO PUSH2 0x77B JUMPI PUSH1 0x0 DUP1 REVERT JUMPDEST POP PUSH2 0x796 PUSH1 0x4 DUP1 CALLDATASIZE SUB DUP2 ADD SWAP1 PUSH2 0x791 SWAP2 SWAP1 PUSH2 0x315F JUMP JUMPDEST PUSH2 0x161F JUMP JUMPDEST STOP JUMPDEST CALLVALUE DUP1 ISZERO PUSH2 0x7A4 JUMPI PUSH1 0x0 DUP1 REVERT JUMPDEST POP PUSH2 0x7BF PUSH1 0x4 DUP1 CALLDATASIZE SUB DUP2 ADD SWAP1 PUSH2 0x7BA SWAP2 SWAP1 PUSH2 0x315F JUMP JUMPDEST PUSH2 0x16A2 JUMP JUMPDEST STOP JUMPDEST PUSH1 0x0 PUSH2 0x7CC DUP3 PUSH2 0x175D JUMP JUMPDEST SWAP1 POP SWAP2 SWAP1 POP JUMP JUMPDEST PUSH1 0x60 PUSH1 0x0 DUP1 SLOAD PUSH2 0x7E2 SWAP1 PUSH2 0x362A JUMP JUMPDEST DUP1 PUSH1 0x1F ADD PUSH1 0x20 DUP1 SWAP2 DIV MUL PUSH1 0x20 ADD PUSH1 0x40 MLOAD SWAP1 DUP2 ADD PUSH1 0x40 MSTORE DUP1 SWAP3 SWAP2 SWAP1 DUP2 DUP2 MSTORE PUSH1 0x20 ADD DUP3 DUP1 SLOAD PUSH2 0x80E SWAP1 PUSH2 0x362A JUMP JUMPDEST DUP1 ISZERO PUSH2 0x85B JUMPI DUP1 PUSH1 0x1F LT PUSH2 0x830 JUMPI PUSH2 0x100 DUP1 DUP4 SLOAD DIV MUL DUP4 MSTORE SWAP2 PUSH1 0x20 ADD SWAP2 PUSH2 0x85B JUMP JUMPDEST DUP3 ADD SWAP2 SWAP1 PUSH1 0x0 MSTORE PUSH1 0x20 PUSH1 0x0 KECCAK256 SWAP1 JUMPDEST DUP2 SLOAD DUP2 MSTORE SWAP1 PUSH1 0x1 ADD SWAP1 PUSH1 0x20 ADD DUP1 DUP4 GT PUSH2 0x83E JUMPI DUP3 SWAP1 SUB PUSH1 0x1F AND DUP3 ADD SWAP2 JUMPDEST POP POP POP POP POP SWAP1 POP SWAP1 JUMP JUMPDEST PUSH1 0x0 PUSH2 0x870 DUP3 PUSH2 0x17D7 JUMP JUMPDEST PUSH1 0x4 PUSH1 0x0 DUP4 DUP2 MSTORE PUSH1 0x20 ADD SWAP1 DUP2 MSTORE PUSH1 0x20 ADD PUSH1 0x0 KECCAK256 PUSH1 0x0 SWAP1 SLOAD SWAP1 PUSH2 0x100 EXP SWAP1 DIV PUSH20 0xFFFFFFFFFFFFFFFFFFFFFFFFFFFFFFFFFFFFFFFF AND SWAP1 POP SWAP2 SWAP1 POP JUMP JUMPDEST PUSH1 0x0 PUSH2 0x8B6 DUP3 PUSH2 0xF35 JUMP JUMPDEST SWAP1 POP DUP1 PUSH20 0xFFFFFFFFFFFFFFFFFFFFFFFFFFFFFFFFFFFFFFFF AND DUP4 PUSH20 0xFFFFFFFFFFFFFFFFFFFFFFFFFFFFFFFFFFFFFFFF AND SUB PUSH2 0x926 JUMPI PUSH1 0x40 MLOAD PUSH32 0x8C379A000000000000000000000000000000000000000000000000000000000 DUP2 MSTORE PUSH1 0x4 ADD PUSH2 0x91D SWAP1 PUSH2 0x36CD JUMP JUMPDEST PUSH1 0x40 MLOAD DUP1 SWAP2 SUB SWAP1 REVERT JUMPDEST DUP1 PUSH20 0xFFFFFFFFFFFFFFFFFFFFFFFFFFFFFFFFFFFFFFFF AND PUSH2 0x945 PUSH2 0x1822 JUMP JUMPDEST PUSH20 0xFFFFFFFFFFFFFFFFFFFFFFFFFFFFFFFFFFFFFFFF AND EQ DUP1 PUSH2 0x974 JUMPI POP PUSH2 0x973 DUP2 PUSH2 0x96E PUSH2 0x1822 JUMP JUMPDEST PUSH2 0x158B JUMP JUMPDEST JUMPDEST PUSH2 0x9B3 JUMPI PUSH1 0x40 MLOAD PUSH32 0x8C379A000000000000000000000000000000000000000000000000000000000 DUP2 MSTORE PUSH1 0x4 ADD PUSH2 0x9AA SWAP1 PUSH2 0x375F JUMP JUMPDEST PUSH1 0x40 MLOAD DUP1 SWAP2 SUB SWAP1 REVERT JUMPDEST PUSH2 0x9BD DUP4 DUP4 PUSH2 0x182A JUMP JUMPDEST POP POP POP JUMP JUMPDEST PUSH1 0x0 PUSH1 0x9 DUP1 SLOAD SWAP1 POP SWAP1 POP SWAP1 JUMP JUMPDEST PUSH2 0x9E0 PUSH2 0x9DA PUSH2 0x1822 JUMP JUMPDEST DUP3 PUSH2 0x18E3 JUMP JUMPDEST PUSH2 0xA1F JUMPI PUSH1 0x40 MLOAD PUSH32 0x8C379A000000000000000000000000000000000000000000000000000000000 DUP2 MSTORE PUSH1 0x4 ADD PUSH2 0xA16 SWAP1 PUSH2 0x37F1 JUMP JUMPDEST PUSH1 0x40 MLOAD DUP1 SWAP2 SUB SWAP1 REVERT JUMPDEST PUSH2 0xA2A DUP4 DUP4 DUP4 PUSH2 0x1978 JUMP JUMPDEST POP POP POP JUMP JUMPDEST PUSH1 0x0 PUSH2 0xA3A DUP4 PUSH2 0xFBB JUMP JUMPDEST DUP3 LT PUSH2 0xA7B JUMPI PUSH1 0x40 MLOAD PUSH32 0x8C379A000000000000000000000000000000000000000000000000000000000 DUP2 MSTORE PUSH1 0x4 ADD PUSH2 0xA72 SWAP1 PUSH2 0x3883 JUMP JUMPDEST PUSH1 0x40 MLOAD DUP1 SWAP2 SUB SWAP1 REVERT JUMPDEST PUSH1 0x7 PUSH1 0x0 DUP5 PUSH20 0xFFFFFFFFFFFFFFFFFFFFFFFFFFFFFFFFFFFFFFFF AND PUSH20 0xFFFFFFFFFFFFFFFFFFFFFFFFFFFFFFFFFFFFFFFF AND DUP2 MSTORE PUSH1 0x20 ADD SWAP1 DUP2 MSTORE PUSH1 0x20 ADD PUSH1 0x0 KECCAK256 PUSH1 0x0 DUP4 DUP2 MSTORE PUSH1 0x20 ADD SWAP1 DUP2 MSTORE PUSH1 0x20 ADD PUSH1 0x0 KECCAK256 SLOAD SWAP1 POP SWAP3 SWAP2 POP POP JUMP JUMPDEST PUSH2 0xADC PUSH2 0x1C71 JUMP JUMPDEST PUSH2 0xAE4 PUSH2 0xF1E JUMP JUMPDEST ISZERO PUSH2 0xB24 JUMPI PUSH1 0x40 MLOAD PUSH32 0x8C379A000000000000000000000000000000000000000000000000000000000 DUP2 MSTORE PUSH1 0x4 ADD PUSH2 0xB1B SWAP1 PUSH2 0x38EF JUMP JUMPDEST PUSH1 0x40 MLOAD DUP1 SWAP2 SUB SWAP1 REVERT JUMPDEST PUSH1 0xD PUSH1 0x0 SWAP1 SLOAD SWAP1 PUSH2 0x100 EXP SWAP1 DIV PUSH20 0xFFFFFFFFFFFFFFFFFFFFFFFFFFFFFFFFFFFFFFFF AND PUSH20 0xFFFFFFFFFFFFFFFFFFFFFFFFFFFFFFFFFFFFFFFF AND PUSH2 0xB65 PUSH2 0x1822 JUMP JUMPDEST PUSH20 0xFFFFFFFFFFFFFFFFFFFFFFFFFFFFFFFFFFFFFFFF AND EQ PUSH2 0xBBB JUMPI PUSH1 0x40 MLOAD PUSH32 0x8C379A000000000000000000000000000000000000000000000000000000000 DUP2 MSTORE PUSH1 0x4 ADD PUSH2 0xBB2 SWAP1 PUSH2 0x395B JUMP JUMPDEST PUSH1 0x40 MLOAD DUP1 SWAP2 SUB SWAP1 REVERT JUMPDEST PUSH1 0xF PUSH1 0x0 DUP2 SLOAD PUSH2 0xBCA SWAP1 PUSH2 0x39AA JUMP JUMPDEST SWAP2 SWAP1 POP DUP2 SWAP1 SSTORE POP PUSH32 0x604E0F34BA8D6D3F7F48C01C251C7BF880D71369B217E5B976CA6120CC51710C DUP3 DUP3 PUSH1 0x40 MLOAD PUSH2 0xC02 SWAP3 SWAP2 SWAP1 PUSH2 0x39F2 JUMP JUMPDEST PUSH1 0x40 MLOAD DUP1 SWAP2 SUB SWAP1 LOG1 PUSH2 0xC14 DUP3 DUP3 PUSH2 0x1CC0 JUMP JUMPDEST PUSH2 0xC1C PUSH2 0x1CDE JUMP JUMPDEST POP POP JUMP JUMPDEST PUSH1 0xD PUSH1 0x0 SWAP1 SLOAD SWAP1 PUSH2 0x100 EXP SWAP1 DIV PUSH20 0xFFFFFFFFFFFFFFFFFFFFFFFFFFFFFFFFFFFFFFFF AND DUP2 JUMP JUMPDEST PUSH2 0xC61 DUP4 DUP4 DUP4 PUSH1 0x40 MLOAD DUP1 PUSH1 0x20 ADD PUSH1 0x40 MSTORE DUP1 PUSH1 0x0 DUP2 MSTORE POP PUSH2 0x1419 JUMP JUMPDEST POP POP POP JUMP JUMPDEST PUSH2 0xC6E PUSH2 0x1CE8 JUMP JUMPDEST ADDRESS PUSH20 0xFFFFFFFFFFFFFFFFFFFFFFFFFFFFFFFFFFFFFFFF AND PUSH4 0x5C975ABB PUSH1 0x40 MLOAD DUP2 PUSH4 0xFFFFFFFF AND PUSH1 0xE0 SHL DUP2 MSTORE PUSH1 0x4 ADD PUSH1 0x20 PUSH1 0x40 MLOAD DUP1 DUP4 SUB DUP2 DUP7 GAS STATICCALL ISZERO DUP1 ISZERO PUSH2 0xCB9 JUMPI RETURNDATASIZE PUSH1 0x0 DUP1 RETURNDATACOPY RETURNDATASIZE PUSH1 0x0 REVERT JUMPDEST POP POP POP POP PUSH1 0x40 MLOAD RETURNDATASIZE PUSH1 0x1F NOT PUSH1 0x1F DUP3 ADD AND DUP3 ADD DUP1 PUSH1 0x40 MSTORE POP DUP2 ADD SWAP1 PUSH2 0xCDD SWAP2 SWAP1 PUSH2 0x3A30 JUMP JUMPDEST PUSH2 0xCEA JUMPI PUSH2 0xCE9 PUSH2 0x1D66 JUMP JUMPDEST JUMPDEST JUMP JUMPDEST PUSH1 0x60 PUSH1 0x0 ADDRESS PUSH20 0xFFFFFFFFFFFFFFFFFFFFFFFFFFFFFFFFFFFFFFFF AND PUSH4 0x70A08231 DUP5 PUSH1 0x40 MLOAD DUP3 PUSH4 0xFFFFFFFF AND PUSH1 0xE0 SHL DUP2 MSTORE PUSH1 0x4 ADD PUSH2 0xD29 SWAP2 SWAP1 PUSH2 0x305B JUMP JUMPDEST PUSH1 0x20 PUSH1 0x40 MLOAD DUP1 DUP4 SUB DUP2 DUP7 GAS STATICCALL ISZERO DUP1 ISZERO PUSH2 0xD46 JUMPI RETURNDATASIZE PUSH1 0x0 DUP1 RETURNDATACOPY RETURNDATASIZE PUSH1 0x0 REVERT JUMPDEST POP POP POP POP PUSH1 0x40 MLOAD RETURNDATASIZE PUSH1 0x1F NOT PUSH1 0x1F DUP3 ADD AND DUP3 ADD DUP1 PUSH1 0x40 MSTORE POP DUP2 ADD SWAP1 PUSH2 0xD6A SWAP2 SWAP1 PUSH2 0x3A72 JUMP JUMPDEST SWAP1 POP PUSH1 0x0 DUP2 PUSH8 0xFFFFFFFFFFFFFFFF DUP2 GT ISZERO PUSH2 0xD88 JUMPI PUSH2 0xD87 PUSH2 0x340D JUMP JUMPDEST JUMPDEST PUSH1 0x40 MLOAD SWAP1 DUP1 DUP3 MSTORE DUP1 PUSH1 0x20 MUL PUSH1 0x20 ADD DUP3 ADD PUSH1 0x40 MSTORE DUP1 ISZERO PUSH2 0xDB6 JUMPI DUP2 PUSH1 0x20 ADD PUSH1 0x20 DUP3 MUL DUP1 CALLDATASIZE DUP4 CALLDATACOPY DUP1 DUP3 ADD SWAP2 POP POP SWAP1 POP JUMPDEST POP SWAP1 POP PUSH1 0x0 JUMPDEST DUP3 DUP2 LT ISZERO PUSH2 0xE72 JUMPI ADDRESS PUSH20 0xFFFFFFFFFFFFFFFFFFFFFFFFFFFFFFFFFFFFFFFF AND PUSH4 0x2F745C59 DUP7 DUP4 PUSH1 0x40 MLOAD DUP4 PUSH4 0xFFFFFFFF AND PUSH1 0xE0 SHL DUP2 MSTORE PUSH1 0x4 ADD PUSH2 0xDFF SWAP3 SWAP2 SWAP1 PUSH2 0x39F2 JUMP JUMPDEST PUSH1 0x20 PUSH1 0x40 MLOAD DUP1 DUP4 SUB DUP2 DUP7 GAS STATICCALL ISZERO DUP1 ISZERO PUSH2 0xE1C JUMPI RETURNDATASIZE PUSH1 0x0 DUP1 RETURNDATACOPY RETURNDATASIZE PUSH1 0x0 REVERT JUMPDEST POP POP POP POP PUSH1 0x40 MLOAD RETURNDATASIZE PUSH1 0x1F NOT PUSH1 0x1F DUP3 ADD AND DUP3 ADD DUP1 PUSH1 0x40 MSTORE POP DUP2 ADD SWAP1 PUSH2 0xE40 SWAP2 SWAP1 PUSH2 0x3A72 JUMP JUMPDEST DUP3 DUP3 DUP2 MLOAD DUP2 LT PUSH2 0xE53 JUMPI PUSH2 0xE52 PUSH2 0x3A9F JUMP JUMPDEST JUMPDEST PUSH1 0x20 MUL PUSH1 0x20 ADD ADD DUP2 DUP2 MSTORE POP POP DUP1 DUP1 PUSH2 0xE6A SWAP1 PUSH2 0x39AA JUMP JUMPDEST SWAP2 POP POP PUSH2 0xDBC JUMP JUMPDEST POP DUP1 SWAP3 POP POP POP SWAP2 SWAP1 POP JUMP JUMPDEST PUSH1 0x0 PUSH2 0xE88 DUP3 PUSH2 0x1DC9 JUMP JUMPDEST SWAP1 POP SWAP2 SWAP1 POP JUMP JUMPDEST PUSH1 0x0 PUSH2 0xE99 PUSH2 0x9C2 JUMP JUMPDEST DUP3 LT PUSH2 0xEDA JUMPI PUSH1 0x40 MLOAD PUSH32 0x8C379A000000000000000000000000000000000000000000000000000000000 DUP2 MSTORE PUSH1 0x4 ADD PUSH2 0xED1 SWAP1 PUSH2 0x3B40 JUMP JUMPDEST PUSH1 0x40 MLOAD DUP1 SWAP2 SUB SWAP1 REVERT JUMPDEST PUSH1 0x9 DUP3 DUP2 SLOAD DUP2 LT PUSH2 0xEEE JUMPI PUSH2 0xEED PUSH2 0x3A9F JUMP JUMPDEST JUMPDEST SWAP1 PUSH1 0x0 MSTORE PUSH1 0x20 PUSH1 0x0 KECCAK256 ADD SLOAD SWAP1 POP SWAP2 SWAP1 POP JUMP JUMPDEST PUSH2 0xF08 PUSH2 0x1CE8 JUMP JUMPDEST DUP2 DUP2 PUSH1 0xE SWAP2 DUP3 PUSH2 0xF19 SWAP3 SWAP2 SWAP1 PUSH2 0x3D17 JUMP JUMPDEST POP POP POP JUMP JUMPDEST PUSH1 0x0 PUSH1 0x6 PUSH1 0x0 SWAP1 SLOAD SWAP1 PUSH2 0x100 EXP SWAP1 DIV PUSH1 0xFF AND SWAP1 POP SWAP1 JUMP JUMPDEST PUSH1 0x0 DUP1 PUSH2 0xF41 DUP4 PUSH2 0x1E0A JUMP JUMPDEST SWAP1 POP PUSH1 0x0 PUSH20 0xFFFFFFFFFFFFFFFFFFFFFFFFFFFFFFFFFFFFFFFF AND DUP2 PUSH20 0xFFFFFFFFFFFFFFFFFFFFFFFFFFFFFFFFFFFFFFFF AND SUB PUSH2 0xFB2 JUMPI PUSH1 0x40 MLOAD PUSH32 0x8C379A000000000000000000000000000000000000000000000000000000000 DUP2 MSTORE PUSH1 0x4 ADD PUSH2 0xFA9 SWAP1 PUSH2 0x3E33 JUMP JUMPDEST PUSH1 0x40 MLOAD DUP1 SWAP2 SUB SWAP1 REVERT JUMPDEST DUP1 SWAP2 POP POP SWAP2 SWAP1 POP JUMP JUMPDEST PUSH1 0x0 DUP1 PUSH20 0xFFFFFFFFFFFFFFFFFFFFFFFFFFFFFFFFFFFFFFFF AND DUP3 PUSH20 0xFFFFFFFFFFFFFFFFFFFFFFFFFFFFFFFFFFFFFFFF AND SUB PUSH2 0x102B JUMPI PUSH1 0x40 MLOAD PUSH32 0x8C379A000000000000000000000000000000000000000000000000000000000 DUP2 MSTORE PUSH1 0x4 ADD PUSH2 0x1022 SWAP1 PUSH2 0x3EC5 JUMP JUMPDEST PUSH1 0x40 MLOAD DUP1 SWAP2 SUB SWAP1 REVERT JUMPDEST PUSH1 0x3 PUSH1 0x0 DUP4 PUSH20 0xFFFFFFFFFFFFFFFFFFFFFFFFFFFFFFFFFFFFFFFF AND PUSH20 0xFFFFFFFFFFFFFFFFFFFFFFFFFFFFFFFFFFFFFFFF AND DUP2 MSTORE PUSH1 0x20 ADD SWAP1 DUP2 MSTORE PUSH1 0x20 ADD PUSH1 0x0 KECCAK256 SLOAD SWAP1 POP SWAP2 SWAP1 POP JUMP JUMPDEST PUSH1 0x60 PUSH1 0xE DUP1 SLOAD PUSH2 0x1081 SWAP1 PUSH2 0x362A JUMP JUMPDEST DUP1 PUSH1 0x1F ADD PUSH1 0x20 DUP1 SWAP2 DIV MUL PUSH1 0x20 ADD PUSH1 0x40 MLOAD SWAP1 DUP2 ADD PUSH1 0x40 MSTORE DUP1 SWAP3 SWAP2 SWAP1 DUP2 DUP2 MSTORE PUSH1 0x20 ADD DUP3 DUP1 SLOAD PUSH2 0x10AD SWAP1 PUSH2 0x362A JUMP JUMPDEST DUP1 ISZERO PUSH2 0x10FA JUMPI DUP1 PUSH1 0x1F LT PUSH2 0x10CF JUMPI PUSH2 0x100 DUP1 DUP4 SLOAD DIV MUL DUP4 MSTORE SWAP2 PUSH1 0x20 ADD SWAP2 PUSH2 0x10FA JUMP JUMPDEST DUP3 ADD SWAP2 SWAP1 PUSH1 0x0 MSTORE PUSH1 0x20 PUSH1 0x0 KECCAK256 SWAP1 JUMPDEST DUP2 SLOAD DUP2 MSTORE SWAP1 PUSH1 0x1 ADD SWAP1 PUSH1 0x20 ADD DUP1 DUP4 GT PUSH2 0x10DD JUMPI DUP3 SWAP1 SUB PUSH1 0x1F AND DUP3 ADD SWAP2 JUMPDEST POP POP POP POP POP SWAP1 POP SWAP1 JUMP JUMPDEST PUSH2 0x110C PUSH2 0x1CE8 JUMP JUMPDEST PUSH2 0x1116 PUSH1 0x0 PUSH2 0x1E47 JUMP JUMPDEST JUMP JUMPDEST PUSH2 0x1120 PUSH2 0x1CE8 JUMP JUMPDEST PUSH1 0x0 CALLER PUSH20 0xFFFFFFFFFFFFFFFFFFFFFFFFFFFFFFFFFFFFFFFF AND SELFBALANCE PUSH1 0x40 MLOAD PUSH2 0x1146 SWAP1 PUSH2 0x3F16 JUMP JUMPDEST PUSH1 0x0 PUSH1 0x40 MLOAD DUP1 DUP4 SUB DUP2 DUP6 DUP8 GAS CALL SWAP3 POP POP POP RETURNDATASIZE DUP1 PUSH1 0x0 DUP2 EQ PUSH2 0x1183 JUMPI PUSH1 0x40 MLOAD SWAP2 POP PUSH1 0x1F NOT PUSH1 0x3F RETURNDATASIZE ADD AND DUP3 ADD PUSH1 0x40 MSTORE RETURNDATASIZE DUP3 MSTORE RETURNDATASIZE PUSH1 0x0 PUSH1 0x20 DUP5 ADD RETURNDATACOPY PUSH2 0x1188 JUMP JUMPDEST PUSH1 0x60 SWAP2 POP JUMPDEST POP POP SWAP1 POP DUP1 PUSH2 0x11CC JUMPI PUSH1 0x40 MLOAD PUSH32 0x8C379A000000000000000000000000000000000000000000000000000000000 DUP2 MSTORE PUSH1 0x4 ADD PUSH2 0x11C3 SWAP1 PUSH2 0x3F77 JUMP JUMPDEST PUSH1 0x40 MLOAD DUP1 SWAP2 SUB SWAP1 REVERT JUMPDEST POP JUMP JUMPDEST PUSH1 0x0 PUSH1 0xB PUSH1 0x0 SWAP1 SLOAD SWAP1 PUSH2 0x100 EXP SWAP1 DIV PUSH20 0xFFFFFFFFFFFFFFFFFFFFFFFFFFFFFFFFFFFFFFFF AND SWAP1 POP SWAP1 JUMP JUMPDEST PUSH1 0x60 PUSH1 0x1 DUP1 SLOAD PUSH2 0x1208 SWAP1 PUSH2 0x362A JUMP JUMPDEST DUP1 PUSH1 0x1F ADD PUSH1 0x20 DUP1 SWAP2 DIV MUL PUSH1 0x20 ADD PUSH1 0x40 MLOAD SWAP1 DUP2 ADD PUSH1 0x40 MSTORE DUP1 SWAP3 SWAP2 SWAP1 DUP2 DUP2 MSTORE PUSH1 0x20 ADD DUP3 DUP1 SLOAD PUSH2 0x1234 SWAP1 PUSH2 0x362A JUMP JUMPDEST DUP1 ISZERO PUSH2 0x1281 JUMPI DUP1 PUSH1 0x1F LT PUSH2 0x1256 JUMPI PUSH2 0x100 DUP1 DUP4 SLOAD DIV MUL DUP4 MSTORE SWAP2 PUSH1 0x20 ADD SWAP2 PUSH2 0x1281 JUMP JUMPDEST DUP3 ADD SWAP2 SWAP1 PUSH1 0x0 MSTORE PUSH1 0x20 PUSH1 0x0 KECCAK256 SWAP1 JUMPDEST DUP2 SLOAD DUP2 MSTORE SWAP1 PUSH1 0x1 ADD SWAP1 PUSH1 0x20 ADD DUP1 DUP4 GT PUSH2 0x1264 JUMPI DUP3 SWAP1 SUB PUSH1 0x1F AND DUP3 ADD SWAP2 JUMPDEST POP POP POP POP POP SWAP1 POP SWAP1 JUMP JUMPDEST PUSH2 0x1293 PUSH2 0x1CE8 JUMP JUMPDEST PUSH1 0x0 PUSH20 0xFFFFFFFFFFFFFFFFFFFFFFFFFFFFFFFFFFFFFFFF AND CALLER PUSH20 0xFFFFFFFFFFFFFFFFFFFFFFFFFFFFFFFFFFFFFFFF AND SUB PUSH2 0x12F9 JUMPI PUSH1 0x40 MLOAD PUSH32 0x48AC165200000000000000000000000000000000000000000000000000000000 DUP2 MSTORE PUSH1 0x4 ADD PUSH1 0x40 MLOAD DUP1 SWAP2 SUB SWAP1 REVERT JUMPDEST DUP2 PUSH20 0xFFFFFFFFFFFFFFFFFFFFFFFFFFFFFFFFFFFFFFFF AND PUSH4 0xA9059CBB CALLER DUP4 PUSH1 0x40 MLOAD DUP4 PUSH4 0xFFFFFFFF AND PUSH1 0xE0 SHL DUP2 MSTORE PUSH1 0x4 ADD PUSH2 0x1334 SWAP3 SWAP2 SWAP1 PUSH2 0x39F2 JUMP JUMPDEST PUSH1 0x20 PUSH1 0x40 MLOAD DUP1 DUP4 SUB DUP2 PUSH1 0x0 DUP8 GAS CALL ISZERO DUP1 ISZERO PUSH2 0x1353 JUMPI RETURNDATASIZE PUSH1 0x0 DUP1 RETURNDATACOPY RETURNDATASIZE PUSH1 0x0 REVERT JUMPDEST POP POP POP POP PUSH1 0x40 MLOAD RETURNDATASIZE PUSH1 0x1F NOT PUSH1 0x1F DUP3 ADD AND DUP3 ADD DUP1 PUSH1 0x40 MSTORE POP DUP2 ADD SWAP1 PUSH2 0x1377 SWAP2 SWAP1 PUSH2 0x3A30 JUMP JUMPDEST POP POP POP JUMP JUMPDEST PUSH2 0x138E PUSH2 0x1387 PUSH2 0x1822 JUMP JUMPDEST DUP4 DUP4 PUSH2 0x1F0D JUMP JUMPDEST POP POP JUMP JUMPDEST PUSH2 0x139A PUSH2 0x1CE8 JUMP JUMPDEST ADDRESS PUSH20 0xFFFFFFFFFFFFFFFFFFFFFFFFFFFFFFFFFFFFFFFF AND PUSH4 0x5C975ABB PUSH1 0x40 MLOAD DUP2 PUSH4 0xFFFFFFFF AND PUSH1 0xE0 SHL DUP2 MSTORE PUSH1 0x4 ADD PUSH1 0x20 PUSH1 0x40 MLOAD DUP1 DUP4 SUB DUP2 DUP7 GAS STATICCALL ISZERO DUP1 ISZERO PUSH2 0x13E5 JUMPI RETURNDATASIZE PUSH1 0x0 DUP1 RETURNDATACOPY RETURNDATASIZE PUSH1 0x0 REVERT JUMPDEST POP POP POP POP PUSH1 0x40 MLOAD RETURNDATASIZE PUSH1 0x1F NOT PUSH1 0x1F DUP3 ADD AND DUP3 ADD DUP1 PUSH1 0x40 MSTORE POP DUP2 ADD SWAP1 PUSH2 0x1409 SWAP2 SWAP1 PUSH2 0x3A30 JUMP JUMPDEST ISZERO PUSH2 0x1417 JUMPI PUSH2 0x1416 PUSH2 0x2079 JUMP JUMPDEST JUMPDEST JUMP JUMPDEST PUSH2 0x142A PUSH2 0x1424 PUSH2 0x1822 JUMP JUMPDEST DUP4 PUSH2 0x18E3 JUMP JUMPDEST PUSH2 0x1469 JUMPI PUSH1 0x40 MLOAD PUSH32 0x8C379A000000000000000000000000000000000000000000000000000000000 DUP2 MSTORE PUSH1 0x4 ADD PUSH2 0x1460 SWAP1 PUSH2 0x37F1 JUMP JUMPDEST PUSH1 0x40 MLOAD DUP1 SWAP2 SUB SWAP1 REVERT JUMPDEST PUSH2 0x1475 DUP5 DUP5 DUP5 DUP5 PUSH2 0x20DC JUMP JUMPDEST POP POP POP POP JUMP JUMPDEST PUSH1 0x60 PUSH2 0x1486 DUP3 PUSH2 0x1DC9 JUMP JUMPDEST PUSH2 0x14C5 JUMPI PUSH1 0x40 MLOAD PUSH32 0x8C379A000000000000000000000000000000000000000000000000000000000 DUP2 MSTORE PUSH1 0x4 ADD PUSH2 0x14BC SWAP1 PUSH2 0x4009 JUMP JUMPDEST PUSH1 0x40 MLOAD DUP1 SWAP2 SUB SWAP1 REVERT JUMPDEST PUSH1 0xE PUSH2 0x14D0 DUP4 PUSH2 0x2138 JUMP JUMPDEST PUSH1 0x40 MLOAD PUSH1 0x20 ADD PUSH2 0x14E1 SWAP3 SWAP2 SWAP1 PUSH2 0x40E8 JUMP JUMPDEST PUSH1 0x40 MLOAD PUSH1 0x20 DUP2 DUP4 SUB SUB DUP2 MSTORE SWAP1 PUSH1 0x40 MSTORE SWAP1 POP SWAP2 SWAP1 POP JUMP JUMPDEST PUSH1 0xF SLOAD DUP2 JUMP JUMPDEST PUSH1 0xE DUP1 SLOAD PUSH2 0x150A SWAP1 PUSH2 0x362A JUMP JUMPDEST DUP1 PUSH1 0x1F ADD PUSH1 0x20 DUP1 SWAP2 DIV MUL PUSH1 0x20 ADD PUSH1 0x40 MLOAD SWAP1 DUP2 ADD PUSH1 0x40 MSTORE DUP1 SWAP3 SWAP2 SWAP1 DUP2 DUP2 MSTORE PUSH1 0x20 ADD DUP3 DUP1 SLOAD PUSH2 0x1536 SWAP1 PUSH2 0x362A JUMP JUMPDEST DUP1 ISZERO PUSH2 0x1583 JUMPI DUP1 PUSH1 0x1F LT PUSH2 0x1558 JUMPI PUSH2 0x100 DUP1 DUP4 SLOAD DIV MUL DUP4 MSTORE SWAP2 PUSH1 0x20 ADD SWAP2 PUSH2 0x1583 JUMP JUMPDEST DUP3 ADD SWAP2 SWAP1 PUSH1 0x0 MSTORE PUSH1 0x20 PUSH1 0x0 KECCAK256 SWAP1 JUMPDEST DUP2 SLOAD DUP2 MSTORE SWAP1 PUSH1 0x1 ADD SWAP1 PUSH1 0x20 ADD DUP1 DUP4 GT PUSH2 0x1566 JUMPI DUP3 SWAP1 SUB PUSH1 0x1F AND DUP3 ADD SWAP2 JUMPDEST POP POP POP POP POP DUP2 JUMP JUMPDEST PUSH1 0x0 PUSH1 0x5 PUSH1 0x0 DUP5 PUSH20 0xFFFFFFFFFFFFFFFFFFFFFFFFFFFFFFFFFFFFFFFF AND PUSH20 0xFFFFFFFFFFFFFFFFFFFFFFFFFFFFFFFFFFFFFFFF AND DUP2 MSTORE PUSH1 0x20 ADD SWAP1 DUP2 MSTORE PUSH1 0x20 ADD PUSH1 0x0 KECCAK256 PUSH1 0x0 DUP4 PUSH20 0xFFFFFFFFFFFFFFFFFFFFFFFFFFFFFFFFFFFFFFFF AND PUSH20 0xFFFFFFFFFFFFFFFFFFFFFFFFFFFFFFFFFFFFFFFF AND DUP2 MSTORE PUSH1 0x20 ADD SWAP1 DUP2 MSTORE PUSH1 0x20 ADD PUSH1 0x0 KECCAK256 PUSH1 0x0 SWAP1 SLOAD SWAP1 PUSH2 0x100 EXP SWAP1 DIV PUSH1 0xFF AND SWAP1 POP SWAP3 SWAP2 POP POP JUMP JUMPDEST PUSH2 0x1627 PUSH2 0x1CE8 JUMP JUMPDEST PUSH1 0x0 PUSH20 0xFFFFFFFFFFFFFFFFFFFFFFFFFFFFFFFFFFFFFFFF AND DUP2 PUSH20 0xFFFFFFFFFFFFFFFFFFFFFFFFFFFFFFFFFFFFFFFF AND SUB PUSH2 0x1696 JUMPI PUSH1 0x40 MLOAD PUSH32 0x8C379A000000000000000000000000000000000000000000000000000000000 DUP2 MSTORE PUSH1 0x4 ADD PUSH2 0x168D SWAP1 PUSH2 0x417E JUMP JUMPDEST PUSH1 0x40 MLOAD DUP1 SWAP2 SUB SWAP1 REVERT JUMPDEST PUSH2 0x169F DUP2 PUSH2 0x1E47 JUMP JUMPDEST POP JUMP JUMPDEST PUSH2 0x16AA PUSH2 0x1CE8 JUMP JUMPDEST PUSH1 0x0 PUSH20 0xFFFFFFFFFFFFFFFFFFFFFFFFFFFFFFFFFFFFFFFF AND DUP2 PUSH20 0xFFFFFFFFFFFFFFFFFFFFFFFFFFFFFFFFFFFFFFFF AND SUB PUSH2 0x1719 JUMPI PUSH1 0x40 MLOAD PUSH32 0x8C379A000000000000000000000000000000000000000000000000000000000 DUP2 MSTORE PUSH1 0x4 ADD PUSH2 0x1710 SWAP1 PUSH2 0x41EA JUMP JUMPDEST PUSH1 0x40 MLOAD DUP1 SWAP2 SUB SWAP1 REVERT JUMPDEST DUP1 PUSH1 0xD PUSH1 0x0 PUSH2 0x100 EXP DUP2 SLOAD DUP2 PUSH20 0xFFFFFFFFFFFFFFFFFFFFFFFFFFFFFFFFFFFFFFFF MUL NOT AND SWAP1 DUP4 PUSH20 0xFFFFFFFFFFFFFFFFFFFFFFFFFFFFFFFFFFFFFFFF AND MUL OR SWAP1 SSTORE POP POP JUMP JUMPDEST PUSH1 0x0 PUSH32 0x780E9D6300000000000000000000000000000000000000000000000000000000 PUSH28 0xFFFFFFFFFFFFFFFFFFFFFFFFFFFFFFFFFFFFFFFFFFFFFFFFFFFFFFFF NOT AND DUP3 PUSH28 0xFFFFFFFFFFFFFFFFFFFFFFFFFFFFFFFFFFFFFFFFFFFFFFFFFFFFFFFF NOT AND EQ DUP1 PUSH2 0x17D0 JUMPI POP PUSH2 0x17CF DUP3 PUSH2 0x2206 JUMP JUMPDEST JUMPDEST SWAP1 POP SWAP2 SWAP1 POP JUMP JUMPDEST PUSH2 0x17E0 DUP2 PUSH2 0x1DC9 JUMP JUMPDEST PUSH2 0x181F JUMPI PUSH1 0x40 MLOAD PUSH32 0x8C379A000000000000000000000000000000000000000000000000000000000 DUP2 MSTORE PUSH1 0x4 ADD PUSH2 0x1816 SWAP1 PUSH2 0x3E33 JUMP JUMPDEST PUSH1 0x40 MLOAD DUP1 SWAP2 SUB SWAP1 REVERT JUMPDEST POP JUMP JUMPDEST PUSH1 0x0 CALLER SWAP1 POP SWAP1 JUMP JUMPDEST DUP2 PUSH1 0x4 PUSH1 0x0 DUP4 DUP2 MSTORE PUSH1 0x20 ADD SWAP1 DUP2 MSTORE PUSH1 0x20 ADD PUSH1 0x0 KECCAK256 PUSH1 0x0 PUSH2 0x100 EXP DUP2 SLOAD DUP2 PUSH20 0xFFFFFFFFFFFFFFFFFFFFFFFFFFFFFFFFFFFFFFFF MUL NOT AND SWAP1 DUP4 PUSH20 0xFFFFFFFFFFFFFFFFFFFFFFFFFFFFFFFFFFFFFFFF AND MUL OR SWAP1 SSTORE POP DUP1 DUP3 PUSH20 0xFFFFFFFFFFFFFFFFFFFFFFFFFFFFFFFFFFFFFFFF AND PUSH2 0x189D DUP4 PUSH2 0xF35 JUMP JUMPDEST PUSH20 0xFFFFFFFFFFFFFFFFFFFFFFFFFFFFFFFFFFFFFFFF AND PUSH32 0x8C5BE1E5EBEC7D5BD14F71427D1E84F3DD0314C0F7B2291E5B200AC8C7C3B925 PUSH1 0x40 MLOAD PUSH1 0x40 MLOAD DUP1 SWAP2 SUB SWAP1 LOG4 POP POP JUMP JUMPDEST PUSH1 0x0 DUP1 PUSH2 0x18EF DUP4 PUSH2 0xF35 JUMP JUMPDEST SWAP1 POP DUP1 PUSH20 0xFFFFFFFFFFFFFFFFFFFFFFFFFFFFFFFFFFFFFFFF AND DUP5 PUSH20 0xFFFFFFFFFFFFFFFFFFFFFFFFFFFFFFFFFFFFFFFF AND EQ DUP1 PUSH2 0x1931 JUMPI POP PUSH2 0x1930 DUP2 DUP6 PUSH2 0x158B JUMP JUMPDEST JUMPDEST DUP1 PUSH2 0x196F JUMPI POP DUP4 PUSH20 0xFFFFFFFFFFFFFFFFFFFFFFFFFFFFFFFFFFFFFFFF AND PUSH2 0x1957 DUP5 PUSH2 0x865 JUMP JUMPDEST PUSH20 0xFFFFFFFFFFFFFFFFFFFFFFFFFFFFFFFFFFFFFFFF AND EQ JUMPDEST SWAP2 POP POP SWAP3 SWAP2 POP POP JUMP JUMPDEST DUP3 PUSH20 0xFFFFFFFFFFFFFFFFFFFFFFFFFFFFFFFFFFFFFFFF AND PUSH2 0x1998 DUP3 PUSH2 0xF35 JUMP JUMPDEST PUSH20 0xFFFFFFFFFFFFFFFFFFFFFFFFFFFFFFFFFFFFFFFF AND EQ PUSH2 0x19EE JUMPI PUSH1 0x40 MLOAD PUSH32 0x8C379A000000000000000000000000000000000000000000000000000000000 DUP2 MSTORE PUSH1 0x4 ADD PUSH2 0x19E5 SWAP1 PUSH2 0x427C JUMP JUMPDEST PUSH1 0x40 MLOAD DUP1 SWAP2 SUB SWAP1 REVERT JUMPDEST PUSH1 0x0 PUSH20 0xFFFFFFFFFFFFFFFFFFFFFFFFFFFFFFFFFFFFFFFF AND DUP3 PUSH20 0xFFFFFFFFFFFFFFFFFFFFFFFFFFFFFFFFFFFFFFFF AND SUB PUSH2 0x1A5D JUMPI PUSH1 0x40 MLOAD PUSH32 0x8C379A000000000000000000000000000000000000000000000000000000000 DUP2 MSTORE PUSH1 0x4 ADD PUSH2 0x1A54 SWAP1 PUSH2 0x430E JUMP JUMPDEST PUSH1 0x40 MLOAD DUP1 SWAP2 SUB SWAP1 REVERT JUMPDEST PUSH2 0x1A6A DUP4 DUP4 DUP4 PUSH1 0x1 PUSH2 0x22E8 JUMP JUMPDEST DUP3 PUSH20 0xFFFFFFFFFFFFFFFFFFFFFFFFFFFFFFFFFFFFFFFF AND PUSH2 0x1A8A DUP3 PUSH2 0xF35 JUMP JUMPDEST PUSH20 0xFFFFFFFFFFFFFFFFFFFFFFFFFFFFFFFFFFFFFFFF AND EQ PUSH2 0x1AE0 JUMPI PUSH1 0x40 MLOAD PUSH32 0x8C379A000000000000000000000000000000000000000000000000000000000 DUP2 MSTORE PUSH1 0x4 ADD PUSH2 0x1AD7 SWAP1 PUSH2 0x427C JUMP JUMPDEST PUSH1 0x40 MLOAD DUP1 SWAP2 SUB SWAP1 REVERT JUMPDEST PUSH1 0x4 PUSH1 0x0 DUP3 DUP2 MSTORE PUSH1 0x20 ADD SWAP1 DUP2 MSTORE PUSH1 0x20 ADD PUSH1 0x0 KECCAK256 PUSH1 0x0 PUSH2 0x100 EXP DUP2 SLOAD SWAP1 PUSH20 0xFFFFFFFFFFFFFFFFFFFFFFFFFFFFFFFFFFFFFFFF MUL NOT AND SWAP1 SSTORE PUSH1 0x1 PUSH1 0x3 PUSH1 0x0 DUP6 PUSH20 0xFFFFFFFFFFFFFFFFFFFFFFFFFFFFFFFFFFFFFFFF AND PUSH20 0xFFFFFFFFFFFFFFFFFFFFFFFFFFFFFFFFFFFFFFFF AND DUP2 MSTORE PUSH1 0x20 ADD SWAP1 DUP2 MSTORE PUSH1 0x20 ADD PUSH1 0x0 KECCAK256 PUSH1 0x0 DUP3 DUP3 SLOAD SUB SWAP3 POP POP DUP2 SWAP1 SSTORE POP PUSH1 0x1 PUSH1 0x3 PUSH1 0x0 DUP5 PUSH20 0xFFFFFFFFFFFFFFFFFFFFFFFFFFFFFFFFFFFFFFFF AND PUSH20 0xFFFFFFFFFFFFFFFFFFFFFFFFFFFFFFFFFFFFFFFF AND DUP2 MSTORE PUSH1 0x20 ADD SWAP1 DUP2 MSTORE PUSH1 0x20 ADD PUSH1 0x0 KECCAK256 PUSH1 0x0 DUP3 DUP3 SLOAD ADD SWAP3 POP POP DUP2 SWAP1 SSTORE POP DUP2 PUSH1 0x2 PUSH1 0x0 DUP4 DUP2 MSTORE PUSH1 0x20 ADD SWAP1 DUP2 MSTORE PUSH1 0x20 ADD PUSH1 0x0 KECCAK256 PUSH1 0x0 PUSH2 0x100 EXP DUP2 SLOAD DUP2 PUSH20 0xFFFFFFFFFFFFFFFFFFFFFFFFFFFFFFFFFFFFFFFF MUL NOT AND SWAP1 DUP4 PUSH20 0xFFFFFFFFFFFFFFFFFFFFFFFFFFFFFFFFFFFFFFFF AND MUL OR SWAP1 SSTORE POP DUP1 DUP3 PUSH20 0xFFFFFFFFFFFFFFFFFFFFFFFFFFFFFFFFFFFFFFFF AND DUP5 PUSH20 0xFFFFFFFFFFFFFFFFFFFFFFFFFFFFFFFFFFFFFFFF AND PUSH32 0xDDF252AD1BE2C89B69C2B068FC378DAA952BA7F163C4A11628F55A4DF523B3EF PUSH1 0x40 MLOAD PUSH1 0x40 MLOAD DUP1 SWAP2 SUB SWAP1 LOG4 PUSH2 0x1C6C DUP4 DUP4 DUP4 PUSH1 0x1 PUSH2 0x22FA JUMP JUMPDEST POP POP POP JUMP JUMPDEST PUSH1 0x2 PUSH1 0xC SLOAD SUB PUSH2 0x1CB6 JUMPI PUSH1 0x40 MLOAD PUSH32 0x8C379A000000000000000000000000000000000000000000000000000000000 DUP2 MSTORE PUSH1 0x4 ADD PUSH2 0x1CAD SWAP1 PUSH2 0x437A JUMP JUMPDEST PUSH1 0x40 MLOAD DUP1 SWAP2 SUB SWAP1 REVERT JUMPDEST PUSH1 0x2 PUSH1 0xC DUP2 SWAP1 SSTORE POP JUMP JUMPDEST PUSH2 0x1CDA DUP3 DUP3 PUSH1 0x40 MLOAD DUP1 PUSH1 0x20 ADD PUSH1 0x40 MSTORE DUP1 PUSH1 0x0 DUP2 MSTORE POP PUSH2 0x2300 JUMP JUMPDEST POP POP JUMP JUMPDEST PUSH1 0x1 PUSH1 0xC DUP2 SWAP1 SSTORE POP JUMP JUMPDEST PUSH2 0x1CF0 PUSH2 0x1822 JUMP JUMPDEST PUSH20 0xFFFFFFFFFFFFFFFFFFFFFFFFFFFFFFFFFFFFFFFF AND PUSH2 0x1D0E PUSH2 0x11CF JUMP JUMPDEST PUSH20 0xFFFFFFFFFFFFFFFFFFFFFFFFFFFFFFFFFFFFFFFF AND EQ PUSH2 0x1D64 JUMPI PUSH1 0x40 MLOAD PUSH32 0x8C379A000000000000000000000000000000000000000000000000000000000 DUP2 MSTORE PUSH1 0x4 ADD PUSH2 0x1D5B SWAP1 PUSH2 0x43E6 JUMP JUMPDEST PUSH1 0x40 MLOAD DUP1 SWAP2 SUB SWAP1 REVERT JUMPDEST JUMP JUMPDEST PUSH2 0x1D6E PUSH2 0x235B JUMP JUMPDEST PUSH1 0x1 PUSH1 0x6 PUSH1 0x0 PUSH2 0x100 EXP DUP2 SLOAD DUP2 PUSH1 0xFF MUL NOT AND SWAP1 DUP4 ISZERO ISZERO MUL OR SWAP1 SSTORE POP PUSH32 0x62E78CEA01BEE320CD4E420270B5EA74000D11B0C9F74754EBDBFC544B05A258 PUSH2 0x1DB2 PUSH2 0x1822 JUMP JUMPDEST PUSH1 0x40 MLOAD PUSH2 0x1DBF SWAP2 SWAP1 PUSH2 0x305B JUMP JUMPDEST PUSH1 0x40 MLOAD DUP1 SWAP2 SUB SWAP1 LOG1 JUMP JUMPDEST PUSH1 0x0 DUP1 PUSH20 0xFFFFFFFFFFFFFFFFFFFFFFFFFFFFFFFFFFFFFFFF AND PUSH2 0x1DEB DUP4 PUSH2 0x1E0A JUMP JUMPDEST PUSH20 0xFFFFFFFFFFFFFFFFFFFFFFFFFFFFFFFFFFFFFFFF AND EQ ISZERO SWAP1 POP SWAP2 SWAP1 POP JUMP JUMPDEST PUSH1 0x0 PUSH1 0x2 PUSH1 0x0 DUP4 DUP2 MSTORE PUSH1 0x20 ADD SWAP1 DUP2 MSTORE PUSH1 0x20 ADD PUSH1 0x0 KECCAK256 PUSH1 0x0 SWAP1 SLOAD SWAP1 PUSH2 0x100 EXP SWAP1 DIV PUSH20 0xFFFFFFFFFFFFFFFFFFFFFFFFFFFFFFFFFFFFFFFF AND SWAP1 POP SWAP2 SWAP1 POP JUMP JUMPDEST PUSH1 0x0 PUSH1 0xB PUSH1 0x0 SWAP1 SLOAD SWAP1 PUSH2 0x100 EXP SWAP1 DIV PUSH20 0xFFFFFFFFFFFFFFFFFFFFFFFFFFFFFFFFFFFFFFFF AND SWAP1 POP DUP2 PUSH1 0xB PUSH1 0x0 PUSH2 0x100 EXP DUP2 SLOAD DUP2 PUSH20 0xFFFFFFFFFFFFFFFFFFFFFFFFFFFFFFFFFFFFFFFF MUL NOT AND SWAP1 DUP4 PUSH20 0xFFFFFFFFFFFFFFFFFFFFFFFFFFFFFFFFFFFFFFFF AND MUL OR SWAP1 SSTORE POP DUP2 PUSH20 0xFFFFFFFFFFFFFFFFFFFFFFFFFFFFFFFFFFFFFFFF AND DUP2 PUSH20 0xFFFFFFFFFFFFFFFFFFFFFFFFFFFFFFFFFFFFFFFF AND PUSH32 0x8BE0079C531659141344CD1FD0A4F28419497F9722A3DAAFE3B4186F6B6457E0 PUSH1 0x40 MLOAD PUSH1 0x40 MLOAD DUP1 SWAP2 SUB SWAP1 LOG3 POP POP JUMP JUMPDEST DUP2 PUSH20 0xFFFFFFFFFFFFFFFFFFFFFFFFFFFFFFFFFFFFFFFF AND DUP4 PUSH20 0xFFFFFFFFFFFFFFFFFFFFFFFFFFFFFFFFFFFFFFFF AND SUB PUSH2 0x1F7B JUMPI PUSH1 0x40 MLOAD PUSH32 0x8C379A000000000000000000000000000000000000000000000000000000000 DUP2 MSTORE PUSH1 0x4 ADD PUSH2 0x1F72 SWAP1 PUSH2 0x4452 JUMP JUMPDEST PUSH1 0x40 MLOAD DUP1 SWAP2 SUB SWAP1 REVERT JUMPDEST DUP1 PUSH1 0x5 PUSH1 0x0 DUP6 PUSH20 0xFFFFFFFFFFFFFFFFFFFFFFFFFFFFFFFFFFFFFFFF AND PUSH20 0xFFFFFFFFFFFFFFFFFFFFFFFFFFFFFFFFFFFFFFFF AND DUP2 MSTORE PUSH1 0x20 ADD SWAP1 DUP2 MSTORE PUSH1 0x20 ADD PUSH1 0x0 KECCAK256 PUSH1 0x0 DUP5 PUSH20 0xFFFFFFFFFFFFFFFFFFFFFFFFFFFFFFFFFFFFFFFF AND PUSH20 0xFFFFFFFFFFFFFFFFFFFFFFFFFFFFFFFFFFFFFFFF AND DUP2 MSTORE PUSH1 0x20 ADD SWAP1 DUP2 MSTORE PUSH1 0x20 ADD PUSH1 0x0 KECCAK256 PUSH1 0x0 PUSH2 0x100 EXP DUP2 SLOAD DUP2 PUSH1 0xFF MUL NOT AND SWAP1 DUP4 ISZERO ISZERO MUL OR SWAP1 SSTORE POP DUP2 PUSH20 0xFFFFFFFFFFFFFFFFFFFFFFFFFFFFFFFFFFFFFFFF AND DUP4 PUSH20 0xFFFFFFFFFFFFFFFFFFFFFFFFFFFFFFFFFFFFFFFF AND PUSH32 0x17307EAB39AB6107E8899845AD3D59BD9653F200F220920489CA2B5937696C31 DUP4 PUSH1 0x40 MLOAD PUSH2 0x206C SWAP2 SWAP1 PUSH2 0x2EEA JUMP JUMPDEST PUSH1 0x40 MLOAD DUP1 SWAP2 SUB SWAP1 LOG3 POP POP POP JUMP JUMPDEST PUSH2 0x2081 PUSH2 0x23A5 JUMP JUMPDEST PUSH1 0x0 PUSH1 0x6 PUSH1 0x0 PUSH2 0x100 EXP DUP2 SLOAD DUP2 PUSH1 0xFF MUL NOT AND SWAP1 DUP4 ISZERO ISZERO MUL OR SWAP1 SSTORE POP PUSH32 0x5DB9EE0A495BF2E6FF9C91A7834C1BA4FDD244A5E8AA4E537BD38AEAE4B073AA PUSH2 0x20C5 PUSH2 0x1822 JUMP JUMPDEST PUSH1 0x40 MLOAD PUSH2 0x20D2 SWAP2 SWAP1 PUSH2 0x305B JUMP JUMPDEST PUSH1 0x40 MLOAD DUP1 SWAP2 SUB SWAP1 LOG1 JUMP JUMPDEST PUSH2 0x20E7 DUP5 DUP5 DUP5 PUSH2 0x1978 JUMP JUMPDEST PUSH2 0x20F3 DUP5 DUP5 DUP5 DUP5 PUSH2 0x23EE JUMP JUMPDEST PUSH2 0x2132 JUMPI PUSH1 0x40 MLOAD PUSH32 0x8C379A000000000000000000000000000000000000000000000000000000000 DUP2 MSTORE PUSH1 0x4 ADD PUSH2 0x2129 SWAP1 PUSH2 0x44E4 JUMP JUMPDEST PUSH1 0x40 MLOAD DUP1 SWAP2 SUB SWAP1 REVERT JUMPDEST POP POP POP POP JUMP JUMPDEST PUSH1 0x60 PUSH1 0x0 PUSH1 0x1 PUSH2 0x2147 DUP5 PUSH2 0x2575 JUMP JUMPDEST ADD SWAP1 POP PUSH1 0x0 DUP2 PUSH8 0xFFFFFFFFFFFFFFFF DUP2 GT ISZERO PUSH2 0x2166 JUMPI PUSH2 0x2165 PUSH2 0x340D JUMP JUMPDEST JUMPDEST PUSH1 0x40 MLOAD SWAP1 DUP1 DUP3 MSTORE DUP1 PUSH1 0x1F ADD PUSH1 0x1F NOT AND PUSH1 0x20 ADD DUP3 ADD PUSH1 0x40 MSTORE DUP1 ISZERO PUSH2 0x2198 JUMPI DUP2 PUSH1 0x20 ADD PUSH1 0x1 DUP3 MUL DUP1 CALLDATASIZE DUP4 CALLDATACOPY DUP1 DUP3 ADD SWAP2 POP POP SWAP1 POP JUMPDEST POP SWAP1 POP PUSH1 0x0 DUP3 PUSH1 0x20 ADD DUP3 ADD SWAP1 POP JUMPDEST PUSH1 0x1 ISZERO PUSH2 0x21FB JUMPI DUP1 DUP1 PUSH1 0x1 SWAP1 SUB SWAP2 POP POP PUSH32 0x3031323334353637383961626364656600000000000000000000000000000000 PUSH1 0xA DUP7 MOD BYTE DUP2 MSTORE8 PUSH1 0xA DUP6 DUP2 PUSH2 0x21EF JUMPI PUSH2 0x21EE PUSH2 0x4504 JUMP JUMPDEST JUMPDEST DIV SWAP5 POP PUSH1 0x0 DUP6 SUB PUSH2 0x21A6 JUMPI JUMPDEST DUP2 SWAP4 POP POP POP POP SWAP2 SWAP1 POP JUMP JUMPDEST PUSH1 0x0 PUSH32 0x80AC58CD00000000000000000000000000000000000000000000000000000000 PUSH28 0xFFFFFFFFFFFFFFFFFFFFFFFFFFFFFFFFFFFFFFFFFFFFFFFFFFFFFFFF NOT AND DUP3 PUSH28 0xFFFFFFFFFFFFFFFFFFFFFFFFFFFFFFFFFFFFFFFFFFFFFFFFFFFFFFFF NOT AND EQ DUP1 PUSH2 0x22D1 JUMPI POP PUSH32 0x5B5E139F00000000000000000000000000000000000000000000000000000000 PUSH28 0xFFFFFFFFFFFFFFFFFFFFFFFFFFFFFFFFFFFFFFFFFFFFFFFFFFFFFFFF NOT AND DUP3 PUSH28 0xFFFFFFFFFFFFFFFFFFFFFFFFFFFFFFFFFFFFFFFFFFFFFFFFFFFFFFFF NOT AND EQ JUMPDEST DUP1 PUSH2 0x22E1 JUMPI POP PUSH2 0x22E0 DUP3 PUSH2 0x26C8 JUMP JUMPDEST JUMPDEST SWAP1 POP SWAP2 SWAP1 POP JUMP JUMPDEST PUSH2 0x22F4 DUP5 DUP5 DUP5 DUP5 PUSH2 0x2732 JUMP JUMPDEST POP POP POP POP JUMP JUMPDEST POP POP POP POP JUMP JUMPDEST PUSH2 0x230A DUP4 DUP4 PUSH2 0x2890 JUMP JUMPDEST PUSH2 0x2317 PUSH1 0x0 DUP5 DUP5 DUP5 PUSH2 0x23EE JUMP JUMPDEST PUSH2 0x2356 JUMPI PUSH1 0x40 MLOAD PUSH32 0x8C379A000000000000000000000000000000000000000000000000000000000 DUP2 MSTORE PUSH1 0x4 ADD PUSH2 0x234D SWAP1 PUSH2 0x44E4 JUMP JUMPDEST PUSH1 0x40 MLOAD DUP1 SWAP2 SUB SWAP1 REVERT JUMPDEST POP POP POP JUMP JUMPDEST PUSH2 0x2363 PUSH2 0xF1E JUMP JUMPDEST ISZERO PUSH2 0x23A3 JUMPI PUSH1 0x40 MLOAD PUSH32 0x8C379A000000000000000000000000000000000000000000000000000000000 DUP2 MSTORE PUSH1 0x4 ADD PUSH2 0x239A SWAP1 PUSH2 0x457F JUMP JUMPDEST PUSH1 0x40 MLOAD DUP1 SWAP2 SUB SWAP1 REVERT JUMPDEST JUMP JUMPDEST PUSH2 0x23AD PUSH2 0xF1E JUMP JUMPDEST PUSH2 0x23EC JUMPI PUSH1 0x40 MLOAD PUSH32 0x8C379A000000000000000000000000000000000000000000000000000000000 DUP2 MSTORE PUSH1 0x4 ADD PUSH2 0x23E3 SWAP1 PUSH2 0x45EB JUMP JUMPDEST PUSH1 0x40 MLOAD DUP1 SWAP2 SUB SWAP1 REVERT JUMPDEST JUMP JUMPDEST PUSH1 0x0 PUSH2 0x240F DUP5 PUSH20 0xFFFFFFFFFFFFFFFFFFFFFFFFFFFFFFFFFFFFFFFF AND PUSH2 0x2AAD JUMP JUMPDEST ISZERO PUSH2 0x2568 JUMPI DUP4 PUSH20 0xFFFFFFFFFFFFFFFFFFFFFFFFFFFFFFFFFFFFFFFF AND PUSH4 0x150B7A02 PUSH2 0x2438 PUSH2 0x1822 JUMP JUMPDEST DUP8 DUP7 DUP7 PUSH1 0x40 MLOAD DUP6 PUSH4 0xFFFFFFFF AND PUSH1 0xE0 SHL DUP2 MSTORE PUSH1 0x4 ADD PUSH2 0x245A SWAP5 SWAP4 SWAP3 SWAP2 SWAP1 PUSH2 0x4660 JUMP JUMPDEST PUSH1 0x20 PUSH1 0x40 MLOAD DUP1 DUP4 SUB DUP2 PUSH1 0x0 DUP8 GAS CALL SWAP3 POP POP POP DUP1 ISZERO PUSH2 0x2496 JUMPI POP PUSH1 0x40 MLOAD RETURNDATASIZE PUSH1 0x1F NOT PUSH1 0x1F DUP3 ADD AND DUP3 ADD DUP1 PUSH1 0x40 MSTORE POP DUP2 ADD SWAP1 PUSH2 0x2493 SWAP2 SWAP1 PUSH2 0x46C1 JUMP JUMPDEST PUSH1 0x1 JUMPDEST PUSH2 0x2518 JUMPI RETURNDATASIZE DUP1 PUSH1 0x0 DUP2 EQ PUSH2 0x24C6 JUMPI PUSH1 0x40 MLOAD SWAP2 POP PUSH1 0x1F NOT PUSH1 0x3F RETURNDATASIZE ADD AND DUP3 ADD PUSH1 0x40 MSTORE RETURNDATASIZE DUP3 MSTORE RETURNDATASIZE PUSH1 0x0 PUSH1 0x20 DUP5 ADD RETURNDATACOPY PUSH2 0x24CB JUMP JUMPDEST PUSH1 0x60 SWAP2 POP JUMPDEST POP PUSH1 0x0 DUP2 MLOAD SUB PUSH2 0x2510 JUMPI PUSH1 0x40 MLOAD PUSH32 0x8C379A000000000000000000000000000000000000000000000000000000000 DUP2 MSTORE PUSH1 0x4 ADD PUSH2 0x2507 SWAP1 PUSH2 0x44E4 JUMP JUMPDEST PUSH1 0x40 MLOAD DUP1 SWAP2 SUB SWAP1 REVERT JUMPDEST DUP1 MLOAD DUP2 PUSH1 0x20 ADD REVERT JUMPDEST PUSH4 0x150B7A02 PUSH1 0xE0 SHL PUSH28 0xFFFFFFFFFFFFFFFFFFFFFFFFFFFFFFFFFFFFFFFFFFFFFFFFFFFFFFFF NOT AND DUP2 PUSH28 0xFFFFFFFFFFFFFFFFFFFFFFFFFFFFFFFFFFFFFFFFFFFFFFFFFFFFFFFF NOT AND EQ SWAP2 POP POP PUSH2 0x256D JUMP JUMPDEST PUSH1 0x1 SWAP1 POP JUMPDEST SWAP5 SWAP4 POP POP POP POP JUMP JUMPDEST PUSH1 0x0 DUP1 PUSH1 0x0 SWAP1 POP PUSH27 0x184F03E93FF9F4DAA797ED6E38ED64BF6A1F010000000000000000 DUP4 LT PUSH2 0x25D3 JUMPI PUSH27 0x184F03E93FF9F4DAA797ED6E38ED64BF6A1F010000000000000000 DUP4 DUP2 PUSH2 0x25C9 JUMPI PUSH2 0x25C8 PUSH2 0x4504 JUMP JUMPDEST JUMPDEST DIV SWAP3 POP PUSH1 0x40 DUP2 ADD SWAP1 POP JUMPDEST PUSH14 0x4EE2D6D415B85ACEF8100000000 DUP4 LT PUSH2 0x2610 JUMPI PUSH14 0x4EE2D6D415B85ACEF8100000000 DUP4 DUP2 PUSH2 0x2606 JUMPI PUSH2 0x2605 PUSH2 0x4504 JUMP JUMPDEST JUMPDEST DIV SWAP3 POP PUSH1 0x20 DUP2 ADD SWAP1 POP JUMPDEST PUSH7 0x2386F26FC10000 DUP4 LT PUSH2 0x263F JUMPI PUSH7 0x2386F26FC10000 DUP4 DUP2 PUSH2 0x2635 JUMPI PUSH2 0x2634 PUSH2 0x4504 JUMP JUMPDEST JUMPDEST DIV SWAP3 POP PUSH1 0x10 DUP2 ADD SWAP1 POP JUMPDEST PUSH4 0x5F5E100 DUP4 LT PUSH2 0x2668 JUMPI PUSH4 0x5F5E100 DUP4 DUP2 PUSH2 0x265E JUMPI PUSH2 0x265D PUSH2 0x4504 JUMP JUMPDEST JUMPDEST DIV SWAP3 POP PUSH1 0x8 DUP2 ADD SWAP1 POP JUMPDEST PUSH2 0x2710 DUP4 LT PUSH2 0x268D JUMPI PUSH2 0x2710 DUP4 DUP2 PUSH2 0x2683 JUMPI PUSH2 0x2682 PUSH2 0x4504 JUMP JUMPDEST JUMPDEST DIV SWAP3 POP PUSH1 0x4 DUP2 ADD SWAP1 POP JUMPDEST PUSH1 0x64 DUP4 LT PUSH2 0x26B0 JUMPI PUSH1 0x64 DUP4 DUP2 PUSH2 0x26A6 JUMPI PUSH2 0x26A5 PUSH2 0x4504 JUMP JUMPDEST JUMPDEST DIV SWAP3 POP PUSH1 0x2 DUP2 ADD SWAP1 POP JUMPDEST PUSH1 0xA DUP4 LT PUSH2 0x26BF JUMPI PUSH1 0x1 DUP2 ADD SWAP1 POP JUMPDEST DUP1 SWAP2 POP POP SWAP2 SWAP1 POP JUMP JUMPDEST PUSH1 0x0 PUSH32 0x1FFC9A700000000000000000000000000000000000000000000000000000000 PUSH28 0xFFFFFFFFFFFFFFFFFFFFFFFFFFFFFFFFFFFFFFFFFFFFFFFFFFFFFFFF NOT AND DUP3 PUSH28 0xFFFFFFFFFFFFFFFFFFFFFFFFFFFFFFFFFFFFFFFFFFFFFFFFFFFFFFFF NOT AND EQ SWAP1 POP SWAP2 SWAP1 POP JUMP JUMPDEST PUSH2 0x273E DUP5 DUP5 DUP5 DUP5 PUSH2 0x2AD0 JUMP JUMPDEST PUSH1 0x1 DUP2 GT ISZERO PUSH2 0x2782 JUMPI PUSH1 0x40 MLOAD PUSH32 0x8C379A000000000000000000000000000000000000000000000000000000000 DUP2 MSTORE PUSH1 0x4 ADD PUSH2 0x2779 SWAP1 PUSH2 0x4760 JUMP JUMPDEST PUSH1 0x40 MLOAD DUP1 SWAP2 SUB SWAP1 REVERT JUMPDEST PUSH1 0x0 DUP3 SWAP1 POP PUSH1 0x0 PUSH20 0xFFFFFFFFFFFFFFFFFFFFFFFFFFFFFFFFFFFFFFFF AND DUP6 PUSH20 0xFFFFFFFFFFFFFFFFFFFFFFFFFFFFFFFFFFFFFFFF AND SUB PUSH2 0x27C9 JUMPI PUSH2 0x27C4 DUP2 PUSH2 0x2B2A JUMP JUMPDEST PUSH2 0x2808 JUMP JUMPDEST DUP4 PUSH20 0xFFFFFFFFFFFFFFFFFFFFFFFFFFFFFFFFFFFFFFFF AND DUP6 PUSH20 0xFFFFFFFFFFFFFFFFFFFFFFFFFFFFFFFFFFFFFFFF AND EQ PUSH2 0x2807 JUMPI PUSH2 0x2806 DUP6 DUP3 PUSH2 0x2B73 JUMP JUMPDEST JUMPDEST JUMPDEST PUSH1 0x0 PUSH20 0xFFFFFFFFFFFFFFFFFFFFFFFFFFFFFFFFFFFFFFFF AND DUP5 PUSH20 0xFFFFFFFFFFFFFFFFFFFFFFFFFFFFFFFFFFFFFFFF AND SUB PUSH2 0x284A JUMPI PUSH2 0x2845 DUP2 PUSH2 0x2CE0 JUMP JUMPDEST PUSH2 0x2889 JUMP JUMPDEST DUP5 PUSH20 0xFFFFFFFFFFFFFFFFFFFFFFFFFFFFFFFFFFFFFFFF AND DUP5 PUSH20 0xFFFFFFFFFFFFFFFFFFFFFFFFFFFFFFFFFFFFFFFF AND EQ PUSH2 0x2888 JUMPI PUSH2 0x2887 DUP5 DUP3 PUSH2 0x2DB1 JUMP JUMPDEST JUMPDEST JUMPDEST POP POP POP POP POP JUMP JUMPDEST PUSH1 0x0 PUSH20 0xFFFFFFFFFFFFFFFFFFFFFFFFFFFFFFFFFFFFFFFF AND DUP3 PUSH20 0xFFFFFFFFFFFFFFFFFFFFFFFFFFFFFFFFFFFFFFFF AND SUB PUSH2 0x28FF JUMPI PUSH1 0x40 MLOAD PUSH32 0x8C379A000000000000000000000000000000000000000000000000000000000 DUP2 MSTORE PUSH1 0x4 ADD PUSH2 0x28F6 SWAP1 PUSH2 0x47CC JUMP JUMPDEST PUSH1 0x40 MLOAD DUP1 SWAP2 SUB SWAP1 REVERT JUMPDEST PUSH2 0x2908 DUP2 PUSH2 0x1DC9 JUMP JUMPDEST ISZERO PUSH2 0x2948 JUMPI PUSH1 0x40 MLOAD PUSH32 0x8C379A000000000000000000000000000000000000000000000000000000000 DUP2 MSTORE PUSH1 0x4 ADD PUSH2 0x293F SWAP1 PUSH2 0x4838 JUMP JUMPDEST PUSH1 0x40 MLOAD DUP1 SWAP2 SUB SWAP1 REVERT JUMPDEST PUSH2 0x2956 PUSH1 0x0 DUP4 DUP4 PUSH1 0x1 PUSH2 0x22E8 JUMP JUMPDEST PUSH2 0x295F DUP2 PUSH2 0x1DC9 JUMP JUMPDEST ISZERO PUSH2 0x299F JUMPI PUSH1 0x40 MLOAD PUSH32 0x8C379A000000000000000000000000000000000000000000000000000000000 DUP2 MSTORE PUSH1 0x4 ADD PUSH2 0x2996 SWAP1 PUSH2 0x4838 JUMP JUMPDEST PUSH1 0x40 MLOAD DUP1 SWAP2 SUB SWAP1 REVERT JUMPDEST PUSH1 0x1 PUSH1 0x3 PUSH1 0x0 DUP5 PUSH20 0xFFFFFFFFFFFFFFFFFFFFFFFFFFFFFFFFFFFFFFFF AND PUSH20 0xFFFFFFFFFFFFFFFFFFFFFFFFFFFFFFFFFFFFFFFF AND DUP2 MSTORE PUSH1 0x20 ADD SWAP1 DUP2 MSTORE PUSH1 0x20 ADD PUSH1 0x0 KECCAK256 PUSH1 0x0 DUP3 DUP3 SLOAD ADD SWAP3 POP POP DUP2 SWAP1 SSTORE POP DUP2 PUSH1 0x2 PUSH1 0x0 DUP4 DUP2 MSTORE PUSH1 0x20 ADD SWAP1 DUP2 MSTORE PUSH1 0x20 ADD PUSH1 0x0 KECCAK256 PUSH1 0x0 PUSH2 0x100 EXP DUP2 SLOAD DUP2 PUSH20 0xFFFFFFFFFFFFFFFFFFFFFFFFFFFFFFFFFFFFFFFF MUL NOT AND SWAP1 DUP4 PUSH20 0xFFFFFFFFFFFFFFFFFFFFFFFFFFFFFFFFFFFFFFFF AND MUL OR SWAP1 SSTORE POP DUP1 DUP3 PUSH20 0xFFFFFFFFFFFFFFFFFFFFFFFFFFFFFFFFFFFFFFFF AND PUSH1 0x0 PUSH20 0xFFFFFFFFFFFFFFFFFFFFFFFFFFFFFFFFFFFFFFFF AND PUSH32 0xDDF252AD1BE2C89B69C2B068FC378DAA952BA7F163C4A11628F55A4DF523B3EF PUSH1 0x40 MLOAD PUSH1 0x40 MLOAD DUP1 SWAP2 SUB SWAP1 LOG4 PUSH2 0x2AA9 PUSH1 0x0 DUP4 DUP4 PUSH1 0x1 PUSH2 0x22FA JUMP JUMPDEST POP POP JUMP JUMPDEST PUSH1 0x0 DUP1 DUP3 PUSH20 0xFFFFFFFFFFFFFFFFFFFFFFFFFFFFFFFFFFFFFFFF AND EXTCODESIZE GT SWAP1 POP SWAP2 SWAP1 POP JUMP JUMPDEST PUSH2 0x2ADC DUP5 DUP5 DUP5 DUP5 PUSH2 0x2E30 JUMP JUMPDEST PUSH2 0x2AE4 PUSH2 0xF1E JUMP JUMPDEST ISZERO PUSH2 0x2B24 JUMPI PUSH1 0x40 MLOAD PUSH32 0x8C379A000000000000000000000000000000000000000000000000000000000 DUP2 MSTORE PUSH1 0x4 ADD PUSH2 0x2B1B SWAP1 PUSH2 0x48CA JUMP JUMPDEST PUSH1 0x40 MLOAD DUP1 SWAP2 SUB SWAP1 REVERT JUMPDEST POP POP POP POP JUMP JUMPDEST PUSH1 0x9 DUP1 SLOAD SWAP1 POP PUSH1 0xA PUSH1 0x0 DUP4 DUP2 MSTORE PUSH1 0x20 ADD SWAP1 DUP2 MSTORE PUSH1 0x20 ADD PUSH1 0x0 KECCAK256 DUP2 SWAP1 SSTORE POP PUSH1 0x9 DUP2 SWAP1 DUP1 PUSH1 0x1 DUP2 SLOAD ADD DUP1 DUP3 SSTORE DUP1 SWAP2 POP POP PUSH1 0x1 SWAP1 SUB SWAP1 PUSH1 0x0 MSTORE PUSH1 0x20 PUSH1 0x0 KECCAK256 ADD PUSH1 0x0 SWAP1 SWAP2 SWAP1 SWAP2 SWAP1 SWAP2 POP SSTORE POP JUMP JUMPDEST PUSH1 0x0 PUSH1 0x1 PUSH2 0x2B80 DUP5 PUSH2 0xFBB JUMP JUMPDEST PUSH2 0x2B8A SWAP2 SWAP1 PUSH2 0x48EA JUMP JUMPDEST SWAP1 POP PUSH1 0x0 PUSH1 0x8 PUSH1 0x0 DUP5 DUP2 MSTORE PUSH1 0x20 ADD SWAP1 DUP2 MSTORE PUSH1 0x20 ADD PUSH1 0x0 KECCAK256 SLOAD SWAP1 POP DUP2 DUP2 EQ PUSH2 0x2C6F JUMPI PUSH1 0x0 PUSH1 0x7 PUSH1 0x0 DUP7 PUSH20 0xFFFFFFFFFFFFFFFFFFFFFFFFFFFFFFFFFFFFFFFF AND PUSH20 0xFFFFFFFFFFFFFFFFFFFFFFFFFFFFFFFFFFFFFFFF AND DUP2 MSTORE PUSH1 0x20 ADD SWAP1 DUP2 MSTORE PUSH1 0x20 ADD PUSH1 0x0 KECCAK256 PUSH1 0x0 DUP5 DUP2 MSTORE PUSH1 0x20 ADD SWAP1 DUP2 MSTORE PUSH1 0x20 ADD PUSH1 0x0 KECCAK256 SLOAD SWAP1 POP DUP1 PUSH1 0x7 PUSH1 0x0 DUP8 PUSH20 0xFFFFFFFFFFFFFFFFFFFFFFFFFFFFFFFFFFFFFFFF AND PUSH20 0xFFFFFFFFFFFFFFFFFFFFFFFFFFFFFFFFFFFFFFFF AND DUP2 MSTORE PUSH1 0x20 ADD SWAP1 DUP2 MSTORE PUSH1 0x20 ADD PUSH1 0x0 KECCAK256 PUSH1 0x0 DUP5 DUP2 MSTORE PUSH1 0x20 ADD SWAP1 DUP2 MSTORE PUSH1 0x20 ADD PUSH1 0x0 KECCAK256 DUP2 SWAP1 SSTORE POP DUP2 PUSH1 0x8 PUSH1 0x0 DUP4 DUP2 MSTORE PUSH1 0x20 ADD SWAP1 DUP2 MSTORE PUSH1 0x20 ADD PUSH1 0x0 KECCAK256 DUP2 SWAP1 SSTORE POP POP JUMPDEST PUSH1 0x8 PUSH1 0x0 DUP5 DUP2 MSTORE PUSH1 0x20 ADD SWAP1 DUP2 MSTORE PUSH1 0x20 ADD PUSH1 0x0 KECCAK256 PUSH1 0x0 SWAP1 SSTORE PUSH1 0x7 PUSH1 0x0 DUP6 PUSH20 0xFFFFFFFFFFFFFFFFFFFFFFFFFFFFFFFFFFFFFFFF AND PUSH20 0xFFFFFFFFFFFFFFFFFFFFFFFFFFFFFFFFFFFFFFFF AND DUP2 MSTORE PUSH1 0x20 ADD SWAP1 DUP2 MSTORE PUSH1 0x20 ADD PUSH1 0x0 KECCAK256 PUSH1 0x0 DUP4 DUP2 MSTORE PUSH1 0x20 ADD SWAP1 DUP2 MSTORE PUSH1 0x20 ADD PUSH1 0x0 KECCAK256 PUSH1 0x0 SWAP1 SSTORE POP POP POP POP JUMP JUMPDEST PUSH1 0x0 PUSH1 0x1 PUSH1 0x9 DUP1 SLOAD SWAP1 POP PUSH2 0x2CF4 SWAP2 SWAP1 PUSH2 0x48EA JUMP JUMPDEST SWAP1 POP PUSH1 0x0 PUSH1 0xA PUSH1 0x0 DUP5 DUP2 MSTORE PUSH1 0x20 ADD SWAP1 DUP2 MSTORE PUSH1 0x20 ADD PUSH1 0x0 KECCAK256 SLOAD SWAP1 POP PUSH1 0x0 PUSH1 0x9 DUP4 DUP2 SLOAD DUP2 LT PUSH2 0x2D24 JUMPI PUSH2 0x2D23 PUSH2 0x3A9F JUMP JUMPDEST JUMPDEST SWAP1 PUSH1 0x0 MSTORE PUSH1 0x20 PUSH1 0x0 KECCAK256 ADD SLOAD SWAP1 POP DUP1 PUSH1 0x9 DUP4 DUP2 SLOAD DUP2 LT PUSH2 0x2D46 JUMPI PUSH2 0x2D45 PUSH2 0x3A9F JUMP JUMPDEST JUMPDEST SWAP1 PUSH1 0x0 MSTORE PUSH1 0x20 PUSH1 0x0 KECCAK256 ADD DUP2 SWAP1 SSTORE POP DUP2 PUSH1 0xA PUSH1 0x0 DUP4 DUP2 MSTORE PUSH1 0x20 ADD SWAP1 DUP2 MSTORE PUSH1 0x20 ADD PUSH1 0x0 KECCAK256 DUP2 SWAP1 SSTORE POP PUSH1 0xA PUSH1 0x0 DUP6 DUP2 MSTORE PUSH1 0x20 ADD SWAP1 DUP2 MSTORE PUSH1 0x20 ADD PUSH1 0x0 KECCAK256 PUSH1 0x0 SWAP1 SSTORE PUSH1 0x9 DUP1 SLOAD DUP1 PUSH2 0x2D95 JUMPI PUSH2 0x2D94 PUSH2 0x491E JUMP JUMPDEST JUMPDEST PUSH1 0x1 SWAP1 SUB DUP2 DUP2 SWAP1 PUSH1 0x0 MSTORE PUSH1 0x20 PUSH1 0x0 KECCAK256 ADD PUSH1 0x0 SWAP1 SSTORE SWAP1 SSTORE POP POP POP POP JUMP JUMPDEST PUSH1 0x0 PUSH2 0x2DBC DUP4 PUSH2 0xFBB JUMP JUMPDEST SWAP1 POP DUP2 PUSH1 0x7 PUSH1 0x0 DUP6 PUSH20 0xFFFFFFFFFFFFFFFFFFFFFFFFFFFFFFFFFFFFFFFF AND PUSH20 0xFFFFFFFFFFFFFFFFFFFFFFFFFFFFFFFFFFFFFFFF AND DUP2 MSTORE PUSH1 0x20 ADD SWAP1 DUP2 MSTORE PUSH1 0x20 ADD PUSH1 0x0 KECCAK256 PUSH1 0x0 DUP4 DUP2 MSTORE PUSH1 0x20 ADD SWAP1 DUP2 MSTORE PUSH1 0x20 ADD PUSH1 0x0 KECCAK256 DUP2 SWAP1 SSTORE POP DUP1 PUSH1 0x8 PUSH1 0x0 DUP5 DUP2 MSTORE PUSH1 0x20 ADD SWAP1 DUP2 MSTORE PUSH1 0x20 ADD PUSH1 0x0 KECCAK256 DUP2 SWAP1 SSTORE POP POP POP POP JUMP JUMPDEST POP POP POP POP JUMP JUMPDEST PUSH1 0x0 PUSH1 0x40 MLOAD SWAP1 POP SWAP1 JUMP JUMPDEST PUSH1 0x0 DUP1 REVERT JUMPDEST PUSH1 0x0 DUP1 REVERT JUMPDEST PUSH1 0x0 PUSH32 0xFFFFFFFF00000000000000000000000000000000000000000000000000000000 DUP3 AND SWAP1 POP SWAP2 SWAP1 POP JUMP JUMPDEST PUSH2 0x2E7F DUP2 PUSH2 0x2E4A JUMP JUMPDEST DUP2 EQ PUSH2 0x2E8A JUMPI PUSH1 0x0 DUP1 REVERT JUMPDEST POP JUMP JUMPDEST PUSH1 0x0 DUP2 CALLDATALOAD SWAP1 POP PUSH2 0x2E9C DUP2 PUSH2 0x2E76 JUMP JUMPDEST SWAP3 SWAP2 POP POP JUMP JUMPDEST PUSH1 0x0 PUSH1 0x20 DUP3 DUP5 SUB SLT ISZERO PUSH2 0x2EB8 JUMPI PUSH2 0x2EB7 PUSH2 0x2E40 JUMP JUMPDEST JUMPDEST PUSH1 0x0 PUSH2 0x2EC6 DUP5 DUP3 DUP6 ADD PUSH2 0x2E8D JUMP JUMPDEST SWAP2 POP POP SWAP3 SWAP2 POP POP JUMP JUMPDEST PUSH1 0x0 DUP2 ISZERO ISZERO SWAP1 POP SWAP2 SWAP1 POP JUMP JUMPDEST PUSH2 0x2EE4 DUP2 PUSH2 0x2ECF JUMP JUMPDEST DUP3 MSTORE POP POP JUMP JUMPDEST PUSH1 0x0 PUSH1 0x20 DUP3 ADD SWAP1 POP PUSH2 0x2EFF PUSH1 0x0 DUP4 ADD DUP5 PUSH2 0x2EDB JUMP JUMPDEST SWAP3 SWAP2 POP POP JUMP JUMPDEST PUSH1 0x0 DUP2 MLOAD SWAP1 POP SWAP2 SWAP1 POP JUMP JUMPDEST PUSH1 0x0 DUP3 DUP3 MSTORE PUSH1 0x20 DUP3 ADD SWAP1 POP SWAP3 SWAP2 POP POP JUMP JUMPDEST PUSH1 0x0 JUMPDEST DUP4 DUP2 LT ISZERO PUSH2 0x2F3F JUMPI DUP1 DUP3 ADD MLOAD DUP2 DUP5 ADD MSTORE PUSH1 0x20 DUP2 ADD SWAP1 POP PUSH2 0x2F24 JUMP JUMPDEST PUSH1 0x0 DUP5 DUP5 ADD MSTORE POP POP POP POP JUMP JUMPDEST PUSH1 0x0 PUSH1 0x1F NOT PUSH1 0x1F DUP4 ADD AND SWAP1 POP SWAP2 SWAP1 POP JUMP JUMPDEST PUSH1 0x0 PUSH2 0x2F67 DUP3 PUSH2 0x2F05 JUMP JUMPDEST PUSH2 0x2F71 DUP2 DUP6 PUSH2 0x2F10 JUMP JUMPDEST SWAP4 POP PUSH2 0x2F81 DUP2 DUP6 PUSH1 0x20 DUP7 ADD PUSH2 0x2F21 JUMP JUMPDEST PUSH2 0x2F8A DUP2 PUSH2 0x2F4B JUMP JUMPDEST DUP5 ADD SWAP2 POP POP SWAP3 SWAP2 POP POP JUMP JUMPDEST PUSH1 0x0 PUSH1 0x20 DUP3 ADD SWAP1 POP DUP2 DUP2 SUB PUSH1 0x0 DUP4 ADD MSTORE PUSH2 0x2FAF DUP2 DUP5 PUSH2 0x2F5C JUMP JUMPDEST SWAP1 POP SWAP3 SWAP2 POP POP JUMP JUMPDEST PUSH1 0x0 DUP2 SWAP1 POP SWAP2 SWAP1 POP JUMP JUMPDEST PUSH2 0x2FCA DUP2 PUSH2 0x2FB7 JUMP JUMPDEST DUP2 EQ PUSH2 0x2FD5 JUMPI PUSH1 0x0 DUP1 REVERT JUMPDEST POP JUMP JUMPDEST PUSH1 0x0 DUP2 CALLDATALOAD SWAP1 POP PUSH2 0x2FE7 DUP2 PUSH2 0x2FC1 JUMP JUMPDEST SWAP3 SWAP2 POP POP JUMP JUMPDEST PUSH1 0x0 PUSH1 0x20 DUP3 DUP5 SUB SLT ISZERO PUSH2 0x3003 JUMPI PUSH2 0x3002 PUSH2 0x2E40 JUMP JUMPDEST JUMPDEST PUSH1 0x0 PUSH2 0x3011 DUP5 DUP3 DUP6 ADD PUSH2 0x2FD8 JUMP JUMPDEST SWAP2 POP POP SWAP3 SWAP2 POP POP JUMP JUMPDEST PUSH1 0x0 PUSH20 0xFFFFFFFFFFFFFFFFFFFFFFFFFFFFFFFFFFFFFFFF DUP3 AND SWAP1 POP SWAP2 SWAP1 POP JUMP JUMPDEST PUSH1 0x0 PUSH2 0x3045 DUP3 PUSH2 0x301A JUMP JUMPDEST SWAP1 POP SWAP2 SWAP1 POP JUMP JUMPDEST PUSH2 0x3055 DUP2 PUSH2 0x303A JUMP JUMPDEST DUP3 MSTORE POP POP JUMP JUMPDEST PUSH1 0x0 PUSH1 0x20 DUP3 ADD SWAP1 POP PUSH2 0x3070 PUSH1 0x0 DUP4 ADD DUP5 PUSH2 0x304C JUMP JUMPDEST SWAP3 SWAP2 POP POP JUMP JUMPDEST PUSH2 0x307F DUP2 PUSH2 0x303A JUMP JUMPDEST DUP2 EQ PUSH2 0x308A JUMPI PUSH1 0x0 DUP1 REVERT JUMPDEST POP JUMP JUMPDEST PUSH1 0x0 DUP2 CALLDATALOAD SWAP1 POP PUSH2 0x309C DUP2 PUSH2 0x3076 JUMP JUMPDEST SWAP3 SWAP2 POP POP JUMP JUMPDEST PUSH1 0x0 DUP1 PUSH1 0x40 DUP4 DUP6 SUB SLT ISZERO PUSH2 0x30B9 JUMPI PUSH2 0x30B8 PUSH2 0x2E40 JUMP JUMPDEST JUMPDEST PUSH1 0x0 PUSH2 0x30C7 DUP6 DUP3 DUP7 ADD PUSH2 0x308D JUMP JUMPDEST SWAP3 POP POP PUSH1 0x20 PUSH2 0x30D8 DUP6 DUP3 DUP7 ADD PUSH2 0x2FD8 JUMP JUMPDEST SWAP2 POP POP SWAP3 POP SWAP3 SWAP1 POP JUMP JUMPDEST PUSH2 0x30EB DUP2 PUSH2 0x2FB7 JUMP JUMPDEST DUP3 MSTORE POP POP JUMP JUMPDEST PUSH1 0x0 PUSH1 0x20 DUP3 ADD SWAP1 POP PUSH2 0x3106 PUSH1 0x0 DUP4 ADD DUP5 PUSH2 0x30E2 JUMP JUMPDEST SWAP3 SWAP2 POP POP JUMP JUMPDEST PUSH1 0x0 DUP1 PUSH1 0x0 PUSH1 0x60 DUP5 DUP7 SUB SLT ISZERO PUSH2 0x3125 JUMPI PUSH2 0x3124 PUSH2 0x2E40 JUMP JUMPDEST JUMPDEST PUSH1 0x0 PUSH2 0x3133 DUP7 DUP3 DUP8 ADD PUSH2 0x308D JUMP JUMPDEST SWAP4 POP POP PUSH1 0x20 PUSH2 0x3144 DUP7 DUP3 DUP8 ADD PUSH2 0x308D JUMP JUMPDEST SWAP3 POP POP PUSH1 0x40 PUSH2 0x3155 DUP7 DUP3 DUP8 ADD PUSH2 0x2FD8 JUMP JUMPDEST SWAP2 POP POP SWAP3 POP SWAP3 POP SWAP3 JUMP JUMPDEST PUSH1 0x0 PUSH1 0x20 DUP3 DUP5 SUB SLT ISZERO PUSH2 0x3175 JUMPI PUSH2 0x3174 PUSH2 0x2E40 JUMP JUMPDEST JUMPDEST PUSH1 0x0 PUSH2 0x3183 DUP5 DUP3 DUP6 ADD PUSH2 0x308D JUMP JUMPDEST SWAP2 POP POP SWAP3 SWAP2 POP POP JUMP JUMPDEST PUSH1 0x0 DUP2 MLOAD SWAP1 POP SWAP2 SWAP1 POP JUMP JUMPDEST PUSH1 0x0 DUP3 DUP3 MSTORE PUSH1 0x20 DUP3 ADD SWAP1 POP SWAP3 SWAP2 POP POP JUMP JUMPDEST PUSH1 0x0 DUP2 SWAP1 POP PUSH1 0x20 DUP3 ADD SWAP1 POP SWAP2 SWAP1 POP JUMP JUMPDEST PUSH2 0x31C1 DUP2 PUSH2 0x2FB7 JUMP JUMPDEST DUP3 MSTORE POP POP JUMP JUMPDEST PUSH1 0x0 PUSH2 0x31D3 DUP4 DUP4 PUSH2 0x31B8 JUMP JUMPDEST PUSH1 0x20 DUP4 ADD SWAP1 POP SWAP3 SWAP2 POP POP JUMP JUMPDEST PUSH1 0x0 PUSH1 0x20 DUP3 ADD SWAP1 POP SWAP2 SWAP1 POP JUMP JUMPDEST PUSH1 0x0 PUSH2 0x31F7 DUP3 PUSH2 0x318C JUMP JUMPDEST PUSH2 0x3201 DUP2 DUP6 PUSH2 0x3197 JUMP JUMPDEST SWAP4 POP PUSH2 0x320C DUP4 PUSH2 0x31A8 JUMP JUMPDEST DUP1 PUSH1 0x0 JUMPDEST DUP4 DUP2 LT ISZERO PUSH2 0x323D JUMPI DUP2 MLOAD PUSH2 0x3224 DUP9 DUP3 PUSH2 0x31C7 JUMP JUMPDEST SWAP8 POP PUSH2 0x322F DUP4 PUSH2 0x31DF JUMP JUMPDEST SWAP3 POP POP PUSH1 0x1 DUP2 ADD SWAP1 POP PUSH2 0x3210 JUMP JUMPDEST POP DUP6 SWAP4 POP POP POP POP SWAP3 SWAP2 POP POP JUMP JUMPDEST PUSH1 0x0 PUSH1 0x20 DUP3 ADD SWAP1 POP DUP2 DUP2 SUB PUSH1 0x0 DUP4 ADD MSTORE PUSH2 0x3264 DUP2 DUP5 PUSH2 0x31EC JUMP JUMPDEST SWAP1 POP SWAP3 SWAP2 POP POP JUMP JUMPDEST PUSH1 0x0 DUP1 REVERT JUMPDEST PUSH1 0x0 DUP1 REVERT JUMPDEST PUSH1 0x0 DUP1 REVERT JUMPDEST PUSH1 0x0 DUP1 DUP4 PUSH1 0x1F DUP5 ADD SLT PUSH2 0x3291 JUMPI PUSH2 0x3290 PUSH2 0x326C JUMP JUMPDEST JUMPDEST DUP3 CALLDATALOAD SWAP1 POP PUSH8 0xFFFFFFFFFFFFFFFF DUP2 GT ISZERO PUSH2 0x32AE JUMPI PUSH2 0x32AD PUSH2 0x3271 JUMP JUMPDEST JUMPDEST PUSH1 0x20 DUP4 ADD SWAP2 POP DUP4 PUSH1 0x1 DUP3 MUL DUP4 ADD GT ISZERO PUSH2 0x32CA JUMPI PUSH2 0x32C9 PUSH2 0x3276 JUMP JUMPDEST JUMPDEST SWAP3 POP SWAP3 SWAP1 POP JUMP JUMPDEST PUSH1 0x0 DUP1 PUSH1 0x20 DUP4 DUP6 SUB SLT ISZERO PUSH2 0x32E8 JUMPI PUSH2 0x32E7 PUSH2 0x2E40 JUMP JUMPDEST JUMPDEST PUSH1 0x0 DUP4 ADD CALLDATALOAD PUSH8 0xFFFFFFFFFFFFFFFF DUP2 GT ISZERO PUSH2 0x3306 JUMPI PUSH2 0x3305 PUSH2 0x2E45 JUMP JUMPDEST JUMPDEST PUSH2 0x3312 DUP6 DUP3 DUP7 ADD PUSH2 0x327B JUMP JUMPDEST SWAP3 POP SWAP3 POP POP SWAP3 POP SWAP3 SWAP1 POP JUMP JUMPDEST PUSH1 0x0 PUSH2 0x3329 DUP3 PUSH2 0x303A JUMP JUMPDEST SWAP1 POP SWAP2 SWAP1 POP JUMP JUMPDEST PUSH2 0x3339 DUP2 PUSH2 0x331E JUMP JUMPDEST DUP2 EQ PUSH2 0x3344 JUMPI PUSH1 0x0 DUP1 REVERT JUMPDEST POP JUMP JUMPDEST PUSH1 0x0 DUP2 CALLDATALOAD SWAP1 POP PUSH2 0x3356 DUP2 PUSH2 0x3330 JUMP JUMPDEST SWAP3 SWAP2 POP POP JUMP JUMPDEST PUSH1 0x0 DUP1 PUSH1 0x40 DUP4 DUP6 SUB SLT ISZERO PUSH2 0x3373 JUMPI PUSH2 0x3372 PUSH2 0x2E40 JUMP JUMPDEST JUMPDEST PUSH1 0x0 PUSH2 0x3381 DUP6 DUP3 DUP7 ADD PUSH2 0x3347 JUMP JUMPDEST SWAP3 POP POP PUSH1 0x20 PUSH2 0x3392 DUP6 DUP3 DUP7 ADD PUSH2 0x2FD8 JUMP JUMPDEST SWAP2 POP POP SWAP3 POP SWAP3 SWAP1 POP JUMP JUMPDEST PUSH2 0x33A5 DUP2 PUSH2 0x2ECF JUMP JUMPDEST DUP2 EQ PUSH2 0x33B0 JUMPI PUSH1 0x0 DUP1 REVERT JUMPDEST POP JUMP JUMPDEST PUSH1 0x0 DUP2 CALLDATALOAD SWAP1 POP PUSH2 0x33C2 DUP2 PUSH2 0x339C JUMP JUMPDEST SWAP3 SWAP2 POP POP JUMP JUMPDEST PUSH1 0x0 DUP1 PUSH1 0x40 DUP4 DUP6 SUB SLT ISZERO PUSH2 0x33DF JUMPI PUSH2 0x33DE PUSH2 0x2E40 JUMP JUMPDEST JUMPDEST PUSH1 0x0 PUSH2 0x33ED DUP6 DUP3 DUP7 ADD PUSH2 0x308D JUMP JUMPDEST SWAP3 POP POP PUSH1 0x20 PUSH2 0x33FE DUP6 DUP3 DUP7 ADD PUSH2 0x33B3 JUMP JUMPDEST SWAP2 POP POP SWAP3 POP SWAP3 SWAP1 POP JUMP JUMPDEST PUSH1 0x0 DUP1 REVERT JUMPDEST PUSH32 0x4E487B7100000000000000000000000000000000000000000000000000000000 PUSH1 0x0 MSTORE PUSH1 0x41 PUSH1 0x4 MSTORE PUSH1 0x24 PUSH1 0x0 REVERT JUMPDEST PUSH2 0x3445 DUP3 PUSH2 0x2F4B JUMP JUMPDEST DUP2 ADD DUP2 DUP2 LT PUSH8 0xFFFFFFFFFFFFFFFF DUP3 GT OR ISZERO PUSH2 0x3464 JUMPI PUSH2 0x3463 PUSH2 0x340D JUMP JUMPDEST JUMPDEST DUP1 PUSH1 0x40 MSTORE POP POP POP JUMP JUMPDEST PUSH1 0x0 PUSH2 0x3477 PUSH2 0x2E36 JUMP JUMPDEST SWAP1 POP PUSH2 0x3483 DUP3 DUP3 PUSH2 0x343C JUMP JUMPDEST SWAP2 SWAP1 POP JUMP JUMPDEST PUSH1 0x0 PUSH8 0xFFFFFFFFFFFFFFFF DUP3 GT ISZERO PUSH2 0x34A3 JUMPI PUSH2 0x34A2 PUSH2 0x340D JUMP JUMPDEST JUMPDEST PUSH2 0x34AC DUP3 PUSH2 0x2F4B JUMP JUMPDEST SWAP1 POP PUSH1 0x20 DUP2 ADD SWAP1 POP SWAP2 SWAP1 POP JUMP JUMPDEST DUP3 DUP2 DUP4 CALLDATACOPY PUSH1 0x0 DUP4 DUP4 ADD MSTORE POP POP POP JUMP JUMPDEST PUSH1 0x0 PUSH2 0x34DB PUSH2 0x34D6 DUP5 PUSH2 0x3488 JUMP JUMPDEST PUSH2 0x346D JUMP JUMPDEST SWAP1 POP DUP3 DUP2 MSTORE PUSH1 0x20 DUP2 ADD DUP5 DUP5 DUP5 ADD GT ISZERO PUSH2 0x34F7 JUMPI PUSH2 0x34F6 PUSH2 0x3408 JUMP JUMPDEST JUMPDEST PUSH2 0x3502 DUP5 DUP3 DUP6 PUSH2 0x34B9 JUMP JUMPDEST POP SWAP4 SWAP3 POP POP POP JUMP JUMPDEST PUSH1 0x0 DUP3 PUSH1 0x1F DUP4 ADD SLT PUSH2 0x351F JUMPI PUSH2 0x351E PUSH2 0x326C JUMP JUMPDEST JUMPDEST DUP2 CALLDATALOAD PUSH2 0x352F DUP5 DUP3 PUSH1 0x20 DUP7 ADD PUSH2 0x34C8 JUMP JUMPDEST SWAP2 POP POP SWAP3 SWAP2 POP POP JUMP JUMPDEST PUSH1 0x0 DUP1 PUSH1 0x0 DUP1 PUSH1 0x80 DUP6 DUP8 SUB SLT ISZERO PUSH2 0x3552 JUMPI PUSH2 0x3551 PUSH2 0x2E40 JUMP JUMPDEST JUMPDEST PUSH1 0x0 PUSH2 0x3560 DUP8 DUP3 DUP9 ADD PUSH2 0x308D JUMP JUMPDEST SWAP5 POP POP PUSH1 0x20 PUSH2 0x3571 DUP8 DUP3 DUP9 ADD PUSH2 0x308D JUMP JUMPDEST SWAP4 POP POP PUSH1 0x40 PUSH2 0x3582 DUP8 DUP3 DUP9 ADD PUSH2 0x2FD8 JUMP JUMPDEST SWAP3 POP POP PUSH1 0x60 DUP6 ADD CALLDATALOAD PUSH8 0xFFFFFFFFFFFFFFFF DUP2 GT ISZERO PUSH2 0x35A3 JUMPI PUSH2 0x35A2 PUSH2 0x2E45 JUMP JUMPDEST JUMPDEST PUSH2 0x35AF DUP8 DUP3 DUP9 ADD PUSH2 0x350A JUMP JUMPDEST SWAP2 POP POP SWAP3 SWAP6 SWAP2 SWAP5 POP SWAP3 POP JUMP JUMPDEST PUSH1 0x0 DUP1 PUSH1 0x40 DUP4 DUP6 SUB SLT ISZERO PUSH2 0x35D2 JUMPI PUSH2 0x35D1 PUSH2 0x2E40 JUMP JUMPDEST JUMPDEST PUSH1 0x0 PUSH2 0x35E0 DUP6 DUP3 DUP7 ADD PUSH2 0x308D JUMP JUMPDEST SWAP3 POP POP PUSH1 0x20 PUSH2 0x35F1 DUP6 DUP3 DUP7 ADD PUSH2 0x308D JUMP JUMPDEST SWAP2 POP POP SWAP3 POP SWAP3 SWAP1 POP JUMP JUMPDEST PUSH32 0x4E487B7100000000000000000000000000000000000000000000000000000000 PUSH1 0x0 MSTORE PUSH1 0x22 PUSH1 0x4 MSTORE PUSH1 0x24 PUSH1 0x0 REVERT JUMPDEST PUSH1 0x0 PUSH1 0x2 DUP3 DIV SWAP1 POP PUSH1 0x1 DUP3 AND DUP1 PUSH2 0x3642 JUMPI PUSH1 0x7F DUP3 AND SWAP2 POP JUMPDEST PUSH1 0x20 DUP3 LT DUP2 SUB PUSH2 0x3655 JUMPI PUSH2 0x3654 PUSH2 0x35FB JUMP JUMPDEST JUMPDEST POP SWAP2 SWAP1 POP JUMP JUMPDEST PUSH32 0x4552433732313A20617070726F76616C20746F2063757272656E74206F776E65 PUSH1 0x0 DUP3 ADD MSTORE PUSH32 0x7200000000000000000000000000000000000000000000000000000000000000 PUSH1 0x20 DUP3 ADD MSTORE POP JUMP JUMPDEST PUSH1 0x0 PUSH2 0x36B7 PUSH1 0x21 DUP4 PUSH2 0x2F10 JUMP JUMPDEST SWAP2 POP PUSH2 0x36C2 DUP3 PUSH2 0x365B JUMP JUMPDEST PUSH1 0x40 DUP3 ADD SWAP1 POP SWAP2 SWAP1 POP JUMP JUMPDEST PUSH1 0x0 PUSH1 0x20 DUP3 ADD SWAP1 POP DUP2 DUP2 SUB PUSH1 0x0 DUP4 ADD MSTORE PUSH2 0x36E6 DUP2 PUSH2 0x36AA JUMP JUMPDEST SWAP1 POP SWAP2 SWAP1 POP JUMP JUMPDEST PUSH32 0x4552433732313A20617070726F76652063616C6C6572206973206E6F7420746F PUSH1 0x0 DUP3 ADD MSTORE PUSH32 0x6B656E206F776E6572206F7220617070726F76656420666F7220616C6C000000 PUSH1 0x20 DUP3 ADD MSTORE POP JUMP JUMPDEST PUSH1 0x0 PUSH2 0x3749 PUSH1 0x3D DUP4 PUSH2 0x2F10 JUMP JUMPDEST SWAP2 POP PUSH2 0x3754 DUP3 PUSH2 0x36ED JUMP JUMPDEST PUSH1 0x40 DUP3 ADD SWAP1 POP SWAP2 SWAP1 POP JUMP JUMPDEST PUSH1 0x0 PUSH1 0x20 DUP3 ADD SWAP1 POP DUP2 DUP2 SUB PUSH1 0x0 DUP4 ADD MSTORE PUSH2 0x3778 DUP2 PUSH2 0x373C JUMP JUMPDEST SWAP1 POP SWAP2 SWAP1 POP JUMP JUMPDEST PUSH32 0x4552433732313A2063616C6C6572206973206E6F7420746F6B656E206F776E65 PUSH1 0x0 DUP3 ADD MSTORE PUSH32 0x72206F7220617070726F76656400000000000000000000000000000000000000 PUSH1 0x20 DUP3 ADD MSTORE POP JUMP JUMPDEST PUSH1 0x0 PUSH2 0x37DB PUSH1 0x2D DUP4 PUSH2 0x2F10 JUMP JUMPDEST SWAP2 POP PUSH2 0x37E6 DUP3 PUSH2 0x377F JUMP JUMPDEST PUSH1 0x40 DUP3 ADD SWAP1 POP SWAP2 SWAP1 POP JUMP JUMPDEST PUSH1 0x0 PUSH1 0x20 DUP3 ADD SWAP1 POP DUP2 DUP2 SUB PUSH1 0x0 DUP4 ADD MSTORE PUSH2 0x380A DUP2 PUSH2 0x37CE JUMP JUMPDEST SWAP1 POP SWAP2 SWAP1 POP JUMP JUMPDEST PUSH32 0x455243373231456E756D657261626C653A206F776E657220696E646578206F75 PUSH1 0x0 DUP3 ADD MSTORE PUSH32 0x74206F6620626F756E6473000000000000000000000000000000000000000000 PUSH1 0x20 DUP3 ADD MSTORE POP JUMP JUMPDEST PUSH1 0x0 PUSH2 0x386D PUSH1 0x2B DUP4 PUSH2 0x2F10 JUMP JUMPDEST SWAP2 POP PUSH2 0x3878 DUP3 PUSH2 0x3811 JUMP JUMPDEST PUSH1 0x40 DUP3 ADD SWAP1 POP SWAP2 SWAP1 POP JUMP JUMPDEST PUSH1 0x0 PUSH1 0x20 DUP3 ADD SWAP1 POP DUP2 DUP2 SUB PUSH1 0x0 DUP4 ADD MSTORE PUSH2 0x389C DUP2 PUSH2 0x3860 JUMP JUMPDEST SWAP1 POP SWAP2 SWAP1 POP JUMP JUMPDEST PUSH32 0x4D696E74696E6720697320706175736564000000000000000000000000000000 PUSH1 0x0 DUP3 ADD MSTORE POP JUMP JUMPDEST PUSH1 0x0 PUSH2 0x38D9 PUSH1 0x11 DUP4 PUSH2 0x2F10 JUMP JUMPDEST SWAP2 POP PUSH2 0x38E4 DUP3 PUSH2 0x38A3 JUMP JUMPDEST PUSH1 0x20 DUP3 ADD SWAP1 POP SWAP2 SWAP1 POP JUMP JUMPDEST PUSH1 0x0 PUSH1 0x20 DUP3 ADD SWAP1 POP DUP2 DUP2 SUB PUSH1 0x0 DUP4 ADD MSTORE PUSH2 0x3908 DUP2 PUSH2 0x38CC JUMP JUMPDEST SWAP1 POP SWAP2 SWAP1 POP JUMP JUMPDEST PUSH32 0x4D696E7465722061646472657373206973206E6F742076616C69640000000000 PUSH1 0x0 DUP3 ADD MSTORE POP JUMP JUMPDEST PUSH1 0x0 PUSH2 0x3945 PUSH1 0x1B DUP4 PUSH2 0x2F10 JUMP JUMPDEST SWAP2 POP PUSH2 0x3950 DUP3 PUSH2 0x390F JUMP JUMPDEST PUSH1 0x20 DUP3 ADD SWAP1 POP SWAP2 SWAP1 POP JUMP JUMPDEST PUSH1 0x0 PUSH1 0x20 DUP3 ADD SWAP1 POP DUP2 DUP2 SUB PUSH1 0x0 DUP4 ADD MSTORE PUSH2 0x3974 DUP2 PUSH2 0x3938 JUMP JUMPDEST SWAP1 POP SWAP2 SWAP1 POP JUMP JUMPDEST PUSH32 0x4E487B7100000000000000000000000000000000000000000000000000000000 PUSH1 0x0 MSTORE PUSH1 0x11 PUSH1 0x4 MSTORE PUSH1 0x24 PUSH1 0x0 REVERT JUMPDEST PUSH1 0x0 PUSH2 0x39B5 DUP3 PUSH2 0x2FB7 JUMP JUMPDEST SWAP2 POP PUSH32 0xFFFFFFFFFFFFFFFFFFFFFFFFFFFFFFFFFFFFFFFFFFFFFFFFFFFFFFFFFFFFFFFF DUP3 SUB PUSH2 0x39E7 JUMPI PUSH2 0x39E6 PUSH2 0x397B JUMP JUMPDEST JUMPDEST PUSH1 0x1 DUP3 ADD SWAP1 POP SWAP2 SWAP1 POP JUMP JUMPDEST PUSH1 0x0 PUSH1 0x40 DUP3 ADD SWAP1 POP PUSH2 0x3A07 PUSH1 0x0 DUP4 ADD DUP6 PUSH2 0x304C JUMP JUMPDEST PUSH2 0x3A14 PUSH1 0x20 DUP4 ADD DUP5 PUSH2 0x30E2 JUMP JUMPDEST SWAP4 SWAP3 POP POP POP JUMP JUMPDEST PUSH1 0x0 DUP2 MLOAD SWAP1 POP PUSH2 0x3A2A DUP2 PUSH2 0x339C JUMP JUMPDEST SWAP3 SWAP2 POP POP JUMP JUMPDEST PUSH1 0x0 PUSH1 0x20 DUP3 DUP5 SUB SLT ISZERO PUSH2 0x3A46 JUMPI PUSH2 0x3A45 PUSH2 0x2E40 JUMP JUMPDEST JUMPDEST PUSH1 0x0 PUSH2 0x3A54 DUP5 DUP3 DUP6 ADD PUSH2 0x3A1B JUMP JUMPDEST SWAP2 POP POP SWAP3 SWAP2 POP POP JUMP JUMPDEST PUSH1 0x0 DUP2 MLOAD SWAP1 POP PUSH2 0x3A6C DUP2 PUSH2 0x2FC1 JUMP JUMPDEST SWAP3 SWAP2 POP POP JUMP JUMPDEST PUSH1 0x0 PUSH1 0x20 DUP3 DUP5 SUB SLT ISZERO PUSH2 0x3A88 JUMPI PUSH2 0x3A87 PUSH2 0x2E40 JUMP JUMPDEST JUMPDEST PUSH1 0x0 PUSH2 0x3A96 DUP5 DUP3 DUP6 ADD PUSH2 0x3A5D JUMP JUMPDEST SWAP2 POP POP SWAP3 SWAP2 POP POP JUMP JUMPDEST PUSH32 0x4E487B7100000000000000000000000000000000000000000000000000000000 PUSH1 0x0 MSTORE PUSH1 0x32 PUSH1 0x4 MSTORE PUSH1 0x24 PUSH1 0x0 REVERT JUMPDEST PUSH32 0x455243373231456E756D657261626C653A20676C6F62616C20696E646578206F PUSH1 0x0 DUP3 ADD MSTORE PUSH32 0x7574206F6620626F756E64730000000000000000000000000000000000000000 PUSH1 0x20 DUP3 ADD MSTORE POP JUMP JUMPDEST PUSH1 0x0 PUSH2 0x3B2A PUSH1 0x2C DUP4 PUSH2 0x2F10 JUMP JUMPDEST SWAP2 POP PUSH2 0x3B35 DUP3 PUSH2 0x3ACE JUMP JUMPDEST PUSH1 0x40 DUP3 ADD SWAP1 POP SWAP2 SWAP1 POP JUMP JUMPDEST PUSH1 0x0 PUSH1 0x20 DUP3 ADD SWAP1 POP DUP2 DUP2 SUB PUSH1 0x0 DUP4 ADD MSTORE PUSH2 0x3B59 DUP2 PUSH2 0x3B1D JUMP JUMPDEST SWAP1 POP SWAP2 SWAP1 POP JUMP JUMPDEST PUSH1 0x0 DUP3 SWAP1 POP SWAP3 SWAP2 POP POP JUMP JUMPDEST PUSH1 0x0 DUP2 SWAP1 POP DUP2 PUSH1 0x0 MSTORE PUSH1 0x20 PUSH1 0x0 KECCAK256 SWAP1 POP SWAP2 SWAP1 POP JUMP JUMPDEST PUSH1 0x0 PUSH1 0x20 PUSH1 0x1F DUP4 ADD DIV SWAP1 POP SWAP2 SWAP1 POP JUMP JUMPDEST PUSH1 0x0 DUP3 DUP3 SHL SWAP1 POP SWAP3 SWAP2 POP POP JUMP JUMPDEST PUSH1 0x0 PUSH1 0x8 DUP4 MUL PUSH2 0x3BCD PUSH32 0xFFFFFFFFFFFFFFFFFFFFFFFFFFFFFFFFFFFFFFFFFFFFFFFFFFFFFFFFFFFFFFFF DUP3 PUSH2 0x3B90 JUMP JUMPDEST PUSH2 0x3BD7 DUP7 DUP4 PUSH2 0x3B90 JUMP JUMPDEST SWAP6 POP DUP1 NOT DUP5 AND SWAP4 POP DUP1 DUP7 AND DUP5 OR SWAP3 POP POP POP SWAP4 SWAP3 POP POP POP JUMP JUMPDEST PUSH1 0x0 DUP2 SWAP1 POP SWAP2 SWAP1 POP JUMP JUMPDEST PUSH1 0x0 PUSH2 0x3C14 PUSH2 0x3C0F PUSH2 0x3C0A DUP5 PUSH2 0x2FB7 JUMP JUMPDEST PUSH2 0x3BEF JUMP JUMPDEST PUSH2 0x2FB7 JUMP JUMPDEST SWAP1 POP SWAP2 SWAP1 POP JUMP JUMPDEST PUSH1 0x0 DUP2 SWAP1 POP SWAP2 SWAP1 POP JUMP JUMPDEST PUSH2 0x3C2E DUP4 PUSH2 0x3BF9 JUMP JUMPDEST PUSH2 0x3C42 PUSH2 0x3C3A DUP3 PUSH2 0x3C1B JUMP JUMPDEST DUP5 DUP5 SLOAD PUSH2 0x3B9D JUMP JUMPDEST DUP3 SSTORE POP POP POP POP JUMP JUMPDEST PUSH1 0x0 SWAP1 JUMP JUMPDEST PUSH2 0x3C57 PUSH2 0x3C4A JUMP JUMPDEST PUSH2 0x3C62 DUP2 DUP5 DUP5 PUSH2 0x3C25 JUMP JUMPDEST POP POP POP JUMP JUMPDEST JUMPDEST DUP2 DUP2 LT ISZERO PUSH2 0x3C86 JUMPI PUSH2 0x3C7B PUSH1 0x0 DUP3 PUSH2 0x3C4F JUMP JUMPDEST PUSH1 0x1 DUP2 ADD SWAP1 POP PUSH2 0x3C68 JUMP JUMPDEST POP POP JUMP JUMPDEST PUSH1 0x1F DUP3 GT ISZERO PUSH2 0x3CCB JUMPI PUSH2 0x3C9C DUP2 PUSH2 0x3B6B JUMP JUMPDEST PUSH2 0x3CA5 DUP5 PUSH2 0x3B80 JUMP JUMPDEST DUP2 ADD PUSH1 0x20 DUP6 LT ISZERO PUSH2 0x3CB4 JUMPI DUP2 SWAP1 POP JUMPDEST PUSH2 0x3CC8 PUSH2 0x3CC0 DUP6 PUSH2 0x3B80 JUMP JUMPDEST DUP4 ADD DUP3 PUSH2 0x3C67 JUMP JUMPDEST POP POP JUMPDEST POP POP POP JUMP JUMPDEST PUSH1 0x0 DUP3 DUP3 SHR SWAP1 POP SWAP3 SWAP2 POP POP JUMP JUMPDEST PUSH1 0x0 PUSH2 0x3CEE PUSH1 0x0 NOT DUP5 PUSH1 0x8 MUL PUSH2 0x3CD0 JUMP JUMPDEST NOT DUP1 DUP4 AND SWAP2 POP POP SWAP3 SWAP2 POP POP JUMP JUMPDEST PUSH1 0x0 PUSH2 0x3D07 DUP4 DUP4 PUSH2 0x3CDD JUMP JUMPDEST SWAP2 POP DUP3 PUSH1 0x2 MUL DUP3 OR SWAP1 POP SWAP3 SWAP2 POP POP JUMP JUMPDEST PUSH2 0x3D21 DUP4 DUP4 PUSH2 0x3B60 JUMP JUMPDEST PUSH8 0xFFFFFFFFFFFFFFFF DUP2 GT ISZERO PUSH2 0x3D3A JUMPI PUSH2 0x3D39 PUSH2 0x340D JUMP JUMPDEST JUMPDEST PUSH2 0x3D44 DUP3 SLOAD PUSH2 0x362A JUMP JUMPDEST PUSH2 0x3D4F DUP3 DUP3 DUP6 PUSH2 0x3C8A JUMP JUMPDEST PUSH1 0x0 PUSH1 0x1F DUP4 GT PUSH1 0x1 DUP2 EQ PUSH2 0x3D7E JUMPI PUSH1 0x0 DUP5 ISZERO PUSH2 0x3D6C JUMPI DUP3 DUP8 ADD CALLDATALOAD SWAP1 POP JUMPDEST PUSH2 0x3D76 DUP6 DUP3 PUSH2 0x3CFB JUMP JUMPDEST DUP7 SSTORE POP PUSH2 0x3DDE JUMP JUMPDEST PUSH1 0x1F NOT DUP5 AND PUSH2 0x3D8C DUP7 PUSH2 0x3B6B JUMP JUMPDEST PUSH1 0x0 JUMPDEST DUP3 DUP2 LT ISZERO PUSH2 0x3DB4 JUMPI DUP5 DUP10 ADD CALLDATALOAD DUP3 SSTORE PUSH1 0x1 DUP3 ADD SWAP2 POP PUSH1 0x20 DUP6 ADD SWAP5 POP PUSH1 0x20 DUP2 ADD SWAP1 POP PUSH2 0x3D8F JUMP JUMPDEST DUP7 DUP4 LT ISZERO PUSH2 0x3DD1 JUMPI DUP5 DUP10 ADD CALLDATALOAD PUSH2 0x3DCD PUSH1 0x1F DUP10 AND DUP3 PUSH2 0x3CDD JUMP JUMPDEST DUP4 SSTORE POP JUMPDEST PUSH1 0x1 PUSH1 0x2 DUP9 MUL ADD DUP9 SSTORE POP POP POP JUMPDEST POP POP POP POP POP POP POP JUMP JUMPDEST PUSH32 0x4552433732313A20696E76616C696420746F6B656E2049440000000000000000 PUSH1 0x0 DUP3 ADD MSTORE POP JUMP JUMPDEST PUSH1 0x0 PUSH2 0x3E1D PUSH1 0x18 DUP4 PUSH2 0x2F10 JUMP JUMPDEST SWAP2 POP PUSH2 0x3E28 DUP3 PUSH2 0x3DE7 JUMP JUMPDEST PUSH1 0x20 DUP3 ADD SWAP1 POP SWAP2 SWAP1 POP JUMP JUMPDEST PUSH1 0x0 PUSH1 0x20 DUP3 ADD SWAP1 POP DUP2 DUP2 SUB PUSH1 0x0 DUP4 ADD MSTORE PUSH2 0x3E4C DUP2 PUSH2 0x3E10 JUMP JUMPDEST SWAP1 POP SWAP2 SWAP1 POP JUMP JUMPDEST PUSH32 0x4552433732313A2061646472657373207A65726F206973206E6F742061207661 PUSH1 0x0 DUP3 ADD MSTORE PUSH32 0x6C6964206F776E65720000000000000000000000000000000000000000000000 PUSH1 0x20 DUP3 ADD MSTORE POP JUMP JUMPDEST PUSH1 0x0 PUSH2 0x3EAF PUSH1 0x29 DUP4 PUSH2 0x2F10 JUMP JUMPDEST SWAP2 POP PUSH2 0x3EBA DUP3 PUSH2 0x3E53 JUMP JUMPDEST PUSH1 0x40 DUP3 ADD SWAP1 POP SWAP2 SWAP1 POP JUMP JUMPDEST PUSH1 0x0 PUSH1 0x20 DUP3 ADD SWAP1 POP DUP2 DUP2 SUB PUSH1 0x0 DUP4 ADD MSTORE PUSH2 0x3EDE DUP2 PUSH2 0x3EA2 JUMP JUMPDEST SWAP1 POP SWAP2 SWAP1 POP JUMP JUMPDEST PUSH1 0x0 DUP2 SWAP1 POP SWAP3 SWAP2 POP POP JUMP JUMPDEST POP JUMP JUMPDEST PUSH1 0x0 PUSH2 0x3F00 PUSH1 0x0 DUP4 PUSH2 0x3EE5 JUMP JUMPDEST SWAP2 POP PUSH2 0x3F0B DUP3 PUSH2 0x3EF0 JUMP JUMPDEST PUSH1 0x0 DUP3 ADD SWAP1 POP SWAP2 SWAP1 POP JUMP JUMPDEST PUSH1 0x0 PUSH2 0x3F21 DUP3 PUSH2 0x3EF3 JUMP JUMPDEST SWAP2 POP DUP2 SWAP1 POP SWAP2 SWAP1 POP JUMP JUMPDEST PUSH32 0x776974686472617720776173206E6F742073756363657366756C6C0000000000 PUSH1 0x0 DUP3 ADD MSTORE POP JUMP JUMPDEST PUSH1 0x0 PUSH2 0x3F61 PUSH1 0x1B DUP4 PUSH2 0x2F10 JUMP JUMPDEST SWAP2 POP PUSH2 0x3F6C DUP3 PUSH2 0x3F2B JUMP JUMPDEST PUSH1 0x20 DUP3 ADD SWAP1 POP SWAP2 SWAP1 POP JUMP JUMPDEST PUSH1 0x0 PUSH1 0x20 DUP3 ADD SWAP1 POP DUP2 DUP2 SUB PUSH1 0x0 DUP4 ADD MSTORE PUSH2 0x3F90 DUP2 PUSH2 0x3F54 JUMP JUMPDEST SWAP1 POP SWAP2 SWAP1 POP JUMP JUMPDEST PUSH32 0x4552433732314D657461646174613A2055524920717565727920666F72206E6F PUSH1 0x0 DUP3 ADD MSTORE PUSH32 0x6E6578697374656E7420746F6B656E0000000000000000000000000000000000 PUSH1 0x20 DUP3 ADD MSTORE POP JUMP JUMPDEST PUSH1 0x0 PUSH2 0x3FF3 PUSH1 0x2F DUP4 PUSH2 0x2F10 JUMP JUMPDEST SWAP2 POP PUSH2 0x3FFE DUP3 PUSH2 0x3F97 JUMP JUMPDEST PUSH1 0x40 DUP3 ADD SWAP1 POP SWAP2 SWAP1 POP JUMP JUMPDEST PUSH1 0x0 PUSH1 0x20 DUP3 ADD SWAP1 POP DUP2 DUP2 SUB PUSH1 0x0 DUP4 ADD MSTORE PUSH2 0x4022 DUP2 PUSH2 0x3FE6 JUMP JUMPDEST SWAP1 POP SWAP2 SWAP1 POP JUMP JUMPDEST PUSH1 0x0 DUP2 SWAP1 POP SWAP3 SWAP2 POP POP JUMP JUMPDEST PUSH1 0x0 DUP2 SLOAD PUSH2 0x4041 DUP2 PUSH2 0x362A JUMP JUMPDEST PUSH2 0x404B DUP2 DUP7 PUSH2 0x4029 JUMP JUMPDEST SWAP5 POP PUSH1 0x1 DUP3 AND PUSH1 0x0 DUP2 EQ PUSH2 0x4066 JUMPI PUSH1 0x1 DUP2 EQ PUSH2 0x407B JUMPI PUSH2 0x40AE JUMP JUMPDEST PUSH1 0xFF NOT DUP4 AND DUP7 MSTORE DUP2 ISZERO ISZERO DUP3 MUL DUP7 ADD SWAP4 POP PUSH2 0x40AE JUMP JUMPDEST PUSH2 0x4084 DUP6 PUSH2 0x3B6B JUMP JUMPDEST PUSH1 0x0 JUMPDEST DUP4 DUP2 LT ISZERO PUSH2 0x40A6 JUMPI DUP2 SLOAD DUP2 DUP10 ADD MSTORE PUSH1 0x1 DUP3 ADD SWAP2 POP PUSH1 0x20 DUP2 ADD SWAP1 POP PUSH2 0x4087 JUMP JUMPDEST DUP4 DUP9 ADD SWAP6 POP POP POP JUMPDEST POP POP POP SWAP3 SWAP2 POP POP JUMP JUMPDEST PUSH1 0x0 PUSH2 0x40C2 DUP3 PUSH2 0x2F05 JUMP JUMPDEST PUSH2 0x40CC DUP2 DUP6 PUSH2 0x4029 JUMP JUMPDEST SWAP4 POP PUSH2 0x40DC DUP2 DUP6 PUSH1 0x20 DUP7 ADD PUSH2 0x2F21 JUMP JUMPDEST DUP1 DUP5 ADD SWAP2 POP POP SWAP3 SWAP2 POP POP JUMP JUMPDEST PUSH1 0x0 PUSH2 0x40F4 DUP3 DUP6 PUSH2 0x4034 JUMP JUMPDEST SWAP2 POP PUSH2 0x4100 DUP3 DUP5 PUSH2 0x40B7 JUMP JUMPDEST SWAP2 POP DUP2 SWAP1 POP SWAP4 SWAP3 POP POP POP JUMP JUMPDEST PUSH32 0x4F776E61626C653A206E6577206F776E657220697320746865207A65726F2061 PUSH1 0x0 DUP3 ADD MSTORE PUSH32 0x6464726573730000000000000000000000000000000000000000000000000000 PUSH1 0x20 DUP3 ADD MSTORE POP JUMP JUMPDEST PUSH1 0x0 PUSH2 0x4168 PUSH1 0x26 DUP4 PUSH2 0x2F10 JUMP JUMPDEST SWAP2 POP PUSH2 0x4173 DUP3 PUSH2 0x410C JUMP JUMPDEST PUSH1 0x40 DUP3 ADD SWAP1 POP SWAP2 SWAP1 POP JUMP JUMPDEST PUSH1 0x0 PUSH1 0x20 DUP3 ADD SWAP1 POP DUP2 DUP2 SUB PUSH1 0x0 DUP4 ADD MSTORE PUSH2 0x4197 DUP2 PUSH2 0x415B JUMP JUMPDEST SWAP1 POP SWAP2 SWAP1 POP JUMP JUMPDEST PUSH32 0x496E76616C6964206D696E746572206164647265737300000000000000000000 PUSH1 0x0 DUP3 ADD MSTORE POP JUMP JUMPDEST PUSH1 0x0 PUSH2 0x41D4 PUSH1 0x16 DUP4 PUSH2 0x2F10 JUMP JUMPDEST SWAP2 POP PUSH2 0x41DF DUP3 PUSH2 0x419E JUMP JUMPDEST PUSH1 0x20 DUP3 ADD SWAP1 POP SWAP2 SWAP1 POP JUMP JUMPDEST PUSH1 0x0 PUSH1 0x20 DUP3 ADD SWAP1 POP DUP2 DUP2 SUB PUSH1 0x0 DUP4 ADD MSTORE PUSH2 0x4203 DUP2 PUSH2 0x41C7 JUMP JUMPDEST SWAP1 POP SWAP2 SWAP1 POP JUMP JUMPDEST PUSH32 0x4552433732313A207472616E736665722066726F6D20696E636F727265637420 PUSH1 0x0 DUP3 ADD MSTORE PUSH32 0x6F776E6572000000000000000000000000000000000000000000000000000000 PUSH1 0x20 DUP3 ADD MSTORE POP JUMP JUMPDEST PUSH1 0x0 PUSH2 0x4266 PUSH1 0x25 DUP4 PUSH2 0x2F10 JUMP JUMPDEST SWAP2 POP PUSH2 0x4271 DUP3 PUSH2 0x420A JUMP JUMPDEST PUSH1 0x40 DUP3 ADD SWAP1 POP SWAP2 SWAP1 POP JUMP JUMPDEST PUSH1 0x0 PUSH1 0x20 DUP3 ADD SWAP1 POP DUP2 DUP2 SUB PUSH1 0x0 DUP4 ADD MSTORE PUSH2 0x4295 DUP2 PUSH2 0x4259 JUMP JUMPDEST SWAP1 POP SWAP2 SWAP1 POP JUMP JUMPDEST PUSH32 0x4552433732313A207472616E7366657220746F20746865207A65726F20616464 PUSH1 0x0 DUP3 ADD MSTORE PUSH32 0x7265737300000000000000000000000000000000000000000000000000000000 PUSH1 0x20 DUP3 ADD MSTORE POP JUMP JUMPDEST PUSH1 0x0 PUSH2 0x42F8 PUSH1 0x24 DUP4 PUSH2 0x2F10 JUMP JUMPDEST SWAP2 POP PUSH2 0x4303 DUP3 PUSH2 0x429C JUMP JUMPDEST PUSH1 0x40 DUP3 ADD SWAP1 POP SWAP2 SWAP1 POP JUMP JUMPDEST PUSH1 0x0 PUSH1 0x20 DUP3 ADD SWAP1 POP DUP2 DUP2 SUB PUSH1 0x0 DUP4 ADD MSTORE PUSH2 0x4327 DUP2 PUSH2 0x42EB JUMP JUMPDEST SWAP1 POP SWAP2 SWAP1 POP JUMP JUMPDEST PUSH32 0x5265656E7472616E637947756172643A207265656E7472616E742063616C6C00 PUSH1 0x0 DUP3 ADD MSTORE POP JUMP JUMPDEST PUSH1 0x0 PUSH2 0x4364 PUSH1 0x1F DUP4 PUSH2 0x2F10 JUMP JUMPDEST SWAP2 POP PUSH2 0x436F DUP3 PUSH2 0x432E JUMP JUMPDEST PUSH1 0x20 DUP3 ADD SWAP1 POP SWAP2 SWAP1 POP JUMP JUMPDEST PUSH1 0x0 PUSH1 0x20 DUP3 ADD SWAP1 POP DUP2 DUP2 SUB PUSH1 0x0 DUP4 ADD MSTORE PUSH2 0x4393 DUP2 PUSH2 0x4357 JUMP JUMPDEST SWAP1 POP SWAP2 SWAP1 POP JUMP JUMPDEST PUSH32 0x4F776E61626C653A2063616C6C6572206973206E6F7420746865206F776E6572 PUSH1 0x0 DUP3 ADD MSTORE POP JUMP JUMPDEST PUSH1 0x0 PUSH2 0x43D0 PUSH1 0x20 DUP4 PUSH2 0x2F10 JUMP JUMPDEST SWAP2 POP PUSH2 0x43DB DUP3 PUSH2 0x439A JUMP JUMPDEST PUSH1 0x20 DUP3 ADD SWAP1 POP SWAP2 SWAP1 POP JUMP JUMPDEST PUSH1 0x0 PUSH1 0x20 DUP3 ADD SWAP1 POP DUP2 DUP2 SUB PUSH1 0x0 DUP4 ADD MSTORE PUSH2 0x43FF DUP2 PUSH2 0x43C3 JUMP JUMPDEST SWAP1 POP SWAP2 SWAP1 POP JUMP JUMPDEST PUSH32 0x4552433732313A20617070726F766520746F2063616C6C657200000000000000 PUSH1 0x0 DUP3 ADD MSTORE POP JUMP JUMPDEST PUSH1 0x0 PUSH2 0x443C PUSH1 0x19 DUP4 PUSH2 0x2F10 JUMP JUMPDEST SWAP2 POP PUSH2 0x4447 DUP3 PUSH2 0x4406 JUMP JUMPDEST PUSH1 0x20 DUP3 ADD SWAP1 POP SWAP2 SWAP1 POP JUMP JUMPDEST PUSH1 0x0 PUSH1 0x20 DUP3 ADD SWAP1 POP DUP2 DUP2 SUB PUSH1 0x0 DUP4 ADD MSTORE PUSH2 0x446B DUP2 PUSH2 0x442F JUMP JUMPDEST SWAP1 POP SWAP2 SWAP1 POP JUMP JUMPDEST PUSH32 0x4552433732313A207472616E7366657220746F206E6F6E204552433732315265 PUSH1 0x0 DUP3 ADD MSTORE PUSH32 0x63656976657220696D706C656D656E7465720000000000000000000000000000 PUSH1 0x20 DUP3 ADD MSTORE POP JUMP JUMPDEST PUSH1 0x0 PUSH2 0x44CE PUSH1 0x32 DUP4 PUSH2 0x2F10 JUMP JUMPDEST SWAP2 POP PUSH2 0x44D9 DUP3 PUSH2 0x4472 JUMP JUMPDEST PUSH1 0x40 DUP3 ADD SWAP1 POP SWAP2 SWAP1 POP JUMP JUMPDEST PUSH1 0x0 PUSH1 0x20 DUP3 ADD SWAP1 POP DUP2 DUP2 SUB PUSH1 0x0 DUP4 ADD MSTORE PUSH2 0x44FD DUP2 PUSH2 0x44C1 JUMP JUMPDEST SWAP1 POP SWAP2 SWAP1 POP JUMP JUMPDEST PUSH32 0x4E487B7100000000000000000000000000000000000000000000000000000000 PUSH1 0x0 MSTORE PUSH1 0x12 PUSH1 0x4 MSTORE PUSH1 0x24 PUSH1 0x0 REVERT JUMPDEST PUSH32 0x5061757361626C653A2070617573656400000000000000000000000000000000 PUSH1 0x0 DUP3 ADD MSTORE POP JUMP JUMPDEST PUSH1 0x0 PUSH2 0x4569 PUSH1 0x10 DUP4 PUSH2 0x2F10 JUMP JUMPDEST SWAP2 POP PUSH2 0x4574 DUP3 PUSH2 0x4533 JUMP JUMPDEST PUSH1 0x20 DUP3 ADD SWAP1 POP SWAP2 SWAP1 POP JUMP JUMPDEST PUSH1 0x0 PUSH1 0x20 DUP3 ADD SWAP1 POP DUP2 DUP2 SUB PUSH1 0x0 DUP4 ADD MSTORE PUSH2 0x4598 DUP2 PUSH2 0x455C JUMP JUMPDEST SWAP1 POP SWAP2 SWAP1 POP JUMP JUMPDEST PUSH32 0x5061757361626C653A206E6F7420706175736564000000000000000000000000 PUSH1 0x0 DUP3 ADD MSTORE POP JUMP JUMPDEST PUSH1 0x0 PUSH2 0x45D5 PUSH1 0x14 DUP4 PUSH2 0x2F10 JUMP JUMPDEST SWAP2 POP PUSH2 0x45E0 DUP3 PUSH2 0x459F JUMP JUMPDEST PUSH1 0x20 DUP3 ADD SWAP1 POP SWAP2 SWAP1 POP JUMP JUMPDEST PUSH1 0x0 PUSH1 0x20 DUP3 ADD SWAP1 POP DUP2 DUP2 SUB PUSH1 0x0 DUP4 ADD MSTORE PUSH2 0x4604 DUP2 PUSH2 0x45C8 JUMP JUMPDEST SWAP1 POP SWAP2 SWAP1 POP JUMP JUMPDEST PUSH1 0x0 DUP2 MLOAD SWAP1 POP SWAP2 SWAP1 POP JUMP JUMPDEST PUSH1 0x0 DUP3 DUP3 MSTORE PUSH1 0x20 DUP3 ADD SWAP1 POP SWAP3 SWAP2 POP POP JUMP JUMPDEST PUSH1 0x0 PUSH2 0x4632 DUP3 PUSH2 0x460B JUMP JUMPDEST PUSH2 0x463C DUP2 DUP6 PUSH2 0x4616 JUMP JUMPDEST SWAP4 POP PUSH2 0x464C DUP2 DUP6 PUSH1 0x20 DUP7 ADD PUSH2 0x2F21 JUMP JUMPDEST PUSH2 0x4655 DUP2 PUSH2 0x2F4B JUMP JUMPDEST DUP5 ADD SWAP2 POP POP SWAP3 SWAP2 POP POP JUMP JUMPDEST PUSH1 0x0 PUSH1 0x80 DUP3 ADD SWAP1 POP PUSH2 0x4675 PUSH1 0x0 DUP4 ADD DUP8 PUSH2 0x304C JUMP JUMPDEST PUSH2 0x4682 PUSH1 0x20 DUP4 ADD DUP7 PUSH2 0x304C JUMP JUMPDEST PUSH2 0x468F PUSH1 0x40 DUP4 ADD DUP6 PUSH2 0x30E2 JUMP JUMPDEST DUP2 DUP2 SUB PUSH1 0x60 DUP4 ADD MSTORE PUSH2 0x46A1 DUP2 DUP5 PUSH2 0x4627 JUMP JUMPDEST SWAP1 POP SWAP6 SWAP5 POP POP POP POP POP JUMP JUMPDEST PUSH1 0x0 DUP2 MLOAD SWAP1 POP PUSH2 0x46BB DUP2 PUSH2 0x2E76 JUMP JUMPDEST SWAP3 SWAP2 POP POP JUMP JUMPDEST PUSH1 0x0 PUSH1 0x20 DUP3 DUP5 SUB SLT ISZERO PUSH2 0x46D7 JUMPI PUSH2 0x46D6 PUSH2 0x2E40 JUMP JUMPDEST JUMPDEST PUSH1 0x0 PUSH2 0x46E5 DUP5 DUP3 DUP6 ADD PUSH2 0x46AC JUMP JUMPDEST SWAP2 POP POP SWAP3 SWAP2 POP POP JUMP JUMPDEST PUSH32 0x455243373231456E756D657261626C653A20636F6E7365637574697665207472 PUSH1 0x0 DUP3 ADD MSTORE PUSH32 0x616E7366657273206E6F7420737570706F727465640000000000000000000000 PUSH1 0x20 DUP3 ADD MSTORE POP JUMP JUMPDEST PUSH1 0x0 PUSH2 0x474A PUSH1 0x35 DUP4 PUSH2 0x2F10 JUMP JUMPDEST SWAP2 POP PUSH2 0x4755 DUP3 PUSH2 0x46EE JUMP JUMPDEST PUSH1 0x40 DUP3 ADD SWAP1 POP SWAP2 SWAP1 POP JUMP JUMPDEST PUSH1 0x0 PUSH1 0x20 DUP3 ADD SWAP1 POP DUP2 DUP2 SUB PUSH1 0x0 DUP4 ADD MSTORE PUSH2 0x4779 DUP2 PUSH2 0x473D JUMP JUMPDEST SWAP1 POP SWAP2 SWAP1 POP JUMP JUMPDEST PUSH32 0x4552433732313A206D696E7420746F20746865207A65726F2061646472657373 PUSH1 0x0 DUP3 ADD MSTORE POP JUMP JUMPDEST PUSH1 0x0 PUSH2 0x47B6 PUSH1 0x20 DUP4 PUSH2 0x2F10 JUMP JUMPDEST SWAP2 POP PUSH2 0x47C1 DUP3 PUSH2 0x4780 JUMP JUMPDEST PUSH1 0x20 DUP3 ADD SWAP1 POP SWAP2 SWAP1 POP JUMP JUMPDEST PUSH1 0x0 PUSH1 0x20 DUP3 ADD SWAP1 POP DUP2 DUP2 SUB PUSH1 0x0 DUP4 ADD MSTORE PUSH2 0x47E5 DUP2 PUSH2 0x47A9 JUMP JUMPDEST SWAP1 POP SWAP2 SWAP1 POP JUMP JUMPDEST PUSH32 0x4552433732313A20746F6B656E20616C7265616479206D696E74656400000000 PUSH1 0x0 DUP3 ADD MSTORE POP JUMP JUMPDEST PUSH1 0x0 PUSH2 0x4822 PUSH1 0x1C DUP4 PUSH2 0x2F10 JUMP JUMPDEST SWAP2 POP PUSH2 0x482D DUP3 PUSH2 0x47EC JUMP JUMPDEST PUSH1 0x20 DUP3 ADD SWAP1 POP SWAP2 SWAP1 POP JUMP JUMPDEST PUSH1 0x0 PUSH1 0x20 DUP3 ADD SWAP1 POP DUP2 DUP2 SUB PUSH1 0x0 DUP4 ADD MSTORE PUSH2 0x4851 DUP2 PUSH2 0x4815 JUMP JUMPDEST SWAP1 POP SWAP2 SWAP1 POP JUMP JUMPDEST PUSH32 0x4552433732315061757361626C653A20746F6B656E207472616E736665722077 PUSH1 0x0 DUP3 ADD MSTORE PUSH32 0x68696C6520706175736564000000000000000000000000000000000000000000 PUSH1 0x20 DUP3 ADD MSTORE POP JUMP JUMPDEST PUSH1 0x0 PUSH2 0x48B4 PUSH1 0x2B DUP4 PUSH2 0x2F10 JUMP JUMPDEST SWAP2 POP PUSH2 0x48BF DUP3 PUSH2 0x4858 JUMP JUMPDEST PUSH1 0x40 DUP3 ADD SWAP1 POP SWAP2 SWAP1 POP JUMP JUMPDEST PUSH1 0x0 PUSH1 0x20 DUP3 ADD SWAP1 POP DUP2 DUP2 SUB PUSH1 0x0 DUP4 ADD MSTORE PUSH2 0x48E3 DUP2 PUSH2 0x48A7 JUMP JUMPDEST SWAP1 POP SWAP2 SWAP1 POP JUMP JUMPDEST PUSH1 0x0 PUSH2 0x48F5 DUP3 PUSH2 0x2FB7 JUMP JUMPDEST SWAP2 POP PUSH2 0x4900 DUP4 PUSH2 0x2FB7 JUMP JUMPDEST SWAP3 POP DUP3 DUP3 SUB SWAP1 POP DUP2 DUP2 GT ISZERO PUSH2 0x4918 JUMPI PUSH2 0x4917 PUSH2 0x397B JUMP JUMPDEST JUMPDEST SWAP3 SWAP2 POP POP JUMP JUMPDEST PUSH32 0x4E487B7100000000000000000000000000000000000000000000000000000000 PUSH1 0x0 MSTORE PUSH1 0x31 PUSH1 0x4 MSTORE PUSH1 0x24 PUSH1 0x0 REVERT INVALID LOG2 PUSH5 0x6970667358 0x22 SLT KECCAK256 0xEE 0xB7 XOR SWAP12 0xE3 0xDD 0xE8 ADDRESS PUSH15 0xF2C7680009EB7BE898E95A76B0652A 0x2D SWAP13 0xCC 0xAF SWAP13 MOD 0xA9 DUP2 PUSH5 0x736F6C6343 STOP ADDMOD SLT STOP CALLER "},"methodIdentifiers":{"approve(address,uint256)":"095ea7b3","balanceOf(address)":"70a08231","baseTokenURI()":"d547cfb7","exists(uint256)":"4f558e79","forwardERC20s(address,uint256)":"9727151a","getApproved(uint256)":"081812fc","getBaseURI()":"714c5398","getTokens(address)":"450efe21","isApprovedForAll(address,address)":"e985e9c5","mintTokenId(address,uint256)":"32761d16","minterAddress()":"34d722c9","name()":"06fdde03","numMinted()":"d52079b4","owner()":"8da5cb5b","ownerOf(uint256)":"6352211e","pauseContract()":"439766ce","paused()":"5c975abb","renounceOwnership()":"715018a6","safeTransferFrom(address,address,uint256)":"42842e0e","safeTransferFrom(address,address,uint256,bytes)":"b88d4fde","setApprovalForAll(address,bool)":"a22cb465","setBaseURI(string)":"55f804b3","setMinter(address)":"fca3b5aa","supportsInterface(bytes4)":"01ffc9a7","symbol()":"95d89b41","tokenByIndex(uint256)":"4f6ccce7","tokenOfOwnerByIndex(address,uint256)":"2f745c59","tokenURI(uint256)":"c87b56dd","totalSupply()":"18160ddd","transferFrom(address,address,uint256)":"23b872dd","transferOwnership(address)":"f2fde38b","unpauseContract()":"b33712c5","withdrawAll()":"853828b6"}}}}}