{"contracts/Item.sol":{"Item":{"abi":[{"inputs":[],"stateMutability":"nonpayable","type":"constructor"},{"anonymous":false,"inputs":[{"indexed":true,"internalType":"address","name":"owner","type":"address"},{"indexed":true,"internalType":"address","name":"approved","type":"address"},{"indexed":true,"internalType":"uint256","name":"tokenId","type":"uint256"}],"name":"Approval","type":"event"},{"anonymous":false,"inputs":[{"indexed":true,"internalType":"address","name":"owner","type":"address"},{"indexed":true,"internalType":"address","name":"operator","type":"address"},{"indexed":false,"internalType":"bool","name":"approved","type":"bool"}],"name":"ApprovalForAll","type":"event"},{"anonymous":false,"inputs":[{"indexed":true,"internalType":"address","name":"previousOwner","type":"address"},{"indexed":true,"internalType":"address","name":"newOwner","type":"address"}],"name":"OwnershipTransferred","type":"event"},{"anonymous":false,"inputs":[{"indexed":true,"internalType":"address","name":"from","type":"address"},{"indexed":true,"internalType":"address","name":"to","type":"address"},{"indexed":true,"internalType":"uint256","name":"tokenId","type":"uint256"}],"name":"Transfer","type":"event"},{"inputs":[{"internalType":"address","name":"to","type":"address"},{"internalType":"uint256","name":"tokenId","type":"uint256"}],"name":"approve","outputs":[],"stateMutability":"nonpayable","type":"function"},{"inputs":[{"internalType":"address","name":"owner","type":"address"}],"name":"balanceOf","outputs":[{"internalType":"uint256","name":"","type":"uint256"}],"stateMutability":"view","type":"function"},{"inputs":[],"name":"baseTokenURI","outputs":[{"internalType":"string","name":"","type":"string"}],"stateMutability":"view","type":"function"},{"inputs":[{"internalType":"uint256","name":"tokenId","type":"uint256"}],"name":"getApproved","outputs":[{"internalType":"address","name":"","type":"address"}],"stateMutability":"view","type":"function"},{"inputs":[],"name":"getBaseURI","outputs":[{"internalType":"string","name":"","type":"string"}],"stateMutability":"view","type":"function"},{"inputs":[{"internalType":"bytes32","name":"_messageHash","type":"bytes32"}],"name":"getEthSignedMessageHash","outputs":[{"internalType":"bytes32","name":"","type":"bytes32"}],"stateMutability":"pure","type":"function"},{"inputs":[{"internalType":"string","name":"_message","type":"string"}],"name":"getMessageHash","outputs":[{"internalType":"bytes32","name":"","type":"bytes32"}],"stateMutability":"pure","type":"function"},{"inputs":[],"name":"getSigner","outputs":[{"internalType":"address","name":"","type":"address"}],"stateMutability":"view","type":"function"},{"inputs":[{"internalType":"address","name":"owner","type":"address"},{"internalType":"address","name":"operator","type":"address"}],"name":"isApprovedForAll","outputs":[{"internalType":"bool","name":"","type":"bool"}],"stateMutability":"view","type":"function"},{"inputs":[],"name":"name","outputs":[{"internalType":"string","name":"","type":"string"}],"stateMutability":"view","type":"function"},{"inputs":[],"name":"owner","outputs":[{"internalType":"address","name":"","type":"address"}],"stateMutability":"view","type":"function"},{"inputs":[{"internalType":"uint256[]","name":"tokenIds","type":"uint256[]"},{"internalType":"address[]","name":"recipients","type":"address[]"}],"name":"ownerMint","outputs":[],"stateMutability":"nonpayable","type":"function"},{"inputs":[{"internalType":"uint256","name":"tokenId","type":"uint256"}],"name":"ownerOf","outputs":[{"internalType":"address","name":"","type":"address"}],"stateMutability":"view","type":"function"},{"inputs":[{"internalType":"bytes32","name":"_ethSignedMessageHash","type":"bytes32"},{"internalType":"bytes","name":"_signature","type":"bytes"}],"name":"recover","outputs":[{"internalType":"address","name":"","type":"address"}],"stateMutability":"pure","type":"function"},{"inputs":[],"name":"renounceOwnership","outputs":[],"stateMutability":"nonpayable","type":"function"},{"inputs":[{"internalType":"address","name":"from","type":"address"},{"internalType":"address","name":"to","type":"address"},{"internalType":"uint256","name":"tokenId","type":"uint256"}],"name":"safeTransferFrom","outputs":[],"stateMutability":"nonpayable","type":"function"},{"inputs":[{"internalType":"address","name":"from","type":"address"},{"internalType":"address","name":"to","type":"address"},{"internalType":"uint256","name":"tokenId","type":"uint256"},{"internalType":"bytes","name":"data","type":"bytes"}],"name":"safeTransferFrom","outputs":[],"stateMutability":"nonpayable","type":"function"},{"inputs":[{"internalType":"address","name":"operator","type":"address"},{"internalType":"bool","name":"approved","type":"bool"}],"name":"setApprovalForAll","outputs":[],"stateMutability":"nonpayable","type":"function"},{"inputs":[{"internalType":"string","name":"newBaseURI","type":"string"}],"name":"setBaseURI","outputs":[],"stateMutability":"nonpayable","type":"function"},{"inputs":[{"internalType":"address","name":"_signer","type":"address"}],"name":"setSigner","outputs":[],"stateMutability":"nonpayable","type":"function"},{"inputs":[],"name":"signer","outputs":[{"internalType":"address","name":"","type":"address"}],"stateMutability":"view","type":"function"},{"inputs":[{"internalType":"bytes4","name":"interfaceId","type":"bytes4"}],"name":"supportsInterface","outputs":[{"internalType":"bool","name":"","type":"bool"}],"stateMutability":"view","type":"function"},{"inputs":[],"name":"symbol","outputs":[{"internalType":"string","name":"","type":"string"}],"stateMutability":"view","type":"function"},{"inputs":[{"internalType":"uint256","name":"tokenId","type":"uint256"}],"name":"tokenURI","outputs":[{"internalType":"string","name":"","type":"string"}],"stateMutability":"view","type":"function"},{"inputs":[{"internalType":"address","name":"from","type":"address"},{"internalType":"address","name":"to","type":"address"},{"internalType":"uint256","name":"tokenId","type":"uint256"}],"name":"transferFrom","outputs":[],"stateMutability":"nonpayable","type":"function"},{"inputs":[{"internalType":"address","name":"newOwner","type":"address"}],"name":"transferOwnership","outputs":[],"stateMutability":"nonpayable","type":"function"},{"inputs":[{"internalType":"address","name":"_signer","type":"address"},{"internalType":"string","name":"_message","type":"string"},{"internalType":"bytes","name":"_signature","type":"bytes"}],"name":"verify","outputs":[{"internalType":"bool","name":"","type":"bool"}],"stateMutability":"pure","type":"function"},{"inputs":[{"internalType":"string","name":"_message","type":"string"},{"internalType":"bytes","name":"_signature","type":"bytes"},{"internalType":"address","name":"to","type":"address"},{"internalType":"uint256","name":"tokenId","type":"uint256"}],"name":"verifyAndMint","outputs":[],"stateMutability":"nonpayable","type":"function"}],"evm":{"bytecode":{"linkReferences":{},"object":"60806040523480156200001157600080fd5b506040518060400160405280600481526020017f4974656d000000000000000000000000000000000000000000000000000000008152506040518060400160405280600381526020017f49544d000000000000000000000000000000000000000000000000000000000081525081600090816200008f9190620004e9565b508060019081620000a19190620004e9565b505050620000c4620000b86200019e60201b60201c565b620001a660201b60201c565b620000e0673067ef4765fbc09a60c01b6200026c60201b60201c565b620000fc674bb2dce6d525e43b60c01b6200026c60201b60201c565b730d72fd549214eb53cc241f400b147364e926e15b600760006101000a81548173ffffffffffffffffffffffffffffffffffffffff021916908373ffffffffffffffffffffffffffffffffffffffff1602179055506200016d678a3cdd294e7c588a60c01b6200026c60201b60201c565b604051806060016040528060338152602001620046546033913960089081620001979190620004e9565b50620005d0565b600033905090565b6000600660009054906101000a900473ffffffffffffffffffffffffffffffffffffffff16905081600660006101000a81548173ffffffffffffffffffffffffffffffffffffffff021916908373ffffffffffffffffffffffffffffffffffffffff1602179055508173ffffffffffffffffffffffffffffffffffffffff168173ffffffffffffffffffffffffffffffffffffffff167f8be0079c531659141344cd1fd0a4f28419497f9722a3daafe3b4186f6b6457e060405160405180910390a35050565b50565b600081519050919050565b7f4e487b7100000000000000000000000000000000000000000000000000000000600052604160045260246000fd5b7f4e487b7100000000000000000000000000000000000000000000000000000000600052602260045260246000fd5b60006002820490506001821680620002f157607f821691505b602082108103620003075762000306620002a9565b5b50919050565b60008190508160005260206000209050919050565b60006020601f8301049050919050565b600082821b905092915050565b600060088302620003717fffffffffffffffffffffffffffffffffffffffffffffffffffffffffffffffff8262000332565b6200037d868362000332565b95508019841693508086168417925050509392505050565b6000819050919050565b6000819050919050565b6000620003ca620003c4620003be8462000395565b6200039f565b62000395565b9050919050565b6000819050919050565b620003e683620003a9565b620003fe620003f582620003d1565b8484546200033f565b825550505050565b600090565b6200041562000406565b62000422818484620003db565b505050565b5b818110156200044a576200043e6000826200040b565b60018101905062000428565b5050565b601f821115620004995762000463816200030d565b6200046e8462000322565b810160208510156200047e578190505b620004966200048d8562000322565b83018262000427565b50505b505050565b600082821c905092915050565b6000620004be600019846008026200049e565b1980831691505092915050565b6000620004d98383620004ab565b9150826002028217905092915050565b620004f4826200026f565b67ffffffffffffffff81111562000510576200050f6200027a565b5b6200051c8254620002d8565b620005298282856200044e565b600060209050601f8311600181146200056157600084156200054c578287015190505b620005588582620004cb565b865550620005c8565b601f19841662000571866200030d565b60005b828110156200059b5784890151825560018201915060208501945060208101905062000574565b86831015620005bb5784890151620005b7601f891682620004ab565b8355505b6001600288020188555050505b505050505050565b61407480620005e06000396000f3fe608060405234801561001057600080fd5b50600436106101c45760003560e01c806370a08231116100f9578063b446f3b211610097578063d547cfb711610071578063d547cfb714610503578063e985e9c514610521578063f2fde38b14610551578063fa5408011461056d576101c4565b8063b446f3b214610487578063b88d4fde146104b7578063c87b56dd146104d3576101c4565b80637ac3c02f116100d35780637ac3c02f146104115780638da5cb5b1461042f57806395d89b411461044d578063a22cb4651461046b576101c4565b806370a08231146103b9578063714c5398146103e9578063715018a614610407576101c4565b80632dd34f0f116101665780636352211e116101405780636352211e14610335578063654886be146103655780636c19e783146103815780636e9849dd1461039d576101c4565b80632dd34f0f146102cd57806342842e0e146102fd57806355f804b314610319576101c4565b8063095ea7b3116101a2578063095ea7b31461024757806319045a2514610263578063238ac9331461029357806323b872dd146102b1576101c4565b806301ffc9a7146101c957806306fdde03146101f9578063081812fc14610217575b600080fd5b6101e360048036038101906101de9190612683565b61059d565b6040516101f091906126cb565b60405180910390f35b61020161067f565b60405161020e9190612776565b60405180910390f35b610231600480360381019061022c91906127ce565b610711565b60405161023e919061283c565b60405180910390f35b610261600480360381019061025c9190612883565b610757565b005b61027d60048036038101906102789190612a2e565b61086e565b60405161028a919061283c565b60405180910390f35b61029b610942565b6040516102a8919061283c565b60405180910390f35b6102cb60048036038101906102c69190612a8a565b610968565b005b6102e760048036038101906102e29190612b7e565b6109c8565b6040516102f491906126cb565b60405180910390f35b61031760048036038101906103129190612a8a565b610ab3565b005b610333600480360381019061032e9190612c69565b610ad3565b005b61034f600480360381019061034a91906127ce565b610b41565b60405161035c919061283c565b60405180910390f35b61037f600480360381019061037a9190612cb6565b610bc7565b005b61039b60048036038101906103969190612d55565b610d49565b005b6103b760048036038101906103b29190612e2e565b610de5565b005b6103d360048036038101906103ce9190612d55565b610f81565b6040516103e09190612ebe565b60405180910390f35b6103f1611038565b6040516103fe9190612776565b60405180910390f35b61040f611106565b005b61041961111a565b604051610426919061283c565b60405180910390f35b610437611180565b604051610444919061283c565b60405180910390f35b6104556111aa565b6040516104629190612776565b60405180910390f35b61048560048036038101906104809190612f05565b61123c565b005b6104a1600480360381019061049c9190612f45565b611252565b6040516104ae9190612f9d565b60405180910390f35b6104d160048036038101906104cc9190612fb8565b6112be565b005b6104ed60048036038101906104e891906127ce565b611320565b6040516104fa9190612776565b60405180910390f35b61050b611428565b6040516105189190612776565b60405180910390f35b61053b6004803603810190610536919061303b565b6114b6565b60405161054891906126cb565b60405180910390f35b61056b60048036038101906105669190612d55565b61154a565b005b6105876004803603810190610582919061307b565b6115cd565b6040516105949190612f9d565b60405180910390f35b60007f80ac58cd000000000000000000000000000000000000000000000000000000007bffffffffffffffffffffffffffffffffffffffffffffffffffffffff1916827bffffffffffffffffffffffffffffffffffffffffffffffffffffffff1916148061066857507f5b5e139f000000000000000000000000000000000000000000000000000000007bffffffffffffffffffffffffffffffffffffffffffffffffffffffff1916827bffffffffffffffffffffffffffffffffffffffffffffffffffffffff1916145b80610678575061067782611639565b5b9050919050565b60606000805461068e906130d7565b80601f01602080910402602001604051908101604052809291908181526020018280546106ba906130d7565b80156107075780601f106106dc57610100808354040283529160200191610707565b820191906000526020600020905b8154815290600101906020018083116106ea57829003601f168201915b5050505050905090565b600061071c826116a3565b6004600083815260200190815260200160002060009054906101000a900473ffffffffffffffffffffffffffffffffffffffff169050919050565b600061076282610b41565b90508073ffffffffffffffffffffffffffffffffffffffff168373ffffffffffffffffffffffffffffffffffffffff16036107d2576040517f08c379a00000000000000000000000000000000000000000000000000000000081526004016107c99061317a565b60405180910390fd5b8073ffffffffffffffffffffffffffffffffffffffff166107f16116ee565b73ffffffffffffffffffffffffffffffffffffffff161480610820575061081f8161081a6116ee565b6114b6565b5b61085f576040517f08c379a00000000000000000000000000000000000000000000000000000000081526004016108569061320c565b60405180910390fd5b61086983836116f6565b505050565b6000610884672c7197cfb0c886b860c01b6117af565b610898672baa3ed9ae717f1260c01b6117af565b6108ac67b0b5b34fc7963aed60c01b6117af565b60008060006108ba856117b2565b9250925092506108d46752bb854342615f9760c01b6117af565b6108e8671a5272060ae344b460c01b6117af565b6001868285856040516000815260200160405260405161090b9493929190613248565b6020604051602081039080840390855afa15801561092d573d6000803e3d6000fd5b50505060206040510351935050505092915050565b600760009054906101000a900473ffffffffffffffffffffffffffffffffffffffff1681565b6109796109736116ee565b82611892565b6109b8576040517f08c379a00000000000000000000000000000000000000000000000000000000081526004016109af906132ff565b60405180910390fd5b6109c3838383611927565b505050565b60006109de6721099bb7f96ee6f760c01b6117af565b6109f267dad16ceb9283b2c260c01b6117af565b610a06678cb10e462183b60f60c01b6117af565b6000610a1184611252565b9050610a276779c94505b7e78cd960c01b6117af565b610a3b6770ec63df878f38d160c01b6117af565b6000610a46826115cd565b9050610a5c67ee7b58264a269a8460c01b6117af565b610a70678b4016f88e9f0ef160c01b6117af565b8573ffffffffffffffffffffffffffffffffffffffff16610a91828661086e565b73ffffffffffffffffffffffffffffffffffffffff1614925050509392505050565b610ace838383604051806020016040528060008152506112be565b505050565b610ae767d90e419df5b72dbc60c01b6117af565b610aef611c20565b610b03677a09808e66d8281660c01b6117af565b610b17674544a43d23f34c1d60c01b6117af565b610b2b678764f6a7b1d7b55560c01b6117af565b818160089182610b3c9291906134d6565b505050565b600080610b4d83611c9e565b9050600073ffffffffffffffffffffffffffffffffffffffff168173ffffffffffffffffffffffffffffffffffffffff1603610bbe576040517f08c379a0000000000000000000000000000000000000000000000000000000008152600401610bb5906135f2565b60405180910390fd5b80915050919050565b610bdb6786ebecf4988a8e5b60c01b6117af565b610bef6720a2e73717905d5a60c01b6117af565b610c0367749884f6b561cfd960c01b6117af565b610c1767d16bdc82adbe2cba60c01b6117af565b600115153073ffffffffffffffffffffffffffffffffffffffff16632dd34f0f600760009054906101000a900473ffffffffffffffffffffffffffffffffffffffff1687876040518463ffffffff1660e01b8152600401610c7a93929190613667565b602060405180830381865afa158015610c97573d6000803e3d6000fd5b505050506040513d601f19601f82011682018060405250810190610cbb91906136c1565b151514610cfd576040517f08c379a0000000000000000000000000000000000000000000000000000000008152600401610cf49061373a565b60405180910390fd5b610d1167515a1adcf444abcc60c01b6117af565b610d2567835faef4e7c834e260c01b6117af565b610d39676cf5cbd127e4fd3760c01b6117af565b610d438282611cdb565b50505050565b610d5d67b52839da6ea1f50160c01b6117af565b610d65611c20565b610d7967f43b581f311cd4bb60c01b6117af565b610d8d671a03aea62438c37b60c01b6117af565b610da1675073ddde3a60e8cc60c01b6117af565b80600760006101000a81548173ffffffffffffffffffffffffffffffffffffffff021916908373ffffffffffffffffffffffffffffffffffffffff16021790555050565b610df96782404168b85d198160c01b6117af565b610e01611c20565b610e1567911a645a18d5d5f060c01b6117af565b610e2967d01d3a930647f4e360c01b6117af565b610e3d6713ad92cd81fe4bfb60c01b6117af565b610e51675f5b5d46907d4b1160c01b6117af565b610e65673700fc14afdec2a460c01b6117af565b818190508484905014610ead576040517f08c379a0000000000000000000000000000000000000000000000000000000008152600401610ea4906137a6565b60405180910390fd5b610ec167e679de81a50aa66e60c01b6117af565b610ed5676188a358bb4c14fa60c01b6117af565b610ee967659996fc801fc35560c01b6117af565b60005b82829050811015610f7a57610f0b67d04a9114cb2e2eae60c01b6117af565b610f1f67ef5f8d6337e3cb8960c01b6117af565b610f69838383818110610f3557610f346137c6565b5b9050602002016020810190610f4a9190612d55565b868684818110610f5d57610f5c6137c6565b5b90506020020135611cdb565b80610f7390613824565b9050610eec565b5050505050565b60008073ffffffffffffffffffffffffffffffffffffffff168273ffffffffffffffffffffffffffffffffffffffff1603610ff1576040517f08c379a0000000000000000000000000000000000000000000000000000000008152600401610fe8906138de565b60405180910390fd5b600360008373ffffffffffffffffffffffffffffffffffffffff1673ffffffffffffffffffffffffffffffffffffffff168152602001908152602001600020549050919050565b606061104e67c96a9ff1e7c5353860c01b6117af565b61106267875e08b5d384f1b560c01b6117af565b611076678d7c272ab1bbd54660c01b6117af565b60088054611083906130d7565b80601f01602080910402602001604051908101604052809291908181526020018280546110af906130d7565b80156110fc5780601f106110d1576101008083540402835291602001916110fc565b820191906000526020600020905b8154815290600101906020018083116110df57829003601f168201915b5050505050905090565b61110e611c20565b6111186000611cf9565b565b600061113067a7d19f30a9da84ac60c01b6117af565b611144671235b896817e2ce960c01b6117af565b61115867ba44ed99ffbea8f360c01b6117af565b600760009054906101000a900473ffffffffffffffffffffffffffffffffffffffff16905090565b6000600660009054906101000a900473ffffffffffffffffffffffffffffffffffffffff16905090565b6060600180546111b9906130d7565b80601f01602080910402602001604051908101604052809291908181526020018280546111e5906130d7565b80156112325780601f1061120757610100808354040283529160200191611232565b820191906000526020600020905b81548152906001019060200180831161121557829003601f168201915b5050505050905090565b61124e6112476116ee565b8383611dbf565b5050565b600061126867ed5e603dafde184160c01b6117af565b61127c67e7e4838f94e9f22b60c01b6117af565b6112906798ca6dd48a570ebf60c01b6117af565b816040516020016112a1919061393a565b604051602081830303815290604052805190602001209050919050565b6112cf6112c96116ee565b83611892565b61130e576040517f08c379a0000000000000000000000000000000000000000000000000000000008152600401611305906132ff565b60405180910390fd5b61131a84848484611f2b565b50505050565b60606113366737a60f955411c93c60c01b6117af565b61134a6770c4970a5c97db4560c01b6117af565b61135e674641e0f4f0ad0c8e60c01b6117af565b61137267c1731836d569246d60c01b6117af565b61137b82611f87565b6113ba576040517f08c379a00000000000000000000000000000000000000000000000000000000081526004016113b1906139c3565b60405180910390fd5b6113ce67a7d3f43cc1db3db260c01b6117af565b6113e26749a8ef2c042dfa8a60c01b6117af565b6113f667e4b99a4bae5ca15360c01b6117af565b600861140183611fc8565b604051602001611412929190613a66565b6040516020818303038152906040529050919050565b60088054611435906130d7565b80601f0160208091040260200160405190810160405280929190818152602001828054611461906130d7565b80156114ae5780601f10611483576101008083540402835291602001916114ae565b820191906000526020600020905b81548152906001019060200180831161149157829003601f168201915b505050505081565b6000600560008473ffffffffffffffffffffffffffffffffffffffff1673ffffffffffffffffffffffffffffffffffffffff16815260200190815260200160002060008373ffffffffffffffffffffffffffffffffffffffff1673ffffffffffffffffffffffffffffffffffffffff16815260200190815260200160002060009054906101000a900460ff16905092915050565b611552611c20565b600073ffffffffffffffffffffffffffffffffffffffff168173ffffffffffffffffffffffffffffffffffffffff16036115c1576040517f08c379a00000000000000000000000000000000000000000000000000000000081526004016115b890613afc565b60405180910390fd5b6115ca81611cf9565b50565b60006115e367b9d8c8f8c8bcfdd160c01b6117af565b6115f767c17e84e99e4c428760c01b6117af565b61160b678c9f55695a1e9efb60c01b6117af565b8160405160200161161c9190613b89565b604051602081830303815290604052805190602001209050919050565b60007f01ffc9a7000000000000000000000000000000000000000000000000000000007bffffffffffffffffffffffffffffffffffffffffffffffffffffffff1916827bffffffffffffffffffffffffffffffffffffffffffffffffffffffff1916149050919050565b6116ac81611f87565b6116eb576040517f08c379a00000000000000000000000000000000000000000000000000000000081526004016116e2906135f2565b60405180910390fd5b50565b600033905090565b816004600083815260200190815260200160002060006101000a81548173ffffffffffffffffffffffffffffffffffffffff021916908373ffffffffffffffffffffffffffffffffffffffff160217905550808273ffffffffffffffffffffffffffffffffffffffff1661176983610b41565b73ffffffffffffffffffffffffffffffffffffffff167f8c5be1e5ebec7d5bd14f71427d1e84f3dd0314c0f7b2291e5b200ac8c7c3b92560405160405180910390a45050565b50565b60008060006117cb67cd20313a7af67b0b60c01b6117af565b6117df67f560d406af3f259560c01b6117af565b6117f367077ce42475e14c3860c01b6117af565b611807677196bfb7f37b7ad560c01b6117af565b604184511461184b576040517f08c379a000000000000000000000000000000000000000000000000000000000815260040161184290613bfb565b60405180910390fd5b61185f6793094c3b9efa5ad860c01b6117af565b611873670e70e3dad9dd696460c01b6117af565b6020840151925060408401519150606084015160001a90509193909250565b60008061189e83610b41565b90508073ffffffffffffffffffffffffffffffffffffffff168473ffffffffffffffffffffffffffffffffffffffff1614806118e057506118df81856114b6565b5b8061191e57508373ffffffffffffffffffffffffffffffffffffffff1661190684610711565b73ffffffffffffffffffffffffffffffffffffffff16145b91505092915050565b8273ffffffffffffffffffffffffffffffffffffffff1661194782610b41565b73ffffffffffffffffffffffffffffffffffffffff161461199d576040517f08c379a000000000000000000000000000000000000000000000000000000000815260040161199490613c8d565b60405180910390fd5b600073ffffffffffffffffffffffffffffffffffffffff168273ffffffffffffffffffffffffffffffffffffffff1603611a0c576040517f08c379a0000000000000000000000000000000000000000000000000000000008152600401611a0390613d1f565b60405180910390fd5b611a198383836001612096565b8273ffffffffffffffffffffffffffffffffffffffff16611a3982610b41565b73ffffffffffffffffffffffffffffffffffffffff1614611a8f576040517f08c379a0000000000000000000000000000000000000000000000000000000008152600401611a8690613c8d565b60405180910390fd5b6004600082815260200190815260200160002060006101000a81549073ffffffffffffffffffffffffffffffffffffffff02191690556001600360008573ffffffffffffffffffffffffffffffffffffffff1673ffffffffffffffffffffffffffffffffffffffff168152602001908152602001600020600082825403925050819055506001600360008473ffffffffffffffffffffffffffffffffffffffff1673ffffffffffffffffffffffffffffffffffffffff16815260200190815260200160002060008282540192505081905550816002600083815260200190815260200160002060006101000a81548173ffffffffffffffffffffffffffffffffffffffff021916908373ffffffffffffffffffffffffffffffffffffffff160217905550808273ffffffffffffffffffffffffffffffffffffffff168473ffffffffffffffffffffffffffffffffffffffff167fddf252ad1be2c89b69c2b068fc378daa952ba7f163c4a11628f55a4df523b3ef60405160405180910390a4611c1b838383600161209c565b505050565b611c286116ee565b73ffffffffffffffffffffffffffffffffffffffff16611c46611180565b73ffffffffffffffffffffffffffffffffffffffff1614611c9c576040517f08c379a0000000000000000000000000000000000000000000000000000000008152600401611c9390613d8b565b60405180910390fd5b565b60006002600083815260200190815260200160002060009054906101000a900473ffffffffffffffffffffffffffffffffffffffff169050919050565b611cf58282604051806020016040528060008152506120a2565b5050565b6000600660009054906101000a900473ffffffffffffffffffffffffffffffffffffffff16905081600660006101000a81548173ffffffffffffffffffffffffffffffffffffffff021916908373ffffffffffffffffffffffffffffffffffffffff1602179055508173ffffffffffffffffffffffffffffffffffffffff168173ffffffffffffffffffffffffffffffffffffffff167f8be0079c531659141344cd1fd0a4f28419497f9722a3daafe3b4186f6b6457e060405160405180910390a35050565b8173ffffffffffffffffffffffffffffffffffffffff168373ffffffffffffffffffffffffffffffffffffffff1603611e2d576040517f08c379a0000000000000000000000000000000000000000000000000000000008152600401611e2490613df7565b60405180910390fd5b80600560008573ffffffffffffffffffffffffffffffffffffffff1673ffffffffffffffffffffffffffffffffffffffff16815260200190815260200160002060008473ffffffffffffffffffffffffffffffffffffffff1673ffffffffffffffffffffffffffffffffffffffff16815260200190815260200160002060006101000a81548160ff0219169083151502179055508173ffffffffffffffffffffffffffffffffffffffff168373ffffffffffffffffffffffffffffffffffffffff167f17307eab39ab6107e8899845ad3d59bd9653f200f220920489ca2b5937696c3183604051611f1e91906126cb565b60405180910390a3505050565b611f36848484611927565b611f42848484846120fd565b611f81576040517f08c379a0000000000000000000000000000000000000000000000000000000008152600401611f7890613e89565b60405180910390fd5b50505050565b60008073ffffffffffffffffffffffffffffffffffffffff16611fa983611c9e565b73ffffffffffffffffffffffffffffffffffffffff1614159050919050565b606060006001611fd784612284565b01905060008167ffffffffffffffff811115611ff657611ff5612903565b5b6040519080825280601f01601f1916602001820160405280156120285781602001600182028036833780820191505090505b509050600082602001820190505b60011561208b578080600190039150507f3031323334353637383961626364656600000000000000000000000000000000600a86061a8153600a858161207f5761207e613ea9565b5b04945060008503612036575b819350505050919050565b50505050565b50505050565b6120ac83836123d7565b6120b960008484846120fd565b6120f8576040517f08c379a00000000000000000000000000000000000000000000000000000000081526004016120ef90613e89565b60405180910390fd5b505050565b600061211e8473ffffffffffffffffffffffffffffffffffffffff166125f4565b15612277578373ffffffffffffffffffffffffffffffffffffffff1663150b7a026121476116ee565b8786866040518563ffffffff1660e01b81526004016121699493929190613ed8565b6020604051808303816000875af19250505080156121a557506040513d601f19601f820116820180604052508101906121a29190613f39565b60015b612227573d80600081146121d5576040519150601f19603f3d011682016040523d82523d6000602084013e6121da565b606091505b50600081510361221f576040517f08c379a000000000000000000000000000000000000000000000000000000000815260040161221690613e89565b60405180910390fd5b805181602001fd5b63150b7a0260e01b7bffffffffffffffffffffffffffffffffffffffffffffffffffffffff1916817bffffffffffffffffffffffffffffffffffffffffffffffffffffffff19161491505061227c565b600190505b949350505050565b600080600090507a184f03e93ff9f4daa797ed6e38ed64bf6a1f01000000000000000083106122e2577a184f03e93ff9f4daa797ed6e38ed64bf6a1f01000000000000000083816122d8576122d7613ea9565b5b0492506040810190505b6d04ee2d6d415b85acef8100000000831061231f576d04ee2d6d415b85acef8100000000838161231557612314613ea9565b5b0492506020810190505b662386f26fc10000831061234e57662386f26fc10000838161234457612343613ea9565b5b0492506010810190505b6305f5e1008310612377576305f5e100838161236d5761236c613ea9565b5b0492506008810190505b612710831061239c57612710838161239257612391613ea9565b5b0492506004810190505b606483106123bf57606483816123b5576123b4613ea9565b5b0492506002810190505b600a83106123ce576001810190505b80915050919050565b600073ffffffffffffffffffffffffffffffffffffffff168273ffffffffffffffffffffffffffffffffffffffff1603612446576040517f08c379a000000000000000000000000000000000000000000000000000000000815260040161243d90613fb2565b60405180910390fd5b61244f81611f87565b1561248f576040517f08c379a00000000000000000000000000000000000000000000000000000000081526004016124869061401e565b60405180910390fd5b61249d600083836001612096565b6124a681611f87565b156124e6576040517f08c379a00000000000000000000000000000000000000000000000000000000081526004016124dd9061401e565b60405180910390fd5b6001600360008473ffffffffffffffffffffffffffffffffffffffff1673ffffffffffffffffffffffffffffffffffffffff16815260200190815260200160002060008282540192505081905550816002600083815260200190815260200160002060006101000a81548173ffffffffffffffffffffffffffffffffffffffff021916908373ffffffffffffffffffffffffffffffffffffffff160217905550808273ffffffffffffffffffffffffffffffffffffffff16600073ffffffffffffffffffffffffffffffffffffffff167fddf252ad1be2c89b69c2b068fc378daa952ba7f163c4a11628f55a4df523b3ef60405160405180910390a46125f060008383600161209c565b5050565b6000808273ffffffffffffffffffffffffffffffffffffffff163b119050919050565b6000604051905090565b600080fd5b600080fd5b60007fffffffff0000000000000000000000000000000000000000000000000000000082169050919050565b6126608161262b565b811461266b57600080fd5b50565b60008135905061267d81612657565b92915050565b60006020828403121561269957612698612621565b5b60006126a78482850161266e565b91505092915050565b60008115159050919050565b6126c5816126b0565b82525050565b60006020820190506126e060008301846126bc565b92915050565b600081519050919050565b600082825260208201905092915050565b60005b83811015612720578082015181840152602081019050612705565b60008484015250505050565b6000601f19601f8301169050919050565b6000612748826126e6565b61275281856126f1565b9350612762818560208601612702565b61276b8161272c565b840191505092915050565b60006020820190508181036000830152612790818461273d565b905092915050565b6000819050919050565b6127ab81612798565b81146127b657600080fd5b50565b6000813590506127c8816127a2565b92915050565b6000602082840312156127e4576127e3612621565b5b60006127f2848285016127b9565b91505092915050565b600073ffffffffffffffffffffffffffffffffffffffff82169050919050565b6000612826826127fb565b9050919050565b6128368161281b565b82525050565b6000602082019050612851600083018461282d565b92915050565b6128608161281b565b811461286b57600080fd5b50565b60008135905061287d81612857565b92915050565b6000806040838503121561289a57612899612621565b5b60006128a88582860161286e565b92505060206128b9858286016127b9565b9150509250929050565b6000819050919050565b6128d6816128c3565b81146128e157600080fd5b50565b6000813590506128f3816128cd565b92915050565b600080fd5b600080fd5b7f4e487b7100000000000000000000000000000000000000000000000000000000600052604160045260246000fd5b61293b8261272c565b810181811067ffffffffffffffff8211171561295a57612959612903565b5b80604052505050565b600061296d612617565b90506129798282612932565b919050565b600067ffffffffffffffff82111561299957612998612903565b5b6129a28261272c565b9050602081019050919050565b82818337600083830152505050565b60006129d16129cc8461297e565b612963565b9050828152602081018484840111156129ed576129ec6128fe565b5b6129f88482856129af565b509392505050565b600082601f830112612a1557612a146128f9565b5b8135612a258482602086016129be565b91505092915050565b60008060408385031215612a4557612a44612621565b5b6000612a53858286016128e4565b925050602083013567ffffffffffffffff811115612a7457612a73612626565b5b612a8085828601612a00565b9150509250929050565b600080600060608486031215612aa357612aa2612621565b5b6000612ab18682870161286e565b9350506020612ac28682870161286e565b9250506040612ad3868287016127b9565b9150509250925092565b600067ffffffffffffffff821115612af857612af7612903565b5b612b018261272c565b9050602081019050919050565b6000612b21612b1c84612add565b612963565b905082815260208101848484011115612b3d57612b3c6128fe565b5b612b488482856129af565b509392505050565b600082601f830112612b6557612b646128f9565b5b8135612b75848260208601612b0e565b91505092915050565b600080600060608486031215612b9757612b96612621565b5b6000612ba58682870161286e565b935050602084013567ffffffffffffffff811115612bc657612bc5612626565b5b612bd286828701612b50565b925050604084013567ffffffffffffffff811115612bf357612bf2612626565b5b612bff86828701612a00565b9150509250925092565b600080fd5b600080fd5b60008083601f840112612c2957612c286128f9565b5b8235905067ffffffffffffffff811115612c4657612c45612c09565b5b602083019150836001820283011115612c6257612c61612c0e565b5b9250929050565b60008060208385031215612c8057612c7f612621565b5b600083013567ffffffffffffffff811115612c9e57612c9d612626565b5b612caa85828601612c13565b92509250509250929050565b60008060008060808587031215612cd057612ccf612621565b5b600085013567ffffffffffffffff811115612cee57612ced612626565b5b612cfa87828801612b50565b945050602085013567ffffffffffffffff811115612d1b57612d1a612626565b5b612d2787828801612a00565b9350506040612d388782880161286e565b9250506060612d49878288016127b9565b91505092959194509250565b600060208284031215612d6b57612d6a612621565b5b6000612d798482850161286e565b91505092915050565b60008083601f840112612d9857612d976128f9565b5b8235905067ffffffffffffffff811115612db557612db4612c09565b5b602083019150836020820283011115612dd157612dd0612c0e565b5b9250929050565b60008083601f840112612dee57612ded6128f9565b5b8235905067ffffffffffffffff811115612e0b57612e0a612c09565b5b602083019150836020820283011115612e2757612e26612c0e565b5b9250929050565b60008060008060408587031215612e4857612e47612621565b5b600085013567ffffffffffffffff811115612e6657612e65612626565b5b612e7287828801612d82565b9450945050602085013567ffffffffffffffff811115612e9557612e94612626565b5b612ea187828801612dd8565b925092505092959194509250565b612eb881612798565b82525050565b6000602082019050612ed36000830184612eaf565b92915050565b612ee2816126b0565b8114612eed57600080fd5b50565b600081359050612eff81612ed9565b92915050565b60008060408385031215612f1c57612f1b612621565b5b6000612f2a8582860161286e565b9250506020612f3b85828601612ef0565b9150509250929050565b600060208284031215612f5b57612f5a612621565b5b600082013567ffffffffffffffff811115612f7957612f78612626565b5b612f8584828501612b50565b91505092915050565b612f97816128c3565b82525050565b6000602082019050612fb26000830184612f8e565b92915050565b60008060008060808587031215612fd257612fd1612621565b5b6000612fe08782880161286e565b9450506020612ff18782880161286e565b9350506040613002878288016127b9565b925050606085013567ffffffffffffffff81111561302357613022612626565b5b61302f87828801612a00565b91505092959194509250565b6000806040838503121561305257613051612621565b5b60006130608582860161286e565b92505060206130718582860161286e565b9150509250929050565b60006020828403121561309157613090612621565b5b600061309f848285016128e4565b91505092915050565b7f4e487b7100000000000000000000000000000000000000000000000000000000600052602260045260246000fd5b600060028204905060018216806130ef57607f821691505b602082108103613102576131016130a8565b5b50919050565b7f4552433732313a20617070726f76616c20746f2063757272656e74206f776e6560008201527f7200000000000000000000000000000000000000000000000000000000000000602082015250565b60006131646021836126f1565b915061316f82613108565b604082019050919050565b6000602082019050818103600083015261319381613157565b9050919050565b7f4552433732313a20617070726f76652063616c6c6572206973206e6f7420746f60008201527f6b656e206f776e6572206f7220617070726f76656420666f7220616c6c000000602082015250565b60006131f6603d836126f1565b91506132018261319a565b604082019050919050565b60006020820190508181036000830152613225816131e9565b9050919050565b600060ff82169050919050565b6132428161322c565b82525050565b600060808201905061325d6000830187612f8e565b61326a6020830186613239565b6132776040830185612f8e565b6132846060830184612f8e565b95945050505050565b7f4552433732313a2063616c6c6572206973206e6f7420746f6b656e206f776e6560008201527f72206f7220617070726f76656400000000000000000000000000000000000000602082015250565b60006132e9602d836126f1565b91506132f48261328d565b604082019050919050565b60006020820190508181036000830152613318816132dc565b9050919050565b600082905092915050565b60008190508160005260206000209050919050565b60006020601f8301049050919050565b600082821b905092915050565b60006008830261338c7fffffffffffffffffffffffffffffffffffffffffffffffffffffffffffffffff8261334f565b613396868361334f565b95508019841693508086168417925050509392505050565b6000819050919050565b60006133d36133ce6133c984612798565b6133ae565b612798565b9050919050565b6000819050919050565b6133ed836133b8565b6134016133f9826133da565b84845461335c565b825550505050565b600090565b613416613409565b6134218184846133e4565b505050565b5b818110156134455761343a60008261340e565b600181019050613427565b5050565b601f82111561348a5761345b8161332a565b6134648461333f565b81016020851015613473578190505b61348761347f8561333f565b830182613426565b50505b505050565b600082821c905092915050565b60006134ad6000198460080261348f565b1980831691505092915050565b60006134c6838361349c565b9150826002028217905092915050565b6134e0838361331f565b67ffffffffffffffff8111156134f9576134f8612903565b5b61350382546130d7565b61350e828285613449565b6000601f83116001811461353d576000841561352b578287013590505b61353585826134ba565b86555061359d565b601f19841661354b8661332a565b60005b828110156135735784890135825560018201915060208501945060208101905061354e565b86831015613590578489013561358c601f89168261349c565b8355505b6001600288020188555050505b50505050505050565b7f4552433732313a20696e76616c696420746f6b656e2049440000000000000000600082015250565b60006135dc6018836126f1565b91506135e7826135a6565b602082019050919050565b6000602082019050818103600083015261360b816135cf565b9050919050565b600081519050919050565b600082825260208201905092915050565b600061363982613612565b613643818561361d565b9350613653818560208601612702565b61365c8161272c565b840191505092915050565b600060608201905061367c600083018661282d565b818103602083015261368e818561273d565b905081810360408301526136a2818461362e565b9050949350505050565b6000815190506136bb81612ed9565b92915050565b6000602082840312156136d7576136d6612621565b5b60006136e5848285016136ac565b91505092915050565b7f496e76616c6964207369676e6572000000000000000000000000000000000000600082015250565b6000613724600e836126f1565b915061372f826136ee565b602082019050919050565b6000602082019050818103600083015261375381613717565b9050919050565b7f4172726179732073686f756c642068617665207468652073616d652073697a65600082015250565b60006137906020836126f1565b915061379b8261375a565b602082019050919050565b600060208201905081810360008301526137bf81613783565b9050919050565b7f4e487b7100000000000000000000000000000000000000000000000000000000600052603260045260246000fd5b7f4e487b7100000000000000000000000000000000000000000000000000000000600052601160045260246000fd5b600061382f82612798565b91507fffffffffffffffffffffffffffffffffffffffffffffffffffffffffffffffff8203613861576138606137f5565b5b600182019050919050565b7f4552433732313a2061646472657373207a65726f206973206e6f74206120766160008201527f6c6964206f776e65720000000000000000000000000000000000000000000000602082015250565b60006138c86029836126f1565b91506138d38261386c565b604082019050919050565b600060208201905081810360008301526138f7816138bb565b9050919050565b600081905092915050565b6000613914826126e6565b61391e81856138fe565b935061392e818560208601612702565b80840191505092915050565b60006139468284613909565b915081905092915050565b7f4552433732314d657461646174613a2055524920717565727920666f72206e6f60008201527f6e6578697374656e7420746f6b656e0000000000000000000000000000000000602082015250565b60006139ad602f836126f1565b91506139b882613951565b604082019050919050565b600060208201905081810360008301526139dc816139a0565b9050919050565b600081546139f0816130d7565b6139fa81866138fe565b94506001821660008114613a155760018114613a2a57613a5d565b60ff1983168652811515820286019350613a5d565b613a338561332a565b60005b83811015613a5557815481890152600182019150602081019050613a36565b838801955050505b50505092915050565b6000613a7282856139e3565b9150613a7e8284613909565b91508190509392505050565b7f4f776e61626c653a206e6577206f776e657220697320746865207a65726f206160008201527f6464726573730000000000000000000000000000000000000000000000000000602082015250565b6000613ae66026836126f1565b9150613af182613a8a565b604082019050919050565b60006020820190508181036000830152613b1581613ad9565b9050919050565b7f19457468657265756d205369676e6564204d6573736167653a0a333200000000600082015250565b6000613b52601c836138fe565b9150613b5d82613b1c565b601c82019050919050565b6000819050919050565b613b83613b7e826128c3565b613b68565b82525050565b6000613b9482613b45565b9150613ba08284613b72565b60208201915081905092915050565b7f496e76616c6964207369676e6174757265206c656e6774682100000000000000600082015250565b6000613be56019836126f1565b9150613bf082613baf565b602082019050919050565b60006020820190508181036000830152613c1481613bd8565b9050919050565b7f4552433732313a207472616e736665722066726f6d20696e636f72726563742060008201527f6f776e6572000000000000000000000000000000000000000000000000000000602082015250565b6000613c776025836126f1565b9150613c8282613c1b565b604082019050919050565b60006020820190508181036000830152613ca681613c6a565b9050919050565b7f4552433732313a207472616e7366657220746f20746865207a65726f2061646460008201527f7265737300000000000000000000000000000000000000000000000000000000602082015250565b6000613d096024836126f1565b9150613d1482613cad565b604082019050919050565b60006020820190508181036000830152613d3881613cfc565b9050919050565b7f4f776e61626c653a2063616c6c6572206973206e6f7420746865206f776e6572600082015250565b6000613d756020836126f1565b9150613d8082613d3f565b602082019050919050565b60006020820190508181036000830152613da481613d68565b9050919050565b7f4552433732313a20617070726f766520746f2063616c6c657200000000000000600082015250565b6000613de16019836126f1565b9150613dec82613dab565b602082019050919050565b60006020820190508181036000830152613e1081613dd4565b9050919050565b7f4552433732313a207472616e7366657220746f206e6f6e20455243373231526560008201527f63656976657220696d706c656d656e7465720000000000000000000000000000602082015250565b6000613e736032836126f1565b9150613e7e82613e17565b604082019050919050565b60006020820190508181036000830152613ea281613e66565b9050919050565b7f4e487b7100000000000000000000000000000000000000000000000000000000600052601260045260246000fd5b6000608082019050613eed600083018761282d565b613efa602083018661282d565b613f076040830185612eaf565b8181036060830152613f19818461362e565b905095945050505050565b600081519050613f3381612657565b92915050565b600060208284031215613f4f57613f4e612621565b5b6000613f5d84828501613f24565b91505092915050565b7f4552433732313a206d696e7420746f20746865207a65726f2061646472657373600082015250565b6000613f9c6020836126f1565b9150613fa782613f66565b602082019050919050565b60006020820190508181036000830152613fcb81613f8f565b9050919050565b7f4552433732313a20746f6b656e20616c7265616479206d696e74656400000000600082015250565b6000614008601c836126f1565b915061401382613fd2565b602082019050919050565b6000602082019050818103600083015261403781613ffb565b905091905056fea2646970667358221220b1c066ca373ba1a1317ad0bfa5e52ac5df28132f3b8430b1b333c00f4c56aa5a64736f6c6343000812003368747470733a2f2f746573746e6574732e6f70656e7365612e696f2f6173736574732f617262697472756d2d676f65726c692f","opcodes":"PUSH1 0x80 PUSH1 0x40 MSTORE CALLVALUE DUP1 ISZERO PUSH3 0x11 JUMPI PUSH1 0x0 DUP1 REVERT JUMPDEST POP PUSH1 0x40 MLOAD DUP1 PUSH1 0x40 ADD PUSH1 0x40 MSTORE DUP1 PUSH1 0x4 DUP2 MSTORE PUSH1 0x20 ADD PUSH32 0x4974656D00000000000000000000000000000000000000000000000000000000 DUP2 MSTORE POP PUSH1 0x40 MLOAD DUP1 PUSH1 0x40 ADD PUSH1 0x40 MSTORE DUP1 PUSH1 0x3 DUP2 MSTORE PUSH1 0x20 ADD PUSH32 0x49544D0000000000000000000000000000000000000000000000000000000000 DUP2 MSTORE POP DUP2 PUSH1 0x0 SWAP1 DUP2 PUSH3 0x8F SWAP2 SWAP1 PUSH3 0x4E9 JUMP JUMPDEST POP DUP1 PUSH1 0x1 SWAP1 DUP2 PUSH3 0xA1 SWAP2 SWAP1 PUSH3 0x4E9 JUMP JUMPDEST POP POP POP PUSH3 0xC4 PUSH3 0xB8 PUSH3 0x19E PUSH1 0x20 SHL PUSH1 0x20 SHR JUMP JUMPDEST PUSH3 0x1A6 PUSH1 0x20 SHL PUSH1 0x20 SHR JUMP JUMPDEST PUSH3 0xE0 PUSH8 0x3067EF4765FBC09A PUSH1 0xC0 SHL PUSH3 0x26C PUSH1 0x20 SHL PUSH1 0x20 SHR JUMP JUMPDEST PUSH3 0xFC PUSH8 0x4BB2DCE6D525E43B PUSH1 0xC0 SHL PUSH3 0x26C PUSH1 0x20 SHL PUSH1 0x20 SHR JUMP JUMPDEST PUSH20 0xD72FD549214EB53CC241F400B147364E926E15B PUSH1 0x7 PUSH1 0x0 PUSH2 0x100 EXP DUP2 SLOAD DUP2 PUSH20 0xFFFFFFFFFFFFFFFFFFFFFFFFFFFFFFFFFFFFFFFF MUL NOT AND SWAP1 DUP4 PUSH20 0xFFFFFFFFFFFFFFFFFFFFFFFFFFFFFFFFFFFFFFFF AND MUL OR SWAP1 SSTORE POP PUSH3 0x16D PUSH8 0x8A3CDD294E7C588A PUSH1 0xC0 SHL PUSH3 0x26C PUSH1 0x20 SHL PUSH1 0x20 SHR JUMP JUMPDEST PUSH1 0x40 MLOAD DUP1 PUSH1 0x60 ADD PUSH1 0x40 MSTORE DUP1 PUSH1 0x33 DUP2 MSTORE PUSH1 0x20 ADD PUSH3 0x4654 PUSH1 0x33 SWAP2 CODECOPY PUSH1 0x8 SWAP1 DUP2 PUSH3 0x197 SWAP2 SWAP1 PUSH3 0x4E9 JUMP JUMPDEST POP PUSH3 0x5D0 JUMP JUMPDEST PUSH1 0x0 CALLER SWAP1 POP SWAP1 JUMP JUMPDEST PUSH1 0x0 PUSH1 0x6 PUSH1 0x0 SWAP1 SLOAD SWAP1 PUSH2 0x100 EXP SWAP1 DIV PUSH20 0xFFFFFFFFFFFFFFFFFFFFFFFFFFFFFFFFFFFFFFFF AND SWAP1 POP DUP2 PUSH1 0x6 PUSH1 0x0 PUSH2 0x100 EXP DUP2 SLOAD DUP2 PUSH20 0xFFFFFFFFFFFFFFFFFFFFFFFFFFFFFFFFFFFFFFFF MUL NOT AND SWAP1 DUP4 PUSH20 0xFFFFFFFFFFFFFFFFFFFFFFFFFFFFFFFFFFFFFFFF AND MUL OR SWAP1 SSTORE POP DUP2 PUSH20 0xFFFFFFFFFFFFFFFFFFFFFFFFFFFFFFFFFFFFFFFF AND DUP2 PUSH20 0xFFFFFFFFFFFFFFFFFFFFFFFFFFFFFFFFFFFFFFFF AND PUSH32 0x8BE0079C531659141344CD1FD0A4F28419497F9722A3DAAFE3B4186F6B6457E0 PUSH1 0x40 MLOAD PUSH1 0x40 MLOAD DUP1 SWAP2 SUB SWAP1 LOG3 POP POP JUMP JUMPDEST POP JUMP JUMPDEST PUSH1 0x0 DUP2 MLOAD SWAP1 POP SWAP2 SWAP1 POP JUMP JUMPDEST PUSH32 0x4E487B7100000000000000000000000000000000000000000000000000000000 PUSH1 0x0 MSTORE PUSH1 0x41 PUSH1 0x4 MSTORE PUSH1 0x24 PUSH1 0x0 REVERT JUMPDEST PUSH32 0x4E487B7100000000000000000000000000000000000000000000000000000000 PUSH1 0x0 MSTORE PUSH1 0x22 PUSH1 0x4 MSTORE PUSH1 0x24 PUSH1 0x0 REVERT JUMPDEST PUSH1 0x0 PUSH1 0x2 DUP3 DIV SWAP1 POP PUSH1 0x1 DUP3 AND DUP1 PUSH3 0x2F1 JUMPI PUSH1 0x7F DUP3 AND SWAP2 POP JUMPDEST PUSH1 0x20 DUP3 LT DUP2 SUB PUSH3 0x307 JUMPI PUSH3 0x306 PUSH3 0x2A9 JUMP JUMPDEST JUMPDEST POP SWAP2 SWAP1 POP JUMP JUMPDEST PUSH1 0x0 DUP2 SWAP1 POP DUP2 PUSH1 0x0 MSTORE PUSH1 0x20 PUSH1 0x0 KECCAK256 SWAP1 POP SWAP2 SWAP1 POP JUMP JUMPDEST PUSH1 0x0 PUSH1 0x20 PUSH1 0x1F DUP4 ADD DIV SWAP1 POP SWAP2 SWAP1 POP JUMP JUMPDEST PUSH1 0x0 DUP3 DUP3 SHL SWAP1 POP SWAP3 SWAP2 POP POP JUMP JUMPDEST PUSH1 0x0 PUSH1 0x8 DUP4 MUL PUSH3 0x371 PUSH32 0xFFFFFFFFFFFFFFFFFFFFFFFFFFFFFFFFFFFFFFFFFFFFFFFFFFFFFFFFFFFFFFFF DUP3 PUSH3 0x332 JUMP JUMPDEST PUSH3 0x37D DUP7 DUP4 PUSH3 0x332 JUMP JUMPDEST SWAP6 POP DUP1 NOT DUP5 AND SWAP4 POP DUP1 DUP7 AND DUP5 OR SWAP3 POP POP POP SWAP4 SWAP3 POP POP POP JUMP JUMPDEST PUSH1 0x0 DUP2 SWAP1 POP SWAP2 SWAP1 POP JUMP JUMPDEST PUSH1 0x0 DUP2 SWAP1 POP SWAP2 SWAP1 POP JUMP JUMPDEST PUSH1 0x0 PUSH3 0x3CA PUSH3 0x3C4 PUSH3 0x3BE DUP5 PUSH3 0x395 JUMP JUMPDEST PUSH3 0x39F JUMP JUMPDEST PUSH3 0x395 JUMP JUMPDEST SWAP1 POP SWAP2 SWAP1 POP JUMP JUMPDEST PUSH1 0x0 DUP2 SWAP1 POP SWAP2 SWAP1 POP JUMP JUMPDEST PUSH3 0x3E6 DUP4 PUSH3 0x3A9 JUMP JUMPDEST PUSH3 0x3FE PUSH3 0x3F5 DUP3 PUSH3 0x3D1 JUMP JUMPDEST DUP5 DUP5 SLOAD PUSH3 0x33F JUMP JUMPDEST DUP3 SSTORE POP POP POP POP JUMP JUMPDEST PUSH1 0x0 SWAP1 JUMP JUMPDEST PUSH3 0x415 PUSH3 0x406 JUMP JUMPDEST PUSH3 0x422 DUP2 DUP5 DUP5 PUSH3 0x3DB JUMP JUMPDEST POP POP POP JUMP JUMPDEST JUMPDEST DUP2 DUP2 LT ISZERO PUSH3 0x44A JUMPI PUSH3 0x43E PUSH1 0x0 DUP3 PUSH3 0x40B JUMP JUMPDEST PUSH1 0x1 DUP2 ADD SWAP1 POP PUSH3 0x428 JUMP JUMPDEST POP POP JUMP JUMPDEST PUSH1 0x1F DUP3 GT ISZERO PUSH3 0x499 JUMPI PUSH3 0x463 DUP2 PUSH3 0x30D JUMP JUMPDEST PUSH3 0x46E DUP5 PUSH3 0x322 JUMP JUMPDEST DUP2 ADD PUSH1 0x20 DUP6 LT ISZERO PUSH3 0x47E JUMPI DUP2 SWAP1 POP JUMPDEST PUSH3 0x496 PUSH3 0x48D DUP6 PUSH3 0x322 JUMP JUMPDEST DUP4 ADD DUP3 PUSH3 0x427 JUMP JUMPDEST POP POP JUMPDEST POP POP POP JUMP JUMPDEST PUSH1 0x0 DUP3 DUP3 SHR SWAP1 POP SWAP3 SWAP2 POP POP JUMP JUMPDEST PUSH1 0x0 PUSH3 0x4BE PUSH1 0x0 NOT DUP5 PUSH1 0x8 MUL PUSH3 0x49E JUMP JUMPDEST NOT DUP1 DUP4 AND SWAP2 POP POP SWAP3 SWAP2 POP POP JUMP JUMPDEST PUSH1 0x0 PUSH3 0x4D9 DUP4 DUP4 PUSH3 0x4AB JUMP JUMPDEST SWAP2 POP DUP3 PUSH1 0x2 MUL DUP3 OR SWAP1 POP SWAP3 SWAP2 POP POP JUMP JUMPDEST PUSH3 0x4F4 DUP3 PUSH3 0x26F JUMP JUMPDEST PUSH8 0xFFFFFFFFFFFFFFFF DUP2 GT ISZERO PUSH3 0x510 JUMPI PUSH3 0x50F PUSH3 0x27A JUMP JUMPDEST JUMPDEST PUSH3 0x51C DUP3 SLOAD PUSH3 0x2D8 JUMP JUMPDEST PUSH3 0x529 DUP3 DUP3 DUP6 PUSH3 0x44E JUMP JUMPDEST PUSH1 0x0 PUSH1 0x20 SWAP1 POP PUSH1 0x1F DUP4 GT PUSH1 0x1 DUP2 EQ PUSH3 0x561 JUMPI PUSH1 0x0 DUP5 ISZERO PUSH3 0x54C JUMPI DUP3 DUP8 ADD MLOAD SWAP1 POP JUMPDEST PUSH3 0x558 DUP6 DUP3 PUSH3 0x4CB JUMP JUMPDEST DUP7 SSTORE POP PUSH3 0x5C8 JUMP JUMPDEST PUSH1 0x1F NOT DUP5 AND PUSH3 0x571 DUP7 PUSH3 0x30D JUMP JUMPDEST PUSH1 0x0 JUMPDEST DUP3 DUP2 LT ISZERO PUSH3 0x59B JUMPI DUP5 DUP10 ADD MLOAD DUP3 SSTORE PUSH1 0x1 DUP3 ADD SWAP2 POP PUSH1 0x20 DUP6 ADD SWAP5 POP PUSH1 0x20 DUP2 ADD SWAP1 POP PUSH3 0x574 JUMP JUMPDEST DUP7 DUP4 LT ISZERO PUSH3 0x5BB JUMPI DUP5 DUP10 ADD MLOAD PUSH3 0x5B7 PUSH1 0x1F DUP10 AND DUP3 PUSH3 0x4AB JUMP JUMPDEST DUP4 SSTORE POP JUMPDEST PUSH1 0x1 PUSH1 0x2 DUP9 MUL ADD DUP9 SSTORE POP POP POP JUMPDEST POP POP POP POP POP POP JUMP JUMPDEST PUSH2 0x4074 DUP1 PUSH3 0x5E0 PUSH1 0x0 CODECOPY PUSH1 0x0 RETURN INVALID PUSH1 0x80 PUSH1 0x40 MSTORE CALLVALUE DUP1 ISZERO PUSH2 0x10 JUMPI PUSH1 0x0 DUP1 REVERT JUMPDEST POP PUSH1 0x4 CALLDATASIZE LT PUSH2 0x1C4 JUMPI PUSH1 0x0 CALLDATALOAD PUSH1 0xE0 SHR DUP1 PUSH4 0x70A08231 GT PUSH2 0xF9 JUMPI DUP1 PUSH4 0xB446F3B2 GT PUSH2 0x97 JUMPI DUP1 PUSH4 0xD547CFB7 GT PUSH2 0x71 JUMPI DUP1 PUSH4 0xD547CFB7 EQ PUSH2 0x503 JUMPI DUP1 PUSH4 0xE985E9C5 EQ PUSH2 0x521 JUMPI DUP1 PUSH4 0xF2FDE38B EQ PUSH2 0x551 JUMPI DUP1 PUSH4 0xFA540801 EQ PUSH2 0x56D JUMPI PUSH2 0x1C4 JUMP JUMPDEST DUP1 PUSH4 0xB446F3B2 EQ PUSH2 0x487 JUMPI DUP1 PUSH4 0xB88D4FDE EQ PUSH2 0x4B7 JUMPI DUP1 PUSH4 0xC87B56DD EQ PUSH2 0x4D3 JUMPI PUSH2 0x1C4 JUMP JUMPDEST DUP1 PUSH4 0x7AC3C02F GT PUSH2 0xD3 JUMPI DUP1 PUSH4 0x7AC3C02F EQ PUSH2 0x411 JUMPI DUP1 PUSH4 0x8DA5CB5B EQ PUSH2 0x42F JUMPI DUP1 PUSH4 0x95D89B41 EQ PUSH2 0x44D JUMPI DUP1 PUSH4 0xA22CB465 EQ PUSH2 0x46B JUMPI PUSH2 0x1C4 JUMP JUMPDEST DUP1 PUSH4 0x70A08231 EQ PUSH2 0x3B9 JUMPI DUP1 PUSH4 0x714C5398 EQ PUSH2 0x3E9 JUMPI DUP1 PUSH4 0x715018A6 EQ PUSH2 0x407 JUMPI PUSH2 0x1C4 JUMP JUMPDEST DUP1 PUSH4 0x2DD34F0F GT PUSH2 0x166 JUMPI DUP1 PUSH4 0x6352211E GT PUSH2 0x140 JUMPI DUP1 PUSH4 0x6352211E EQ PUSH2 0x335 JUMPI DUP1 PUSH4 0x654886BE EQ PUSH2 0x365 JUMPI DUP1 PUSH4 0x6C19E783 EQ PUSH2 0x381 JUMPI DUP1 PUSH4 0x6E9849DD EQ PUSH2 0x39D JUMPI PUSH2 0x1C4 JUMP JUMPDEST DUP1 PUSH4 0x2DD34F0F EQ PUSH2 0x2CD JUMPI DUP1 PUSH4 0x42842E0E EQ PUSH2 0x2FD JUMPI DUP1 PUSH4 0x55F804B3 EQ PUSH2 0x319 JUMPI PUSH2 0x1C4 JUMP JUMPDEST DUP1 PUSH4 0x95EA7B3 GT PUSH2 0x1A2 JUMPI DUP1 PUSH4 0x95EA7B3 EQ PUSH2 0x247 JUMPI DUP1 PUSH4 0x19045A25 EQ PUSH2 0x263 JUMPI DUP1 PUSH4 0x238AC933 EQ PUSH2 0x293 JUMPI DUP1 PUSH4 0x23B872DD EQ PUSH2 0x2B1 JUMPI PUSH2 0x1C4 JUMP JUMPDEST DUP1 PUSH4 0x1FFC9A7 EQ PUSH2 0x1C9 JUMPI DUP1 PUSH4 0x6FDDE03 EQ PUSH2 0x1F9 JUMPI DUP1 PUSH4 0x81812FC EQ PUSH2 0x217 JUMPI JUMPDEST PUSH1 0x0 DUP1 REVERT JUMPDEST PUSH2 0x1E3 PUSH1 0x4 DUP1 CALLDATASIZE SUB DUP2 ADD SWAP1 PUSH2 0x1DE SWAP2 SWAP1 PUSH2 0x2683 JUMP JUMPDEST PUSH2 0x59D JUMP JUMPDEST PUSH1 0x40 MLOAD PUSH2 0x1F0 SWAP2 SWAP1 PUSH2 0x26CB JUMP JUMPDEST PUSH1 0x40 MLOAD DUP1 SWAP2 SUB SWAP1 RETURN JUMPDEST PUSH2 0x201 PUSH2 0x67F JUMP JUMPDEST PUSH1 0x40 MLOAD PUSH2 0x20E SWAP2 SWAP1 PUSH2 0x2776 JUMP JUMPDEST PUSH1 0x40 MLOAD DUP1 SWAP2 SUB SWAP1 RETURN JUMPDEST PUSH2 0x231 PUSH1 0x4 DUP1 CALLDATASIZE SUB DUP2 ADD SWAP1 PUSH2 0x22C SWAP2 SWAP1 PUSH2 0x27CE JUMP JUMPDEST PUSH2 0x711 JUMP JUMPDEST PUSH1 0x40 MLOAD PUSH2 0x23E SWAP2 SWAP1 PUSH2 0x283C JUMP JUMPDEST PUSH1 0x40 MLOAD DUP1 SWAP2 SUB SWAP1 RETURN JUMPDEST PUSH2 0x261 PUSH1 0x4 DUP1 CALLDATASIZE SUB DUP2 ADD SWAP1 PUSH2 0x25C SWAP2 SWAP1 PUSH2 0x2883 JUMP JUMPDEST PUSH2 0x757 JUMP JUMPDEST STOP JUMPDEST PUSH2 0x27D PUSH1 0x4 DUP1 CALLDATASIZE SUB DUP2 ADD SWAP1 PUSH2 0x278 SWAP2 SWAP1 PUSH2 0x2A2E JUMP JUMPDEST PUSH2 0x86E JUMP JUMPDEST PUSH1 0x40 MLOAD PUSH2 0x28A SWAP2 SWAP1 PUSH2 0x283C JUMP JUMPDEST PUSH1 0x40 MLOAD DUP1 SWAP2 SUB SWAP1 RETURN JUMPDEST PUSH2 0x29B PUSH2 0x942 JUMP JUMPDEST PUSH1 0x40 MLOAD PUSH2 0x2A8 SWAP2 SWAP1 PUSH2 0x283C JUMP JUMPDEST PUSH1 0x40 MLOAD DUP1 SWAP2 SUB SWAP1 RETURN JUMPDEST PUSH2 0x2CB PUSH1 0x4 DUP1 CALLDATASIZE SUB DUP2 ADD SWAP1 PUSH2 0x2C6 SWAP2 SWAP1 PUSH2 0x2A8A JUMP JUMPDEST PUSH2 0x968 JUMP JUMPDEST STOP JUMPDEST PUSH2 0x2E7 PUSH1 0x4 DUP1 CALLDATASIZE SUB DUP2 ADD SWAP1 PUSH2 0x2E2 SWAP2 SWAP1 PUSH2 0x2B7E JUMP JUMPDEST PUSH2 0x9C8 JUMP JUMPDEST PUSH1 0x40 MLOAD PUSH2 0x2F4 SWAP2 SWAP1 PUSH2 0x26CB JUMP JUMPDEST PUSH1 0x40 MLOAD DUP1 SWAP2 SUB SWAP1 RETURN JUMPDEST PUSH2 0x317 PUSH1 0x4 DUP1 CALLDATASIZE SUB DUP2 ADD SWAP1 PUSH2 0x312 SWAP2 SWAP1 PUSH2 0x2A8A JUMP JUMPDEST PUSH2 0xAB3 JUMP JUMPDEST STOP JUMPDEST PUSH2 0x333 PUSH1 0x4 DUP1 CALLDATASIZE SUB DUP2 ADD SWAP1 PUSH2 0x32E SWAP2 SWAP1 PUSH2 0x2C69 JUMP JUMPDEST PUSH2 0xAD3 JUMP JUMPDEST STOP JUMPDEST PUSH2 0x34F PUSH1 0x4 DUP1 CALLDATASIZE SUB DUP2 ADD SWAP1 PUSH2 0x34A SWAP2 SWAP1 PUSH2 0x27CE JUMP JUMPDEST PUSH2 0xB41 JUMP JUMPDEST PUSH1 0x40 MLOAD PUSH2 0x35C SWAP2 SWAP1 PUSH2 0x283C JUMP JUMPDEST PUSH1 0x40 MLOAD DUP1 SWAP2 SUB SWAP1 RETURN JUMPDEST PUSH2 0x37F PUSH1 0x4 DUP1 CALLDATASIZE SUB DUP2 ADD SWAP1 PUSH2 0x37A SWAP2 SWAP1 PUSH2 0x2CB6 JUMP JUMPDEST PUSH2 0xBC7 JUMP JUMPDEST STOP JUMPDEST PUSH2 0x39B PUSH1 0x4 DUP1 CALLDATASIZE SUB DUP2 ADD SWAP1 PUSH2 0x396 SWAP2 SWAP1 PUSH2 0x2D55 JUMP JUMPDEST PUSH2 0xD49 JUMP JUMPDEST STOP JUMPDEST PUSH2 0x3B7 PUSH1 0x4 DUP1 CALLDATASIZE SUB DUP2 ADD SWAP1 PUSH2 0x3B2 SWAP2 SWAP1 PUSH2 0x2E2E JUMP JUMPDEST PUSH2 0xDE5 JUMP JUMPDEST STOP JUMPDEST PUSH2 0x3D3 PUSH1 0x4 DUP1 CALLDATASIZE SUB DUP2 ADD SWAP1 PUSH2 0x3CE SWAP2 SWAP1 PUSH2 0x2D55 JUMP JUMPDEST PUSH2 0xF81 JUMP JUMPDEST PUSH1 0x40 MLOAD PUSH2 0x3E0 SWAP2 SWAP1 PUSH2 0x2EBE JUMP JUMPDEST PUSH1 0x40 MLOAD DUP1 SWAP2 SUB SWAP1 RETURN JUMPDEST PUSH2 0x3F1 PUSH2 0x1038 JUMP JUMPDEST PUSH1 0x40 MLOAD PUSH2 0x3FE SWAP2 SWAP1 PUSH2 0x2776 JUMP JUMPDEST PUSH1 0x40 MLOAD DUP1 SWAP2 SUB SWAP1 RETURN JUMPDEST PUSH2 0x40F PUSH2 0x1106 JUMP JUMPDEST STOP JUMPDEST PUSH2 0x419 PUSH2 0x111A JUMP JUMPDEST PUSH1 0x40 MLOAD PUSH2 0x426 SWAP2 SWAP1 PUSH2 0x283C JUMP JUMPDEST PUSH1 0x40 MLOAD DUP1 SWAP2 SUB SWAP1 RETURN JUMPDEST PUSH2 0x437 PUSH2 0x1180 JUMP JUMPDEST PUSH1 0x40 MLOAD PUSH2 0x444 SWAP2 SWAP1 PUSH2 0x283C JUMP JUMPDEST PUSH1 0x40 MLOAD DUP1 SWAP2 SUB SWAP1 RETURN JUMPDEST PUSH2 0x455 PUSH2 0x11AA JUMP JUMPDEST PUSH1 0x40 MLOAD PUSH2 0x462 SWAP2 SWAP1 PUSH2 0x2776 JUMP JUMPDEST PUSH1 0x40 MLOAD DUP1 SWAP2 SUB SWAP1 RETURN JUMPDEST PUSH2 0x485 PUSH1 0x4 DUP1 CALLDATASIZE SUB DUP2 ADD SWAP1 PUSH2 0x480 SWAP2 SWAP1 PUSH2 0x2F05 JUMP JUMPDEST PUSH2 0x123C JUMP JUMPDEST STOP JUMPDEST PUSH2 0x4A1 PUSH1 0x4 DUP1 CALLDATASIZE SUB DUP2 ADD SWAP1 PUSH2 0x49C SWAP2 SWAP1 PUSH2 0x2F45 JUMP JUMPDEST PUSH2 0x1252 JUMP JUMPDEST PUSH1 0x40 MLOAD PUSH2 0x4AE SWAP2 SWAP1 PUSH2 0x2F9D JUMP JUMPDEST PUSH1 0x40 MLOAD DUP1 SWAP2 SUB SWAP1 RETURN JUMPDEST PUSH2 0x4D1 PUSH1 0x4 DUP1 CALLDATASIZE SUB DUP2 ADD SWAP1 PUSH2 0x4CC SWAP2 SWAP1 PUSH2 0x2FB8 JUMP JUMPDEST PUSH2 0x12BE JUMP JUMPDEST STOP JUMPDEST PUSH2 0x4ED PUSH1 0x4 DUP1 CALLDATASIZE SUB DUP2 ADD SWAP1 PUSH2 0x4E8 SWAP2 SWAP1 PUSH2 0x27CE JUMP JUMPDEST PUSH2 0x1320 JUMP JUMPDEST PUSH1 0x40 MLOAD PUSH2 0x4FA SWAP2 SWAP1 PUSH2 0x2776 JUMP JUMPDEST PUSH1 0x40 MLOAD DUP1 SWAP2 SUB SWAP1 RETURN JUMPDEST PUSH2 0x50B PUSH2 0x1428 JUMP JUMPDEST PUSH1 0x40 MLOAD PUSH2 0x518 SWAP2 SWAP1 PUSH2 0x2776 JUMP JUMPDEST PUSH1 0x40 MLOAD DUP1 SWAP2 SUB SWAP1 RETURN JUMPDEST PUSH2 0x53B PUSH1 0x4 DUP1 CALLDATASIZE SUB DUP2 ADD SWAP1 PUSH2 0x536 SWAP2 SWAP1 PUSH2 0x303B JUMP JUMPDEST PUSH2 0x14B6 JUMP JUMPDEST PUSH1 0x40 MLOAD PUSH2 0x548 SWAP2 SWAP1 PUSH2 0x26CB JUMP JUMPDEST PUSH1 0x40 MLOAD DUP1 SWAP2 SUB SWAP1 RETURN JUMPDEST PUSH2 0x56B PUSH1 0x4 DUP1 CALLDATASIZE SUB DUP2 ADD SWAP1 PUSH2 0x566 SWAP2 SWAP1 PUSH2 0x2D55 JUMP JUMPDEST PUSH2 0x154A JUMP JUMPDEST STOP JUMPDEST PUSH2 0x587 PUSH1 0x4 DUP1 CALLDATASIZE SUB DUP2 ADD SWAP1 PUSH2 0x582 SWAP2 SWAP1 PUSH2 0x307B JUMP JUMPDEST PUSH2 0x15CD JUMP JUMPDEST PUSH1 0x40 MLOAD PUSH2 0x594 SWAP2 SWAP1 PUSH2 0x2F9D JUMP JUMPDEST PUSH1 0x40 MLOAD DUP1 SWAP2 SUB SWAP1 RETURN JUMPDEST PUSH1 0x0 PUSH32 0x80AC58CD00000000000000000000000000000000000000000000000000000000 PUSH28 0xFFFFFFFFFFFFFFFFFFFFFFFFFFFFFFFFFFFFFFFFFFFFFFFFFFFFFFFF NOT AND DUP3 PUSH28 0xFFFFFFFFFFFFFFFFFFFFFFFFFFFFFFFFFFFFFFFFFFFFFFFFFFFFFFFF NOT AND EQ DUP1 PUSH2 0x668 JUMPI POP PUSH32 0x5B5E139F00000000000000000000000000000000000000000000000000000000 PUSH28 0xFFFFFFFFFFFFFFFFFFFFFFFFFFFFFFFFFFFFFFFFFFFFFFFFFFFFFFFF NOT AND DUP3 PUSH28 0xFFFFFFFFFFFFFFFFFFFFFFFFFFFFFFFFFFFFFFFFFFFFFFFFFFFFFFFF NOT AND EQ JUMPDEST DUP1 PUSH2 0x678 JUMPI POP PUSH2 0x677 DUP3 PUSH2 0x1639 JUMP JUMPDEST JUMPDEST SWAP1 POP SWAP2 SWAP1 POP JUMP JUMPDEST PUSH1 0x60 PUSH1 0x0 DUP1 SLOAD PUSH2 0x68E SWAP1 PUSH2 0x30D7 JUMP JUMPDEST DUP1 PUSH1 0x1F ADD PUSH1 0x20 DUP1 SWAP2 DIV MUL PUSH1 0x20 ADD PUSH1 0x40 MLOAD SWAP1 DUP2 ADD PUSH1 0x40 MSTORE DUP1 SWAP3 SWAP2 SWAP1 DUP2 DUP2 MSTORE PUSH1 0x20 ADD DUP3 DUP1 SLOAD PUSH2 0x6BA SWAP1 PUSH2 0x30D7 JUMP JUMPDEST DUP1 ISZERO PUSH2 0x707 JUMPI DUP1 PUSH1 0x1F LT PUSH2 0x6DC JUMPI PUSH2 0x100 DUP1 DUP4 SLOAD DIV MUL DUP4 MSTORE SWAP2 PUSH1 0x20 ADD SWAP2 PUSH2 0x707 JUMP JUMPDEST DUP3 ADD SWAP2 SWAP1 PUSH1 0x0 MSTORE PUSH1 0x20 PUSH1 0x0 KECCAK256 SWAP1 JUMPDEST DUP2 SLOAD DUP2 MSTORE SWAP1 PUSH1 0x1 ADD SWAP1 PUSH1 0x20 ADD DUP1 DUP4 GT PUSH2 0x6EA JUMPI DUP3 SWAP1 SUB PUSH1 0x1F AND DUP3 ADD SWAP2 JUMPDEST POP POP POP POP POP SWAP1 POP SWAP1 JUMP JUMPDEST PUSH1 0x0 PUSH2 0x71C DUP3 PUSH2 0x16A3 JUMP JUMPDEST PUSH1 0x4 PUSH1 0x0 DUP4 DUP2 MSTORE PUSH1 0x20 ADD SWAP1 DUP2 MSTORE PUSH1 0x20 ADD PUSH1 0x0 KECCAK256 PUSH1 0x0 SWAP1 SLOAD SWAP1 PUSH2 0x100 EXP SWAP1 DIV PUSH20 0xFFFFFFFFFFFFFFFFFFFFFFFFFFFFFFFFFFFFFFFF AND SWAP1 POP SWAP2 SWAP1 POP JUMP JUMPDEST PUSH1 0x0 PUSH2 0x762 DUP3 PUSH2 0xB41 JUMP JUMPDEST SWAP1 POP DUP1 PUSH20 0xFFFFFFFFFFFFFFFFFFFFFFFFFFFFFFFFFFFFFFFF AND DUP4 PUSH20 0xFFFFFFFFFFFFFFFFFFFFFFFFFFFFFFFFFFFFFFFF AND SUB PUSH2 0x7D2 JUMPI PUSH1 0x40 MLOAD PUSH32 0x8C379A000000000000000000000000000000000000000000000000000000000 DUP2 MSTORE PUSH1 0x4 ADD PUSH2 0x7C9 SWAP1 PUSH2 0x317A JUMP JUMPDEST PUSH1 0x40 MLOAD DUP1 SWAP2 SUB SWAP1 REVERT JUMPDEST DUP1 PUSH20 0xFFFFFFFFFFFFFFFFFFFFFFFFFFFFFFFFFFFFFFFF AND PUSH2 0x7F1 PUSH2 0x16EE JUMP JUMPDEST PUSH20 0xFFFFFFFFFFFFFFFFFFFFFFFFFFFFFFFFFFFFFFFF AND EQ DUP1 PUSH2 0x820 JUMPI POP PUSH2 0x81F DUP2 PUSH2 0x81A PUSH2 0x16EE JUMP JUMPDEST PUSH2 0x14B6 JUMP JUMPDEST JUMPDEST PUSH2 0x85F JUMPI PUSH1 0x40 MLOAD PUSH32 0x8C379A000000000000000000000000000000000000000000000000000000000 DUP2 MSTORE PUSH1 0x4 ADD PUSH2 0x856 SWAP1 PUSH2 0x320C JUMP JUMPDEST PUSH1 0x40 MLOAD DUP1 SWAP2 SUB SWAP1 REVERT JUMPDEST PUSH2 0x869 DUP4 DUP4 PUSH2 0x16F6 JUMP JUMPDEST POP POP POP JUMP JUMPDEST PUSH1 0x0 PUSH2 0x884 PUSH8 0x2C7197CFB0C886B8 PUSH1 0xC0 SHL PUSH2 0x17AF JUMP JUMPDEST PUSH2 0x898 PUSH8 0x2BAA3ED9AE717F12 PUSH1 0xC0 SHL PUSH2 0x17AF JUMP JUMPDEST PUSH2 0x8AC PUSH8 0xB0B5B34FC7963AED PUSH1 0xC0 SHL PUSH2 0x17AF JUMP JUMPDEST PUSH1 0x0 DUP1 PUSH1 0x0 PUSH2 0x8BA DUP6 PUSH2 0x17B2 JUMP JUMPDEST SWAP3 POP SWAP3 POP SWAP3 POP PUSH2 0x8D4 PUSH8 0x52BB854342615F97 PUSH1 0xC0 SHL PUSH2 0x17AF JUMP JUMPDEST PUSH2 0x8E8 PUSH8 0x1A5272060AE344B4 PUSH1 0xC0 SHL PUSH2 0x17AF JUMP JUMPDEST PUSH1 0x1 DUP7 DUP3 DUP6 DUP6 PUSH1 0x40 MLOAD PUSH1 0x0 DUP2 MSTORE PUSH1 0x20 ADD PUSH1 0x40 MSTORE PUSH1 0x40 MLOAD PUSH2 0x90B SWAP5 SWAP4 SWAP3 SWAP2 SWAP1 PUSH2 0x3248 JUMP JUMPDEST PUSH1 0x20 PUSH1 0x40 MLOAD PUSH1 0x20 DUP2 SUB SWAP1 DUP1 DUP5 SUB SWAP1 DUP6 GAS STATICCALL ISZERO DUP1 ISZERO PUSH2 0x92D JUMPI RETURNDATASIZE PUSH1 0x0 DUP1 RETURNDATACOPY RETURNDATASIZE PUSH1 0x0 REVERT JUMPDEST POP POP POP PUSH1 0x20 PUSH1 0x40 MLOAD SUB MLOAD SWAP4 POP POP POP POP SWAP3 SWAP2 POP POP JUMP JUMPDEST PUSH1 0x7 PUSH1 0x0 SWAP1 SLOAD SWAP1 PUSH2 0x100 EXP SWAP1 DIV PUSH20 0xFFFFFFFFFFFFFFFFFFFFFFFFFFFFFFFFFFFFFFFF AND DUP2 JUMP JUMPDEST PUSH2 0x979 PUSH2 0x973 PUSH2 0x16EE JUMP JUMPDEST DUP3 PUSH2 0x1892 JUMP JUMPDEST PUSH2 0x9B8 JUMPI PUSH1 0x40 MLOAD PUSH32 0x8C379A000000000000000000000000000000000000000000000000000000000 DUP2 MSTORE PUSH1 0x4 ADD PUSH2 0x9AF SWAP1 PUSH2 0x32FF JUMP JUMPDEST PUSH1 0x40 MLOAD DUP1 SWAP2 SUB SWAP1 REVERT JUMPDEST PUSH2 0x9C3 DUP4 DUP4 DUP4 PUSH2 0x1927 JUMP JUMPDEST POP POP POP JUMP JUMPDEST PUSH1 0x0 PUSH2 0x9DE PUSH8 0x21099BB7F96EE6F7 PUSH1 0xC0 SHL PUSH2 0x17AF JUMP JUMPDEST PUSH2 0x9F2 PUSH8 0xDAD16CEB9283B2C2 PUSH1 0xC0 SHL PUSH2 0x17AF JUMP JUMPDEST PUSH2 0xA06 PUSH8 0x8CB10E462183B60F PUSH1 0xC0 SHL PUSH2 0x17AF JUMP JUMPDEST PUSH1 0x0 PUSH2 0xA11 DUP5 PUSH2 0x1252 JUMP JUMPDEST SWAP1 POP PUSH2 0xA27 PUSH8 0x79C94505B7E78CD9 PUSH1 0xC0 SHL PUSH2 0x17AF JUMP JUMPDEST PUSH2 0xA3B PUSH8 0x70EC63DF878F38D1 PUSH1 0xC0 SHL PUSH2 0x17AF JUMP JUMPDEST PUSH1 0x0 PUSH2 0xA46 DUP3 PUSH2 0x15CD JUMP JUMPDEST SWAP1 POP PUSH2 0xA5C PUSH8 0xEE7B58264A269A84 PUSH1 0xC0 SHL PUSH2 0x17AF JUMP JUMPDEST PUSH2 0xA70 PUSH8 0x8B4016F88E9F0EF1 PUSH1 0xC0 SHL PUSH2 0x17AF JUMP JUMPDEST DUP6 PUSH20 0xFFFFFFFFFFFFFFFFFFFFFFFFFFFFFFFFFFFFFFFF AND PUSH2 0xA91 DUP3 DUP7 PUSH2 0x86E JUMP JUMPDEST PUSH20 0xFFFFFFFFFFFFFFFFFFFFFFFFFFFFFFFFFFFFFFFF AND EQ SWAP3 POP POP POP SWAP4 SWAP3 POP POP POP JUMP JUMPDEST PUSH2 0xACE DUP4 DUP4 DUP4 PUSH1 0x40 MLOAD DUP1 PUSH1 0x20 ADD PUSH1 0x40 MSTORE DUP1 PUSH1 0x0 DUP2 MSTORE POP PUSH2 0x12BE JUMP JUMPDEST POP POP POP JUMP JUMPDEST PUSH2 0xAE7 PUSH8 0xD90E419DF5B72DBC PUSH1 0xC0 SHL PUSH2 0x17AF JUMP JUMPDEST PUSH2 0xAEF PUSH2 0x1C20 JUMP JUMPDEST PUSH2 0xB03 PUSH8 0x7A09808E66D82816 PUSH1 0xC0 SHL PUSH2 0x17AF JUMP JUMPDEST PUSH2 0xB17 PUSH8 0x4544A43D23F34C1D PUSH1 0xC0 SHL PUSH2 0x17AF JUMP JUMPDEST PUSH2 0xB2B PUSH8 0x8764F6A7B1D7B555 PUSH1 0xC0 SHL PUSH2 0x17AF JUMP JUMPDEST DUP2 DUP2 PUSH1 0x8 SWAP2 DUP3 PUSH2 0xB3C SWAP3 SWAP2 SWAP1 PUSH2 0x34D6 JUMP JUMPDEST POP POP POP JUMP JUMPDEST PUSH1 0x0 DUP1 PUSH2 0xB4D DUP4 PUSH2 0x1C9E JUMP JUMPDEST SWAP1 POP PUSH1 0x0 PUSH20 0xFFFFFFFFFFFFFFFFFFFFFFFFFFFFFFFFFFFFFFFF AND DUP2 PUSH20 0xFFFFFFFFFFFFFFFFFFFFFFFFFFFFFFFFFFFFFFFF AND SUB PUSH2 0xBBE JUMPI PUSH1 0x40 MLOAD PUSH32 0x8C379A000000000000000000000000000000000000000000000000000000000 DUP2 MSTORE PUSH1 0x4 ADD PUSH2 0xBB5 SWAP1 PUSH2 0x35F2 JUMP JUMPDEST PUSH1 0x40 MLOAD DUP1 SWAP2 SUB SWAP1 REVERT JUMPDEST DUP1 SWAP2 POP POP SWAP2 SWAP1 POP JUMP JUMPDEST PUSH2 0xBDB PUSH8 0x86EBECF4988A8E5B PUSH1 0xC0 SHL PUSH2 0x17AF JUMP JUMPDEST PUSH2 0xBEF PUSH8 0x20A2E73717905D5A PUSH1 0xC0 SHL PUSH2 0x17AF JUMP JUMPDEST PUSH2 0xC03 PUSH8 0x749884F6B561CFD9 PUSH1 0xC0 SHL PUSH2 0x17AF JUMP JUMPDEST PUSH2 0xC17 PUSH8 0xD16BDC82ADBE2CBA PUSH1 0xC0 SHL PUSH2 0x17AF JUMP JUMPDEST PUSH1 0x1 ISZERO ISZERO ADDRESS PUSH20 0xFFFFFFFFFFFFFFFFFFFFFFFFFFFFFFFFFFFFFFFF AND PUSH4 0x2DD34F0F PUSH1 0x7 PUSH1 0x0 SWAP1 SLOAD SWAP1 PUSH2 0x100 EXP SWAP1 DIV PUSH20 0xFFFFFFFFFFFFFFFFFFFFFFFFFFFFFFFFFFFFFFFF AND DUP8 DUP8 PUSH1 0x40 MLOAD DUP5 PUSH4 0xFFFFFFFF AND PUSH1 0xE0 SHL DUP2 MSTORE PUSH1 0x4 ADD PUSH2 0xC7A SWAP4 SWAP3 SWAP2 SWAP1 PUSH2 0x3667 JUMP JUMPDEST PUSH1 0x20 PUSH1 0x40 MLOAD DUP1 DUP4 SUB DUP2 DUP7 GAS STATICCALL ISZERO DUP1 ISZERO PUSH2 0xC97 JUMPI RETURNDATASIZE PUSH1 0x0 DUP1 RETURNDATACOPY RETURNDATASIZE PUSH1 0x0 REVERT JUMPDEST POP POP POP POP PUSH1 0x40 MLOAD RETURNDATASIZE PUSH1 0x1F NOT PUSH1 0x1F DUP3 ADD AND DUP3 ADD DUP1 PUSH1 0x40 MSTORE POP DUP2 ADD SWAP1 PUSH2 0xCBB SWAP2 SWAP1 PUSH2 0x36C1 JUMP JUMPDEST ISZERO ISZERO EQ PUSH2 0xCFD JUMPI PUSH1 0x40 MLOAD PUSH32 0x8C379A000000000000000000000000000000000000000000000000000000000 DUP2 MSTORE PUSH1 0x4 ADD PUSH2 0xCF4 SWAP1 PUSH2 0x373A JUMP JUMPDEST PUSH1 0x40 MLOAD DUP1 SWAP2 SUB SWAP1 REVERT JUMPDEST PUSH2 0xD11 PUSH8 0x515A1ADCF444ABCC PUSH1 0xC0 SHL PUSH2 0x17AF JUMP JUMPDEST PUSH2 0xD25 PUSH8 0x835FAEF4E7C834E2 PUSH1 0xC0 SHL PUSH2 0x17AF JUMP JUMPDEST PUSH2 0xD39 PUSH8 0x6CF5CBD127E4FD37 PUSH1 0xC0 SHL PUSH2 0x17AF JUMP JUMPDEST PUSH2 0xD43 DUP3 DUP3 PUSH2 0x1CDB JUMP JUMPDEST POP POP POP POP JUMP JUMPDEST PUSH2 0xD5D PUSH8 0xB52839DA6EA1F501 PUSH1 0xC0 SHL PUSH2 0x17AF JUMP JUMPDEST PUSH2 0xD65 PUSH2 0x1C20 JUMP JUMPDEST PUSH2 0xD79 PUSH8 0xF43B581F311CD4BB PUSH1 0xC0 SHL PUSH2 0x17AF JUMP JUMPDEST PUSH2 0xD8D PUSH8 0x1A03AEA62438C37B PUSH1 0xC0 SHL PUSH2 0x17AF JUMP JUMPDEST PUSH2 0xDA1 PUSH8 0x5073DDDE3A60E8CC PUSH1 0xC0 SHL PUSH2 0x17AF JUMP JUMPDEST DUP1 PUSH1 0x7 PUSH1 0x0 PUSH2 0x100 EXP DUP2 SLOAD DUP2 PUSH20 0xFFFFFFFFFFFFFFFFFFFFFFFFFFFFFFFFFFFFFFFF MUL NOT AND SWAP1 DUP4 PUSH20 0xFFFFFFFFFFFFFFFFFFFFFFFFFFFFFFFFFFFFFFFF AND MUL OR SWAP1 SSTORE POP POP JUMP JUMPDEST PUSH2 0xDF9 PUSH8 0x82404168B85D1981 PUSH1 0xC0 SHL PUSH2 0x17AF JUMP JUMPDEST PUSH2 0xE01 PUSH2 0x1C20 JUMP JUMPDEST PUSH2 0xE15 PUSH8 0x911A645A18D5D5F0 PUSH1 0xC0 SHL PUSH2 0x17AF JUMP JUMPDEST PUSH2 0xE29 PUSH8 0xD01D3A930647F4E3 PUSH1 0xC0 SHL PUSH2 0x17AF JUMP JUMPDEST PUSH2 0xE3D PUSH8 0x13AD92CD81FE4BFB PUSH1 0xC0 SHL PUSH2 0x17AF JUMP JUMPDEST PUSH2 0xE51 PUSH8 0x5F5B5D46907D4B11 PUSH1 0xC0 SHL PUSH2 0x17AF JUMP JUMPDEST PUSH2 0xE65 PUSH8 0x3700FC14AFDEC2A4 PUSH1 0xC0 SHL PUSH2 0x17AF JUMP JUMPDEST DUP2 DUP2 SWAP1 POP DUP5 DUP5 SWAP1 POP EQ PUSH2 0xEAD JUMPI PUSH1 0x40 MLOAD PUSH32 0x8C379A000000000000000000000000000000000000000000000000000000000 DUP2 MSTORE PUSH1 0x4 ADD PUSH2 0xEA4 SWAP1 PUSH2 0x37A6 JUMP JUMPDEST PUSH1 0x40 MLOAD DUP1 SWAP2 SUB SWAP1 REVERT JUMPDEST PUSH2 0xEC1 PUSH8 0xE679DE81A50AA66E PUSH1 0xC0 SHL PUSH2 0x17AF JUMP JUMPDEST PUSH2 0xED5 PUSH8 0x6188A358BB4C14FA PUSH1 0xC0 SHL PUSH2 0x17AF JUMP JUMPDEST PUSH2 0xEE9 PUSH8 0x659996FC801FC355 PUSH1 0xC0 SHL PUSH2 0x17AF JUMP JUMPDEST PUSH1 0x0 JUMPDEST DUP3 DUP3 SWAP1 POP DUP2 LT ISZERO PUSH2 0xF7A JUMPI PUSH2 0xF0B PUSH8 0xD04A9114CB2E2EAE PUSH1 0xC0 SHL PUSH2 0x17AF JUMP JUMPDEST PUSH2 0xF1F PUSH8 0xEF5F8D6337E3CB89 PUSH1 0xC0 SHL PUSH2 0x17AF JUMP JUMPDEST PUSH2 0xF69 DUP4 DUP4 DUP4 DUP2 DUP2 LT PUSH2 0xF35 JUMPI PUSH2 0xF34 PUSH2 0x37C6 JUMP JUMPDEST JUMPDEST SWAP1 POP PUSH1 0x20 MUL ADD PUSH1 0x20 DUP2 ADD SWAP1 PUSH2 0xF4A SWAP2 SWAP1 PUSH2 0x2D55 JUMP JUMPDEST DUP7 DUP7 DUP5 DUP2 DUP2 LT PUSH2 0xF5D JUMPI PUSH2 0xF5C PUSH2 0x37C6 JUMP JUMPDEST JUMPDEST SWAP1 POP PUSH1 0x20 MUL ADD CALLDATALOAD PUSH2 0x1CDB JUMP JUMPDEST DUP1 PUSH2 0xF73 SWAP1 PUSH2 0x3824 JUMP JUMPDEST SWAP1 POP PUSH2 0xEEC JUMP JUMPDEST POP POP POP POP POP JUMP JUMPDEST PUSH1 0x0 DUP1 PUSH20 0xFFFFFFFFFFFFFFFFFFFFFFFFFFFFFFFFFFFFFFFF AND DUP3 PUSH20 0xFFFFFFFFFFFFFFFFFFFFFFFFFFFFFFFFFFFFFFFF AND SUB PUSH2 0xFF1 JUMPI PUSH1 0x40 MLOAD PUSH32 0x8C379A000000000000000000000000000000000000000000000000000000000 DUP2 MSTORE PUSH1 0x4 ADD PUSH2 0xFE8 SWAP1 PUSH2 0x38DE JUMP JUMPDEST PUSH1 0x40 MLOAD DUP1 SWAP2 SUB SWAP1 REVERT JUMPDEST PUSH1 0x3 PUSH1 0x0 DUP4 PUSH20 0xFFFFFFFFFFFFFFFFFFFFFFFFFFFFFFFFFFFFFFFF AND PUSH20 0xFFFFFFFFFFFFFFFFFFFFFFFFFFFFFFFFFFFFFFFF AND DUP2 MSTORE PUSH1 0x20 ADD SWAP1 DUP2 MSTORE PUSH1 0x20 ADD PUSH1 0x0 KECCAK256 SLOAD SWAP1 POP SWAP2 SWAP1 POP JUMP JUMPDEST PUSH1 0x60 PUSH2 0x104E PUSH8 0xC96A9FF1E7C53538 PUSH1 0xC0 SHL PUSH2 0x17AF JUMP JUMPDEST PUSH2 0x1062 PUSH8 0x875E08B5D384F1B5 PUSH1 0xC0 SHL PUSH2 0x17AF JUMP JUMPDEST PUSH2 0x1076 PUSH8 0x8D7C272AB1BBD546 PUSH1 0xC0 SHL PUSH2 0x17AF JUMP JUMPDEST PUSH1 0x8 DUP1 SLOAD PUSH2 0x1083 SWAP1 PUSH2 0x30D7 JUMP JUMPDEST DUP1 PUSH1 0x1F ADD PUSH1 0x20 DUP1 SWAP2 DIV MUL PUSH1 0x20 ADD PUSH1 0x40 MLOAD SWAP1 DUP2 ADD PUSH1 0x40 MSTORE DUP1 SWAP3 SWAP2 SWAP1 DUP2 DUP2 MSTORE PUSH1 0x20 ADD DUP3 DUP1 SLOAD PUSH2 0x10AF SWAP1 PUSH2 0x30D7 JUMP JUMPDEST DUP1 ISZERO PUSH2 0x10FC JUMPI DUP1 PUSH1 0x1F LT PUSH2 0x10D1 JUMPI PUSH2 0x100 DUP1 DUP4 SLOAD DIV MUL DUP4 MSTORE SWAP2 PUSH1 0x20 ADD SWAP2 PUSH2 0x10FC JUMP JUMPDEST DUP3 ADD SWAP2 SWAP1 PUSH1 0x0 MSTORE PUSH1 0x20 PUSH1 0x0 KECCAK256 SWAP1 JUMPDEST DUP2 SLOAD DUP2 MSTORE SWAP1 PUSH1 0x1 ADD SWAP1 PUSH1 0x20 ADD DUP1 DUP4 GT PUSH2 0x10DF JUMPI DUP3 SWAP1 SUB PUSH1 0x1F AND DUP3 ADD SWAP2 JUMPDEST POP POP POP POP POP SWAP1 POP SWAP1 JUMP JUMPDEST PUSH2 0x110E PUSH2 0x1C20 JUMP JUMPDEST PUSH2 0x1118 PUSH1 0x0 PUSH2 0x1CF9 JUMP JUMPDEST JUMP JUMPDEST PUSH1 0x0 PUSH2 0x1130 PUSH8 0xA7D19F30A9DA84AC PUSH1 0xC0 SHL PUSH2 0x17AF JUMP JUMPDEST PUSH2 0x1144 PUSH8 0x1235B896817E2CE9 PUSH1 0xC0 SHL PUSH2 0x17AF JUMP JUMPDEST PUSH2 0x1158 PUSH8 0xBA44ED99FFBEA8F3 PUSH1 0xC0 SHL PUSH2 0x17AF JUMP JUMPDEST PUSH1 0x7 PUSH1 0x0 SWAP1 SLOAD SWAP1 PUSH2 0x100 EXP SWAP1 DIV PUSH20 0xFFFFFFFFFFFFFFFFFFFFFFFFFFFFFFFFFFFFFFFF AND SWAP1 POP SWAP1 JUMP JUMPDEST PUSH1 0x0 PUSH1 0x6 PUSH1 0x0 SWAP1 SLOAD SWAP1 PUSH2 0x100 EXP SWAP1 DIV PUSH20 0xFFFFFFFFFFFFFFFFFFFFFFFFFFFFFFFFFFFFFFFF AND SWAP1 POP SWAP1 JUMP JUMPDEST PUSH1 0x60 PUSH1 0x1 DUP1 SLOAD PUSH2 0x11B9 SWAP1 PUSH2 0x30D7 JUMP JUMPDEST DUP1 PUSH1 0x1F ADD PUSH1 0x20 DUP1 SWAP2 DIV MUL PUSH1 0x20 ADD PUSH1 0x40 MLOAD SWAP1 DUP2 ADD PUSH1 0x40 MSTORE DUP1 SWAP3 SWAP2 SWAP1 DUP2 DUP2 MSTORE PUSH1 0x20 ADD DUP3 DUP1 SLOAD PUSH2 0x11E5 SWAP1 PUSH2 0x30D7 JUMP JUMPDEST DUP1 ISZERO PUSH2 0x1232 JUMPI DUP1 PUSH1 0x1F LT PUSH2 0x1207 JUMPI PUSH2 0x100 DUP1 DUP4 SLOAD DIV MUL DUP4 MSTORE SWAP2 PUSH1 0x20 ADD SWAP2 PUSH2 0x1232 JUMP JUMPDEST DUP3 ADD SWAP2 SWAP1 PUSH1 0x0 MSTORE PUSH1 0x20 PUSH1 0x0 KECCAK256 SWAP1 JUMPDEST DUP2 SLOAD DUP2 MSTORE SWAP1 PUSH1 0x1 ADD SWAP1 PUSH1 0x20 ADD DUP1 DUP4 GT PUSH2 0x1215 JUMPI DUP3 SWAP1 SUB PUSH1 0x1F AND DUP3 ADD SWAP2 JUMPDEST POP POP POP POP POP SWAP1 POP SWAP1 JUMP JUMPDEST PUSH2 0x124E PUSH2 0x1247 PUSH2 0x16EE JUMP JUMPDEST DUP4 DUP4 PUSH2 0x1DBF JUMP JUMPDEST POP POP JUMP JUMPDEST PUSH1 0x0 PUSH2 0x1268 PUSH8 0xED5E603DAFDE1841 PUSH1 0xC0 SHL PUSH2 0x17AF JUMP JUMPDEST PUSH2 0x127C PUSH8 0xE7E4838F94E9F22B PUSH1 0xC0 SHL PUSH2 0x17AF JUMP JUMPDEST PUSH2 0x1290 PUSH8 0x98CA6DD48A570EBF PUSH1 0xC0 SHL PUSH2 0x17AF JUMP JUMPDEST DUP2 PUSH1 0x40 MLOAD PUSH1 0x20 ADD PUSH2 0x12A1 SWAP2 SWAP1 PUSH2 0x393A JUMP JUMPDEST PUSH1 0x40 MLOAD PUSH1 0x20 DUP2 DUP4 SUB SUB DUP2 MSTORE SWAP1 PUSH1 0x40 MSTORE DUP1 MLOAD SWAP1 PUSH1 0x20 ADD KECCAK256 SWAP1 POP SWAP2 SWAP1 POP JUMP JUMPDEST PUSH2 0x12CF PUSH2 0x12C9 PUSH2 0x16EE JUMP JUMPDEST DUP4 PUSH2 0x1892 JUMP JUMPDEST PUSH2 0x130E JUMPI PUSH1 0x40 MLOAD PUSH32 0x8C379A000000000000000000000000000000000000000000000000000000000 DUP2 MSTORE PUSH1 0x4 ADD PUSH2 0x1305 SWAP1 PUSH2 0x32FF JUMP JUMPDEST PUSH1 0x40 MLOAD DUP1 SWAP2 SUB SWAP1 REVERT JUMPDEST PUSH2 0x131A DUP5 DUP5 DUP5 DUP5 PUSH2 0x1F2B JUMP JUMPDEST POP POP POP POP JUMP JUMPDEST PUSH1 0x60 PUSH2 0x1336 PUSH8 0x37A60F955411C93C PUSH1 0xC0 SHL PUSH2 0x17AF JUMP JUMPDEST PUSH2 0x134A PUSH8 0x70C4970A5C97DB45 PUSH1 0xC0 SHL PUSH2 0x17AF JUMP JUMPDEST PUSH2 0x135E PUSH8 0x4641E0F4F0AD0C8E PUSH1 0xC0 SHL PUSH2 0x17AF JUMP JUMPDEST PUSH2 0x1372 PUSH8 0xC1731836D569246D PUSH1 0xC0 SHL PUSH2 0x17AF JUMP JUMPDEST PUSH2 0x137B DUP3 PUSH2 0x1F87 JUMP JUMPDEST PUSH2 0x13BA JUMPI PUSH1 0x40 MLOAD PUSH32 0x8C379A000000000000000000000000000000000000000000000000000000000 DUP2 MSTORE PUSH1 0x4 ADD PUSH2 0x13B1 SWAP1 PUSH2 0x39C3 JUMP JUMPDEST PUSH1 0x40 MLOAD DUP1 SWAP2 SUB SWAP1 REVERT JUMPDEST PUSH2 0x13CE PUSH8 0xA7D3F43CC1DB3DB2 PUSH1 0xC0 SHL PUSH2 0x17AF JUMP JUMPDEST PUSH2 0x13E2 PUSH8 0x49A8EF2C042DFA8A PUSH1 0xC0 SHL PUSH2 0x17AF JUMP JUMPDEST PUSH2 0x13F6 PUSH8 0xE4B99A4BAE5CA153 PUSH1 0xC0 SHL PUSH2 0x17AF JUMP JUMPDEST PUSH1 0x8 PUSH2 0x1401 DUP4 PUSH2 0x1FC8 JUMP JUMPDEST PUSH1 0x40 MLOAD PUSH1 0x20 ADD PUSH2 0x1412 SWAP3 SWAP2 SWAP1 PUSH2 0x3A66 JUMP JUMPDEST PUSH1 0x40 MLOAD PUSH1 0x20 DUP2 DUP4 SUB SUB DUP2 MSTORE SWAP1 PUSH1 0x40 MSTORE SWAP1 POP SWAP2 SWAP1 POP JUMP JUMPDEST PUSH1 0x8 DUP1 SLOAD PUSH2 0x1435 SWAP1 PUSH2 0x30D7 JUMP JUMPDEST DUP1 PUSH1 0x1F ADD PUSH1 0x20 DUP1 SWAP2 DIV MUL PUSH1 0x20 ADD PUSH1 0x40 MLOAD SWAP1 DUP2 ADD PUSH1 0x40 MSTORE DUP1 SWAP3 SWAP2 SWAP1 DUP2 DUP2 MSTORE PUSH1 0x20 ADD DUP3 DUP1 SLOAD PUSH2 0x1461 SWAP1 PUSH2 0x30D7 JUMP JUMPDEST DUP1 ISZERO PUSH2 0x14AE JUMPI DUP1 PUSH1 0x1F LT PUSH2 0x1483 JUMPI PUSH2 0x100 DUP1 DUP4 SLOAD DIV MUL DUP4 MSTORE SWAP2 PUSH1 0x20 ADD SWAP2 PUSH2 0x14AE JUMP JUMPDEST DUP3 ADD SWAP2 SWAP1 PUSH1 0x0 MSTORE PUSH1 0x20 PUSH1 0x0 KECCAK256 SWAP1 JUMPDEST DUP2 SLOAD DUP2 MSTORE SWAP1 PUSH1 0x1 ADD SWAP1 PUSH1 0x20 ADD DUP1 DUP4 GT PUSH2 0x1491 JUMPI DUP3 SWAP1 SUB PUSH1 0x1F AND DUP3 ADD SWAP2 JUMPDEST POP POP POP POP POP DUP2 JUMP JUMPDEST PUSH1 0x0 PUSH1 0x5 PUSH1 0x0 DUP5 PUSH20 0xFFFFFFFFFFFFFFFFFFFFFFFFFFFFFFFFFFFFFFFF AND PUSH20 0xFFFFFFFFFFFFFFFFFFFFFFFFFFFFFFFFFFFFFFFF AND DUP2 MSTORE PUSH1 0x20 ADD SWAP1 DUP2 MSTORE PUSH1 0x20 ADD PUSH1 0x0 KECCAK256 PUSH1 0x0 DUP4 PUSH20 0xFFFFFFFFFFFFFFFFFFFFFFFFFFFFFFFFFFFFFFFF AND PUSH20 0xFFFFFFFFFFFFFFFFFFFFFFFFFFFFFFFFFFFFFFFF AND DUP2 MSTORE PUSH1 0x20 ADD SWAP1 DUP2 MSTORE PUSH1 0x20 ADD PUSH1 0x0 KECCAK256 PUSH1 0x0 SWAP1 SLOAD SWAP1 PUSH2 0x100 EXP SWAP1 DIV PUSH1 0xFF AND SWAP1 POP SWAP3 SWAP2 POP POP JUMP JUMPDEST PUSH2 0x1552 PUSH2 0x1C20 JUMP JUMPDEST PUSH1 0x0 PUSH20 0xFFFFFFFFFFFFFFFFFFFFFFFFFFFFFFFFFFFFFFFF AND DUP2 PUSH20 0xFFFFFFFFFFFFFFFFFFFFFFFFFFFFFFFFFFFFFFFF AND SUB PUSH2 0x15C1 JUMPI PUSH1 0x40 MLOAD PUSH32 0x8C379A000000000000000000000000000000000000000000000000000000000 DUP2 MSTORE PUSH1 0x4 ADD PUSH2 0x15B8 SWAP1 PUSH2 0x3AFC JUMP JUMPDEST PUSH1 0x40 MLOAD DUP1 SWAP2 SUB SWAP1 REVERT JUMPDEST PUSH2 0x15CA DUP2 PUSH2 0x1CF9 JUMP JUMPDEST POP JUMP JUMPDEST PUSH1 0x0 PUSH2 0x15E3 PUSH8 0xB9D8C8F8C8BCFDD1 PUSH1 0xC0 SHL PUSH2 0x17AF JUMP JUMPDEST PUSH2 0x15F7 PUSH8 0xC17E84E99E4C4287 PUSH1 0xC0 SHL PUSH2 0x17AF JUMP JUMPDEST PUSH2 0x160B PUSH8 0x8C9F55695A1E9EFB PUSH1 0xC0 SHL PUSH2 0x17AF JUMP JUMPDEST DUP2 PUSH1 0x40 MLOAD PUSH1 0x20 ADD PUSH2 0x161C SWAP2 SWAP1 PUSH2 0x3B89 JUMP JUMPDEST PUSH1 0x40 MLOAD PUSH1 0x20 DUP2 DUP4 SUB SUB DUP2 MSTORE SWAP1 PUSH1 0x40 MSTORE DUP1 MLOAD SWAP1 PUSH1 0x20 ADD KECCAK256 SWAP1 POP SWAP2 SWAP1 POP JUMP JUMPDEST PUSH1 0x0 PUSH32 0x1FFC9A700000000000000000000000000000000000000000000000000000000 PUSH28 0xFFFFFFFFFFFFFFFFFFFFFFFFFFFFFFFFFFFFFFFFFFFFFFFFFFFFFFFF NOT AND DUP3 PUSH28 0xFFFFFFFFFFFFFFFFFFFFFFFFFFFFFFFFFFFFFFFFFFFFFFFFFFFFFFFF NOT AND EQ SWAP1 POP SWAP2 SWAP1 POP JUMP JUMPDEST PUSH2 0x16AC DUP2 PUSH2 0x1F87 JUMP JUMPDEST PUSH2 0x16EB JUMPI PUSH1 0x40 MLOAD PUSH32 0x8C379A000000000000000000000000000000000000000000000000000000000 DUP2 MSTORE PUSH1 0x4 ADD PUSH2 0x16E2 SWAP1 PUSH2 0x35F2 JUMP JUMPDEST PUSH1 0x40 MLOAD DUP1 SWAP2 SUB SWAP1 REVERT JUMPDEST POP JUMP JUMPDEST PUSH1 0x0 CALLER SWAP1 POP SWAP1 JUMP JUMPDEST DUP2 PUSH1 0x4 PUSH1 0x0 DUP4 DUP2 MSTORE PUSH1 0x20 ADD SWAP1 DUP2 MSTORE PUSH1 0x20 ADD PUSH1 0x0 KECCAK256 PUSH1 0x0 PUSH2 0x100 EXP DUP2 SLOAD DUP2 PUSH20 0xFFFFFFFFFFFFFFFFFFFFFFFFFFFFFFFFFFFFFFFF MUL NOT AND SWAP1 DUP4 PUSH20 0xFFFFFFFFFFFFFFFFFFFFFFFFFFFFFFFFFFFFFFFF AND MUL OR SWAP1 SSTORE POP DUP1 DUP3 PUSH20 0xFFFFFFFFFFFFFFFFFFFFFFFFFFFFFFFFFFFFFFFF AND PUSH2 0x1769 DUP4 PUSH2 0xB41 JUMP JUMPDEST PUSH20 0xFFFFFFFFFFFFFFFFFFFFFFFFFFFFFFFFFFFFFFFF AND PUSH32 0x8C5BE1E5EBEC7D5BD14F71427D1E84F3DD0314C0F7B2291E5B200AC8C7C3B925 PUSH1 0x40 MLOAD PUSH1 0x40 MLOAD DUP1 SWAP2 SUB SWAP1 LOG4 POP POP JUMP JUMPDEST POP JUMP JUMPDEST PUSH1 0x0 DUP1 PUSH1 0x0 PUSH2 0x17CB PUSH8 0xCD20313A7AF67B0B PUSH1 0xC0 SHL PUSH2 0x17AF JUMP JUMPDEST PUSH2 0x17DF PUSH8 0xF560D406AF3F2595 PUSH1 0xC0 SHL PUSH2 0x17AF JUMP JUMPDEST PUSH2 0x17F3 PUSH8 0x77CE42475E14C38 PUSH1 0xC0 SHL PUSH2 0x17AF JUMP JUMPDEST PUSH2 0x1807 PUSH8 0x7196BFB7F37B7AD5 PUSH1 0xC0 SHL PUSH2 0x17AF JUMP JUMPDEST PUSH1 0x41 DUP5 MLOAD EQ PUSH2 0x184B JUMPI PUSH1 0x40 MLOAD PUSH32 0x8C379A000000000000000000000000000000000000000000000000000000000 DUP2 MSTORE PUSH1 0x4 ADD PUSH2 0x1842 SWAP1 PUSH2 0x3BFB JUMP JUMPDEST PUSH1 0x40 MLOAD DUP1 SWAP2 SUB SWAP1 REVERT JUMPDEST PUSH2 0x185F PUSH8 0x93094C3B9EFA5AD8 PUSH1 0xC0 SHL PUSH2 0x17AF JUMP JUMPDEST PUSH2 0x1873 PUSH8 0xE70E3DAD9DD6964 PUSH1 0xC0 SHL PUSH2 0x17AF JUMP JUMPDEST PUSH1 0x20 DUP5 ADD MLOAD SWAP3 POP PUSH1 0x40 DUP5 ADD MLOAD SWAP2 POP PUSH1 0x60 DUP5 ADD MLOAD PUSH1 0x0 BYTE SWAP1 POP SWAP2 SWAP4 SWAP1 SWAP3 POP JUMP JUMPDEST PUSH1 0x0 DUP1 PUSH2 0x189E DUP4 PUSH2 0xB41 JUMP JUMPDEST SWAP1 POP DUP1 PUSH20 0xFFFFFFFFFFFFFFFFFFFFFFFFFFFFFFFFFFFFFFFF AND DUP5 PUSH20 0xFFFFFFFFFFFFFFFFFFFFFFFFFFFFFFFFFFFFFFFF AND EQ DUP1 PUSH2 0x18E0 JUMPI POP PUSH2 0x18DF DUP2 DUP6 PUSH2 0x14B6 JUMP JUMPDEST JUMPDEST DUP1 PUSH2 0x191E JUMPI POP DUP4 PUSH20 0xFFFFFFFFFFFFFFFFFFFFFFFFFFFFFFFFFFFFFFFF AND PUSH2 0x1906 DUP5 PUSH2 0x711 JUMP JUMPDEST PUSH20 0xFFFFFFFFFFFFFFFFFFFFFFFFFFFFFFFFFFFFFFFF AND EQ JUMPDEST SWAP2 POP POP SWAP3 SWAP2 POP POP JUMP JUMPDEST DUP3 PUSH20 0xFFFFFFFFFFFFFFFFFFFFFFFFFFFFFFFFFFFFFFFF AND PUSH2 0x1947 DUP3 PUSH2 0xB41 JUMP JUMPDEST PUSH20 0xFFFFFFFFFFFFFFFFFFFFFFFFFFFFFFFFFFFFFFFF AND EQ PUSH2 0x199D JUMPI PUSH1 0x40 MLOAD PUSH32 0x8C379A000000000000000000000000000000000000000000000000000000000 DUP2 MSTORE PUSH1 0x4 ADD PUSH2 0x1994 SWAP1 PUSH2 0x3C8D JUMP JUMPDEST PUSH1 0x40 MLOAD DUP1 SWAP2 SUB SWAP1 REVERT JUMPDEST PUSH1 0x0 PUSH20 0xFFFFFFFFFFFFFFFFFFFFFFFFFFFFFFFFFFFFFFFF AND DUP3 PUSH20 0xFFFFFFFFFFFFFFFFFFFFFFFFFFFFFFFFFFFFFFFF AND SUB PUSH2 0x1A0C JUMPI PUSH1 0x40 MLOAD PUSH32 0x8C379A000000000000000000000000000000000000000000000000000000000 DUP2 MSTORE PUSH1 0x4 ADD PUSH2 0x1A03 SWAP1 PUSH2 0x3D1F JUMP JUMPDEST PUSH1 0x40 MLOAD DUP1 SWAP2 SUB SWAP1 REVERT JUMPDEST PUSH2 0x1A19 DUP4 DUP4 DUP4 PUSH1 0x1 PUSH2 0x2096 JUMP JUMPDEST DUP3 PUSH20 0xFFFFFFFFFFFFFFFFFFFFFFFFFFFFFFFFFFFFFFFF AND PUSH2 0x1A39 DUP3 PUSH2 0xB41 JUMP JUMPDEST PUSH20 0xFFFFFFFFFFFFFFFFFFFFFFFFFFFFFFFFFFFFFFFF AND EQ PUSH2 0x1A8F JUMPI PUSH1 0x40 MLOAD PUSH32 0x8C379A000000000000000000000000000000000000000000000000000000000 DUP2 MSTORE PUSH1 0x4 ADD PUSH2 0x1A86 SWAP1 PUSH2 0x3C8D JUMP JUMPDEST PUSH1 0x40 MLOAD DUP1 SWAP2 SUB SWAP1 REVERT JUMPDEST PUSH1 0x4 PUSH1 0x0 DUP3 DUP2 MSTORE PUSH1 0x20 ADD SWAP1 DUP2 MSTORE PUSH1 0x20 ADD PUSH1 0x0 KECCAK256 PUSH1 0x0 PUSH2 0x100 EXP DUP2 SLOAD SWAP1 PUSH20 0xFFFFFFFFFFFFFFFFFFFFFFFFFFFFFFFFFFFFFFFF MUL NOT AND SWAP1 SSTORE PUSH1 0x1 PUSH1 0x3 PUSH1 0x0 DUP6 PUSH20 0xFFFFFFFFFFFFFFFFFFFFFFFFFFFFFFFFFFFFFFFF AND PUSH20 0xFFFFFFFFFFFFFFFFFFFFFFFFFFFFFFFFFFFFFFFF AND DUP2 MSTORE PUSH1 0x20 ADD SWAP1 DUP2 MSTORE PUSH1 0x20 ADD PUSH1 0x0 KECCAK256 PUSH1 0x0 DUP3 DUP3 SLOAD SUB SWAP3 POP POP DUP2 SWAP1 SSTORE POP PUSH1 0x1 PUSH1 0x3 PUSH1 0x0 DUP5 PUSH20 0xFFFFFFFFFFFFFFFFFFFFFFFFFFFFFFFFFFFFFFFF AND PUSH20 0xFFFFFFFFFFFFFFFFFFFFFFFFFFFFFFFFFFFFFFFF AND DUP2 MSTORE PUSH1 0x20 ADD SWAP1 DUP2 MSTORE PUSH1 0x20 ADD PUSH1 0x0 KECCAK256 PUSH1 0x0 DUP3 DUP3 SLOAD ADD SWAP3 POP POP DUP2 SWAP1 SSTORE POP DUP2 PUSH1 0x2 PUSH1 0x0 DUP4 DUP2 MSTORE PUSH1 0x20 ADD SWAP1 DUP2 MSTORE PUSH1 0x20 ADD PUSH1 0x0 KECCAK256 PUSH1 0x0 PUSH2 0x100 EXP DUP2 SLOAD DUP2 PUSH20 0xFFFFFFFFFFFFFFFFFFFFFFFFFFFFFFFFFFFFFFFF MUL NOT AND SWAP1 DUP4 PUSH20 0xFFFFFFFFFFFFFFFFFFFFFFFFFFFFFFFFFFFFFFFF AND MUL OR SWAP1 SSTORE POP DUP1 DUP3 PUSH20 0xFFFFFFFFFFFFFFFFFFFFFFFFFFFFFFFFFFFFFFFF AND DUP5 PUSH20 0xFFFFFFFFFFFFFFFFFFFFFFFFFFFFFFFFFFFFFFFF AND PUSH32 0xDDF252AD1BE2C89B69C2B068FC378DAA952BA7F163C4A11628F55A4DF523B3EF PUSH1 0x40 MLOAD PUSH1 0x40 MLOAD DUP1 SWAP2 SUB SWAP1 LOG4 PUSH2 0x1C1B DUP4 DUP4 DUP4 PUSH1 0x1 PUSH2 0x209C JUMP JUMPDEST POP POP POP JUMP JUMPDEST PUSH2 0x1C28 PUSH2 0x16EE JUMP JUMPDEST PUSH20 0xFFFFFFFFFFFFFFFFFFFFFFFFFFFFFFFFFFFFFFFF AND PUSH2 0x1C46 PUSH2 0x1180 JUMP JUMPDEST PUSH20 0xFFFFFFFFFFFFFFFFFFFFFFFFFFFFFFFFFFFFFFFF AND EQ PUSH2 0x1C9C JUMPI PUSH1 0x40 MLOAD PUSH32 0x8C379A000000000000000000000000000000000000000000000000000000000 DUP2 MSTORE PUSH1 0x4 ADD PUSH2 0x1C93 SWAP1 PUSH2 0x3D8B JUMP JUMPDEST PUSH1 0x40 MLOAD DUP1 SWAP2 SUB SWAP1 REVERT JUMPDEST JUMP JUMPDEST PUSH1 0x0 PUSH1 0x2 PUSH1 0x0 DUP4 DUP2 MSTORE PUSH1 0x20 ADD SWAP1 DUP2 MSTORE PUSH1 0x20 ADD PUSH1 0x0 KECCAK256 PUSH1 0x0 SWAP1 SLOAD SWAP1 PUSH2 0x100 EXP SWAP1 DIV PUSH20 0xFFFFFFFFFFFFFFFFFFFFFFFFFFFFFFFFFFFFFFFF AND SWAP1 POP SWAP2 SWAP1 POP JUMP JUMPDEST PUSH2 0x1CF5 DUP3 DUP3 PUSH1 0x40 MLOAD DUP1 PUSH1 0x20 ADD PUSH1 0x40 MSTORE DUP1 PUSH1 0x0 DUP2 MSTORE POP PUSH2 0x20A2 JUMP JUMPDEST POP POP JUMP JUMPDEST PUSH1 0x0 PUSH1 0x6 PUSH1 0x0 SWAP1 SLOAD SWAP1 PUSH2 0x100 EXP SWAP1 DIV PUSH20 0xFFFFFFFFFFFFFFFFFFFFFFFFFFFFFFFFFFFFFFFF AND SWAP1 POP DUP2 PUSH1 0x6 PUSH1 0x0 PUSH2 0x100 EXP DUP2 SLOAD DUP2 PUSH20 0xFFFFFFFFFFFFFFFFFFFFFFFFFFFFFFFFFFFFFFFF MUL NOT AND SWAP1 DUP4 PUSH20 0xFFFFFFFFFFFFFFFFFFFFFFFFFFFFFFFFFFFFFFFF AND MUL OR SWAP1 SSTORE POP DUP2 PUSH20 0xFFFFFFFFFFFFFFFFFFFFFFFFFFFFFFFFFFFFFFFF AND DUP2 PUSH20 0xFFFFFFFFFFFFFFFFFFFFFFFFFFFFFFFFFFFFFFFF AND PUSH32 0x8BE0079C531659141344CD1FD0A4F28419497F9722A3DAAFE3B4186F6B6457E0 PUSH1 0x40 MLOAD PUSH1 0x40 MLOAD DUP1 SWAP2 SUB SWAP1 LOG3 POP POP JUMP JUMPDEST DUP2 PUSH20 0xFFFFFFFFFFFFFFFFFFFFFFFFFFFFFFFFFFFFFFFF AND DUP4 PUSH20 0xFFFFFFFFFFFFFFFFFFFFFFFFFFFFFFFFFFFFFFFF AND SUB PUSH2 0x1E2D JUMPI PUSH1 0x40 MLOAD PUSH32 0x8C379A000000000000000000000000000000000000000000000000000000000 DUP2 MSTORE PUSH1 0x4 ADD PUSH2 0x1E24 SWAP1 PUSH2 0x3DF7 JUMP JUMPDEST PUSH1 0x40 MLOAD DUP1 SWAP2 SUB SWAP1 REVERT JUMPDEST DUP1 PUSH1 0x5 PUSH1 0x0 DUP6 PUSH20 0xFFFFFFFFFFFFFFFFFFFFFFFFFFFFFFFFFFFFFFFF AND PUSH20 0xFFFFFFFFFFFFFFFFFFFFFFFFFFFFFFFFFFFFFFFF AND DUP2 MSTORE PUSH1 0x20 ADD SWAP1 DUP2 MSTORE PUSH1 0x20 ADD PUSH1 0x0 KECCAK256 PUSH1 0x0 DUP5 PUSH20 0xFFFFFFFFFFFFFFFFFFFFFFFFFFFFFFFFFFFFFFFF AND PUSH20 0xFFFFFFFFFFFFFFFFFFFFFFFFFFFFFFFFFFFFFFFF AND DUP2 MSTORE PUSH1 0x20 ADD SWAP1 DUP2 MSTORE PUSH1 0x20 ADD PUSH1 0x0 KECCAK256 PUSH1 0x0 PUSH2 0x100 EXP DUP2 SLOAD DUP2 PUSH1 0xFF MUL NOT AND SWAP1 DUP4 ISZERO ISZERO MUL OR SWAP1 SSTORE POP DUP2 PUSH20 0xFFFFFFFFFFFFFFFFFFFFFFFFFFFFFFFFFFFFFFFF AND DUP4 PUSH20 0xFFFFFFFFFFFFFFFFFFFFFFFFFFFFFFFFFFFFFFFF AND PUSH32 0x17307EAB39AB6107E8899845AD3D59BD9653F200F220920489CA2B5937696C31 DUP4 PUSH1 0x40 MLOAD PUSH2 0x1F1E SWAP2 SWAP1 PUSH2 0x26CB JUMP JUMPDEST PUSH1 0x40 MLOAD DUP1 SWAP2 SUB SWAP1 LOG3 POP POP POP JUMP JUMPDEST PUSH2 0x1F36 DUP5 DUP5 DUP5 PUSH2 0x1927 JUMP JUMPDEST PUSH2 0x1F42 DUP5 DUP5 DUP5 DUP5 PUSH2 0x20FD JUMP JUMPDEST PUSH2 0x1F81 JUMPI PUSH1 0x40 MLOAD PUSH32 0x8C379A000000000000000000000000000000000000000000000000000000000 DUP2 MSTORE PUSH1 0x4 ADD PUSH2 0x1F78 SWAP1 PUSH2 0x3E89 JUMP JUMPDEST PUSH1 0x40 MLOAD DUP1 SWAP2 SUB SWAP1 REVERT JUMPDEST POP POP POP POP JUMP JUMPDEST PUSH1 0x0 DUP1 PUSH20 0xFFFFFFFFFFFFFFFFFFFFFFFFFFFFFFFFFFFFFFFF AND PUSH2 0x1FA9 DUP4 PUSH2 0x1C9E JUMP JUMPDEST PUSH20 0xFFFFFFFFFFFFFFFFFFFFFFFFFFFFFFFFFFFFFFFF AND EQ ISZERO SWAP1 POP SWAP2 SWAP1 POP JUMP JUMPDEST PUSH1 0x60 PUSH1 0x0 PUSH1 0x1 PUSH2 0x1FD7 DUP5 PUSH2 0x2284 JUMP JUMPDEST ADD SWAP1 POP PUSH1 0x0 DUP2 PUSH8 0xFFFFFFFFFFFFFFFF DUP2 GT ISZERO PUSH2 0x1FF6 JUMPI PUSH2 0x1FF5 PUSH2 0x2903 JUMP JUMPDEST JUMPDEST PUSH1 0x40 MLOAD SWAP1 DUP1 DUP3 MSTORE DUP1 PUSH1 0x1F ADD PUSH1 0x1F NOT AND PUSH1 0x20 ADD DUP3 ADD PUSH1 0x40 MSTORE DUP1 ISZERO PUSH2 0x2028 JUMPI DUP2 PUSH1 0x20 ADD PUSH1 0x1 DUP3 MUL DUP1 CALLDATASIZE DUP4 CALLDATACOPY DUP1 DUP3 ADD SWAP2 POP POP SWAP1 POP JUMPDEST POP SWAP1 POP PUSH1 0x0 DUP3 PUSH1 0x20 ADD DUP3 ADD SWAP1 POP JUMPDEST PUSH1 0x1 ISZERO PUSH2 0x208B JUMPI DUP1 DUP1 PUSH1 0x1 SWAP1 SUB SWAP2 POP POP PUSH32 0x3031323334353637383961626364656600000000000000000000000000000000 PUSH1 0xA DUP7 MOD BYTE DUP2 MSTORE8 PUSH1 0xA DUP6 DUP2 PUSH2 0x207F JUMPI PUSH2 0x207E PUSH2 0x3EA9 JUMP JUMPDEST JUMPDEST DIV SWAP5 POP PUSH1 0x0 DUP6 SUB PUSH2 0x2036 JUMPI JUMPDEST DUP2 SWAP4 POP POP POP POP SWAP2 SWAP1 POP JUMP JUMPDEST POP POP POP POP JUMP JUMPDEST POP POP POP POP JUMP JUMPDEST PUSH2 0x20AC DUP4 DUP4 PUSH2 0x23D7 JUMP JUMPDEST PUSH2 0x20B9 PUSH1 0x0 DUP5 DUP5 DUP5 PUSH2 0x20FD JUMP JUMPDEST PUSH2 0x20F8 JUMPI PUSH1 0x40 MLOAD PUSH32 0x8C379A000000000000000000000000000000000000000000000000000000000 DUP2 MSTORE PUSH1 0x4 ADD PUSH2 0x20EF SWAP1 PUSH2 0x3E89 JUMP JUMPDEST PUSH1 0x40 MLOAD DUP1 SWAP2 SUB SWAP1 REVERT JUMPDEST POP POP POP JUMP JUMPDEST PUSH1 0x0 PUSH2 0x211E DUP5 PUSH20 0xFFFFFFFFFFFFFFFFFFFFFFFFFFFFFFFFFFFFFFFF AND PUSH2 0x25F4 JUMP JUMPDEST ISZERO PUSH2 0x2277 JUMPI DUP4 PUSH20 0xFFFFFFFFFFFFFFFFFFFFFFFFFFFFFFFFFFFFFFFF AND PUSH4 0x150B7A02 PUSH2 0x2147 PUSH2 0x16EE JUMP JUMPDEST DUP8 DUP7 DUP7 PUSH1 0x40 MLOAD DUP6 PUSH4 0xFFFFFFFF AND PUSH1 0xE0 SHL DUP2 MSTORE PUSH1 0x4 ADD PUSH2 0x2169 SWAP5 SWAP4 SWAP3 SWAP2 SWAP1 PUSH2 0x3ED8 JUMP JUMPDEST PUSH1 0x20 PUSH1 0x40 MLOAD DUP1 DUP4 SUB DUP2 PUSH1 0x0 DUP8 GAS CALL SWAP3 POP POP POP DUP1 ISZERO PUSH2 0x21A5 JUMPI POP PUSH1 0x40 MLOAD RETURNDATASIZE PUSH1 0x1F NOT PUSH1 0x1F DUP3 ADD AND DUP3 ADD DUP1 PUSH1 0x40 MSTORE POP DUP2 ADD SWAP1 PUSH2 0x21A2 SWAP2 SWAP1 PUSH2 0x3F39 JUMP JUMPDEST PUSH1 0x1 JUMPDEST PUSH2 0x2227 JUMPI RETURNDATASIZE DUP1 PUSH1 0x0 DUP2 EQ PUSH2 0x21D5 JUMPI PUSH1 0x40 MLOAD SWAP2 POP PUSH1 0x1F NOT PUSH1 0x3F RETURNDATASIZE ADD AND DUP3 ADD PUSH1 0x40 MSTORE RETURNDATASIZE DUP3 MSTORE RETURNDATASIZE PUSH1 0x0 PUSH1 0x20 DUP5 ADD RETURNDATACOPY PUSH2 0x21DA JUMP JUMPDEST PUSH1 0x60 SWAP2 POP JUMPDEST POP PUSH1 0x0 DUP2 MLOAD SUB PUSH2 0x221F JUMPI PUSH1 0x40 MLOAD PUSH32 0x8C379A000000000000000000000000000000000000000000000000000000000 DUP2 MSTORE PUSH1 0x4 ADD PUSH2 0x2216 SWAP1 PUSH2 0x3E89 JUMP JUMPDEST PUSH1 0x40 MLOAD DUP1 SWAP2 SUB SWAP1 REVERT JUMPDEST DUP1 MLOAD DUP2 PUSH1 0x20 ADD REVERT JUMPDEST PUSH4 0x150B7A02 PUSH1 0xE0 SHL PUSH28 0xFFFFFFFFFFFFFFFFFFFFFFFFFFFFFFFFFFFFFFFFFFFFFFFFFFFFFFFF NOT AND DUP2 PUSH28 0xFFFFFFFFFFFFFFFFFFFFFFFFFFFFFFFFFFFFFFFFFFFFFFFFFFFFFFFF NOT AND EQ SWAP2 POP POP PUSH2 0x227C JUMP JUMPDEST PUSH1 0x1 SWAP1 POP JUMPDEST SWAP5 SWAP4 POP POP POP POP JUMP JUMPDEST PUSH1 0x0 DUP1 PUSH1 0x0 SWAP1 POP PUSH27 0x184F03E93FF9F4DAA797ED6E38ED64BF6A1F010000000000000000 DUP4 LT PUSH2 0x22E2 JUMPI PUSH27 0x184F03E93FF9F4DAA797ED6E38ED64BF6A1F010000000000000000 DUP4 DUP2 PUSH2 0x22D8 JUMPI PUSH2 0x22D7 PUSH2 0x3EA9 JUMP JUMPDEST JUMPDEST DIV SWAP3 POP PUSH1 0x40 DUP2 ADD SWAP1 POP JUMPDEST PUSH14 0x4EE2D6D415B85ACEF8100000000 DUP4 LT PUSH2 0x231F JUMPI PUSH14 0x4EE2D6D415B85ACEF8100000000 DUP4 DUP2 PUSH2 0x2315 JUMPI PUSH2 0x2314 PUSH2 0x3EA9 JUMP JUMPDEST JUMPDEST DIV SWAP3 POP PUSH1 0x20 DUP2 ADD SWAP1 POP JUMPDEST PUSH7 0x2386F26FC10000 DUP4 LT PUSH2 0x234E JUMPI PUSH7 0x2386F26FC10000 DUP4 DUP2 PUSH2 0x2344 JUMPI PUSH2 0x2343 PUSH2 0x3EA9 JUMP JUMPDEST JUMPDEST DIV SWAP3 POP PUSH1 0x10 DUP2 ADD SWAP1 POP JUMPDEST PUSH4 0x5F5E100 DUP4 LT PUSH2 0x2377 JUMPI PUSH4 0x5F5E100 DUP4 DUP2 PUSH2 0x236D JUMPI PUSH2 0x236C PUSH2 0x3EA9 JUMP JUMPDEST JUMPDEST DIV SWAP3 POP PUSH1 0x8 DUP2 ADD SWAP1 POP JUMPDEST PUSH2 0x2710 DUP4 LT PUSH2 0x239C JUMPI PUSH2 0x2710 DUP4 DUP2 PUSH2 0x2392 JUMPI PUSH2 0x2391 PUSH2 0x3EA9 JUMP JUMPDEST JUMPDEST DIV SWAP3 POP PUSH1 0x4 DUP2 ADD SWAP1 POP JUMPDEST PUSH1 0x64 DUP4 LT PUSH2 0x23BF JUMPI PUSH1 0x64 DUP4 DUP2 PUSH2 0x23B5 JUMPI PUSH2 0x23B4 PUSH2 0x3EA9 JUMP JUMPDEST JUMPDEST DIV SWAP3 POP PUSH1 0x2 DUP2 ADD SWAP1 POP JUMPDEST PUSH1 0xA DUP4 LT PUSH2 0x23CE JUMPI PUSH1 0x1 DUP2 ADD SWAP1 POP JUMPDEST DUP1 SWAP2 POP POP SWAP2 SWAP1 POP JUMP JUMPDEST PUSH1 0x0 PUSH20 0xFFFFFFFFFFFFFFFFFFFFFFFFFFFFFFFFFFFFFFFF AND DUP3 PUSH20 0xFFFFFFFFFFFFFFFFFFFFFFFFFFFFFFFFFFFFFFFF AND SUB PUSH2 0x2446 JUMPI PUSH1 0x40 MLOAD PUSH32 0x8C379A000000000000000000000000000000000000000000000000000000000 DUP2 MSTORE PUSH1 0x4 ADD PUSH2 0x243D SWAP1 PUSH2 0x3FB2 JUMP JUMPDEST PUSH1 0x40 MLOAD DUP1 SWAP2 SUB SWAP1 REVERT JUMPDEST PUSH2 0x244F DUP2 PUSH2 0x1F87 JUMP JUMPDEST ISZERO PUSH2 0x248F JUMPI PUSH1 0x40 MLOAD PUSH32 0x8C379A000000000000000000000000000000000000000000000000000000000 DUP2 MSTORE PUSH1 0x4 ADD PUSH2 0x2486 SWAP1 PUSH2 0x401E JUMP JUMPDEST PUSH1 0x40 MLOAD DUP1 SWAP2 SUB SWAP1 REVERT JUMPDEST PUSH2 0x249D PUSH1 0x0 DUP4 DUP4 PUSH1 0x1 PUSH2 0x2096 JUMP JUMPDEST PUSH2 0x24A6 DUP2 PUSH2 0x1F87 JUMP JUMPDEST ISZERO PUSH2 0x24E6 JUMPI PUSH1 0x40 MLOAD PUSH32 0x8C379A000000000000000000000000000000000000000000000000000000000 DUP2 MSTORE PUSH1 0x4 ADD PUSH2 0x24DD SWAP1 PUSH2 0x401E JUMP JUMPDEST PUSH1 0x40 MLOAD DUP1 SWAP2 SUB SWAP1 REVERT JUMPDEST PUSH1 0x1 PUSH1 0x3 PUSH1 0x0 DUP5 PUSH20 0xFFFFFFFFFFFFFFFFFFFFFFFFFFFFFFFFFFFFFFFF AND PUSH20 0xFFFFFFFFFFFFFFFFFFFFFFFFFFFFFFFFFFFFFFFF AND DUP2 MSTORE PUSH1 0x20 ADD SWAP1 DUP2 MSTORE PUSH1 0x20 ADD PUSH1 0x0 KECCAK256 PUSH1 0x0 DUP3 DUP3 SLOAD ADD SWAP3 POP POP DUP2 SWAP1 SSTORE POP DUP2 PUSH1 0x2 PUSH1 0x0 DUP4 DUP2 MSTORE PUSH1 0x20 ADD SWAP1 DUP2 MSTORE PUSH1 0x20 ADD PUSH1 0x0 KECCAK256 PUSH1 0x0 PUSH2 0x100 EXP DUP2 SLOAD DUP2 PUSH20 0xFFFFFFFFFFFFFFFFFFFFFFFFFFFFFFFFFFFFFFFF MUL NOT AND SWAP1 DUP4 PUSH20 0xFFFFFFFFFFFFFFFFFFFFFFFFFFFFFFFFFFFFFFFF AND MUL OR SWAP1 SSTORE POP DUP1 DUP3 PUSH20 0xFFFFFFFFFFFFFFFFFFFFFFFFFFFFFFFFFFFFFFFF AND PUSH1 0x0 PUSH20 0xFFFFFFFFFFFFFFFFFFFFFFFFFFFFFFFFFFFFFFFF AND PUSH32 0xDDF252AD1BE2C89B69C2B068FC378DAA952BA7F163C4A11628F55A4DF523B3EF PUSH1 0x40 MLOAD PUSH1 0x40 MLOAD DUP1 SWAP2 SUB SWAP1 LOG4 PUSH2 0x25F0 PUSH1 0x0 DUP4 DUP4 PUSH1 0x1 PUSH2 0x209C JUMP JUMPDEST POP POP JUMP JUMPDEST PUSH1 0x0 DUP1 DUP3 PUSH20 0xFFFFFFFFFFFFFFFFFFFFFFFFFFFFFFFFFFFFFFFF AND EXTCODESIZE GT SWAP1 POP SWAP2 SWAP1 POP JUMP JUMPDEST PUSH1 0x0 PUSH1 0x40 MLOAD SWAP1 POP SWAP1 JUMP JUMPDEST PUSH1 0x0 DUP1 REVERT JUMPDEST PUSH1 0x0 DUP1 REVERT JUMPDEST PUSH1 0x0 PUSH32 0xFFFFFFFF00000000000000000000000000000000000000000000000000000000 DUP3 AND SWAP1 POP SWAP2 SWAP1 POP JUMP JUMPDEST PUSH2 0x2660 DUP2 PUSH2 0x262B JUMP JUMPDEST DUP2 EQ PUSH2 0x266B JUMPI PUSH1 0x0 DUP1 REVERT JUMPDEST POP JUMP JUMPDEST PUSH1 0x0 DUP2 CALLDATALOAD SWAP1 POP PUSH2 0x267D DUP2 PUSH2 0x2657 JUMP JUMPDEST SWAP3 SWAP2 POP POP JUMP JUMPDEST PUSH1 0x0 PUSH1 0x20 DUP3 DUP5 SUB SLT ISZERO PUSH2 0x2699 JUMPI PUSH2 0x2698 PUSH2 0x2621 JUMP JUMPDEST JUMPDEST PUSH1 0x0 PUSH2 0x26A7 DUP5 DUP3 DUP6 ADD PUSH2 0x266E JUMP JUMPDEST SWAP2 POP POP SWAP3 SWAP2 POP POP JUMP JUMPDEST PUSH1 0x0 DUP2 ISZERO ISZERO SWAP1 POP SWAP2 SWAP1 POP JUMP JUMPDEST PUSH2 0x26C5 DUP2 PUSH2 0x26B0 JUMP JUMPDEST DUP3 MSTORE POP POP JUMP JUMPDEST PUSH1 0x0 PUSH1 0x20 DUP3 ADD SWAP1 POP PUSH2 0x26E0 PUSH1 0x0 DUP4 ADD DUP5 PUSH2 0x26BC JUMP JUMPDEST SWAP3 SWAP2 POP POP JUMP JUMPDEST PUSH1 0x0 DUP2 MLOAD SWAP1 POP SWAP2 SWAP1 POP JUMP JUMPDEST PUSH1 0x0 DUP3 DUP3 MSTORE PUSH1 0x20 DUP3 ADD SWAP1 POP SWAP3 SWAP2 POP POP JUMP JUMPDEST PUSH1 0x0 JUMPDEST DUP4 DUP2 LT ISZERO PUSH2 0x2720 JUMPI DUP1 DUP3 ADD MLOAD DUP2 DUP5 ADD MSTORE PUSH1 0x20 DUP2 ADD SWAP1 POP PUSH2 0x2705 JUMP JUMPDEST PUSH1 0x0 DUP5 DUP5 ADD MSTORE POP POP POP POP JUMP JUMPDEST PUSH1 0x0 PUSH1 0x1F NOT PUSH1 0x1F DUP4 ADD AND SWAP1 POP SWAP2 SWAP1 POP JUMP JUMPDEST PUSH1 0x0 PUSH2 0x2748 DUP3 PUSH2 0x26E6 JUMP JUMPDEST PUSH2 0x2752 DUP2 DUP6 PUSH2 0x26F1 JUMP JUMPDEST SWAP4 POP PUSH2 0x2762 DUP2 DUP6 PUSH1 0x20 DUP7 ADD PUSH2 0x2702 JUMP JUMPDEST PUSH2 0x276B DUP2 PUSH2 0x272C JUMP JUMPDEST DUP5 ADD SWAP2 POP POP SWAP3 SWAP2 POP POP JUMP JUMPDEST PUSH1 0x0 PUSH1 0x20 DUP3 ADD SWAP1 POP DUP2 DUP2 SUB PUSH1 0x0 DUP4 ADD MSTORE PUSH2 0x2790 DUP2 DUP5 PUSH2 0x273D JUMP JUMPDEST SWAP1 POP SWAP3 SWAP2 POP POP JUMP JUMPDEST PUSH1 0x0 DUP2 SWAP1 POP SWAP2 SWAP1 POP JUMP JUMPDEST PUSH2 0x27AB DUP2 PUSH2 0x2798 JUMP JUMPDEST DUP2 EQ PUSH2 0x27B6 JUMPI PUSH1 0x0 DUP1 REVERT JUMPDEST POP JUMP JUMPDEST PUSH1 0x0 DUP2 CALLDATALOAD SWAP1 POP PUSH2 0x27C8 DUP2 PUSH2 0x27A2 JUMP JUMPDEST SWAP3 SWAP2 POP POP JUMP JUMPDEST PUSH1 0x0 PUSH1 0x20 DUP3 DUP5 SUB SLT ISZERO PUSH2 0x27E4 JUMPI PUSH2 0x27E3 PUSH2 0x2621 JUMP JUMPDEST JUMPDEST PUSH1 0x0 PUSH2 0x27F2 DUP5 DUP3 DUP6 ADD PUSH2 0x27B9 JUMP JUMPDEST SWAP2 POP POP SWAP3 SWAP2 POP POP JUMP JUMPDEST PUSH1 0x0 PUSH20 0xFFFFFFFFFFFFFFFFFFFFFFFFFFFFFFFFFFFFFFFF DUP3 AND SWAP1 POP SWAP2 SWAP1 POP JUMP JUMPDEST PUSH1 0x0 PUSH2 0x2826 DUP3 PUSH2 0x27FB JUMP JUMPDEST SWAP1 POP SWAP2 SWAP1 POP JUMP JUMPDEST PUSH2 0x2836 DUP2 PUSH2 0x281B JUMP JUMPDEST DUP3 MSTORE POP POP JUMP JUMPDEST PUSH1 0x0 PUSH1 0x20 DUP3 ADD SWAP1 POP PUSH2 0x2851 PUSH1 0x0 DUP4 ADD DUP5 PUSH2 0x282D JUMP JUMPDEST SWAP3 SWAP2 POP POP JUMP JUMPDEST PUSH2 0x2860 DUP2 PUSH2 0x281B JUMP JUMPDEST DUP2 EQ PUSH2 0x286B JUMPI PUSH1 0x0 DUP1 REVERT JUMPDEST POP JUMP JUMPDEST PUSH1 0x0 DUP2 CALLDATALOAD SWAP1 POP PUSH2 0x287D DUP2 PUSH2 0x2857 JUMP JUMPDEST SWAP3 SWAP2 POP POP JUMP JUMPDEST PUSH1 0x0 DUP1 PUSH1 0x40 DUP4 DUP6 SUB SLT ISZERO PUSH2 0x289A JUMPI PUSH2 0x2899 PUSH2 0x2621 JUMP JUMPDEST JUMPDEST PUSH1 0x0 PUSH2 0x28A8 DUP6 DUP3 DUP7 ADD PUSH2 0x286E JUMP JUMPDEST SWAP3 POP POP PUSH1 0x20 PUSH2 0x28B9 DUP6 DUP3 DUP7 ADD PUSH2 0x27B9 JUMP JUMPDEST SWAP2 POP POP SWAP3 POP SWAP3 SWAP1 POP JUMP JUMPDEST PUSH1 0x0 DUP2 SWAP1 POP SWAP2 SWAP1 POP JUMP JUMPDEST PUSH2 0x28D6 DUP2 PUSH2 0x28C3 JUMP JUMPDEST DUP2 EQ PUSH2 0x28E1 JUMPI PUSH1 0x0 DUP1 REVERT JUMPDEST POP JUMP JUMPDEST PUSH1 0x0 DUP2 CALLDATALOAD SWAP1 POP PUSH2 0x28F3 DUP2 PUSH2 0x28CD JUMP JUMPDEST SWAP3 SWAP2 POP POP JUMP JUMPDEST PUSH1 0x0 DUP1 REVERT JUMPDEST PUSH1 0x0 DUP1 REVERT JUMPDEST PUSH32 0x4E487B7100000000000000000000000000000000000000000000000000000000 PUSH1 0x0 MSTORE PUSH1 0x41 PUSH1 0x4 MSTORE PUSH1 0x24 PUSH1 0x0 REVERT JUMPDEST PUSH2 0x293B DUP3 PUSH2 0x272C JUMP JUMPDEST DUP2 ADD DUP2 DUP2 LT PUSH8 0xFFFFFFFFFFFFFFFF DUP3 GT OR ISZERO PUSH2 0x295A JUMPI PUSH2 0x2959 PUSH2 0x2903 JUMP JUMPDEST JUMPDEST DUP1 PUSH1 0x40 MSTORE POP POP POP JUMP JUMPDEST PUSH1 0x0 PUSH2 0x296D PUSH2 0x2617 JUMP JUMPDEST SWAP1 POP PUSH2 0x2979 DUP3 DUP3 PUSH2 0x2932 JUMP JUMPDEST SWAP2 SWAP1 POP JUMP JUMPDEST PUSH1 0x0 PUSH8 0xFFFFFFFFFFFFFFFF DUP3 GT ISZERO PUSH2 0x2999 JUMPI PUSH2 0x2998 PUSH2 0x2903 JUMP JUMPDEST JUMPDEST PUSH2 0x29A2 DUP3 PUSH2 0x272C JUMP JUMPDEST SWAP1 POP PUSH1 0x20 DUP2 ADD SWAP1 POP SWAP2 SWAP1 POP JUMP JUMPDEST DUP3 DUP2 DUP4 CALLDATACOPY PUSH1 0x0 DUP4 DUP4 ADD MSTORE POP POP POP JUMP JUMPDEST PUSH1 0x0 PUSH2 0x29D1 PUSH2 0x29CC DUP5 PUSH2 0x297E JUMP JUMPDEST PUSH2 0x2963 JUMP JUMPDEST SWAP1 POP DUP3 DUP2 MSTORE PUSH1 0x20 DUP2 ADD DUP5 DUP5 DUP5 ADD GT ISZERO PUSH2 0x29ED JUMPI PUSH2 0x29EC PUSH2 0x28FE JUMP JUMPDEST JUMPDEST PUSH2 0x29F8 DUP5 DUP3 DUP6 PUSH2 0x29AF JUMP JUMPDEST POP SWAP4 SWAP3 POP POP POP JUMP JUMPDEST PUSH1 0x0 DUP3 PUSH1 0x1F DUP4 ADD SLT PUSH2 0x2A15 JUMPI PUSH2 0x2A14 PUSH2 0x28F9 JUMP JUMPDEST JUMPDEST DUP2 CALLDATALOAD PUSH2 0x2A25 DUP5 DUP3 PUSH1 0x20 DUP7 ADD PUSH2 0x29BE JUMP JUMPDEST SWAP2 POP POP SWAP3 SWAP2 POP POP JUMP JUMPDEST PUSH1 0x0 DUP1 PUSH1 0x40 DUP4 DUP6 SUB SLT ISZERO PUSH2 0x2A45 JUMPI PUSH2 0x2A44 PUSH2 0x2621 JUMP JUMPDEST JUMPDEST PUSH1 0x0 PUSH2 0x2A53 DUP6 DUP3 DUP7 ADD PUSH2 0x28E4 JUMP JUMPDEST SWAP3 POP POP PUSH1 0x20 DUP4 ADD CALLDATALOAD PUSH8 0xFFFFFFFFFFFFFFFF DUP2 GT ISZERO PUSH2 0x2A74 JUMPI PUSH2 0x2A73 PUSH2 0x2626 JUMP JUMPDEST JUMPDEST PUSH2 0x2A80 DUP6 DUP3 DUP7 ADD PUSH2 0x2A00 JUMP JUMPDEST SWAP2 POP POP SWAP3 POP SWAP3 SWAP1 POP JUMP JUMPDEST PUSH1 0x0 DUP1 PUSH1 0x0 PUSH1 0x60 DUP5 DUP7 SUB SLT ISZERO PUSH2 0x2AA3 JUMPI PUSH2 0x2AA2 PUSH2 0x2621 JUMP JUMPDEST JUMPDEST PUSH1 0x0 PUSH2 0x2AB1 DUP7 DUP3 DUP8 ADD PUSH2 0x286E JUMP JUMPDEST SWAP4 POP POP PUSH1 0x20 PUSH2 0x2AC2 DUP7 DUP3 DUP8 ADD PUSH2 0x286E JUMP JUMPDEST SWAP3 POP POP PUSH1 0x40 PUSH2 0x2AD3 DUP7 DUP3 DUP8 ADD PUSH2 0x27B9 JUMP JUMPDEST SWAP2 POP POP SWAP3 POP SWAP3 POP SWAP3 JUMP JUMPDEST PUSH1 0x0 PUSH8 0xFFFFFFFFFFFFFFFF DUP3 GT ISZERO PUSH2 0x2AF8 JUMPI PUSH2 0x2AF7 PUSH2 0x2903 JUMP JUMPDEST JUMPDEST PUSH2 0x2B01 DUP3 PUSH2 0x272C JUMP JUMPDEST SWAP1 POP PUSH1 0x20 DUP2 ADD SWAP1 POP SWAP2 SWAP1 POP JUMP JUMPDEST PUSH1 0x0 PUSH2 0x2B21 PUSH2 0x2B1C DUP5 PUSH2 0x2ADD JUMP JUMPDEST PUSH2 0x2963 JUMP JUMPDEST SWAP1 POP DUP3 DUP2 MSTORE PUSH1 0x20 DUP2 ADD DUP5 DUP5 DUP5 ADD GT ISZERO PUSH2 0x2B3D JUMPI PUSH2 0x2B3C PUSH2 0x28FE JUMP JUMPDEST JUMPDEST PUSH2 0x2B48 DUP5 DUP3 DUP6 PUSH2 0x29AF JUMP JUMPDEST POP SWAP4 SWAP3 POP POP POP JUMP JUMPDEST PUSH1 0x0 DUP3 PUSH1 0x1F DUP4 ADD SLT PUSH2 0x2B65 JUMPI PUSH2 0x2B64 PUSH2 0x28F9 JUMP JUMPDEST JUMPDEST DUP2 CALLDATALOAD PUSH2 0x2B75 DUP5 DUP3 PUSH1 0x20 DUP7 ADD PUSH2 0x2B0E JUMP JUMPDEST SWAP2 POP POP SWAP3 SWAP2 POP POP JUMP JUMPDEST PUSH1 0x0 DUP1 PUSH1 0x0 PUSH1 0x60 DUP5 DUP7 SUB SLT ISZERO PUSH2 0x2B97 JUMPI PUSH2 0x2B96 PUSH2 0x2621 JUMP JUMPDEST JUMPDEST PUSH1 0x0 PUSH2 0x2BA5 DUP7 DUP3 DUP8 ADD PUSH2 0x286E JUMP JUMPDEST SWAP4 POP POP PUSH1 0x20 DUP5 ADD CALLDATALOAD PUSH8 0xFFFFFFFFFFFFFFFF DUP2 GT ISZERO PUSH2 0x2BC6 JUMPI PUSH2 0x2BC5 PUSH2 0x2626 JUMP JUMPDEST JUMPDEST PUSH2 0x2BD2 DUP7 DUP3 DUP8 ADD PUSH2 0x2B50 JUMP JUMPDEST SWAP3 POP POP PUSH1 0x40 DUP5 ADD CALLDATALOAD PUSH8 0xFFFFFFFFFFFFFFFF DUP2 GT ISZERO PUSH2 0x2BF3 JUMPI PUSH2 0x2BF2 PUSH2 0x2626 JUMP JUMPDEST JUMPDEST PUSH2 0x2BFF DUP7 DUP3 DUP8 ADD PUSH2 0x2A00 JUMP JUMPDEST SWAP2 POP POP SWAP3 POP SWAP3 POP SWAP3 JUMP JUMPDEST PUSH1 0x0 DUP1 REVERT JUMPDEST PUSH1 0x0 DUP1 REVERT JUMPDEST PUSH1 0x0 DUP1 DUP4 PUSH1 0x1F DUP5 ADD SLT PUSH2 0x2C29 JUMPI PUSH2 0x2C28 PUSH2 0x28F9 JUMP JUMPDEST JUMPDEST DUP3 CALLDATALOAD SWAP1 POP PUSH8 0xFFFFFFFFFFFFFFFF DUP2 GT ISZERO PUSH2 0x2C46 JUMPI PUSH2 0x2C45 PUSH2 0x2C09 JUMP JUMPDEST JUMPDEST PUSH1 0x20 DUP4 ADD SWAP2 POP DUP4 PUSH1 0x1 DUP3 MUL DUP4 ADD GT ISZERO PUSH2 0x2C62 JUMPI PUSH2 0x2C61 PUSH2 0x2C0E JUMP JUMPDEST JUMPDEST SWAP3 POP SWAP3 SWAP1 POP JUMP JUMPDEST PUSH1 0x0 DUP1 PUSH1 0x20 DUP4 DUP6 SUB SLT ISZERO PUSH2 0x2C80 JUMPI PUSH2 0x2C7F PUSH2 0x2621 JUMP JUMPDEST JUMPDEST PUSH1 0x0 DUP4 ADD CALLDATALOAD PUSH8 0xFFFFFFFFFFFFFFFF DUP2 GT ISZERO PUSH2 0x2C9E JUMPI PUSH2 0x2C9D PUSH2 0x2626 JUMP JUMPDEST JUMPDEST PUSH2 0x2CAA DUP6 DUP3 DUP7 ADD PUSH2 0x2C13 JUMP JUMPDEST SWAP3 POP SWAP3 POP POP SWAP3 POP SWAP3 SWAP1 POP JUMP JUMPDEST PUSH1 0x0 DUP1 PUSH1 0x0 DUP1 PUSH1 0x80 DUP6 DUP8 SUB SLT ISZERO PUSH2 0x2CD0 JUMPI PUSH2 0x2CCF PUSH2 0x2621 JUMP JUMPDEST JUMPDEST PUSH1 0x0 DUP6 ADD CALLDATALOAD PUSH8 0xFFFFFFFFFFFFFFFF DUP2 GT ISZERO PUSH2 0x2CEE JUMPI PUSH2 0x2CED PUSH2 0x2626 JUMP JUMPDEST JUMPDEST PUSH2 0x2CFA DUP8 DUP3 DUP9 ADD PUSH2 0x2B50 JUMP JUMPDEST SWAP5 POP POP PUSH1 0x20 DUP6 ADD CALLDATALOAD PUSH8 0xFFFFFFFFFFFFFFFF DUP2 GT ISZERO PUSH2 0x2D1B JUMPI PUSH2 0x2D1A PUSH2 0x2626 JUMP JUMPDEST JUMPDEST PUSH2 0x2D27 DUP8 DUP3 DUP9 ADD PUSH2 0x2A00 JUMP JUMPDEST SWAP4 POP POP PUSH1 0x40 PUSH2 0x2D38 DUP8 DUP3 DUP9 ADD PUSH2 0x286E JUMP JUMPDEST SWAP3 POP POP PUSH1 0x60 PUSH2 0x2D49 DUP8 DUP3 DUP9 ADD PUSH2 0x27B9 JUMP JUMPDEST SWAP2 POP POP SWAP3 SWAP6 SWAP2 SWAP5 POP SWAP3 POP JUMP JUMPDEST PUSH1 0x0 PUSH1 0x20 DUP3 DUP5 SUB SLT ISZERO PUSH2 0x2D6B JUMPI PUSH2 0x2D6A PUSH2 0x2621 JUMP JUMPDEST JUMPDEST PUSH1 0x0 PUSH2 0x2D79 DUP5 DUP3 DUP6 ADD PUSH2 0x286E JUMP JUMPDEST SWAP2 POP POP SWAP3 SWAP2 POP POP JUMP JUMPDEST PUSH1 0x0 DUP1 DUP4 PUSH1 0x1F DUP5 ADD SLT PUSH2 0x2D98 JUMPI PUSH2 0x2D97 PUSH2 0x28F9 JUMP JUMPDEST JUMPDEST DUP3 CALLDATALOAD SWAP1 POP PUSH8 0xFFFFFFFFFFFFFFFF DUP2 GT ISZERO PUSH2 0x2DB5 JUMPI PUSH2 0x2DB4 PUSH2 0x2C09 JUMP JUMPDEST JUMPDEST PUSH1 0x20 DUP4 ADD SWAP2 POP DUP4 PUSH1 0x20 DUP3 MUL DUP4 ADD GT ISZERO PUSH2 0x2DD1 JUMPI PUSH2 0x2DD0 PUSH2 0x2C0E JUMP JUMPDEST JUMPDEST SWAP3 POP SWAP3 SWAP1 POP JUMP JUMPDEST PUSH1 0x0 DUP1 DUP4 PUSH1 0x1F DUP5 ADD SLT PUSH2 0x2DEE JUMPI PUSH2 0x2DED PUSH2 0x28F9 JUMP JUMPDEST JUMPDEST DUP3 CALLDATALOAD SWAP1 POP PUSH8 0xFFFFFFFFFFFFFFFF DUP2 GT ISZERO PUSH2 0x2E0B JUMPI PUSH2 0x2E0A PUSH2 0x2C09 JUMP JUMPDEST JUMPDEST PUSH1 0x20 DUP4 ADD SWAP2 POP DUP4 PUSH1 0x20 DUP3 MUL DUP4 ADD GT ISZERO PUSH2 0x2E27 JUMPI PUSH2 0x2E26 PUSH2 0x2C0E JUMP JUMPDEST JUMPDEST SWAP3 POP SWAP3 SWAP1 POP JUMP JUMPDEST PUSH1 0x0 DUP1 PUSH1 0x0 DUP1 PUSH1 0x40 DUP6 DUP8 SUB SLT ISZERO PUSH2 0x2E48 JUMPI PUSH2 0x2E47 PUSH2 0x2621 JUMP JUMPDEST JUMPDEST PUSH1 0x0 DUP6 ADD CALLDATALOAD PUSH8 0xFFFFFFFFFFFFFFFF DUP2 GT ISZERO PUSH2 0x2E66 JUMPI PUSH2 0x2E65 PUSH2 0x2626 JUMP JUMPDEST JUMPDEST PUSH2 0x2E72 DUP8 DUP3 DUP9 ADD PUSH2 0x2D82 JUMP JUMPDEST SWAP5 POP SWAP5 POP POP PUSH1 0x20 DUP6 ADD CALLDATALOAD PUSH8 0xFFFFFFFFFFFFFFFF DUP2 GT ISZERO PUSH2 0x2E95 JUMPI PUSH2 0x2E94 PUSH2 0x2626 JUMP JUMPDEST JUMPDEST PUSH2 0x2EA1 DUP8 DUP3 DUP9 ADD PUSH2 0x2DD8 JUMP JUMPDEST SWAP3 POP SWAP3 POP POP SWAP3 SWAP6 SWAP2 SWAP5 POP SWAP3 POP JUMP JUMPDEST PUSH2 0x2EB8 DUP2 PUSH2 0x2798 JUMP JUMPDEST DUP3 MSTORE POP POP JUMP JUMPDEST PUSH1 0x0 PUSH1 0x20 DUP3 ADD SWAP1 POP PUSH2 0x2ED3 PUSH1 0x0 DUP4 ADD DUP5 PUSH2 0x2EAF JUMP JUMPDEST SWAP3 SWAP2 POP POP JUMP JUMPDEST PUSH2 0x2EE2 DUP2 PUSH2 0x26B0 JUMP JUMPDEST DUP2 EQ PUSH2 0x2EED JUMPI PUSH1 0x0 DUP1 REVERT JUMPDEST POP JUMP JUMPDEST PUSH1 0x0 DUP2 CALLDATALOAD SWAP1 POP PUSH2 0x2EFF DUP2 PUSH2 0x2ED9 JUMP JUMPDEST SWAP3 SWAP2 POP POP JUMP JUMPDEST PUSH1 0x0 DUP1 PUSH1 0x40 DUP4 DUP6 SUB SLT ISZERO PUSH2 0x2F1C JUMPI PUSH2 0x2F1B PUSH2 0x2621 JUMP JUMPDEST JUMPDEST PUSH1 0x0 PUSH2 0x2F2A DUP6 DUP3 DUP7 ADD PUSH2 0x286E JUMP JUMPDEST SWAP3 POP POP PUSH1 0x20 PUSH2 0x2F3B DUP6 DUP3 DUP7 ADD PUSH2 0x2EF0 JUMP JUMPDEST SWAP2 POP POP SWAP3 POP SWAP3 SWAP1 POP JUMP JUMPDEST PUSH1 0x0 PUSH1 0x20 DUP3 DUP5 SUB SLT ISZERO PUSH2 0x2F5B JUMPI PUSH2 0x2F5A PUSH2 0x2621 JUMP JUMPDEST JUMPDEST PUSH1 0x0 DUP3 ADD CALLDATALOAD PUSH8 0xFFFFFFFFFFFFFFFF DUP2 GT ISZERO PUSH2 0x2F79 JUMPI PUSH2 0x2F78 PUSH2 0x2626 JUMP JUMPDEST JUMPDEST PUSH2 0x2F85 DUP5 DUP3 DUP6 ADD PUSH2 0x2B50 JUMP JUMPDEST SWAP2 POP POP SWAP3 SWAP2 POP POP JUMP JUMPDEST PUSH2 0x2F97 DUP2 PUSH2 0x28C3 JUMP JUMPDEST DUP3 MSTORE POP POP JUMP JUMPDEST PUSH1 0x0 PUSH1 0x20 DUP3 ADD SWAP1 POP PUSH2 0x2FB2 PUSH1 0x0 DUP4 ADD DUP5 PUSH2 0x2F8E JUMP JUMPDEST SWAP3 SWAP2 POP POP JUMP JUMPDEST PUSH1 0x0 DUP1 PUSH1 0x0 DUP1 PUSH1 0x80 DUP6 DUP8 SUB SLT ISZERO PUSH2 0x2FD2 JUMPI PUSH2 0x2FD1 PUSH2 0x2621 JUMP JUMPDEST JUMPDEST PUSH1 0x0 PUSH2 0x2FE0 DUP8 DUP3 DUP9 ADD PUSH2 0x286E JUMP JUMPDEST SWAP5 POP POP PUSH1 0x20 PUSH2 0x2FF1 DUP8 DUP3 DUP9 ADD PUSH2 0x286E JUMP JUMPDEST SWAP4 POP POP PUSH1 0x40 PUSH2 0x3002 DUP8 DUP3 DUP9 ADD PUSH2 0x27B9 JUMP JUMPDEST SWAP3 POP POP PUSH1 0x60 DUP6 ADD CALLDATALOAD PUSH8 0xFFFFFFFFFFFFFFFF DUP2 GT ISZERO PUSH2 0x3023 JUMPI PUSH2 0x3022 PUSH2 0x2626 JUMP JUMPDEST JUMPDEST PUSH2 0x302F DUP8 DUP3 DUP9 ADD PUSH2 0x2A00 JUMP JUMPDEST SWAP2 POP POP SWAP3 SWAP6 SWAP2 SWAP5 POP SWAP3 POP JUMP JUMPDEST PUSH1 0x0 DUP1 PUSH1 0x40 DUP4 DUP6 SUB SLT ISZERO PUSH2 0x3052 JUMPI PUSH2 0x3051 PUSH2 0x2621 JUMP JUMPDEST JUMPDEST PUSH1 0x0 PUSH2 0x3060 DUP6 DUP3 DUP7 ADD PUSH2 0x286E JUMP JUMPDEST SWAP3 POP POP PUSH1 0x20 PUSH2 0x3071 DUP6 DUP3 DUP7 ADD PUSH2 0x286E JUMP JUMPDEST SWAP2 POP POP SWAP3 POP SWAP3 SWAP1 POP JUMP JUMPDEST PUSH1 0x0 PUSH1 0x20 DUP3 DUP5 SUB SLT ISZERO PUSH2 0x3091 JUMPI PUSH2 0x3090 PUSH2 0x2621 JUMP JUMPDEST JUMPDEST PUSH1 0x0 PUSH2 0x309F DUP5 DUP3 DUP6 ADD PUSH2 0x28E4 JUMP JUMPDEST SWAP2 POP POP SWAP3 SWAP2 POP POP JUMP JUMPDEST PUSH32 0x4E487B7100000000000000000000000000000000000000000000000000000000 PUSH1 0x0 MSTORE PUSH1 0x22 PUSH1 0x4 MSTORE PUSH1 0x24 PUSH1 0x0 REVERT JUMPDEST PUSH1 0x0 PUSH1 0x2 DUP3 DIV SWAP1 POP PUSH1 0x1 DUP3 AND DUP1 PUSH2 0x30EF JUMPI PUSH1 0x7F DUP3 AND SWAP2 POP JUMPDEST PUSH1 0x20 DUP3 LT DUP2 SUB PUSH2 0x3102 JUMPI PUSH2 0x3101 PUSH2 0x30A8 JUMP JUMPDEST JUMPDEST POP SWAP2 SWAP1 POP JUMP JUMPDEST PUSH32 0x4552433732313A20617070726F76616C20746F2063757272656E74206F776E65 PUSH1 0x0 DUP3 ADD MSTORE PUSH32 0x7200000000000000000000000000000000000000000000000000000000000000 PUSH1 0x20 DUP3 ADD MSTORE POP JUMP JUMPDEST PUSH1 0x0 PUSH2 0x3164 PUSH1 0x21 DUP4 PUSH2 0x26F1 JUMP JUMPDEST SWAP2 POP PUSH2 0x316F DUP3 PUSH2 0x3108 JUMP JUMPDEST PUSH1 0x40 DUP3 ADD SWAP1 POP SWAP2 SWAP1 POP JUMP JUMPDEST PUSH1 0x0 PUSH1 0x20 DUP3 ADD SWAP1 POP DUP2 DUP2 SUB PUSH1 0x0 DUP4 ADD MSTORE PUSH2 0x3193 DUP2 PUSH2 0x3157 JUMP JUMPDEST SWAP1 POP SWAP2 SWAP1 POP JUMP JUMPDEST PUSH32 0x4552433732313A20617070726F76652063616C6C6572206973206E6F7420746F PUSH1 0x0 DUP3 ADD MSTORE PUSH32 0x6B656E206F776E6572206F7220617070726F76656420666F7220616C6C000000 PUSH1 0x20 DUP3 ADD MSTORE POP JUMP JUMPDEST PUSH1 0x0 PUSH2 0x31F6 PUSH1 0x3D DUP4 PUSH2 0x26F1 JUMP JUMPDEST SWAP2 POP PUSH2 0x3201 DUP3 PUSH2 0x319A JUMP JUMPDEST PUSH1 0x40 DUP3 ADD SWAP1 POP SWAP2 SWAP1 POP JUMP JUMPDEST PUSH1 0x0 PUSH1 0x20 DUP3 ADD SWAP1 POP DUP2 DUP2 SUB PUSH1 0x0 DUP4 ADD MSTORE PUSH2 0x3225 DUP2 PUSH2 0x31E9 JUMP JUMPDEST SWAP1 POP SWAP2 SWAP1 POP JUMP JUMPDEST PUSH1 0x0 PUSH1 0xFF DUP3 AND SWAP1 POP SWAP2 SWAP1 POP JUMP JUMPDEST PUSH2 0x3242 DUP2 PUSH2 0x322C JUMP JUMPDEST DUP3 MSTORE POP POP JUMP JUMPDEST PUSH1 0x0 PUSH1 0x80 DUP3 ADD SWAP1 POP PUSH2 0x325D PUSH1 0x0 DUP4 ADD DUP8 PUSH2 0x2F8E JUMP JUMPDEST PUSH2 0x326A PUSH1 0x20 DUP4 ADD DUP7 PUSH2 0x3239 JUMP JUMPDEST PUSH2 0x3277 PUSH1 0x40 DUP4 ADD DUP6 PUSH2 0x2F8E JUMP JUMPDEST PUSH2 0x3284 PUSH1 0x60 DUP4 ADD DUP5 PUSH2 0x2F8E JUMP JUMPDEST SWAP6 SWAP5 POP POP POP POP POP JUMP JUMPDEST PUSH32 0x4552433732313A2063616C6C6572206973206E6F7420746F6B656E206F776E65 PUSH1 0x0 DUP3 ADD MSTORE PUSH32 0x72206F7220617070726F76656400000000000000000000000000000000000000 PUSH1 0x20 DUP3 ADD MSTORE POP JUMP JUMPDEST PUSH1 0x0 PUSH2 0x32E9 PUSH1 0x2D DUP4 PUSH2 0x26F1 JUMP JUMPDEST SWAP2 POP PUSH2 0x32F4 DUP3 PUSH2 0x328D JUMP JUMPDEST PUSH1 0x40 DUP3 ADD SWAP1 POP SWAP2 SWAP1 POP JUMP JUMPDEST PUSH1 0x0 PUSH1 0x20 DUP3 ADD SWAP1 POP DUP2 DUP2 SUB PUSH1 0x0 DUP4 ADD MSTORE PUSH2 0x3318 DUP2 PUSH2 0x32DC JUMP JUMPDEST SWAP1 POP SWAP2 SWAP1 POP JUMP JUMPDEST PUSH1 0x0 DUP3 SWAP1 POP SWAP3 SWAP2 POP POP JUMP JUMPDEST PUSH1 0x0 DUP2 SWAP1 POP DUP2 PUSH1 0x0 MSTORE PUSH1 0x20 PUSH1 0x0 KECCAK256 SWAP1 POP SWAP2 SWAP1 POP JUMP JUMPDEST PUSH1 0x0 PUSH1 0x20 PUSH1 0x1F DUP4 ADD DIV SWAP1 POP SWAP2 SWAP1 POP JUMP JUMPDEST PUSH1 0x0 DUP3 DUP3 SHL SWAP1 POP SWAP3 SWAP2 POP POP JUMP JUMPDEST PUSH1 0x0 PUSH1 0x8 DUP4 MUL PUSH2 0x338C PUSH32 0xFFFFFFFFFFFFFFFFFFFFFFFFFFFFFFFFFFFFFFFFFFFFFFFFFFFFFFFFFFFFFFFF DUP3 PUSH2 0x334F JUMP JUMPDEST PUSH2 0x3396 DUP7 DUP4 PUSH2 0x334F JUMP JUMPDEST SWAP6 POP DUP1 NOT DUP5 AND SWAP4 POP DUP1 DUP7 AND DUP5 OR SWAP3 POP POP POP SWAP4 SWAP3 POP POP POP JUMP JUMPDEST PUSH1 0x0 DUP2 SWAP1 POP SWAP2 SWAP1 POP JUMP JUMPDEST PUSH1 0x0 PUSH2 0x33D3 PUSH2 0x33CE PUSH2 0x33C9 DUP5 PUSH2 0x2798 JUMP JUMPDEST PUSH2 0x33AE JUMP JUMPDEST PUSH2 0x2798 JUMP JUMPDEST SWAP1 POP SWAP2 SWAP1 POP JUMP JUMPDEST PUSH1 0x0 DUP2 SWAP1 POP SWAP2 SWAP1 POP JUMP JUMPDEST PUSH2 0x33ED DUP4 PUSH2 0x33B8 JUMP JUMPDEST PUSH2 0x3401 PUSH2 0x33F9 DUP3 PUSH2 0x33DA JUMP JUMPDEST DUP5 DUP5 SLOAD PUSH2 0x335C JUMP JUMPDEST DUP3 SSTORE POP POP POP POP JUMP JUMPDEST PUSH1 0x0 SWAP1 JUMP JUMPDEST PUSH2 0x3416 PUSH2 0x3409 JUMP JUMPDEST PUSH2 0x3421 DUP2 DUP5 DUP5 PUSH2 0x33E4 JUMP JUMPDEST POP POP POP JUMP JUMPDEST JUMPDEST DUP2 DUP2 LT ISZERO PUSH2 0x3445 JUMPI PUSH2 0x343A PUSH1 0x0 DUP3 PUSH2 0x340E JUMP JUMPDEST PUSH1 0x1 DUP2 ADD SWAP1 POP PUSH2 0x3427 JUMP JUMPDEST POP POP JUMP JUMPDEST PUSH1 0x1F DUP3 GT ISZERO PUSH2 0x348A JUMPI PUSH2 0x345B DUP2 PUSH2 0x332A JUMP JUMPDEST PUSH2 0x3464 DUP5 PUSH2 0x333F JUMP JUMPDEST DUP2 ADD PUSH1 0x20 DUP6 LT ISZERO PUSH2 0x3473 JUMPI DUP2 SWAP1 POP JUMPDEST PUSH2 0x3487 PUSH2 0x347F DUP6 PUSH2 0x333F JUMP JUMPDEST DUP4 ADD DUP3 PUSH2 0x3426 JUMP JUMPDEST POP POP JUMPDEST POP POP POP JUMP JUMPDEST PUSH1 0x0 DUP3 DUP3 SHR SWAP1 POP SWAP3 SWAP2 POP POP JUMP JUMPDEST PUSH1 0x0 PUSH2 0x34AD PUSH1 0x0 NOT DUP5 PUSH1 0x8 MUL PUSH2 0x348F JUMP JUMPDEST NOT DUP1 DUP4 AND SWAP2 POP POP SWAP3 SWAP2 POP POP JUMP JUMPDEST PUSH1 0x0 PUSH2 0x34C6 DUP4 DUP4 PUSH2 0x349C JUMP JUMPDEST SWAP2 POP DUP3 PUSH1 0x2 MUL DUP3 OR SWAP1 POP SWAP3 SWAP2 POP POP JUMP JUMPDEST PUSH2 0x34E0 DUP4 DUP4 PUSH2 0x331F JUMP JUMPDEST PUSH8 0xFFFFFFFFFFFFFFFF DUP2 GT ISZERO PUSH2 0x34F9 JUMPI PUSH2 0x34F8 PUSH2 0x2903 JUMP JUMPDEST JUMPDEST PUSH2 0x3503 DUP3 SLOAD PUSH2 0x30D7 JUMP JUMPDEST PUSH2 0x350E DUP3 DUP3 DUP6 PUSH2 0x3449 JUMP JUMPDEST PUSH1 0x0 PUSH1 0x1F DUP4 GT PUSH1 0x1 DUP2 EQ PUSH2 0x353D JUMPI PUSH1 0x0 DUP5 ISZERO PUSH2 0x352B JUMPI DUP3 DUP8 ADD CALLDATALOAD SWAP1 POP JUMPDEST PUSH2 0x3535 DUP6 DUP3 PUSH2 0x34BA JUMP JUMPDEST DUP7 SSTORE POP PUSH2 0x359D JUMP JUMPDEST PUSH1 0x1F NOT DUP5 AND PUSH2 0x354B DUP7 PUSH2 0x332A JUMP JUMPDEST PUSH1 0x0 JUMPDEST DUP3 DUP2 LT ISZERO PUSH2 0x3573 JUMPI DUP5 DUP10 ADD CALLDATALOAD DUP3 SSTORE PUSH1 0x1 DUP3 ADD SWAP2 POP PUSH1 0x20 DUP6 ADD SWAP5 POP PUSH1 0x20 DUP2 ADD SWAP1 POP PUSH2 0x354E JUMP JUMPDEST DUP7 DUP4 LT ISZERO PUSH2 0x3590 JUMPI DUP5 DUP10 ADD CALLDATALOAD PUSH2 0x358C PUSH1 0x1F DUP10 AND DUP3 PUSH2 0x349C JUMP JUMPDEST DUP4 SSTORE POP JUMPDEST PUSH1 0x1 PUSH1 0x2 DUP9 MUL ADD DUP9 SSTORE POP POP POP JUMPDEST POP POP POP POP POP POP POP JUMP JUMPDEST PUSH32 0x4552433732313A20696E76616C696420746F6B656E2049440000000000000000 PUSH1 0x0 DUP3 ADD MSTORE POP JUMP JUMPDEST PUSH1 0x0 PUSH2 0x35DC PUSH1 0x18 DUP4 PUSH2 0x26F1 JUMP JUMPDEST SWAP2 POP PUSH2 0x35E7 DUP3 PUSH2 0x35A6 JUMP JUMPDEST PUSH1 0x20 DUP3 ADD SWAP1 POP SWAP2 SWAP1 POP JUMP JUMPDEST PUSH1 0x0 PUSH1 0x20 DUP3 ADD SWAP1 POP DUP2 DUP2 SUB PUSH1 0x0 DUP4 ADD MSTORE PUSH2 0x360B DUP2 PUSH2 0x35CF JUMP JUMPDEST SWAP1 POP SWAP2 SWAP1 POP JUMP JUMPDEST PUSH1 0x0 DUP2 MLOAD SWAP1 POP SWAP2 SWAP1 POP JUMP JUMPDEST PUSH1 0x0 DUP3 DUP3 MSTORE PUSH1 0x20 DUP3 ADD SWAP1 POP SWAP3 SWAP2 POP POP JUMP JUMPDEST PUSH1 0x0 PUSH2 0x3639 DUP3 PUSH2 0x3612 JUMP JUMPDEST PUSH2 0x3643 DUP2 DUP6 PUSH2 0x361D JUMP JUMPDEST SWAP4 POP PUSH2 0x3653 DUP2 DUP6 PUSH1 0x20 DUP7 ADD PUSH2 0x2702 JUMP JUMPDEST PUSH2 0x365C DUP2 PUSH2 0x272C JUMP JUMPDEST DUP5 ADD SWAP2 POP POP SWAP3 SWAP2 POP POP JUMP JUMPDEST PUSH1 0x0 PUSH1 0x60 DUP3 ADD SWAP1 POP PUSH2 0x367C PUSH1 0x0 DUP4 ADD DUP7 PUSH2 0x282D JUMP JUMPDEST DUP2 DUP2 SUB PUSH1 0x20 DUP4 ADD MSTORE PUSH2 0x368E DUP2 DUP6 PUSH2 0x273D JUMP JUMPDEST SWAP1 POP DUP2 DUP2 SUB PUSH1 0x40 DUP4 ADD MSTORE PUSH2 0x36A2 DUP2 DUP5 PUSH2 0x362E JUMP JUMPDEST SWAP1 POP SWAP5 SWAP4 POP POP POP POP JUMP JUMPDEST PUSH1 0x0 DUP2 MLOAD SWAP1 POP PUSH2 0x36BB DUP2 PUSH2 0x2ED9 JUMP JUMPDEST SWAP3 SWAP2 POP POP JUMP JUMPDEST PUSH1 0x0 PUSH1 0x20 DUP3 DUP5 SUB SLT ISZERO PUSH2 0x36D7 JUMPI PUSH2 0x36D6 PUSH2 0x2621 JUMP JUMPDEST JUMPDEST PUSH1 0x0 PUSH2 0x36E5 DUP5 DUP3 DUP6 ADD PUSH2 0x36AC JUMP JUMPDEST SWAP2 POP POP SWAP3 SWAP2 POP POP JUMP JUMPDEST PUSH32 0x496E76616C6964207369676E6572000000000000000000000000000000000000 PUSH1 0x0 DUP3 ADD MSTORE POP JUMP JUMPDEST PUSH1 0x0 PUSH2 0x3724 PUSH1 0xE DUP4 PUSH2 0x26F1 JUMP JUMPDEST SWAP2 POP PUSH2 0x372F DUP3 PUSH2 0x36EE JUMP JUMPDEST PUSH1 0x20 DUP3 ADD SWAP1 POP SWAP2 SWAP1 POP JUMP JUMPDEST PUSH1 0x0 PUSH1 0x20 DUP3 ADD SWAP1 POP DUP2 DUP2 SUB PUSH1 0x0 DUP4 ADD MSTORE PUSH2 0x3753 DUP2 PUSH2 0x3717 JUMP JUMPDEST SWAP1 POP SWAP2 SWAP1 POP JUMP JUMPDEST PUSH32 0x4172726179732073686F756C642068617665207468652073616D652073697A65 PUSH1 0x0 DUP3 ADD MSTORE POP JUMP JUMPDEST PUSH1 0x0 PUSH2 0x3790 PUSH1 0x20 DUP4 PUSH2 0x26F1 JUMP JUMPDEST SWAP2 POP PUSH2 0x379B DUP3 PUSH2 0x375A JUMP JUMPDEST PUSH1 0x20 DUP3 ADD SWAP1 POP SWAP2 SWAP1 POP JUMP JUMPDEST PUSH1 0x0 PUSH1 0x20 DUP3 ADD SWAP1 POP DUP2 DUP2 SUB PUSH1 0x0 DUP4 ADD MSTORE PUSH2 0x37BF DUP2 PUSH2 0x3783 JUMP JUMPDEST SWAP1 POP SWAP2 SWAP1 POP JUMP JUMPDEST PUSH32 0x4E487B7100000000000000000000000000000000000000000000000000000000 PUSH1 0x0 MSTORE PUSH1 0x32 PUSH1 0x4 MSTORE PUSH1 0x24 PUSH1 0x0 REVERT JUMPDEST PUSH32 0x4E487B7100000000000000000000000000000000000000000000000000000000 PUSH1 0x0 MSTORE PUSH1 0x11 PUSH1 0x4 MSTORE PUSH1 0x24 PUSH1 0x0 REVERT JUMPDEST PUSH1 0x0 PUSH2 0x382F DUP3 PUSH2 0x2798 JUMP JUMPDEST SWAP2 POP PUSH32 0xFFFFFFFFFFFFFFFFFFFFFFFFFFFFFFFFFFFFFFFFFFFFFFFFFFFFFFFFFFFFFFFF DUP3 SUB PUSH2 0x3861 JUMPI PUSH2 0x3860 PUSH2 0x37F5 JUMP JUMPDEST JUMPDEST PUSH1 0x1 DUP3 ADD SWAP1 POP SWAP2 SWAP1 POP JUMP JUMPDEST PUSH32 0x4552433732313A2061646472657373207A65726F206973206E6F742061207661 PUSH1 0x0 DUP3 ADD MSTORE PUSH32 0x6C6964206F776E65720000000000000000000000000000000000000000000000 PUSH1 0x20 DUP3 ADD MSTORE POP JUMP JUMPDEST PUSH1 0x0 PUSH2 0x38C8 PUSH1 0x29 DUP4 PUSH2 0x26F1 JUMP JUMPDEST SWAP2 POP PUSH2 0x38D3 DUP3 PUSH2 0x386C JUMP JUMPDEST PUSH1 0x40 DUP3 ADD SWAP1 POP SWAP2 SWAP1 POP JUMP JUMPDEST PUSH1 0x0 PUSH1 0x20 DUP3 ADD SWAP1 POP DUP2 DUP2 SUB PUSH1 0x0 DUP4 ADD MSTORE PUSH2 0x38F7 DUP2 PUSH2 0x38BB JUMP JUMPDEST SWAP1 POP SWAP2 SWAP1 POP JUMP JUMPDEST PUSH1 0x0 DUP2 SWAP1 POP SWAP3 SWAP2 POP POP JUMP JUMPDEST PUSH1 0x0 PUSH2 0x3914 DUP3 PUSH2 0x26E6 JUMP JUMPDEST PUSH2 0x391E DUP2 DUP6 PUSH2 0x38FE JUMP JUMPDEST SWAP4 POP PUSH2 0x392E DUP2 DUP6 PUSH1 0x20 DUP7 ADD PUSH2 0x2702 JUMP JUMPDEST DUP1 DUP5 ADD SWAP2 POP POP SWAP3 SWAP2 POP POP JUMP JUMPDEST PUSH1 0x0 PUSH2 0x3946 DUP3 DUP5 PUSH2 0x3909 JUMP JUMPDEST SWAP2 POP DUP2 SWAP1 POP SWAP3 SWAP2 POP POP JUMP JUMPDEST PUSH32 0x4552433732314D657461646174613A2055524920717565727920666F72206E6F PUSH1 0x0 DUP3 ADD MSTORE PUSH32 0x6E6578697374656E7420746F6B656E0000000000000000000000000000000000 PUSH1 0x20 DUP3 ADD MSTORE POP JUMP JUMPDEST PUSH1 0x0 PUSH2 0x39AD PUSH1 0x2F DUP4 PUSH2 0x26F1 JUMP JUMPDEST SWAP2 POP PUSH2 0x39B8 DUP3 PUSH2 0x3951 JUMP JUMPDEST PUSH1 0x40 DUP3 ADD SWAP1 POP SWAP2 SWAP1 POP JUMP JUMPDEST PUSH1 0x0 PUSH1 0x20 DUP3 ADD SWAP1 POP DUP2 DUP2 SUB PUSH1 0x0 DUP4 ADD MSTORE PUSH2 0x39DC DUP2 PUSH2 0x39A0 JUMP JUMPDEST SWAP1 POP SWAP2 SWAP1 POP JUMP JUMPDEST PUSH1 0x0 DUP2 SLOAD PUSH2 0x39F0 DUP2 PUSH2 0x30D7 JUMP JUMPDEST PUSH2 0x39FA DUP2 DUP7 PUSH2 0x38FE JUMP JUMPDEST SWAP5 POP PUSH1 0x1 DUP3 AND PUSH1 0x0 DUP2 EQ PUSH2 0x3A15 JUMPI PUSH1 0x1 DUP2 EQ PUSH2 0x3A2A JUMPI PUSH2 0x3A5D JUMP JUMPDEST PUSH1 0xFF NOT DUP4 AND DUP7 MSTORE DUP2 ISZERO ISZERO DUP3 MUL DUP7 ADD SWAP4 POP PUSH2 0x3A5D JUMP JUMPDEST PUSH2 0x3A33 DUP6 PUSH2 0x332A JUMP JUMPDEST PUSH1 0x0 JUMPDEST DUP4 DUP2 LT ISZERO PUSH2 0x3A55 JUMPI DUP2 SLOAD DUP2 DUP10 ADD MSTORE PUSH1 0x1 DUP3 ADD SWAP2 POP PUSH1 0x20 DUP2 ADD SWAP1 POP PUSH2 0x3A36 JUMP JUMPDEST DUP4 DUP9 ADD SWAP6 POP POP POP JUMPDEST POP POP POP SWAP3 SWAP2 POP POP JUMP JUMPDEST PUSH1 0x0 PUSH2 0x3A72 DUP3 DUP6 PUSH2 0x39E3 JUMP JUMPDEST SWAP2 POP PUSH2 0x3A7E DUP3 DUP5 PUSH2 0x3909 JUMP JUMPDEST SWAP2 POP DUP2 SWAP1 POP SWAP4 SWAP3 POP POP POP JUMP JUMPDEST PUSH32 0x4F776E61626C653A206E6577206F776E657220697320746865207A65726F2061 PUSH1 0x0 DUP3 ADD MSTORE PUSH32 0x6464726573730000000000000000000000000000000000000000000000000000 PUSH1 0x20 DUP3 ADD MSTORE POP JUMP JUMPDEST PUSH1 0x0 PUSH2 0x3AE6 PUSH1 0x26 DUP4 PUSH2 0x26F1 JUMP JUMPDEST SWAP2 POP PUSH2 0x3AF1 DUP3 PUSH2 0x3A8A JUMP JUMPDEST PUSH1 0x40 DUP3 ADD SWAP1 POP SWAP2 SWAP1 POP JUMP JUMPDEST PUSH1 0x0 PUSH1 0x20 DUP3 ADD SWAP1 POP DUP2 DUP2 SUB PUSH1 0x0 DUP4 ADD MSTORE PUSH2 0x3B15 DUP2 PUSH2 0x3AD9 JUMP JUMPDEST SWAP1 POP SWAP2 SWAP1 POP JUMP JUMPDEST PUSH32 0x19457468657265756D205369676E6564204D6573736167653A0A333200000000 PUSH1 0x0 DUP3 ADD MSTORE POP JUMP JUMPDEST PUSH1 0x0 PUSH2 0x3B52 PUSH1 0x1C DUP4 PUSH2 0x38FE JUMP JUMPDEST SWAP2 POP PUSH2 0x3B5D DUP3 PUSH2 0x3B1C JUMP JUMPDEST PUSH1 0x1C DUP3 ADD SWAP1 POP SWAP2 SWAP1 POP JUMP JUMPDEST PUSH1 0x0 DUP2 SWAP1 POP SWAP2 SWAP1 POP JUMP JUMPDEST PUSH2 0x3B83 PUSH2 0x3B7E DUP3 PUSH2 0x28C3 JUMP JUMPDEST PUSH2 0x3B68 JUMP JUMPDEST DUP3 MSTORE POP POP JUMP JUMPDEST PUSH1 0x0 PUSH2 0x3B94 DUP3 PUSH2 0x3B45 JUMP JUMPDEST SWAP2 POP PUSH2 0x3BA0 DUP3 DUP5 PUSH2 0x3B72 JUMP JUMPDEST PUSH1 0x20 DUP3 ADD SWAP2 POP DUP2 SWAP1 POP SWAP3 SWAP2 POP POP JUMP JUMPDEST PUSH32 0x496E76616C6964207369676E6174757265206C656E6774682100000000000000 PUSH1 0x0 DUP3 ADD MSTORE POP JUMP JUMPDEST PUSH1 0x0 PUSH2 0x3BE5 PUSH1 0x19 DUP4 PUSH2 0x26F1 JUMP JUMPDEST SWAP2 POP PUSH2 0x3BF0 DUP3 PUSH2 0x3BAF JUMP JUMPDEST PUSH1 0x20 DUP3 ADD SWAP1 POP SWAP2 SWAP1 POP JUMP JUMPDEST PUSH1 0x0 PUSH1 0x20 DUP3 ADD SWAP1 POP DUP2 DUP2 SUB PUSH1 0x0 DUP4 ADD MSTORE PUSH2 0x3C14 DUP2 PUSH2 0x3BD8 JUMP JUMPDEST SWAP1 POP SWAP2 SWAP1 POP JUMP JUMPDEST PUSH32 0x4552433732313A207472616E736665722066726F6D20696E636F727265637420 PUSH1 0x0 DUP3 ADD MSTORE PUSH32 0x6F776E6572000000000000000000000000000000000000000000000000000000 PUSH1 0x20 DUP3 ADD MSTORE POP JUMP JUMPDEST PUSH1 0x0 PUSH2 0x3C77 PUSH1 0x25 DUP4 PUSH2 0x26F1 JUMP JUMPDEST SWAP2 POP PUSH2 0x3C82 DUP3 PUSH2 0x3C1B JUMP JUMPDEST PUSH1 0x40 DUP3 ADD SWAP1 POP SWAP2 SWAP1 POP JUMP JUMPDEST PUSH1 0x0 PUSH1 0x20 DUP3 ADD SWAP1 POP DUP2 DUP2 SUB PUSH1 0x0 DUP4 ADD MSTORE PUSH2 0x3CA6 DUP2 PUSH2 0x3C6A JUMP JUMPDEST SWAP1 POP SWAP2 SWAP1 POP JUMP JUMPDEST PUSH32 0x4552433732313A207472616E7366657220746F20746865207A65726F20616464 PUSH1 0x0 DUP3 ADD MSTORE PUSH32 0x7265737300000000000000000000000000000000000000000000000000000000 PUSH1 0x20 DUP3 ADD MSTORE POP JUMP JUMPDEST PUSH1 0x0 PUSH2 0x3D09 PUSH1 0x24 DUP4 PUSH2 0x26F1 JUMP JUMPDEST SWAP2 POP PUSH2 0x3D14 DUP3 PUSH2 0x3CAD JUMP JUMPDEST PUSH1 0x40 DUP3 ADD SWAP1 POP SWAP2 SWAP1 POP JUMP JUMPDEST PUSH1 0x0 PUSH1 0x20 DUP3 ADD SWAP1 POP DUP2 DUP2 SUB PUSH1 0x0 DUP4 ADD MSTORE PUSH2 0x3D38 DUP2 PUSH2 0x3CFC JUMP JUMPDEST SWAP1 POP SWAP2 SWAP1 POP JUMP JUMPDEST PUSH32 0x4F776E61626C653A2063616C6C6572206973206E6F7420746865206F776E6572 PUSH1 0x0 DUP3 ADD MSTORE POP JUMP JUMPDEST PUSH1 0x0 PUSH2 0x3D75 PUSH1 0x20 DUP4 PUSH2 0x26F1 JUMP JUMPDEST SWAP2 POP PUSH2 0x3D80 DUP3 PUSH2 0x3D3F JUMP JUMPDEST PUSH1 0x20 DUP3 ADD SWAP1 POP SWAP2 SWAP1 POP JUMP JUMPDEST PUSH1 0x0 PUSH1 0x20 DUP3 ADD SWAP1 POP DUP2 DUP2 SUB PUSH1 0x0 DUP4 ADD MSTORE PUSH2 0x3DA4 DUP2 PUSH2 0x3D68 JUMP JUMPDEST SWAP1 POP SWAP2 SWAP1 POP JUMP JUMPDEST PUSH32 0x4552433732313A20617070726F766520746F2063616C6C657200000000000000 PUSH1 0x0 DUP3 ADD MSTORE POP JUMP JUMPDEST PUSH1 0x0 PUSH2 0x3DE1 PUSH1 0x19 DUP4 PUSH2 0x26F1 JUMP JUMPDEST SWAP2 POP PUSH2 0x3DEC DUP3 PUSH2 0x3DAB JUMP JUMPDEST PUSH1 0x20 DUP3 ADD SWAP1 POP SWAP2 SWAP1 POP JUMP JUMPDEST PUSH1 0x0 PUSH1 0x20 DUP3 ADD SWAP1 POP DUP2 DUP2 SUB PUSH1 0x0 DUP4 ADD MSTORE PUSH2 0x3E10 DUP2 PUSH2 0x3DD4 JUMP JUMPDEST SWAP1 POP SWAP2 SWAP1 POP JUMP JUMPDEST PUSH32 0x4552433732313A207472616E7366657220746F206E6F6E204552433732315265 PUSH1 0x0 DUP3 ADD MSTORE PUSH32 0x63656976657220696D706C656D656E7465720000000000000000000000000000 PUSH1 0x20 DUP3 ADD MSTORE POP JUMP JUMPDEST PUSH1 0x0 PUSH2 0x3E73 PUSH1 0x32 DUP4 PUSH2 0x26F1 JUMP JUMPDEST SWAP2 POP PUSH2 0x3E7E DUP3 PUSH2 0x3E17 JUMP JUMPDEST PUSH1 0x40 DUP3 ADD SWAP1 POP SWAP2 SWAP1 POP JUMP JUMPDEST PUSH1 0x0 PUSH1 0x20 DUP3 ADD SWAP1 POP DUP2 DUP2 SUB PUSH1 0x0 DUP4 ADD MSTORE PUSH2 0x3EA2 DUP2 PUSH2 0x3E66 JUMP JUMPDEST SWAP1 POP SWAP2 SWAP1 POP JUMP JUMPDEST PUSH32 0x4E487B7100000000000000000000000000000000000000000000000000000000 PUSH1 0x0 MSTORE PUSH1 0x12 PUSH1 0x4 MSTORE PUSH1 0x24 PUSH1 0x0 REVERT JUMPDEST PUSH1 0x0 PUSH1 0x80 DUP3 ADD SWAP1 POP PUSH2 0x3EED PUSH1 0x0 DUP4 ADD DUP8 PUSH2 0x282D JUMP JUMPDEST PUSH2 0x3EFA PUSH1 0x20 DUP4 ADD DUP7 PUSH2 0x282D JUMP JUMPDEST PUSH2 0x3F07 PUSH1 0x40 DUP4 ADD DUP6 PUSH2 0x2EAF JUMP JUMPDEST DUP2 DUP2 SUB PUSH1 0x60 DUP4 ADD MSTORE PUSH2 0x3F19 DUP2 DUP5 PUSH2 0x362E JUMP JUMPDEST SWAP1 POP SWAP6 SWAP5 POP POP POP POP POP JUMP JUMPDEST PUSH1 0x0 DUP2 MLOAD SWAP1 POP PUSH2 0x3F33 DUP2 PUSH2 0x2657 JUMP JUMPDEST SWAP3 SWAP2 POP POP JUMP JUMPDEST PUSH1 0x0 PUSH1 0x20 DUP3 DUP5 SUB SLT ISZERO PUSH2 0x3F4F JUMPI PUSH2 0x3F4E PUSH2 0x2621 JUMP JUMPDEST JUMPDEST PUSH1 0x0 PUSH2 0x3F5D DUP5 DUP3 DUP6 ADD PUSH2 0x3F24 JUMP JUMPDEST SWAP2 POP POP SWAP3 SWAP2 POP POP JUMP JUMPDEST PUSH32 0x4552433732313A206D696E7420746F20746865207A65726F2061646472657373 PUSH1 0x0 DUP3 ADD MSTORE POP JUMP JUMPDEST PUSH1 0x0 PUSH2 0x3F9C PUSH1 0x20 DUP4 PUSH2 0x26F1 JUMP JUMPDEST SWAP2 POP PUSH2 0x3FA7 DUP3 PUSH2 0x3F66 JUMP JUMPDEST PUSH1 0x20 DUP3 ADD SWAP1 POP SWAP2 SWAP1 POP JUMP JUMPDEST PUSH1 0x0 PUSH1 0x20 DUP3 ADD SWAP1 POP DUP2 DUP2 SUB PUSH1 0x0 DUP4 ADD MSTORE PUSH2 0x3FCB DUP2 PUSH2 0x3F8F JUMP JUMPDEST SWAP1 POP SWAP2 SWAP1 POP JUMP JUMPDEST PUSH32 0x4552433732313A20746F6B656E20616C7265616479206D696E74656400000000 PUSH1 0x0 DUP3 ADD MSTORE POP JUMP JUMPDEST PUSH1 0x0 PUSH2 0x4008 PUSH1 0x1C DUP4 PUSH2 0x26F1 JUMP JUMPDEST SWAP2 POP PUSH2 0x4013 DUP3 PUSH2 0x3FD2 JUMP JUMPDEST PUSH1 0x20 DUP3 ADD SWAP1 POP SWAP2 SWAP1 POP JUMP JUMPDEST PUSH1 0x0 PUSH1 0x20 DUP3 ADD SWAP1 POP DUP2 DUP2 SUB PUSH1 0x0 DUP4 ADD MSTORE PUSH2 0x4037 DUP2 PUSH2 0x3FFB JUMP JUMPDEST SWAP1 POP SWAP2 SWAP1 POP JUMP INVALID LOG2 PUSH5 0x6970667358 0x22 SLT KECCAK256 0xB1 0xC0 PUSH7 0xCA373BA1A1317A 0xD0 0xBF 0xA5 0xE5 0x2A 0xC5 0xDF 0x28 SGT 0x2F EXTCODESIZE DUP5 ADDRESS 0xB1 0xB3 CALLER 0xC0 0xF 0x4C JUMP 0xAA GAS PUSH5 0x736F6C6343 STOP ADDMOD SLT STOP CALLER PUSH9 0x747470733A2F2F7465 PUSH20 0x746E6574732E6F70656E7365612E696F2F617373 PUSH6 0x74732F617262 PUSH10 0x7472756D2D676F65726C PUSH10 0x2F000000000000000000 "},"methodIdentifiers":{"approve(address,uint256)":"095ea7b3","balanceOf(address)":"70a08231","baseTokenURI()":"d547cfb7","getApproved(uint256)":"081812fc","getBaseURI()":"714c5398","getEthSignedMessageHash(bytes32)":"fa540801","getMessageHash(string)":"b446f3b2","getSigner()":"7ac3c02f","isApprovedForAll(address,address)":"e985e9c5","name()":"06fdde03","owner()":"8da5cb5b","ownerMint(uint256[],address[])":"6e9849dd","ownerOf(uint256)":"6352211e","recover(bytes32,bytes)":"19045a25","renounceOwnership()":"715018a6","safeTransferFrom(address,address,uint256)":"42842e0e","safeTransferFrom(address,address,uint256,bytes)":"b88d4fde","setApprovalForAll(address,bool)":"a22cb465","setBaseURI(string)":"55f804b3","setSigner(address)":"6c19e783","signer()":"238ac933","supportsInterface(bytes4)":"01ffc9a7","symbol()":"95d89b41","tokenURI(uint256)":"c87b56dd","transferFrom(address,address,uint256)":"23b872dd","transferOwnership(address)":"f2fde38b","verify(address,string,bytes)":"2dd34f0f","verifyAndMint(string,bytes,address,uint256)":"654886be"}}}}}