{
  "_format": "hh-sol-artifact-1",
  "contractName": "RuniverseItemMinter",
  "sourceName": "contracts/RuniverseItemMinter.sol",
  "abi": [
    {
      "inputs": [
        {
          "internalType": "contract IRuniverseItem",
          "name": "_runiverseItem",
          "type": "address"
        },
        {
          "internalType": "address",
          "name": "_signer",
          "type": "address"
        }
      ],
      "stateMutability": "nonpayable",
      "type": "constructor"
    },
    {
      "inputs": [],
      "name": "Address0Error",
      "type": "error"
    },
    {
      "anonymous": false,
      "inputs": [
        {
          "indexed": true,
          "internalType": "address",
          "name": "previousOwner",
          "type": "address"
        },
        {
          "indexed": true,
          "internalType": "address",
          "name": "newOwner",
          "type": "address"
        }
      ],
      "name": "OwnershipTransferred",
      "type": "event"
    },
    {
      "inputs": [
        {
          "internalType": "contract IERC20",
          "name": "token",
          "type": "address"
        },
        {
          "internalType": "uint256",
          "name": "amount",
          "type": "uint256"
        }
      ],
      "name": "forwardERC20s",
      "outputs": [],
      "stateMutability": "nonpayable",
      "type": "function"
    },
    {
      "inputs": [
        {
          "internalType": "bytes32",
          "name": "_messageHash",
          "type": "bytes32"
        }
      ],
      "name": "getEthSignedMessageHash",
      "outputs": [
        {
          "internalType": "bytes32",
          "name": "",
          "type": "bytes32"
        }
      ],
      "stateMutability": "pure",
      "type": "function"
    },
    {
      "inputs": [
        {
          "internalType": "string",
          "name": "_message",
          "type": "string"
        }
      ],
      "name": "getMessageHash",
      "outputs": [
        {
          "internalType": "bytes32",
          "name": "",
          "type": "bytes32"
        }
      ],
      "stateMutability": "pure",
      "type": "function"
    },
    {
      "inputs": [],
      "name": "getSigner",
      "outputs": [
        {
          "internalType": "address",
          "name": "",
          "type": "address"
        }
      ],
      "stateMutability": "view",
      "type": "function"
    },
    {
      "inputs": [],
      "name": "owner",
      "outputs": [
        {
          "internalType": "address",
          "name": "",
          "type": "address"
        }
      ],
      "stateMutability": "view",
      "type": "function"
    },
    {
      "inputs": [
        {
          "internalType": "uint256[]",
          "name": "tokenIds",
          "type": "uint256[]"
        },
        {
          "internalType": "address[]",
          "name": "recipients",
          "type": "address[]"
        }
      ],
      "name": "ownerMint",
      "outputs": [],
      "stateMutability": "nonpayable",
      "type": "function"
    },
    {
      "inputs": [],
      "name": "renounceOwnership",
      "outputs": [],
      "stateMutability": "nonpayable",
      "type": "function"
    },
    {
      "inputs": [],
      "name": "runiverseItem",
      "outputs": [
        {
          "internalType": "contract IRuniverseItem",
          "name": "",
          "type": "address"
        }
      ],
      "stateMutability": "view",
      "type": "function"
    },
    {
      "inputs": [
        {
          "internalType": "contract IRuniverseItem",
          "name": "_newruniverseItemAddress",
          "type": "address"
        }
      ],
      "name": "setRuniverseItem",
      "outputs": [],
      "stateMutability": "nonpayable",
      "type": "function"
    },
    {
      "inputs": [
        {
          "internalType": "address",
          "name": "_signer",
          "type": "address"
        }
      ],
      "name": "setSigner",
      "outputs": [],
      "stateMutability": "nonpayable",
      "type": "function"
    },
    {
      "inputs": [],
      "name": "signer",
      "outputs": [
        {
          "internalType": "address",
          "name": "",
          "type": "address"
        }
      ],
      "stateMutability": "view",
      "type": "function"
    },
    {
      "inputs": [
        {
          "internalType": "address",
          "name": "newOwner",
          "type": "address"
        }
      ],
      "name": "transferOwnership",
      "outputs": [],
      "stateMutability": "nonpayable",
      "type": "function"
    },
    {
      "inputs": [
        {
          "internalType": "string",
          "name": "_message",
          "type": "string"
        },
        {
          "internalType": "bytes",
          "name": "_signature",
          "type": "bytes"
        }
      ],
      "name": "verify",
      "outputs": [
        {
          "internalType": "bool",
          "name": "",
          "type": "bool"
        }
      ],
      "stateMutability": "view",
      "type": "function"
    },
    {
      "inputs": [
        {
          "internalType": "bytes",
          "name": "signature",
          "type": "bytes"
        },
        {
          "internalType": "uint256",
          "name": "tokenId",
          "type": "uint256"
        }
      ],
      "name": "verifyAndMint",
      "outputs": [],
      "stateMutability": "nonpayable",
      "type": "function"
    },
    {
      "inputs": [],
      "name": "withdrawAll",
      "outputs": [],
      "stateMutability": "payable",
      "type": "function"
    }
  ],
  "bytecode": "0x60806040523480156200001157600080fd5b50604051620024f2380380620024f2833981810160405281019062000037919062000341565b620000576200004b620000b860201b60201c565b620000c060201b60201c565b600180819055506200006f826200018460201b60201c565b80600360006101000a81548173ffffffffffffffffffffffffffffffffffffffff021916908373ffffffffffffffffffffffffffffffffffffffff16021790555050506200040b565b600033905090565b60008060009054906101000a900473ffffffffffffffffffffffffffffffffffffffff169050816000806101000a81548173ffffffffffffffffffffffffffffffffffffffff021916908373ffffffffffffffffffffffffffffffffffffffff1602179055508173ffffffffffffffffffffffffffffffffffffffff168173ffffffffffffffffffffffffffffffffffffffff167f8be0079c531659141344cd1fd0a4f28419497f9722a3daafe3b4186f6b6457e060405160405180910390a35050565b62000194620001d860201b60201c565b80600260006101000a81548173ffffffffffffffffffffffffffffffffffffffff021916908373ffffffffffffffffffffffffffffffffffffffff16021790555050565b620001e8620000b860201b60201c565b73ffffffffffffffffffffffffffffffffffffffff166200020e6200026960201b60201c565b73ffffffffffffffffffffffffffffffffffffffff161462000267576040517f08c379a00000000000000000000000000000000000000000000000000000000081526004016200025e90620003e9565b60405180910390fd5b565b60008060009054906101000a900473ffffffffffffffffffffffffffffffffffffffff16905090565b600080fd5b600073ffffffffffffffffffffffffffffffffffffffff82169050919050565b6000620002c48262000297565b9050919050565b6000620002d882620002b7565b9050919050565b620002ea81620002cb565b8114620002f657600080fd5b50565b6000815190506200030a81620002df565b92915050565b6200031b81620002b7565b81146200032757600080fd5b50565b6000815190506200033b8162000310565b92915050565b600080604083850312156200035b576200035a62000292565b5b60006200036b85828601620002f9565b92505060206200037e858286016200032a565b9150509250929050565b600082825260208201905092915050565b7f4f776e61626c653a2063616c6c6572206973206e6f7420746865206f776e6572600082015250565b6000620003d160208362000388565b9150620003de8262000399565b602082019050919050565b600060208201905081810360008301526200040481620003c2565b9050919050565b6120d7806200041b6000396000f3fe6080604052600436106100e85760003560e01c80637ac3c02f1161008a578063b446f3b211610059578063b446f3b214610299578063f2fde38b146102d6578063fa540801146102ff578063ff43eddb1461033c576100e8565b80637ac3c02f14610210578063853828b61461023b5780638da5cb5b146102455780639727151a14610270576100e8565b80633d9ffad5116100c65780633d9ffad51461016a5780636c19e783146101a75780636e9849dd146101d0578063715018a6146101f9576100e8565b80631648e9b0146100ed578063200aa6da14610116578063238ac9331461013f575b600080fd5b3480156100f957600080fd5b50610114600480360381019061010f91906111b5565b610367565b005b34801561012257600080fd5b5061013d6004803603810190610138919061135e565b6103b3565b005b34801561014b57600080fd5b50610154610538565b60405161016191906113c9565b60405180910390f35b34801561017657600080fd5b50610191600480360381019061018c9190611485565b61055e565b60405161019e9190611518565b60405180910390f35b3480156101b357600080fd5b506101ce60048036038101906101c9919061155f565b6105dd565b005b3480156101dc57600080fd5b506101f760048036038101906101f29190611642565b610629565b005b34801561020557600080fd5b5061020e61076e565b005b34801561021c57600080fd5b50610225610782565b60405161023291906113c9565b60405180910390f35b6102436107ac565b005b34801561025157600080fd5b5061025a610863565b60405161026791906113c9565b60405180910390f35b34801561027c57600080fd5b5061029760048036038101906102929190611701565b61088c565b005b3480156102a557600080fd5b506102c060048036038101906102bb9190611741565b61097d565b6040516102cd91906117a3565b60405180910390f35b3480156102e257600080fd5b506102fd60048036038101906102f8919061155f565b6109ad565b005b34801561030b57600080fd5b50610326600480360381019061032191906117ea565b610a30565b60405161033391906117a3565b60405180910390f35b34801561034857600080fd5b50610351610a60565b60405161035e9190611876565b60405180910390f35b61036f610a86565b80600260006101000a81548173ffffffffffffffffffffffffffffffffffffffff021916908373ffffffffffffffffffffffffffffffffffffffff16021790555050565b60006103be33610b04565b6103c783610b31565b6040516020016103d8929190611928565b60405160208183030381529060405290503073ffffffffffffffffffffffffffffffffffffffff16633d9ffad582856040518363ffffffff1660e01b81526004016104249291906119fa565b602060405180830381865afa158015610441573d6000803e3d6000fd5b505050506040513d601f19601f820116820180604052508101906104659190611a5d565b6104a4576040517f08c379a000000000000000000000000000000000000000000000000000000000815260040161049b90611ad6565b60405180910390fd5b600260009054906101000a900473ffffffffffffffffffffffffffffffffffffffff1673ffffffffffffffffffffffffffffffffffffffff166332761d1633846040518363ffffffff1660e01b8152600401610501929190611b05565b600060405180830381600087803b15801561051b57600080fd5b505af115801561052f573d6000803e3d6000fd5b50505050505050565b600360009054906101000a900473ffffffffffffffffffffffffffffffffffffffff1681565b60008061056a8461097d565b9050600061057782610a30565b9050600360009054906101000a900473ffffffffffffffffffffffffffffffffffffffff1673ffffffffffffffffffffffffffffffffffffffff166105bc8286610bff565b73ffffffffffffffffffffffffffffffffffffffff16149250505092915050565b6105e5610a86565b80600360006101000a81548173ffffffffffffffffffffffffffffffffffffffff021916908373ffffffffffffffffffffffffffffffffffffffff16021790555050565b610631610a86565b818190508484905014610679576040517f08c379a000000000000000000000000000000000000000000000000000000000815260040161067090611b7a565b60405180910390fd5b60005b8282905081101561076757600260009054906101000a900473ffffffffffffffffffffffffffffffffffffffff1673ffffffffffffffffffffffffffffffffffffffff166332761d168484848181106106d8576106d7611b9a565b5b90506020020160208101906106ed919061155f565b878785818110610700576106ff611b9a565b5b905060200201356040518363ffffffff1660e01b8152600401610724929190611b05565b600060405180830381600087803b15801561073e57600080fd5b505af1158015610752573d6000803e3d6000fd5b505050508061076090611bf8565b905061067c565b5050505050565b610776610a86565b6107806000610c6e565b565b6000600360009054906101000a900473ffffffffffffffffffffffffffffffffffffffff16905090565b6107b4610a86565b60003373ffffffffffffffffffffffffffffffffffffffff16476040516107da90611c71565b60006040518083038185875af1925050503d8060008114610817576040519150601f19603f3d011682016040523d82523d6000602084013e61081c565b606091505b5050905080610860576040517f08c379a000000000000000000000000000000000000000000000000000000000815260040161085790611cd2565b60405180910390fd5b50565b60008060009054906101000a900473ffffffffffffffffffffffffffffffffffffffff16905090565b610894610a86565b600073ffffffffffffffffffffffffffffffffffffffff163373ffffffffffffffffffffffffffffffffffffffff16036108fa576040517f48ac165200000000000000000000000000000000000000000000000000000000815260040160405180910390fd5b8173ffffffffffffffffffffffffffffffffffffffff1663a9059cbb33836040518363ffffffff1660e01b8152600401610935929190611b05565b6020604051808303816000875af1158015610954573d6000803e3d6000fd5b505050506040513d601f19601f820116820180604052508101906109789190611a5d565b505050565b6000816040516020016109909190611cf2565b604051602081830303815290604052805190602001209050919050565b6109b5610a86565b600073ffffffffffffffffffffffffffffffffffffffff168173ffffffffffffffffffffffffffffffffffffffff1603610a24576040517f08c379a0000000000000000000000000000000000000000000000000000000008152600401610a1b90611d7b565b60405180910390fd5b610a2d81610c6e565b50565b600081604051602001610a439190611e08565b604051602081830303815290604052805190602001209050919050565b600260009054906101000a900473ffffffffffffffffffffffffffffffffffffffff1681565b610a8e610d32565b73ffffffffffffffffffffffffffffffffffffffff16610aac610863565b73ffffffffffffffffffffffffffffffffffffffff1614610b02576040517f08c379a0000000000000000000000000000000000000000000000000000000008152600401610af990611e7a565b60405180910390fd5b565b6060610b2a8273ffffffffffffffffffffffffffffffffffffffff16601460ff16610d3a565b9050919050565b606060006001610b4084610f76565b01905060008167ffffffffffffffff811115610b5f57610b5e6111fd565b5b6040519080825280601f01601f191660200182016040528015610b915781602001600182028036833780820191505090505b509050600082602001820190505b600115610bf4578080600190039150507f3031323334353637383961626364656600000000000000000000000000000000600a86061a8153600a8581610be857610be7611e9a565b5b04945060008503610b9f575b819350505050919050565b600080600080610c0e856110c9565b92509250925060018682858560405160008152602001604052604051610c379493929190611ee5565b6020604051602081039080840390855afa158015610c59573d6000803e3d6000fd5b50505060206040510351935050505092915050565b60008060009054906101000a900473ffffffffffffffffffffffffffffffffffffffff169050816000806101000a81548173ffffffffffffffffffffffffffffffffffffffff021916908373ffffffffffffffffffffffffffffffffffffffff1602179055508173ffffffffffffffffffffffffffffffffffffffff168173ffffffffffffffffffffffffffffffffffffffff167f8be0079c531659141344cd1fd0a4f28419497f9722a3daafe3b4186f6b6457e060405160405180910390a35050565b600033905090565b606060006002836002610d4d9190611f2a565b610d579190611f6c565b67ffffffffffffffff811115610d7057610d6f6111fd565b5b6040519080825280601f01601f191660200182016040528015610da25781602001600182028036833780820191505090505b5090507f300000000000000000000000000000000000000000000000000000000000000081600081518110610dda57610dd9611b9a565b5b60200101907effffffffffffffffffffffffffffffffffffffffffffffffffffffffffffff1916908160001a9053507f780000000000000000000000000000000000000000000000000000000000000081600181518110610e3e57610e3d611b9a565b5b60200101907effffffffffffffffffffffffffffffffffffffffffffffffffffffffffffff1916908160001a90535060006001846002610e7e9190611f2a565b610e889190611f6c565b90505b6001811115610f28577f3031323334353637383961626364656600000000000000000000000000000000600f861660108110610eca57610ec9611b9a565b5b1a60f81b828281518110610ee157610ee0611b9a565b5b60200101907effffffffffffffffffffffffffffffffffffffffffffffffffffffffffffff1916908160001a905350600485901c945080610f2190611fa0565b9050610e8b565b5060008414610f6c576040517f08c379a0000000000000000000000000000000000000000000000000000000008152600401610f6390612015565b60405180910390fd5b8091505092915050565b600080600090507a184f03e93ff9f4daa797ed6e38ed64bf6a1f0100000000000000008310610fd4577a184f03e93ff9f4daa797ed6e38ed64bf6a1f0100000000000000008381610fca57610fc9611e9a565b5b0492506040810190505b6d04ee2d6d415b85acef81000000008310611011576d04ee2d6d415b85acef8100000000838161100757611006611e9a565b5b0492506020810190505b662386f26fc10000831061104057662386f26fc10000838161103657611035611e9a565b5b0492506010810190505b6305f5e1008310611069576305f5e100838161105f5761105e611e9a565b5b0492506008810190505b612710831061108e57612710838161108457611083611e9a565b5b0492506004810190505b606483106110b157606483816110a7576110a6611e9a565b5b0492506002810190505b600a83106110c0576001810190505b80915050919050565b60008060006041845114611112576040517f08c379a000000000000000000000000000000000000000000000000000000000815260040161110990612081565b60405180910390fd5b6020840151925060408401519150606084015160001a90509193909250565b6000604051905090565b600080fd5b600080fd5b600073ffffffffffffffffffffffffffffffffffffffff82169050919050565b600061117082611145565b9050919050565b600061118282611165565b9050919050565b61119281611177565b811461119d57600080fd5b50565b6000813590506111af81611189565b92915050565b6000602082840312156111cb576111ca61113b565b5b60006111d9848285016111a0565b91505092915050565b600080fd5b600080fd5b6000601f19601f8301169050919050565b7f4e487b7100000000000000000000000000000000000000000000000000000000600052604160045260246000fd5b611235826111ec565b810181811067ffffffffffffffff82111715611254576112536111fd565b5b80604052505050565b6000611267611131565b9050611273828261122c565b919050565b600067ffffffffffffffff821115611293576112926111fd565b5b61129c826111ec565b9050602081019050919050565b82818337600083830152505050565b60006112cb6112c684611278565b61125d565b9050828152602081018484840111156112e7576112e66111e7565b5b6112f28482856112a9565b509392505050565b600082601f83011261130f5761130e6111e2565b5b813561131f8482602086016112b8565b91505092915050565b6000819050919050565b61133b81611328565b811461134657600080fd5b50565b60008135905061135881611332565b92915050565b600080604083850312156113755761137461113b565b5b600083013567ffffffffffffffff81111561139357611392611140565b5b61139f858286016112fa565b92505060206113b085828601611349565b9150509250929050565b6113c381611165565b82525050565b60006020820190506113de60008301846113ba565b92915050565b600067ffffffffffffffff8211156113ff576113fe6111fd565b5b611408826111ec565b9050602081019050919050565b6000611428611423846113e4565b61125d565b905082815260208101848484011115611444576114436111e7565b5b61144f8482856112a9565b509392505050565b600082601f83011261146c5761146b6111e2565b5b813561147c848260208601611415565b91505092915050565b6000806040838503121561149c5761149b61113b565b5b600083013567ffffffffffffffff8111156114ba576114b9611140565b5b6114c685828601611457565b925050602083013567ffffffffffffffff8111156114e7576114e6611140565b5b6114f3858286016112fa565b9150509250929050565b60008115159050919050565b611512816114fd565b82525050565b600060208201905061152d6000830184611509565b92915050565b61153c81611165565b811461154757600080fd5b50565b60008135905061155981611533565b92915050565b6000602082840312156115755761157461113b565b5b60006115838482850161154a565b91505092915050565b600080fd5b600080fd5b60008083601f8401126115ac576115ab6111e2565b5b8235905067ffffffffffffffff8111156115c9576115c861158c565b5b6020830191508360208202830111156115e5576115e4611591565b5b9250929050565b60008083601f840112611602576116016111e2565b5b8235905067ffffffffffffffff81111561161f5761161e61158c565b5b60208301915083602082028301111561163b5761163a611591565b5b9250929050565b6000806000806040858703121561165c5761165b61113b565b5b600085013567ffffffffffffffff81111561167a57611679611140565b5b61168687828801611596565b9450945050602085013567ffffffffffffffff8111156116a9576116a8611140565b5b6116b5878288016115ec565b925092505092959194509250565b60006116ce82611165565b9050919050565b6116de816116c3565b81146116e957600080fd5b50565b6000813590506116fb816116d5565b92915050565b600080604083850312156117185761171761113b565b5b6000611726858286016116ec565b925050602061173785828601611349565b9150509250929050565b6000602082840312156117575761175661113b565b5b600082013567ffffffffffffffff81111561177557611774611140565b5b61178184828501611457565b91505092915050565b6000819050919050565b61179d8161178a565b82525050565b60006020820190506117b86000830184611794565b92915050565b6117c78161178a565b81146117d257600080fd5b50565b6000813590506117e4816117be565b92915050565b600060208284031215611800576117ff61113b565b5b600061180e848285016117d5565b91505092915050565b6000819050919050565b600061183c61183761183284611145565b611817565b611145565b9050919050565b600061184e82611821565b9050919050565b600061186082611843565b9050919050565b61187081611855565b82525050565b600060208201905061188b6000830184611867565b92915050565b600081519050919050565b600081905092915050565b60005b838110156118c55780820151818401526020810190506118aa565b60008484015250505050565b60006118dc82611891565b6118e6818561189c565b93506118f68185602086016118a7565b80840191505092915050565b7f5f00000000000000000000000000000000000000000000000000000000000000815250565b600061193482856118d1565b915061193f82611902565b60018201915061194f82846118d1565b91508190509392505050565b600082825260208201905092915050565b600061197782611891565b611981818561195b565b93506119918185602086016118a7565b61199a816111ec565b840191505092915050565b600081519050919050565b600082825260208201905092915050565b60006119cc826119a5565b6119d681856119b0565b93506119e68185602086016118a7565b6119ef816111ec565b840191505092915050565b60006040820190508181036000830152611a14818561196c565b90508181036020830152611a2881846119c1565b90509392505050565b611a3a816114fd565b8114611a4557600080fd5b50565b600081519050611a5781611a31565b92915050565b600060208284031215611a7357611a7261113b565b5b6000611a8184828501611a48565b91505092915050565b7f426164207369676e617475726500000000000000000000000000000000000000600082015250565b6000611ac0600d8361195b565b9150611acb82611a8a565b602082019050919050565b60006020820190508181036000830152611aef81611ab3565b9050919050565b611aff81611328565b82525050565b6000604082019050611b1a60008301856113ba565b611b276020830184611af6565b9392505050565b7f4172726179732073686f756c642068617665207468652073616d652073697a65600082015250565b6000611b6460208361195b565b9150611b6f82611b2e565b602082019050919050565b60006020820190508181036000830152611b9381611b57565b9050919050565b7f4e487b7100000000000000000000000000000000000000000000000000000000600052603260045260246000fd5b7f4e487b7100000000000000000000000000000000000000000000000000000000600052601160045260246000fd5b6000611c0382611328565b91507fffffffffffffffffffffffffffffffffffffffffffffffffffffffffffffffff8203611c3557611c34611bc9565b5b600182019050919050565b600081905092915050565b50565b6000611c5b600083611c40565b9150611c6682611c4b565b600082019050919050565b6000611c7c82611c4e565b9150819050919050565b7f776974686472617720776173206e6f742073756363657366756c6c0000000000600082015250565b6000611cbc601b8361195b565b9150611cc782611c86565b602082019050919050565b60006020820190508181036000830152611ceb81611caf565b9050919050565b6000611cfe82846118d1565b915081905092915050565b7f4f776e61626c653a206e6577206f776e657220697320746865207a65726f206160008201527f6464726573730000000000000000000000000000000000000000000000000000602082015250565b6000611d6560268361195b565b9150611d7082611d09565b604082019050919050565b60006020820190508181036000830152611d9481611d58565b9050919050565b7f19457468657265756d205369676e6564204d6573736167653a0a333200000000600082015250565b6000611dd1601c8361189c565b9150611ddc82611d9b565b601c82019050919050565b6000819050919050565b611e02611dfd8261178a565b611de7565b82525050565b6000611e1382611dc4565b9150611e1f8284611df1565b60208201915081905092915050565b7f4f776e61626c653a2063616c6c6572206973206e6f7420746865206f776e6572600082015250565b6000611e6460208361195b565b9150611e6f82611e2e565b602082019050919050565b60006020820190508181036000830152611e9381611e57565b9050919050565b7f4e487b7100000000000000000000000000000000000000000000000000000000600052601260045260246000fd5b600060ff82169050919050565b611edf81611ec9565b82525050565b6000608082019050611efa6000830187611794565b611f076020830186611ed6565b611f146040830185611794565b611f216060830184611794565b95945050505050565b6000611f3582611328565b9150611f4083611328565b9250828202611f4e81611328565b91508282048414831517611f6557611f64611bc9565b5b5092915050565b6000611f7782611328565b9150611f8283611328565b9250828201905080821115611f9a57611f99611bc9565b5b92915050565b6000611fab82611328565b915060008203611fbe57611fbd611bc9565b5b600182039050919050565b7f537472696e67733a20686578206c656e67746820696e73756666696369656e74600082015250565b6000611fff60208361195b565b915061200a82611fc9565b602082019050919050565b6000602082019050818103600083015261202e81611ff2565b9050919050565b7f496e76616c6964207369676e6174757265206c656e6774682100000000000000600082015250565b600061206b60198361195b565b915061207682612035565b602082019050919050565b6000602082019050818103600083015261209a8161205e565b905091905056fea264697066735822122004c1dd380175881ece0a497145c3ae038667786a62ac7329fe021188c8b9d04464736f6c63430008120033",
  "linkReferences": {},
  "deployedLinkReferences": {}
}