{
  "_format": "hh-sol-artifact-1",
  "contractName": "RuniverseItemMinter",
  "sourceName": "contracts/RuniverseItemMinter.sol",
  "abi": [
    {
      "inputs": [
        {
          "internalType": "contract IRuniverseItem",
          "name": "_runiverseItem",
          "type": "address"
        },
        {
          "internalType": "address",
          "name": "_signer",
          "type": "address"
        }
      ],
      "stateMutability": "nonpayable",
      "type": "constructor"
    },
    {
      "inputs": [],
      "name": "Address0Error",
      "type": "error"
    },
    {
      "anonymous": false,
      "inputs": [
        {
          "indexed": true,
          "internalType": "address",
          "name": "previousOwner",
          "type": "address"
        },
        {
          "indexed": true,
          "internalType": "address",
          "name": "newOwner",
          "type": "address"
        }
      ],
      "name": "OwnershipTransferred",
      "type": "event"
    },
    {
      "anonymous": false,
      "inputs": [
        {
          "indexed": true,
          "internalType": "uint256",
          "name": "tokenId",
          "type": "uint256"
        },
        {
          "indexed": true,
          "internalType": "address",
          "name": "approvedContract",
          "type": "address"
        }
      ],
      "name": "TokenLocked",
      "type": "event"
    },
    {
      "anonymous": false,
      "inputs": [
        {
          "indexed": true,
          "internalType": "uint256",
          "name": "tokenId",
          "type": "uint256"
        },
        {
          "indexed": true,
          "internalType": "address",
          "name": "approvedContract",
          "type": "address"
        }
      ],
      "name": "TokenUnlocked",
      "type": "event"
    },
    {
      "inputs": [
        {
          "internalType": "contract IERC20",
          "name": "token",
          "type": "address"
        },
        {
          "internalType": "uint256",
          "name": "amount",
          "type": "uint256"
        }
      ],
      "name": "forwardERC20s",
      "outputs": [],
      "stateMutability": "nonpayable",
      "type": "function"
    },
    {
      "inputs": [
        {
          "internalType": "bytes32",
          "name": "_messageHash",
          "type": "bytes32"
        }
      ],
      "name": "getEthSignedMessageHash",
      "outputs": [
        {
          "internalType": "bytes32",
          "name": "",
          "type": "bytes32"
        }
      ],
      "stateMutability": "pure",
      "type": "function"
    },
    {
      "inputs": [
        {
          "internalType": "string",
          "name": "_message",
          "type": "string"
        }
      ],
      "name": "getMessageHash",
      "outputs": [
        {
          "internalType": "bytes32",
          "name": "",
          "type": "bytes32"
        }
      ],
      "stateMutability": "pure",
      "type": "function"
    },
    {
      "inputs": [],
      "name": "getSigner",
      "outputs": [
        {
          "internalType": "address",
          "name": "",
          "type": "address"
        }
      ],
      "stateMutability": "view",
      "type": "function"
    },
    {
      "inputs": [],
      "name": "owner",
      "outputs": [
        {
          "internalType": "address",
          "name": "",
          "type": "address"
        }
      ],
      "stateMutability": "view",
      "type": "function"
    },
    {
      "inputs": [
        {
          "internalType": "uint256[]",
          "name": "tokenIds",
          "type": "uint256[]"
        },
        {
          "internalType": "address[]",
          "name": "recipients",
          "type": "address[]"
        }
      ],
      "name": "ownerMint",
      "outputs": [],
      "stateMutability": "nonpayable",
      "type": "function"
    },
    {
      "inputs": [],
      "name": "renounceOwnership",
      "outputs": [],
      "stateMutability": "nonpayable",
      "type": "function"
    },
    {
      "inputs": [],
      "name": "runiverseItem",
      "outputs": [
        {
          "internalType": "contract IRuniverseItem",
          "name": "",
          "type": "address"
        }
      ],
      "stateMutability": "view",
      "type": "function"
    },
    {
      "inputs": [
        {
          "internalType": "contract IRuniverseItem",
          "name": "_newruniverseItemAddress",
          "type": "address"
        }
      ],
      "name": "setRuniverseItem",
      "outputs": [],
      "stateMutability": "nonpayable",
      "type": "function"
    },
    {
      "inputs": [
        {
          "internalType": "address",
          "name": "_signer",
          "type": "address"
        }
      ],
      "name": "setSigner",
      "outputs": [],
      "stateMutability": "nonpayable",
      "type": "function"
    },
    {
      "inputs": [],
      "name": "signer",
      "outputs": [
        {
          "internalType": "address",
          "name": "",
          "type": "address"
        }
      ],
      "stateMutability": "view",
      "type": "function"
    },
    {
      "inputs": [
        {
          "internalType": "address",
          "name": "newOwner",
          "type": "address"
        }
      ],
      "name": "transferOwnership",
      "outputs": [],
      "stateMutability": "nonpayable",
      "type": "function"
    },
    {
      "inputs": [
        {
          "internalType": "uint256[]",
          "name": "tokenIds",
          "type": "uint256[]"
        }
      ],
      "name": "unlockTokens",
      "outputs": [],
      "stateMutability": "nonpayable",
      "type": "function"
    },
    {
      "inputs": [
        {
          "internalType": "string",
          "name": "_message",
          "type": "string"
        },
        {
          "internalType": "bytes",
          "name": "_signature",
          "type": "bytes"
        }
      ],
      "name": "verify",
      "outputs": [
        {
          "internalType": "bool",
          "name": "",
          "type": "bool"
        }
      ],
      "stateMutability": "view",
      "type": "function"
    },
    {
      "inputs": [
        {
          "internalType": "bytes",
          "name": "signature",
          "type": "bytes"
        },
        {
          "internalType": "uint256",
          "name": "tokenId",
          "type": "uint256"
        }
      ],
      "name": "verifyAndMint",
      "outputs": [],
      "stateMutability": "nonpayable",
      "type": "function"
    },
    {
      "inputs": [],
      "name": "withdrawAll",
      "outputs": [],
      "stateMutability": "payable",
      "type": "function"
    }
  ],
  "bytecode": "0x60806040523480156200001157600080fd5b50604051620015113803806200151183398101604081905262000034916200016b565b6200003f3362000075565b600180556200004e82620000c5565b600380546001600160a01b0319166001600160a01b039290921691909117905550620001aa565b600080546001600160a01b038381166001600160a01b0319831681178455604051919092169283917f8be0079c531659141344cd1fd0a4f28419497f9722a3daafe3b4186f6b6457e09190a35050565b620000cf620000f1565b600280546001600160a01b0319166001600160a01b0392909216919091179055565b6000546001600160a01b03163314620001505760405162461bcd60e51b815260206004820181905260248201527f4f776e61626c653a2063616c6c6572206973206e6f7420746865206f776e6572604482015260640160405180910390fd5b565b6001600160a01b03811681146200016857600080fd5b50565b600080604083850312156200017f57600080fd5b82516200018c8162000152565b60208401519092506200019f8162000152565b809150509250929050565b61135780620001ba6000396000f3fe6080604052600436106100f35760003560e01c8063853828b61161008a578063cbd5d40311610059578063cbd5d4031461028e578063f2fde38b146102ae578063fa540801146102ce578063ff43eddb146102ee57600080fd5b8063853828b61461021a5780638da5cb5b146102225780639727151a14610240578063b446f3b21461026057600080fd5b80636c19e783116100c65780636c19e783146101a75780636e9849dd146101c7578063715018a6146101e75780637ac3c02f146101fc57600080fd5b80631648e9b0146100f8578063200aa6da1461011a578063238ac9331461013a5780633d9ffad514610177575b600080fd5b34801561010457600080fd5b50610118610113366004610e46565b61030e565b005b34801561012657600080fd5b50610118610135366004610f1a565b610338565b34801561014657600080fd5b5060035461015a906001600160a01b031681565b6040516001600160a01b0390911681526020015b60405180910390f35b34801561018357600080fd5b50610197610192366004610f5f565b61052c565b604051901515815260200161016e565b3480156101b357600080fd5b506101186101c2366004610e46565b610573565b3480156101d357600080fd5b506101186101e236600461100f565b61059d565b3480156101f357600080fd5b506101186106c8565b34801561020857600080fd5b506003546001600160a01b031661015a565b6101186106dc565b34801561022e57600080fd5b506000546001600160a01b031661015a565b34801561024c57600080fd5b5061011861025b36600461107b565b61077f565b34801561026c57600080fd5b5061028061027b3660046110a7565b610816565b60405190815260200161016e565b34801561029a57600080fd5b506101186102a93660046110e4565b610846565b3480156102ba57600080fd5b506101186102c9366004610e46565b6108bf565b3480156102da57600080fd5b506102806102e936600461118a565b610935565b3480156102fa57600080fd5b5060025461015a906001600160a01b031681565b610316610970565b600280546001600160a01b0319166001600160a01b0392909216919091179055565b6000610343336109ca565b61034c836109e0565b60405160200161035d9291906111c7565b60408051601f1981840301815290829052633d9ffad560e01b825291503090633d9ffad590610392908490879060040161122f565b602060405180830381865afa1580156103af573d6000803e3d6000fd5b505050506040513d601f19601f820116820180604052508101906103d3919061125d565b6104145760405162461bcd60e51b815260206004820152600d60248201526c426164207369676e617475726560981b60448201526064015b60405180910390fd5b60025460405163193b0e8b60e11b8152336004820152602481018490526001600160a01b03909116906332761d1690604401600060405180830381600087803b15801561046057600080fd5b505af1158015610474573d6000803e3d6000fd5b505060025460405163025c16e560e51b8152600481018690526001600160a01b039091169250634b82dca091506024016020604051808303816000875af11580156104c3573d6000803e3d6000fd5b505050506040513d601f19601f820116820180604052508101906104e7919061125d565b15610527576002546040516001600160a01b039091169083907f9ecfd70e9ff36df72989324a49559383d39f9290d700b10cf5ac10dcb68d264390600090a35b505050565b60008061053884610816565b9050600061054582610935565b6003549091506001600160a01b031661055e8286610a73565b6001600160a01b031614925050505b92915050565b61057b610970565b600380546001600160a01b0319166001600160a01b0392909216919091179055565b6105a5610970565b8281146105f45760405162461bcd60e51b815260206004820181905260248201527f4172726179732073686f756c642068617665207468652073616d652073697a65604482015260640161040b565b60005b818110156106c1576002546001600160a01b03166332761d168484848181106106225761062261127f565b90506020020160208101906106379190610e46565b8787858181106106495761064961127f565b6040516001600160e01b031960e087901b1681526001600160a01b0390941660048501526020029190910135602483015250604401600060405180830381600087803b15801561069857600080fd5b505af11580156106ac573d6000803e3d6000fd5b50505050806106ba906112ab565b90506105f7565b5050505050565b6106d0610970565b6106da6000610af2565b565b6106e4610970565b604051600090339047908381818185875af1925050503d8060008114610726576040519150601f19603f3d011682016040523d82523d6000602084013e61072b565b606091505b505090508061077c5760405162461bcd60e51b815260206004820152601b60248201527f776974686472617720776173206e6f742073756363657366756c6c0000000000604482015260640161040b565b50565b610787610970565b336107a5576040516324560b2960e11b815260040160405180910390fd5b60405163a9059cbb60e01b8152336004820152602481018290526001600160a01b0383169063a9059cbb906044016020604051808303816000875af11580156107f2573d6000803e3d6000fd5b505050506040513d601f19601f82011682018060405250810190610527919061125d565b60008160405160200161082991906112c4565b604051602081830303815290604052805190602001209050919050565b60005b81518110156108bb5760025482516001600160a01b03909116908390839081106108755761087561127f565b60200260200101517f0fe7d9801197f79ef3b1595d19379eb58f0fff5f98b0f6d6f34c03cae5306c3760405160405180910390a3806108b3816112ab565b915050610849565b5050565b6108c7610970565b6001600160a01b03811661092c5760405162461bcd60e51b815260206004820152602660248201527f4f776e61626c653a206e6577206f776e657220697320746865207a65726f206160448201526564647265737360d01b606482015260840161040b565b61077c81610af2565b6040517f19457468657265756d205369676e6564204d6573736167653a0a3332000000006020820152603c8101829052600090605c01610829565b6000546001600160a01b031633146106da5760405162461bcd60e51b815260206004820181905260248201527f4f776e61626c653a2063616c6c6572206973206e6f7420746865206f776e6572604482015260640161040b565b606061056d6001600160a01b0383166014610b42565b606060006109ed83610ce5565b600101905060008167ffffffffffffffff811115610a0d57610a0d610e63565b6040519080825280601f01601f191660200182016040528015610a37576020820181803683370190505b5090508181016020015b600019016f181899199a1a9b1b9c1cb0b131b232b360811b600a86061a8153600a8504945084610a4157509392505050565b600080600080610a8285610dbd565b6040805160008152602081018083528b905260ff8316918101919091526060810184905260808101839052929550909350915060019060a0016020604051602081039080840390855afa158015610add573d6000803e3d6000fd5b5050604051601f190151979650505050505050565b600080546001600160a01b038381166001600160a01b0319831681178455604051919092169283917f8be0079c531659141344cd1fd0a4f28419497f9722a3daafe3b4186f6b6457e09190a35050565b60606000610b518360026112e0565b610b5c9060026112f7565b67ffffffffffffffff811115610b7457610b74610e63565b6040519080825280601f01601f191660200182016040528015610b9e576020820181803683370190505b509050600360fc1b81600081518110610bb957610bb961127f565b60200101906001600160f81b031916908160001a905350600f60fb1b81600181518110610be857610be861127f565b60200101906001600160f81b031916908160001a9053506000610c0c8460026112e0565b610c179060016112f7565b90505b6001811115610c8f576f181899199a1a9b1b9c1cb0b131b232b360811b85600f1660108110610c4b57610c4b61127f565b1a60f81b828281518110610c6157610c6161127f565b60200101906001600160f81b031916908160001a90535060049490941c93610c888161130a565b9050610c1a565b508315610cde5760405162461bcd60e51b815260206004820181905260248201527f537472696e67733a20686578206c656e67746820696e73756666696369656e74604482015260640161040b565b9392505050565b60008072184f03e93ff9f4daa797ed6e38ed64bf6a1f0160401b8310610d245772184f03e93ff9f4daa797ed6e38ed64bf6a1f0160401b830492506040015b6d04ee2d6d415b85acef81000000008310610d50576d04ee2d6d415b85acef8100000000830492506020015b662386f26fc100008310610d6e57662386f26fc10000830492506010015b6305f5e1008310610d86576305f5e100830492506008015b6127108310610d9a57612710830492506004015b60648310610dac576064830492506002015b600a831061056d5760010192915050565b60008060008351604114610e135760405162461bcd60e51b815260206004820152601960248201527f496e76616c6964207369676e6174757265206c656e6774682100000000000000604482015260640161040b565b50505060208101516040820151606090920151909260009190911a90565b6001600160a01b038116811461077c57600080fd5b600060208284031215610e5857600080fd5b8135610cde81610e31565b634e487b7160e01b600052604160045260246000fd5b604051601f8201601f1916810167ffffffffffffffff81118282101715610ea257610ea2610e63565b604052919050565b600082601f830112610ebb57600080fd5b813567ffffffffffffffff811115610ed557610ed5610e63565b610ee8601f8201601f1916602001610e79565b818152846020838601011115610efd57600080fd5b816020850160208301376000918101602001919091529392505050565b60008060408385031215610f2d57600080fd5b823567ffffffffffffffff811115610f4457600080fd5b610f5085828601610eaa565b95602094909401359450505050565b60008060408385031215610f7257600080fd5b823567ffffffffffffffff80821115610f8a57600080fd5b610f9686838701610eaa565b93506020850135915080821115610fac57600080fd5b50610fb985828601610eaa565b9150509250929050565b60008083601f840112610fd557600080fd5b50813567ffffffffffffffff811115610fed57600080fd5b6020830191508360208260051b850101111561100857600080fd5b9250929050565b6000806000806040858703121561102557600080fd5b843567ffffffffffffffff8082111561103d57600080fd5b61104988838901610fc3565b9096509450602087013591508082111561106257600080fd5b5061106f87828801610fc3565b95989497509550505050565b6000806040838503121561108e57600080fd5b823561109981610e31565b946020939093013593505050565b6000602082840312156110b957600080fd5b813567ffffffffffffffff8111156110d057600080fd5b6110dc84828501610eaa565b949350505050565b600060208083850312156110f757600080fd5b823567ffffffffffffffff8082111561110f57600080fd5b818501915085601f83011261112357600080fd5b81358181111561113557611135610e63565b8060051b9150611146848301610e79565b818152918301840191848101908884111561116057600080fd5b938501935b8385101561117e57843582529385019390850190611165565b98975050505050505050565b60006020828403121561119c57600080fd5b5035919050565b60005b838110156111be5781810151838201526020016111a6565b50506000910152565b600083516111d98184602088016111a3565b605f60f81b90830190815283516111f78160018401602088016111a3565b01600101949350505050565b6000815180845261121b8160208601602086016111a3565b601f01601f19169290920160200192915050565b6040815260006112426040830185611203565b82810360208401526112548185611203565b95945050505050565b60006020828403121561126f57600080fd5b81518015158114610cde57600080fd5b634e487b7160e01b600052603260045260246000fd5b634e487b7160e01b600052601160045260246000fd5b6000600182016112bd576112bd611295565b5060010190565b600082516112d68184602087016111a3565b9190910192915050565b808202811582820484141761056d5761056d611295565b8082018082111561056d5761056d611295565b60008161131957611319611295565b50600019019056fea2646970667358221220a7ea410f3453b363ee59a8199b77f4b73df44f251a8507067eef544fe429a89f64736f6c63430008130033",
  "linkReferences": {},
  "deployedLinkReferences": {}
}