{
  "_format": "hh-sol-artifact-1",
  "contractName": "RuniverseItemMinter",
  "sourceName": "contracts/RuniverseItemMinter.sol",
  "abi": [
    {
      "inputs": [
        {
          "internalType": "contract IRuniverseItem",
          "name": "_runiverseItem",
          "type": "address"
        },
        {
          "internalType": "address",
          "name": "_signer",
          "type": "address"
        }
      ],
      "stateMutability": "nonpayable",
      "type": "constructor"
    },
    {
      "inputs": [],
      "name": "Address0Error",
      "type": "error"
    },
    {
      "anonymous": false,
      "inputs": [
        {
          "indexed": true,
          "internalType": "address",
          "name": "previousOwner",
          "type": "address"
        },
        {
          "indexed": true,
          "internalType": "address",
          "name": "newOwner",
          "type": "address"
        }
      ],
      "name": "OwnershipTransferred",
      "type": "event"
    },
    {
      "anonymous": false,
      "inputs": [
        {
          "indexed": true,
          "internalType": "uint256",
          "name": "tokenId",
          "type": "uint256"
        },
        {
          "indexed": true,
          "internalType": "address",
          "name": "approvedContract",
          "type": "address"
        }
      ],
      "name": "TokenLocked",
      "type": "event"
    },
    {
      "anonymous": false,
      "inputs": [
        {
          "indexed": true,
          "internalType": "uint256",
          "name": "tokenId",
          "type": "uint256"
        },
        {
          "indexed": true,
          "internalType": "address",
          "name": "approvedContract",
          "type": "address"
        }
      ],
      "name": "TokenUnlocked",
      "type": "event"
    },
    {
      "inputs": [
        {
          "internalType": "contract IERC20",
          "name": "token",
          "type": "address"
        },
        {
          "internalType": "uint256",
          "name": "amount",
          "type": "uint256"
        }
      ],
      "name": "forwardERC20s",
      "outputs": [],
      "stateMutability": "nonpayable",
      "type": "function"
    },
    {
      "inputs": [
        {
          "internalType": "bytes32",
          "name": "_messageHash",
          "type": "bytes32"
        }
      ],
      "name": "getEthSignedMessageHash",
      "outputs": [
        {
          "internalType": "bytes32",
          "name": "",
          "type": "bytes32"
        }
      ],
      "stateMutability": "pure",
      "type": "function"
    },
    {
      "inputs": [
        {
          "internalType": "string",
          "name": "_message",
          "type": "string"
        }
      ],
      "name": "getMessageHash",
      "outputs": [
        {
          "internalType": "bytes32",
          "name": "",
          "type": "bytes32"
        }
      ],
      "stateMutability": "pure",
      "type": "function"
    },
    {
      "inputs": [],
      "name": "getSigner",
      "outputs": [
        {
          "internalType": "address",
          "name": "",
          "type": "address"
        }
      ],
      "stateMutability": "view",
      "type": "function"
    },
    {
      "inputs": [],
      "name": "owner",
      "outputs": [
        {
          "internalType": "address",
          "name": "",
          "type": "address"
        }
      ],
      "stateMutability": "view",
      "type": "function"
    },
    {
      "inputs": [
        {
          "internalType": "uint256[]",
          "name": "tokenIds",
          "type": "uint256[]"
        },
        {
          "internalType": "address[]",
          "name": "recipients",
          "type": "address[]"
        }
      ],
      "name": "ownerMint",
      "outputs": [],
      "stateMutability": "nonpayable",
      "type": "function"
    },
    {
      "inputs": [],
      "name": "renounceOwnership",
      "outputs": [],
      "stateMutability": "nonpayable",
      "type": "function"
    },
    {
      "inputs": [],
      "name": "runiverseItem",
      "outputs": [
        {
          "internalType": "contract IRuniverseItem",
          "name": "",
          "type": "address"
        }
      ],
      "stateMutability": "view",
      "type": "function"
    },
    {
      "inputs": [
        {
          "internalType": "contract IRuniverseItem",
          "name": "_newruniverseItemAddress",
          "type": "address"
        }
      ],
      "name": "setRuniverseItem",
      "outputs": [],
      "stateMutability": "nonpayable",
      "type": "function"
    },
    {
      "inputs": [
        {
          "internalType": "address",
          "name": "_signer",
          "type": "address"
        }
      ],
      "name": "setSigner",
      "outputs": [],
      "stateMutability": "nonpayable",
      "type": "function"
    },
    {
      "inputs": [],
      "name": "signer",
      "outputs": [
        {
          "internalType": "address",
          "name": "",
          "type": "address"
        }
      ],
      "stateMutability": "view",
      "type": "function"
    },
    {
      "inputs": [
        {
          "internalType": "address",
          "name": "newOwner",
          "type": "address"
        }
      ],
      "name": "transferOwnership",
      "outputs": [],
      "stateMutability": "nonpayable",
      "type": "function"
    },
    {
      "inputs": [
        {
          "internalType": "uint256[]",
          "name": "tokenIds",
          "type": "uint256[]"
        }
      ],
      "name": "unlockTokens",
      "outputs": [],
      "stateMutability": "nonpayable",
      "type": "function"
    },
    {
      "inputs": [
        {
          "internalType": "string",
          "name": "_message",
          "type": "string"
        },
        {
          "internalType": "bytes",
          "name": "_signature",
          "type": "bytes"
        }
      ],
      "name": "verify",
      "outputs": [
        {
          "internalType": "bool",
          "name": "",
          "type": "bool"
        }
      ],
      "stateMutability": "view",
      "type": "function"
    },
    {
      "inputs": [
        {
          "internalType": "bytes",
          "name": "signature",
          "type": "bytes"
        },
        {
          "internalType": "uint256",
          "name": "tokenId",
          "type": "uint256"
        }
      ],
      "name": "verifyAndMint",
      "outputs": [],
      "stateMutability": "nonpayable",
      "type": "function"
    },
    {
      "inputs": [],
      "name": "withdrawAll",
      "outputs": [],
      "stateMutability": "payable",
      "type": "function"
    }
  ],
  "bytecode": "0x60806040523480156200001157600080fd5b50604051620015193803806200151983398101604081905262000034916200016b565b6200003f3362000075565b600180556200004e82620000c5565b600380546001600160a01b0319166001600160a01b039290921691909117905550620001aa565b600080546001600160a01b038381166001600160a01b0319831681178455604051919092169283917f8be0079c531659141344cd1fd0a4f28419497f9722a3daafe3b4186f6b6457e09190a35050565b620000cf620000f1565b600280546001600160a01b0319166001600160a01b0392909216919091179055565b6000546001600160a01b03163314620001505760405162461bcd60e51b815260206004820181905260248201527f4f776e61626c653a2063616c6c6572206973206e6f7420746865206f776e6572604482015260640160405180910390fd5b565b6001600160a01b03811681146200016857600080fd5b50565b600080604083850312156200017f57600080fd5b82516200018c8162000152565b60208401519092506200019f8162000152565b809150509250929050565b61135f80620001ba6000396000f3fe6080604052600436106100f35760003560e01c8063853828b61161008a578063cbd5d40311610059578063cbd5d4031461028e578063f2fde38b146102ae578063fa540801146102ce578063ff43eddb146102ee57600080fd5b8063853828b61461021a5780638da5cb5b146102225780639727151a14610240578063b446f3b21461026057600080fd5b80636c19e783116100c65780636c19e783146101a75780636e9849dd146101c7578063715018a6146101e75780637ac3c02f146101fc57600080fd5b80631648e9b0146100f8578063200aa6da1461011a578063238ac9331461013a5780633d9ffad514610177575b600080fd5b34801561010457600080fd5b50610118610113366004610e4e565b61030e565b005b34801561012657600080fd5b50610118610135366004610f22565b610338565b34801561014657600080fd5b5060035461015a906001600160a01b031681565b6040516001600160a01b0390911681526020015b60405180910390f35b34801561018357600080fd5b50610197610192366004610f67565b61052c565b604051901515815260200161016e565b3480156101b357600080fd5b506101186101c2366004610e4e565b610573565b3480156101d357600080fd5b506101186101e2366004611017565b61059d565b3480156101f357600080fd5b506101186106c8565b34801561020857600080fd5b506003546001600160a01b031661015a565b6101186106dc565b34801561022e57600080fd5b506000546001600160a01b031661015a565b34801561024c57600080fd5b5061011861025b366004611083565b61077f565b34801561026c57600080fd5b5061028061027b3660046110af565b610816565b60405190815260200161016e565b34801561029a57600080fd5b506101186102a93660046110ec565b610846565b3480156102ba57600080fd5b506101186102c9366004610e4e565b6108c7565b3480156102da57600080fd5b506102806102e9366004611192565b61093d565b3480156102fa57600080fd5b5060025461015a906001600160a01b031681565b610316610978565b600280546001600160a01b0319166001600160a01b0392909216919091179055565b6000610343336109d2565b61034c836109e8565b60405160200161035d9291906111cf565b60408051601f1981840301815290829052633d9ffad560e01b825291503090633d9ffad5906103929084908790600401611237565b602060405180830381865afa1580156103af573d6000803e3d6000fd5b505050506040513d601f19601f820116820180604052508101906103d39190611265565b6104145760405162461bcd60e51b815260206004820152600d60248201526c426164207369676e617475726560981b60448201526064015b60405180910390fd5b60025460405163193b0e8b60e11b8152336004820152602481018490526001600160a01b03909116906332761d1690604401600060405180830381600087803b15801561046057600080fd5b505af1158015610474573d6000803e3d6000fd5b505060025460405163025c16e560e51b8152600481018690526001600160a01b039091169250634b82dca091506024016020604051808303816000875af11580156104c3573d6000803e3d6000fd5b505050506040513d601f19601f820116820180604052508101906104e79190611265565b15610527576002546040516001600160a01b039091169083907f9ecfd70e9ff36df72989324a49559383d39f9290d700b10cf5ac10dcb68d264390600090a35b505050565b60008061053884610816565b905060006105458261093d565b6003549091506001600160a01b031661055e8286610a7b565b6001600160a01b031614925050505b92915050565b61057b610978565b600380546001600160a01b0319166001600160a01b0392909216919091179055565b6105a5610978565b8281146105f45760405162461bcd60e51b815260206004820181905260248201527f4172726179732073686f756c642068617665207468652073616d652073697a65604482015260640161040b565b60005b818110156106c1576002546001600160a01b03166332761d1684848481811061062257610622611287565b90506020020160208101906106379190610e4e565b87878581811061064957610649611287565b6040516001600160e01b031960e087901b1681526001600160a01b0390941660048501526020029190910135602483015250604401600060405180830381600087803b15801561069857600080fd5b505af11580156106ac573d6000803e3d6000fd5b50505050806106ba906112b3565b90506105f7565b5050505050565b6106d0610978565b6106da6000610afa565b565b6106e4610978565b604051600090339047908381818185875af1925050503d8060008114610726576040519150601f19603f3d011682016040523d82523d6000602084013e61072b565b606091505b505090508061077c5760405162461bcd60e51b815260206004820152601b60248201527f776974686472617720776173206e6f742073756363657366756c6c0000000000604482015260640161040b565b50565b610787610978565b336107a5576040516324560b2960e11b815260040160405180910390fd5b60405163a9059cbb60e01b8152336004820152602481018290526001600160a01b0383169063a9059cbb906044016020604051808303816000875af11580156107f2573d6000803e3d6000fd5b505050506040513d601f19601f820116820180604052508101906105279190611265565b60008160405160200161082991906112cc565b604051602081830303815290604052805190602001209050919050565b61084e610978565b60005b81518110156108c35760025482516001600160a01b039091169083908390811061087d5761087d611287565b60200260200101517f0fe7d9801197f79ef3b1595d19379eb58f0fff5f98b0f6d6f34c03cae5306c3760405160405180910390a3806108bb816112b3565b915050610851565b5050565b6108cf610978565b6001600160a01b0381166109345760405162461bcd60e51b815260206004820152602660248201527f4f776e61626c653a206e6577206f776e657220697320746865207a65726f206160448201526564647265737360d01b606482015260840161040b565b61077c81610afa565b6040517f19457468657265756d205369676e6564204d6573736167653a0a3332000000006020820152603c8101829052600090605c01610829565b6000546001600160a01b031633146106da5760405162461bcd60e51b815260206004820181905260248201527f4f776e61626c653a2063616c6c6572206973206e6f7420746865206f776e6572604482015260640161040b565b606061056d6001600160a01b0383166014610b4a565b606060006109f583610ced565b600101905060008167ffffffffffffffff811115610a1557610a15610e6b565b6040519080825280601f01601f191660200182016040528015610a3f576020820181803683370190505b5090508181016020015b600019016f181899199a1a9b1b9c1cb0b131b232b360811b600a86061a8153600a8504945084610a4957509392505050565b600080600080610a8a85610dc5565b6040805160008152602081018083528b905260ff8316918101919091526060810184905260808101839052929550909350915060019060a0016020604051602081039080840390855afa158015610ae5573d6000803e3d6000fd5b5050604051601f190151979650505050505050565b600080546001600160a01b038381166001600160a01b0319831681178455604051919092169283917f8be0079c531659141344cd1fd0a4f28419497f9722a3daafe3b4186f6b6457e09190a35050565b60606000610b598360026112e8565b610b649060026112ff565b67ffffffffffffffff811115610b7c57610b7c610e6b565b6040519080825280601f01601f191660200182016040528015610ba6576020820181803683370190505b509050600360fc1b81600081518110610bc157610bc1611287565b60200101906001600160f81b031916908160001a905350600f60fb1b81600181518110610bf057610bf0611287565b60200101906001600160f81b031916908160001a9053506000610c148460026112e8565b610c1f9060016112ff565b90505b6001811115610c97576f181899199a1a9b1b9c1cb0b131b232b360811b85600f1660108110610c5357610c53611287565b1a60f81b828281518110610c6957610c69611287565b60200101906001600160f81b031916908160001a90535060049490941c93610c9081611312565b9050610c22565b508315610ce65760405162461bcd60e51b815260206004820181905260248201527f537472696e67733a20686578206c656e67746820696e73756666696369656e74604482015260640161040b565b9392505050565b60008072184f03e93ff9f4daa797ed6e38ed64bf6a1f0160401b8310610d2c5772184f03e93ff9f4daa797ed6e38ed64bf6a1f0160401b830492506040015b6d04ee2d6d415b85acef81000000008310610d58576d04ee2d6d415b85acef8100000000830492506020015b662386f26fc100008310610d7657662386f26fc10000830492506010015b6305f5e1008310610d8e576305f5e100830492506008015b6127108310610da257612710830492506004015b60648310610db4576064830492506002015b600a831061056d5760010192915050565b60008060008351604114610e1b5760405162461bcd60e51b815260206004820152601960248201527f496e76616c6964207369676e6174757265206c656e6774682100000000000000604482015260640161040b565b50505060208101516040820151606090920151909260009190911a90565b6001600160a01b038116811461077c57600080fd5b600060208284031215610e6057600080fd5b8135610ce681610e39565b634e487b7160e01b600052604160045260246000fd5b604051601f8201601f1916810167ffffffffffffffff81118282101715610eaa57610eaa610e6b565b604052919050565b600082601f830112610ec357600080fd5b813567ffffffffffffffff811115610edd57610edd610e6b565b610ef0601f8201601f1916602001610e81565b818152846020838601011115610f0557600080fd5b816020850160208301376000918101602001919091529392505050565b60008060408385031215610f3557600080fd5b823567ffffffffffffffff811115610f4c57600080fd5b610f5885828601610eb2565b95602094909401359450505050565b60008060408385031215610f7a57600080fd5b823567ffffffffffffffff80821115610f9257600080fd5b610f9e86838701610eb2565b93506020850135915080821115610fb457600080fd5b50610fc185828601610eb2565b9150509250929050565b60008083601f840112610fdd57600080fd5b50813567ffffffffffffffff811115610ff557600080fd5b6020830191508360208260051b850101111561101057600080fd5b9250929050565b6000806000806040858703121561102d57600080fd5b843567ffffffffffffffff8082111561104557600080fd5b61105188838901610fcb565b9096509450602087013591508082111561106a57600080fd5b5061107787828801610fcb565b95989497509550505050565b6000806040838503121561109657600080fd5b82356110a181610e39565b946020939093013593505050565b6000602082840312156110c157600080fd5b813567ffffffffffffffff8111156110d857600080fd5b6110e484828501610eb2565b949350505050565b600060208083850312156110ff57600080fd5b823567ffffffffffffffff8082111561111757600080fd5b818501915085601f83011261112b57600080fd5b81358181111561113d5761113d610e6b565b8060051b915061114e848301610e81565b818152918301840191848101908884111561116857600080fd5b938501935b838510156111865784358252938501939085019061116d565b98975050505050505050565b6000602082840312156111a457600080fd5b5035919050565b60005b838110156111c65781810151838201526020016111ae565b50506000910152565b600083516111e18184602088016111ab565b605f60f81b90830190815283516111ff8160018401602088016111ab565b01600101949350505050565b600081518084526112238160208601602086016111ab565b601f01601f19169290920160200192915050565b60408152600061124a604083018561120b565b828103602084015261125c818561120b565b95945050505050565b60006020828403121561127757600080fd5b81518015158114610ce657600080fd5b634e487b7160e01b600052603260045260246000fd5b634e487b7160e01b600052601160045260246000fd5b6000600182016112c5576112c561129d565b5060010190565b600082516112de8184602087016111ab565b9190910192915050565b808202811582820484141761056d5761056d61129d565b8082018082111561056d5761056d61129d565b6000816113215761132161129d565b50600019019056fea2646970667358221220bba82ab1f6d097a460603c936a30fd602b14df2d6aa3052b0b362a834ea5e2ef64736f6c63430008130033",
  "linkReferences": {},
  "deployedLinkReferences": {}
}