{
  "_format": "hh-sol-artifact-1",
  "contractName": "RuniverseItemMinter",
  "sourceName": "contracts/RuniverseItemMinter.sol",
  "abi": [
    {
      "inputs": [
        {
          "internalType": "contract IRuniverseItem",
          "name": "_runiverseItem",
          "type": "address"
        },
        {
          "internalType": "address",
          "name": "_signer",
          "type": "address"
        }
      ],
      "stateMutability": "nonpayable",
      "type": "constructor"
    },
    {
      "inputs": [],
      "name": "Address0Error",
      "type": "error"
    },
    {
      "anonymous": false,
      "inputs": [
        {
          "indexed": true,
          "internalType": "address",
          "name": "previousOwner",
          "type": "address"
        },
        {
          "indexed": true,
          "internalType": "address",
          "name": "newOwner",
          "type": "address"
        }
      ],
      "name": "OwnershipTransferred",
      "type": "event"
    },
    {
      "inputs": [
        {
          "internalType": "contract IERC20",
          "name": "token",
          "type": "address"
        },
        {
          "internalType": "uint256",
          "name": "amount",
          "type": "uint256"
        }
      ],
      "name": "forwardERC20s",
      "outputs": [],
      "stateMutability": "nonpayable",
      "type": "function"
    },
    {
      "inputs": [
        {
          "internalType": "bytes32",
          "name": "_messageHash",
          "type": "bytes32"
        }
      ],
      "name": "getEthSignedMessageHash",
      "outputs": [
        {
          "internalType": "bytes32",
          "name": "",
          "type": "bytes32"
        }
      ],
      "stateMutability": "pure",
      "type": "function"
    },
    {
      "inputs": [
        {
          "internalType": "string",
          "name": "_message",
          "type": "string"
        }
      ],
      "name": "getMessageHash",
      "outputs": [
        {
          "internalType": "bytes32",
          "name": "",
          "type": "bytes32"
        }
      ],
      "stateMutability": "pure",
      "type": "function"
    },
    {
      "inputs": [],
      "name": "getSigner",
      "outputs": [
        {
          "internalType": "address",
          "name": "",
          "type": "address"
        }
      ],
      "stateMutability": "view",
      "type": "function"
    },
    {
      "inputs": [],
      "name": "owner",
      "outputs": [
        {
          "internalType": "address",
          "name": "",
          "type": "address"
        }
      ],
      "stateMutability": "view",
      "type": "function"
    },
    {
      "inputs": [
        {
          "internalType": "uint256[]",
          "name": "tokenIds",
          "type": "uint256[]"
        },
        {
          "internalType": "address[]",
          "name": "recipients",
          "type": "address[]"
        }
      ],
      "name": "ownerMint",
      "outputs": [],
      "stateMutability": "nonpayable",
      "type": "function"
    },
    {
      "inputs": [],
      "name": "renounceOwnership",
      "outputs": [],
      "stateMutability": "nonpayable",
      "type": "function"
    },
    {
      "inputs": [],
      "name": "runiverseItem",
      "outputs": [
        {
          "internalType": "contract IRuniverseItem",
          "name": "",
          "type": "address"
        }
      ],
      "stateMutability": "view",
      "type": "function"
    },
    {
      "inputs": [
        {
          "internalType": "contract IRuniverseItem",
          "name": "_newruniverseItemAddress",
          "type": "address"
        }
      ],
      "name": "setRuniverseItem",
      "outputs": [],
      "stateMutability": "nonpayable",
      "type": "function"
    },
    {
      "inputs": [
        {
          "internalType": "address",
          "name": "_signer",
          "type": "address"
        }
      ],
      "name": "setSigner",
      "outputs": [],
      "stateMutability": "nonpayable",
      "type": "function"
    },
    {
      "inputs": [],
      "name": "signer",
      "outputs": [
        {
          "internalType": "address",
          "name": "",
          "type": "address"
        }
      ],
      "stateMutability": "view",
      "type": "function"
    },
    {
      "inputs": [
        {
          "internalType": "address",
          "name": "newOwner",
          "type": "address"
        }
      ],
      "name": "transferOwnership",
      "outputs": [],
      "stateMutability": "nonpayable",
      "type": "function"
    },
    {
      "inputs": [
        {
          "internalType": "string",
          "name": "_message",
          "type": "string"
        },
        {
          "internalType": "bytes",
          "name": "_signature",
          "type": "bytes"
        }
      ],
      "name": "verify",
      "outputs": [
        {
          "internalType": "bool",
          "name": "",
          "type": "bool"
        }
      ],
      "stateMutability": "view",
      "type": "function"
    },
    {
      "inputs": [
        {
          "internalType": "bytes",
          "name": "signature",
          "type": "bytes"
        },
        {
          "internalType": "uint256",
          "name": "tokenId",
          "type": "uint256"
        }
      ],
      "name": "verifyAndMint",
      "outputs": [],
      "stateMutability": "nonpayable",
      "type": "function"
    },
    {
      "inputs": [],
      "name": "withdrawAll",
      "outputs": [],
      "stateMutability": "payable",
      "type": "function"
    }
  ],
  "bytecode": "0x60806040523480156200001157600080fd5b50604051620013093803806200130983398101604081905262000034916200016b565b6200003f3362000075565b600180556200004e82620000c5565b600380546001600160a01b0319166001600160a01b039290921691909117905550620001aa565b600080546001600160a01b038381166001600160a01b0319831681178455604051919092169283917f8be0079c531659141344cd1fd0a4f28419497f9722a3daafe3b4186f6b6457e09190a35050565b620000cf620000f1565b600280546001600160a01b0319166001600160a01b0392909216919091179055565b6000546001600160a01b03163314620001505760405162461bcd60e51b815260206004820181905260248201527f4f776e61626c653a2063616c6c6572206973206e6f7420746865206f776e6572604482015260640160405180910390fd5b565b6001600160a01b03811681146200016857600080fd5b50565b600080604083850312156200017f57600080fd5b82516200018c8162000152565b60208401519092506200019f8162000152565b809150509250929050565b61114f80620001ba6000396000f3fe6080604052600436106100e85760003560e01c80637ac3c02f1161008a578063b446f3b211610059578063b446f3b214610255578063f2fde38b14610283578063fa540801146102a3578063ff43eddb146102c357600080fd5b80637ac3c02f146101f1578063853828b61461020f5780638da5cb5b146102175780639727151a1461023557600080fd5b80633d9ffad5116100c65780633d9ffad51461016c5780636c19e7831461019c5780636e9849dd146101bc578063715018a6146101dc57600080fd5b80631648e9b0146100ed578063200aa6da1461010f578063238ac9331461012f575b600080fd5b3480156100f957600080fd5b5061010d610108366004610cf8565b6102e3565b005b34801561011b57600080fd5b5061010d61012a366004610db8565b61030d565b34801561013b57600080fd5b5060035461014f906001600160a01b031681565b6040516001600160a01b0390911681526020015b60405180910390f35b34801561017857600080fd5b5061018c610187366004610dfd565b610452565b6040519015158152602001610163565b3480156101a857600080fd5b5061010d6101b7366004610cf8565b610499565b3480156101c857600080fd5b5061010d6101d7366004610ead565b6104c3565b3480156101e857600080fd5b5061010d6105ee565b3480156101fd57600080fd5b506003546001600160a01b031661014f565b61010d610602565b34801561022357600080fd5b506000546001600160a01b031661014f565b34801561024157600080fd5b5061010d610250366004610f19565b6106a5565b34801561026157600080fd5b50610275610270366004610f45565b610741565b604051908152602001610163565b34801561028f57600080fd5b5061010d61029e366004610cf8565b610771565b3480156102af57600080fd5b506102756102be366004610f82565b6107e7565b3480156102cf57600080fd5b5060025461014f906001600160a01b031681565b6102eb610822565b600280546001600160a01b0319166001600160a01b0392909216919091179055565b60006103183361087c565b61032183610892565b604051602001610332929190610fbf565b60408051601f1981840301815290829052633d9ffad560e01b825291503090633d9ffad5906103679084908790600401611027565b602060405180830381865afa158015610384573d6000803e3d6000fd5b505050506040513d601f19601f820116820180604052508101906103a89190611055565b6103e95760405162461bcd60e51b815260206004820152600d60248201526c426164207369676e617475726560981b60448201526064015b60405180910390fd5b60025460405163193b0e8b60e11b8152336004820152602481018490526001600160a01b03909116906332761d1690604401600060405180830381600087803b15801561043557600080fd5b505af1158015610449573d6000803e3d6000fd5b50505050505050565b60008061045e84610741565b9050600061046b826107e7565b6003549091506001600160a01b03166104848286610925565b6001600160a01b031614925050505b92915050565b6104a1610822565b600380546001600160a01b0319166001600160a01b0392909216919091179055565b6104cb610822565b82811461051a5760405162461bcd60e51b815260206004820181905260248201527f4172726179732073686f756c642068617665207468652073616d652073697a6560448201526064016103e0565b60005b818110156105e7576002546001600160a01b03166332761d1684848481811061054857610548611077565b905060200201602081019061055d9190610cf8565b87878581811061056f5761056f611077565b6040516001600160e01b031960e087901b1681526001600160a01b0390941660048501526020029190910135602483015250604401600060405180830381600087803b1580156105be57600080fd5b505af11580156105d2573d6000803e3d6000fd5b50505050806105e0906110a3565b905061051d565b5050505050565b6105f6610822565b61060060006109a4565b565b61060a610822565b604051600090339047908381818185875af1925050503d806000811461064c576040519150601f19603f3d011682016040523d82523d6000602084013e610651565b606091505b50509050806106a25760405162461bcd60e51b815260206004820152601b60248201527f776974686472617720776173206e6f742073756363657366756c6c000000000060448201526064016103e0565b50565b6106ad610822565b336106cb576040516324560b2960e11b815260040160405180910390fd5b60405163a9059cbb60e01b8152336004820152602481018290526001600160a01b0383169063a9059cbb906044016020604051808303816000875af1158015610718573d6000803e3d6000fd5b505050506040513d601f19601f8201168201806040525081019061073c9190611055565b505050565b60008160405160200161075491906110bc565b604051602081830303815290604052805190602001209050919050565b610779610822565b6001600160a01b0381166107de5760405162461bcd60e51b815260206004820152602660248201527f4f776e61626c653a206e6577206f776e657220697320746865207a65726f206160448201526564647265737360d01b60648201526084016103e0565b6106a2816109a4565b6040517f19457468657265756d205369676e6564204d6573736167653a0a3332000000006020820152603c8101829052600090605c01610754565b6000546001600160a01b031633146106005760405162461bcd60e51b815260206004820181905260248201527f4f776e61626c653a2063616c6c6572206973206e6f7420746865206f776e657260448201526064016103e0565b60606104936001600160a01b03831660146109f4565b6060600061089f83610b97565b600101905060008167ffffffffffffffff8111156108bf576108bf610d15565b6040519080825280601f01601f1916602001820160405280156108e9576020820181803683370190505b5090508181016020015b600019016f181899199a1a9b1b9c1cb0b131b232b360811b600a86061a8153600a85049450846108f357509392505050565b60008060008061093485610c6f565b6040805160008152602081018083528b905260ff8316918101919091526060810184905260808101839052929550909350915060019060a0016020604051602081039080840390855afa15801561098f573d6000803e3d6000fd5b5050604051601f190151979650505050505050565b600080546001600160a01b038381166001600160a01b0319831681178455604051919092169283917f8be0079c531659141344cd1fd0a4f28419497f9722a3daafe3b4186f6b6457e09190a35050565b60606000610a038360026110d8565b610a0e9060026110ef565b67ffffffffffffffff811115610a2657610a26610d15565b6040519080825280601f01601f191660200182016040528015610a50576020820181803683370190505b509050600360fc1b81600081518110610a6b57610a6b611077565b60200101906001600160f81b031916908160001a905350600f60fb1b81600181518110610a9a57610a9a611077565b60200101906001600160f81b031916908160001a9053506000610abe8460026110d8565b610ac99060016110ef565b90505b6001811115610b41576f181899199a1a9b1b9c1cb0b131b232b360811b85600f1660108110610afd57610afd611077565b1a60f81b828281518110610b1357610b13611077565b60200101906001600160f81b031916908160001a90535060049490941c93610b3a81611102565b9050610acc565b508315610b905760405162461bcd60e51b815260206004820181905260248201527f537472696e67733a20686578206c656e67746820696e73756666696369656e7460448201526064016103e0565b9392505050565b60008072184f03e93ff9f4daa797ed6e38ed64bf6a1f0160401b8310610bd65772184f03e93ff9f4daa797ed6e38ed64bf6a1f0160401b830492506040015b6d04ee2d6d415b85acef81000000008310610c02576d04ee2d6d415b85acef8100000000830492506020015b662386f26fc100008310610c2057662386f26fc10000830492506010015b6305f5e1008310610c38576305f5e100830492506008015b6127108310610c4c57612710830492506004015b60648310610c5e576064830492506002015b600a83106104935760010192915050565b60008060008351604114610cc55760405162461bcd60e51b815260206004820152601960248201527f496e76616c6964207369676e6174757265206c656e677468210000000000000060448201526064016103e0565b50505060208101516040820151606090920151909260009190911a90565b6001600160a01b03811681146106a257600080fd5b600060208284031215610d0a57600080fd5b8135610b9081610ce3565b634e487b7160e01b600052604160045260246000fd5b600082601f830112610d3c57600080fd5b813567ffffffffffffffff80821115610d5757610d57610d15565b604051601f8301601f19908116603f01168101908282118183101715610d7f57610d7f610d15565b81604052838152866020858801011115610d9857600080fd5b836020870160208301376000602085830101528094505050505092915050565b60008060408385031215610dcb57600080fd5b823567ffffffffffffffff811115610de257600080fd5b610dee85828601610d2b565b95602094909401359450505050565b60008060408385031215610e1057600080fd5b823567ffffffffffffffff80821115610e2857600080fd5b610e3486838701610d2b565b93506020850135915080821115610e4a57600080fd5b50610e5785828601610d2b565b9150509250929050565b60008083601f840112610e7357600080fd5b50813567ffffffffffffffff811115610e8b57600080fd5b6020830191508360208260051b8501011115610ea657600080fd5b9250929050565b60008060008060408587031215610ec357600080fd5b843567ffffffffffffffff80821115610edb57600080fd5b610ee788838901610e61565b90965094506020870135915080821115610f0057600080fd5b50610f0d87828801610e61565b95989497509550505050565b60008060408385031215610f2c57600080fd5b8235610f3781610ce3565b946020939093013593505050565b600060208284031215610f5757600080fd5b813567ffffffffffffffff811115610f6e57600080fd5b610f7a84828501610d2b565b949350505050565b600060208284031215610f9457600080fd5b5035919050565b60005b83811015610fb6578181015183820152602001610f9e565b50506000910152565b60008351610fd1818460208801610f9b565b605f60f81b9083019081528351610fef816001840160208801610f9b565b01600101949350505050565b60008151808452611013816020860160208601610f9b565b601f01601f19169290920160200192915050565b60408152600061103a6040830185610ffb565b828103602084015261104c8185610ffb565b95945050505050565b60006020828403121561106757600080fd5b81518015158114610b9057600080fd5b634e487b7160e01b600052603260045260246000fd5b634e487b7160e01b600052601160045260246000fd5b6000600182016110b5576110b561108d565b5060010190565b600082516110ce818460208701610f9b565b9190910192915050565b80820281158282048414176104935761049361108d565b808201808211156104935761049361108d565b6000816111115761111161108d565b50600019019056fea2646970667358221220c2477b03f6acd2a1f15522098d288b15a097360b4a57549c94e31d1e39bf479564736f6c63430008130033",
  "linkReferences": {},
  "deployedLinkReferences": {}
}