{
  "_format": "hh-sol-artifact-1",
  "contractName": "RuniverseItem",
  "sourceName": "contracts/RuniverseItem.sol",
  "abi": [
    {
      "inputs": [
        {
          "internalType": "string",
          "name": "_baseURI",
          "type": "string"
        }
      ],
      "stateMutability": "nonpayable",
      "type": "constructor"
    },
    {
      "inputs": [],
      "name": "Address0Error",
      "type": "error"
    },
    {
      "anonymous": false,
      "inputs": [
        {
          "indexed": true,
          "internalType": "address",
          "name": "owner",
          "type": "address"
        },
        {
          "indexed": true,
          "internalType": "address",
          "name": "approved",
          "type": "address"
        },
        {
          "indexed": true,
          "internalType": "uint256",
          "name": "tokenId",
          "type": "uint256"
        }
      ],
      "name": "Approval",
      "type": "event"
    },
    {
      "anonymous": false,
      "inputs": [
        {
          "indexed": true,
          "internalType": "address",
          "name": "owner",
          "type": "address"
        },
        {
          "indexed": true,
          "internalType": "address",
          "name": "operator",
          "type": "address"
        },
        {
          "indexed": false,
          "internalType": "bool",
          "name": "approved",
          "type": "bool"
        }
      ],
      "name": "ApprovalForAll",
      "type": "event"
    },
    {
      "anonymous": false,
      "inputs": [
        {
          "indexed": true,
          "internalType": "uint256",
          "name": "_tokenId",
          "type": "uint256"
        },
        {
          "indexed": true,
          "internalType": "uint256",
          "name": "_nonce",
          "type": "uint256"
        }
      ],
      "name": "NonceUpdated",
      "type": "event"
    },
    {
      "anonymous": false,
      "inputs": [
        {
          "indexed": true,
          "internalType": "address",
          "name": "previousOwner",
          "type": "address"
        },
        {
          "indexed": true,
          "internalType": "address",
          "name": "newOwner",
          "type": "address"
        }
      ],
      "name": "OwnershipTransferred",
      "type": "event"
    },
    {
      "anonymous": false,
      "inputs": [
        {
          "indexed": false,
          "internalType": "address",
          "name": "account",
          "type": "address"
        }
      ],
      "name": "Paused",
      "type": "event"
    },
    {
      "anonymous": false,
      "inputs": [
        {
          "indexed": true,
          "internalType": "bytes32",
          "name": "role",
          "type": "bytes32"
        },
        {
          "indexed": true,
          "internalType": "bytes32",
          "name": "previousAdminRole",
          "type": "bytes32"
        },
        {
          "indexed": true,
          "internalType": "bytes32",
          "name": "newAdminRole",
          "type": "bytes32"
        }
      ],
      "name": "RoleAdminChanged",
      "type": "event"
    },
    {
      "anonymous": false,
      "inputs": [
        {
          "indexed": true,
          "internalType": "bytes32",
          "name": "role",
          "type": "bytes32"
        },
        {
          "indexed": true,
          "internalType": "address",
          "name": "account",
          "type": "address"
        },
        {
          "indexed": true,
          "internalType": "address",
          "name": "sender",
          "type": "address"
        }
      ],
      "name": "RoleGranted",
      "type": "event"
    },
    {
      "anonymous": false,
      "inputs": [
        {
          "indexed": true,
          "internalType": "bytes32",
          "name": "role",
          "type": "bytes32"
        },
        {
          "indexed": true,
          "internalType": "address",
          "name": "account",
          "type": "address"
        },
        {
          "indexed": true,
          "internalType": "address",
          "name": "sender",
          "type": "address"
        }
      ],
      "name": "RoleRevoked",
      "type": "event"
    },
    {
      "anonymous": false,
      "inputs": [
        {
          "indexed": false,
          "internalType": "address",
          "name": "to",
          "type": "address"
        },
        {
          "indexed": false,
          "internalType": "uint256",
          "name": "tokenId",
          "type": "uint256"
        }
      ],
      "name": "RuniverseItemMinted",
      "type": "event"
    },
    {
      "anonymous": false,
      "inputs": [
        {
          "indexed": true,
          "internalType": "uint256",
          "name": "tokenId",
          "type": "uint256"
        },
        {
          "indexed": true,
          "internalType": "address",
          "name": "approvedContract",
          "type": "address"
        }
      ],
      "name": "TokenLocked",
      "type": "event"
    },
    {
      "anonymous": false,
      "inputs": [
        {
          "indexed": true,
          "internalType": "uint256",
          "name": "tokenId",
          "type": "uint256"
        },
        {
          "indexed": true,
          "internalType": "address",
          "name": "approvedContract",
          "type": "address"
        }
      ],
      "name": "TokenUnlocked",
      "type": "event"
    },
    {
      "anonymous": false,
      "inputs": [
        {
          "indexed": true,
          "internalType": "address",
          "name": "from",
          "type": "address"
        },
        {
          "indexed": true,
          "internalType": "address",
          "name": "to",
          "type": "address"
        },
        {
          "indexed": true,
          "internalType": "uint256",
          "name": "tokenId",
          "type": "uint256"
        }
      ],
      "name": "Transfer",
      "type": "event"
    },
    {
      "anonymous": false,
      "inputs": [
        {
          "indexed": false,
          "internalType": "address",
          "name": "account",
          "type": "address"
        }
      ],
      "name": "Unpaused",
      "type": "event"
    },
    {
      "inputs": [],
      "name": "DEFAULT_ADMIN_ROLE",
      "outputs": [
        {
          "internalType": "bytes32",
          "name": "",
          "type": "bytes32"
        }
      ],
      "stateMutability": "view",
      "type": "function"
    },
    {
      "inputs": [],
      "name": "MINTER_ROLE",
      "outputs": [
        {
          "internalType": "bytes32",
          "name": "",
          "type": "bytes32"
        }
      ],
      "stateMutability": "view",
      "type": "function"
    },
    {
      "inputs": [],
      "name": "PAUSER_ROLE",
      "outputs": [
        {
          "internalType": "bytes32",
          "name": "",
          "type": "bytes32"
        }
      ],
      "stateMutability": "view",
      "type": "function"
    },
    {
      "inputs": [
        {
          "internalType": "address",
          "name": "to",
          "type": "address"
        },
        {
          "internalType": "uint256",
          "name": "tokenId",
          "type": "uint256"
        }
      ],
      "name": "approve",
      "outputs": [],
      "stateMutability": "nonpayable",
      "type": "function"
    },
    {
      "inputs": [
        {
          "internalType": "address",
          "name": "owner",
          "type": "address"
        }
      ],
      "name": "balanceOf",
      "outputs": [
        {
          "internalType": "uint256",
          "name": "",
          "type": "uint256"
        }
      ],
      "stateMutability": "view",
      "type": "function"
    },
    {
      "inputs": [],
      "name": "baseTokenURI",
      "outputs": [
        {
          "internalType": "string",
          "name": "",
          "type": "string"
        }
      ],
      "stateMutability": "view",
      "type": "function"
    },
    {
      "inputs": [
        {
          "internalType": "address[]",
          "name": "_recipients",
          "type": "address[]"
        }
      ],
      "name": "bulkMint",
      "outputs": [
        {
          "internalType": "uint256[]",
          "name": "_tokenIds",
          "type": "uint256[]"
        }
      ],
      "stateMutability": "nonpayable",
      "type": "function"
    },
    {
      "inputs": [
        {
          "internalType": "uint256",
          "name": "tokenId",
          "type": "uint256"
        }
      ],
      "name": "burn",
      "outputs": [],
      "stateMutability": "nonpayable",
      "type": "function"
    },
    {
      "inputs": [
        {
          "internalType": "uint256",
          "name": "tokenId",
          "type": "uint256"
        }
      ],
      "name": "exists",
      "outputs": [
        {
          "internalType": "bool",
          "name": "",
          "type": "bool"
        }
      ],
      "stateMutability": "view",
      "type": "function"
    },
    {
      "inputs": [
        {
          "internalType": "contract IERC20",
          "name": "token",
          "type": "address"
        },
        {
          "internalType": "uint256",
          "name": "amount",
          "type": "uint256"
        }
      ],
      "name": "forwardERC20s",
      "outputs": [],
      "stateMutability": "nonpayable",
      "type": "function"
    },
    {
      "inputs": [
        {
          "internalType": "uint256",
          "name": "tokenId",
          "type": "uint256"
        }
      ],
      "name": "getApproved",
      "outputs": [
        {
          "internalType": "address",
          "name": "",
          "type": "address"
        }
      ],
      "stateMutability": "view",
      "type": "function"
    },
    {
      "inputs": [],
      "name": "getBaseURI",
      "outputs": [
        {
          "internalType": "string",
          "name": "",
          "type": "string"
        }
      ],
      "stateMutability": "view",
      "type": "function"
    },
    {
      "inputs": [
        {
          "internalType": "bytes32",
          "name": "role",
          "type": "bytes32"
        }
      ],
      "name": "getRoleAdmin",
      "outputs": [
        {
          "internalType": "bytes32",
          "name": "",
          "type": "bytes32"
        }
      ],
      "stateMutability": "view",
      "type": "function"
    },
    {
      "inputs": [
        {
          "internalType": "bytes32",
          "name": "role",
          "type": "bytes32"
        },
        {
          "internalType": "uint256",
          "name": "index",
          "type": "uint256"
        }
      ],
      "name": "getRoleMember",
      "outputs": [
        {
          "internalType": "address",
          "name": "",
          "type": "address"
        }
      ],
      "stateMutability": "view",
      "type": "function"
    },
    {
      "inputs": [
        {
          "internalType": "bytes32",
          "name": "role",
          "type": "bytes32"
        }
      ],
      "name": "getRoleMemberCount",
      "outputs": [
        {
          "internalType": "uint256",
          "name": "",
          "type": "uint256"
        }
      ],
      "stateMutability": "view",
      "type": "function"
    },
    {
      "inputs": [
        {
          "internalType": "address",
          "name": "ownerAddress",
          "type": "address"
        }
      ],
      "name": "getTokens",
      "outputs": [
        {
          "internalType": "uint256[]",
          "name": "",
          "type": "uint256[]"
        }
      ],
      "stateMutability": "view",
      "type": "function"
    },
    {
      "inputs": [
        {
          "internalType": "bytes32",
          "name": "role",
          "type": "bytes32"
        },
        {
          "internalType": "address",
          "name": "account",
          "type": "address"
        }
      ],
      "name": "grantRole",
      "outputs": [],
      "stateMutability": "nonpayable",
      "type": "function"
    },
    {
      "inputs": [
        {
          "internalType": "bytes32",
          "name": "role",
          "type": "bytes32"
        },
        {
          "internalType": "address",
          "name": "account",
          "type": "address"
        }
      ],
      "name": "hasRole",
      "outputs": [
        {
          "internalType": "bool",
          "name": "",
          "type": "bool"
        }
      ],
      "stateMutability": "view",
      "type": "function"
    },
    {
      "inputs": [
        {
          "internalType": "address",
          "name": "owner",
          "type": "address"
        },
        {
          "internalType": "address",
          "name": "operator",
          "type": "address"
        }
      ],
      "name": "isApprovedForAll",
      "outputs": [
        {
          "internalType": "bool",
          "name": "",
          "type": "bool"
        }
      ],
      "stateMutability": "view",
      "type": "function"
    },
    {
      "inputs": [
        {
          "internalType": "uint256",
          "name": "tokenId",
          "type": "uint256"
        }
      ],
      "name": "isItemPaused",
      "outputs": [
        {
          "internalType": "bool",
          "name": "",
          "type": "bool"
        }
      ],
      "stateMutability": "view",
      "type": "function"
    },
    {
      "inputs": [
        {
          "internalType": "address",
          "name": "to",
          "type": "address"
        }
      ],
      "name": "mint",
      "outputs": [
        {
          "internalType": "uint256",
          "name": "_tokenId",
          "type": "uint256"
        }
      ],
      "stateMutability": "nonpayable",
      "type": "function"
    },
    {
      "inputs": [
        {
          "internalType": "address",
          "name": "recipient",
          "type": "address"
        },
        {
          "internalType": "uint256",
          "name": "tokenId",
          "type": "uint256"
        },
        {
          "internalType": "bool",
          "name": "lock",
          "type": "bool"
        }
      ],
      "name": "mintTokenId",
      "outputs": [],
      "stateMutability": "nonpayable",
      "type": "function"
    },
    {
      "inputs": [
        {
          "internalType": "address",
          "name": "recipient",
          "type": "address"
        },
        {
          "internalType": "uint256",
          "name": "tokenId",
          "type": "uint256"
        }
      ],
      "name": "mintTokenId",
      "outputs": [],
      "stateMutability": "nonpayable",
      "type": "function"
    },
    {
      "inputs": [],
      "name": "minterAddress",
      "outputs": [
        {
          "internalType": "address",
          "name": "",
          "type": "address"
        }
      ],
      "stateMutability": "view",
      "type": "function"
    },
    {
      "inputs": [],
      "name": "name",
      "outputs": [
        {
          "internalType": "string",
          "name": "",
          "type": "string"
        }
      ],
      "stateMutability": "view",
      "type": "function"
    },
    {
      "inputs": [
        {
          "internalType": "uint256",
          "name": "",
          "type": "uint256"
        }
      ],
      "name": "nonces",
      "outputs": [
        {
          "internalType": "uint256",
          "name": "",
          "type": "uint256"
        }
      ],
      "stateMutability": "view",
      "type": "function"
    },
    {
      "inputs": [],
      "name": "numMinted",
      "outputs": [
        {
          "internalType": "uint256",
          "name": "",
          "type": "uint256"
        }
      ],
      "stateMutability": "view",
      "type": "function"
    },
    {
      "inputs": [],
      "name": "owner",
      "outputs": [
        {
          "internalType": "address",
          "name": "",
          "type": "address"
        }
      ],
      "stateMutability": "view",
      "type": "function"
    },
    {
      "inputs": [
        {
          "internalType": "uint256",
          "name": "tokenId",
          "type": "uint256"
        }
      ],
      "name": "ownerOf",
      "outputs": [
        {
          "internalType": "address",
          "name": "",
          "type": "address"
        }
      ],
      "stateMutability": "view",
      "type": "function"
    },
    {
      "inputs": [],
      "name": "pause",
      "outputs": [],
      "stateMutability": "nonpayable",
      "type": "function"
    },
    {
      "inputs": [],
      "name": "pauseContract",
      "outputs": [],
      "stateMutability": "nonpayable",
      "type": "function"
    },
    {
      "inputs": [
        {
          "internalType": "uint256",
          "name": "tag",
          "type": "uint256"
        },
        {
          "internalType": "bool",
          "name": "paused",
          "type": "bool"
        }
      ],
      "name": "pauseItem",
      "outputs": [],
      "stateMutability": "nonpayable",
      "type": "function"
    },
    {
      "inputs": [
        {
          "internalType": "uint256[]",
          "name": "tags",
          "type": "uint256[]"
        },
        {
          "internalType": "bool[]",
          "name": "paused",
          "type": "bool[]"
        }
      ],
      "name": "pauseItemsBatch",
      "outputs": [],
      "stateMutability": "nonpayable",
      "type": "function"
    },
    {
      "inputs": [],
      "name": "paused",
      "outputs": [
        {
          "internalType": "bool",
          "name": "",
          "type": "bool"
        }
      ],
      "stateMutability": "view",
      "type": "function"
    },
    {
      "inputs": [],
      "name": "renounceOwnership",
      "outputs": [],
      "stateMutability": "nonpayable",
      "type": "function"
    },
    {
      "inputs": [
        {
          "internalType": "bytes32",
          "name": "role",
          "type": "bytes32"
        },
        {
          "internalType": "address",
          "name": "account",
          "type": "address"
        }
      ],
      "name": "renounceRole",
      "outputs": [],
      "stateMutability": "nonpayable",
      "type": "function"
    },
    {
      "inputs": [
        {
          "internalType": "bytes32",
          "name": "role",
          "type": "bytes32"
        },
        {
          "internalType": "address",
          "name": "account",
          "type": "address"
        }
      ],
      "name": "revokeRole",
      "outputs": [],
      "stateMutability": "nonpayable",
      "type": "function"
    },
    {
      "inputs": [
        {
          "internalType": "address",
          "name": "from",
          "type": "address"
        },
        {
          "internalType": "address",
          "name": "to",
          "type": "address"
        },
        {
          "internalType": "uint256",
          "name": "tokenId",
          "type": "uint256"
        }
      ],
      "name": "safeTransferFrom",
      "outputs": [],
      "stateMutability": "nonpayable",
      "type": "function"
    },
    {
      "inputs": [
        {
          "internalType": "address",
          "name": "from",
          "type": "address"
        },
        {
          "internalType": "address",
          "name": "to",
          "type": "address"
        },
        {
          "internalType": "uint256",
          "name": "tokenId",
          "type": "uint256"
        },
        {
          "internalType": "bytes",
          "name": "data",
          "type": "bytes"
        }
      ],
      "name": "safeTransferFrom",
      "outputs": [],
      "stateMutability": "nonpayable",
      "type": "function"
    },
    {
      "inputs": [
        {
          "internalType": "address",
          "name": "operator",
          "type": "address"
        },
        {
          "internalType": "bool",
          "name": "approved",
          "type": "bool"
        }
      ],
      "name": "setApprovalForAll",
      "outputs": [],
      "stateMutability": "nonpayable",
      "type": "function"
    },
    {
      "inputs": [
        {
          "internalType": "string",
          "name": "baseTokenURI",
          "type": "string"
        }
      ],
      "name": "setBaseURI",
      "outputs": [],
      "stateMutability": "nonpayable",
      "type": "function"
    },
    {
      "inputs": [
        {
          "internalType": "address",
          "name": "newMinter",
          "type": "address"
        }
      ],
      "name": "setMinter",
      "outputs": [],
      "stateMutability": "nonpayable",
      "type": "function"
    },
    {
      "inputs": [
        {
          "internalType": "string",
          "name": "newBaseURI",
          "type": "string"
        }
      ],
      "name": "setNewBaseURI",
      "outputs": [],
      "stateMutability": "nonpayable",
      "type": "function"
    },
    {
      "inputs": [
        {
          "internalType": "uint256",
          "name": "_tokenId",
          "type": "uint256"
        }
      ],
      "name": "stateOf",
      "outputs": [
        {
          "internalType": "bytes",
          "name": "",
          "type": "bytes"
        }
      ],
      "stateMutability": "view",
      "type": "function"
    },
    {
      "inputs": [
        {
          "internalType": "bytes4",
          "name": "interfaceId",
          "type": "bytes4"
        }
      ],
      "name": "supportsInterface",
      "outputs": [
        {
          "internalType": "bool",
          "name": "",
          "type": "bool"
        }
      ],
      "stateMutability": "view",
      "type": "function"
    },
    {
      "inputs": [],
      "name": "symbol",
      "outputs": [
        {
          "internalType": "string",
          "name": "",
          "type": "string"
        }
      ],
      "stateMutability": "view",
      "type": "function"
    },
    {
      "inputs": [
        {
          "internalType": "uint256",
          "name": "index",
          "type": "uint256"
        }
      ],
      "name": "tokenByIndex",
      "outputs": [
        {
          "internalType": "uint256",
          "name": "",
          "type": "uint256"
        }
      ],
      "stateMutability": "view",
      "type": "function"
    },
    {
      "inputs": [
        {
          "internalType": "address",
          "name": "owner",
          "type": "address"
        },
        {
          "internalType": "uint256",
          "name": "index",
          "type": "uint256"
        }
      ],
      "name": "tokenOfOwnerByIndex",
      "outputs": [
        {
          "internalType": "uint256",
          "name": "",
          "type": "uint256"
        }
      ],
      "stateMutability": "view",
      "type": "function"
    },
    {
      "inputs": [
        {
          "internalType": "uint256",
          "name": "tokenId",
          "type": "uint256"
        }
      ],
      "name": "tokenURI",
      "outputs": [
        {
          "internalType": "string",
          "name": "",
          "type": "string"
        }
      ],
      "stateMutability": "view",
      "type": "function"
    },
    {
      "inputs": [],
      "name": "totalSupply",
      "outputs": [
        {
          "internalType": "uint256",
          "name": "",
          "type": "uint256"
        }
      ],
      "stateMutability": "view",
      "type": "function"
    },
    {
      "inputs": [
        {
          "internalType": "address",
          "name": "from",
          "type": "address"
        },
        {
          "internalType": "address",
          "name": "to",
          "type": "address"
        },
        {
          "internalType": "uint256",
          "name": "tokenId",
          "type": "uint256"
        }
      ],
      "name": "transferFrom",
      "outputs": [],
      "stateMutability": "nonpayable",
      "type": "function"
    },
    {
      "inputs": [
        {
          "internalType": "address",
          "name": "newOwner",
          "type": "address"
        }
      ],
      "name": "transferOwnership",
      "outputs": [],
      "stateMutability": "nonpayable",
      "type": "function"
    },
    {
      "inputs": [
        {
          "internalType": "uint256[]",
          "name": "tokenIds",
          "type": "uint256[]"
        }
      ],
      "name": "unlockTokens",
      "outputs": [],
      "stateMutability": "nonpayable",
      "type": "function"
    },
    {
      "inputs": [],
      "name": "unpause",
      "outputs": [],
      "stateMutability": "nonpayable",
      "type": "function"
    },
    {
      "inputs": [],
      "name": "unpauseContract",
      "outputs": [],
      "stateMutability": "nonpayable",
      "type": "function"
    },
    {
      "inputs": [],
      "name": "withdrawAll",
      "outputs": [],
      "stateMutability": "payable",
      "type": "function"
    }
  ],
  "bytecode": "0x608060405260006046553480156200001657600080fd5b50604051620045f5380380620045f5833981016040819052620000399162000335565b6040518060400160405280600d81526020016c52756e6976657273654974656d60981b815250604051806040016040528060048152602001635249544d60e01b815250828282828282816002908162000093919062000498565b506003620000a2828262000498565b5050603f805460ff19169055506041620000bd828262000498565b50620000cb60003362000180565b620000f77f9f2df0fed2c77648de5860a4cc508cd0818c85b8b8a1ab4ceeef8d981c8956a63362000180565b620001237f65d7a28e3265b37a6474929f336521b332c1681b933f6cb9f3376673440d862a3362000180565b62000132604080546001019055565b505050505050620001526200014c6200017c60201b60201c565b62000190565b6001604355604562000165828262000498565b50604162000174828262000498565b505062000564565b3390565b6200018c8282620001e2565b5050565b604280546001600160a01b038381166001600160a01b0319831681179093556040519116919082907f8be0079c531659141344cd1fd0a4f28419497f9722a3daafe3b4186f6b6457e090600090a35050565b620001ee82826200020d565b6000828152600160205260409020620002089082620002ad565b505050565b6000828152602081815260408083206001600160a01b038516845290915290205460ff166200018c576000828152602081815260408083206001600160a01b03851684529091529020805460ff19166001179055620002693390565b6001600160a01b0316816001600160a01b0316837f2f8788117e7eff1d82e926ec794901d17c78024a50270940304540a733656f0d60405160405180910390a45050565b6000620002c4836001600160a01b038416620002cd565b90505b92915050565b60008181526001830160205260408120546200031657508154600181810184556000848152602080822090930184905584548482528286019093526040902091909155620002c7565b506000620002c7565b634e487b7160e01b600052604160045260246000fd5b600060208083850312156200034957600080fd5b82516001600160401b03808211156200036157600080fd5b818501915085601f8301126200037657600080fd5b8151818111156200038b576200038b6200031f565b604051601f8201601f19908116603f01168101908382118183101715620003b657620003b66200031f565b816040528281528886848701011115620003cf57600080fd5b600093505b82841015620003f35784840186015181850187015292850192620003d4565b600086848301015280965050505050505092915050565b600181811c908216806200041f57607f821691505b6020821081036200044057634e487b7160e01b600052602260045260246000fd5b50919050565b601f8211156200020857600081815260208120601f850160051c810160208610156200046f5750805b601f850160051c820191505b8181101562000490578281556001016200047b565b505050505050565b81516001600160401b03811115620004b457620004b46200031f565b620004cc81620004c584546200040a565b8462000446565b602080601f831160018114620005045760008415620004eb5750858301515b600019600386901b1c1916600185901b17855562000490565b600085815260208120601f198616915b82811015620005355788860151825594840194600190910190840162000514565b5085821015620005545787850151600019600388901b60f8161c191681555b5050505050600190811b01905550565b61408180620005746000396000f3fe60806040526004361061036b5760003560e01c80636352211e116101c6578063a9af7023116100f7578063d539139311610095578063e63ab1e91161006f578063e63ab1e9146109e6578063e985e9c514610a1a578063f2fde38b14610a63578063fca3b5aa14610a8357600080fd5b8063d53913931461097d578063d547741f146109b1578063d547cfb7146109d157600080fd5b8063c87b56dd116100d1578063c87b56dd14610907578063ca15c87314610927578063cbd5d40314610947578063d52079b41461096757600080fd5b8063a9af7023146108b2578063b33712c5146108d2578063b88d4fde146108e757600080fd5b80638da5cb5b1161016457806395d89b411161013e57806395d89b41146108485780639727151a1461085d578063a217fddf1461087d578063a22cb4651461089257600080fd5b80638da5cb5b146107ea5780639010d07c1461080857806391d148541461082857600080fd5b8063714c5398116101a0578063714c5398146107a3578063715018a6146107b85780638456cb59146107cd578063853828b6146107e257600080fd5b80636352211e146107435780636a6278421461076357806370a082311461078357600080fd5b806332761d16116102a0578063439766ce1161023e5780634f558e79116102185780634f558e79146106cb5780634f6ccce7146106eb57806355f804b31461070b5780635c975abb1461072b57600080fd5b8063439766ce14610663578063450efe21146106785780634b82dca01461069857600080fd5b80633771aaa11161027a5780633771aaa1146105e15780633f4ba83a1461060e57806342842e0e1461062357806342966c681461064357600080fd5b806332761d161461058157806334d722c9146105a157806336568abe146105c157600080fd5b806318160ddd1161030d578063248a9ca3116102e7578063248a9ca3146104f15780632d2fca78146105215780632f2ff15d146105415780632f745c591461056157600080fd5b806318160ddd1461049c5780631cb1ac0b146104b157806323b872dd146104d157600080fd5b8063083ec66711610349578063083ec667146103ff578063095ea7b314610421578063131a7e2414610441578063141a468c1461046157600080fd5b806301ffc9a71461037057806306fdde03146103a5578063081812fc146103c7575b600080fd5b34801561037c57600080fd5b5061039061038b3660046134d1565b610aa3565b60405190151581526020015b60405180910390f35b3480156103b157600080fd5b506103ba610ab4565b60405161039c919061353e565b3480156103d357600080fd5b506103e76103e2366004613551565b610b46565b6040516001600160a01b03909116815260200161039c565b34801561040b57600080fd5b5061041f61041a3660046135b5565b610b6d565b005b34801561042d57600080fd5b5061041f61043c366004613635565b610c60565b34801561044d57600080fd5b506103ba61045c366004613551565b610d75565b34801561046d57600080fd5b5061048e61047c366004613551565b60086020526000908152604090205481565b60405190815260200161039c565b3480156104a857600080fd5b50603d5461048e565b3480156104bd57600080fd5b5061041f6104cc366004613661565b610e3c565b3480156104dd57600080fd5b5061041f6104ec3660046136d2565b610e5f565b3480156104fd57600080fd5b5061048e61050c366004613551565b60009081526020819052604090206001015490565b34801561052d57600080fd5b5061041f61053c366004613721565b610ee7565b34801561054d57600080fd5b5061041f61055c366004613763565b61109b565b34801561056d57600080fd5b5061048e61057c366004613635565b6110c0565b34801561058d57600080fd5b5061041f61059c366004613635565b611156565b3480156105ad57600080fd5b506044546103e7906001600160a01b031681565b3480156105cd57600080fd5b5061041f6105dc366004613763565b611166565b3480156105ed57600080fd5b506106016105fc366004613793565b6111e0565b60405161039c91906137d4565b34801561061a57600080fd5b5061041f61131a565b34801561062f57600080fd5b5061041f61063e3660046136d2565b6113c2565b34801561064f57600080fd5b5061041f61065e366004613551565b6113dd565b34801561066f57600080fd5b5061041f611410565b34801561068457600080fd5b50610601610693366004613818565b611486565b3480156106a457600080fd5b506103906106b3366004613551565b60601c60009081526047602052604090205460ff1690565b3480156106d757600080fd5b506103906106e6366004613551565b6115ed565b3480156106f757600080fd5b5061048e610706366004613551565b6115f8565b34801561071757600080fd5b5061041f6107263660046138d2565b61168b565b34801561073757600080fd5b50603f5460ff16610390565b34801561074f57600080fd5b506103e761075e366004613551565b6116a2565b34801561076f57600080fd5b5061048e61077e366004613818565b611702565b34801561078f57600080fd5b5061048e61079e366004613818565b6117a9565b3480156107af57600080fd5b506103ba61182f565b3480156107c457600080fd5b5061041f61183e565b3480156107d957600080fd5b5061041f611850565b61041f6118f4565b3480156107f657600080fd5b506042546001600160a01b03166103e7565b34801561081457600080fd5b506103e761082336600461391a565b611994565b34801561083457600080fd5b50610390610843366004613763565b6119b3565b34801561085457600080fd5b506103ba6119dc565b34801561086957600080fd5b5061041f610878366004613635565b6119eb565b34801561088957600080fd5b5061048e600081565b34801561089e57600080fd5b5061041f6108ad36600461393c565b611a82565b3480156108be57600080fd5b5061041f6108cd36600461396a565b611a8d565b3480156108de57600080fd5b5061041f611ab5565b3480156108f357600080fd5b5061041f61090236600461398f565b611b2c565b34801561091357600080fd5b506103ba610922366004613551565b611b64565b34801561093357600080fd5b5061048e610942366004613551565b611bef565b34801561095357600080fd5b5061041f610962366004613a0e565b611c06565b34801561097357600080fd5b5061048e60465481565b34801561098957600080fd5b5061048e7f9f2df0fed2c77648de5860a4cc508cd0818c85b8b8a1ab4ceeef8d981c8956a681565b3480156109bd57600080fd5b5061041f6109cc366004613763565b611c7c565b3480156109dd57600080fd5b506103ba611ca1565b3480156109f257600080fd5b5061048e7f65d7a28e3265b37a6474929f336521b332c1681b933f6cb9f3376673440d862a81565b348015610a2657600080fd5b50610390610a35366004613ab3565b6001600160a01b03918216600090815260076020908152604080832093909416825291909152205460ff1690565b348015610a6f57600080fd5b5061041f610a7e366004613818565b611d2f565b348015610a8f57600080fd5b5061041f610a9e366004613818565b611da5565b6000610aae82611e1e565b92915050565b606060028054610ac390613ae1565b80601f0160208091040260200160405190810160405280929190818152602001828054610aef90613ae1565b8015610b3c5780601f10610b1157610100808354040283529160200191610b3c565b820191906000526020600020905b815481529060010190602001808311610b1f57829003601f168201915b5050505050905090565b6000610b5182611e5e565b506000908152600660205260409020546001600160a01b031690565b610b75611eae565b828114610bd45760405162461bcd60e51b815260206004820152602260248201527f4172726179732073686f756c642068617665207468652073616d65206c656e676044820152610e8d60f31b60648201526084015b60405180910390fd5b60005b83811015610c5957828282818110610bf157610bf1613b1b565b9050602002016020810190610c069190613b31565b60476000878785818110610c1c57610c1c613b1b565b90506020020135815260200190815260200160002060006101000a81548160ff02191690831515021790555080610c5290613b64565b9050610bd7565b5050505050565b6000610c6b826116a2565b9050806001600160a01b0316836001600160a01b031603610cd85760405162461bcd60e51b815260206004820152602160248201527f4552433732313a20617070726f76616c20746f2063757272656e74206f776e656044820152603960f91b6064820152608401610bcb565b336001600160a01b0382161480610cf45750610cf48133610a35565b610d665760405162461bcd60e51b815260206004820152603d60248201527f4552433732313a20617070726f76652063616c6c6572206973206e6f7420746f60448201527f6b656e206f776e6572206f7220617070726f76656420666f7220616c6c0000006064820152608401610bcb565b610d708383611f08565b505050565b6060610d8082611f76565b610ddf5760405162461bcd60e51b815260206004820152602a60248201527f455243373231436f6d6d6f6e3a20717565727920666f72206e6f6e2d657869736044820152693a32b73a103a37b5b2b760b11b6064820152608401610bcb565b610de8826116a2565b60008381526008602090815260409182902054915160609390931b6bffffffffffffffffffffffff1916908301526034820152605481018390526074015b6040516020818303038152906040529050919050565b610e44611eae565b6045610e51828483613bcb565b506041610d70828483613bcb565b60405163025c16e560e51b8152600481018290523090634b82dca090602401602060405180830381865afa158015610e9b573d6000803e3d6000fd5b505050506040513d601f19601f82011682018060405250810190610ebf9190613c8a565b15610edc5760405162461bcd60e51b8152600401610bcb90613ca7565b610d70838383611f93565b610eef611fc3565b603f5460ff1615610f365760405162461bcd60e51b8152602060048201526011602482015270135a5b9d1a5b99c81a5cc81c185d5cd959607a1b6044820152606401610bcb565b6044546001600160a01b0316336001600160a01b031614610f995760405162461bcd60e51b815260206004820152601b60248201527f4d696e7465722061646472657373206973206e6f742076616c696400000000006044820152606401610bcb565b604660008154610fa890613b64565b90915550604080516001600160a01b0385168152602081018490527f604e0f34ba8d6d3f7f48c01c251c7bf880d71369b217e5b976ca6120cc51710c910160405180910390a1610ff8838361201c565b80156110915760405163025c16e560e51b8152600481018390523090634b82dca090602401602060405180830381865afa15801561103a573d6000803e3d6000fd5b505050506040513d601f19601f8201168201806040525081019061105e9190613c8a565b1561109157604051309083907f9ecfd70e9ff36df72989324a49559383d39f9290d700b10cf5ac10dcb68d264390600090a35b610d706001604355565b6000828152602081905260409020600101546110b681612036565b610d708383612040565b60006110cb836117a9565b821061112d5760405162461bcd60e51b815260206004820152602b60248201527f455243373231456e756d657261626c653a206f776e657220696e646578206f7560448201526a74206f6620626f756e647360a81b6064820152608401610bcb565b506001600160a01b03919091166000908152603b60209081526040808320938352929052205490565b61116282826000610ee7565b5050565b6001600160a01b03811633146111d65760405162461bcd60e51b815260206004820152602f60248201527f416363657373436f6e74726f6c3a2063616e206f6e6c792072656e6f756e636560448201526e103937b632b9903337b91039b2b63360891b6064820152608401610bcb565b6111628282612062565b60607f9f2df0fed2c77648de5860a4cc508cd0818c85b8b8a1ab4ceeef8d981c8956a661120c81612036565b826112655760405162461bcd60e51b815260206004820152602360248201527f455243373231436f6d6d6f6e3a20696e76616c6964206172726179206c656e6760448201526274687360e81b6064820152608401610bcb565b826001600160401b0381111561127d5761127d613835565b6040519080825280602002602001820160405280156112a6578160200160208202803683370190505b50915060005b83811015611312576112e38585838181106112c9576112c9613b1b565b90506020020160208101906112de9190613818565b612084565b8382815181106112f5576112f5613b1b565b60209081029190910101528061130a81613b64565b9150506112ac565b505092915050565b6113447f65d7a28e3265b37a6474929f336521b332c1681b933f6cb9f3376673440d862a336119b3565b6113b8576040805162461bcd60e51b81526020600482015260248101919091527f4552433732315072657365744d696e7465725061757365724175746f49643a2060448201527f6d75737420686176652070617573657220726f6c6520746f20756e70617573656064820152608401610bcb565b6113c06120ae565b565b610d7083838360405180602001604052806000815250611b2c565b6113e8335b82612100565b6114045760405162461bcd60e51b8152600401610bcb90613ccf565b61140d8161217f565b50565b611418611eae565b306001600160a01b0316635c975abb6040518163ffffffff1660e01b8152600401602060405180830381865afa158015611456573d6000803e3d6000fd5b505050506040513d601f19601f8201168201806040525081019061147a9190613c8a565b6113c0576113c0612205565b6040516370a0823160e01b81526001600160a01b038216600482015260609060009030906370a0823190602401602060405180830381865afa1580156114d0573d6000803e3d6000fd5b505050506040513d601f19601f820116820180604052508101906114f49190613d1c565b90506000816001600160401b0381111561151057611510613835565b604051908082528060200260200182016040528015611539578160200160208202803683370190505b50905060005b828110156115e557604051632f745c5960e01b81526001600160a01b0386166004820152602481018290523090632f745c5990604401602060405180830381865afa158015611592573d6000803e3d6000fd5b505050506040513d601f19601f820116820180604052508101906115b69190613d1c565b8282815181106115c8576115c8613b1b565b6020908102919091010152806115dd81613b64565b91505061153f565b509392505050565b6000610aae82611f76565b6000611603603d5490565b82106116665760405162461bcd60e51b815260206004820152602c60248201527f455243373231456e756d657261626c653a20676c6f62616c20696e646578206f60448201526b7574206f6620626f756e647360a01b6064820152608401610bcb565b603d828154811061167957611679613b1b565b90600052602060002001549050919050565b600061169681612036565b6041610d708382613d35565b6000818152600460205260408120546001600160a01b031680610aae5760405162461bcd60e51b8152602060048201526018602482015277115490cdcc8c4e881a5b9d985b1a59081d1bdad95b88125160421b6044820152606401610bcb565b600061172e7f9f2df0fed2c77648de5860a4cc508cd0818c85b8b8a1ab4ceeef8d981c8956a6336119b3565b6117a05760405162461bcd60e51b815260206004820152603d60248201527f4552433732315072657365744d696e7465725061757365724175746f49643a2060448201527f6d7573742068617665206d696e74657220726f6c6520746f206d696e740000006064820152608401610bcb565b610aae82612084565b60006001600160a01b0382166118135760405162461bcd60e51b815260206004820152602960248201527f4552433732313a2061646472657373207a65726f206973206e6f7420612076616044820152683634b21037bbb732b960b91b6064820152608401610bcb565b506001600160a01b031660009081526005602052604090205490565b606060458054610ac390613ae1565b611846611eae565b6113c06000612242565b61187a7f65d7a28e3265b37a6474929f336521b332c1681b933f6cb9f3376673440d862a336119b3565b6118ec5760405162461bcd60e51b815260206004820152603e60248201527f4552433732315072657365744d696e7465725061757365724175746f49643a2060448201527f6d75737420686176652070617573657220726f6c6520746f20706175736500006064820152608401610bcb565b6113c0612205565b6118fc611eae565b604051600090339047908381818185875af1925050503d806000811461193e576040519150601f19603f3d011682016040523d82523d6000602084013e611943565b606091505b505090508061140d5760405162461bcd60e51b815260206004820152601b60248201527f776974686472617720776173206e6f742073756363657366756c6c00000000006044820152606401610bcb565b60008281526001602052604081206119ac9083612294565b9392505050565b6000918252602082815260408084206001600160a01b0393909316845291905290205460ff1690565b606060038054610ac390613ae1565b6119f3611eae565b33611a11576040516324560b2960e11b815260040160405180910390fd5b60405163a9059cbb60e01b8152336004820152602481018290526001600160a01b0383169063a9059cbb906044016020604051808303816000875af1158015611a5e573d6000803e3d6000fd5b505050506040513d601f19601f82011682018060405250810190610d709190613c8a565b6111623383836122a0565b611a95611eae565b600091825260476020526040909120805460ff1916911515919091179055565b611abd611eae565b306001600160a01b0316635c975abb6040518163ffffffff1660e01b8152600401602060405180830381865afa158015611afb573d6000803e3d6000fd5b505050506040513d601f19601f82011682018060405250810190611b1f9190613c8a565b156113c0576113c06120ae565b611b363383612100565b611b525760405162461bcd60e51b8152600401610bcb90613ccf565b611b5e8484848461236e565b50505050565b6060611b6f82611f76565b611bd35760405162461bcd60e51b815260206004820152602f60248201527f4552433732314d657461646174613a2055524920717565727920666f72206e6f60448201526e3732bc34b9ba32b73a103a37b5b2b760891b6064820152608401610bcb565b6045611bde836123a1565b604051602001610e26929190613df4565b6000818152600160205260408120610aae90612433565b611c0e611eae565b60005b815181101561116257306001600160a01b0316828281518110611c3657611c36613b1b565b60200260200101517f0fe7d9801197f79ef3b1595d19379eb58f0fff5f98b0f6d6f34c03cae5306c3760405160405180910390a380611c7481613b64565b915050611c11565b600082815260208190526040902060010154611c9781612036565b610d708383612062565b60458054611cae90613ae1565b80601f0160208091040260200160405190810160405280929190818152602001828054611cda90613ae1565b8015611d275780601f10611cfc57610100808354040283529160200191611d27565b820191906000526020600020905b815481529060010190602001808311611d0a57829003601f168201915b505050505081565b611d37611eae565b6001600160a01b038116611d9c5760405162461bcd60e51b815260206004820152602660248201527f4f776e61626c653a206e6577206f776e657220697320746865207a65726f206160448201526564647265737360d01b6064820152608401610bcb565b61140d81612242565b611dad611eae565b6001600160a01b038116611dfc5760405162461bcd60e51b8152602060048201526016602482015275496e76616c6964206d696e746572206164647265737360501b6044820152606401610bcb565b604480546001600160a01b0319166001600160a01b0392909216919091179055565b60006001600160e01b03198216633771aaa160e01b1480611e4f57506001600160e01b031982166304c69f8960e21b145b80610aae5750610aae8261243d565b611e6781611f76565b61140d5760405162461bcd60e51b8152602060048201526018602482015277115490cdcc8c4e881a5b9d985b1a59081d1bdad95b88125160421b6044820152606401610bcb565b6042546001600160a01b031633146113c05760405162461bcd60e51b815260206004820181905260248201527f4f776e61626c653a2063616c6c6572206973206e6f7420746865206f776e65726044820152606401610bcb565b600081815260066020526040902080546001600160a01b0319166001600160a01b0384169081179091558190611f3d826116a2565b6001600160a01b03167f8c5be1e5ebec7d5bd14f71427d1e84f3dd0314c0f7b2291e5b200ac8c7c3b92560405160405180910390a45050565b6000908152600460205260409020546001600160a01b0316151590565b611f9c336113e2565b611fb85760405162461bcd60e51b8152600401610bcb90613ccf565b610d70838383612462565b6002604354036120155760405162461bcd60e51b815260206004820152601f60248201527f5265656e7472616e637947756172643a207265656e7472616e742063616c6c006044820152606401610bcb565b6002604355565b6111628282604051806020016040528060008152506124ea565b61140d813361251d565b61204a8282612576565b6000828152600160205260409020610d7090826125fa565b61206c828261260f565b6000828152600160205260409020610d709082612674565b600061208f60405490565b905061209b8282612689565b6120a9604080546001019055565b919050565b6120b6612804565b603f805460ff191690557f5db9ee0a495bf2e6ff9c91a7834c1ba4fdd244a5e8aa4e537bd38aeae4b073aa335b6040516001600160a01b03909116815260200160405180910390a1565b60008061210c836116a2565b9050806001600160a01b0316846001600160a01b0316148061215357506001600160a01b0380821660009081526007602090815260408083209388168352929052205460ff165b806121775750836001600160a01b031661216c84610b46565b6001600160a01b0316145b949350505050565b60405163025c16e560e51b8152600481018290523090634b82dca090602401602060405180830381865afa1580156121bb573d6000803e3d6000fd5b505050506040513d601f19601f820116820180604052508101906121df9190613c8a565b156121fc5760405162461bcd60e51b8152600401610bcb90613ca7565b61140d8161284d565b61220d6128f0565b603f805460ff191660011790557f62e78cea01bee320cd4e420270b5ea74000d11b0c9f74754ebdbfc544b05a2586120e33390565b604280546001600160a01b038381166001600160a01b0319831681179093556040519116919082907f8be0079c531659141344cd1fd0a4f28419497f9722a3daafe3b4186f6b6457e090600090a35050565b60006119ac8383612936565b816001600160a01b0316836001600160a01b0316036123015760405162461bcd60e51b815260206004820152601960248201527f4552433732313a20617070726f766520746f2063616c6c6572000000000000006044820152606401610bcb565b6001600160a01b03838116600081815260076020908152604080832094871680845294825291829020805460ff191686151590811790915591519182527f17307eab39ab6107e8899845ad3d59bd9653f200f220920489ca2b5937696c31910160405180910390a3505050565b612379848484612462565b61238584848484612960565b611b5e5760405162461bcd60e51b8152600401610bcb90613e7b565b606060006123ae83612a61565b60010190506000816001600160401b038111156123cd576123cd613835565b6040519080825280601f01601f1916602001820160405280156123f7576020820181803683370190505b5090508181016020015b600019016f181899199a1a9b1b9c1cb0b131b232b360811b600a86061a8153600a850494508461240157509392505050565b6000610aae825490565b60006001600160e01b0319821663d17f1b2160e01b1480610aae5750610aae82612b39565b60405163025c16e560e51b8152600481018290523090634b82dca090602401602060405180830381865afa15801561249e573d6000803e3d6000fd5b505050506040513d601f19601f820116820180604052508101906124c29190613c8a565b156124df5760405162461bcd60e51b8152600401610bcb90613ca7565b610d70838383612b5e565b6124f48383612689565b6125016000848484612960565b610d705760405162461bcd60e51b8152600401610bcb90613e7b565b61252782826119b3565b6111625761253481612ccf565b61253f836020612ce1565b604051602001612550929190613ecd565b60408051601f198184030181529082905262461bcd60e51b8252610bcb9160040161353e565b61258082826119b3565b611162576000828152602081815260408083206001600160a01b03851684529091529020805460ff191660011790556125b63390565b6001600160a01b0316816001600160a01b0316837f2f8788117e7eff1d82e926ec794901d17c78024a50270940304540a733656f0d60405160405180910390a45050565b60006119ac836001600160a01b038416612e7c565b61261982826119b3565b15611162576000828152602081815260408083206001600160a01b0385168085529252808320805460ff1916905551339285917ff6391f5c32d9c69d2a47ea670b442974b53935d1edc7fd64eb21e047a839171b9190a45050565b60006119ac836001600160a01b038416612ecb565b6001600160a01b0382166126df5760405162461bcd60e51b815260206004820181905260248201527f4552433732313a206d696e7420746f20746865207a65726f20616464726573736044820152606401610bcb565b6126e881611f76565b156127355760405162461bcd60e51b815260206004820152601c60248201527f4552433732313a20746f6b656e20616c7265616479206d696e746564000000006044820152606401610bcb565b612743600083836001612fbe565b61274c81611f76565b156127995760405162461bcd60e51b815260206004820152601c60248201527f4552433732313a20746f6b656e20616c7265616479206d696e746564000000006044820152606401610bcb565b6001600160a01b038216600081815260056020908152604080832080546001019055848352600490915280822080546001600160a01b0319168417905551839291907fddf252ad1be2c89b69c2b068fc378daa952ba7f163c4a11628f55a4df523b3ef908290a45050565b603f5460ff166113c05760405162461bcd60e51b815260206004820152601460248201527314185d5cd8589b194e881b9bdd081c185d5cd95960621b6044820152606401610bcb565b6000612858826116a2565b9050612868816000846001612fbe565b612871826116a2565b600083815260066020908152604080832080546001600160a01b03199081169091556001600160a01b0385168085526005845282852080546000190190558785526004909352818420805490911690555192935084927fddf252ad1be2c89b69c2b068fc378daa952ba7f163c4a11628f55a4df523b3ef908390a45050565b603f5460ff16156113c05760405162461bcd60e51b815260206004820152601060248201526f14185d5cd8589b194e881c185d5cd95960821b6044820152606401610bcb565b600082600001828154811061294d5761294d613b1b565b9060005260206000200154905092915050565b60006001600160a01b0384163b15612a5657604051630a85bd0160e11b81526001600160a01b0385169063150b7a02906129a4903390899088908890600401613f42565b6020604051808303816000875af19250505080156129df575060408051601f3d908101601f191682019092526129dc91810190613f7f565b60015b612a3c573d808015612a0d576040519150601f19603f3d011682016040523d82523d6000602084013e612a12565b606091505b508051600003612a345760405162461bcd60e51b8152600401610bcb90613e7b565b805181602001fd5b6001600160e01b031916630a85bd0160e11b149050612177565b506001949350505050565b60008072184f03e93ff9f4daa797ed6e38ed64bf6a1f0160401b8310612aa05772184f03e93ff9f4daa797ed6e38ed64bf6a1f0160401b830492506040015b6d04ee2d6d415b85acef81000000008310612acc576d04ee2d6d415b85acef8100000000830492506020015b662386f26fc100008310612aea57662386f26fc10000830492506010015b6305f5e1008310612b02576305f5e100830492506008015b6127108310612b1657612710830492506004015b60648310612b28576064830492506002015b600a8310610aae5760010192915050565b60006001600160e01b0319821663780e9d6360e01b1480610aae5750610aae82613056565b826001600160a01b0316612b71826116a2565b6001600160a01b031614612b975760405162461bcd60e51b8152600401610bcb90613f9c565b6001600160a01b038216612bf95760405162461bcd60e51b8152602060048201526024808201527f4552433732313a207472616e7366657220746f20746865207a65726f206164646044820152637265737360e01b6064820152608401610bcb565b612c068383836001612fbe565b826001600160a01b0316612c19826116a2565b6001600160a01b031614612c3f5760405162461bcd60e51b8152600401610bcb90613f9c565b600081815260066020908152604080832080546001600160a01b03199081169091556001600160a01b0387811680865260058552838620805460001901905590871680865283862080546001019055868652600490945282852080549092168417909155905184937fddf252ad1be2c89b69c2b068fc378daa952ba7f163c4a11628f55a4df523b3ef91a4505050565b6060610aae6001600160a01b03831660145b60606000612cf0836002613fe1565b612cfb906002613ff8565b6001600160401b03811115612d1257612d12613835565b6040519080825280601f01601f191660200182016040528015612d3c576020820181803683370190505b509050600360fc1b81600081518110612d5757612d57613b1b565b60200101906001600160f81b031916908160001a905350600f60fb1b81600181518110612d8657612d86613b1b565b60200101906001600160f81b031916908160001a9053506000612daa846002613fe1565b612db5906001613ff8565b90505b6001811115612e2d576f181899199a1a9b1b9c1cb0b131b232b360811b85600f1660108110612de957612de9613b1b565b1a60f81b828281518110612dff57612dff613b1b565b60200101906001600160f81b031916908160001a90535060049490941c93612e268161400b565b9050612db8565b5083156119ac5760405162461bcd60e51b815260206004820181905260248201527f537472696e67733a20686578206c656e67746820696e73756666696369656e746044820152606401610bcb565b6000818152600183016020526040812054612ec357508154600181810184556000848152602080822090930184905584548482528286019093526040902091909155610aae565b506000610aae565b60008181526001830160205260408120548015612fb4576000612eef600183614022565b8554909150600090612f0390600190614022565b9050818114612f68576000866000018281548110612f2357612f23613b1b565b9060005260206000200154905080876000018481548110612f4657612f46613b1b565b6000918252602080832090910192909255918252600188019052604090208390555b8554869080612f7957612f79614035565b600190038181906000526020600020016000905590558560010160008681526020019081526020016000206000905560019350505050610aae565b6000915050610aae565b6001600160a01b0384161561304a5760405163025c16e560e51b8152600481018390523090634b82dca090602401602060405180830381865afa158015613009573d6000803e3d6000fd5b505050506040513d601f19601f8201168201806040525081019061302d9190613c8a565b1561304a5760405162461bcd60e51b8152600401610bcb90613ca7565b611b5e84848484613096565b60006001600160e01b031982166380ac58cd60e01b148061308757506001600160e01b03198216635b5e139f60e01b145b80610aae5750610aae826130a2565b611b5e848484846130c7565b60006001600160e01b03198216635a05180f60e01b1480610aae5750610aae826130d3565b611b5e84848484613108565b60006001600160e01b03198216637965db0b60e01b1480610aae57506301ffc9a760e01b6001600160e01b0319831614610aae565b6131148484848461317b565b603f5460ff1615611b5e5760405162461bcd60e51b815260206004820152602b60248201527f4552433732315061757361626c653a20746f6b656e207472616e73666572207760448201526a1a1a5b19481c185d5cd95960aa1b6064820152608401610bcb565b613187848484846132b4565b60018111156131f65760405162461bcd60e51b815260206004820152603560248201527f455243373231456e756d657261626c653a20636f6e7365637574697665207472604482015274185b9cd9995c9cc81b9bdd081cdd5c1c1bdc9d1959605a1b6064820152608401610bcb565b816001600160a01b0385166132525761324d81603d80546000838152603e60205260408120829055600182018355919091527fece66cfdbd22e3f37d348a3d8e19074452862cd65fd4b9a11f0336d1ac6d1dc30155565b613275565b836001600160a01b0316856001600160a01b03161461327557613275858261332b565b6001600160a01b0384166132915761328c816133c8565b610c59565b846001600160a01b0316846001600160a01b031614610c5957610c598482613477565b815b6132c08284613ff8565b81101561332557600081815260086020526040812080549091906132e390613b64565b918290555060405182907fcc2c68164f9f7f0c063ba98bcf89498c0f3f5e3acc32bf4ab46195ecb489c13b90600090a38061331d81613b64565b9150506132b6565b50611b5e565b60006001613338846117a9565b6133429190614022565b6000838152603c6020526040902054909150808214613395576001600160a01b0384166000908152603b602090815260408083208584528252808320548484528184208190558352603c90915290208190555b506000918252603c602090815260408084208490556001600160a01b039094168352603b81528383209183525290812055565b603d546000906133da90600190614022565b6000838152603e6020526040812054603d805493945090928490811061340257613402613b1b565b9060005260206000200154905080603d838154811061342357613423613b1b565b6000918252602080832090910192909255828152603e9091526040808220849055858252812055603d80548061345b5761345b614035565b6001900381819060005260206000200160009055905550505050565b6000613482836117a9565b6001600160a01b039093166000908152603b602090815260408083208684528252808320859055938252603c9052919091209190915550565b6001600160e01b03198116811461140d57600080fd5b6000602082840312156134e357600080fd5b81356119ac816134bb565b60005b838110156135095781810151838201526020016134f1565b50506000910152565b6000815180845261352a8160208601602086016134ee565b601f01601f19169290920160200192915050565b6020815260006119ac6020830184613512565b60006020828403121561356357600080fd5b5035919050565b60008083601f84011261357c57600080fd5b5081356001600160401b0381111561359357600080fd5b6020830191508360208260051b85010111156135ae57600080fd5b9250929050565b600080600080604085870312156135cb57600080fd5b84356001600160401b03808211156135e257600080fd5b6135ee8883890161356a565b9096509450602087013591508082111561360757600080fd5b506136148782880161356a565b95989497509550505050565b6001600160a01b038116811461140d57600080fd5b6000806040838503121561364857600080fd5b823561365381613620565b946020939093013593505050565b6000806020838503121561367457600080fd5b82356001600160401b038082111561368b57600080fd5b818501915085601f83011261369f57600080fd5b8135818111156136ae57600080fd5b8660208285010111156136c057600080fd5b60209290920196919550909350505050565b6000806000606084860312156136e757600080fd5b83356136f281613620565b9250602084013561370281613620565b929592945050506040919091013590565b801515811461140d57600080fd5b60008060006060848603121561373657600080fd5b833561374181613620565b925060208401359150604084013561375881613713565b809150509250925092565b6000806040838503121561377657600080fd5b82359150602083013561378881613620565b809150509250929050565b600080602083850312156137a657600080fd5b82356001600160401b038111156137bc57600080fd5b6137c88582860161356a565b90969095509350505050565b6020808252825182820181905260009190848201906040850190845b8181101561380c578351835292840192918401916001016137f0565b50909695505050505050565b60006020828403121561382a57600080fd5b81356119ac81613620565b634e487b7160e01b600052604160045260246000fd5b604051601f8201601f191681016001600160401b038111828210171561387357613873613835565b604052919050565b60006001600160401b0383111561389457613894613835565b6138a7601f8401601f191660200161384b565b90508281528383830111156138bb57600080fd5b828260208301376000602084830101529392505050565b6000602082840312156138e457600080fd5b81356001600160401b038111156138fa57600080fd5b8201601f8101841361390b57600080fd5b6121778482356020840161387b565b6000806040838503121561392d57600080fd5b50508035926020909101359150565b6000806040838503121561394f57600080fd5b823561395a81613620565b9150602083013561378881613713565b6000806040838503121561397d57600080fd5b82359150602083013561378881613713565b600080600080608085870312156139a557600080fd5b84356139b081613620565b935060208501356139c081613620565b92506040850135915060608501356001600160401b038111156139e257600080fd5b8501601f810187136139f357600080fd5b613a028782356020840161387b565b91505092959194509250565b60006020808385031215613a2157600080fd5b82356001600160401b0380821115613a3857600080fd5b818501915085601f830112613a4c57600080fd5b813581811115613a5e57613a5e613835565b8060051b9150613a6f84830161384b565b8181529183018401918481019088841115613a8957600080fd5b938501935b83851015613aa757843582529385019390850190613a8e565b98975050505050505050565b60008060408385031215613ac657600080fd5b8235613ad181613620565b9150602083013561378881613620565b600181811c90821680613af557607f821691505b602082108103613b1557634e487b7160e01b600052602260045260246000fd5b50919050565b634e487b7160e01b600052603260045260246000fd5b600060208284031215613b4357600080fd5b81356119ac81613713565b634e487b7160e01b600052601160045260246000fd5b600060018201613b7657613b76613b4e565b5060010190565b601f821115610d7057600081815260208120601f850160051c81016020861015613ba45750805b601f850160051c820191505b81811015613bc357828155600101613bb0565b505050505050565b6001600160401b03831115613be257613be2613835565b613bf683613bf08354613ae1565b83613b7d565b6000601f841160018114613c2a5760008515613c125750838201355b600019600387901b1c1916600186901b178355610c59565b600083815260209020601f19861690835b82811015613c5b5786850135825560209485019460019092019101613c3b565b5086821015613c785760001960f88860031b161c19848701351681555b505060018560011b0183555050505050565b600060208284031215613c9c57600080fd5b81516119ac81613713565b6020808252600e908201526d125d195b481a5cc81c185d5cd95960921b604082015260600190565b6020808252602d908201527f4552433732313a2063616c6c6572206973206e6f7420746f6b656e206f776e6560408201526c1c881bdc88185c1c1c9bdd9959609a1b606082015260800190565b600060208284031215613d2e57600080fd5b5051919050565b81516001600160401b03811115613d4e57613d4e613835565b613d6281613d5c8454613ae1565b84613b7d565b602080601f831160018114613d975760008415613d7f5750858301515b600019600386901b1c1916600185901b178555613bc3565b600085815260208120601f198616915b82811015613dc657888601518255948401946001909101908401613da7565b5085821015613de45787850151600019600388901b60f8161c191681555b5050505050600190811b01905550565b6000808454613e0281613ae1565b60018281168015613e1a5760018114613e2f57613e5e565b60ff1984168752821515830287019450613e5e565b8860005260208060002060005b85811015613e555781548a820152908401908201613e3c565b50505082870194505b505050508351613e728183602088016134ee565b01949350505050565b60208082526032908201527f4552433732313a207472616e7366657220746f206e6f6e20455243373231526560408201527131b2b4bb32b91034b6b83632b6b2b73a32b960711b606082015260800190565b7f416363657373436f6e74726f6c3a206163636f756e7420000000000000000000815260008351613f058160178501602088016134ee565b7001034b99036b4b9b9b4b733903937b6329607d1b6017918401918201528351613f368160288401602088016134ee565b01602801949350505050565b6001600160a01b0385811682528416602082015260408101839052608060608201819052600090613f7590830184613512565b9695505050505050565b600060208284031215613f9157600080fd5b81516119ac816134bb565b60208082526025908201527f4552433732313a207472616e736665722066726f6d20696e636f72726563742060408201526437bbb732b960d91b606082015260800190565b8082028115828204841417610aae57610aae613b4e565b80820180821115610aae57610aae613b4e565b60008161401a5761401a613b4e565b506000190190565b81810381811115610aae57610aae613b4e565b634e487b7160e01b600052603160045260246000fdfea26469706673582212206ba3efb20fe90b079496e03aebebed9765e2eeaacfeb43f46c0079322199282764736f6c63430008130033",
  "linkReferences": {},
  "deployedLinkReferences": {}
}