{
  "_format": "hh-sol-artifact-1",
  "contractName": "RuniverseItem",
  "sourceName": "contracts/RuniverseItem.sol",
  "abi": [
    {
      "inputs": [
        {
          "internalType": "address",
          "name": "_signer",
          "type": "address"
        },
        {
          "internalType": "string",
          "name": "_baseURI",
          "type": "string"
        }
      ],
      "stateMutability": "nonpayable",
      "type": "constructor"
    },
    {
      "anonymous": false,
      "inputs": [
        {
          "indexed": true,
          "internalType": "address",
          "name": "owner",
          "type": "address"
        },
        {
          "indexed": true,
          "internalType": "address",
          "name": "approved",
          "type": "address"
        },
        {
          "indexed": true,
          "internalType": "uint256",
          "name": "tokenId",
          "type": "uint256"
        }
      ],
      "name": "Approval",
      "type": "event"
    },
    {
      "anonymous": false,
      "inputs": [
        {
          "indexed": true,
          "internalType": "address",
          "name": "owner",
          "type": "address"
        },
        {
          "indexed": true,
          "internalType": "address",
          "name": "operator",
          "type": "address"
        },
        {
          "indexed": false,
          "internalType": "bool",
          "name": "approved",
          "type": "bool"
        }
      ],
      "name": "ApprovalForAll",
      "type": "event"
    },
    {
      "anonymous": false,
      "inputs": [
        {
          "indexed": true,
          "internalType": "address",
          "name": "previousOwner",
          "type": "address"
        },
        {
          "indexed": true,
          "internalType": "address",
          "name": "newOwner",
          "type": "address"
        }
      ],
      "name": "OwnershipTransferred",
      "type": "event"
    },
    {
      "anonymous": false,
      "inputs": [
        {
          "indexed": true,
          "internalType": "address",
          "name": "from",
          "type": "address"
        },
        {
          "indexed": true,
          "internalType": "address",
          "name": "to",
          "type": "address"
        },
        {
          "indexed": true,
          "internalType": "uint256",
          "name": "tokenId",
          "type": "uint256"
        }
      ],
      "name": "Transfer",
      "type": "event"
    },
    {
      "inputs": [
        {
          "internalType": "address",
          "name": "to",
          "type": "address"
        },
        {
          "internalType": "uint256",
          "name": "tokenId",
          "type": "uint256"
        }
      ],
      "name": "approve",
      "outputs": [],
      "stateMutability": "nonpayable",
      "type": "function"
    },
    {
      "inputs": [
        {
          "internalType": "address",
          "name": "owner",
          "type": "address"
        }
      ],
      "name": "balanceOf",
      "outputs": [
        {
          "internalType": "uint256",
          "name": "",
          "type": "uint256"
        }
      ],
      "stateMutability": "view",
      "type": "function"
    },
    {
      "inputs": [],
      "name": "baseTokenURI",
      "outputs": [
        {
          "internalType": "string",
          "name": "",
          "type": "string"
        }
      ],
      "stateMutability": "view",
      "type": "function"
    },
    {
      "inputs": [
        {
          "internalType": "uint256",
          "name": "tokenId",
          "type": "uint256"
        }
      ],
      "name": "getApproved",
      "outputs": [
        {
          "internalType": "address",
          "name": "",
          "type": "address"
        }
      ],
      "stateMutability": "view",
      "type": "function"
    },
    {
      "inputs": [],
      "name": "getBaseURI",
      "outputs": [
        {
          "internalType": "string",
          "name": "",
          "type": "string"
        }
      ],
      "stateMutability": "view",
      "type": "function"
    },
    {
      "inputs": [
        {
          "internalType": "bytes32",
          "name": "_messageHash",
          "type": "bytes32"
        }
      ],
      "name": "getEthSignedMessageHash",
      "outputs": [
        {
          "internalType": "bytes32",
          "name": "",
          "type": "bytes32"
        }
      ],
      "stateMutability": "pure",
      "type": "function"
    },
    {
      "inputs": [
        {
          "internalType": "string",
          "name": "_message",
          "type": "string"
        }
      ],
      "name": "getMessageHash",
      "outputs": [
        {
          "internalType": "bytes32",
          "name": "",
          "type": "bytes32"
        }
      ],
      "stateMutability": "pure",
      "type": "function"
    },
    {
      "inputs": [],
      "name": "getSigner",
      "outputs": [
        {
          "internalType": "address",
          "name": "",
          "type": "address"
        }
      ],
      "stateMutability": "view",
      "type": "function"
    },
    {
      "inputs": [
        {
          "internalType": "address",
          "name": "owner",
          "type": "address"
        },
        {
          "internalType": "address",
          "name": "operator",
          "type": "address"
        }
      ],
      "name": "isApprovedForAll",
      "outputs": [
        {
          "internalType": "bool",
          "name": "",
          "type": "bool"
        }
      ],
      "stateMutability": "view",
      "type": "function"
    },
    {
      "inputs": [],
      "name": "name",
      "outputs": [
        {
          "internalType": "string",
          "name": "",
          "type": "string"
        }
      ],
      "stateMutability": "view",
      "type": "function"
    },
    {
      "inputs": [],
      "name": "owner",
      "outputs": [
        {
          "internalType": "address",
          "name": "",
          "type": "address"
        }
      ],
      "stateMutability": "view",
      "type": "function"
    },
    {
      "inputs": [
        {
          "internalType": "uint256[]",
          "name": "tokenIds",
          "type": "uint256[]"
        },
        {
          "internalType": "address[]",
          "name": "recipients",
          "type": "address[]"
        }
      ],
      "name": "ownerMint",
      "outputs": [],
      "stateMutability": "nonpayable",
      "type": "function"
    },
    {
      "inputs": [
        {
          "internalType": "uint256",
          "name": "tokenId",
          "type": "uint256"
        }
      ],
      "name": "ownerOf",
      "outputs": [
        {
          "internalType": "address",
          "name": "",
          "type": "address"
        }
      ],
      "stateMutability": "view",
      "type": "function"
    },
    {
      "inputs": [],
      "name": "renounceOwnership",
      "outputs": [],
      "stateMutability": "nonpayable",
      "type": "function"
    },
    {
      "inputs": [
        {
          "internalType": "address",
          "name": "from",
          "type": "address"
        },
        {
          "internalType": "address",
          "name": "to",
          "type": "address"
        },
        {
          "internalType": "uint256",
          "name": "tokenId",
          "type": "uint256"
        }
      ],
      "name": "safeTransferFrom",
      "outputs": [],
      "stateMutability": "nonpayable",
      "type": "function"
    },
    {
      "inputs": [
        {
          "internalType": "address",
          "name": "from",
          "type": "address"
        },
        {
          "internalType": "address",
          "name": "to",
          "type": "address"
        },
        {
          "internalType": "uint256",
          "name": "tokenId",
          "type": "uint256"
        },
        {
          "internalType": "bytes",
          "name": "data",
          "type": "bytes"
        }
      ],
      "name": "safeTransferFrom",
      "outputs": [],
      "stateMutability": "nonpayable",
      "type": "function"
    },
    {
      "inputs": [
        {
          "internalType": "address",
          "name": "operator",
          "type": "address"
        },
        {
          "internalType": "bool",
          "name": "approved",
          "type": "bool"
        }
      ],
      "name": "setApprovalForAll",
      "outputs": [],
      "stateMutability": "nonpayable",
      "type": "function"
    },
    {
      "inputs": [
        {
          "internalType": "string",
          "name": "newBaseURI",
          "type": "string"
        }
      ],
      "name": "setBaseURI",
      "outputs": [],
      "stateMutability": "nonpayable",
      "type": "function"
    },
    {
      "inputs": [
        {
          "internalType": "address",
          "name": "_signer",
          "type": "address"
        }
      ],
      "name": "setSigner",
      "outputs": [],
      "stateMutability": "nonpayable",
      "type": "function"
    },
    {
      "inputs": [],
      "name": "signer",
      "outputs": [
        {
          "internalType": "address",
          "name": "",
          "type": "address"
        }
      ],
      "stateMutability": "view",
      "type": "function"
    },
    {
      "inputs": [
        {
          "internalType": "bytes4",
          "name": "interfaceId",
          "type": "bytes4"
        }
      ],
      "name": "supportsInterface",
      "outputs": [
        {
          "internalType": "bool",
          "name": "",
          "type": "bool"
        }
      ],
      "stateMutability": "view",
      "type": "function"
    },
    {
      "inputs": [],
      "name": "symbol",
      "outputs": [
        {
          "internalType": "string",
          "name": "",
          "type": "string"
        }
      ],
      "stateMutability": "view",
      "type": "function"
    },
    {
      "inputs": [
        {
          "internalType": "uint256",
          "name": "tokenId",
          "type": "uint256"
        }
      ],
      "name": "tokenURI",
      "outputs": [
        {
          "internalType": "string",
          "name": "",
          "type": "string"
        }
      ],
      "stateMutability": "view",
      "type": "function"
    },
    {
      "inputs": [
        {
          "internalType": "address",
          "name": "from",
          "type": "address"
        },
        {
          "internalType": "address",
          "name": "to",
          "type": "address"
        },
        {
          "internalType": "uint256",
          "name": "tokenId",
          "type": "uint256"
        }
      ],
      "name": "transferFrom",
      "outputs": [],
      "stateMutability": "nonpayable",
      "type": "function"
    },
    {
      "inputs": [
        {
          "internalType": "address",
          "name": "newOwner",
          "type": "address"
        }
      ],
      "name": "transferOwnership",
      "outputs": [],
      "stateMutability": "nonpayable",
      "type": "function"
    },
    {
      "inputs": [
        {
          "internalType": "address",
          "name": "_signer",
          "type": "address"
        },
        {
          "internalType": "string",
          "name": "_message",
          "type": "string"
        },
        {
          "internalType": "bytes",
          "name": "_signature",
          "type": "bytes"
        }
      ],
      "name": "verify",
      "outputs": [
        {
          "internalType": "bool",
          "name": "",
          "type": "bool"
        }
      ],
      "stateMutability": "pure",
      "type": "function"
    },
    {
      "inputs": [
        {
          "internalType": "string",
          "name": "_message",
          "type": "string"
        },
        {
          "internalType": "string",
          "name": "_messageHash",
          "type": "string"
        },
        {
          "internalType": "bytes",
          "name": "_signature",
          "type": "bytes"
        },
        {
          "internalType": "uint256",
          "name": "tokenId",
          "type": "uint256"
        }
      ],
      "name": "verifyAndMint",
      "outputs": [],
      "stateMutability": "nonpayable",
      "type": "function"
    }
  ],
  "bytecode": "0x60806040523480156200001157600080fd5b50604051620047313803806200473183398181016040528101906200003791906200040a565b6040518060400160405280600d81526020017f52756e6976657273654974656d000000000000000000000000000000000000008152506040518060400160405280600481526020017f5249544d000000000000000000000000000000000000000000000000000000008152508160009081620000b49190620006bb565b508060019081620000c69190620006bb565b505050620000e9620000dd6200014460201b60201c565b6200014c60201b60201c565b81600760006101000a81548173ffffffffffffffffffffffffffffffffffffffff021916908373ffffffffffffffffffffffffffffffffffffffff16021790555080600890816200013b9190620006bb565b505050620007a2565b600033905090565b6000600660009054906101000a900473ffffffffffffffffffffffffffffffffffffffff16905081600660006101000a81548173ffffffffffffffffffffffffffffffffffffffff021916908373ffffffffffffffffffffffffffffffffffffffff1602179055508173ffffffffffffffffffffffffffffffffffffffff168173ffffffffffffffffffffffffffffffffffffffff167f8be0079c531659141344cd1fd0a4f28419497f9722a3daafe3b4186f6b6457e060405160405180910390a35050565b6000604051905090565b600080fd5b600080fd5b600073ffffffffffffffffffffffffffffffffffffffff82169050919050565b6000620002538262000226565b9050919050565b620002658162000246565b81146200027157600080fd5b50565b60008151905062000285816200025a565b92915050565b600080fd5b600080fd5b6000601f19601f8301169050919050565b7f4e487b7100000000000000000000000000000000000000000000000000000000600052604160045260246000fd5b620002e08262000295565b810181811067ffffffffffffffff82111715620003025762000301620002a6565b5b80604052505050565b60006200031762000212565b9050620003258282620002d5565b919050565b600067ffffffffffffffff821115620003485762000347620002a6565b5b620003538262000295565b9050602081019050919050565b60005b838110156200038057808201518184015260208101905062000363565b60008484015250505050565b6000620003a36200039d846200032a565b6200030b565b905082815260208101848484011115620003c257620003c162000290565b5b620003cf84828562000360565b509392505050565b600082601f830112620003ef57620003ee6200028b565b5b8151620004018482602086016200038c565b91505092915050565b600080604083850312156200042457620004236200021c565b5b6000620004348582860162000274565b925050602083015167ffffffffffffffff81111562000458576200045762000221565b5b6200046685828601620003d7565b9150509250929050565b600081519050919050565b7f4e487b7100000000000000000000000000000000000000000000000000000000600052602260045260246000fd5b60006002820490506001821680620004c357607f821691505b602082108103620004d957620004d86200047b565b5b50919050565b60008190508160005260206000209050919050565b60006020601f8301049050919050565b600082821b905092915050565b600060088302620005437fffffffffffffffffffffffffffffffffffffffffffffffffffffffffffffffff8262000504565b6200054f868362000504565b95508019841693508086168417925050509392505050565b6000819050919050565b6000819050919050565b60006200059c62000596620005908462000567565b62000571565b62000567565b9050919050565b6000819050919050565b620005b8836200057b565b620005d0620005c782620005a3565b84845462000511565b825550505050565b600090565b620005e7620005d8565b620005f4818484620005ad565b505050565b5b818110156200061c5762000610600082620005dd565b600181019050620005fa565b5050565b601f8211156200066b576200063581620004df565b6200064084620004f4565b8101602085101562000650578190505b620006686200065f85620004f4565b830182620005f9565b50505b505050565b600082821c905092915050565b6000620006906000198460080262000670565b1980831691505092915050565b6000620006ab83836200067d565b9150826002028217905092915050565b620006c68262000470565b67ffffffffffffffff811115620006e257620006e1620002a6565b5b620006ee8254620004aa565b620006fb82828562000620565b600060209050601f8311600181146200073357600084156200071e578287015190505b6200072a85826200069d565b8655506200079a565b601f1984166200074386620004df565b60005b828110156200076d5784890151825560018201915060208501945060208101905062000746565b868310156200078d578489015162000789601f8916826200067d565b8355505b6001600288020188555050505b505050505050565b613f7f80620007b26000396000f3fe608060405234801561001057600080fd5b50600436106101a95760003560e01c8063714c5398116100f9578063b446f3b211610097578063d547cfb711610071578063d547cfb7146104b8578063e985e9c5146104d6578063f2fde38b14610506578063fa54080114610522576101a9565b8063b446f3b21461043c578063b88d4fde1461046c578063c87b56dd14610488576101a9565b80638da5cb5b116100d35780638da5cb5b146103c857806395d89b41146103e6578063a22cb46514610404578063af633a7214610420576101a9565b8063714c539814610382578063715018a6146103a05780637ac3c02f146103aa576101a9565b80632dd34f0f116101665780636352211e116101405780636352211e146102ea5780636c19e7831461031a5780636e9849dd1461033657806370a0823114610352576101a9565b80632dd34f0f1461028257806342842e0e146102b257806355f804b3146102ce576101a9565b806301ffc9a7146101ae57806306fdde03146101de578063081812fc146101fc578063095ea7b31461022c578063238ac9331461024857806323b872dd14610266575b600080fd5b6101c860048036038101906101c39190612457565b610552565b6040516101d5919061249f565b60405180910390f35b6101e6610634565b6040516101f3919061254a565b60405180910390f35b610216600480360381019061021191906125a2565b6106c6565b6040516102239190612610565b60405180910390f35b61024660048036038101906102419190612657565b61070c565b005b610250610823565b60405161025d9190612610565b60405180910390f35b610280600480360381019061027b9190612697565b610849565b005b61029c600480360381019061029791906128c0565b6108a9565b6040516102a9919061249f565b60405180910390f35b6102cc60048036038101906102c79190612697565b610907565b005b6102e860048036038101906102e391906129ab565b610927565b005b61030460048036038101906102ff91906125a2565b610945565b6040516103119190612610565b60405180910390f35b610334600480360381019061032f91906129f8565b6109cb565b005b610350600480360381019061034b9190612ad1565b610a17565b005b61036c600480360381019061036791906129f8565b610ad7565b6040516103799190612b61565b60405180910390f35b61038a610b8e565b604051610397919061254a565b60405180910390f35b6103a8610c20565b005b6103b2610c34565b6040516103bf9190612610565b60405180910390f35b6103d0610c5e565b6040516103dd9190612610565b60405180910390f35b6103ee610c88565b6040516103fb919061254a565b60405180910390f35b61041e60048036038101906104199190612ba8565b610d1a565b005b61043a60048036038101906104359190612be8565b610d30565b005b61045660048036038101906104519190612ca3565b610ed5565b6040516104639190612d05565b60405180910390f35b61048660048036038101906104819190612d20565b610f05565b005b6104a2600480360381019061049d91906125a2565b610f67565b6040516104af919061254a565b60405180910390f35b6104c0610fe3565b6040516104cd919061254a565b60405180910390f35b6104f060048036038101906104eb9190612da3565b611071565b6040516104fd919061249f565b60405180910390f35b610520600480360381019061051b91906129f8565b611105565b005b61053c60048036038101906105379190612e0f565b611188565b6040516105499190612d05565b60405180910390f35b60007f80ac58cd000000000000000000000000000000000000000000000000000000007bffffffffffffffffffffffffffffffffffffffffffffffffffffffff1916827bffffffffffffffffffffffffffffffffffffffffffffffffffffffff1916148061061d57507f5b5e139f000000000000000000000000000000000000000000000000000000007bffffffffffffffffffffffffffffffffffffffffffffffffffffffff1916827bffffffffffffffffffffffffffffffffffffffffffffffffffffffff1916145b8061062d575061062c826111b8565b5b9050919050565b60606000805461064390612e6b565b80601f016020809104026020016040519081016040528092919081815260200182805461066f90612e6b565b80156106bc5780601f10610691576101008083540402835291602001916106bc565b820191906000526020600020905b81548152906001019060200180831161069f57829003601f168201915b5050505050905090565b60006106d182611222565b6004600083815260200190815260200160002060009054906101000a900473ffffffffffffffffffffffffffffffffffffffff169050919050565b600061071782610945565b90508073ffffffffffffffffffffffffffffffffffffffff168373ffffffffffffffffffffffffffffffffffffffff1603610787576040517f08c379a000000000000000000000000000000000000000000000000000000000815260040161077e90612f0e565b60405180910390fd5b8073ffffffffffffffffffffffffffffffffffffffff166107a661126d565b73ffffffffffffffffffffffffffffffffffffffff1614806107d557506107d4816107cf61126d565b611071565b5b610814576040517f08c379a000000000000000000000000000000000000000000000000000000000815260040161080b90612fa0565b60405180910390fd5b61081e8383611275565b505050565b600760009054906101000a900473ffffffffffffffffffffffffffffffffffffffff1681565b61085a61085461126d565b8261132e565b610899576040517f08c379a000000000000000000000000000000000000000000000000000000000815260040161089090613032565b60405180910390fd5b6108a48383836113c3565b505050565b6000806108b584610ed5565b905060006108c282611188565b90508573ffffffffffffffffffffffffffffffffffffffff166108e582866116bc565b73ffffffffffffffffffffffffffffffffffffffff1614925050509392505050565b61092283838360405180602001604052806000815250610f05565b505050565b61092f61172b565b818160089182610940929190613209565b505050565b600080610951836117a9565b9050600073ffffffffffffffffffffffffffffffffffffffff168173ffffffffffffffffffffffffffffffffffffffff16036109c2576040517f08c379a00000000000000000000000000000000000000000000000000000000081526004016109b990613325565b60405180910390fd5b80915050919050565b6109d361172b565b80600760006101000a81548173ffffffffffffffffffffffffffffffffffffffff021916908373ffffffffffffffffffffffffffffffffffffffff16021790555050565b610a1f61172b565b818190508484905014610a67576040517f08c379a0000000000000000000000000000000000000000000000000000000008152600401610a5e90613391565b60405180910390fd5b60005b82829050811015610ad057610abf838383818110610a8b57610a8a6133b1565b5b9050602002016020810190610aa091906129f8565b868684818110610ab357610ab26133b1565b5b905060200201356117e6565b80610ac99061340f565b9050610a6a565b5050505050565b60008073ffffffffffffffffffffffffffffffffffffffff168273ffffffffffffffffffffffffffffffffffffffff1603610b47576040517f08c379a0000000000000000000000000000000000000000000000000000000008152600401610b3e906134c9565b60405180910390fd5b600360008373ffffffffffffffffffffffffffffffffffffffff1673ffffffffffffffffffffffffffffffffffffffff168152602001908152602001600020549050919050565b606060088054610b9d90612e6b565b80601f0160208091040260200160405190810160405280929190818152602001828054610bc990612e6b565b8015610c165780601f10610beb57610100808354040283529160200191610c16565b820191906000526020600020905b815481529060010190602001808311610bf957829003601f168201915b5050505050905090565b610c2861172b565b610c326000611804565b565b6000600760009054906101000a900473ffffffffffffffffffffffffffffffffffffffff16905090565b6000600660009054906101000a900473ffffffffffffffffffffffffffffffffffffffff16905090565b606060018054610c9790612e6b565b80601f0160208091040260200160405190810160405280929190818152602001828054610cc390612e6b565b8015610d105780601f10610ce557610100808354040283529160200191610d10565b820191906000526020600020905b815481529060010190602001808311610cf357829003601f168201915b5050505050905090565b610d2c610d2561126d565b83836118ca565b5050565b6000610d3b85611a36565b90506000610d4d8260001c6020611a5b565b905084604051602001610d609190613525565b6040516020818303038152906040528051906020012081604051602001610d879190613525565b6040516020818303038152906040528051906020012014610ddd576040517f08c379a0000000000000000000000000000000000000000000000000000000008152600401610dd490613588565b60405180910390fd5b600115153073ffffffffffffffffffffffffffffffffffffffff16632dd34f0f600760009054906101000a900473ffffffffffffffffffffffffffffffffffffffff1689886040518463ffffffff1660e01b8152600401610e40939291906135fd565b602060405180830381865afa158015610e5d573d6000803e3d6000fd5b505050506040513d601f19601f82011682018060405250810190610e819190613657565b151514610ec3576040517f08c379a0000000000000000000000000000000000000000000000000000000008152600401610eba906136d0565b60405180910390fd5b610ecd33846117e6565b505050505050565b600081604051602001610ee89190613525565b604051602081830303815290604052805190602001209050919050565b610f16610f1061126d565b8361132e565b610f55576040517f08c379a0000000000000000000000000000000000000000000000000000000008152600401610f4c90613032565b60405180910390fd5b610f6184848484611c97565b50505050565b6060610f7282611cf3565b610fb1576040517f08c379a0000000000000000000000000000000000000000000000000000000008152600401610fa890613762565b60405180910390fd5b6008610fbc83611d34565b604051602001610fcd929190613805565b6040516020818303038152906040529050919050565b60088054610ff090612e6b565b80601f016020809104026020016040519081016040528092919081815260200182805461101c90612e6b565b80156110695780601f1061103e57610100808354040283529160200191611069565b820191906000526020600020905b81548152906001019060200180831161104c57829003601f168201915b505050505081565b6000600560008473ffffffffffffffffffffffffffffffffffffffff1673ffffffffffffffffffffffffffffffffffffffff16815260200190815260200160002060008373ffffffffffffffffffffffffffffffffffffffff1673ffffffffffffffffffffffffffffffffffffffff16815260200190815260200160002060009054906101000a900460ff16905092915050565b61110d61172b565b600073ffffffffffffffffffffffffffffffffffffffff168173ffffffffffffffffffffffffffffffffffffffff160361117c576040517f08c379a00000000000000000000000000000000000000000000000000000000081526004016111739061389b565b60405180910390fd5b61118581611804565b50565b60008160405160200161119b9190613928565b604051602081830303815290604052805190602001209050919050565b60007f01ffc9a7000000000000000000000000000000000000000000000000000000007bffffffffffffffffffffffffffffffffffffffffffffffffffffffff1916827bffffffffffffffffffffffffffffffffffffffffffffffffffffffff1916149050919050565b61122b81611cf3565b61126a576040517f08c379a000000000000000000000000000000000000000000000000000000000815260040161126190613325565b60405180910390fd5b50565b600033905090565b816004600083815260200190815260200160002060006101000a81548173ffffffffffffffffffffffffffffffffffffffff021916908373ffffffffffffffffffffffffffffffffffffffff160217905550808273ffffffffffffffffffffffffffffffffffffffff166112e883610945565b73ffffffffffffffffffffffffffffffffffffffff167f8c5be1e5ebec7d5bd14f71427d1e84f3dd0314c0f7b2291e5b200ac8c7c3b92560405160405180910390a45050565b60008061133a83610945565b90508073ffffffffffffffffffffffffffffffffffffffff168473ffffffffffffffffffffffffffffffffffffffff16148061137c575061137b8185611071565b5b806113ba57508373ffffffffffffffffffffffffffffffffffffffff166113a2846106c6565b73ffffffffffffffffffffffffffffffffffffffff16145b91505092915050565b8273ffffffffffffffffffffffffffffffffffffffff166113e382610945565b73ffffffffffffffffffffffffffffffffffffffff1614611439576040517f08c379a0000000000000000000000000000000000000000000000000000000008152600401611430906139c0565b60405180910390fd5b600073ffffffffffffffffffffffffffffffffffffffff168273ffffffffffffffffffffffffffffffffffffffff16036114a8576040517f08c379a000000000000000000000000000000000000000000000000000000000815260040161149f90613a52565b60405180910390fd5b6114b58383836001611e02565b8273ffffffffffffffffffffffffffffffffffffffff166114d582610945565b73ffffffffffffffffffffffffffffffffffffffff161461152b576040517f08c379a0000000000000000000000000000000000000000000000000000000008152600401611522906139c0565b60405180910390fd5b6004600082815260200190815260200160002060006101000a81549073ffffffffffffffffffffffffffffffffffffffff02191690556001600360008573ffffffffffffffffffffffffffffffffffffffff1673ffffffffffffffffffffffffffffffffffffffff168152602001908152602001600020600082825403925050819055506001600360008473ffffffffffffffffffffffffffffffffffffffff1673ffffffffffffffffffffffffffffffffffffffff16815260200190815260200160002060008282540192505081905550816002600083815260200190815260200160002060006101000a81548173ffffffffffffffffffffffffffffffffffffffff021916908373ffffffffffffffffffffffffffffffffffffffff160217905550808273ffffffffffffffffffffffffffffffffffffffff168473ffffffffffffffffffffffffffffffffffffffff167fddf252ad1be2c89b69c2b068fc378daa952ba7f163c4a11628f55a4df523b3ef60405160405180910390a46116b78383836001611e08565b505050565b6000806000806116cb85611e0e565b925092509250600186828585604051600081526020016040526040516116f49493929190613a8e565b6020604051602081039080840390855afa158015611716573d6000803e3d6000fd5b50505060206040510351935050505092915050565b61173361126d565b73ffffffffffffffffffffffffffffffffffffffff16611751610c5e565b73ffffffffffffffffffffffffffffffffffffffff16146117a7576040517f08c379a000000000000000000000000000000000000000000000000000000000815260040161179e90613b1f565b60405180910390fd5b565b60006002600083815260200190815260200160002060009054906101000a900473ffffffffffffffffffffffffffffffffffffffff169050919050565b611800828260405180602001604052806000815250611e76565b5050565b6000600660009054906101000a900473ffffffffffffffffffffffffffffffffffffffff16905081600660006101000a81548173ffffffffffffffffffffffffffffffffffffffff021916908373ffffffffffffffffffffffffffffffffffffffff1602179055508173ffffffffffffffffffffffffffffffffffffffff168173ffffffffffffffffffffffffffffffffffffffff167f8be0079c531659141344cd1fd0a4f28419497f9722a3daafe3b4186f6b6457e060405160405180910390a35050565b8173ffffffffffffffffffffffffffffffffffffffff168373ffffffffffffffffffffffffffffffffffffffff1603611938576040517f08c379a000000000000000000000000000000000000000000000000000000000815260040161192f90613b8b565b60405180910390fd5b80600560008573ffffffffffffffffffffffffffffffffffffffff1673ffffffffffffffffffffffffffffffffffffffff16815260200190815260200160002060008473ffffffffffffffffffffffffffffffffffffffff1673ffffffffffffffffffffffffffffffffffffffff16815260200190815260200160002060006101000a81548160ff0219169083151502179055508173ffffffffffffffffffffffffffffffffffffffff168373ffffffffffffffffffffffffffffffffffffffff167f17307eab39ab6107e8899845ad3d59bd9653f200f220920489ca2b5937696c3183604051611a29919061249f565b60405180910390a3505050565b600080611a4283610ed5565b90506000611a4f82611188565b90508092505050919050565b606060006002836002611a6e9190613bab565b611a789190613bed565b67ffffffffffffffff811115611a9157611a906126f4565b5b6040519080825280601f01601f191660200182016040528015611ac35781602001600182028036833780820191505090505b5090507f300000000000000000000000000000000000000000000000000000000000000081600081518110611afb57611afa6133b1565b5b60200101907effffffffffffffffffffffffffffffffffffffffffffffffffffffffffffff1916908160001a9053507f780000000000000000000000000000000000000000000000000000000000000081600181518110611b5f57611b5e6133b1565b5b60200101907effffffffffffffffffffffffffffffffffffffffffffffffffffffffffffff1916908160001a90535060006001846002611b9f9190613bab565b611ba99190613bed565b90505b6001811115611c49577f3031323334353637383961626364656600000000000000000000000000000000600f861660108110611beb57611bea6133b1565b5b1a60f81b828281518110611c0257611c016133b1565b5b60200101907effffffffffffffffffffffffffffffffffffffffffffffffffffffffffffff1916908160001a905350600485901c945080611c4290613c21565b9050611bac565b5060008414611c8d576040517f08c379a0000000000000000000000000000000000000000000000000000000008152600401611c8490613c96565b60405180910390fd5b8091505092915050565b611ca28484846113c3565b611cae84848484611ed1565b611ced576040517f08c379a0000000000000000000000000000000000000000000000000000000008152600401611ce490613d28565b60405180910390fd5b50505050565b60008073ffffffffffffffffffffffffffffffffffffffff16611d15836117a9565b73ffffffffffffffffffffffffffffffffffffffff1614159050919050565b606060006001611d4384612058565b01905060008167ffffffffffffffff811115611d6257611d616126f4565b5b6040519080825280601f01601f191660200182016040528015611d945781602001600182028036833780820191505090505b509050600082602001820190505b600115611df7578080600190039150507f3031323334353637383961626364656600000000000000000000000000000000600a86061a8153600a8581611deb57611dea613d48565b5b04945060008503611da2575b819350505050919050565b50505050565b50505050565b60008060006041845114611e57576040517f08c379a0000000000000000000000000000000000000000000000000000000008152600401611e4e90613dc3565b60405180910390fd5b6020840151925060408401519150606084015160001a90509193909250565b611e8083836121ab565b611e8d6000848484611ed1565b611ecc576040517f08c379a0000000000000000000000000000000000000000000000000000000008152600401611ec390613d28565b60405180910390fd5b505050565b6000611ef28473ffffffffffffffffffffffffffffffffffffffff166123c8565b1561204b578373ffffffffffffffffffffffffffffffffffffffff1663150b7a02611f1b61126d565b8786866040518563ffffffff1660e01b8152600401611f3d9493929190613de3565b6020604051808303816000875af1925050508015611f7957506040513d601f19601f82011682018060405250810190611f769190613e44565b60015b611ffb573d8060008114611fa9576040519150601f19603f3d011682016040523d82523d6000602084013e611fae565b606091505b506000815103611ff3576040517f08c379a0000000000000000000000000000000000000000000000000000000008152600401611fea90613d28565b60405180910390fd5b805181602001fd5b63150b7a0260e01b7bffffffffffffffffffffffffffffffffffffffffffffffffffffffff1916817bffffffffffffffffffffffffffffffffffffffffffffffffffffffff191614915050612050565b600190505b949350505050565b600080600090507a184f03e93ff9f4daa797ed6e38ed64bf6a1f01000000000000000083106120b6577a184f03e93ff9f4daa797ed6e38ed64bf6a1f01000000000000000083816120ac576120ab613d48565b5b0492506040810190505b6d04ee2d6d415b85acef810000000083106120f3576d04ee2d6d415b85acef810000000083816120e9576120e8613d48565b5b0492506020810190505b662386f26fc10000831061212257662386f26fc10000838161211857612117613d48565b5b0492506010810190505b6305f5e100831061214b576305f5e100838161214157612140613d48565b5b0492506008810190505b612710831061217057612710838161216657612165613d48565b5b0492506004810190505b60648310612193576064838161218957612188613d48565b5b0492506002810190505b600a83106121a2576001810190505b80915050919050565b600073ffffffffffffffffffffffffffffffffffffffff168273ffffffffffffffffffffffffffffffffffffffff160361221a576040517f08c379a000000000000000000000000000000000000000000000000000000000815260040161221190613ebd565b60405180910390fd5b61222381611cf3565b15612263576040517f08c379a000000000000000000000000000000000000000000000000000000000815260040161225a90613f29565b60405180910390fd5b612271600083836001611e02565b61227a81611cf3565b156122ba576040517f08c379a00000000000000000000000000000000000000000000000000000000081526004016122b190613f29565b60405180910390fd5b6001600360008473ffffffffffffffffffffffffffffffffffffffff1673ffffffffffffffffffffffffffffffffffffffff16815260200190815260200160002060008282540192505081905550816002600083815260200190815260200160002060006101000a81548173ffffffffffffffffffffffffffffffffffffffff021916908373ffffffffffffffffffffffffffffffffffffffff160217905550808273ffffffffffffffffffffffffffffffffffffffff16600073ffffffffffffffffffffffffffffffffffffffff167fddf252ad1be2c89b69c2b068fc378daa952ba7f163c4a11628f55a4df523b3ef60405160405180910390a46123c4600083836001611e08565b5050565b6000808273ffffffffffffffffffffffffffffffffffffffff163b119050919050565b6000604051905090565b600080fd5b600080fd5b60007fffffffff0000000000000000000000000000000000000000000000000000000082169050919050565b612434816123ff565b811461243f57600080fd5b50565b6000813590506124518161242b565b92915050565b60006020828403121561246d5761246c6123f5565b5b600061247b84828501612442565b91505092915050565b60008115159050919050565b61249981612484565b82525050565b60006020820190506124b46000830184612490565b92915050565b600081519050919050565b600082825260208201905092915050565b60005b838110156124f45780820151818401526020810190506124d9565b60008484015250505050565b6000601f19601f8301169050919050565b600061251c826124ba565b61252681856124c5565b93506125368185602086016124d6565b61253f81612500565b840191505092915050565b600060208201905081810360008301526125648184612511565b905092915050565b6000819050919050565b61257f8161256c565b811461258a57600080fd5b50565b60008135905061259c81612576565b92915050565b6000602082840312156125b8576125b76123f5565b5b60006125c68482850161258d565b91505092915050565b600073ffffffffffffffffffffffffffffffffffffffff82169050919050565b60006125fa826125cf565b9050919050565b61260a816125ef565b82525050565b60006020820190506126256000830184612601565b92915050565b612634816125ef565b811461263f57600080fd5b50565b6000813590506126518161262b565b92915050565b6000806040838503121561266e5761266d6123f5565b5b600061267c85828601612642565b925050602061268d8582860161258d565b9150509250929050565b6000806000606084860312156126b0576126af6123f5565b5b60006126be86828701612642565b93505060206126cf86828701612642565b92505060406126e08682870161258d565b9150509250925092565b600080fd5b600080fd5b7f4e487b7100000000000000000000000000000000000000000000000000000000600052604160045260246000fd5b61272c82612500565b810181811067ffffffffffffffff8211171561274b5761274a6126f4565b5b80604052505050565b600061275e6123eb565b905061276a8282612723565b919050565b600067ffffffffffffffff82111561278a576127896126f4565b5b61279382612500565b9050602081019050919050565b82818337600083830152505050565b60006127c26127bd8461276f565b612754565b9050828152602081018484840111156127de576127dd6126ef565b5b6127e98482856127a0565b509392505050565b600082601f830112612806576128056126ea565b5b81356128168482602086016127af565b91505092915050565b600067ffffffffffffffff82111561283a576128396126f4565b5b61284382612500565b9050602081019050919050565b600061286361285e8461281f565b612754565b90508281526020810184848401111561287f5761287e6126ef565b5b61288a8482856127a0565b509392505050565b600082601f8301126128a7576128a66126ea565b5b81356128b7848260208601612850565b91505092915050565b6000806000606084860312156128d9576128d86123f5565b5b60006128e786828701612642565b935050602084013567ffffffffffffffff811115612908576129076123fa565b5b612914868287016127f1565b925050604084013567ffffffffffffffff811115612935576129346123fa565b5b61294186828701612892565b9150509250925092565b600080fd5b600080fd5b60008083601f84011261296b5761296a6126ea565b5b8235905067ffffffffffffffff8111156129885761298761294b565b5b6020830191508360018202830111156129a4576129a3612950565b5b9250929050565b600080602083850312156129c2576129c16123f5565b5b600083013567ffffffffffffffff8111156129e0576129df6123fa565b5b6129ec85828601612955565b92509250509250929050565b600060208284031215612a0e57612a0d6123f5565b5b6000612a1c84828501612642565b91505092915050565b60008083601f840112612a3b57612a3a6126ea565b5b8235905067ffffffffffffffff811115612a5857612a5761294b565b5b602083019150836020820283011115612a7457612a73612950565b5b9250929050565b60008083601f840112612a9157612a906126ea565b5b8235905067ffffffffffffffff811115612aae57612aad61294b565b5b602083019150836020820283011115612aca57612ac9612950565b5b9250929050565b60008060008060408587031215612aeb57612aea6123f5565b5b600085013567ffffffffffffffff811115612b0957612b086123fa565b5b612b1587828801612a25565b9450945050602085013567ffffffffffffffff811115612b3857612b376123fa565b5b612b4487828801612a7b565b925092505092959194509250565b612b5b8161256c565b82525050565b6000602082019050612b766000830184612b52565b92915050565b612b8581612484565b8114612b9057600080fd5b50565b600081359050612ba281612b7c565b92915050565b60008060408385031215612bbf57612bbe6123f5565b5b6000612bcd85828601612642565b9250506020612bde85828601612b93565b9150509250929050565b60008060008060808587031215612c0257612c016123f5565b5b600085013567ffffffffffffffff811115612c2057612c1f6123fa565b5b612c2c878288016127f1565b945050602085013567ffffffffffffffff811115612c4d57612c4c6123fa565b5b612c59878288016127f1565b935050604085013567ffffffffffffffff811115612c7a57612c796123fa565b5b612c8687828801612892565b9250506060612c978782880161258d565b91505092959194509250565b600060208284031215612cb957612cb86123f5565b5b600082013567ffffffffffffffff811115612cd757612cd66123fa565b5b612ce3848285016127f1565b91505092915050565b6000819050919050565b612cff81612cec565b82525050565b6000602082019050612d1a6000830184612cf6565b92915050565b60008060008060808587031215612d3a57612d396123f5565b5b6000612d4887828801612642565b9450506020612d5987828801612642565b9350506040612d6a8782880161258d565b925050606085013567ffffffffffffffff811115612d8b57612d8a6123fa565b5b612d9787828801612892565b91505092959194509250565b60008060408385031215612dba57612db96123f5565b5b6000612dc885828601612642565b9250506020612dd985828601612642565b9150509250929050565b612dec81612cec565b8114612df757600080fd5b50565b600081359050612e0981612de3565b92915050565b600060208284031215612e2557612e246123f5565b5b6000612e3384828501612dfa565b91505092915050565b7f4e487b7100000000000000000000000000000000000000000000000000000000600052602260045260246000fd5b60006002820490506001821680612e8357607f821691505b602082108103612e9657612e95612e3c565b5b50919050565b7f4552433732313a20617070726f76616c20746f2063757272656e74206f776e6560008201527f7200000000000000000000000000000000000000000000000000000000000000602082015250565b6000612ef86021836124c5565b9150612f0382612e9c565b604082019050919050565b60006020820190508181036000830152612f2781612eeb565b9050919050565b7f4552433732313a20617070726f76652063616c6c6572206973206e6f7420746f60008201527f6b656e206f776e6572206f7220617070726f76656420666f7220616c6c000000602082015250565b6000612f8a603d836124c5565b9150612f9582612f2e565b604082019050919050565b60006020820190508181036000830152612fb981612f7d565b9050919050565b7f4552433732313a2063616c6c6572206973206e6f7420746f6b656e206f776e6560008201527f72206f7220617070726f76656400000000000000000000000000000000000000602082015250565b600061301c602d836124c5565b915061302782612fc0565b604082019050919050565b6000602082019050818103600083015261304b8161300f565b9050919050565b600082905092915050565b60008190508160005260206000209050919050565b60006020601f8301049050919050565b600082821b905092915050565b6000600883026130bf7fffffffffffffffffffffffffffffffffffffffffffffffffffffffffffffffff82613082565b6130c98683613082565b95508019841693508086168417925050509392505050565b6000819050919050565b60006131066131016130fc8461256c565b6130e1565b61256c565b9050919050565b6000819050919050565b613120836130eb565b61313461312c8261310d565b84845461308f565b825550505050565b600090565b61314961313c565b613154818484613117565b505050565b5b818110156131785761316d600082613141565b60018101905061315a565b5050565b601f8211156131bd5761318e8161305d565b61319784613072565b810160208510156131a6578190505b6131ba6131b285613072565b830182613159565b50505b505050565b600082821c905092915050565b60006131e0600019846008026131c2565b1980831691505092915050565b60006131f983836131cf565b9150826002028217905092915050565b6132138383613052565b67ffffffffffffffff81111561322c5761322b6126f4565b5b6132368254612e6b565b61324182828561317c565b6000601f831160018114613270576000841561325e578287013590505b61326885826131ed565b8655506132d0565b601f19841661327e8661305d565b60005b828110156132a657848901358255600182019150602085019450602081019050613281565b868310156132c357848901356132bf601f8916826131cf565b8355505b6001600288020188555050505b50505050505050565b7f4552433732313a20696e76616c696420746f6b656e2049440000000000000000600082015250565b600061330f6018836124c5565b915061331a826132d9565b602082019050919050565b6000602082019050818103600083015261333e81613302565b9050919050565b7f4172726179732073686f756c642068617665207468652073616d652073697a65600082015250565b600061337b6020836124c5565b915061338682613345565b602082019050919050565b600060208201905081810360008301526133aa8161336e565b9050919050565b7f4e487b7100000000000000000000000000000000000000000000000000000000600052603260045260246000fd5b7f4e487b7100000000000000000000000000000000000000000000000000000000600052601160045260246000fd5b600061341a8261256c565b91507fffffffffffffffffffffffffffffffffffffffffffffffffffffffffffffffff820361344c5761344b6133e0565b5b600182019050919050565b7f4552433732313a2061646472657373207a65726f206973206e6f74206120766160008201527f6c6964206f776e65720000000000000000000000000000000000000000000000602082015250565b60006134b36029836124c5565b91506134be82613457565b604082019050919050565b600060208201905081810360008301526134e2816134a6565b9050919050565b600081905092915050565b60006134ff826124ba565b61350981856134e9565b93506135198185602086016124d6565b80840191505092915050565b600061353182846134f4565b915081905092915050565b7f4d6573736167652068617368657320646f206e6f7420636f72726573706f6e64600082015250565b60006135726020836124c5565b915061357d8261353c565b602082019050919050565b600060208201905081810360008301526135a181613565565b9050919050565b600081519050919050565b600082825260208201905092915050565b60006135cf826135a8565b6135d981856135b3565b93506135e98185602086016124d6565b6135f281612500565b840191505092915050565b60006060820190506136126000830186612601565b81810360208301526136248185612511565b9050818103604083015261363881846135c4565b9050949350505050565b60008151905061365181612b7c565b92915050565b60006020828403121561366d5761366c6123f5565b5b600061367b84828501613642565b91505092915050565b7f496e76616c6964207369676e6572000000000000000000000000000000000000600082015250565b60006136ba600e836124c5565b91506136c582613684565b602082019050919050565b600060208201905081810360008301526136e9816136ad565b9050919050565b7f4552433732314d657461646174613a2055524920717565727920666f72206e6f60008201527f6e6578697374656e7420746f6b656e0000000000000000000000000000000000602082015250565b600061374c602f836124c5565b9150613757826136f0565b604082019050919050565b6000602082019050818103600083015261377b8161373f565b9050919050565b6000815461378f81612e6b565b61379981866134e9565b945060018216600081146137b457600181146137c9576137fc565b60ff19831686528115158202860193506137fc565b6137d28561305d565b60005b838110156137f4578154818901526001820191506020810190506137d5565b838801955050505b50505092915050565b60006138118285613782565b915061381d82846134f4565b91508190509392505050565b7f4f776e61626c653a206e6577206f776e657220697320746865207a65726f206160008201527f6464726573730000000000000000000000000000000000000000000000000000602082015250565b60006138856026836124c5565b915061389082613829565b604082019050919050565b600060208201905081810360008301526138b481613878565b9050919050565b7f19457468657265756d205369676e6564204d6573736167653a0a333200000000600082015250565b60006138f1601c836134e9565b91506138fc826138bb565b601c82019050919050565b6000819050919050565b61392261391d82612cec565b613907565b82525050565b6000613933826138e4565b915061393f8284613911565b60208201915081905092915050565b7f4552433732313a207472616e736665722066726f6d20696e636f72726563742060008201527f6f776e6572000000000000000000000000000000000000000000000000000000602082015250565b60006139aa6025836124c5565b91506139b58261394e565b604082019050919050565b600060208201905081810360008301526139d98161399d565b9050919050565b7f4552433732313a207472616e7366657220746f20746865207a65726f2061646460008201527f7265737300000000000000000000000000000000000000000000000000000000602082015250565b6000613a3c6024836124c5565b9150613a47826139e0565b604082019050919050565b60006020820190508181036000830152613a6b81613a2f565b9050919050565b600060ff82169050919050565b613a8881613a72565b82525050565b6000608082019050613aa36000830187612cf6565b613ab06020830186613a7f565b613abd6040830185612cf6565b613aca6060830184612cf6565b95945050505050565b7f4f776e61626c653a2063616c6c6572206973206e6f7420746865206f776e6572600082015250565b6000613b096020836124c5565b9150613b1482613ad3565b602082019050919050565b60006020820190508181036000830152613b3881613afc565b9050919050565b7f4552433732313a20617070726f766520746f2063616c6c657200000000000000600082015250565b6000613b756019836124c5565b9150613b8082613b3f565b602082019050919050565b60006020820190508181036000830152613ba481613b68565b9050919050565b6000613bb68261256c565b9150613bc18361256c565b9250828202613bcf8161256c565b91508282048414831517613be657613be56133e0565b5b5092915050565b6000613bf88261256c565b9150613c038361256c565b9250828201905080821115613c1b57613c1a6133e0565b5b92915050565b6000613c2c8261256c565b915060008203613c3f57613c3e6133e0565b5b600182039050919050565b7f537472696e67733a20686578206c656e67746820696e73756666696369656e74600082015250565b6000613c806020836124c5565b9150613c8b82613c4a565b602082019050919050565b60006020820190508181036000830152613caf81613c73565b9050919050565b7f4552433732313a207472616e7366657220746f206e6f6e20455243373231526560008201527f63656976657220696d706c656d656e7465720000000000000000000000000000602082015250565b6000613d126032836124c5565b9150613d1d82613cb6565b604082019050919050565b60006020820190508181036000830152613d4181613d05565b9050919050565b7f4e487b7100000000000000000000000000000000000000000000000000000000600052601260045260246000fd5b7f496e76616c6964207369676e6174757265206c656e6774682100000000000000600082015250565b6000613dad6019836124c5565b9150613db882613d77565b602082019050919050565b60006020820190508181036000830152613ddc81613da0565b9050919050565b6000608082019050613df86000830187612601565b613e056020830186612601565b613e126040830185612b52565b8181036060830152613e2481846135c4565b905095945050505050565b600081519050613e3e8161242b565b92915050565b600060208284031215613e5a57613e596123f5565b5b6000613e6884828501613e2f565b91505092915050565b7f4552433732313a206d696e7420746f20746865207a65726f2061646472657373600082015250565b6000613ea76020836124c5565b9150613eb282613e71565b602082019050919050565b60006020820190508181036000830152613ed681613e9a565b9050919050565b7f4552433732313a20746f6b656e20616c7265616479206d696e74656400000000600082015250565b6000613f13601c836124c5565b9150613f1e82613edd565b602082019050919050565b60006020820190508181036000830152613f4281613f06565b905091905056fea2646970667358221220a09a08f279e06da7b4da30244d40d9e6c04176ab6bc8d8605fb3e89e8cc73c8b64736f6c63430008120033",
  "linkReferences": {},
  "deployedLinkReferences": {}
}