{
  "_format": "hh-sol-artifact-1",
  "contractName": "RuniverseItem",
  "sourceName": "contracts/RuniverseItem.sol",
  "abi": [
    {
      "inputs": [
        {
          "internalType": "address",
          "name": "_signer",
          "type": "address"
        },
        {
          "internalType": "string",
          "name": "_baseURI",
          "type": "string"
        }
      ],
      "stateMutability": "nonpayable",
      "type": "constructor"
    },
    {
      "anonymous": false,
      "inputs": [
        {
          "indexed": true,
          "internalType": "address",
          "name": "owner",
          "type": "address"
        },
        {
          "indexed": true,
          "internalType": "address",
          "name": "approved",
          "type": "address"
        },
        {
          "indexed": true,
          "internalType": "uint256",
          "name": "tokenId",
          "type": "uint256"
        }
      ],
      "name": "Approval",
      "type": "event"
    },
    {
      "anonymous": false,
      "inputs": [
        {
          "indexed": true,
          "internalType": "address",
          "name": "owner",
          "type": "address"
        },
        {
          "indexed": true,
          "internalType": "address",
          "name": "operator",
          "type": "address"
        },
        {
          "indexed": false,
          "internalType": "bool",
          "name": "approved",
          "type": "bool"
        }
      ],
      "name": "ApprovalForAll",
      "type": "event"
    },
    {
      "anonymous": false,
      "inputs": [
        {
          "indexed": true,
          "internalType": "address",
          "name": "previousOwner",
          "type": "address"
        },
        {
          "indexed": true,
          "internalType": "address",
          "name": "newOwner",
          "type": "address"
        }
      ],
      "name": "OwnershipTransferred",
      "type": "event"
    },
    {
      "anonymous": false,
      "inputs": [
        {
          "indexed": true,
          "internalType": "address",
          "name": "from",
          "type": "address"
        },
        {
          "indexed": true,
          "internalType": "address",
          "name": "to",
          "type": "address"
        },
        {
          "indexed": true,
          "internalType": "uint256",
          "name": "tokenId",
          "type": "uint256"
        }
      ],
      "name": "Transfer",
      "type": "event"
    },
    {
      "inputs": [
        {
          "internalType": "address",
          "name": "to",
          "type": "address"
        },
        {
          "internalType": "uint256",
          "name": "tokenId",
          "type": "uint256"
        }
      ],
      "name": "approve",
      "outputs": [],
      "stateMutability": "nonpayable",
      "type": "function"
    },
    {
      "inputs": [
        {
          "internalType": "address",
          "name": "owner",
          "type": "address"
        }
      ],
      "name": "balanceOf",
      "outputs": [
        {
          "internalType": "uint256",
          "name": "",
          "type": "uint256"
        }
      ],
      "stateMutability": "view",
      "type": "function"
    },
    {
      "inputs": [],
      "name": "baseTokenURI",
      "outputs": [
        {
          "internalType": "string",
          "name": "",
          "type": "string"
        }
      ],
      "stateMutability": "view",
      "type": "function"
    },
    {
      "inputs": [
        {
          "internalType": "uint256",
          "name": "tokenId",
          "type": "uint256"
        }
      ],
      "name": "exists",
      "outputs": [
        {
          "internalType": "bool",
          "name": "",
          "type": "bool"
        }
      ],
      "stateMutability": "view",
      "type": "function"
    },
    {
      "inputs": [
        {
          "internalType": "uint256",
          "name": "tokenId",
          "type": "uint256"
        }
      ],
      "name": "getApproved",
      "outputs": [
        {
          "internalType": "address",
          "name": "",
          "type": "address"
        }
      ],
      "stateMutability": "view",
      "type": "function"
    },
    {
      "inputs": [],
      "name": "getBaseURI",
      "outputs": [
        {
          "internalType": "string",
          "name": "",
          "type": "string"
        }
      ],
      "stateMutability": "view",
      "type": "function"
    },
    {
      "inputs": [
        {
          "internalType": "bytes32",
          "name": "_messageHash",
          "type": "bytes32"
        }
      ],
      "name": "getEthSignedMessageHash",
      "outputs": [
        {
          "internalType": "bytes32",
          "name": "",
          "type": "bytes32"
        }
      ],
      "stateMutability": "pure",
      "type": "function"
    },
    {
      "inputs": [
        {
          "internalType": "string",
          "name": "_message",
          "type": "string"
        }
      ],
      "name": "getMessageHash",
      "outputs": [
        {
          "internalType": "bytes32",
          "name": "",
          "type": "bytes32"
        }
      ],
      "stateMutability": "pure",
      "type": "function"
    },
    {
      "inputs": [],
      "name": "getSigner",
      "outputs": [
        {
          "internalType": "address",
          "name": "",
          "type": "address"
        }
      ],
      "stateMutability": "view",
      "type": "function"
    },
    {
      "inputs": [
        {
          "internalType": "address",
          "name": "owner",
          "type": "address"
        },
        {
          "internalType": "address",
          "name": "operator",
          "type": "address"
        }
      ],
      "name": "isApprovedForAll",
      "outputs": [
        {
          "internalType": "bool",
          "name": "",
          "type": "bool"
        }
      ],
      "stateMutability": "view",
      "type": "function"
    },
    {
      "inputs": [],
      "name": "name",
      "outputs": [
        {
          "internalType": "string",
          "name": "",
          "type": "string"
        }
      ],
      "stateMutability": "view",
      "type": "function"
    },
    {
      "inputs": [],
      "name": "owner",
      "outputs": [
        {
          "internalType": "address",
          "name": "",
          "type": "address"
        }
      ],
      "stateMutability": "view",
      "type": "function"
    },
    {
      "inputs": [
        {
          "internalType": "uint256[]",
          "name": "tokenIds",
          "type": "uint256[]"
        },
        {
          "internalType": "address[]",
          "name": "recipients",
          "type": "address[]"
        }
      ],
      "name": "ownerMint",
      "outputs": [],
      "stateMutability": "nonpayable",
      "type": "function"
    },
    {
      "inputs": [
        {
          "internalType": "uint256",
          "name": "tokenId",
          "type": "uint256"
        }
      ],
      "name": "ownerOf",
      "outputs": [
        {
          "internalType": "address",
          "name": "",
          "type": "address"
        }
      ],
      "stateMutability": "view",
      "type": "function"
    },
    {
      "inputs": [],
      "name": "renounceOwnership",
      "outputs": [],
      "stateMutability": "nonpayable",
      "type": "function"
    },
    {
      "inputs": [
        {
          "internalType": "address",
          "name": "from",
          "type": "address"
        },
        {
          "internalType": "address",
          "name": "to",
          "type": "address"
        },
        {
          "internalType": "uint256",
          "name": "tokenId",
          "type": "uint256"
        }
      ],
      "name": "safeTransferFrom",
      "outputs": [],
      "stateMutability": "nonpayable",
      "type": "function"
    },
    {
      "inputs": [
        {
          "internalType": "address",
          "name": "from",
          "type": "address"
        },
        {
          "internalType": "address",
          "name": "to",
          "type": "address"
        },
        {
          "internalType": "uint256",
          "name": "tokenId",
          "type": "uint256"
        },
        {
          "internalType": "bytes",
          "name": "data",
          "type": "bytes"
        }
      ],
      "name": "safeTransferFrom",
      "outputs": [],
      "stateMutability": "nonpayable",
      "type": "function"
    },
    {
      "inputs": [
        {
          "internalType": "address",
          "name": "operator",
          "type": "address"
        },
        {
          "internalType": "bool",
          "name": "approved",
          "type": "bool"
        }
      ],
      "name": "setApprovalForAll",
      "outputs": [],
      "stateMutability": "nonpayable",
      "type": "function"
    },
    {
      "inputs": [
        {
          "internalType": "string",
          "name": "newBaseURI",
          "type": "string"
        }
      ],
      "name": "setBaseURI",
      "outputs": [],
      "stateMutability": "nonpayable",
      "type": "function"
    },
    {
      "inputs": [
        {
          "internalType": "address",
          "name": "_signer",
          "type": "address"
        }
      ],
      "name": "setSigner",
      "outputs": [],
      "stateMutability": "nonpayable",
      "type": "function"
    },
    {
      "inputs": [],
      "name": "signer",
      "outputs": [
        {
          "internalType": "address",
          "name": "",
          "type": "address"
        }
      ],
      "stateMutability": "view",
      "type": "function"
    },
    {
      "inputs": [
        {
          "internalType": "bytes4",
          "name": "interfaceId",
          "type": "bytes4"
        }
      ],
      "name": "supportsInterface",
      "outputs": [
        {
          "internalType": "bool",
          "name": "",
          "type": "bool"
        }
      ],
      "stateMutability": "view",
      "type": "function"
    },
    {
      "inputs": [],
      "name": "symbol",
      "outputs": [
        {
          "internalType": "string",
          "name": "",
          "type": "string"
        }
      ],
      "stateMutability": "view",
      "type": "function"
    },
    {
      "inputs": [
        {
          "internalType": "uint256",
          "name": "tokenId",
          "type": "uint256"
        }
      ],
      "name": "tokenURI",
      "outputs": [
        {
          "internalType": "string",
          "name": "",
          "type": "string"
        }
      ],
      "stateMutability": "view",
      "type": "function"
    },
    {
      "inputs": [
        {
          "internalType": "address",
          "name": "from",
          "type": "address"
        },
        {
          "internalType": "address",
          "name": "to",
          "type": "address"
        },
        {
          "internalType": "uint256",
          "name": "tokenId",
          "type": "uint256"
        }
      ],
      "name": "transferFrom",
      "outputs": [],
      "stateMutability": "nonpayable",
      "type": "function"
    },
    {
      "inputs": [
        {
          "internalType": "address",
          "name": "newOwner",
          "type": "address"
        }
      ],
      "name": "transferOwnership",
      "outputs": [],
      "stateMutability": "nonpayable",
      "type": "function"
    },
    {
      "inputs": [
        {
          "internalType": "string",
          "name": "_message",
          "type": "string"
        },
        {
          "internalType": "bytes",
          "name": "_signature",
          "type": "bytes"
        }
      ],
      "name": "verify",
      "outputs": [
        {
          "internalType": "bool",
          "name": "",
          "type": "bool"
        }
      ],
      "stateMutability": "view",
      "type": "function"
    },
    {
      "inputs": [
        {
          "internalType": "bytes",
          "name": "signature",
          "type": "bytes"
        },
        {
          "internalType": "uint256",
          "name": "tokenId",
          "type": "uint256"
        }
      ],
      "name": "verifyAndMint",
      "outputs": [],
      "stateMutability": "nonpayable",
      "type": "function"
    }
  ],
  "bytecode": "0x60806040523480156200001157600080fd5b506040516200467f3803806200467f83398181016040528101906200003791906200040a565b6040518060400160405280600d81526020017f52756e6976657273654974656d000000000000000000000000000000000000008152506040518060400160405280600481526020017f5249544d000000000000000000000000000000000000000000000000000000008152508160009081620000b49190620006bb565b508060019081620000c69190620006bb565b505050620000e9620000dd6200014460201b60201c565b6200014c60201b60201c565b81600760006101000a81548173ffffffffffffffffffffffffffffffffffffffff021916908373ffffffffffffffffffffffffffffffffffffffff16021790555080600890816200013b9190620006bb565b505050620007a2565b600033905090565b6000600660009054906101000a900473ffffffffffffffffffffffffffffffffffffffff16905081600660006101000a81548173ffffffffffffffffffffffffffffffffffffffff021916908373ffffffffffffffffffffffffffffffffffffffff1602179055508173ffffffffffffffffffffffffffffffffffffffff168173ffffffffffffffffffffffffffffffffffffffff167f8be0079c531659141344cd1fd0a4f28419497f9722a3daafe3b4186f6b6457e060405160405180910390a35050565b6000604051905090565b600080fd5b600080fd5b600073ffffffffffffffffffffffffffffffffffffffff82169050919050565b6000620002538262000226565b9050919050565b620002658162000246565b81146200027157600080fd5b50565b60008151905062000285816200025a565b92915050565b600080fd5b600080fd5b6000601f19601f8301169050919050565b7f4e487b7100000000000000000000000000000000000000000000000000000000600052604160045260246000fd5b620002e08262000295565b810181811067ffffffffffffffff82111715620003025762000301620002a6565b5b80604052505050565b60006200031762000212565b9050620003258282620002d5565b919050565b600067ffffffffffffffff821115620003485762000347620002a6565b5b620003538262000295565b9050602081019050919050565b60005b838110156200038057808201518184015260208101905062000363565b60008484015250505050565b6000620003a36200039d846200032a565b6200030b565b905082815260208101848484011115620003c257620003c162000290565b5b620003cf84828562000360565b509392505050565b600082601f830112620003ef57620003ee6200028b565b5b8151620004018482602086016200038c565b91505092915050565b600080604083850312156200042457620004236200021c565b5b6000620004348582860162000274565b925050602083015167ffffffffffffffff81111562000458576200045762000221565b5b6200046685828601620003d7565b9150509250929050565b600081519050919050565b7f4e487b7100000000000000000000000000000000000000000000000000000000600052602260045260246000fd5b60006002820490506001821680620004c357607f821691505b602082108103620004d957620004d86200047b565b5b50919050565b60008190508160005260206000209050919050565b60006020601f8301049050919050565b600082821b905092915050565b600060088302620005437fffffffffffffffffffffffffffffffffffffffffffffffffffffffffffffffff8262000504565b6200054f868362000504565b95508019841693508086168417925050509392505050565b6000819050919050565b6000819050919050565b60006200059c62000596620005908462000567565b62000571565b62000567565b9050919050565b6000819050919050565b620005b8836200057b565b620005d0620005c782620005a3565b84845462000511565b825550505050565b600090565b620005e7620005d8565b620005f4818484620005ad565b505050565b5b818110156200061c5762000610600082620005dd565b600181019050620005fa565b5050565b601f8211156200066b576200063581620004df565b6200064084620004f4565b8101602085101562000650578190505b620006686200065f85620004f4565b830182620005f9565b50505b505050565b600082821c905092915050565b6000620006906000198460080262000670565b1980831691505092915050565b6000620006ab83836200067d565b9150826002028217905092915050565b620006c68262000470565b67ffffffffffffffff811115620006e257620006e1620002a6565b5b620006ee8254620004aa565b620006fb82828562000620565b600060209050601f8311600181146200073357600084156200071e578287015190505b6200072a85826200069d565b8655506200079a565b601f1984166200074386620004df565b60005b828110156200076d5784890151825560018201915060208501945060208101905062000746565b868310156200078d578489015162000789601f8916826200067d565b8355505b6001600288020188555050505b505050505050565b613ecd80620007b26000396000f3fe608060405234801561001057600080fd5b50600436106101c45760003560e01c806370a08231116100f9578063b446f3b211610097578063d547cfb711610071578063d547cfb714610503578063e985e9c514610521578063f2fde38b14610551578063fa5408011461056d576101c4565b8063b446f3b214610487578063b88d4fde146104b7578063c87b56dd146104d3576101c4565b80637ac3c02f116100d35780637ac3c02f146104115780638da5cb5b1461042f57806395d89b411461044d578063a22cb4651461046b576101c4565b806370a08231146103b9578063714c5398146103e9578063715018a614610407576101c4565b80633d9ffad51161016657806355f804b31161014057806355f804b3146103355780636352211e146103515780636c19e783146103815780636e9849dd1461039d576101c4565b80633d9ffad5146102b957806342842e0e146102e95780634f558e7914610305576101c4565b8063095ea7b3116101a2578063095ea7b314610247578063200aa6da14610263578063238ac9331461027f57806323b872dd1461029d576101c4565b806301ffc9a7146101c957806306fdde03146101f9578063081812fc14610217575b600080fd5b6101e360048036038101906101de9190612438565b61059d565b6040516101f09190612480565b60405180910390f35b61020161067f565b60405161020e919061252b565b60405180910390f35b610231600480360381019061022c9190612583565b610711565b60405161023e91906125f1565b60405180910390f35b610261600480360381019061025c9190612638565b610757565b005b61027d600480360381019061027891906127ad565b61086e565b005b61028761096e565b60405161029491906125f1565b60405180910390f35b6102b760048036038101906102b29190612809565b610994565b005b6102d360048036038101906102ce91906128fd565b6109f4565b6040516102e09190612480565b60405180910390f35b61030360048036038101906102fe9190612809565b610a73565b005b61031f600480360381019061031a9190612583565b610a93565b60405161032c9190612480565b60405180910390f35b61034f600480360381019061034a91906129d5565b610aa5565b005b61036b60048036038101906103669190612583565b610ac3565b60405161037891906125f1565b60405180910390f35b61039b60048036038101906103969190612a22565b610b49565b005b6103b760048036038101906103b29190612afb565b610b95565b005b6103d360048036038101906103ce9190612a22565b610c55565b6040516103e09190612b8b565b60405180910390f35b6103f1610d0c565b6040516103fe919061252b565b60405180910390f35b61040f610d9e565b005b610419610db2565b60405161042691906125f1565b60405180910390f35b610437610ddc565b60405161044491906125f1565b60405180910390f35b610455610e06565b604051610462919061252b565b60405180910390f35b61048560048036038101906104809190612bd2565b610e98565b005b6104a1600480360381019061049c9190612c12565b610eae565b6040516104ae9190612c74565b60405180910390f35b6104d160048036038101906104cc9190612c8f565b610ede565b005b6104ed60048036038101906104e89190612583565b610f40565b6040516104fa919061252b565b60405180910390f35b61050b610fbc565b604051610518919061252b565b60405180910390f35b61053b60048036038101906105369190612d12565b61104a565b6040516105489190612480565b60405180910390f35b61056b60048036038101906105669190612a22565b6110de565b005b61058760048036038101906105829190612d7e565b611161565b6040516105949190612c74565b60405180910390f35b60007f80ac58cd000000000000000000000000000000000000000000000000000000007bffffffffffffffffffffffffffffffffffffffffffffffffffffffff1916827bffffffffffffffffffffffffffffffffffffffffffffffffffffffff1916148061066857507f5b5e139f000000000000000000000000000000000000000000000000000000007bffffffffffffffffffffffffffffffffffffffffffffffffffffffff1916827bffffffffffffffffffffffffffffffffffffffffffffffffffffffff1916145b80610678575061067782611191565b5b9050919050565b60606000805461068e90612dda565b80601f01602080910402602001604051908101604052809291908181526020018280546106ba90612dda565b80156107075780601f106106dc57610100808354040283529160200191610707565b820191906000526020600020905b8154815290600101906020018083116106ea57829003601f168201915b5050505050905090565b600061071c826111fb565b6004600083815260200190815260200160002060009054906101000a900473ffffffffffffffffffffffffffffffffffffffff169050919050565b600061076282610ac3565b90508073ffffffffffffffffffffffffffffffffffffffff168373ffffffffffffffffffffffffffffffffffffffff16036107d2576040517f08c379a00000000000000000000000000000000000000000000000000000000081526004016107c990612e7d565b60405180910390fd5b8073ffffffffffffffffffffffffffffffffffffffff166107f1611246565b73ffffffffffffffffffffffffffffffffffffffff161480610820575061081f8161081a611246565b61104a565b5b61085f576040517f08c379a000000000000000000000000000000000000000000000000000000000815260040161085690612f0f565b60405180910390fd5b610869838361124e565b505050565b600061087933611307565b61088283611334565b604051602001610893929190612f91565b60405160208183030381529060405290503073ffffffffffffffffffffffffffffffffffffffff16633d9ffad582856040518363ffffffff1660e01b81526004016108df929190613019565b602060405180830381865afa1580156108fc573d6000803e3d6000fd5b505050506040513d601f19601f820116820180604052508101906109209190613065565b61095f576040517f08c379a0000000000000000000000000000000000000000000000000000000008152600401610956906130de565b60405180910390fd5b6109693383611402565b505050565b600760009054906101000a900473ffffffffffffffffffffffffffffffffffffffff1681565b6109a561099f611246565b82611420565b6109e4576040517f08c379a00000000000000000000000000000000000000000000000000000000081526004016109db90613170565b60405180910390fd5b6109ef8383836114b5565b505050565b600080610a0084610eae565b90506000610a0d82611161565b9050600760009054906101000a900473ffffffffffffffffffffffffffffffffffffffff1673ffffffffffffffffffffffffffffffffffffffff16610a5282866117ae565b73ffffffffffffffffffffffffffffffffffffffff16149250505092915050565b610a8e83838360405180602001604052806000815250610ede565b505050565b6000610a9e8261181d565b9050919050565b610aad61185e565b818160089182610abe929190613347565b505050565b600080610acf836118dc565b9050600073ffffffffffffffffffffffffffffffffffffffff168173ffffffffffffffffffffffffffffffffffffffff1603610b40576040517f08c379a0000000000000000000000000000000000000000000000000000000008152600401610b3790613463565b60405180910390fd5b80915050919050565b610b5161185e565b80600760006101000a81548173ffffffffffffffffffffffffffffffffffffffff021916908373ffffffffffffffffffffffffffffffffffffffff16021790555050565b610b9d61185e565b818190508484905014610be5576040517f08c379a0000000000000000000000000000000000000000000000000000000008152600401610bdc906134cf565b60405180910390fd5b60005b82829050811015610c4e57610c3d838383818110610c0957610c086134ef565b5b9050602002016020810190610c1e9190612a22565b868684818110610c3157610c306134ef565b5b90506020020135611402565b80610c479061354d565b9050610be8565b5050505050565b60008073ffffffffffffffffffffffffffffffffffffffff168273ffffffffffffffffffffffffffffffffffffffff1603610cc5576040517f08c379a0000000000000000000000000000000000000000000000000000000008152600401610cbc90613607565b60405180910390fd5b600360008373ffffffffffffffffffffffffffffffffffffffff1673ffffffffffffffffffffffffffffffffffffffff168152602001908152602001600020549050919050565b606060088054610d1b90612dda565b80601f0160208091040260200160405190810160405280929190818152602001828054610d4790612dda565b8015610d945780601f10610d6957610100808354040283529160200191610d94565b820191906000526020600020905b815481529060010190602001808311610d7757829003601f168201915b5050505050905090565b610da661185e565b610db06000611919565b565b6000600760009054906101000a900473ffffffffffffffffffffffffffffffffffffffff16905090565b6000600660009054906101000a900473ffffffffffffffffffffffffffffffffffffffff16905090565b606060018054610e1590612dda565b80601f0160208091040260200160405190810160405280929190818152602001828054610e4190612dda565b8015610e8e5780601f10610e6357610100808354040283529160200191610e8e565b820191906000526020600020905b815481529060010190602001808311610e7157829003601f168201915b5050505050905090565b610eaa610ea3611246565b83836119df565b5050565b600081604051602001610ec19190613627565b604051602081830303815290604052805190602001209050919050565b610eef610ee9611246565b83611420565b610f2e576040517f08c379a0000000000000000000000000000000000000000000000000000000008152600401610f2590613170565b60405180910390fd5b610f3a84848484611b4b565b50505050565b6060610f4b8261181d565b610f8a576040517f08c379a0000000000000000000000000000000000000000000000000000000008152600401610f81906136b0565b60405180910390fd5b6008610f9583611334565b604051602001610fa6929190613753565b6040516020818303038152906040529050919050565b60088054610fc990612dda565b80601f0160208091040260200160405190810160405280929190818152602001828054610ff590612dda565b80156110425780601f1061101757610100808354040283529160200191611042565b820191906000526020600020905b81548152906001019060200180831161102557829003601f168201915b505050505081565b6000600560008473ffffffffffffffffffffffffffffffffffffffff1673ffffffffffffffffffffffffffffffffffffffff16815260200190815260200160002060008373ffffffffffffffffffffffffffffffffffffffff1673ffffffffffffffffffffffffffffffffffffffff16815260200190815260200160002060009054906101000a900460ff16905092915050565b6110e661185e565b600073ffffffffffffffffffffffffffffffffffffffff168173ffffffffffffffffffffffffffffffffffffffff1603611155576040517f08c379a000000000000000000000000000000000000000000000000000000000815260040161114c906137e9565b60405180910390fd5b61115e81611919565b50565b6000816040516020016111749190613876565b604051602081830303815290604052805190602001209050919050565b60007f01ffc9a7000000000000000000000000000000000000000000000000000000007bffffffffffffffffffffffffffffffffffffffffffffffffffffffff1916827bffffffffffffffffffffffffffffffffffffffffffffffffffffffff1916149050919050565b6112048161181d565b611243576040517f08c379a000000000000000000000000000000000000000000000000000000000815260040161123a90613463565b60405180910390fd5b50565b600033905090565b816004600083815260200190815260200160002060006101000a81548173ffffffffffffffffffffffffffffffffffffffff021916908373ffffffffffffffffffffffffffffffffffffffff160217905550808273ffffffffffffffffffffffffffffffffffffffff166112c183610ac3565b73ffffffffffffffffffffffffffffffffffffffff167f8c5be1e5ebec7d5bd14f71427d1e84f3dd0314c0f7b2291e5b200ac8c7c3b92560405160405180910390a45050565b606061132d8273ffffffffffffffffffffffffffffffffffffffff16601460ff16611ba7565b9050919050565b60606000600161134384611de3565b01905060008167ffffffffffffffff81111561136257611361612682565b5b6040519080825280601f01601f1916602001820160405280156113945781602001600182028036833780820191505090505b509050600082602001820190505b6001156113f7578080600190039150507f3031323334353637383961626364656600000000000000000000000000000000600a86061a8153600a85816113eb576113ea61389c565b5b049450600085036113a2575b819350505050919050565b61141c828260405180602001604052806000815250611f36565b5050565b60008061142c83610ac3565b90508073ffffffffffffffffffffffffffffffffffffffff168473ffffffffffffffffffffffffffffffffffffffff16148061146e575061146d818561104a565b5b806114ac57508373ffffffffffffffffffffffffffffffffffffffff1661149484610711565b73ffffffffffffffffffffffffffffffffffffffff16145b91505092915050565b8273ffffffffffffffffffffffffffffffffffffffff166114d582610ac3565b73ffffffffffffffffffffffffffffffffffffffff161461152b576040517f08c379a00000000000000000000000000000000000000000000000000000000081526004016115229061393d565b60405180910390fd5b600073ffffffffffffffffffffffffffffffffffffffff168273ffffffffffffffffffffffffffffffffffffffff160361159a576040517f08c379a0000000000000000000000000000000000000000000000000000000008152600401611591906139cf565b60405180910390fd5b6115a78383836001611f91565b8273ffffffffffffffffffffffffffffffffffffffff166115c782610ac3565b73ffffffffffffffffffffffffffffffffffffffff161461161d576040517f08c379a00000000000000000000000000000000000000000000000000000000081526004016116149061393d565b60405180910390fd5b6004600082815260200190815260200160002060006101000a81549073ffffffffffffffffffffffffffffffffffffffff02191690556001600360008573ffffffffffffffffffffffffffffffffffffffff1673ffffffffffffffffffffffffffffffffffffffff168152602001908152602001600020600082825403925050819055506001600360008473ffffffffffffffffffffffffffffffffffffffff1673ffffffffffffffffffffffffffffffffffffffff16815260200190815260200160002060008282540192505081905550816002600083815260200190815260200160002060006101000a81548173ffffffffffffffffffffffffffffffffffffffff021916908373ffffffffffffffffffffffffffffffffffffffff160217905550808273ffffffffffffffffffffffffffffffffffffffff168473ffffffffffffffffffffffffffffffffffffffff167fddf252ad1be2c89b69c2b068fc378daa952ba7f163c4a11628f55a4df523b3ef60405160405180910390a46117a98383836001611f97565b505050565b6000806000806117bd85611f9d565b925092509250600186828585604051600081526020016040526040516117e69493929190613a0b565b6020604051602081039080840390855afa158015611808573d6000803e3d6000fd5b50505060206040510351935050505092915050565b60008073ffffffffffffffffffffffffffffffffffffffff1661183f836118dc565b73ffffffffffffffffffffffffffffffffffffffff1614159050919050565b611866611246565b73ffffffffffffffffffffffffffffffffffffffff16611884610ddc565b73ffffffffffffffffffffffffffffffffffffffff16146118da576040517f08c379a00000000000000000000000000000000000000000000000000000000081526004016118d190613a9c565b60405180910390fd5b565b60006002600083815260200190815260200160002060009054906101000a900473ffffffffffffffffffffffffffffffffffffffff169050919050565b6000600660009054906101000a900473ffffffffffffffffffffffffffffffffffffffff16905081600660006101000a81548173ffffffffffffffffffffffffffffffffffffffff021916908373ffffffffffffffffffffffffffffffffffffffff1602179055508173ffffffffffffffffffffffffffffffffffffffff168173ffffffffffffffffffffffffffffffffffffffff167f8be0079c531659141344cd1fd0a4f28419497f9722a3daafe3b4186f6b6457e060405160405180910390a35050565b8173ffffffffffffffffffffffffffffffffffffffff168373ffffffffffffffffffffffffffffffffffffffff1603611a4d576040517f08c379a0000000000000000000000000000000000000000000000000000000008152600401611a4490613b08565b60405180910390fd5b80600560008573ffffffffffffffffffffffffffffffffffffffff1673ffffffffffffffffffffffffffffffffffffffff16815260200190815260200160002060008473ffffffffffffffffffffffffffffffffffffffff1673ffffffffffffffffffffffffffffffffffffffff16815260200190815260200160002060006101000a81548160ff0219169083151502179055508173ffffffffffffffffffffffffffffffffffffffff168373ffffffffffffffffffffffffffffffffffffffff167f17307eab39ab6107e8899845ad3d59bd9653f200f220920489ca2b5937696c3183604051611b3e9190612480565b60405180910390a3505050565b611b568484846114b5565b611b6284848484612005565b611ba1576040517f08c379a0000000000000000000000000000000000000000000000000000000008152600401611b9890613b9a565b60405180910390fd5b50505050565b606060006002836002611bba9190613bba565b611bc49190613bfc565b67ffffffffffffffff811115611bdd57611bdc612682565b5b6040519080825280601f01601f191660200182016040528015611c0f5781602001600182028036833780820191505090505b5090507f300000000000000000000000000000000000000000000000000000000000000081600081518110611c4757611c466134ef565b5b60200101907effffffffffffffffffffffffffffffffffffffffffffffffffffffffffffff1916908160001a9053507f780000000000000000000000000000000000000000000000000000000000000081600181518110611cab57611caa6134ef565b5b60200101907effffffffffffffffffffffffffffffffffffffffffffffffffffffffffffff1916908160001a90535060006001846002611ceb9190613bba565b611cf59190613bfc565b90505b6001811115611d95577f3031323334353637383961626364656600000000000000000000000000000000600f861660108110611d3757611d366134ef565b5b1a60f81b828281518110611d4e57611d4d6134ef565b5b60200101907effffffffffffffffffffffffffffffffffffffffffffffffffffffffffffff1916908160001a905350600485901c945080611d8e90613c30565b9050611cf8565b5060008414611dd9576040517f08c379a0000000000000000000000000000000000000000000000000000000008152600401611dd090613ca5565b60405180910390fd5b8091505092915050565b600080600090507a184f03e93ff9f4daa797ed6e38ed64bf6a1f0100000000000000008310611e41577a184f03e93ff9f4daa797ed6e38ed64bf6a1f0100000000000000008381611e3757611e3661389c565b5b0492506040810190505b6d04ee2d6d415b85acef81000000008310611e7e576d04ee2d6d415b85acef81000000008381611e7457611e7361389c565b5b0492506020810190505b662386f26fc100008310611ead57662386f26fc100008381611ea357611ea261389c565b5b0492506010810190505b6305f5e1008310611ed6576305f5e1008381611ecc57611ecb61389c565b5b0492506008810190505b6127108310611efb576127108381611ef157611ef061389c565b5b0492506004810190505b60648310611f1e5760648381611f1457611f1361389c565b5b0492506002810190505b600a8310611f2d576001810190505b80915050919050565b611f40838361218c565b611f4d6000848484612005565b611f8c576040517f08c379a0000000000000000000000000000000000000000000000000000000008152600401611f8390613b9a565b60405180910390fd5b505050565b50505050565b50505050565b60008060006041845114611fe6576040517f08c379a0000000000000000000000000000000000000000000000000000000008152600401611fdd90613d11565b60405180910390fd5b6020840151925060408401519150606084015160001a90509193909250565b60006120268473ffffffffffffffffffffffffffffffffffffffff166123a9565b1561217f578373ffffffffffffffffffffffffffffffffffffffff1663150b7a0261204f611246565b8786866040518563ffffffff1660e01b81526004016120719493929190613d31565b6020604051808303816000875af19250505080156120ad57506040513d601f19601f820116820180604052508101906120aa9190613d92565b60015b61212f573d80600081146120dd576040519150601f19603f3d011682016040523d82523d6000602084013e6120e2565b606091505b506000815103612127576040517f08c379a000000000000000000000000000000000000000000000000000000000815260040161211e90613b9a565b60405180910390fd5b805181602001fd5b63150b7a0260e01b7bffffffffffffffffffffffffffffffffffffffffffffffffffffffff1916817bffffffffffffffffffffffffffffffffffffffffffffffffffffffff191614915050612184565b600190505b949350505050565b600073ffffffffffffffffffffffffffffffffffffffff168273ffffffffffffffffffffffffffffffffffffffff16036121fb576040517f08c379a00000000000000000000000000000000000000000000000000000000081526004016121f290613e0b565b60405180910390fd5b6122048161181d565b15612244576040517f08c379a000000000000000000000000000000000000000000000000000000000815260040161223b90613e77565b60405180910390fd5b612252600083836001611f91565b61225b8161181d565b1561229b576040517f08c379a000000000000000000000000000000000000000000000000000000000815260040161229290613e77565b60405180910390fd5b6001600360008473ffffffffffffffffffffffffffffffffffffffff1673ffffffffffffffffffffffffffffffffffffffff16815260200190815260200160002060008282540192505081905550816002600083815260200190815260200160002060006101000a81548173ffffffffffffffffffffffffffffffffffffffff021916908373ffffffffffffffffffffffffffffffffffffffff160217905550808273ffffffffffffffffffffffffffffffffffffffff16600073ffffffffffffffffffffffffffffffffffffffff167fddf252ad1be2c89b69c2b068fc378daa952ba7f163c4a11628f55a4df523b3ef60405160405180910390a46123a5600083836001611f97565b5050565b6000808273ffffffffffffffffffffffffffffffffffffffff163b119050919050565b6000604051905090565b600080fd5b600080fd5b60007fffffffff0000000000000000000000000000000000000000000000000000000082169050919050565b612415816123e0565b811461242057600080fd5b50565b6000813590506124328161240c565b92915050565b60006020828403121561244e5761244d6123d6565b5b600061245c84828501612423565b91505092915050565b60008115159050919050565b61247a81612465565b82525050565b60006020820190506124956000830184612471565b92915050565b600081519050919050565b600082825260208201905092915050565b60005b838110156124d55780820151818401526020810190506124ba565b60008484015250505050565b6000601f19601f8301169050919050565b60006124fd8261249b565b61250781856124a6565b93506125178185602086016124b7565b612520816124e1565b840191505092915050565b6000602082019050818103600083015261254581846124f2565b905092915050565b6000819050919050565b6125608161254d565b811461256b57600080fd5b50565b60008135905061257d81612557565b92915050565b600060208284031215612599576125986123d6565b5b60006125a78482850161256e565b91505092915050565b600073ffffffffffffffffffffffffffffffffffffffff82169050919050565b60006125db826125b0565b9050919050565b6125eb816125d0565b82525050565b600060208201905061260660008301846125e2565b92915050565b612615816125d0565b811461262057600080fd5b50565b6000813590506126328161260c565b92915050565b6000806040838503121561264f5761264e6123d6565b5b600061265d85828601612623565b925050602061266e8582860161256e565b9150509250929050565b600080fd5b600080fd5b7f4e487b7100000000000000000000000000000000000000000000000000000000600052604160045260246000fd5b6126ba826124e1565b810181811067ffffffffffffffff821117156126d9576126d8612682565b5b80604052505050565b60006126ec6123cc565b90506126f882826126b1565b919050565b600067ffffffffffffffff82111561271857612717612682565b5b612721826124e1565b9050602081019050919050565b82818337600083830152505050565b600061275061274b846126fd565b6126e2565b90508281526020810184848401111561276c5761276b61267d565b5b61277784828561272e565b509392505050565b600082601f83011261279457612793612678565b5b81356127a484826020860161273d565b91505092915050565b600080604083850312156127c4576127c36123d6565b5b600083013567ffffffffffffffff8111156127e2576127e16123db565b5b6127ee8582860161277f565b92505060206127ff8582860161256e565b9150509250929050565b600080600060608486031215612822576128216123d6565b5b600061283086828701612623565b935050602061284186828701612623565b92505060406128528682870161256e565b9150509250925092565b600067ffffffffffffffff82111561287757612876612682565b5b612880826124e1565b9050602081019050919050565b60006128a061289b8461285c565b6126e2565b9050828152602081018484840111156128bc576128bb61267d565b5b6128c784828561272e565b509392505050565b600082601f8301126128e4576128e3612678565b5b81356128f484826020860161288d565b91505092915050565b60008060408385031215612914576129136123d6565b5b600083013567ffffffffffffffff811115612932576129316123db565b5b61293e858286016128cf565b925050602083013567ffffffffffffffff81111561295f5761295e6123db565b5b61296b8582860161277f565b9150509250929050565b600080fd5b600080fd5b60008083601f84011261299557612994612678565b5b8235905067ffffffffffffffff8111156129b2576129b1612975565b5b6020830191508360018202830111156129ce576129cd61297a565b5b9250929050565b600080602083850312156129ec576129eb6123d6565b5b600083013567ffffffffffffffff811115612a0a57612a096123db565b5b612a168582860161297f565b92509250509250929050565b600060208284031215612a3857612a376123d6565b5b6000612a4684828501612623565b91505092915050565b60008083601f840112612a6557612a64612678565b5b8235905067ffffffffffffffff811115612a8257612a81612975565b5b602083019150836020820283011115612a9e57612a9d61297a565b5b9250929050565b60008083601f840112612abb57612aba612678565b5b8235905067ffffffffffffffff811115612ad857612ad7612975565b5b602083019150836020820283011115612af457612af361297a565b5b9250929050565b60008060008060408587031215612b1557612b146123d6565b5b600085013567ffffffffffffffff811115612b3357612b326123db565b5b612b3f87828801612a4f565b9450945050602085013567ffffffffffffffff811115612b6257612b616123db565b5b612b6e87828801612aa5565b925092505092959194509250565b612b858161254d565b82525050565b6000602082019050612ba06000830184612b7c565b92915050565b612baf81612465565b8114612bba57600080fd5b50565b600081359050612bcc81612ba6565b92915050565b60008060408385031215612be957612be86123d6565b5b6000612bf785828601612623565b9250506020612c0885828601612bbd565b9150509250929050565b600060208284031215612c2857612c276123d6565b5b600082013567ffffffffffffffff811115612c4657612c456123db565b5b612c52848285016128cf565b91505092915050565b6000819050919050565b612c6e81612c5b565b82525050565b6000602082019050612c896000830184612c65565b92915050565b60008060008060808587031215612ca957612ca86123d6565b5b6000612cb787828801612623565b9450506020612cc887828801612623565b9350506040612cd98782880161256e565b925050606085013567ffffffffffffffff811115612cfa57612cf96123db565b5b612d068782880161277f565b91505092959194509250565b60008060408385031215612d2957612d286123d6565b5b6000612d3785828601612623565b9250506020612d4885828601612623565b9150509250929050565b612d5b81612c5b565b8114612d6657600080fd5b50565b600081359050612d7881612d52565b92915050565b600060208284031215612d9457612d936123d6565b5b6000612da284828501612d69565b91505092915050565b7f4e487b7100000000000000000000000000000000000000000000000000000000600052602260045260246000fd5b60006002820490506001821680612df257607f821691505b602082108103612e0557612e04612dab565b5b50919050565b7f4552433732313a20617070726f76616c20746f2063757272656e74206f776e6560008201527f7200000000000000000000000000000000000000000000000000000000000000602082015250565b6000612e676021836124a6565b9150612e7282612e0b565b604082019050919050565b60006020820190508181036000830152612e9681612e5a565b9050919050565b7f4552433732313a20617070726f76652063616c6c6572206973206e6f7420746f60008201527f6b656e206f776e6572206f7220617070726f76656420666f7220616c6c000000602082015250565b6000612ef9603d836124a6565b9150612f0482612e9d565b604082019050919050565b60006020820190508181036000830152612f2881612eec565b9050919050565b600081905092915050565b6000612f458261249b565b612f4f8185612f2f565b9350612f5f8185602086016124b7565b80840191505092915050565b7f3a00000000000000000000000000000000000000000000000000000000000000815250565b6000612f9d8285612f3a565b9150612fa882612f6b565b600182019150612fb88284612f3a565b91508190509392505050565b600081519050919050565b600082825260208201905092915050565b6000612feb82612fc4565b612ff58185612fcf565b93506130058185602086016124b7565b61300e816124e1565b840191505092915050565b6000604082019050818103600083015261303381856124f2565b905081810360208301526130478184612fe0565b90509392505050565b60008151905061305f81612ba6565b92915050565b60006020828403121561307b5761307a6123d6565b5b600061308984828501613050565b91505092915050565b7f426164207369676e617475726500000000000000000000000000000000000000600082015250565b60006130c8600d836124a6565b91506130d382613092565b602082019050919050565b600060208201905081810360008301526130f7816130bb565b9050919050565b7f4552433732313a2063616c6c6572206973206e6f7420746f6b656e206f776e6560008201527f72206f7220617070726f76656400000000000000000000000000000000000000602082015250565b600061315a602d836124a6565b9150613165826130fe565b604082019050919050565b600060208201905081810360008301526131898161314d565b9050919050565b600082905092915050565b60008190508160005260206000209050919050565b60006020601f8301049050919050565b600082821b905092915050565b6000600883026131fd7fffffffffffffffffffffffffffffffffffffffffffffffffffffffffffffffff826131c0565b61320786836131c0565b95508019841693508086168417925050509392505050565b6000819050919050565b600061324461323f61323a8461254d565b61321f565b61254d565b9050919050565b6000819050919050565b61325e83613229565b61327261326a8261324b565b8484546131cd565b825550505050565b600090565b61328761327a565b613292818484613255565b505050565b5b818110156132b6576132ab60008261327f565b600181019050613298565b5050565b601f8211156132fb576132cc8161319b565b6132d5846131b0565b810160208510156132e4578190505b6132f86132f0856131b0565b830182613297565b50505b505050565b600082821c905092915050565b600061331e60001984600802613300565b1980831691505092915050565b6000613337838361330d565b9150826002028217905092915050565b6133518383613190565b67ffffffffffffffff81111561336a57613369612682565b5b6133748254612dda565b61337f8282856132ba565b6000601f8311600181146133ae576000841561339c578287013590505b6133a6858261332b565b86555061340e565b601f1984166133bc8661319b565b60005b828110156133e4578489013582556001820191506020850194506020810190506133bf565b8683101561340157848901356133fd601f89168261330d565b8355505b6001600288020188555050505b50505050505050565b7f4552433732313a20696e76616c696420746f6b656e2049440000000000000000600082015250565b600061344d6018836124a6565b915061345882613417565b602082019050919050565b6000602082019050818103600083015261347c81613440565b9050919050565b7f4172726179732073686f756c642068617665207468652073616d652073697a65600082015250565b60006134b96020836124a6565b91506134c482613483565b602082019050919050565b600060208201905081810360008301526134e8816134ac565b9050919050565b7f4e487b7100000000000000000000000000000000000000000000000000000000600052603260045260246000fd5b7f4e487b7100000000000000000000000000000000000000000000000000000000600052601160045260246000fd5b60006135588261254d565b91507fffffffffffffffffffffffffffffffffffffffffffffffffffffffffffffffff820361358a5761358961351e565b5b600182019050919050565b7f4552433732313a2061646472657373207a65726f206973206e6f74206120766160008201527f6c6964206f776e65720000000000000000000000000000000000000000000000602082015250565b60006135f16029836124a6565b91506135fc82613595565b604082019050919050565b60006020820190508181036000830152613620816135e4565b9050919050565b60006136338284612f3a565b915081905092915050565b7f4552433732314d657461646174613a2055524920717565727920666f72206e6f60008201527f6e6578697374656e7420746f6b656e0000000000000000000000000000000000602082015250565b600061369a602f836124a6565b91506136a58261363e565b604082019050919050565b600060208201905081810360008301526136c98161368d565b9050919050565b600081546136dd81612dda565b6136e78186612f2f565b9450600182166000811461370257600181146137175761374a565b60ff198316865281151582028601935061374a565b6137208561319b565b60005b8381101561374257815481890152600182019150602081019050613723565b838801955050505b50505092915050565b600061375f82856136d0565b915061376b8284612f3a565b91508190509392505050565b7f4f776e61626c653a206e6577206f776e657220697320746865207a65726f206160008201527f6464726573730000000000000000000000000000000000000000000000000000602082015250565b60006137d36026836124a6565b91506137de82613777565b604082019050919050565b60006020820190508181036000830152613802816137c6565b9050919050565b7f19457468657265756d205369676e6564204d6573736167653a0a333200000000600082015250565b600061383f601c83612f2f565b915061384a82613809565b601c82019050919050565b6000819050919050565b61387061386b82612c5b565b613855565b82525050565b600061388182613832565b915061388d828461385f565b60208201915081905092915050565b7f4e487b7100000000000000000000000000000000000000000000000000000000600052601260045260246000fd5b7f4552433732313a207472616e736665722066726f6d20696e636f72726563742060008201527f6f776e6572000000000000000000000000000000000000000000000000000000602082015250565b60006139276025836124a6565b9150613932826138cb565b604082019050919050565b600060208201905081810360008301526139568161391a565b9050919050565b7f4552433732313a207472616e7366657220746f20746865207a65726f2061646460008201527f7265737300000000000000000000000000000000000000000000000000000000602082015250565b60006139b96024836124a6565b91506139c48261395d565b604082019050919050565b600060208201905081810360008301526139e8816139ac565b9050919050565b600060ff82169050919050565b613a05816139ef565b82525050565b6000608082019050613a206000830187612c65565b613a2d60208301866139fc565b613a3a6040830185612c65565b613a476060830184612c65565b95945050505050565b7f4f776e61626c653a2063616c6c6572206973206e6f7420746865206f776e6572600082015250565b6000613a866020836124a6565b9150613a9182613a50565b602082019050919050565b60006020820190508181036000830152613ab581613a79565b9050919050565b7f4552433732313a20617070726f766520746f2063616c6c657200000000000000600082015250565b6000613af26019836124a6565b9150613afd82613abc565b602082019050919050565b60006020820190508181036000830152613b2181613ae5565b9050919050565b7f4552433732313a207472616e7366657220746f206e6f6e20455243373231526560008201527f63656976657220696d706c656d656e7465720000000000000000000000000000602082015250565b6000613b846032836124a6565b9150613b8f82613b28565b604082019050919050565b60006020820190508181036000830152613bb381613b77565b9050919050565b6000613bc58261254d565b9150613bd08361254d565b9250828202613bde8161254d565b91508282048414831517613bf557613bf461351e565b5b5092915050565b6000613c078261254d565b9150613c128361254d565b9250828201905080821115613c2a57613c2961351e565b5b92915050565b6000613c3b8261254d565b915060008203613c4e57613c4d61351e565b5b600182039050919050565b7f537472696e67733a20686578206c656e67746820696e73756666696369656e74600082015250565b6000613c8f6020836124a6565b9150613c9a82613c59565b602082019050919050565b60006020820190508181036000830152613cbe81613c82565b9050919050565b7f496e76616c6964207369676e6174757265206c656e6774682100000000000000600082015250565b6000613cfb6019836124a6565b9150613d0682613cc5565b602082019050919050565b60006020820190508181036000830152613d2a81613cee565b9050919050565b6000608082019050613d4660008301876125e2565b613d5360208301866125e2565b613d606040830185612b7c565b8181036060830152613d728184612fe0565b905095945050505050565b600081519050613d8c8161240c565b92915050565b600060208284031215613da857613da76123d6565b5b6000613db684828501613d7d565b91505092915050565b7f4552433732313a206d696e7420746f20746865207a65726f2061646472657373600082015250565b6000613df56020836124a6565b9150613e0082613dbf565b602082019050919050565b60006020820190508181036000830152613e2481613de8565b9050919050565b7f4552433732313a20746f6b656e20616c7265616479206d696e74656400000000600082015250565b6000613e61601c836124a6565b9150613e6c82613e2b565b602082019050919050565b60006020820190508181036000830152613e9081613e54565b905091905056fea2646970667358221220f0d8f2d801c26b478c602aab5e3d29614aeb458f3aecf11eb65b8905f803f7da64736f6c63430008120033",
  "linkReferences": {},
  "deployedLinkReferences": {}
}