{
  "_format": "hh-sol-artifact-1",
  "contractName": "RuniverseItem",
  "sourceName": "contracts/RuniverseItem.sol",
  "abi": [
    {
      "inputs": [
        {
          "internalType": "string",
          "name": "_baseURI",
          "type": "string"
        }
      ],
      "stateMutability": "nonpayable",
      "type": "constructor"
    },
    {
      "inputs": [],
      "name": "Address0Error",
      "type": "error"
    },
    {
      "anonymous": false,
      "inputs": [
        {
          "indexed": true,
          "internalType": "address",
          "name": "owner",
          "type": "address"
        },
        {
          "indexed": true,
          "internalType": "address",
          "name": "approved",
          "type": "address"
        },
        {
          "indexed": true,
          "internalType": "uint256",
          "name": "tokenId",
          "type": "uint256"
        }
      ],
      "name": "Approval",
      "type": "event"
    },
    {
      "anonymous": false,
      "inputs": [
        {
          "indexed": true,
          "internalType": "address",
          "name": "owner",
          "type": "address"
        },
        {
          "indexed": true,
          "internalType": "address",
          "name": "operator",
          "type": "address"
        },
        {
          "indexed": false,
          "internalType": "bool",
          "name": "approved",
          "type": "bool"
        }
      ],
      "name": "ApprovalForAll",
      "type": "event"
    },
    {
      "anonymous": false,
      "inputs": [
        {
          "indexed": true,
          "internalType": "address",
          "name": "previousOwner",
          "type": "address"
        },
        {
          "indexed": true,
          "internalType": "address",
          "name": "newOwner",
          "type": "address"
        }
      ],
      "name": "OwnershipTransferred",
      "type": "event"
    },
    {
      "anonymous": false,
      "inputs": [
        {
          "indexed": false,
          "internalType": "address",
          "name": "to",
          "type": "address"
        },
        {
          "indexed": false,
          "internalType": "uint256",
          "name": "tokenId",
          "type": "uint256"
        }
      ],
      "name": "RuniverseItemMinted",
      "type": "event"
    },
    {
      "anonymous": false,
      "inputs": [
        {
          "indexed": true,
          "internalType": "address",
          "name": "from",
          "type": "address"
        },
        {
          "indexed": true,
          "internalType": "address",
          "name": "to",
          "type": "address"
        },
        {
          "indexed": true,
          "internalType": "uint256",
          "name": "tokenId",
          "type": "uint256"
        }
      ],
      "name": "Transfer",
      "type": "event"
    },
    {
      "inputs": [
        {
          "internalType": "address",
          "name": "to",
          "type": "address"
        },
        {
          "internalType": "uint256",
          "name": "tokenId",
          "type": "uint256"
        }
      ],
      "name": "approve",
      "outputs": [],
      "stateMutability": "nonpayable",
      "type": "function"
    },
    {
      "inputs": [
        {
          "internalType": "address",
          "name": "owner",
          "type": "address"
        }
      ],
      "name": "balanceOf",
      "outputs": [
        {
          "internalType": "uint256",
          "name": "",
          "type": "uint256"
        }
      ],
      "stateMutability": "view",
      "type": "function"
    },
    {
      "inputs": [],
      "name": "baseTokenURI",
      "outputs": [
        {
          "internalType": "string",
          "name": "",
          "type": "string"
        }
      ],
      "stateMutability": "view",
      "type": "function"
    },
    {
      "inputs": [
        {
          "internalType": "uint256",
          "name": "tokenId",
          "type": "uint256"
        }
      ],
      "name": "burn",
      "outputs": [],
      "stateMutability": "nonpayable",
      "type": "function"
    },
    {
      "inputs": [
        {
          "internalType": "uint256",
          "name": "tokenId",
          "type": "uint256"
        }
      ],
      "name": "exists",
      "outputs": [
        {
          "internalType": "bool",
          "name": "",
          "type": "bool"
        }
      ],
      "stateMutability": "view",
      "type": "function"
    },
    {
      "inputs": [
        {
          "internalType": "contract IERC20",
          "name": "token",
          "type": "address"
        },
        {
          "internalType": "uint256",
          "name": "amount",
          "type": "uint256"
        }
      ],
      "name": "forwardERC20s",
      "outputs": [],
      "stateMutability": "nonpayable",
      "type": "function"
    },
    {
      "inputs": [
        {
          "internalType": "uint256",
          "name": "tokenId",
          "type": "uint256"
        }
      ],
      "name": "getApproved",
      "outputs": [
        {
          "internalType": "address",
          "name": "",
          "type": "address"
        }
      ],
      "stateMutability": "view",
      "type": "function"
    },
    {
      "inputs": [],
      "name": "getBaseURI",
      "outputs": [
        {
          "internalType": "string",
          "name": "",
          "type": "string"
        }
      ],
      "stateMutability": "view",
      "type": "function"
    },
    {
      "inputs": [
        {
          "internalType": "address",
          "name": "owner",
          "type": "address"
        },
        {
          "internalType": "address",
          "name": "operator",
          "type": "address"
        }
      ],
      "name": "isApprovedForAll",
      "outputs": [
        {
          "internalType": "bool",
          "name": "",
          "type": "bool"
        }
      ],
      "stateMutability": "view",
      "type": "function"
    },
    {
      "inputs": [
        {
          "internalType": "address",
          "name": "recipient",
          "type": "address"
        },
        {
          "internalType": "uint256",
          "name": "tokenId",
          "type": "uint256"
        }
      ],
      "name": "mintTokenId",
      "outputs": [],
      "stateMutability": "nonpayable",
      "type": "function"
    },
    {
      "inputs": [],
      "name": "minterAddress",
      "outputs": [
        {
          "internalType": "address",
          "name": "",
          "type": "address"
        }
      ],
      "stateMutability": "view",
      "type": "function"
    },
    {
      "inputs": [],
      "name": "name",
      "outputs": [
        {
          "internalType": "string",
          "name": "",
          "type": "string"
        }
      ],
      "stateMutability": "view",
      "type": "function"
    },
    {
      "inputs": [],
      "name": "numMinted",
      "outputs": [
        {
          "internalType": "uint256",
          "name": "",
          "type": "uint256"
        }
      ],
      "stateMutability": "view",
      "type": "function"
    },
    {
      "inputs": [],
      "name": "owner",
      "outputs": [
        {
          "internalType": "address",
          "name": "",
          "type": "address"
        }
      ],
      "stateMutability": "view",
      "type": "function"
    },
    {
      "inputs": [
        {
          "internalType": "uint256",
          "name": "tokenId",
          "type": "uint256"
        }
      ],
      "name": "ownerOf",
      "outputs": [
        {
          "internalType": "address",
          "name": "",
          "type": "address"
        }
      ],
      "stateMutability": "view",
      "type": "function"
    },
    {
      "inputs": [],
      "name": "renounceOwnership",
      "outputs": [],
      "stateMutability": "nonpayable",
      "type": "function"
    },
    {
      "inputs": [
        {
          "internalType": "address",
          "name": "from",
          "type": "address"
        },
        {
          "internalType": "address",
          "name": "to",
          "type": "address"
        },
        {
          "internalType": "uint256",
          "name": "tokenId",
          "type": "uint256"
        }
      ],
      "name": "safeTransferFrom",
      "outputs": [],
      "stateMutability": "nonpayable",
      "type": "function"
    },
    {
      "inputs": [
        {
          "internalType": "address",
          "name": "from",
          "type": "address"
        },
        {
          "internalType": "address",
          "name": "to",
          "type": "address"
        },
        {
          "internalType": "uint256",
          "name": "tokenId",
          "type": "uint256"
        },
        {
          "internalType": "bytes",
          "name": "data",
          "type": "bytes"
        }
      ],
      "name": "safeTransferFrom",
      "outputs": [],
      "stateMutability": "nonpayable",
      "type": "function"
    },
    {
      "inputs": [
        {
          "internalType": "address",
          "name": "operator",
          "type": "address"
        },
        {
          "internalType": "bool",
          "name": "approved",
          "type": "bool"
        }
      ],
      "name": "setApprovalForAll",
      "outputs": [],
      "stateMutability": "nonpayable",
      "type": "function"
    },
    {
      "inputs": [
        {
          "internalType": "string",
          "name": "newBaseURI",
          "type": "string"
        }
      ],
      "name": "setBaseURI",
      "outputs": [],
      "stateMutability": "nonpayable",
      "type": "function"
    },
    {
      "inputs": [
        {
          "internalType": "address",
          "name": "newMinter",
          "type": "address"
        }
      ],
      "name": "setMinter",
      "outputs": [],
      "stateMutability": "nonpayable",
      "type": "function"
    },
    {
      "inputs": [
        {
          "internalType": "bytes4",
          "name": "interfaceId",
          "type": "bytes4"
        }
      ],
      "name": "supportsInterface",
      "outputs": [
        {
          "internalType": "bool",
          "name": "",
          "type": "bool"
        }
      ],
      "stateMutability": "view",
      "type": "function"
    },
    {
      "inputs": [],
      "name": "symbol",
      "outputs": [
        {
          "internalType": "string",
          "name": "",
          "type": "string"
        }
      ],
      "stateMutability": "view",
      "type": "function"
    },
    {
      "inputs": [
        {
          "internalType": "uint256",
          "name": "index",
          "type": "uint256"
        }
      ],
      "name": "tokenByIndex",
      "outputs": [
        {
          "internalType": "uint256",
          "name": "",
          "type": "uint256"
        }
      ],
      "stateMutability": "view",
      "type": "function"
    },
    {
      "inputs": [
        {
          "internalType": "address",
          "name": "owner",
          "type": "address"
        },
        {
          "internalType": "uint256",
          "name": "index",
          "type": "uint256"
        }
      ],
      "name": "tokenOfOwnerByIndex",
      "outputs": [
        {
          "internalType": "uint256",
          "name": "",
          "type": "uint256"
        }
      ],
      "stateMutability": "view",
      "type": "function"
    },
    {
      "inputs": [
        {
          "internalType": "uint256",
          "name": "tokenId",
          "type": "uint256"
        }
      ],
      "name": "tokenURI",
      "outputs": [
        {
          "internalType": "string",
          "name": "",
          "type": "string"
        }
      ],
      "stateMutability": "view",
      "type": "function"
    },
    {
      "inputs": [],
      "name": "totalSupply",
      "outputs": [
        {
          "internalType": "uint256",
          "name": "",
          "type": "uint256"
        }
      ],
      "stateMutability": "view",
      "type": "function"
    },
    {
      "inputs": [
        {
          "internalType": "address",
          "name": "from",
          "type": "address"
        },
        {
          "internalType": "address",
          "name": "to",
          "type": "address"
        },
        {
          "internalType": "uint256",
          "name": "tokenId",
          "type": "uint256"
        }
      ],
      "name": "transferFrom",
      "outputs": [],
      "stateMutability": "nonpayable",
      "type": "function"
    },
    {
      "inputs": [
        {
          "internalType": "address",
          "name": "newOwner",
          "type": "address"
        }
      ],
      "name": "transferOwnership",
      "outputs": [],
      "stateMutability": "nonpayable",
      "type": "function"
    },
    {
      "inputs": [],
      "name": "withdrawAll",
      "outputs": [],
      "stateMutability": "payable",
      "type": "function"
    }
  ],
  "bytecode": "0x60806040526000600e553480156200001657600080fd5b50604051620049fa380380620049fa83398181016040528101906200003c919062000370565b6040518060400160405280600d81526020017f52756e6976657273654974656d000000000000000000000000000000000000008152506040518060400160405280600481526020017f5249544d000000000000000000000000000000000000000000000000000000008152508160009081620000b991906200060c565b508060019081620000cb91906200060c565b505050620000ee620000e26200010f60201b60201c565b6200011760201b60201c565b6001600b8190555080600d90816200010791906200060c565b5050620006f3565b600033905090565b6000600a60009054906101000a900473ffffffffffffffffffffffffffffffffffffffff16905081600a60006101000a81548173ffffffffffffffffffffffffffffffffffffffff021916908373ffffffffffffffffffffffffffffffffffffffff1602179055508173ffffffffffffffffffffffffffffffffffffffff168173ffffffffffffffffffffffffffffffffffffffff167f8be0079c531659141344cd1fd0a4f28419497f9722a3daafe3b4186f6b6457e060405160405180910390a35050565b6000604051905090565b600080fd5b600080fd5b600080fd5b600080fd5b6000601f19601f8301169050919050565b7f4e487b7100000000000000000000000000000000000000000000000000000000600052604160045260246000fd5b6200024682620001fb565b810181811067ffffffffffffffff821117156200026857620002676200020c565b5b80604052505050565b60006200027d620001dd565b90506200028b82826200023b565b919050565b600067ffffffffffffffff821115620002ae57620002ad6200020c565b5b620002b982620001fb565b9050602081019050919050565b60005b83811015620002e6578082015181840152602081019050620002c9565b60008484015250505050565b600062000309620003038462000290565b62000271565b905082815260208101848484011115620003285762000327620001f6565b5b62000335848285620002c6565b509392505050565b600082601f830112620003555762000354620001f1565b5b815162000367848260208601620002f2565b91505092915050565b600060208284031215620003895762000388620001e7565b5b600082015167ffffffffffffffff811115620003aa57620003a9620001ec565b5b620003b8848285016200033d565b91505092915050565b600081519050919050565b7f4e487b7100000000000000000000000000000000000000000000000000000000600052602260045260246000fd5b600060028204905060018216806200041457607f821691505b6020821081036200042a5762000429620003cc565b5b50919050565b60008190508160005260206000209050919050565b60006020601f8301049050919050565b600082821b905092915050565b600060088302620004947fffffffffffffffffffffffffffffffffffffffffffffffffffffffffffffffff8262000455565b620004a0868362000455565b95508019841693508086168417925050509392505050565b6000819050919050565b6000819050919050565b6000620004ed620004e7620004e184620004b8565b620004c2565b620004b8565b9050919050565b6000819050919050565b6200050983620004cc565b620005216200051882620004f4565b84845462000462565b825550505050565b600090565b6200053862000529565b62000545818484620004fe565b505050565b5b818110156200056d57620005616000826200052e565b6001810190506200054b565b5050565b601f821115620005bc57620005868162000430565b620005918462000445565b81016020851015620005a1578190505b620005b9620005b08562000445565b8301826200054a565b50505b505050565b600082821c905092915050565b6000620005e160001984600802620005c1565b1980831691505092915050565b6000620005fc8383620005ce565b9150826002028217905092915050565b6200061782620003c1565b67ffffffffffffffff8111156200063357620006326200020c565b5b6200063f8254620003fb565b6200064c82828562000571565b600060209050601f8311600181146200068457600084156200066f578287015190505b6200067b8582620005ee565b865550620006eb565b601f198416620006948662000430565b60005b82811015620006be5784890151825560018201915060208501945060208101905062000697565b86831015620006de5784890151620006da601f891682620005ce565b8355505b6001600288020188555050505b505050505050565b6142f780620007036000396000f3fe6080604052600436106101cd5760003560e01c806370a08231116100f7578063a22cb46511610095578063d547cfb711610064578063d547cfb714610679578063e985e9c5146106a4578063f2fde38b146106e1578063fca3b5aa1461070a576101cd565b8063a22cb465146105bf578063b88d4fde146105e8578063c87b56dd14610611578063d52079b41461064e576101cd565b8063853828b6116100d1578063853828b6146105365780638da5cb5b1461054057806395d89b411461056b5780639727151a14610596576101cd565b806370a08231146104b7578063714c5398146104f4578063715018a61461051f576101cd565b806332761d161161016f5780634f558e791161013e5780634f558e79146103d75780634f6ccce71461041457806355f804b3146104515780636352211e1461047a576101cd565b806332761d161461033157806334d722c91461035a57806342842e0e1461038557806342966c68146103ae576101cd565b8063095ea7b3116101ab578063095ea7b31461027757806318160ddd146102a057806323b872dd146102cb5780632f745c59146102f4576101cd565b806301ffc9a7146101d257806306fdde031461020f578063081812fc1461023a575b600080fd5b3480156101de57600080fd5b506101f960048036038101906101f49190612b0e565b610733565b6040516102069190612b56565b60405180910390f35b34801561021b57600080fd5b50610224610745565b6040516102319190612c01565b60405180910390f35b34801561024657600080fd5b50610261600480360381019061025c9190612c59565b6107d7565b60405161026e9190612cc7565b60405180910390f35b34801561028357600080fd5b5061029e60048036038101906102999190612d0e565b61081d565b005b3480156102ac57600080fd5b506102b5610934565b6040516102c29190612d5d565b60405180910390f35b3480156102d757600080fd5b506102f260048036038101906102ed9190612d78565b610941565b005b34801561030057600080fd5b5061031b60048036038101906103169190612d0e565b6109a1565b6040516103289190612d5d565b60405180910390f35b34801561033d57600080fd5b5061035860048036038101906103539190612d0e565b610a46565b005b34801561036657600080fd5b5061036f610b4a565b60405161037c9190612cc7565b60405180910390f35b34801561039157600080fd5b506103ac60048036038101906103a79190612d78565b610b70565b005b3480156103ba57600080fd5b506103d560048036038101906103d09190612c59565b610b90565b005b3480156103e357600080fd5b506103fe60048036038101906103f99190612c59565b610bec565b60405161040b9190612b56565b60405180910390f35b34801561042057600080fd5b5061043b60048036038101906104369190612c59565b610bfe565b6040516104489190612d5d565b60405180910390f35b34801561045d57600080fd5b5061047860048036038101906104739190612e30565b610c6f565b005b34801561048657600080fd5b506104a1600480360381019061049c9190612c59565b610c8d565b6040516104ae9190612cc7565b60405180910390f35b3480156104c357600080fd5b506104de60048036038101906104d99190612e7d565b610d13565b6040516104eb9190612d5d565b60405180910390f35b34801561050057600080fd5b50610509610dca565b6040516105169190612c01565b60405180910390f35b34801561052b57600080fd5b50610534610e5c565b005b61053e610e70565b005b34801561054c57600080fd5b50610555610f27565b6040516105629190612cc7565b60405180910390f35b34801561057757600080fd5b50610580610f51565b60405161058d9190612c01565b60405180910390f35b3480156105a257600080fd5b506105bd60048036038101906105b89190612ee8565b610fe3565b005b3480156105cb57600080fd5b506105e660048036038101906105e19190612f54565b6110d4565b005b3480156105f457600080fd5b5061060f600480360381019061060a91906130c4565b6110ea565b005b34801561061d57600080fd5b5061063860048036038101906106339190612c59565b61114c565b6040516106459190612c01565b60405180910390f35b34801561065a57600080fd5b506106636111c8565b6040516106709190612d5d565b60405180910390f35b34801561068557600080fd5b5061068e6111ce565b60405161069b9190612c01565b60405180910390f35b3480156106b057600080fd5b506106cb60048036038101906106c69190613147565b61125c565b6040516106d89190612b56565b60405180910390f35b3480156106ed57600080fd5b5061070860048036038101906107039190612e7d565b6112f0565b005b34801561071657600080fd5b50610731600480360381019061072c9190612e7d565b611373565b005b600061073e8261142e565b9050919050565b606060008054610754906131b6565b80601f0160208091040260200160405190810160405280929190818152602001828054610780906131b6565b80156107cd5780601f106107a2576101008083540402835291602001916107cd565b820191906000526020600020905b8154815290600101906020018083116107b057829003601f168201915b5050505050905090565b60006107e2826114a8565b6004600083815260200190815260200160002060009054906101000a900473ffffffffffffffffffffffffffffffffffffffff169050919050565b600061082882610c8d565b90508073ffffffffffffffffffffffffffffffffffffffff168373ffffffffffffffffffffffffffffffffffffffff1603610898576040517f08c379a000000000000000000000000000000000000000000000000000000000815260040161088f90613259565b60405180910390fd5b8073ffffffffffffffffffffffffffffffffffffffff166108b76114f3565b73ffffffffffffffffffffffffffffffffffffffff1614806108e657506108e5816108e06114f3565b61125c565b5b610925576040517f08c379a000000000000000000000000000000000000000000000000000000000815260040161091c906132eb565b60405180910390fd5b61092f83836114fb565b505050565b6000600880549050905090565b61095261094c6114f3565b826115b4565b610991576040517f08c379a00000000000000000000000000000000000000000000000000000000081526004016109889061337d565b60405180910390fd5b61099c838383611649565b505050565b60006109ac83610d13565b82106109ed576040517f08c379a00000000000000000000000000000000000000000000000000000000081526004016109e49061340f565b60405180910390fd5b600660008473ffffffffffffffffffffffffffffffffffffffff1673ffffffffffffffffffffffffffffffffffffffff168152602001908152602001600020600083815260200190815260200160002054905092915050565b610a4e611942565b600c60009054906101000a900473ffffffffffffffffffffffffffffffffffffffff1673ffffffffffffffffffffffffffffffffffffffff16610a8f6114f3565b73ffffffffffffffffffffffffffffffffffffffff1614610ae5576040517f08c379a0000000000000000000000000000000000000000000000000000000008152600401610adc9061347b565b60405180910390fd5b600e60008154610af4906134ca565b919050819055507f604e0f34ba8d6d3f7f48c01c251c7bf880d71369b217e5b976ca6120cc51710c8282604051610b2c929190613512565b60405180910390a1610b3e8282611991565b610b466119af565b5050565b600c60009054906101000a900473ffffffffffffffffffffffffffffffffffffffff1681565b610b8b838383604051806020016040528060008152506110ea565b505050565b610ba1610b9b6114f3565b826115b4565b610be0576040517f08c379a0000000000000000000000000000000000000000000000000000000008152600401610bd79061337d565b60405180910390fd5b610be9816119b9565b50565b6000610bf782611b07565b9050919050565b6000610c08610934565b8210610c49576040517f08c379a0000000000000000000000000000000000000000000000000000000008152600401610c40906135ad565b60405180910390fd5b60088281548110610c5d57610c5c6135cd565b5b90600052602060002001549050919050565b610c77611b48565b8181600d9182610c889291906137b3565b505050565b600080610c9983611bc6565b9050600073ffffffffffffffffffffffffffffffffffffffff168173ffffffffffffffffffffffffffffffffffffffff1603610d0a576040517f08c379a0000000000000000000000000000000000000000000000000000000008152600401610d01906138cf565b60405180910390fd5b80915050919050565b60008073ffffffffffffffffffffffffffffffffffffffff168273ffffffffffffffffffffffffffffffffffffffff1603610d83576040517f08c379a0000000000000000000000000000000000000000000000000000000008152600401610d7a90613961565b60405180910390fd5b600360008373ffffffffffffffffffffffffffffffffffffffff1673ffffffffffffffffffffffffffffffffffffffff168152602001908152602001600020549050919050565b6060600d8054610dd9906131b6565b80601f0160208091040260200160405190810160405280929190818152602001828054610e05906131b6565b8015610e525780601f10610e2757610100808354040283529160200191610e52565b820191906000526020600020905b815481529060010190602001808311610e3557829003601f168201915b5050505050905090565b610e64611b48565b610e6e6000611c03565b565b610e78611b48565b60003373ffffffffffffffffffffffffffffffffffffffff1647604051610e9e906139b2565b60006040518083038185875af1925050503d8060008114610edb576040519150601f19603f3d011682016040523d82523d6000602084013e610ee0565b606091505b5050905080610f24576040517f08c379a0000000000000000000000000000000000000000000000000000000008152600401610f1b90613a13565b60405180910390fd5b50565b6000600a60009054906101000a900473ffffffffffffffffffffffffffffffffffffffff16905090565b606060018054610f60906131b6565b80601f0160208091040260200160405190810160405280929190818152602001828054610f8c906131b6565b8015610fd95780601f10610fae57610100808354040283529160200191610fd9565b820191906000526020600020905b815481529060010190602001808311610fbc57829003601f168201915b5050505050905090565b610feb611b48565b600073ffffffffffffffffffffffffffffffffffffffff163373ffffffffffffffffffffffffffffffffffffffff1603611051576040517f48ac165200000000000000000000000000000000000000000000000000000000815260040160405180910390fd5b8173ffffffffffffffffffffffffffffffffffffffff1663a9059cbb33836040518363ffffffff1660e01b815260040161108c929190613512565b6020604051808303816000875af11580156110ab573d6000803e3d6000fd5b505050506040513d601f19601f820116820180604052508101906110cf9190613a48565b505050565b6110e66110df6114f3565b8383611cc9565b5050565b6110fb6110f56114f3565b836115b4565b61113a576040517f08c379a00000000000000000000000000000000000000000000000000000000081526004016111319061337d565b60405180910390fd5b61114684848484611e35565b50505050565b606061115782611b07565b611196576040517f08c379a000000000000000000000000000000000000000000000000000000000815260040161118d90613ae7565b60405180910390fd5b600d6111a183611e91565b6040516020016111b2929190613bc6565b6040516020818303038152906040529050919050565b600e5481565b600d80546111db906131b6565b80601f0160208091040260200160405190810160405280929190818152602001828054611207906131b6565b80156112545780601f1061122957610100808354040283529160200191611254565b820191906000526020600020905b81548152906001019060200180831161123757829003601f168201915b505050505081565b6000600560008473ffffffffffffffffffffffffffffffffffffffff1673ffffffffffffffffffffffffffffffffffffffff16815260200190815260200160002060008373ffffffffffffffffffffffffffffffffffffffff1673ffffffffffffffffffffffffffffffffffffffff16815260200190815260200160002060009054906101000a900460ff16905092915050565b6112f8611b48565b600073ffffffffffffffffffffffffffffffffffffffff168173ffffffffffffffffffffffffffffffffffffffff1603611367576040517f08c379a000000000000000000000000000000000000000000000000000000000815260040161135e90613c5c565b60405180910390fd5b61137081611c03565b50565b61137b611b48565b600073ffffffffffffffffffffffffffffffffffffffff168173ffffffffffffffffffffffffffffffffffffffff16036113ea576040517f08c379a00000000000000000000000000000000000000000000000000000000081526004016113e190613cc8565b60405180910390fd5b80600c60006101000a81548173ffffffffffffffffffffffffffffffffffffffff021916908373ffffffffffffffffffffffffffffffffffffffff16021790555050565b60007f780e9d63000000000000000000000000000000000000000000000000000000007bffffffffffffffffffffffffffffffffffffffffffffffffffffffff1916827bffffffffffffffffffffffffffffffffffffffffffffffffffffffff191614806114a157506114a082611f5f565b5b9050919050565b6114b181611b07565b6114f0576040517f08c379a00000000000000000000000000000000000000000000000000000000081526004016114e7906138cf565b60405180910390fd5b50565b600033905090565b816004600083815260200190815260200160002060006101000a81548173ffffffffffffffffffffffffffffffffffffffff021916908373ffffffffffffffffffffffffffffffffffffffff160217905550808273ffffffffffffffffffffffffffffffffffffffff1661156e83610c8d565b73ffffffffffffffffffffffffffffffffffffffff167f8c5be1e5ebec7d5bd14f71427d1e84f3dd0314c0f7b2291e5b200ac8c7c3b92560405160405180910390a45050565b6000806115c083610c8d565b90508073ffffffffffffffffffffffffffffffffffffffff168473ffffffffffffffffffffffffffffffffffffffff1614806116025750611601818561125c565b5b8061164057508373ffffffffffffffffffffffffffffffffffffffff16611628846107d7565b73ffffffffffffffffffffffffffffffffffffffff16145b91505092915050565b8273ffffffffffffffffffffffffffffffffffffffff1661166982610c8d565b73ffffffffffffffffffffffffffffffffffffffff16146116bf576040517f08c379a00000000000000000000000000000000000000000000000000000000081526004016116b690613d5a565b60405180910390fd5b600073ffffffffffffffffffffffffffffffffffffffff168273ffffffffffffffffffffffffffffffffffffffff160361172e576040517f08c379a000000000000000000000000000000000000000000000000000000000815260040161172590613dec565b60405180910390fd5b61173b8383836001612041565b8273ffffffffffffffffffffffffffffffffffffffff1661175b82610c8d565b73ffffffffffffffffffffffffffffffffffffffff16146117b1576040517f08c379a00000000000000000000000000000000000000000000000000000000081526004016117a890613d5a565b60405180910390fd5b6004600082815260200190815260200160002060006101000a81549073ffffffffffffffffffffffffffffffffffffffff02191690556001600360008573ffffffffffffffffffffffffffffffffffffffff1673ffffffffffffffffffffffffffffffffffffffff168152602001908152602001600020600082825403925050819055506001600360008473ffffffffffffffffffffffffffffffffffffffff1673ffffffffffffffffffffffffffffffffffffffff16815260200190815260200160002060008282540192505081905550816002600083815260200190815260200160002060006101000a81548173ffffffffffffffffffffffffffffffffffffffff021916908373ffffffffffffffffffffffffffffffffffffffff160217905550808273ffffffffffffffffffffffffffffffffffffffff168473ffffffffffffffffffffffffffffffffffffffff167fddf252ad1be2c89b69c2b068fc378daa952ba7f163c4a11628f55a4df523b3ef60405160405180910390a461193d8383836001612053565b505050565b6002600b5403611987576040517f08c379a000000000000000000000000000000000000000000000000000000000815260040161197e90613e58565b60405180910390fd5b6002600b81905550565b6119ab828260405180602001604052806000815250612059565b5050565b6001600b81905550565b60006119c482610c8d565b90506119d4816000846001612041565b6119dd82610c8d565b90506004600083815260200190815260200160002060006101000a81549073ffffffffffffffffffffffffffffffffffffffff02191690556001600360008373ffffffffffffffffffffffffffffffffffffffff1673ffffffffffffffffffffffffffffffffffffffff168152602001908152602001600020600082825403925050819055506002600083815260200190815260200160002060006101000a81549073ffffffffffffffffffffffffffffffffffffffff021916905581600073ffffffffffffffffffffffffffffffffffffffff168273ffffffffffffffffffffffffffffffffffffffff167fddf252ad1be2c89b69c2b068fc378daa952ba7f163c4a11628f55a4df523b3ef60405160405180910390a4611b03816000846001612053565b5050565b60008073ffffffffffffffffffffffffffffffffffffffff16611b2983611bc6565b73ffffffffffffffffffffffffffffffffffffffff1614159050919050565b611b506114f3565b73ffffffffffffffffffffffffffffffffffffffff16611b6e610f27565b73ffffffffffffffffffffffffffffffffffffffff1614611bc4576040517f08c379a0000000000000000000000000000000000000000000000000000000008152600401611bbb90613ec4565b60405180910390fd5b565b60006002600083815260200190815260200160002060009054906101000a900473ffffffffffffffffffffffffffffffffffffffff169050919050565b6000600a60009054906101000a900473ffffffffffffffffffffffffffffffffffffffff16905081600a60006101000a81548173ffffffffffffffffffffffffffffffffffffffff021916908373ffffffffffffffffffffffffffffffffffffffff1602179055508173ffffffffffffffffffffffffffffffffffffffff168173ffffffffffffffffffffffffffffffffffffffff167f8be0079c531659141344cd1fd0a4f28419497f9722a3daafe3b4186f6b6457e060405160405180910390a35050565b8173ffffffffffffffffffffffffffffffffffffffff168373ffffffffffffffffffffffffffffffffffffffff1603611d37576040517f08c379a0000000000000000000000000000000000000000000000000000000008152600401611d2e90613f30565b60405180910390fd5b80600560008573ffffffffffffffffffffffffffffffffffffffff1673ffffffffffffffffffffffffffffffffffffffff16815260200190815260200160002060008473ffffffffffffffffffffffffffffffffffffffff1673ffffffffffffffffffffffffffffffffffffffff16815260200190815260200160002060006101000a81548160ff0219169083151502179055508173ffffffffffffffffffffffffffffffffffffffff168373ffffffffffffffffffffffffffffffffffffffff167f17307eab39ab6107e8899845ad3d59bd9653f200f220920489ca2b5937696c3183604051611e289190612b56565b60405180910390a3505050565b611e40848484611649565b611e4c848484846120b4565b611e8b576040517f08c379a0000000000000000000000000000000000000000000000000000000008152600401611e8290613fc2565b60405180910390fd5b50505050565b606060006001611ea08461223b565b01905060008167ffffffffffffffff811115611ebf57611ebe612f99565b5b6040519080825280601f01601f191660200182016040528015611ef15781602001600182028036833780820191505090505b509050600082602001820190505b600115611f54578080600190039150507f3031323334353637383961626364656600000000000000000000000000000000600a86061a8153600a8581611f4857611f47613fe2565b5b04945060008503611eff575b819350505050919050565b60007f80ac58cd000000000000000000000000000000000000000000000000000000007bffffffffffffffffffffffffffffffffffffffffffffffffffffffff1916827bffffffffffffffffffffffffffffffffffffffffffffffffffffffff1916148061202a57507f5b5e139f000000000000000000000000000000000000000000000000000000007bffffffffffffffffffffffffffffffffffffffffffffffffffffffff1916827bffffffffffffffffffffffffffffffffffffffffffffffffffffffff1916145b8061203a57506120398261238e565b5b9050919050565b61204d848484846123f8565b50505050565b50505050565b6120638383612556565b61207060008484846120b4565b6120af576040517f08c379a00000000000000000000000000000000000000000000000000000000081526004016120a690613fc2565b60405180910390fd5b505050565b60006120d58473ffffffffffffffffffffffffffffffffffffffff16612773565b1561222e578373ffffffffffffffffffffffffffffffffffffffff1663150b7a026120fe6114f3565b8786866040518563ffffffff1660e01b81526004016121209493929190614066565b6020604051808303816000875af192505050801561215c57506040513d601f19601f8201168201806040525081019061215991906140c7565b60015b6121de573d806000811461218c576040519150601f19603f3d011682016040523d82523d6000602084013e612191565b606091505b5060008151036121d6576040517f08c379a00000000000000000000000000000000000000000000000000000000081526004016121cd90613fc2565b60405180910390fd5b805181602001fd5b63150b7a0260e01b7bffffffffffffffffffffffffffffffffffffffffffffffffffffffff1916817bffffffffffffffffffffffffffffffffffffffffffffffffffffffff191614915050612233565b600190505b949350505050565b600080600090507a184f03e93ff9f4daa797ed6e38ed64bf6a1f0100000000000000008310612299577a184f03e93ff9f4daa797ed6e38ed64bf6a1f010000000000000000838161228f5761228e613fe2565b5b0492506040810190505b6d04ee2d6d415b85acef810000000083106122d6576d04ee2d6d415b85acef810000000083816122cc576122cb613fe2565b5b0492506020810190505b662386f26fc10000831061230557662386f26fc1000083816122fb576122fa613fe2565b5b0492506010810190505b6305f5e100831061232e576305f5e100838161232457612323613fe2565b5b0492506008810190505b612710831061235357612710838161234957612348613fe2565b5b0492506004810190505b60648310612376576064838161236c5761236b613fe2565b5b0492506002810190505b600a8310612385576001810190505b80915050919050565b60007f01ffc9a7000000000000000000000000000000000000000000000000000000007bffffffffffffffffffffffffffffffffffffffffffffffffffffffff1916827bffffffffffffffffffffffffffffffffffffffffffffffffffffffff1916149050919050565b61240484848484612796565b6001811115612448576040517f08c379a000000000000000000000000000000000000000000000000000000000815260040161243f90614166565b60405180910390fd5b6000829050600073ffffffffffffffffffffffffffffffffffffffff168573ffffffffffffffffffffffffffffffffffffffff160361248f5761248a8161279c565b6124ce565b8373ffffffffffffffffffffffffffffffffffffffff168573ffffffffffffffffffffffffffffffffffffffff16146124cd576124cc85826127e5565b5b5b600073ffffffffffffffffffffffffffffffffffffffff168473ffffffffffffffffffffffffffffffffffffffff16036125105761250b81612952565b61254f565b8473ffffffffffffffffffffffffffffffffffffffff168473ffffffffffffffffffffffffffffffffffffffff161461254e5761254d8482612a23565b5b5b5050505050565b600073ffffffffffffffffffffffffffffffffffffffff168273ffffffffffffffffffffffffffffffffffffffff16036125c5576040517f08c379a00000000000000000000000000000000000000000000000000000000081526004016125bc906141d2565b60405180910390fd5b6125ce81611b07565b1561260e576040517f08c379a00000000000000000000000000000000000000000000000000000000081526004016126059061423e565b60405180910390fd5b61261c600083836001612041565b61262581611b07565b15612665576040517f08c379a000000000000000000000000000000000000000000000000000000000815260040161265c9061423e565b60405180910390fd5b6001600360008473ffffffffffffffffffffffffffffffffffffffff1673ffffffffffffffffffffffffffffffffffffffff16815260200190815260200160002060008282540192505081905550816002600083815260200190815260200160002060006101000a81548173ffffffffffffffffffffffffffffffffffffffff021916908373ffffffffffffffffffffffffffffffffffffffff160217905550808273ffffffffffffffffffffffffffffffffffffffff16600073ffffffffffffffffffffffffffffffffffffffff167fddf252ad1be2c89b69c2b068fc378daa952ba7f163c4a11628f55a4df523b3ef60405160405180910390a461276f600083836001612053565b5050565b6000808273ffffffffffffffffffffffffffffffffffffffff163b119050919050565b50505050565b6008805490506009600083815260200190815260200160002081905550600881908060018154018082558091505060019003906000526020600020016000909190919091505550565b600060016127f284610d13565b6127fc919061425e565b90506000600760008481526020019081526020016000205490508181146128e1576000600660008673ffffffffffffffffffffffffffffffffffffffff1673ffffffffffffffffffffffffffffffffffffffff168152602001908152602001600020600084815260200190815260200160002054905080600660008773ffffffffffffffffffffffffffffffffffffffff1673ffffffffffffffffffffffffffffffffffffffff168152602001908152602001600020600084815260200190815260200160002081905550816007600083815260200190815260200160002081905550505b6007600084815260200190815260200160002060009055600660008573ffffffffffffffffffffffffffffffffffffffff1673ffffffffffffffffffffffffffffffffffffffff16815260200190815260200160002060008381526020019081526020016000206000905550505050565b60006001600880549050612966919061425e565b9050600060096000848152602001908152602001600020549050600060088381548110612996576129956135cd565b5b9060005260206000200154905080600883815481106129b8576129b76135cd565b5b906000526020600020018190555081600960008381526020019081526020016000208190555060096000858152602001908152602001600020600090556008805480612a0757612a06614292565b5b6001900381819060005260206000200160009055905550505050565b6000612a2e83610d13565b905081600660008573ffffffffffffffffffffffffffffffffffffffff1673ffffffffffffffffffffffffffffffffffffffff168152602001908152602001600020600083815260200190815260200160002081905550806007600084815260200190815260200160002081905550505050565b6000604051905090565b600080fd5b600080fd5b60007fffffffff0000000000000000000000000000000000000000000000000000000082169050919050565b612aeb81612ab6565b8114612af657600080fd5b50565b600081359050612b0881612ae2565b92915050565b600060208284031215612b2457612b23612aac565b5b6000612b3284828501612af9565b91505092915050565b60008115159050919050565b612b5081612b3b565b82525050565b6000602082019050612b6b6000830184612b47565b92915050565b600081519050919050565b600082825260208201905092915050565b60005b83811015612bab578082015181840152602081019050612b90565b60008484015250505050565b6000601f19601f8301169050919050565b6000612bd382612b71565b612bdd8185612b7c565b9350612bed818560208601612b8d565b612bf681612bb7565b840191505092915050565b60006020820190508181036000830152612c1b8184612bc8565b905092915050565b6000819050919050565b612c3681612c23565b8114612c4157600080fd5b50565b600081359050612c5381612c2d565b92915050565b600060208284031215612c6f57612c6e612aac565b5b6000612c7d84828501612c44565b91505092915050565b600073ffffffffffffffffffffffffffffffffffffffff82169050919050565b6000612cb182612c86565b9050919050565b612cc181612ca6565b82525050565b6000602082019050612cdc6000830184612cb8565b92915050565b612ceb81612ca6565b8114612cf657600080fd5b50565b600081359050612d0881612ce2565b92915050565b60008060408385031215612d2557612d24612aac565b5b6000612d3385828601612cf9565b9250506020612d4485828601612c44565b9150509250929050565b612d5781612c23565b82525050565b6000602082019050612d726000830184612d4e565b92915050565b600080600060608486031215612d9157612d90612aac565b5b6000612d9f86828701612cf9565b9350506020612db086828701612cf9565b9250506040612dc186828701612c44565b9150509250925092565b600080fd5b600080fd5b600080fd5b60008083601f840112612df057612def612dcb565b5b8235905067ffffffffffffffff811115612e0d57612e0c612dd0565b5b602083019150836001820283011115612e2957612e28612dd5565b5b9250929050565b60008060208385031215612e4757612e46612aac565b5b600083013567ffffffffffffffff811115612e6557612e64612ab1565b5b612e7185828601612dda565b92509250509250929050565b600060208284031215612e9357612e92612aac565b5b6000612ea184828501612cf9565b91505092915050565b6000612eb582612ca6565b9050919050565b612ec581612eaa565b8114612ed057600080fd5b50565b600081359050612ee281612ebc565b92915050565b60008060408385031215612eff57612efe612aac565b5b6000612f0d85828601612ed3565b9250506020612f1e85828601612c44565b9150509250929050565b612f3181612b3b565b8114612f3c57600080fd5b50565b600081359050612f4e81612f28565b92915050565b60008060408385031215612f6b57612f6a612aac565b5b6000612f7985828601612cf9565b9250506020612f8a85828601612f3f565b9150509250929050565b600080fd5b7f4e487b7100000000000000000000000000000000000000000000000000000000600052604160045260246000fd5b612fd182612bb7565b810181811067ffffffffffffffff82111715612ff057612fef612f99565b5b80604052505050565b6000613003612aa2565b905061300f8282612fc8565b919050565b600067ffffffffffffffff82111561302f5761302e612f99565b5b61303882612bb7565b9050602081019050919050565b82818337600083830152505050565b600061306761306284613014565b612ff9565b90508281526020810184848401111561308357613082612f94565b5b61308e848285613045565b509392505050565b600082601f8301126130ab576130aa612dcb565b5b81356130bb848260208601613054565b91505092915050565b600080600080608085870312156130de576130dd612aac565b5b60006130ec87828801612cf9565b94505060206130fd87828801612cf9565b935050604061310e87828801612c44565b925050606085013567ffffffffffffffff81111561312f5761312e612ab1565b5b61313b87828801613096565b91505092959194509250565b6000806040838503121561315e5761315d612aac565b5b600061316c85828601612cf9565b925050602061317d85828601612cf9565b9150509250929050565b7f4e487b7100000000000000000000000000000000000000000000000000000000600052602260045260246000fd5b600060028204905060018216806131ce57607f821691505b6020821081036131e1576131e0613187565b5b50919050565b7f4552433732313a20617070726f76616c20746f2063757272656e74206f776e6560008201527f7200000000000000000000000000000000000000000000000000000000000000602082015250565b6000613243602183612b7c565b915061324e826131e7565b604082019050919050565b6000602082019050818103600083015261327281613236565b9050919050565b7f4552433732313a20617070726f76652063616c6c6572206973206e6f7420746f60008201527f6b656e206f776e6572206f7220617070726f76656420666f7220616c6c000000602082015250565b60006132d5603d83612b7c565b91506132e082613279565b604082019050919050565b60006020820190508181036000830152613304816132c8565b9050919050565b7f4552433732313a2063616c6c6572206973206e6f7420746f6b656e206f776e6560008201527f72206f7220617070726f76656400000000000000000000000000000000000000602082015250565b6000613367602d83612b7c565b91506133728261330b565b604082019050919050565b600060208201905081810360008301526133968161335a565b9050919050565b7f455243373231456e756d657261626c653a206f776e657220696e646578206f7560008201527f74206f6620626f756e6473000000000000000000000000000000000000000000602082015250565b60006133f9602b83612b7c565b91506134048261339d565b604082019050919050565b60006020820190508181036000830152613428816133ec565b9050919050565b7f4d696e7465722061646472657373206973206e6f742076616c69640000000000600082015250565b6000613465601b83612b7c565b91506134708261342f565b602082019050919050565b6000602082019050818103600083015261349481613458565b9050919050565b7f4e487b7100000000000000000000000000000000000000000000000000000000600052601160045260246000fd5b60006134d582612c23565b91507fffffffffffffffffffffffffffffffffffffffffffffffffffffffffffffffff82036135075761350661349b565b5b600182019050919050565b60006040820190506135276000830185612cb8565b6135346020830184612d4e565b9392505050565b7f455243373231456e756d657261626c653a20676c6f62616c20696e646578206f60008201527f7574206f6620626f756e64730000000000000000000000000000000000000000602082015250565b6000613597602c83612b7c565b91506135a28261353b565b604082019050919050565b600060208201905081810360008301526135c68161358a565b9050919050565b7f4e487b7100000000000000000000000000000000000000000000000000000000600052603260045260246000fd5b600082905092915050565b60008190508160005260206000209050919050565b60006020601f8301049050919050565b600082821b905092915050565b6000600883026136697fffffffffffffffffffffffffffffffffffffffffffffffffffffffffffffffff8261362c565b613673868361362c565b95508019841693508086168417925050509392505050565b6000819050919050565b60006136b06136ab6136a684612c23565b61368b565b612c23565b9050919050565b6000819050919050565b6136ca83613695565b6136de6136d6826136b7565b848454613639565b825550505050565b600090565b6136f36136e6565b6136fe8184846136c1565b505050565b5b81811015613722576137176000826136eb565b600181019050613704565b5050565b601f8211156137675761373881613607565b6137418461361c565b81016020851015613750578190505b61376461375c8561361c565b830182613703565b50505b505050565b600082821c905092915050565b600061378a6000198460080261376c565b1980831691505092915050565b60006137a38383613779565b9150826002028217905092915050565b6137bd83836135fc565b67ffffffffffffffff8111156137d6576137d5612f99565b5b6137e082546131b6565b6137eb828285613726565b6000601f83116001811461381a5760008415613808578287013590505b6138128582613797565b86555061387a565b601f19841661382886613607565b60005b828110156138505784890135825560018201915060208501945060208101905061382b565b8683101561386d5784890135613869601f891682613779565b8355505b6001600288020188555050505b50505050505050565b7f4552433732313a20696e76616c696420746f6b656e2049440000000000000000600082015250565b60006138b9601883612b7c565b91506138c482613883565b602082019050919050565b600060208201905081810360008301526138e8816138ac565b9050919050565b7f4552433732313a2061646472657373207a65726f206973206e6f74206120766160008201527f6c6964206f776e65720000000000000000000000000000000000000000000000602082015250565b600061394b602983612b7c565b9150613956826138ef565b604082019050919050565b6000602082019050818103600083015261397a8161393e565b9050919050565b600081905092915050565b50565b600061399c600083613981565b91506139a78261398c565b600082019050919050565b60006139bd8261398f565b9150819050919050565b7f776974686472617720776173206e6f742073756363657366756c6c0000000000600082015250565b60006139fd601b83612b7c565b9150613a08826139c7565b602082019050919050565b60006020820190508181036000830152613a2c816139f0565b9050919050565b600081519050613a4281612f28565b92915050565b600060208284031215613a5e57613a5d612aac565b5b6000613a6c84828501613a33565b91505092915050565b7f4552433732314d657461646174613a2055524920717565727920666f72206e6f60008201527f6e6578697374656e7420746f6b656e0000000000000000000000000000000000602082015250565b6000613ad1602f83612b7c565b9150613adc82613a75565b604082019050919050565b60006020820190508181036000830152613b0081613ac4565b9050919050565b600081905092915050565b60008154613b1f816131b6565b613b298186613b07565b94506001821660008114613b445760018114613b5957613b8c565b60ff1983168652811515820286019350613b8c565b613b6285613607565b60005b83811015613b8457815481890152600182019150602081019050613b65565b838801955050505b50505092915050565b6000613ba082612b71565b613baa8185613b07565b9350613bba818560208601612b8d565b80840191505092915050565b6000613bd28285613b12565b9150613bde8284613b95565b91508190509392505050565b7f4f776e61626c653a206e6577206f776e657220697320746865207a65726f206160008201527f6464726573730000000000000000000000000000000000000000000000000000602082015250565b6000613c46602683612b7c565b9150613c5182613bea565b604082019050919050565b60006020820190508181036000830152613c7581613c39565b9050919050565b7f496e76616c6964206d696e746572206164647265737300000000000000000000600082015250565b6000613cb2601683612b7c565b9150613cbd82613c7c565b602082019050919050565b60006020820190508181036000830152613ce181613ca5565b9050919050565b7f4552433732313a207472616e736665722066726f6d20696e636f72726563742060008201527f6f776e6572000000000000000000000000000000000000000000000000000000602082015250565b6000613d44602583612b7c565b9150613d4f82613ce8565b604082019050919050565b60006020820190508181036000830152613d7381613d37565b9050919050565b7f4552433732313a207472616e7366657220746f20746865207a65726f2061646460008201527f7265737300000000000000000000000000000000000000000000000000000000602082015250565b6000613dd6602483612b7c565b9150613de182613d7a565b604082019050919050565b60006020820190508181036000830152613e0581613dc9565b9050919050565b7f5265656e7472616e637947756172643a207265656e7472616e742063616c6c00600082015250565b6000613e42601f83612b7c565b9150613e4d82613e0c565b602082019050919050565b60006020820190508181036000830152613e7181613e35565b9050919050565b7f4f776e61626c653a2063616c6c6572206973206e6f7420746865206f776e6572600082015250565b6000613eae602083612b7c565b9150613eb982613e78565b602082019050919050565b60006020820190508181036000830152613edd81613ea1565b9050919050565b7f4552433732313a20617070726f766520746f2063616c6c657200000000000000600082015250565b6000613f1a601983612b7c565b9150613f2582613ee4565b602082019050919050565b60006020820190508181036000830152613f4981613f0d565b9050919050565b7f4552433732313a207472616e7366657220746f206e6f6e20455243373231526560008201527f63656976657220696d706c656d656e7465720000000000000000000000000000602082015250565b6000613fac603283612b7c565b9150613fb782613f50565b604082019050919050565b60006020820190508181036000830152613fdb81613f9f565b9050919050565b7f4e487b7100000000000000000000000000000000000000000000000000000000600052601260045260246000fd5b600081519050919050565b600082825260208201905092915050565b600061403882614011565b614042818561401c565b9350614052818560208601612b8d565b61405b81612bb7565b840191505092915050565b600060808201905061407b6000830187612cb8565b6140886020830186612cb8565b6140956040830185612d4e565b81810360608301526140a7818461402d565b905095945050505050565b6000815190506140c181612ae2565b92915050565b6000602082840312156140dd576140dc612aac565b5b60006140eb848285016140b2565b91505092915050565b7f455243373231456e756d657261626c653a20636f6e736563757469766520747260008201527f616e7366657273206e6f7420737570706f727465640000000000000000000000602082015250565b6000614150603583612b7c565b915061415b826140f4565b604082019050919050565b6000602082019050818103600083015261417f81614143565b9050919050565b7f4552433732313a206d696e7420746f20746865207a65726f2061646472657373600082015250565b60006141bc602083612b7c565b91506141c782614186565b602082019050919050565b600060208201905081810360008301526141eb816141af565b9050919050565b7f4552433732313a20746f6b656e20616c7265616479206d696e74656400000000600082015250565b6000614228601c83612b7c565b9150614233826141f2565b602082019050919050565b600060208201905081810360008301526142578161421b565b9050919050565b600061426982612c23565b915061427483612c23565b925082820390508181111561428c5761428b61349b565b5b92915050565b7f4e487b7100000000000000000000000000000000000000000000000000000000600052603160045260246000fdfea264697066735822122008d19a5b717df58f5826905aeef9bafc1294bf701e355a8b648e34450412543264736f6c63430008120033",
  "linkReferences": {},
  "deployedLinkReferences": {}
}