{
  "_format": "hh-sol-artifact-1",
  "contractName": "RuniverseItem",
  "sourceName": "contracts/RuniverseItem.sol",
  "abi": [
    {
      "inputs": [
        {
          "internalType": "string",
          "name": "_baseURI",
          "type": "string"
        }
      ],
      "stateMutability": "nonpayable",
      "type": "constructor"
    },
    {
      "inputs": [],
      "name": "Address0Error",
      "type": "error"
    },
    {
      "anonymous": false,
      "inputs": [
        {
          "indexed": true,
          "internalType": "address",
          "name": "owner",
          "type": "address"
        },
        {
          "indexed": true,
          "internalType": "address",
          "name": "approved",
          "type": "address"
        },
        {
          "indexed": true,
          "internalType": "uint256",
          "name": "tokenId",
          "type": "uint256"
        }
      ],
      "name": "Approval",
      "type": "event"
    },
    {
      "anonymous": false,
      "inputs": [
        {
          "indexed": true,
          "internalType": "address",
          "name": "owner",
          "type": "address"
        },
        {
          "indexed": true,
          "internalType": "address",
          "name": "operator",
          "type": "address"
        },
        {
          "indexed": false,
          "internalType": "bool",
          "name": "approved",
          "type": "bool"
        }
      ],
      "name": "ApprovalForAll",
      "type": "event"
    },
    {
      "anonymous": false,
      "inputs": [
        {
          "indexed": true,
          "internalType": "uint256",
          "name": "_tokenId",
          "type": "uint256"
        },
        {
          "indexed": true,
          "internalType": "uint256",
          "name": "_nonce",
          "type": "uint256"
        }
      ],
      "name": "NonceUpdated",
      "type": "event"
    },
    {
      "anonymous": false,
      "inputs": [
        {
          "indexed": true,
          "internalType": "address",
          "name": "previousOwner",
          "type": "address"
        },
        {
          "indexed": true,
          "internalType": "address",
          "name": "newOwner",
          "type": "address"
        }
      ],
      "name": "OwnershipTransferred",
      "type": "event"
    },
    {
      "anonymous": false,
      "inputs": [
        {
          "indexed": false,
          "internalType": "address",
          "name": "account",
          "type": "address"
        }
      ],
      "name": "Paused",
      "type": "event"
    },
    {
      "anonymous": false,
      "inputs": [
        {
          "indexed": true,
          "internalType": "bytes32",
          "name": "role",
          "type": "bytes32"
        },
        {
          "indexed": true,
          "internalType": "bytes32",
          "name": "previousAdminRole",
          "type": "bytes32"
        },
        {
          "indexed": true,
          "internalType": "bytes32",
          "name": "newAdminRole",
          "type": "bytes32"
        }
      ],
      "name": "RoleAdminChanged",
      "type": "event"
    },
    {
      "anonymous": false,
      "inputs": [
        {
          "indexed": true,
          "internalType": "bytes32",
          "name": "role",
          "type": "bytes32"
        },
        {
          "indexed": true,
          "internalType": "address",
          "name": "account",
          "type": "address"
        },
        {
          "indexed": true,
          "internalType": "address",
          "name": "sender",
          "type": "address"
        }
      ],
      "name": "RoleGranted",
      "type": "event"
    },
    {
      "anonymous": false,
      "inputs": [
        {
          "indexed": true,
          "internalType": "bytes32",
          "name": "role",
          "type": "bytes32"
        },
        {
          "indexed": true,
          "internalType": "address",
          "name": "account",
          "type": "address"
        },
        {
          "indexed": true,
          "internalType": "address",
          "name": "sender",
          "type": "address"
        }
      ],
      "name": "RoleRevoked",
      "type": "event"
    },
    {
      "anonymous": false,
      "inputs": [
        {
          "indexed": false,
          "internalType": "address",
          "name": "to",
          "type": "address"
        },
        {
          "indexed": false,
          "internalType": "uint256",
          "name": "tokenId",
          "type": "uint256"
        }
      ],
      "name": "RuniverseItemMinted",
      "type": "event"
    },
    {
      "anonymous": false,
      "inputs": [
        {
          "indexed": true,
          "internalType": "address",
          "name": "from",
          "type": "address"
        },
        {
          "indexed": true,
          "internalType": "address",
          "name": "to",
          "type": "address"
        },
        {
          "indexed": true,
          "internalType": "uint256",
          "name": "tokenId",
          "type": "uint256"
        }
      ],
      "name": "Transfer",
      "type": "event"
    },
    {
      "anonymous": false,
      "inputs": [
        {
          "indexed": false,
          "internalType": "address",
          "name": "account",
          "type": "address"
        }
      ],
      "name": "Unpaused",
      "type": "event"
    },
    {
      "inputs": [],
      "name": "DEFAULT_ADMIN_ROLE",
      "outputs": [
        {
          "internalType": "bytes32",
          "name": "",
          "type": "bytes32"
        }
      ],
      "stateMutability": "view",
      "type": "function"
    },
    {
      "inputs": [],
      "name": "MINTER_ROLE",
      "outputs": [
        {
          "internalType": "bytes32",
          "name": "",
          "type": "bytes32"
        }
      ],
      "stateMutability": "view",
      "type": "function"
    },
    {
      "inputs": [],
      "name": "PAUSER_ROLE",
      "outputs": [
        {
          "internalType": "bytes32",
          "name": "",
          "type": "bytes32"
        }
      ],
      "stateMutability": "view",
      "type": "function"
    },
    {
      "inputs": [
        {
          "internalType": "address",
          "name": "to",
          "type": "address"
        },
        {
          "internalType": "uint256",
          "name": "tokenId",
          "type": "uint256"
        }
      ],
      "name": "approve",
      "outputs": [],
      "stateMutability": "nonpayable",
      "type": "function"
    },
    {
      "inputs": [
        {
          "internalType": "address",
          "name": "owner",
          "type": "address"
        }
      ],
      "name": "balanceOf",
      "outputs": [
        {
          "internalType": "uint256",
          "name": "",
          "type": "uint256"
        }
      ],
      "stateMutability": "view",
      "type": "function"
    },
    {
      "inputs": [],
      "name": "baseTokenURI",
      "outputs": [
        {
          "internalType": "string",
          "name": "",
          "type": "string"
        }
      ],
      "stateMutability": "view",
      "type": "function"
    },
    {
      "inputs": [
        {
          "internalType": "address[]",
          "name": "_recipients",
          "type": "address[]"
        }
      ],
      "name": "bulkMint",
      "outputs": [
        {
          "internalType": "uint256[]",
          "name": "_tokenIds",
          "type": "uint256[]"
        }
      ],
      "stateMutability": "nonpayable",
      "type": "function"
    },
    {
      "inputs": [
        {
          "internalType": "uint256",
          "name": "tokenId",
          "type": "uint256"
        }
      ],
      "name": "burn",
      "outputs": [],
      "stateMutability": "nonpayable",
      "type": "function"
    },
    {
      "inputs": [
        {
          "internalType": "uint256",
          "name": "tokenId",
          "type": "uint256"
        }
      ],
      "name": "exists",
      "outputs": [
        {
          "internalType": "bool",
          "name": "",
          "type": "bool"
        }
      ],
      "stateMutability": "view",
      "type": "function"
    },
    {
      "inputs": [
        {
          "internalType": "contract IERC20",
          "name": "token",
          "type": "address"
        },
        {
          "internalType": "uint256",
          "name": "amount",
          "type": "uint256"
        }
      ],
      "name": "forwardERC20s",
      "outputs": [],
      "stateMutability": "nonpayable",
      "type": "function"
    },
    {
      "inputs": [
        {
          "internalType": "uint256",
          "name": "tokenId",
          "type": "uint256"
        }
      ],
      "name": "getApproved",
      "outputs": [
        {
          "internalType": "address",
          "name": "",
          "type": "address"
        }
      ],
      "stateMutability": "view",
      "type": "function"
    },
    {
      "inputs": [],
      "name": "getBaseURI",
      "outputs": [
        {
          "internalType": "string",
          "name": "",
          "type": "string"
        }
      ],
      "stateMutability": "view",
      "type": "function"
    },
    {
      "inputs": [
        {
          "internalType": "bytes32",
          "name": "role",
          "type": "bytes32"
        }
      ],
      "name": "getRoleAdmin",
      "outputs": [
        {
          "internalType": "bytes32",
          "name": "",
          "type": "bytes32"
        }
      ],
      "stateMutability": "view",
      "type": "function"
    },
    {
      "inputs": [
        {
          "internalType": "bytes32",
          "name": "role",
          "type": "bytes32"
        },
        {
          "internalType": "uint256",
          "name": "index",
          "type": "uint256"
        }
      ],
      "name": "getRoleMember",
      "outputs": [
        {
          "internalType": "address",
          "name": "",
          "type": "address"
        }
      ],
      "stateMutability": "view",
      "type": "function"
    },
    {
      "inputs": [
        {
          "internalType": "bytes32",
          "name": "role",
          "type": "bytes32"
        }
      ],
      "name": "getRoleMemberCount",
      "outputs": [
        {
          "internalType": "uint256",
          "name": "",
          "type": "uint256"
        }
      ],
      "stateMutability": "view",
      "type": "function"
    },
    {
      "inputs": [
        {
          "internalType": "address",
          "name": "ownerAddress",
          "type": "address"
        }
      ],
      "name": "getTokens",
      "outputs": [
        {
          "internalType": "uint256[]",
          "name": "",
          "type": "uint256[]"
        }
      ],
      "stateMutability": "view",
      "type": "function"
    },
    {
      "inputs": [
        {
          "internalType": "bytes32",
          "name": "role",
          "type": "bytes32"
        },
        {
          "internalType": "address",
          "name": "account",
          "type": "address"
        }
      ],
      "name": "grantRole",
      "outputs": [],
      "stateMutability": "nonpayable",
      "type": "function"
    },
    {
      "inputs": [
        {
          "internalType": "bytes32",
          "name": "role",
          "type": "bytes32"
        },
        {
          "internalType": "address",
          "name": "account",
          "type": "address"
        }
      ],
      "name": "hasRole",
      "outputs": [
        {
          "internalType": "bool",
          "name": "",
          "type": "bool"
        }
      ],
      "stateMutability": "view",
      "type": "function"
    },
    {
      "inputs": [
        {
          "internalType": "address",
          "name": "owner",
          "type": "address"
        },
        {
          "internalType": "address",
          "name": "operator",
          "type": "address"
        }
      ],
      "name": "isApprovedForAll",
      "outputs": [
        {
          "internalType": "bool",
          "name": "",
          "type": "bool"
        }
      ],
      "stateMutability": "view",
      "type": "function"
    },
    {
      "inputs": [
        {
          "internalType": "uint256",
          "name": "tokenId",
          "type": "uint256"
        }
      ],
      "name": "isItemPaused",
      "outputs": [
        {
          "internalType": "bool",
          "name": "",
          "type": "bool"
        }
      ],
      "stateMutability": "view",
      "type": "function"
    },
    {
      "inputs": [
        {
          "internalType": "address",
          "name": "to",
          "type": "address"
        }
      ],
      "name": "mint",
      "outputs": [
        {
          "internalType": "uint256",
          "name": "_tokenId",
          "type": "uint256"
        }
      ],
      "stateMutability": "nonpayable",
      "type": "function"
    },
    {
      "inputs": [
        {
          "internalType": "address",
          "name": "recipient",
          "type": "address"
        },
        {
          "internalType": "uint256",
          "name": "tokenId",
          "type": "uint256"
        }
      ],
      "name": "mintTokenId",
      "outputs": [],
      "stateMutability": "nonpayable",
      "type": "function"
    },
    {
      "inputs": [],
      "name": "minterAddress",
      "outputs": [
        {
          "internalType": "address",
          "name": "",
          "type": "address"
        }
      ],
      "stateMutability": "view",
      "type": "function"
    },
    {
      "inputs": [],
      "name": "name",
      "outputs": [
        {
          "internalType": "string",
          "name": "",
          "type": "string"
        }
      ],
      "stateMutability": "view",
      "type": "function"
    },
    {
      "inputs": [
        {
          "internalType": "uint256",
          "name": "",
          "type": "uint256"
        }
      ],
      "name": "nonces",
      "outputs": [
        {
          "internalType": "uint256",
          "name": "",
          "type": "uint256"
        }
      ],
      "stateMutability": "view",
      "type": "function"
    },
    {
      "inputs": [],
      "name": "numMinted",
      "outputs": [
        {
          "internalType": "uint256",
          "name": "",
          "type": "uint256"
        }
      ],
      "stateMutability": "view",
      "type": "function"
    },
    {
      "inputs": [],
      "name": "owner",
      "outputs": [
        {
          "internalType": "address",
          "name": "",
          "type": "address"
        }
      ],
      "stateMutability": "view",
      "type": "function"
    },
    {
      "inputs": [
        {
          "internalType": "uint256",
          "name": "tokenId",
          "type": "uint256"
        }
      ],
      "name": "ownerOf",
      "outputs": [
        {
          "internalType": "address",
          "name": "",
          "type": "address"
        }
      ],
      "stateMutability": "view",
      "type": "function"
    },
    {
      "inputs": [],
      "name": "pause",
      "outputs": [],
      "stateMutability": "nonpayable",
      "type": "function"
    },
    {
      "inputs": [],
      "name": "pauseContract",
      "outputs": [],
      "stateMutability": "nonpayable",
      "type": "function"
    },
    {
      "inputs": [
        {
          "internalType": "uint256",
          "name": "tag",
          "type": "uint256"
        },
        {
          "internalType": "bool",
          "name": "paused",
          "type": "bool"
        }
      ],
      "name": "pauseItem",
      "outputs": [],
      "stateMutability": "nonpayable",
      "type": "function"
    },
    {
      "inputs": [
        {
          "internalType": "uint256[]",
          "name": "tags",
          "type": "uint256[]"
        },
        {
          "internalType": "bool[]",
          "name": "paused",
          "type": "bool[]"
        }
      ],
      "name": "pauseItemsBatch",
      "outputs": [],
      "stateMutability": "nonpayable",
      "type": "function"
    },
    {
      "inputs": [],
      "name": "paused",
      "outputs": [
        {
          "internalType": "bool",
          "name": "",
          "type": "bool"
        }
      ],
      "stateMutability": "view",
      "type": "function"
    },
    {
      "inputs": [],
      "name": "renounceOwnership",
      "outputs": [],
      "stateMutability": "nonpayable",
      "type": "function"
    },
    {
      "inputs": [
        {
          "internalType": "bytes32",
          "name": "role",
          "type": "bytes32"
        },
        {
          "internalType": "address",
          "name": "account",
          "type": "address"
        }
      ],
      "name": "renounceRole",
      "outputs": [],
      "stateMutability": "nonpayable",
      "type": "function"
    },
    {
      "inputs": [
        {
          "internalType": "bytes32",
          "name": "role",
          "type": "bytes32"
        },
        {
          "internalType": "address",
          "name": "account",
          "type": "address"
        }
      ],
      "name": "revokeRole",
      "outputs": [],
      "stateMutability": "nonpayable",
      "type": "function"
    },
    {
      "inputs": [
        {
          "internalType": "address",
          "name": "from",
          "type": "address"
        },
        {
          "internalType": "address",
          "name": "to",
          "type": "address"
        },
        {
          "internalType": "uint256",
          "name": "tokenId",
          "type": "uint256"
        }
      ],
      "name": "safeTransferFrom",
      "outputs": [],
      "stateMutability": "nonpayable",
      "type": "function"
    },
    {
      "inputs": [
        {
          "internalType": "address",
          "name": "from",
          "type": "address"
        },
        {
          "internalType": "address",
          "name": "to",
          "type": "address"
        },
        {
          "internalType": "uint256",
          "name": "tokenId",
          "type": "uint256"
        },
        {
          "internalType": "bytes",
          "name": "data",
          "type": "bytes"
        }
      ],
      "name": "safeTransferFrom",
      "outputs": [],
      "stateMutability": "nonpayable",
      "type": "function"
    },
    {
      "inputs": [
        {
          "internalType": "address",
          "name": "operator",
          "type": "address"
        },
        {
          "internalType": "bool",
          "name": "approved",
          "type": "bool"
        }
      ],
      "name": "setApprovalForAll",
      "outputs": [],
      "stateMutability": "nonpayable",
      "type": "function"
    },
    {
      "inputs": [
        {
          "internalType": "string",
          "name": "baseTokenURI",
          "type": "string"
        }
      ],
      "name": "setBaseURI",
      "outputs": [],
      "stateMutability": "nonpayable",
      "type": "function"
    },
    {
      "inputs": [
        {
          "internalType": "address",
          "name": "newMinter",
          "type": "address"
        }
      ],
      "name": "setMinter",
      "outputs": [],
      "stateMutability": "nonpayable",
      "type": "function"
    },
    {
      "inputs": [
        {
          "internalType": "string",
          "name": "newBaseURI",
          "type": "string"
        }
      ],
      "name": "setNewBaseURI",
      "outputs": [],
      "stateMutability": "nonpayable",
      "type": "function"
    },
    {
      "inputs": [
        {
          "internalType": "uint256",
          "name": "_tokenId",
          "type": "uint256"
        }
      ],
      "name": "stateOf",
      "outputs": [
        {
          "internalType": "bytes",
          "name": "",
          "type": "bytes"
        }
      ],
      "stateMutability": "view",
      "type": "function"
    },
    {
      "inputs": [
        {
          "internalType": "bytes4",
          "name": "interfaceId",
          "type": "bytes4"
        }
      ],
      "name": "supportsInterface",
      "outputs": [
        {
          "internalType": "bool",
          "name": "",
          "type": "bool"
        }
      ],
      "stateMutability": "view",
      "type": "function"
    },
    {
      "inputs": [],
      "name": "symbol",
      "outputs": [
        {
          "internalType": "string",
          "name": "",
          "type": "string"
        }
      ],
      "stateMutability": "view",
      "type": "function"
    },
    {
      "inputs": [
        {
          "internalType": "uint256",
          "name": "index",
          "type": "uint256"
        }
      ],
      "name": "tokenByIndex",
      "outputs": [
        {
          "internalType": "uint256",
          "name": "",
          "type": "uint256"
        }
      ],
      "stateMutability": "view",
      "type": "function"
    },
    {
      "inputs": [
        {
          "internalType": "address",
          "name": "owner",
          "type": "address"
        },
        {
          "internalType": "uint256",
          "name": "index",
          "type": "uint256"
        }
      ],
      "name": "tokenOfOwnerByIndex",
      "outputs": [
        {
          "internalType": "uint256",
          "name": "",
          "type": "uint256"
        }
      ],
      "stateMutability": "view",
      "type": "function"
    },
    {
      "inputs": [
        {
          "internalType": "uint256",
          "name": "tokenId",
          "type": "uint256"
        }
      ],
      "name": "tokenURI",
      "outputs": [
        {
          "internalType": "string",
          "name": "",
          "type": "string"
        }
      ],
      "stateMutability": "view",
      "type": "function"
    },
    {
      "inputs": [],
      "name": "totalSupply",
      "outputs": [
        {
          "internalType": "uint256",
          "name": "",
          "type": "uint256"
        }
      ],
      "stateMutability": "view",
      "type": "function"
    },
    {
      "inputs": [
        {
          "internalType": "address",
          "name": "from",
          "type": "address"
        },
        {
          "internalType": "address",
          "name": "to",
          "type": "address"
        },
        {
          "internalType": "uint256",
          "name": "tokenId",
          "type": "uint256"
        }
      ],
      "name": "transferFrom",
      "outputs": [],
      "stateMutability": "nonpayable",
      "type": "function"
    },
    {
      "inputs": [
        {
          "internalType": "address",
          "name": "newOwner",
          "type": "address"
        }
      ],
      "name": "transferOwnership",
      "outputs": [],
      "stateMutability": "nonpayable",
      "type": "function"
    },
    {
      "inputs": [],
      "name": "unpause",
      "outputs": [],
      "stateMutability": "nonpayable",
      "type": "function"
    },
    {
      "inputs": [],
      "name": "unpauseContract",
      "outputs": [],
      "stateMutability": "nonpayable",
      "type": "function"
    },
    {
      "inputs": [],
      "name": "withdrawAll",
      "outputs": [],
      "stateMutability": "payable",
      "type": "function"
    }
  ],
  "bytecode": "0x608060405260006046553480156200001657600080fd5b506040516200436b3803806200436b833981016040819052620000399162000335565b6040518060400160405280600d81526020016c52756e6976657273654974656d60981b815250604051806040016040528060048152602001635249544d60e01b815250828282828282816002908162000093919062000498565b506003620000a2828262000498565b5050603f805460ff19169055506041620000bd828262000498565b50620000cb60003362000180565b620000f77f9f2df0fed2c77648de5860a4cc508cd0818c85b8b8a1ab4ceeef8d981c8956a63362000180565b620001237f65d7a28e3265b37a6474929f336521b332c1681b933f6cb9f3376673440d862a3362000180565b62000132604080546001019055565b505050505050620001526200014c6200017c60201b60201c565b62000190565b6001604355604562000165828262000498565b50604162000174828262000498565b505062000564565b3390565b6200018c8282620001e2565b5050565b604280546001600160a01b038381166001600160a01b0319831681179093556040519116919082907f8be0079c531659141344cd1fd0a4f28419497f9722a3daafe3b4186f6b6457e090600090a35050565b620001ee82826200020d565b6000828152600160205260409020620002089082620002ad565b505050565b6000828152602081815260408083206001600160a01b038516845290915290205460ff166200018c576000828152602081815260408083206001600160a01b03851684529091529020805460ff19166001179055620002693390565b6001600160a01b0316816001600160a01b0316837f2f8788117e7eff1d82e926ec794901d17c78024a50270940304540a733656f0d60405160405180910390a45050565b6000620002c4836001600160a01b038416620002cd565b90505b92915050565b60008181526001830160205260408120546200031657508154600181810184556000848152602080822090930184905584548482528286019093526040902091909155620002c7565b506000620002c7565b634e487b7160e01b600052604160045260246000fd5b600060208083850312156200034957600080fd5b82516001600160401b03808211156200036157600080fd5b818501915085601f8301126200037657600080fd5b8151818111156200038b576200038b6200031f565b604051601f8201601f19908116603f01168101908382118183101715620003b657620003b66200031f565b816040528281528886848701011115620003cf57600080fd5b600093505b82841015620003f35784840186015181850187015292850192620003d4565b600086848301015280965050505050505092915050565b600181811c908216806200041f57607f821691505b6020821081036200044057634e487b7160e01b600052602260045260246000fd5b50919050565b601f8211156200020857600081815260208120601f850160051c810160208610156200046f5750805b601f850160051c820191505b8181101562000490578281556001016200047b565b505050505050565b81516001600160401b03811115620004b457620004b46200031f565b620004cc81620004c584546200040a565b8462000446565b602080601f831160018114620005045760008415620004eb5750858301515b600019600386901b1c1916600185901b17855562000490565b600085815260208120601f198616915b82811015620005355788860151825594840194600190910190840162000514565b5085821015620005545787850151600019600388901b60f8161c191681555b5050505050600190811b01905550565b613df780620005746000396000f3fe6080604052600436106103355760003560e01c80636352211e116101ab578063a22cb465116100f7578063d539139311610095578063e63ab1e91161006f578063e63ab1e914610970578063e985e9c5146109a4578063f2fde38b146109ed578063fca3b5aa14610a0d57600080fd5b8063d539139314610907578063d547741f1461093b578063d547cfb71461095b57600080fd5b8063b88d4fde116100d1578063b88d4fde14610891578063c87b56dd146108b1578063ca15c873146108d1578063d52079b4146108f157600080fd5b8063a22cb4651461083c578063a9af70231461085c578063b33712c51461087c57600080fd5b8063853828b61161016457806391d148541161013e57806391d14854146107d257806395d89b41146107f25780639727151a14610807578063a217fddf1461082757600080fd5b8063853828b61461078c5780638da5cb5b146107945780639010d07c146107b257600080fd5b80636352211e146106ed5780636a6278421461070d57806370a082311461072d578063714c53981461074d578063715018a6146107625780638456cb591461077757600080fd5b806332761d1611610285578063439766ce116102235780634f558e79116101fd5780634f558e79146106755780634f6ccce71461069557806355f804b3146106b55780635c975abb146106d557600080fd5b8063439766ce1461060d578063450efe21146106225780634b82dca01461064257600080fd5b80633771aaa11161025f5780633771aaa11461058b5780633f4ba83a146105b857806342842e0e146105cd57806342966c68146105ed57600080fd5b806332761d161461052b57806334d722c91461054b57806336568abe1461056b57600080fd5b8063141a468c116102f257806323b872dd116102cc57806323b872dd1461049b578063248a9ca3146104bb5780632f2ff15d146104eb5780632f745c591461050b57600080fd5b8063141a468c1461042b57806318160ddd146104665780631cb1ac0b1461047b57600080fd5b806301ffc9a71461033a57806306fdde031461036f578063081812fc14610391578063083ec667146103c9578063095ea7b3146103eb578063131a7e241461040b575b600080fd5b34801561034657600080fd5b5061035a610355366004613340565b610a2d565b60405190151581526020015b60405180910390f35b34801561037b57600080fd5b50610384610a3e565b60405161036691906133ad565b34801561039d57600080fd5b506103b16103ac3660046133c0565b610ad0565b6040516001600160a01b039091168152602001610366565b3480156103d557600080fd5b506103e96103e4366004613424565b610af7565b005b3480156103f757600080fd5b506103e96104063660046134a4565b610bea565b34801561041757600080fd5b506103846104263660046133c0565b610cff565b34801561043757600080fd5b506104586104463660046133c0565b60086020526000908152604090205481565b604051908152602001610366565b34801561047257600080fd5b50603d54610458565b34801561048757600080fd5b506103e96104963660046134d0565b610dc6565b3480156104a757600080fd5b506103e96104b6366004613541565b610de9565b3480156104c757600080fd5b506104586104d63660046133c0565b60009081526020819052604090206001015490565b3480156104f757600080fd5b506103e9610506366004613582565b610e71565b34801561051757600080fd5b506104586105263660046134a4565b610e96565b34801561053757600080fd5b506103e96105463660046134a4565b610f2c565b34801561055757600080fd5b506044546103b1906001600160a01b031681565b34801561057757600080fd5b506103e9610586366004613582565b61104b565b34801561059757600080fd5b506105ab6105a63660046135b2565b6110c5565b60405161036691906135f3565b3480156105c457600080fd5b506103e96111ff565b3480156105d957600080fd5b506103e96105e8366004613541565b6112a7565b3480156105f957600080fd5b506103e96106083660046133c0565b6112c2565b34801561061957600080fd5b506103e96112f5565b34801561062e57600080fd5b506105ab61063d366004613637565b61136b565b34801561064e57600080fd5b5061035a61065d3660046133c0565b60601c60009081526047602052604090205460ff1690565b34801561068157600080fd5b5061035a6106903660046133c0565b6114d2565b3480156106a157600080fd5b506104586106b03660046133c0565b6114dd565b3480156106c157600080fd5b506103e96106d03660046136df565b611570565b3480156106e157600080fd5b50603f5460ff1661035a565b3480156106f957600080fd5b506103b16107083660046133c0565b611587565b34801561071957600080fd5b50610458610728366004613637565b6115e7565b34801561073957600080fd5b50610458610748366004613637565b61168e565b34801561075957600080fd5b50610384611714565b34801561076e57600080fd5b506103e9611723565b34801561078357600080fd5b506103e9611735565b6103e96117d9565b3480156107a057600080fd5b506042546001600160a01b03166103b1565b3480156107be57600080fd5b506103b16107cd366004613727565b611879565b3480156107de57600080fd5b5061035a6107ed366004613582565b611898565b3480156107fe57600080fd5b506103846118c1565b34801561081357600080fd5b506103e96108223660046134a4565b6118d0565b34801561083357600080fd5b50610458600081565b34801561084857600080fd5b506103e9610857366004613757565b611967565b34801561086857600080fd5b506103e9610877366004613785565b611972565b34801561088857600080fd5b506103e961199a565b34801561089d57600080fd5b506103e96108ac3660046137aa565b611a11565b3480156108bd57600080fd5b506103846108cc3660046133c0565b611a49565b3480156108dd57600080fd5b506104586108ec3660046133c0565b611ad4565b3480156108fd57600080fd5b5061045860465481565b34801561091357600080fd5b506104587f9f2df0fed2c77648de5860a4cc508cd0818c85b8b8a1ab4ceeef8d981c8956a681565b34801561094757600080fd5b506103e9610956366004613582565b611aeb565b34801561096757600080fd5b50610384611b10565b34801561097c57600080fd5b506104587f65d7a28e3265b37a6474929f336521b332c1681b933f6cb9f3376673440d862a81565b3480156109b057600080fd5b5061035a6109bf366004613829565b6001600160a01b03918216600090815260076020908152604080832093909416825291909152205460ff1690565b3480156109f957600080fd5b506103e9610a08366004613637565b611b9e565b348015610a1957600080fd5b506103e9610a28366004613637565b611c14565b6000610a3882611c8d565b92915050565b606060028054610a4d90613857565b80601f0160208091040260200160405190810160405280929190818152602001828054610a7990613857565b8015610ac65780601f10610a9b57610100808354040283529160200191610ac6565b820191906000526020600020905b815481529060010190602001808311610aa957829003601f168201915b5050505050905090565b6000610adb82611ccd565b506000908152600660205260409020546001600160a01b031690565b610aff611d1d565b828114610b5e5760405162461bcd60e51b815260206004820152602260248201527f4172726179732073686f756c642068617665207468652073616d65206c656e676044820152610e8d60f31b60648201526084015b60405180910390fd5b60005b83811015610be357828282818110610b7b57610b7b613891565b9050602002016020810190610b9091906138a7565b60476000878785818110610ba657610ba6613891565b90506020020135815260200190815260200160002060006101000a81548160ff02191690831515021790555080610bdc906138da565b9050610b61565b5050505050565b6000610bf582611587565b9050806001600160a01b0316836001600160a01b031603610c625760405162461bcd60e51b815260206004820152602160248201527f4552433732313a20617070726f76616c20746f2063757272656e74206f776e656044820152603960f91b6064820152608401610b55565b336001600160a01b0382161480610c7e5750610c7e81336109bf565b610cf05760405162461bcd60e51b815260206004820152603d60248201527f4552433732313a20617070726f76652063616c6c6572206973206e6f7420746f60448201527f6b656e206f776e6572206f7220617070726f76656420666f7220616c6c0000006064820152608401610b55565b610cfa8383611d77565b505050565b6060610d0a82611de5565b610d695760405162461bcd60e51b815260206004820152602a60248201527f455243373231436f6d6d6f6e3a20717565727920666f72206e6f6e2d657869736044820152693a32b73a103a37b5b2b760b11b6064820152608401610b55565b610d7282611587565b60008381526008602090815260409182902054915160609390931b6bffffffffffffffffffffffff1916908301526034820152605481018390526074015b6040516020818303038152906040529050919050565b610dce611d1d565b6045610ddb828483613941565b506041610cfa828483613941565b60405163025c16e560e51b8152600481018290523090634b82dca090602401602060405180830381865afa158015610e25573d6000803e3d6000fd5b505050506040513d601f19601f82011682018060405250810190610e499190613a00565b15610e665760405162461bcd60e51b8152600401610b5590613a1d565b610cfa838383611e02565b600082815260208190526040902060010154610e8c81611e32565b610cfa8383611e3c565b6000610ea18361168e565b8210610f035760405162461bcd60e51b815260206004820152602b60248201527f455243373231456e756d657261626c653a206f776e657220696e646578206f7560448201526a74206f6620626f756e647360a81b6064820152608401610b55565b506001600160a01b03919091166000908152603b60209081526040808320938352929052205490565b610f34611e5e565b603f5460ff1615610f7b5760405162461bcd60e51b8152602060048201526011602482015270135a5b9d1a5b99c81a5cc81c185d5cd959607a1b6044820152606401610b55565b6044546001600160a01b0316336001600160a01b031614610fde5760405162461bcd60e51b815260206004820152601b60248201527f4d696e7465722061646472657373206973206e6f742076616c696400000000006044820152606401610b55565b604660008154610fed906138da565b90915550604080516001600160a01b0384168152602081018390527f604e0f34ba8d6d3f7f48c01c251c7bf880d71369b217e5b976ca6120cc51710c910160405180910390a161103d8282611eb7565b6110476001604355565b5050565b6001600160a01b03811633146110bb5760405162461bcd60e51b815260206004820152602f60248201527f416363657373436f6e74726f6c3a2063616e206f6e6c792072656e6f756e636560448201526e103937b632b9903337b91039b2b63360891b6064820152608401610b55565b6110478282611ed1565b60607f9f2df0fed2c77648de5860a4cc508cd0818c85b8b8a1ab4ceeef8d981c8956a66110f181611e32565b8261114a5760405162461bcd60e51b815260206004820152602360248201527f455243373231436f6d6d6f6e3a20696e76616c6964206172726179206c656e6760448201526274687360e81b6064820152608401610b55565b826001600160401b0381111561116257611162613654565b60405190808252806020026020018201604052801561118b578160200160208202803683370190505b50915060005b838110156111f7576111c88585838181106111ae576111ae613891565b90506020020160208101906111c39190613637565b611ef3565b8382815181106111da576111da613891565b6020908102919091010152806111ef816138da565b915050611191565b505092915050565b6112297f65d7a28e3265b37a6474929f336521b332c1681b933f6cb9f3376673440d862a33611898565b61129d576040805162461bcd60e51b81526020600482015260248101919091527f4552433732315072657365744d696e7465725061757365724175746f49643a2060448201527f6d75737420686176652070617573657220726f6c6520746f20756e70617573656064820152608401610b55565b6112a5611f1d565b565b610cfa83838360405180602001604052806000815250611a11565b6112cd335b82611f6f565b6112e95760405162461bcd60e51b8152600401610b5590613a45565b6112f281611fee565b50565b6112fd611d1d565b306001600160a01b0316635c975abb6040518163ffffffff1660e01b8152600401602060405180830381865afa15801561133b573d6000803e3d6000fd5b505050506040513d601f19601f8201168201806040525081019061135f9190613a00565b6112a5576112a5612074565b6040516370a0823160e01b81526001600160a01b038216600482015260609060009030906370a0823190602401602060405180830381865afa1580156113b5573d6000803e3d6000fd5b505050506040513d601f19601f820116820180604052508101906113d99190613a92565b90506000816001600160401b038111156113f5576113f5613654565b60405190808252806020026020018201604052801561141e578160200160208202803683370190505b50905060005b828110156114ca57604051632f745c5960e01b81526001600160a01b0386166004820152602481018290523090632f745c5990604401602060405180830381865afa158015611477573d6000803e3d6000fd5b505050506040513d601f19601f8201168201806040525081019061149b9190613a92565b8282815181106114ad576114ad613891565b6020908102919091010152806114c2816138da565b915050611424565b509392505050565b6000610a3882611de5565b60006114e8603d5490565b821061154b5760405162461bcd60e51b815260206004820152602c60248201527f455243373231456e756d657261626c653a20676c6f62616c20696e646578206f60448201526b7574206f6620626f756e647360a01b6064820152608401610b55565b603d828154811061155e5761155e613891565b90600052602060002001549050919050565b600061157b81611e32565b6041610cfa8382613aab565b6000818152600460205260408120546001600160a01b031680610a385760405162461bcd60e51b8152602060048201526018602482015277115490cdcc8c4e881a5b9d985b1a59081d1bdad95b88125160421b6044820152606401610b55565b60006116137f9f2df0fed2c77648de5860a4cc508cd0818c85b8b8a1ab4ceeef8d981c8956a633611898565b6116855760405162461bcd60e51b815260206004820152603d60248201527f4552433732315072657365744d696e7465725061757365724175746f49643a2060448201527f6d7573742068617665206d696e74657220726f6c6520746f206d696e740000006064820152608401610b55565b610a3882611ef3565b60006001600160a01b0382166116f85760405162461bcd60e51b815260206004820152602960248201527f4552433732313a2061646472657373207a65726f206973206e6f7420612076616044820152683634b21037bbb732b960b91b6064820152608401610b55565b506001600160a01b031660009081526005602052604090205490565b606060458054610a4d90613857565b61172b611d1d565b6112a560006120b1565b61175f7f65d7a28e3265b37a6474929f336521b332c1681b933f6cb9f3376673440d862a33611898565b6117d15760405162461bcd60e51b815260206004820152603e60248201527f4552433732315072657365744d696e7465725061757365724175746f49643a2060448201527f6d75737420686176652070617573657220726f6c6520746f20706175736500006064820152608401610b55565b6112a5612074565b6117e1611d1d565b604051600090339047908381818185875af1925050503d8060008114611823576040519150601f19603f3d011682016040523d82523d6000602084013e611828565b606091505b50509050806112f25760405162461bcd60e51b815260206004820152601b60248201527f776974686472617720776173206e6f742073756363657366756c6c00000000006044820152606401610b55565b60008281526001602052604081206118919083612103565b9392505050565b6000918252602082815260408084206001600160a01b0393909316845291905290205460ff1690565b606060038054610a4d90613857565b6118d8611d1d565b336118f6576040516324560b2960e11b815260040160405180910390fd5b60405163a9059cbb60e01b8152336004820152602481018290526001600160a01b0383169063a9059cbb906044016020604051808303816000875af1158015611943573d6000803e3d6000fd5b505050506040513d601f19601f82011682018060405250810190610cfa9190613a00565b61104733838361210f565b61197a611d1d565b600091825260476020526040909120805460ff1916911515919091179055565b6119a2611d1d565b306001600160a01b0316635c975abb6040518163ffffffff1660e01b8152600401602060405180830381865afa1580156119e0573d6000803e3d6000fd5b505050506040513d601f19601f82011682018060405250810190611a049190613a00565b156112a5576112a5611f1d565b611a1b3383611f6f565b611a375760405162461bcd60e51b8152600401610b5590613a45565b611a43848484846121dd565b50505050565b6060611a5482611de5565b611ab85760405162461bcd60e51b815260206004820152602f60248201527f4552433732314d657461646174613a2055524920717565727920666f72206e6f60448201526e3732bc34b9ba32b73a103a37b5b2b760891b6064820152608401610b55565b6045611ac383612210565b604051602001610db0929190613b6a565b6000818152600160205260408120610a38906122a2565b600082815260208190526040902060010154611b0681611e32565b610cfa8383611ed1565b60458054611b1d90613857565b80601f0160208091040260200160405190810160405280929190818152602001828054611b4990613857565b8015611b965780601f10611b6b57610100808354040283529160200191611b96565b820191906000526020600020905b815481529060010190602001808311611b7957829003601f168201915b505050505081565b611ba6611d1d565b6001600160a01b038116611c0b5760405162461bcd60e51b815260206004820152602660248201527f4f776e61626c653a206e6577206f776e657220697320746865207a65726f206160448201526564647265737360d01b6064820152608401610b55565b6112f2816120b1565b611c1c611d1d565b6001600160a01b038116611c6b5760405162461bcd60e51b8152602060048201526016602482015275496e76616c6964206d696e746572206164647265737360501b6044820152606401610b55565b604480546001600160a01b0319166001600160a01b0392909216919091179055565b60006001600160e01b03198216633771aaa160e01b1480611cbe57506001600160e01b031982166304c69f8960e21b145b80610a385750610a38826122ac565b611cd681611de5565b6112f25760405162461bcd60e51b8152602060048201526018602482015277115490cdcc8c4e881a5b9d985b1a59081d1bdad95b88125160421b6044820152606401610b55565b6042546001600160a01b031633146112a55760405162461bcd60e51b815260206004820181905260248201527f4f776e61626c653a2063616c6c6572206973206e6f7420746865206f776e65726044820152606401610b55565b600081815260066020526040902080546001600160a01b0319166001600160a01b0384169081179091558190611dac82611587565b6001600160a01b03167f8c5be1e5ebec7d5bd14f71427d1e84f3dd0314c0f7b2291e5b200ac8c7c3b92560405160405180910390a45050565b6000908152600460205260409020546001600160a01b0316151590565b611e0b336112c7565b611e275760405162461bcd60e51b8152600401610b5590613a45565b610cfa8383836122d1565b6112f28133612359565b611e4682826123b2565b6000828152600160205260409020610cfa9082612436565b600260435403611eb05760405162461bcd60e51b815260206004820152601f60248201527f5265656e7472616e637947756172643a207265656e7472616e742063616c6c006044820152606401610b55565b6002604355565b61104782826040518060200160405280600081525061244b565b611edb828261247e565b6000828152600160205260409020610cfa90826124e3565b6000611efe60405490565b9050611f0a82826124f8565b611f18604080546001019055565b919050565b611f25612673565b603f805460ff191690557f5db9ee0a495bf2e6ff9c91a7834c1ba4fdd244a5e8aa4e537bd38aeae4b073aa335b6040516001600160a01b03909116815260200160405180910390a1565b600080611f7b83611587565b9050806001600160a01b0316846001600160a01b03161480611fc257506001600160a01b0380821660009081526007602090815260408083209388168352929052205460ff165b80611fe65750836001600160a01b0316611fdb84610ad0565b6001600160a01b0316145b949350505050565b60405163025c16e560e51b8152600481018290523090634b82dca090602401602060405180830381865afa15801561202a573d6000803e3d6000fd5b505050506040513d601f19601f8201168201806040525081019061204e9190613a00565b1561206b5760405162461bcd60e51b8152600401610b5590613a1d565b6112f2816126bc565b61207c61275f565b603f805460ff191660011790557f62e78cea01bee320cd4e420270b5ea74000d11b0c9f74754ebdbfc544b05a258611f523390565b604280546001600160a01b038381166001600160a01b0319831681179093556040519116919082907f8be0079c531659141344cd1fd0a4f28419497f9722a3daafe3b4186f6b6457e090600090a35050565b600061189183836127a5565b816001600160a01b0316836001600160a01b0316036121705760405162461bcd60e51b815260206004820152601960248201527f4552433732313a20617070726f766520746f2063616c6c6572000000000000006044820152606401610b55565b6001600160a01b03838116600081815260076020908152604080832094871680845294825291829020805460ff191686151590811790915591519182527f17307eab39ab6107e8899845ad3d59bd9653f200f220920489ca2b5937696c31910160405180910390a3505050565b6121e88484846122d1565b6121f4848484846127cf565b611a435760405162461bcd60e51b8152600401610b5590613bf1565b6060600061221d836128d0565b60010190506000816001600160401b0381111561223c5761223c613654565b6040519080825280601f01601f191660200182016040528015612266576020820181803683370190505b5090508181016020015b600019016f181899199a1a9b1b9c1cb0b131b232b360811b600a86061a8153600a850494508461227057509392505050565b6000610a38825490565b60006001600160e01b0319821663d17f1b2160e01b1480610a385750610a38826129a8565b60405163025c16e560e51b8152600481018290523090634b82dca090602401602060405180830381865afa15801561230d573d6000803e3d6000fd5b505050506040513d601f19601f820116820180604052508101906123319190613a00565b1561234e5760405162461bcd60e51b8152600401610b5590613a1d565b610cfa8383836129cd565b6123638282611898565b6110475761237081612b3e565b61237b836020612b50565b60405160200161238c929190613c43565b60408051601f198184030181529082905262461bcd60e51b8252610b55916004016133ad565b6123bc8282611898565b611047576000828152602081815260408083206001600160a01b03851684529091529020805460ff191660011790556123f23390565b6001600160a01b0316816001600160a01b0316837f2f8788117e7eff1d82e926ec794901d17c78024a50270940304540a733656f0d60405160405180910390a45050565b6000611891836001600160a01b038416612ceb565b61245583836124f8565b61246260008484846127cf565b610cfa5760405162461bcd60e51b8152600401610b5590613bf1565b6124888282611898565b15611047576000828152602081815260408083206001600160a01b0385168085529252808320805460ff1916905551339285917ff6391f5c32d9c69d2a47ea670b442974b53935d1edc7fd64eb21e047a839171b9190a45050565b6000611891836001600160a01b038416612d3a565b6001600160a01b03821661254e5760405162461bcd60e51b815260206004820181905260248201527f4552433732313a206d696e7420746f20746865207a65726f20616464726573736044820152606401610b55565b61255781611de5565b156125a45760405162461bcd60e51b815260206004820152601c60248201527f4552433732313a20746f6b656e20616c7265616479206d696e746564000000006044820152606401610b55565b6125b2600083836001612e2d565b6125bb81611de5565b156126085760405162461bcd60e51b815260206004820152601c60248201527f4552433732313a20746f6b656e20616c7265616479206d696e746564000000006044820152606401610b55565b6001600160a01b038216600081815260056020908152604080832080546001019055848352600490915280822080546001600160a01b0319168417905551839291907fddf252ad1be2c89b69c2b068fc378daa952ba7f163c4a11628f55a4df523b3ef908290a45050565b603f5460ff166112a55760405162461bcd60e51b815260206004820152601460248201527314185d5cd8589b194e881b9bdd081c185d5cd95960621b6044820152606401610b55565b60006126c782611587565b90506126d7816000846001612e2d565b6126e082611587565b600083815260066020908152604080832080546001600160a01b03199081169091556001600160a01b0385168085526005845282852080546000190190558785526004909352818420805490911690555192935084927fddf252ad1be2c89b69c2b068fc378daa952ba7f163c4a11628f55a4df523b3ef908390a45050565b603f5460ff16156112a55760405162461bcd60e51b815260206004820152601060248201526f14185d5cd8589b194e881c185d5cd95960821b6044820152606401610b55565b60008260000182815481106127bc576127bc613891565b9060005260206000200154905092915050565b60006001600160a01b0384163b156128c557604051630a85bd0160e11b81526001600160a01b0385169063150b7a0290612813903390899088908890600401613cb8565b6020604051808303816000875af192505050801561284e575060408051601f3d908101601f1916820190925261284b91810190613cf5565b60015b6128ab573d80801561287c576040519150601f19603f3d011682016040523d82523d6000602084013e612881565b606091505b5080516000036128a35760405162461bcd60e51b8152600401610b5590613bf1565b805181602001fd5b6001600160e01b031916630a85bd0160e11b149050611fe6565b506001949350505050565b60008072184f03e93ff9f4daa797ed6e38ed64bf6a1f0160401b831061290f5772184f03e93ff9f4daa797ed6e38ed64bf6a1f0160401b830492506040015b6d04ee2d6d415b85acef8100000000831061293b576d04ee2d6d415b85acef8100000000830492506020015b662386f26fc10000831061295957662386f26fc10000830492506010015b6305f5e1008310612971576305f5e100830492506008015b612710831061298557612710830492506004015b60648310612997576064830492506002015b600a8310610a385760010192915050565b60006001600160e01b0319821663780e9d6360e01b1480610a385750610a3882612ec5565b826001600160a01b03166129e082611587565b6001600160a01b031614612a065760405162461bcd60e51b8152600401610b5590613d12565b6001600160a01b038216612a685760405162461bcd60e51b8152602060048201526024808201527f4552433732313a207472616e7366657220746f20746865207a65726f206164646044820152637265737360e01b6064820152608401610b55565b612a758383836001612e2d565b826001600160a01b0316612a8882611587565b6001600160a01b031614612aae5760405162461bcd60e51b8152600401610b5590613d12565b600081815260066020908152604080832080546001600160a01b03199081169091556001600160a01b0387811680865260058552838620805460001901905590871680865283862080546001019055868652600490945282852080549092168417909155905184937fddf252ad1be2c89b69c2b068fc378daa952ba7f163c4a11628f55a4df523b3ef91a4505050565b6060610a386001600160a01b03831660145b60606000612b5f836002613d57565b612b6a906002613d6e565b6001600160401b03811115612b8157612b81613654565b6040519080825280601f01601f191660200182016040528015612bab576020820181803683370190505b509050600360fc1b81600081518110612bc657612bc6613891565b60200101906001600160f81b031916908160001a905350600f60fb1b81600181518110612bf557612bf5613891565b60200101906001600160f81b031916908160001a9053506000612c19846002613d57565b612c24906001613d6e565b90505b6001811115612c9c576f181899199a1a9b1b9c1cb0b131b232b360811b85600f1660108110612c5857612c58613891565b1a60f81b828281518110612c6e57612c6e613891565b60200101906001600160f81b031916908160001a90535060049490941c93612c9581613d81565b9050612c27565b5083156118915760405162461bcd60e51b815260206004820181905260248201527f537472696e67733a20686578206c656e67746820696e73756666696369656e746044820152606401610b55565b6000818152600183016020526040812054612d3257508154600181810184556000848152602080822090930184905584548482528286019093526040902091909155610a38565b506000610a38565b60008181526001830160205260408120548015612e23576000612d5e600183613d98565b8554909150600090612d7290600190613d98565b9050818114612dd7576000866000018281548110612d9257612d92613891565b9060005260206000200154905080876000018481548110612db557612db5613891565b6000918252602080832090910192909255918252600188019052604090208390555b8554869080612de857612de8613dab565b600190038181906000526020600020016000905590558560010160008681526020019081526020016000206000905560019350505050610a38565b6000915050610a38565b6001600160a01b03841615612eb95760405163025c16e560e51b8152600481018390523090634b82dca090602401602060405180830381865afa158015612e78573d6000803e3d6000fd5b505050506040513d601f19601f82011682018060405250810190612e9c9190613a00565b15612eb95760405162461bcd60e51b8152600401610b5590613a1d565b611a4384848484612f05565b60006001600160e01b031982166380ac58cd60e01b1480612ef657506001600160e01b03198216635b5e139f60e01b145b80610a385750610a3882612f11565b611a4384848484612f36565b60006001600160e01b03198216635a05180f60e01b1480610a385750610a3882612f42565b611a4384848484612f77565b60006001600160e01b03198216637965db0b60e01b1480610a3857506301ffc9a760e01b6001600160e01b0319831614610a38565b612f8384848484612fea565b603f5460ff1615611a435760405162461bcd60e51b815260206004820152602b60248201527f4552433732315061757361626c653a20746f6b656e207472616e73666572207760448201526a1a1a5b19481c185d5cd95960aa1b6064820152608401610b55565b612ff684848484613123565b60018111156130655760405162461bcd60e51b815260206004820152603560248201527f455243373231456e756d657261626c653a20636f6e7365637574697665207472604482015274185b9cd9995c9cc81b9bdd081cdd5c1c1bdc9d1959605a1b6064820152608401610b55565b816001600160a01b0385166130c1576130bc81603d80546000838152603e60205260408120829055600182018355919091527fece66cfdbd22e3f37d348a3d8e19074452862cd65fd4b9a11f0336d1ac6d1dc30155565b6130e4565b836001600160a01b0316856001600160a01b0316146130e4576130e4858261319a565b6001600160a01b038416613100576130fb81613237565b610be3565b846001600160a01b0316846001600160a01b031614610be357610be384826132e6565b815b61312f8284613d6e565b8110156131945760008181526008602052604081208054909190613152906138da565b918290555060405182907fcc2c68164f9f7f0c063ba98bcf89498c0f3f5e3acc32bf4ab46195ecb489c13b90600090a38061318c816138da565b915050613125565b50611a43565b600060016131a78461168e565b6131b19190613d98565b6000838152603c6020526040902054909150808214613204576001600160a01b0384166000908152603b602090815260408083208584528252808320548484528184208190558352603c90915290208190555b506000918252603c602090815260408084208490556001600160a01b039094168352603b81528383209183525290812055565b603d5460009061324990600190613d98565b6000838152603e6020526040812054603d805493945090928490811061327157613271613891565b9060005260206000200154905080603d838154811061329257613292613891565b6000918252602080832090910192909255828152603e9091526040808220849055858252812055603d8054806132ca576132ca613dab565b6001900381819060005260206000200160009055905550505050565b60006132f18361168e565b6001600160a01b039093166000908152603b602090815260408083208684528252808320859055938252603c9052919091209190915550565b6001600160e01b0319811681146112f257600080fd5b60006020828403121561335257600080fd5b81356118918161332a565b60005b83811015613378578181015183820152602001613360565b50506000910152565b6000815180845261339981602086016020860161335d565b601f01601f19169290920160200192915050565b6020815260006118916020830184613381565b6000602082840312156133d257600080fd5b5035919050565b60008083601f8401126133eb57600080fd5b5081356001600160401b0381111561340257600080fd5b6020830191508360208260051b850101111561341d57600080fd5b9250929050565b6000806000806040858703121561343a57600080fd5b84356001600160401b038082111561345157600080fd5b61345d888389016133d9565b9096509450602087013591508082111561347657600080fd5b50613483878288016133d9565b95989497509550505050565b6001600160a01b03811681146112f257600080fd5b600080604083850312156134b757600080fd5b82356134c28161348f565b946020939093013593505050565b600080602083850312156134e357600080fd5b82356001600160401b03808211156134fa57600080fd5b818501915085601f83011261350e57600080fd5b81358181111561351d57600080fd5b86602082850101111561352f57600080fd5b60209290920196919550909350505050565b60008060006060848603121561355657600080fd5b83356135618161348f565b925060208401356135718161348f565b929592945050506040919091013590565b6000806040838503121561359557600080fd5b8235915060208301356135a78161348f565b809150509250929050565b600080602083850312156135c557600080fd5b82356001600160401b038111156135db57600080fd5b6135e7858286016133d9565b90969095509350505050565b6020808252825182820181905260009190848201906040850190845b8181101561362b5783518352928401929184019160010161360f565b50909695505050505050565b60006020828403121561364957600080fd5b81356118918161348f565b634e487b7160e01b600052604160045260246000fd5b60006001600160401b038084111561368457613684613654565b604051601f8501601f19908116603f011681019082821181831017156136ac576136ac613654565b816040528093508581528686860111156136c557600080fd5b858560208301376000602087830101525050509392505050565b6000602082840312156136f157600080fd5b81356001600160401b0381111561370757600080fd5b8201601f8101841361371857600080fd5b611fe68482356020840161366a565b6000806040838503121561373a57600080fd5b50508035926020909101359150565b80151581146112f257600080fd5b6000806040838503121561376a57600080fd5b82356137758161348f565b915060208301356135a781613749565b6000806040838503121561379857600080fd5b8235915060208301356135a781613749565b600080600080608085870312156137c057600080fd5b84356137cb8161348f565b935060208501356137db8161348f565b92506040850135915060608501356001600160401b038111156137fd57600080fd5b8501601f8101871361380e57600080fd5b61381d8782356020840161366a565b91505092959194509250565b6000806040838503121561383c57600080fd5b82356138478161348f565b915060208301356135a78161348f565b600181811c9082168061386b57607f821691505b60208210810361388b57634e487b7160e01b600052602260045260246000fd5b50919050565b634e487b7160e01b600052603260045260246000fd5b6000602082840312156138b957600080fd5b813561189181613749565b634e487b7160e01b600052601160045260246000fd5b6000600182016138ec576138ec6138c4565b5060010190565b601f821115610cfa57600081815260208120601f850160051c8101602086101561391a5750805b601f850160051c820191505b8181101561393957828155600101613926565b505050505050565b6001600160401b0383111561395857613958613654565b61396c836139668354613857565b836138f3565b6000601f8411600181146139a057600085156139885750838201355b600019600387901b1c1916600186901b178355610be3565b600083815260209020601f19861690835b828110156139d157868501358255602094850194600190920191016139b1565b50868210156139ee5760001960f88860031b161c19848701351681555b505060018560011b0183555050505050565b600060208284031215613a1257600080fd5b815161189181613749565b6020808252600e908201526d125d195b481a5cc81c185d5cd95960921b604082015260600190565b6020808252602d908201527f4552433732313a2063616c6c6572206973206e6f7420746f6b656e206f776e6560408201526c1c881bdc88185c1c1c9bdd9959609a1b606082015260800190565b600060208284031215613aa457600080fd5b5051919050565b81516001600160401b03811115613ac457613ac4613654565b613ad881613ad28454613857565b846138f3565b602080601f831160018114613b0d5760008415613af55750858301515b600019600386901b1c1916600185901b178555613939565b600085815260208120601f198616915b82811015613b3c57888601518255948401946001909101908401613b1d565b5085821015613b5a5787850151600019600388901b60f8161c191681555b5050505050600190811b01905550565b6000808454613b7881613857565b60018281168015613b905760018114613ba557613bd4565b60ff1984168752821515830287019450613bd4565b8860005260208060002060005b85811015613bcb5781548a820152908401908201613bb2565b50505082870194505b505050508351613be881836020880161335d565b01949350505050565b60208082526032908201527f4552433732313a207472616e7366657220746f206e6f6e20455243373231526560408201527131b2b4bb32b91034b6b83632b6b2b73a32b960711b606082015260800190565b7f416363657373436f6e74726f6c3a206163636f756e7420000000000000000000815260008351613c7b81601785016020880161335d565b7001034b99036b4b9b9b4b733903937b6329607d1b6017918401918201528351613cac81602884016020880161335d565b01602801949350505050565b6001600160a01b0385811682528416602082015260408101839052608060608201819052600090613ceb90830184613381565b9695505050505050565b600060208284031215613d0757600080fd5b81516118918161332a565b60208082526025908201527f4552433732313a207472616e736665722066726f6d20696e636f72726563742060408201526437bbb732b960d91b606082015260800190565b8082028115828204841417610a3857610a386138c4565b80820180821115610a3857610a386138c4565b600081613d9057613d906138c4565b506000190190565b81810381811115610a3857610a386138c4565b634e487b7160e01b600052603160045260246000fdfea2646970667358221220bc35ad17a58d522df1049bdd28b48000bd1b3183851e022efcf7daaea5ebb35e64736f6c63430008130033",
  "linkReferences": {},
  "deployedLinkReferences": {}
}