{
  "_format": "hh-sol-artifact-1",
  "contractName": "RuniverseItem",
  "sourceName": "contracts/RuniverseItem.sol",
  "abi": [
    {
      "inputs": [
        {
          "internalType": "string",
          "name": "_baseURI",
          "type": "string"
        }
      ],
      "stateMutability": "nonpayable",
      "type": "constructor"
    },
    {
      "inputs": [],
      "name": "Address0Error",
      "type": "error"
    },
    {
      "anonymous": false,
      "inputs": [
        {
          "indexed": true,
          "internalType": "address",
          "name": "owner",
          "type": "address"
        },
        {
          "indexed": true,
          "internalType": "address",
          "name": "approved",
          "type": "address"
        },
        {
          "indexed": true,
          "internalType": "uint256",
          "name": "tokenId",
          "type": "uint256"
        }
      ],
      "name": "Approval",
      "type": "event"
    },
    {
      "anonymous": false,
      "inputs": [
        {
          "indexed": true,
          "internalType": "address",
          "name": "owner",
          "type": "address"
        },
        {
          "indexed": true,
          "internalType": "address",
          "name": "operator",
          "type": "address"
        },
        {
          "indexed": false,
          "internalType": "bool",
          "name": "approved",
          "type": "bool"
        }
      ],
      "name": "ApprovalForAll",
      "type": "event"
    },
    {
      "anonymous": false,
      "inputs": [
        {
          "indexed": true,
          "internalType": "address",
          "name": "previousOwner",
          "type": "address"
        },
        {
          "indexed": true,
          "internalType": "address",
          "name": "newOwner",
          "type": "address"
        }
      ],
      "name": "OwnershipTransferred",
      "type": "event"
    },
    {
      "anonymous": false,
      "inputs": [
        {
          "indexed": false,
          "internalType": "address",
          "name": "account",
          "type": "address"
        }
      ],
      "name": "Paused",
      "type": "event"
    },
    {
      "anonymous": false,
      "inputs": [
        {
          "indexed": false,
          "internalType": "address",
          "name": "to",
          "type": "address"
        },
        {
          "indexed": false,
          "internalType": "uint256",
          "name": "tokenId",
          "type": "uint256"
        }
      ],
      "name": "RuniverseItemMinted",
      "type": "event"
    },
    {
      "anonymous": false,
      "inputs": [
        {
          "indexed": true,
          "internalType": "address",
          "name": "from",
          "type": "address"
        },
        {
          "indexed": true,
          "internalType": "address",
          "name": "to",
          "type": "address"
        },
        {
          "indexed": true,
          "internalType": "uint256",
          "name": "tokenId",
          "type": "uint256"
        }
      ],
      "name": "Transfer",
      "type": "event"
    },
    {
      "anonymous": false,
      "inputs": [
        {
          "indexed": false,
          "internalType": "address",
          "name": "account",
          "type": "address"
        }
      ],
      "name": "Unpaused",
      "type": "event"
    },
    {
      "inputs": [
        {
          "internalType": "address",
          "name": "to",
          "type": "address"
        },
        {
          "internalType": "uint256",
          "name": "tokenId",
          "type": "uint256"
        }
      ],
      "name": "approve",
      "outputs": [],
      "stateMutability": "nonpayable",
      "type": "function"
    },
    {
      "inputs": [
        {
          "internalType": "address",
          "name": "owner",
          "type": "address"
        }
      ],
      "name": "balanceOf",
      "outputs": [
        {
          "internalType": "uint256",
          "name": "",
          "type": "uint256"
        }
      ],
      "stateMutability": "view",
      "type": "function"
    },
    {
      "inputs": [],
      "name": "baseTokenURI",
      "outputs": [
        {
          "internalType": "string",
          "name": "",
          "type": "string"
        }
      ],
      "stateMutability": "view",
      "type": "function"
    },
    {
      "inputs": [
        {
          "internalType": "uint256",
          "name": "tokenId",
          "type": "uint256"
        }
      ],
      "name": "exists",
      "outputs": [
        {
          "internalType": "bool",
          "name": "",
          "type": "bool"
        }
      ],
      "stateMutability": "view",
      "type": "function"
    },
    {
      "inputs": [
        {
          "internalType": "contract IERC20",
          "name": "token",
          "type": "address"
        },
        {
          "internalType": "uint256",
          "name": "amount",
          "type": "uint256"
        }
      ],
      "name": "forwardERC20s",
      "outputs": [],
      "stateMutability": "nonpayable",
      "type": "function"
    },
    {
      "inputs": [
        {
          "internalType": "uint256",
          "name": "tokenId",
          "type": "uint256"
        }
      ],
      "name": "getApproved",
      "outputs": [
        {
          "internalType": "address",
          "name": "",
          "type": "address"
        }
      ],
      "stateMutability": "view",
      "type": "function"
    },
    {
      "inputs": [],
      "name": "getBaseURI",
      "outputs": [
        {
          "internalType": "string",
          "name": "",
          "type": "string"
        }
      ],
      "stateMutability": "view",
      "type": "function"
    },
    {
      "inputs": [
        {
          "internalType": "address",
          "name": "owner",
          "type": "address"
        },
        {
          "internalType": "address",
          "name": "operator",
          "type": "address"
        }
      ],
      "name": "isApprovedForAll",
      "outputs": [
        {
          "internalType": "bool",
          "name": "",
          "type": "bool"
        }
      ],
      "stateMutability": "view",
      "type": "function"
    },
    {
      "inputs": [
        {
          "internalType": "address",
          "name": "recipient",
          "type": "address"
        },
        {
          "internalType": "uint256",
          "name": "tokenId",
          "type": "uint256"
        }
      ],
      "name": "mintTokenId",
      "outputs": [],
      "stateMutability": "nonpayable",
      "type": "function"
    },
    {
      "inputs": [],
      "name": "minterAddress",
      "outputs": [
        {
          "internalType": "address",
          "name": "",
          "type": "address"
        }
      ],
      "stateMutability": "view",
      "type": "function"
    },
    {
      "inputs": [],
      "name": "name",
      "outputs": [
        {
          "internalType": "string",
          "name": "",
          "type": "string"
        }
      ],
      "stateMutability": "view",
      "type": "function"
    },
    {
      "inputs": [],
      "name": "numMinted",
      "outputs": [
        {
          "internalType": "uint256",
          "name": "",
          "type": "uint256"
        }
      ],
      "stateMutability": "view",
      "type": "function"
    },
    {
      "inputs": [],
      "name": "owner",
      "outputs": [
        {
          "internalType": "address",
          "name": "",
          "type": "address"
        }
      ],
      "stateMutability": "view",
      "type": "function"
    },
    {
      "inputs": [
        {
          "internalType": "uint256",
          "name": "tokenId",
          "type": "uint256"
        }
      ],
      "name": "ownerOf",
      "outputs": [
        {
          "internalType": "address",
          "name": "",
          "type": "address"
        }
      ],
      "stateMutability": "view",
      "type": "function"
    },
    {
      "inputs": [],
      "name": "pauseContract",
      "outputs": [],
      "stateMutability": "nonpayable",
      "type": "function"
    },
    {
      "inputs": [],
      "name": "paused",
      "outputs": [
        {
          "internalType": "bool",
          "name": "",
          "type": "bool"
        }
      ],
      "stateMutability": "view",
      "type": "function"
    },
    {
      "inputs": [],
      "name": "renounceOwnership",
      "outputs": [],
      "stateMutability": "nonpayable",
      "type": "function"
    },
    {
      "inputs": [
        {
          "internalType": "address",
          "name": "from",
          "type": "address"
        },
        {
          "internalType": "address",
          "name": "to",
          "type": "address"
        },
        {
          "internalType": "uint256",
          "name": "tokenId",
          "type": "uint256"
        }
      ],
      "name": "safeTransferFrom",
      "outputs": [],
      "stateMutability": "nonpayable",
      "type": "function"
    },
    {
      "inputs": [
        {
          "internalType": "address",
          "name": "from",
          "type": "address"
        },
        {
          "internalType": "address",
          "name": "to",
          "type": "address"
        },
        {
          "internalType": "uint256",
          "name": "tokenId",
          "type": "uint256"
        },
        {
          "internalType": "bytes",
          "name": "data",
          "type": "bytes"
        }
      ],
      "name": "safeTransferFrom",
      "outputs": [],
      "stateMutability": "nonpayable",
      "type": "function"
    },
    {
      "inputs": [
        {
          "internalType": "address",
          "name": "operator",
          "type": "address"
        },
        {
          "internalType": "bool",
          "name": "approved",
          "type": "bool"
        }
      ],
      "name": "setApprovalForAll",
      "outputs": [],
      "stateMutability": "nonpayable",
      "type": "function"
    },
    {
      "inputs": [
        {
          "internalType": "string",
          "name": "newBaseURI",
          "type": "string"
        }
      ],
      "name": "setBaseURI",
      "outputs": [],
      "stateMutability": "nonpayable",
      "type": "function"
    },
    {
      "inputs": [
        {
          "internalType": "address",
          "name": "newMinter",
          "type": "address"
        }
      ],
      "name": "setMinter",
      "outputs": [],
      "stateMutability": "nonpayable",
      "type": "function"
    },
    {
      "inputs": [
        {
          "internalType": "bytes4",
          "name": "interfaceId",
          "type": "bytes4"
        }
      ],
      "name": "supportsInterface",
      "outputs": [
        {
          "internalType": "bool",
          "name": "",
          "type": "bool"
        }
      ],
      "stateMutability": "view",
      "type": "function"
    },
    {
      "inputs": [],
      "name": "symbol",
      "outputs": [
        {
          "internalType": "string",
          "name": "",
          "type": "string"
        }
      ],
      "stateMutability": "view",
      "type": "function"
    },
    {
      "inputs": [
        {
          "internalType": "uint256",
          "name": "index",
          "type": "uint256"
        }
      ],
      "name": "tokenByIndex",
      "outputs": [
        {
          "internalType": "uint256",
          "name": "",
          "type": "uint256"
        }
      ],
      "stateMutability": "view",
      "type": "function"
    },
    {
      "inputs": [
        {
          "internalType": "address",
          "name": "owner",
          "type": "address"
        },
        {
          "internalType": "uint256",
          "name": "index",
          "type": "uint256"
        }
      ],
      "name": "tokenOfOwnerByIndex",
      "outputs": [
        {
          "internalType": "uint256",
          "name": "",
          "type": "uint256"
        }
      ],
      "stateMutability": "view",
      "type": "function"
    },
    {
      "inputs": [
        {
          "internalType": "uint256",
          "name": "tokenId",
          "type": "uint256"
        }
      ],
      "name": "tokenURI",
      "outputs": [
        {
          "internalType": "string",
          "name": "",
          "type": "string"
        }
      ],
      "stateMutability": "view",
      "type": "function"
    },
    {
      "inputs": [],
      "name": "totalSupply",
      "outputs": [
        {
          "internalType": "uint256",
          "name": "",
          "type": "uint256"
        }
      ],
      "stateMutability": "view",
      "type": "function"
    },
    {
      "inputs": [
        {
          "internalType": "address",
          "name": "from",
          "type": "address"
        },
        {
          "internalType": "address",
          "name": "to",
          "type": "address"
        },
        {
          "internalType": "uint256",
          "name": "tokenId",
          "type": "uint256"
        }
      ],
      "name": "transferFrom",
      "outputs": [],
      "stateMutability": "nonpayable",
      "type": "function"
    },
    {
      "inputs": [
        {
          "internalType": "address",
          "name": "newOwner",
          "type": "address"
        }
      ],
      "name": "transferOwnership",
      "outputs": [],
      "stateMutability": "nonpayable",
      "type": "function"
    },
    {
      "inputs": [],
      "name": "unpauseContract",
      "outputs": [],
      "stateMutability": "nonpayable",
      "type": "function"
    },
    {
      "inputs": [],
      "name": "withdrawAll",
      "outputs": [],
      "stateMutability": "payable",
      "type": "function"
    }
  ],
  "bytecode": "0x60806040526000600f553480156200001657600080fd5b5060405162004da638038062004da683398181016040528101906200003c91906200038b565b6040518060400160405280600d81526020017f52756e6976657273654974656d000000000000000000000000000000000000008152506040518060400160405280600481526020017f5249544d000000000000000000000000000000000000000000000000000000008152508160009081620000b9919062000627565b508060019081620000cb919062000627565b5050506000600660006101000a81548160ff02191690831515021790555062000109620000fd6200012a60201b60201c565b6200013260201b60201c565b6001600c8190555080600e908162000122919062000627565b50506200070e565b600033905090565b6000600b60009054906101000a900473ffffffffffffffffffffffffffffffffffffffff16905081600b60006101000a81548173ffffffffffffffffffffffffffffffffffffffff021916908373ffffffffffffffffffffffffffffffffffffffff1602179055508173ffffffffffffffffffffffffffffffffffffffff168173ffffffffffffffffffffffffffffffffffffffff167f8be0079c531659141344cd1fd0a4f28419497f9722a3daafe3b4186f6b6457e060405160405180910390a35050565b6000604051905090565b600080fd5b600080fd5b600080fd5b600080fd5b6000601f19601f8301169050919050565b7f4e487b7100000000000000000000000000000000000000000000000000000000600052604160045260246000fd5b620002618262000216565b810181811067ffffffffffffffff8211171562000283576200028262000227565b5b80604052505050565b600062000298620001f8565b9050620002a6828262000256565b919050565b600067ffffffffffffffff821115620002c957620002c862000227565b5b620002d48262000216565b9050602081019050919050565b60005b8381101562000301578082015181840152602081019050620002e4565b60008484015250505050565b6000620003246200031e84620002ab565b6200028c565b90508281526020810184848401111562000343576200034262000211565b5b62000350848285620002e1565b509392505050565b600082601f83011262000370576200036f6200020c565b5b8151620003828482602086016200030d565b91505092915050565b600060208284031215620003a457620003a362000202565b5b600082015167ffffffffffffffff811115620003c557620003c462000207565b5b620003d38482850162000358565b91505092915050565b600081519050919050565b7f4e487b7100000000000000000000000000000000000000000000000000000000600052602260045260246000fd5b600060028204905060018216806200042f57607f821691505b602082108103620004455762000444620003e7565b5b50919050565b60008190508160005260206000209050919050565b60006020601f8301049050919050565b600082821b905092915050565b600060088302620004af7fffffffffffffffffffffffffffffffffffffffffffffffffffffffffffffffff8262000470565b620004bb868362000470565b95508019841693508086168417925050509392505050565b6000819050919050565b6000819050919050565b60006200050862000502620004fc84620004d3565b620004dd565b620004d3565b9050919050565b6000819050919050565b6200052483620004e7565b6200053c62000533826200050f565b8484546200047d565b825550505050565b600090565b6200055362000544565b6200056081848462000519565b505050565b5b8181101562000588576200057c60008262000549565b60018101905062000566565b5050565b601f821115620005d757620005a1816200044b565b620005ac8462000460565b81016020851015620005bc578190505b620005d4620005cb8562000460565b83018262000565565b50505b505050565b600082821c905092915050565b6000620005fc60001984600802620005dc565b1980831691505092915050565b6000620006178383620005e9565b9150826002028217905092915050565b6200063282620003dc565b67ffffffffffffffff8111156200064e576200064d62000227565b5b6200065a825462000416565b620006678282856200058c565b600060209050601f8311600181146200069f57600084156200068a578287015190505b62000696858262000609565b86555062000706565b601f198416620006af866200044b565b60005b82811015620006d957848901518255600182019150602085019450602081019050620006b2565b86831015620006f95784890151620006f5601f891682620005e9565b8355505b6001600288020188555050505b505050505050565b614688806200071e6000396000f3fe6080604052600436106101e35760003560e01c806370a0823111610102578063b33712c511610095578063d547cfb711610064578063d547cfb7146106bf578063e985e9c5146106ea578063f2fde38b14610727578063fca3b5aa14610750576101e3565b8063b33712c514610617578063b88d4fde1461062e578063c87b56dd14610657578063d52079b414610694576101e3565b80638da5cb5b116100d15780638da5cb5b1461056f57806395d89b411461059a5780639727151a146105c5578063a22cb465146105ee576101e3565b806370a08231146104e6578063714c539814610523578063715018a61461054e578063853828b614610565576101e3565b806334d722c91161017a5780634f6ccce7116101495780634f6ccce71461041857806355f804b3146104555780635c975abb1461047e5780636352211e146104a9576101e3565b806334d722c91461037057806342842e0e1461039b578063439766ce146103c45780634f558e79146103db576101e3565b806318160ddd116101b657806318160ddd146102b657806323b872dd146102e15780632f745c591461030a57806332761d1614610347576101e3565b806301ffc9a7146101e857806306fdde0314610225578063081812fc14610250578063095ea7b31461028d575b600080fd5b3480156101f457600080fd5b5061020f600480360381019061020a9190612cc9565b610779565b60405161021c9190612d11565b60405180910390f35b34801561023157600080fd5b5061023a61078b565b6040516102479190612dbc565b60405180910390f35b34801561025c57600080fd5b5061027760048036038101906102729190612e14565b61081d565b6040516102849190612e82565b60405180910390f35b34801561029957600080fd5b506102b460048036038101906102af9190612ec9565b610863565b005b3480156102c257600080fd5b506102cb61097a565b6040516102d89190612f18565b60405180910390f35b3480156102ed57600080fd5b5061030860048036038101906103039190612f33565b610987565b005b34801561031657600080fd5b50610331600480360381019061032c9190612ec9565b6109e7565b60405161033e9190612f18565b60405180910390f35b34801561035357600080fd5b5061036e60048036038101906103699190612ec9565b610a8c565b005b34801561037c57600080fd5b50610385610bd8565b6040516103929190612e82565b60405180910390f35b3480156103a757600080fd5b506103c260048036038101906103bd9190612f33565b610bfe565b005b3480156103d057600080fd5b506103d9610c1e565b005b3480156103e757600080fd5b5061040260048036038101906103fd9190612e14565b610ca4565b60405161040f9190612d11565b60405180910390f35b34801561042457600080fd5b5061043f600480360381019061043a9190612e14565b610cb6565b60405161044c9190612f18565b60405180910390f35b34801561046157600080fd5b5061047c60048036038101906104779190612feb565b610d27565b005b34801561048a57600080fd5b50610493610d45565b6040516104a09190612d11565b60405180910390f35b3480156104b557600080fd5b506104d060048036038101906104cb9190612e14565b610d5c565b6040516104dd9190612e82565b60405180910390f35b3480156104f257600080fd5b5061050d60048036038101906105089190613038565b610de2565b60405161051a9190612f18565b60405180910390f35b34801561052f57600080fd5b50610538610e99565b6040516105459190612dbc565b60405180910390f35b34801561055a57600080fd5b50610563610f2b565b005b61056d610f3f565b005b34801561057b57600080fd5b50610584610ff6565b6040516105919190612e82565b60405180910390f35b3480156105a657600080fd5b506105af611020565b6040516105bc9190612dbc565b60405180910390f35b3480156105d157600080fd5b506105ec60048036038101906105e791906130a3565b6110b2565b005b3480156105fa57600080fd5b506106156004803603810190610610919061310f565b6111a3565b005b34801561062357600080fd5b5061062c6111b9565b005b34801561063a57600080fd5b506106556004803603810190610650919061327f565b611240565b005b34801561066357600080fd5b5061067e60048036038101906106799190612e14565b6112a2565b60405161068b9190612dbc565b60405180910390f35b3480156106a057600080fd5b506106a961131e565b6040516106b69190612f18565b60405180910390f35b3480156106cb57600080fd5b506106d4611324565b6040516106e19190612dbc565b60405180910390f35b3480156106f657600080fd5b50610711600480360381019061070c9190613302565b6113b2565b60405161071e9190612d11565b60405180910390f35b34801561073357600080fd5b5061074e60048036038101906107499190613038565b611446565b005b34801561075c57600080fd5b5061077760048036038101906107729190613038565b6114c9565b005b600061078482611584565b9050919050565b60606000805461079a90613371565b80601f01602080910402602001604051908101604052809291908181526020018280546107c690613371565b80156108135780601f106107e857610100808354040283529160200191610813565b820191906000526020600020905b8154815290600101906020018083116107f657829003601f168201915b5050505050905090565b6000610828826115fe565b6004600083815260200190815260200160002060009054906101000a900473ffffffffffffffffffffffffffffffffffffffff169050919050565b600061086e82610d5c565b90508073ffffffffffffffffffffffffffffffffffffffff168373ffffffffffffffffffffffffffffffffffffffff16036108de576040517f08c379a00000000000000000000000000000000000000000000000000000000081526004016108d590613414565b60405180910390fd5b8073ffffffffffffffffffffffffffffffffffffffff166108fd611649565b73ffffffffffffffffffffffffffffffffffffffff16148061092c575061092b81610926611649565b6113b2565b5b61096b576040517f08c379a0000000000000000000000000000000000000000000000000000000008152600401610962906134a6565b60405180910390fd5b6109758383611651565b505050565b6000600980549050905090565b610998610992611649565b8261170a565b6109d7576040517f08c379a00000000000000000000000000000000000000000000000000000000081526004016109ce90613538565b60405180910390fd5b6109e283838361179f565b505050565b60006109f283610de2565b8210610a33576040517f08c379a0000000000000000000000000000000000000000000000000000000008152600401610a2a906135ca565b60405180910390fd5b600760008473ffffffffffffffffffffffffffffffffffffffff1673ffffffffffffffffffffffffffffffffffffffff168152602001908152602001600020600083815260200190815260200160002054905092915050565b610a94611a98565b610a9c610d45565b15610adc576040517f08c379a0000000000000000000000000000000000000000000000000000000008152600401610ad390613636565b60405180910390fd5b600d60009054906101000a900473ffffffffffffffffffffffffffffffffffffffff1673ffffffffffffffffffffffffffffffffffffffff16610b1d611649565b73ffffffffffffffffffffffffffffffffffffffff1614610b73576040517f08c379a0000000000000000000000000000000000000000000000000000000008152600401610b6a906136a2565b60405180910390fd5b600f60008154610b82906136f1565b919050819055507f604e0f34ba8d6d3f7f48c01c251c7bf880d71369b217e5b976ca6120cc51710c8282604051610bba929190613739565b60405180910390a1610bcc8282611ae7565b610bd4611b05565b5050565b600d60009054906101000a900473ffffffffffffffffffffffffffffffffffffffff1681565b610c1983838360405180602001604052806000815250611240565b505050565b610c26611b0f565b3073ffffffffffffffffffffffffffffffffffffffff16635c975abb6040518163ffffffff1660e01b8152600401602060405180830381865afa158015610c71573d6000803e3d6000fd5b505050506040513d601f19601f82011682018060405250810190610c959190613777565b610ca257610ca1611b8d565b5b565b6000610caf82611bf0565b9050919050565b6000610cc061097a565b8210610d01576040517f08c379a0000000000000000000000000000000000000000000000000000000008152600401610cf890613816565b60405180910390fd5b60098281548110610d1557610d14613836565b5b90600052602060002001549050919050565b610d2f611b0f565b8181600e9182610d40929190613a1c565b505050565b6000600660009054906101000a900460ff16905090565b600080610d6883611c31565b9050600073ffffffffffffffffffffffffffffffffffffffff168173ffffffffffffffffffffffffffffffffffffffff1603610dd9576040517f08c379a0000000000000000000000000000000000000000000000000000000008152600401610dd090613b38565b60405180910390fd5b80915050919050565b60008073ffffffffffffffffffffffffffffffffffffffff168273ffffffffffffffffffffffffffffffffffffffff1603610e52576040517f08c379a0000000000000000000000000000000000000000000000000000000008152600401610e4990613bca565b60405180910390fd5b600360008373ffffffffffffffffffffffffffffffffffffffff1673ffffffffffffffffffffffffffffffffffffffff168152602001908152602001600020549050919050565b6060600e8054610ea890613371565b80601f0160208091040260200160405190810160405280929190818152602001828054610ed490613371565b8015610f215780601f10610ef657610100808354040283529160200191610f21565b820191906000526020600020905b815481529060010190602001808311610f0457829003601f168201915b5050505050905090565b610f33611b0f565b610f3d6000611c6e565b565b610f47611b0f565b60003373ffffffffffffffffffffffffffffffffffffffff1647604051610f6d90613c1b565b60006040518083038185875af1925050503d8060008114610faa576040519150601f19603f3d011682016040523d82523d6000602084013e610faf565b606091505b5050905080610ff3576040517f08c379a0000000000000000000000000000000000000000000000000000000008152600401610fea90613c7c565b60405180910390fd5b50565b6000600b60009054906101000a900473ffffffffffffffffffffffffffffffffffffffff16905090565b60606001805461102f90613371565b80601f016020809104026020016040519081016040528092919081815260200182805461105b90613371565b80156110a85780601f1061107d576101008083540402835291602001916110a8565b820191906000526020600020905b81548152906001019060200180831161108b57829003601f168201915b5050505050905090565b6110ba611b0f565b600073ffffffffffffffffffffffffffffffffffffffff163373ffffffffffffffffffffffffffffffffffffffff1603611120576040517f48ac165200000000000000000000000000000000000000000000000000000000815260040160405180910390fd5b8173ffffffffffffffffffffffffffffffffffffffff1663a9059cbb33836040518363ffffffff1660e01b815260040161115b929190613739565b6020604051808303816000875af115801561117a573d6000803e3d6000fd5b505050506040513d601f19601f8201168201806040525081019061119e9190613777565b505050565b6111b56111ae611649565b8383611d34565b5050565b6111c1611b0f565b3073ffffffffffffffffffffffffffffffffffffffff16635c975abb6040518163ffffffff1660e01b8152600401602060405180830381865afa15801561120c573d6000803e3d6000fd5b505050506040513d601f19601f820116820180604052508101906112309190613777565b1561123e5761123d611ea0565b5b565b61125161124b611649565b8361170a565b611290576040517f08c379a000000000000000000000000000000000000000000000000000000000815260040161128790613538565b60405180910390fd5b61129c84848484611f03565b50505050565b60606112ad82611bf0565b6112ec576040517f08c379a00000000000000000000000000000000000000000000000000000000081526004016112e390613d0e565b60405180910390fd5b600e6112f783611f5f565b604051602001611308929190613ded565b6040516020818303038152906040529050919050565b600f5481565b600e805461133190613371565b80601f016020809104026020016040519081016040528092919081815260200182805461135d90613371565b80156113aa5780601f1061137f576101008083540402835291602001916113aa565b820191906000526020600020905b81548152906001019060200180831161138d57829003601f168201915b505050505081565b6000600560008473ffffffffffffffffffffffffffffffffffffffff1673ffffffffffffffffffffffffffffffffffffffff16815260200190815260200160002060008373ffffffffffffffffffffffffffffffffffffffff1673ffffffffffffffffffffffffffffffffffffffff16815260200190815260200160002060009054906101000a900460ff16905092915050565b61144e611b0f565b600073ffffffffffffffffffffffffffffffffffffffff168173ffffffffffffffffffffffffffffffffffffffff16036114bd576040517f08c379a00000000000000000000000000000000000000000000000000000000081526004016114b490613e83565b60405180910390fd5b6114c681611c6e565b50565b6114d1611b0f565b600073ffffffffffffffffffffffffffffffffffffffff168173ffffffffffffffffffffffffffffffffffffffff1603611540576040517f08c379a000000000000000000000000000000000000000000000000000000000815260040161153790613eef565b60405180910390fd5b80600d60006101000a81548173ffffffffffffffffffffffffffffffffffffffff021916908373ffffffffffffffffffffffffffffffffffffffff16021790555050565b60007f780e9d63000000000000000000000000000000000000000000000000000000007bffffffffffffffffffffffffffffffffffffffffffffffffffffffff1916827bffffffffffffffffffffffffffffffffffffffffffffffffffffffff191614806115f757506115f68261202d565b5b9050919050565b61160781611bf0565b611646576040517f08c379a000000000000000000000000000000000000000000000000000000000815260040161163d90613b38565b60405180910390fd5b50565b600033905090565b816004600083815260200190815260200160002060006101000a81548173ffffffffffffffffffffffffffffffffffffffff021916908373ffffffffffffffffffffffffffffffffffffffff160217905550808273ffffffffffffffffffffffffffffffffffffffff166116c483610d5c565b73ffffffffffffffffffffffffffffffffffffffff167f8c5be1e5ebec7d5bd14f71427d1e84f3dd0314c0f7b2291e5b200ac8c7c3b92560405160405180910390a45050565b60008061171683610d5c565b90508073ffffffffffffffffffffffffffffffffffffffff168473ffffffffffffffffffffffffffffffffffffffff161480611758575061175781856113b2565b5b8061179657508373ffffffffffffffffffffffffffffffffffffffff1661177e8461081d565b73ffffffffffffffffffffffffffffffffffffffff16145b91505092915050565b8273ffffffffffffffffffffffffffffffffffffffff166117bf82610d5c565b73ffffffffffffffffffffffffffffffffffffffff1614611815576040517f08c379a000000000000000000000000000000000000000000000000000000000815260040161180c90613f81565b60405180910390fd5b600073ffffffffffffffffffffffffffffffffffffffff168273ffffffffffffffffffffffffffffffffffffffff1603611884576040517f08c379a000000000000000000000000000000000000000000000000000000000815260040161187b90614013565b60405180910390fd5b611891838383600161210f565b8273ffffffffffffffffffffffffffffffffffffffff166118b182610d5c565b73ffffffffffffffffffffffffffffffffffffffff1614611907576040517f08c379a00000000000000000000000000000000000000000000000000000000081526004016118fe90613f81565b60405180910390fd5b6004600082815260200190815260200160002060006101000a81549073ffffffffffffffffffffffffffffffffffffffff02191690556001600360008573ffffffffffffffffffffffffffffffffffffffff1673ffffffffffffffffffffffffffffffffffffffff168152602001908152602001600020600082825403925050819055506001600360008473ffffffffffffffffffffffffffffffffffffffff1673ffffffffffffffffffffffffffffffffffffffff16815260200190815260200160002060008282540192505081905550816002600083815260200190815260200160002060006101000a81548173ffffffffffffffffffffffffffffffffffffffff021916908373ffffffffffffffffffffffffffffffffffffffff160217905550808273ffffffffffffffffffffffffffffffffffffffff168473ffffffffffffffffffffffffffffffffffffffff167fddf252ad1be2c89b69c2b068fc378daa952ba7f163c4a11628f55a4df523b3ef60405160405180910390a4611a938383836001612121565b505050565b6002600c5403611add576040517f08c379a0000000000000000000000000000000000000000000000000000000008152600401611ad49061407f565b60405180910390fd5b6002600c81905550565b611b01828260405180602001604052806000815250612127565b5050565b6001600c81905550565b611b17611649565b73ffffffffffffffffffffffffffffffffffffffff16611b35610ff6565b73ffffffffffffffffffffffffffffffffffffffff1614611b8b576040517f08c379a0000000000000000000000000000000000000000000000000000000008152600401611b82906140eb565b60405180910390fd5b565b611b95612182565b6001600660006101000a81548160ff0219169083151502179055507f62e78cea01bee320cd4e420270b5ea74000d11b0c9f74754ebdbfc544b05a258611bd9611649565b604051611be69190612e82565b60405180910390a1565b60008073ffffffffffffffffffffffffffffffffffffffff16611c1283611c31565b73ffffffffffffffffffffffffffffffffffffffff1614159050919050565b60006002600083815260200190815260200160002060009054906101000a900473ffffffffffffffffffffffffffffffffffffffff169050919050565b6000600b60009054906101000a900473ffffffffffffffffffffffffffffffffffffffff16905081600b60006101000a81548173ffffffffffffffffffffffffffffffffffffffff021916908373ffffffffffffffffffffffffffffffffffffffff1602179055508173ffffffffffffffffffffffffffffffffffffffff168173ffffffffffffffffffffffffffffffffffffffff167f8be0079c531659141344cd1fd0a4f28419497f9722a3daafe3b4186f6b6457e060405160405180910390a35050565b8173ffffffffffffffffffffffffffffffffffffffff168373ffffffffffffffffffffffffffffffffffffffff1603611da2576040517f08c379a0000000000000000000000000000000000000000000000000000000008152600401611d9990614157565b60405180910390fd5b80600560008573ffffffffffffffffffffffffffffffffffffffff1673ffffffffffffffffffffffffffffffffffffffff16815260200190815260200160002060008473ffffffffffffffffffffffffffffffffffffffff1673ffffffffffffffffffffffffffffffffffffffff16815260200190815260200160002060006101000a81548160ff0219169083151502179055508173ffffffffffffffffffffffffffffffffffffffff168373ffffffffffffffffffffffffffffffffffffffff167f17307eab39ab6107e8899845ad3d59bd9653f200f220920489ca2b5937696c3183604051611e939190612d11565b60405180910390a3505050565b611ea86121cc565b6000600660006101000a81548160ff0219169083151502179055507f5db9ee0a495bf2e6ff9c91a7834c1ba4fdd244a5e8aa4e537bd38aeae4b073aa611eec611649565b604051611ef99190612e82565b60405180910390a1565b611f0e84848461179f565b611f1a84848484612215565b611f59576040517f08c379a0000000000000000000000000000000000000000000000000000000008152600401611f50906141e9565b60405180910390fd5b50505050565b606060006001611f6e8461239c565b01905060008167ffffffffffffffff811115611f8d57611f8c613154565b5b6040519080825280601f01601f191660200182016040528015611fbf5781602001600182028036833780820191505090505b509050600082602001820190505b600115612022578080600190039150507f3031323334353637383961626364656600000000000000000000000000000000600a86061a8153600a858161201657612015614209565b5b04945060008503611fcd575b819350505050919050565b60007f80ac58cd000000000000000000000000000000000000000000000000000000007bffffffffffffffffffffffffffffffffffffffffffffffffffffffff1916827bffffffffffffffffffffffffffffffffffffffffffffffffffffffff191614806120f857507f5b5e139f000000000000000000000000000000000000000000000000000000007bffffffffffffffffffffffffffffffffffffffffffffffffffffffff1916827bffffffffffffffffffffffffffffffffffffffffffffffffffffffff1916145b806121085750612107826124ef565b5b9050919050565b61211b84848484612559565b50505050565b50505050565b61213183836126b7565b61213e6000848484612215565b61217d576040517f08c379a0000000000000000000000000000000000000000000000000000000008152600401612174906141e9565b60405180910390fd5b505050565b61218a610d45565b156121ca576040517f08c379a00000000000000000000000000000000000000000000000000000000081526004016121c190614284565b60405180910390fd5b565b6121d4610d45565b612213576040517f08c379a000000000000000000000000000000000000000000000000000000000815260040161220a906142f0565b60405180910390fd5b565b60006122368473ffffffffffffffffffffffffffffffffffffffff166128d4565b1561238f578373ffffffffffffffffffffffffffffffffffffffff1663150b7a0261225f611649565b8786866040518563ffffffff1660e01b81526004016122819493929190614365565b6020604051808303816000875af19250505080156122bd57506040513d601f19601f820116820180604052508101906122ba91906143c6565b60015b61233f573d80600081146122ed576040519150601f19603f3d011682016040523d82523d6000602084013e6122f2565b606091505b506000815103612337576040517f08c379a000000000000000000000000000000000000000000000000000000000815260040161232e906141e9565b60405180910390fd5b805181602001fd5b63150b7a0260e01b7bffffffffffffffffffffffffffffffffffffffffffffffffffffffff1916817bffffffffffffffffffffffffffffffffffffffffffffffffffffffff191614915050612394565b600190505b949350505050565b600080600090507a184f03e93ff9f4daa797ed6e38ed64bf6a1f01000000000000000083106123fa577a184f03e93ff9f4daa797ed6e38ed64bf6a1f01000000000000000083816123f0576123ef614209565b5b0492506040810190505b6d04ee2d6d415b85acef81000000008310612437576d04ee2d6d415b85acef8100000000838161242d5761242c614209565b5b0492506020810190505b662386f26fc10000831061246657662386f26fc10000838161245c5761245b614209565b5b0492506010810190505b6305f5e100831061248f576305f5e100838161248557612484614209565b5b0492506008810190505b61271083106124b45761271083816124aa576124a9614209565b5b0492506004810190505b606483106124d757606483816124cd576124cc614209565b5b0492506002810190505b600a83106124e6576001810190505b80915050919050565b60007f01ffc9a7000000000000000000000000000000000000000000000000000000007bffffffffffffffffffffffffffffffffffffffffffffffffffffffff1916827bffffffffffffffffffffffffffffffffffffffffffffffffffffffff1916149050919050565b612565848484846128f7565b60018111156125a9576040517f08c379a00000000000000000000000000000000000000000000000000000000081526004016125a090614465565b60405180910390fd5b6000829050600073ffffffffffffffffffffffffffffffffffffffff168573ffffffffffffffffffffffffffffffffffffffff16036125f0576125eb81612951565b61262f565b8373ffffffffffffffffffffffffffffffffffffffff168573ffffffffffffffffffffffffffffffffffffffff161461262e5761262d858261299a565b5b5b600073ffffffffffffffffffffffffffffffffffffffff168473ffffffffffffffffffffffffffffffffffffffff16036126715761266c81612b07565b6126b0565b8473ffffffffffffffffffffffffffffffffffffffff168473ffffffffffffffffffffffffffffffffffffffff16146126af576126ae8482612bd8565b5b5b5050505050565b600073ffffffffffffffffffffffffffffffffffffffff168273ffffffffffffffffffffffffffffffffffffffff1603612726576040517f08c379a000000000000000000000000000000000000000000000000000000000815260040161271d906144d1565b60405180910390fd5b61272f81611bf0565b1561276f576040517f08c379a00000000000000000000000000000000000000000000000000000000081526004016127669061453d565b60405180910390fd5b61277d60008383600161210f565b61278681611bf0565b156127c6576040517f08c379a00000000000000000000000000000000000000000000000000000000081526004016127bd9061453d565b60405180910390fd5b6001600360008473ffffffffffffffffffffffffffffffffffffffff1673ffffffffffffffffffffffffffffffffffffffff16815260200190815260200160002060008282540192505081905550816002600083815260200190815260200160002060006101000a81548173ffffffffffffffffffffffffffffffffffffffff021916908373ffffffffffffffffffffffffffffffffffffffff160217905550808273ffffffffffffffffffffffffffffffffffffffff16600073ffffffffffffffffffffffffffffffffffffffff167fddf252ad1be2c89b69c2b068fc378daa952ba7f163c4a11628f55a4df523b3ef60405160405180910390a46128d0600083836001612121565b5050565b6000808273ffffffffffffffffffffffffffffffffffffffff163b119050919050565b61290384848484612c57565b61290b610d45565b1561294b576040517f08c379a0000000000000000000000000000000000000000000000000000000008152600401612942906145cf565b60405180910390fd5b50505050565b600980549050600a600083815260200190815260200160002081905550600981908060018154018082558091505060019003906000526020600020016000909190919091505550565b600060016129a784610de2565b6129b191906145ef565b9050600060086000848152602001908152602001600020549050818114612a96576000600760008673ffffffffffffffffffffffffffffffffffffffff1673ffffffffffffffffffffffffffffffffffffffff168152602001908152602001600020600084815260200190815260200160002054905080600760008773ffffffffffffffffffffffffffffffffffffffff1673ffffffffffffffffffffffffffffffffffffffff168152602001908152602001600020600084815260200190815260200160002081905550816008600083815260200190815260200160002081905550505b6008600084815260200190815260200160002060009055600760008573ffffffffffffffffffffffffffffffffffffffff1673ffffffffffffffffffffffffffffffffffffffff16815260200190815260200160002060008381526020019081526020016000206000905550505050565b60006001600980549050612b1b91906145ef565b90506000600a6000848152602001908152602001600020549050600060098381548110612b4b57612b4a613836565b5b906000526020600020015490508060098381548110612b6d57612b6c613836565b5b906000526020600020018190555081600a600083815260200190815260200160002081905550600a6000858152602001908152602001600020600090556009805480612bbc57612bbb614623565b5b6001900381819060005260206000200160009055905550505050565b6000612be383610de2565b905081600760008573ffffffffffffffffffffffffffffffffffffffff1673ffffffffffffffffffffffffffffffffffffffff168152602001908152602001600020600083815260200190815260200160002081905550806008600084815260200190815260200160002081905550505050565b50505050565b6000604051905090565b600080fd5b600080fd5b60007fffffffff0000000000000000000000000000000000000000000000000000000082169050919050565b612ca681612c71565b8114612cb157600080fd5b50565b600081359050612cc381612c9d565b92915050565b600060208284031215612cdf57612cde612c67565b5b6000612ced84828501612cb4565b91505092915050565b60008115159050919050565b612d0b81612cf6565b82525050565b6000602082019050612d266000830184612d02565b92915050565b600081519050919050565b600082825260208201905092915050565b60005b83811015612d66578082015181840152602081019050612d4b565b60008484015250505050565b6000601f19601f8301169050919050565b6000612d8e82612d2c565b612d988185612d37565b9350612da8818560208601612d48565b612db181612d72565b840191505092915050565b60006020820190508181036000830152612dd68184612d83565b905092915050565b6000819050919050565b612df181612dde565b8114612dfc57600080fd5b50565b600081359050612e0e81612de8565b92915050565b600060208284031215612e2a57612e29612c67565b5b6000612e3884828501612dff565b91505092915050565b600073ffffffffffffffffffffffffffffffffffffffff82169050919050565b6000612e6c82612e41565b9050919050565b612e7c81612e61565b82525050565b6000602082019050612e976000830184612e73565b92915050565b612ea681612e61565b8114612eb157600080fd5b50565b600081359050612ec381612e9d565b92915050565b60008060408385031215612ee057612edf612c67565b5b6000612eee85828601612eb4565b9250506020612eff85828601612dff565b9150509250929050565b612f1281612dde565b82525050565b6000602082019050612f2d6000830184612f09565b92915050565b600080600060608486031215612f4c57612f4b612c67565b5b6000612f5a86828701612eb4565b9350506020612f6b86828701612eb4565b9250506040612f7c86828701612dff565b9150509250925092565b600080fd5b600080fd5b600080fd5b60008083601f840112612fab57612faa612f86565b5b8235905067ffffffffffffffff811115612fc857612fc7612f8b565b5b602083019150836001820283011115612fe457612fe3612f90565b5b9250929050565b6000806020838503121561300257613001612c67565b5b600083013567ffffffffffffffff8111156130205761301f612c6c565b5b61302c85828601612f95565b92509250509250929050565b60006020828403121561304e5761304d612c67565b5b600061305c84828501612eb4565b91505092915050565b600061307082612e61565b9050919050565b61308081613065565b811461308b57600080fd5b50565b60008135905061309d81613077565b92915050565b600080604083850312156130ba576130b9612c67565b5b60006130c88582860161308e565b92505060206130d985828601612dff565b9150509250929050565b6130ec81612cf6565b81146130f757600080fd5b50565b600081359050613109816130e3565b92915050565b6000806040838503121561312657613125612c67565b5b600061313485828601612eb4565b9250506020613145858286016130fa565b9150509250929050565b600080fd5b7f4e487b7100000000000000000000000000000000000000000000000000000000600052604160045260246000fd5b61318c82612d72565b810181811067ffffffffffffffff821117156131ab576131aa613154565b5b80604052505050565b60006131be612c5d565b90506131ca8282613183565b919050565b600067ffffffffffffffff8211156131ea576131e9613154565b5b6131f382612d72565b9050602081019050919050565b82818337600083830152505050565b600061322261321d846131cf565b6131b4565b90508281526020810184848401111561323e5761323d61314f565b5b613249848285613200565b509392505050565b600082601f83011261326657613265612f86565b5b813561327684826020860161320f565b91505092915050565b6000806000806080858703121561329957613298612c67565b5b60006132a787828801612eb4565b94505060206132b887828801612eb4565b93505060406132c987828801612dff565b925050606085013567ffffffffffffffff8111156132ea576132e9612c6c565b5b6132f687828801613251565b91505092959194509250565b6000806040838503121561331957613318612c67565b5b600061332785828601612eb4565b925050602061333885828601612eb4565b9150509250929050565b7f4e487b7100000000000000000000000000000000000000000000000000000000600052602260045260246000fd5b6000600282049050600182168061338957607f821691505b60208210810361339c5761339b613342565b5b50919050565b7f4552433732313a20617070726f76616c20746f2063757272656e74206f776e6560008201527f7200000000000000000000000000000000000000000000000000000000000000602082015250565b60006133fe602183612d37565b9150613409826133a2565b604082019050919050565b6000602082019050818103600083015261342d816133f1565b9050919050565b7f4552433732313a20617070726f76652063616c6c6572206973206e6f7420746f60008201527f6b656e206f776e6572206f7220617070726f76656420666f7220616c6c000000602082015250565b6000613490603d83612d37565b915061349b82613434565b604082019050919050565b600060208201905081810360008301526134bf81613483565b9050919050565b7f4552433732313a2063616c6c6572206973206e6f7420746f6b656e206f776e6560008201527f72206f7220617070726f76656400000000000000000000000000000000000000602082015250565b6000613522602d83612d37565b915061352d826134c6565b604082019050919050565b6000602082019050818103600083015261355181613515565b9050919050565b7f455243373231456e756d657261626c653a206f776e657220696e646578206f7560008201527f74206f6620626f756e6473000000000000000000000000000000000000000000602082015250565b60006135b4602b83612d37565b91506135bf82613558565b604082019050919050565b600060208201905081810360008301526135e3816135a7565b9050919050565b7f4d696e74696e6720697320706175736564000000000000000000000000000000600082015250565b6000613620601183612d37565b915061362b826135ea565b602082019050919050565b6000602082019050818103600083015261364f81613613565b9050919050565b7f4d696e7465722061646472657373206973206e6f742076616c69640000000000600082015250565b600061368c601b83612d37565b915061369782613656565b602082019050919050565b600060208201905081810360008301526136bb8161367f565b9050919050565b7f4e487b7100000000000000000000000000000000000000000000000000000000600052601160045260246000fd5b60006136fc82612dde565b91507fffffffffffffffffffffffffffffffffffffffffffffffffffffffffffffffff820361372e5761372d6136c2565b5b600182019050919050565b600060408201905061374e6000830185612e73565b61375b6020830184612f09565b9392505050565b600081519050613771816130e3565b92915050565b60006020828403121561378d5761378c612c67565b5b600061379b84828501613762565b91505092915050565b7f455243373231456e756d657261626c653a20676c6f62616c20696e646578206f60008201527f7574206f6620626f756e64730000000000000000000000000000000000000000602082015250565b6000613800602c83612d37565b915061380b826137a4565b604082019050919050565b6000602082019050818103600083015261382f816137f3565b9050919050565b7f4e487b7100000000000000000000000000000000000000000000000000000000600052603260045260246000fd5b600082905092915050565b60008190508160005260206000209050919050565b60006020601f8301049050919050565b600082821b905092915050565b6000600883026138d27fffffffffffffffffffffffffffffffffffffffffffffffffffffffffffffffff82613895565b6138dc8683613895565b95508019841693508086168417925050509392505050565b6000819050919050565b600061391961391461390f84612dde565b6138f4565b612dde565b9050919050565b6000819050919050565b613933836138fe565b61394761393f82613920565b8484546138a2565b825550505050565b600090565b61395c61394f565b61396781848461392a565b505050565b5b8181101561398b57613980600082613954565b60018101905061396d565b5050565b601f8211156139d0576139a181613870565b6139aa84613885565b810160208510156139b9578190505b6139cd6139c585613885565b83018261396c565b50505b505050565b600082821c905092915050565b60006139f3600019846008026139d5565b1980831691505092915050565b6000613a0c83836139e2565b9150826002028217905092915050565b613a268383613865565b67ffffffffffffffff811115613a3f57613a3e613154565b5b613a498254613371565b613a5482828561398f565b6000601f831160018114613a835760008415613a71578287013590505b613a7b8582613a00565b865550613ae3565b601f198416613a9186613870565b60005b82811015613ab957848901358255600182019150602085019450602081019050613a94565b86831015613ad65784890135613ad2601f8916826139e2565b8355505b6001600288020188555050505b50505050505050565b7f4552433732313a20696e76616c696420746f6b656e2049440000000000000000600082015250565b6000613b22601883612d37565b9150613b2d82613aec565b602082019050919050565b60006020820190508181036000830152613b5181613b15565b9050919050565b7f4552433732313a2061646472657373207a65726f206973206e6f74206120766160008201527f6c6964206f776e65720000000000000000000000000000000000000000000000602082015250565b6000613bb4602983612d37565b9150613bbf82613b58565b604082019050919050565b60006020820190508181036000830152613be381613ba7565b9050919050565b600081905092915050565b50565b6000613c05600083613bea565b9150613c1082613bf5565b600082019050919050565b6000613c2682613bf8565b9150819050919050565b7f776974686472617720776173206e6f742073756363657366756c6c0000000000600082015250565b6000613c66601b83612d37565b9150613c7182613c30565b602082019050919050565b60006020820190508181036000830152613c9581613c59565b9050919050565b7f4552433732314d657461646174613a2055524920717565727920666f72206e6f60008201527f6e6578697374656e7420746f6b656e0000000000000000000000000000000000602082015250565b6000613cf8602f83612d37565b9150613d0382613c9c565b604082019050919050565b60006020820190508181036000830152613d2781613ceb565b9050919050565b600081905092915050565b60008154613d4681613371565b613d508186613d2e565b94506001821660008114613d6b5760018114613d8057613db3565b60ff1983168652811515820286019350613db3565b613d8985613870565b60005b83811015613dab57815481890152600182019150602081019050613d8c565b838801955050505b50505092915050565b6000613dc782612d2c565b613dd18185613d2e565b9350613de1818560208601612d48565b80840191505092915050565b6000613df98285613d39565b9150613e058284613dbc565b91508190509392505050565b7f4f776e61626c653a206e6577206f776e657220697320746865207a65726f206160008201527f6464726573730000000000000000000000000000000000000000000000000000602082015250565b6000613e6d602683612d37565b9150613e7882613e11565b604082019050919050565b60006020820190508181036000830152613e9c81613e60565b9050919050565b7f496e76616c6964206d696e746572206164647265737300000000000000000000600082015250565b6000613ed9601683612d37565b9150613ee482613ea3565b602082019050919050565b60006020820190508181036000830152613f0881613ecc565b9050919050565b7f4552433732313a207472616e736665722066726f6d20696e636f72726563742060008201527f6f776e6572000000000000000000000000000000000000000000000000000000602082015250565b6000613f6b602583612d37565b9150613f7682613f0f565b604082019050919050565b60006020820190508181036000830152613f9a81613f5e565b9050919050565b7f4552433732313a207472616e7366657220746f20746865207a65726f2061646460008201527f7265737300000000000000000000000000000000000000000000000000000000602082015250565b6000613ffd602483612d37565b915061400882613fa1565b604082019050919050565b6000602082019050818103600083015261402c81613ff0565b9050919050565b7f5265656e7472616e637947756172643a207265656e7472616e742063616c6c00600082015250565b6000614069601f83612d37565b915061407482614033565b602082019050919050565b600060208201905081810360008301526140988161405c565b9050919050565b7f4f776e61626c653a2063616c6c6572206973206e6f7420746865206f776e6572600082015250565b60006140d5602083612d37565b91506140e08261409f565b602082019050919050565b60006020820190508181036000830152614104816140c8565b9050919050565b7f4552433732313a20617070726f766520746f2063616c6c657200000000000000600082015250565b6000614141601983612d37565b915061414c8261410b565b602082019050919050565b6000602082019050818103600083015261417081614134565b9050919050565b7f4552433732313a207472616e7366657220746f206e6f6e20455243373231526560008201527f63656976657220696d706c656d656e7465720000000000000000000000000000602082015250565b60006141d3603283612d37565b91506141de82614177565b604082019050919050565b60006020820190508181036000830152614202816141c6565b9050919050565b7f4e487b7100000000000000000000000000000000000000000000000000000000600052601260045260246000fd5b7f5061757361626c653a2070617573656400000000000000000000000000000000600082015250565b600061426e601083612d37565b915061427982614238565b602082019050919050565b6000602082019050818103600083015261429d81614261565b9050919050565b7f5061757361626c653a206e6f7420706175736564000000000000000000000000600082015250565b60006142da601483612d37565b91506142e5826142a4565b602082019050919050565b60006020820190508181036000830152614309816142cd565b9050919050565b600081519050919050565b600082825260208201905092915050565b600061433782614310565b614341818561431b565b9350614351818560208601612d48565b61435a81612d72565b840191505092915050565b600060808201905061437a6000830187612e73565b6143876020830186612e73565b6143946040830185612f09565b81810360608301526143a6818461432c565b905095945050505050565b6000815190506143c081612c9d565b92915050565b6000602082840312156143dc576143db612c67565b5b60006143ea848285016143b1565b91505092915050565b7f455243373231456e756d657261626c653a20636f6e736563757469766520747260008201527f616e7366657273206e6f7420737570706f727465640000000000000000000000602082015250565b600061444f603583612d37565b915061445a826143f3565b604082019050919050565b6000602082019050818103600083015261447e81614442565b9050919050565b7f4552433732313a206d696e7420746f20746865207a65726f2061646472657373600082015250565b60006144bb602083612d37565b91506144c682614485565b602082019050919050565b600060208201905081810360008301526144ea816144ae565b9050919050565b7f4552433732313a20746f6b656e20616c7265616479206d696e74656400000000600082015250565b6000614527601c83612d37565b9150614532826144f1565b602082019050919050565b600060208201905081810360008301526145568161451a565b9050919050565b7f4552433732315061757361626c653a20746f6b656e207472616e73666572207760008201527f68696c6520706175736564000000000000000000000000000000000000000000602082015250565b60006145b9602b83612d37565b91506145c48261455d565b604082019050919050565b600060208201905081810360008301526145e8816145ac565b9050919050565b60006145fa82612dde565b915061460583612dde565b925082820390508181111561461d5761461c6136c2565b5b92915050565b7f4e487b7100000000000000000000000000000000000000000000000000000000600052603160045260246000fdfea2646970667358221220602539f1ed69a2795212295aeb81527688cb4ccdad106da55d93c361bb74fd0264736f6c63430008120033",
  "linkReferences": {},
  "deployedLinkReferences": {}
}