{
  "_format": "hh-sol-artifact-1",
  "contractName": "RuniverseItem",
  "sourceName": "contracts/RuniverseItem.sol",
  "abi": [
    {
      "inputs": [
        {
          "internalType": "string",
          "name": "_baseURI",
          "type": "string"
        }
      ],
      "stateMutability": "nonpayable",
      "type": "constructor"
    },
    {
      "inputs": [],
      "name": "Address0Error",
      "type": "error"
    },
    {
      "anonymous": false,
      "inputs": [
        {
          "indexed": true,
          "internalType": "address",
          "name": "owner",
          "type": "address"
        },
        {
          "indexed": true,
          "internalType": "address",
          "name": "approved",
          "type": "address"
        },
        {
          "indexed": true,
          "internalType": "uint256",
          "name": "tokenId",
          "type": "uint256"
        }
      ],
      "name": "Approval",
      "type": "event"
    },
    {
      "anonymous": false,
      "inputs": [
        {
          "indexed": true,
          "internalType": "address",
          "name": "owner",
          "type": "address"
        },
        {
          "indexed": true,
          "internalType": "address",
          "name": "operator",
          "type": "address"
        },
        {
          "indexed": false,
          "internalType": "bool",
          "name": "approved",
          "type": "bool"
        }
      ],
      "name": "ApprovalForAll",
      "type": "event"
    },
    {
      "anonymous": false,
      "inputs": [
        {
          "indexed": true,
          "internalType": "address",
          "name": "previousOwner",
          "type": "address"
        },
        {
          "indexed": true,
          "internalType": "address",
          "name": "newOwner",
          "type": "address"
        }
      ],
      "name": "OwnershipTransferred",
      "type": "event"
    },
    {
      "anonymous": false,
      "inputs": [
        {
          "indexed": false,
          "internalType": "address",
          "name": "account",
          "type": "address"
        }
      ],
      "name": "Paused",
      "type": "event"
    },
    {
      "anonymous": false,
      "inputs": [
        {
          "indexed": false,
          "internalType": "address",
          "name": "to",
          "type": "address"
        },
        {
          "indexed": false,
          "internalType": "uint256",
          "name": "tokenId",
          "type": "uint256"
        }
      ],
      "name": "RuniverseItemMinted",
      "type": "event"
    },
    {
      "anonymous": false,
      "inputs": [
        {
          "indexed": true,
          "internalType": "address",
          "name": "from",
          "type": "address"
        },
        {
          "indexed": true,
          "internalType": "address",
          "name": "to",
          "type": "address"
        },
        {
          "indexed": true,
          "internalType": "uint256",
          "name": "tokenId",
          "type": "uint256"
        }
      ],
      "name": "Transfer",
      "type": "event"
    },
    {
      "anonymous": false,
      "inputs": [
        {
          "indexed": false,
          "internalType": "address",
          "name": "account",
          "type": "address"
        }
      ],
      "name": "Unpaused",
      "type": "event"
    },
    {
      "inputs": [
        {
          "internalType": "address",
          "name": "to",
          "type": "address"
        },
        {
          "internalType": "uint256",
          "name": "tokenId",
          "type": "uint256"
        }
      ],
      "name": "approve",
      "outputs": [],
      "stateMutability": "nonpayable",
      "type": "function"
    },
    {
      "inputs": [
        {
          "internalType": "address",
          "name": "owner",
          "type": "address"
        }
      ],
      "name": "balanceOf",
      "outputs": [
        {
          "internalType": "uint256",
          "name": "",
          "type": "uint256"
        }
      ],
      "stateMutability": "view",
      "type": "function"
    },
    {
      "inputs": [],
      "name": "baseTokenURI",
      "outputs": [
        {
          "internalType": "string",
          "name": "",
          "type": "string"
        }
      ],
      "stateMutability": "view",
      "type": "function"
    },
    {
      "inputs": [
        {
          "internalType": "uint256",
          "name": "tokenId",
          "type": "uint256"
        }
      ],
      "name": "exists",
      "outputs": [
        {
          "internalType": "bool",
          "name": "",
          "type": "bool"
        }
      ],
      "stateMutability": "view",
      "type": "function"
    },
    {
      "inputs": [
        {
          "internalType": "contract IERC20",
          "name": "token",
          "type": "address"
        },
        {
          "internalType": "uint256",
          "name": "amount",
          "type": "uint256"
        }
      ],
      "name": "forwardERC20s",
      "outputs": [],
      "stateMutability": "nonpayable",
      "type": "function"
    },
    {
      "inputs": [
        {
          "internalType": "uint256",
          "name": "tokenId",
          "type": "uint256"
        }
      ],
      "name": "getApproved",
      "outputs": [
        {
          "internalType": "address",
          "name": "",
          "type": "address"
        }
      ],
      "stateMutability": "view",
      "type": "function"
    },
    {
      "inputs": [],
      "name": "getBaseURI",
      "outputs": [
        {
          "internalType": "string",
          "name": "",
          "type": "string"
        }
      ],
      "stateMutability": "view",
      "type": "function"
    },
    {
      "inputs": [
        {
          "internalType": "address",
          "name": "owner",
          "type": "address"
        },
        {
          "internalType": "address",
          "name": "operator",
          "type": "address"
        }
      ],
      "name": "isApprovedForAll",
      "outputs": [
        {
          "internalType": "bool",
          "name": "",
          "type": "bool"
        }
      ],
      "stateMutability": "view",
      "type": "function"
    },
    {
      "inputs": [
        {
          "internalType": "address",
          "name": "recipient",
          "type": "address"
        },
        {
          "internalType": "uint256",
          "name": "tokenId",
          "type": "uint256"
        }
      ],
      "name": "mintTokenId",
      "outputs": [],
      "stateMutability": "nonpayable",
      "type": "function"
    },
    {
      "inputs": [],
      "name": "minterAddress",
      "outputs": [
        {
          "internalType": "address",
          "name": "",
          "type": "address"
        }
      ],
      "stateMutability": "view",
      "type": "function"
    },
    {
      "inputs": [],
      "name": "name",
      "outputs": [
        {
          "internalType": "string",
          "name": "",
          "type": "string"
        }
      ],
      "stateMutability": "view",
      "type": "function"
    },
    {
      "inputs": [],
      "name": "numMinted",
      "outputs": [
        {
          "internalType": "uint256",
          "name": "",
          "type": "uint256"
        }
      ],
      "stateMutability": "view",
      "type": "function"
    },
    {
      "inputs": [],
      "name": "owner",
      "outputs": [
        {
          "internalType": "address",
          "name": "",
          "type": "address"
        }
      ],
      "stateMutability": "view",
      "type": "function"
    },
    {
      "inputs": [
        {
          "internalType": "uint256",
          "name": "tokenId",
          "type": "uint256"
        }
      ],
      "name": "ownerOf",
      "outputs": [
        {
          "internalType": "address",
          "name": "",
          "type": "address"
        }
      ],
      "stateMutability": "view",
      "type": "function"
    },
    {
      "inputs": [],
      "name": "pauseContract",
      "outputs": [],
      "stateMutability": "nonpayable",
      "type": "function"
    },
    {
      "inputs": [],
      "name": "paused",
      "outputs": [
        {
          "internalType": "bool",
          "name": "",
          "type": "bool"
        }
      ],
      "stateMutability": "view",
      "type": "function"
    },
    {
      "inputs": [],
      "name": "renounceOwnership",
      "outputs": [],
      "stateMutability": "nonpayable",
      "type": "function"
    },
    {
      "inputs": [
        {
          "internalType": "address",
          "name": "from",
          "type": "address"
        },
        {
          "internalType": "address",
          "name": "to",
          "type": "address"
        },
        {
          "internalType": "uint256",
          "name": "tokenId",
          "type": "uint256"
        }
      ],
      "name": "safeTransferFrom",
      "outputs": [],
      "stateMutability": "nonpayable",
      "type": "function"
    },
    {
      "inputs": [
        {
          "internalType": "address",
          "name": "from",
          "type": "address"
        },
        {
          "internalType": "address",
          "name": "to",
          "type": "address"
        },
        {
          "internalType": "uint256",
          "name": "tokenId",
          "type": "uint256"
        },
        {
          "internalType": "bytes",
          "name": "data",
          "type": "bytes"
        }
      ],
      "name": "safeTransferFrom",
      "outputs": [],
      "stateMutability": "nonpayable",
      "type": "function"
    },
    {
      "inputs": [
        {
          "internalType": "address",
          "name": "operator",
          "type": "address"
        },
        {
          "internalType": "bool",
          "name": "approved",
          "type": "bool"
        }
      ],
      "name": "setApprovalForAll",
      "outputs": [],
      "stateMutability": "nonpayable",
      "type": "function"
    },
    {
      "inputs": [
        {
          "internalType": "string",
          "name": "newBaseURI",
          "type": "string"
        }
      ],
      "name": "setBaseURI",
      "outputs": [],
      "stateMutability": "nonpayable",
      "type": "function"
    },
    {
      "inputs": [
        {
          "internalType": "address",
          "name": "newMinter",
          "type": "address"
        }
      ],
      "name": "setMinter",
      "outputs": [],
      "stateMutability": "nonpayable",
      "type": "function"
    },
    {
      "inputs": [
        {
          "internalType": "bytes4",
          "name": "interfaceId",
          "type": "bytes4"
        }
      ],
      "name": "supportsInterface",
      "outputs": [
        {
          "internalType": "bool",
          "name": "",
          "type": "bool"
        }
      ],
      "stateMutability": "view",
      "type": "function"
    },
    {
      "inputs": [],
      "name": "symbol",
      "outputs": [
        {
          "internalType": "string",
          "name": "",
          "type": "string"
        }
      ],
      "stateMutability": "view",
      "type": "function"
    },
    {
      "inputs": [
        {
          "internalType": "uint256",
          "name": "tokenId",
          "type": "uint256"
        }
      ],
      "name": "tokenURI",
      "outputs": [
        {
          "internalType": "string",
          "name": "",
          "type": "string"
        }
      ],
      "stateMutability": "view",
      "type": "function"
    },
    {
      "inputs": [],
      "name": "totalSupply",
      "outputs": [
        {
          "internalType": "uint256",
          "name": "",
          "type": "uint256"
        }
      ],
      "stateMutability": "view",
      "type": "function"
    },
    {
      "inputs": [
        {
          "internalType": "address",
          "name": "from",
          "type": "address"
        },
        {
          "internalType": "address",
          "name": "to",
          "type": "address"
        },
        {
          "internalType": "uint256",
          "name": "tokenId",
          "type": "uint256"
        }
      ],
      "name": "transferFrom",
      "outputs": [],
      "stateMutability": "nonpayable",
      "type": "function"
    },
    {
      "inputs": [
        {
          "internalType": "address",
          "name": "newOwner",
          "type": "address"
        }
      ],
      "name": "transferOwnership",
      "outputs": [],
      "stateMutability": "nonpayable",
      "type": "function"
    },
    {
      "inputs": [],
      "name": "unpauseContract",
      "outputs": [],
      "stateMutability": "nonpayable",
      "type": "function"
    },
    {
      "inputs": [],
      "name": "withdrawAll",
      "outputs": [],
      "stateMutability": "payable",
      "type": "function"
    }
  ],
  "bytecode": "0x60806040526000600a553480156200001657600080fd5b50604051620044b3380380620044b383398181016040528101906200003c91906200038b565b6040518060400160405280600d81526020017f52756e6976657273654974656d000000000000000000000000000000000000008152506040518060400160405280600481526020017f5249544d000000000000000000000000000000000000000000000000000000008152508160009081620000b9919062000627565b508060019081620000cb919062000627565b5050506000600660006101000a81548160ff02191690831515021790555062000109620000fd6200012a60201b60201c565b6200013260201b60201c565b6001600781905550806009908162000122919062000627565b50506200070e565b600033905090565b6000600660019054906101000a900473ffffffffffffffffffffffffffffffffffffffff16905081600660016101000a81548173ffffffffffffffffffffffffffffffffffffffff021916908373ffffffffffffffffffffffffffffffffffffffff1602179055508173ffffffffffffffffffffffffffffffffffffffff168173ffffffffffffffffffffffffffffffffffffffff167f8be0079c531659141344cd1fd0a4f28419497f9722a3daafe3b4186f6b6457e060405160405180910390a35050565b6000604051905090565b600080fd5b600080fd5b600080fd5b600080fd5b6000601f19601f8301169050919050565b7f4e487b7100000000000000000000000000000000000000000000000000000000600052604160045260246000fd5b620002618262000216565b810181811067ffffffffffffffff8211171562000283576200028262000227565b5b80604052505050565b600062000298620001f8565b9050620002a6828262000256565b919050565b600067ffffffffffffffff821115620002c957620002c862000227565b5b620002d48262000216565b9050602081019050919050565b60005b8381101562000301578082015181840152602081019050620002e4565b60008484015250505050565b6000620003246200031e84620002ab565b6200028c565b90508281526020810184848401111562000343576200034262000211565b5b62000350848285620002e1565b509392505050565b600082601f83011262000370576200036f6200020c565b5b8151620003828482602086016200030d565b91505092915050565b600060208284031215620003a457620003a362000202565b5b600082015167ffffffffffffffff811115620003c557620003c462000207565b5b620003d38482850162000358565b91505092915050565b600081519050919050565b7f4e487b7100000000000000000000000000000000000000000000000000000000600052602260045260246000fd5b600060028204905060018216806200042f57607f821691505b602082108103620004455762000444620003e7565b5b50919050565b60008190508160005260206000209050919050565b60006020601f8301049050919050565b600082821b905092915050565b600060088302620004af7fffffffffffffffffffffffffffffffffffffffffffffffffffffffffffffffff8262000470565b620004bb868362000470565b95508019841693508086168417925050509392505050565b6000819050919050565b6000819050919050565b60006200050862000502620004fc84620004d3565b620004dd565b620004d3565b9050919050565b6000819050919050565b6200052483620004e7565b6200053c62000533826200050f565b8484546200047d565b825550505050565b600090565b6200055362000544565b6200056081848462000519565b505050565b5b8181101562000588576200057c60008262000549565b60018101905062000566565b5050565b601f821115620005d757620005a1816200044b565b620005ac8462000460565b81016020851015620005bc578190505b620005d4620005cb8562000460565b83018262000565565b50505b505050565b600082821c905092915050565b6000620005fc60001984600802620005dc565b1980831691505092915050565b6000620006178383620005e9565b9150826002028217905092915050565b6200063282620003dc565b67ffffffffffffffff8111156200064e576200064d62000227565b5b6200065a825462000416565b620006678282856200058c565b600060209050601f8311600181146200069f57600084156200068a578287015190505b62000696858262000609565b86555062000706565b601f198416620006af866200044b565b60005b82811015620006d957848901518255600182019150602085019450602081019050620006b2565b86831015620006f95784890151620006f5601f891682620005e9565b8355505b6001600288020188555050505b505050505050565b613d95806200071e6000396000f3fe6080604052600436106101cd5760003560e01c8063714c5398116100f7578063b33712c511610095578063d547cfb711610064578063d547cfb71461062f578063e985e9c51461065a578063f2fde38b14610697578063fca3b5aa146106c0576101cd565b8063b33712c514610587578063b88d4fde1461059e578063c87b56dd146105c7578063d52079b414610604576101cd565b80638da5cb5b116100d15780638da5cb5b146104df57806395d89b411461050a5780639727151a14610535578063a22cb4651461055e576101cd565b8063714c539814610493578063715018a6146104be578063853828b6146104d5576101cd565b806334d722c91161016f57806355f804b31161013e57806355f804b3146103c55780635c975abb146103ee5780636352211e1461041957806370a0823114610456576101cd565b806334d722c91461031d57806342842e0e14610348578063439766ce146103715780634f558e7914610388576101cd565b8063095ea7b3116101ab578063095ea7b31461027757806318160ddd146102a057806323b872dd146102cb57806332761d16146102f4576101cd565b806301ffc9a7146101d257806306fdde031461020f578063081812fc1461023a575b600080fd5b3480156101de57600080fd5b506101f960048036038101906101f4919061261e565b6106e9565b6040516102069190612666565b60405180910390f35b34801561021b57600080fd5b506102246107cb565b6040516102319190612711565b60405180910390f35b34801561024657600080fd5b50610261600480360381019061025c9190612769565b61085d565b60405161026e91906127d7565b60405180910390f35b34801561028357600080fd5b5061029e6004803603810190610299919061281e565b6108a3565b005b3480156102ac57600080fd5b506102b56109ba565b6040516102c2919061286d565b60405180910390f35b3480156102d757600080fd5b506102f260048036038101906102ed9190612888565b6109c4565b005b34801561030057600080fd5b5061031b6004803603810190610316919061281e565b610a24565b005b34801561032957600080fd5b50610332610b70565b60405161033f91906127d7565b60405180910390f35b34801561035457600080fd5b5061036f600480360381019061036a9190612888565b610b96565b005b34801561037d57600080fd5b50610386610bb6565b005b34801561039457600080fd5b506103af60048036038101906103aa9190612769565b610c3c565b6040516103bc9190612666565b60405180910390f35b3480156103d157600080fd5b506103ec60048036038101906103e79190612940565b610c4e565b005b3480156103fa57600080fd5b50610403610c6c565b6040516104109190612666565b60405180910390f35b34801561042557600080fd5b50610440600480360381019061043b9190612769565b610c83565b60405161044d91906127d7565b60405180910390f35b34801561046257600080fd5b5061047d6004803603810190610478919061298d565b610d09565b60405161048a919061286d565b60405180910390f35b34801561049f57600080fd5b506104a8610dc0565b6040516104b59190612711565b60405180910390f35b3480156104ca57600080fd5b506104d3610e52565b005b6104dd610e66565b005b3480156104eb57600080fd5b506104f4610f1d565b60405161050191906127d7565b60405180910390f35b34801561051657600080fd5b5061051f610f47565b60405161052c9190612711565b60405180910390f35b34801561054157600080fd5b5061055c600480360381019061055791906129f8565b610fd9565b005b34801561056a57600080fd5b5061058560048036038101906105809190612a64565b6110ca565b005b34801561059357600080fd5b5061059c6110e0565b005b3480156105aa57600080fd5b506105c560048036038101906105c09190612bd4565b611167565b005b3480156105d357600080fd5b506105ee60048036038101906105e99190612769565b6111c9565b6040516105fb9190612711565b60405180910390f35b34801561061057600080fd5b50610619611245565b604051610626919061286d565b60405180910390f35b34801561063b57600080fd5b5061064461124b565b6040516106519190612711565b60405180910390f35b34801561066657600080fd5b50610681600480360381019061067c9190612c57565b6112d9565b60405161068e9190612666565b60405180910390f35b3480156106a357600080fd5b506106be60048036038101906106b9919061298d565b61136d565b005b3480156106cc57600080fd5b506106e760048036038101906106e2919061298d565b6113f0565b005b60007f80ac58cd000000000000000000000000000000000000000000000000000000007bffffffffffffffffffffffffffffffffffffffffffffffffffffffff1916827bffffffffffffffffffffffffffffffffffffffffffffffffffffffff191614806107b457507f5b5e139f000000000000000000000000000000000000000000000000000000007bffffffffffffffffffffffffffffffffffffffffffffffffffffffff1916827bffffffffffffffffffffffffffffffffffffffffffffffffffffffff1916145b806107c457506107c3826114ab565b5b9050919050565b6060600080546107da90612cc6565b80601f016020809104026020016040519081016040528092919081815260200182805461080690612cc6565b80156108535780601f1061082857610100808354040283529160200191610853565b820191906000526020600020905b81548152906001019060200180831161083657829003601f168201915b5050505050905090565b600061086882611515565b6004600083815260200190815260200160002060009054906101000a900473ffffffffffffffffffffffffffffffffffffffff169050919050565b60006108ae82610c83565b90508073ffffffffffffffffffffffffffffffffffffffff168373ffffffffffffffffffffffffffffffffffffffff160361091e576040517f08c379a000000000000000000000000000000000000000000000000000000000815260040161091590612d69565b60405180910390fd5b8073ffffffffffffffffffffffffffffffffffffffff1661093d611560565b73ffffffffffffffffffffffffffffffffffffffff16148061096c575061096b81610966611560565b6112d9565b5b6109ab576040517f08c379a00000000000000000000000000000000000000000000000000000000081526004016109a290612dfb565b60405180910390fd5b6109b58383611568565b505050565b6000600a54905090565b6109d56109cf611560565b82611621565b610a14576040517f08c379a0000000000000000000000000000000000000000000000000000000008152600401610a0b90612e8d565b60405180910390fd5b610a1f8383836116b6565b505050565b610a2c6119af565b610a34610c6c565b15610a74576040517f08c379a0000000000000000000000000000000000000000000000000000000008152600401610a6b90612ef9565b60405180910390fd5b600860009054906101000a900473ffffffffffffffffffffffffffffffffffffffff1673ffffffffffffffffffffffffffffffffffffffff16610ab5611560565b73ffffffffffffffffffffffffffffffffffffffff1614610b0b576040517f08c379a0000000000000000000000000000000000000000000000000000000008152600401610b0290612f65565b60405180910390fd5b600a60008154610b1a90612fb4565b919050819055507f604e0f34ba8d6d3f7f48c01c251c7bf880d71369b217e5b976ca6120cc51710c8282604051610b52929190612ffc565b60405180910390a1610b6482826119fe565b610b6c611a1c565b5050565b600860009054906101000a900473ffffffffffffffffffffffffffffffffffffffff1681565b610bb183838360405180602001604052806000815250611167565b505050565b610bbe611a26565b3073ffffffffffffffffffffffffffffffffffffffff16635c975abb6040518163ffffffff1660e01b8152600401602060405180830381865afa158015610c09573d6000803e3d6000fd5b505050506040513d601f19601f82011682018060405250810190610c2d919061303a565b610c3a57610c39611aa4565b5b565b6000610c4782611b07565b9050919050565b610c56611a26565b818160099182610c6792919061321e565b505050565b6000600660009054906101000a900460ff16905090565b600080610c8f83611b48565b9050600073ffffffffffffffffffffffffffffffffffffffff168173ffffffffffffffffffffffffffffffffffffffff1603610d00576040517f08c379a0000000000000000000000000000000000000000000000000000000008152600401610cf79061333a565b60405180910390fd5b80915050919050565b60008073ffffffffffffffffffffffffffffffffffffffff168273ffffffffffffffffffffffffffffffffffffffff1603610d79576040517f08c379a0000000000000000000000000000000000000000000000000000000008152600401610d70906133cc565b60405180910390fd5b600360008373ffffffffffffffffffffffffffffffffffffffff1673ffffffffffffffffffffffffffffffffffffffff168152602001908152602001600020549050919050565b606060098054610dcf90612cc6565b80601f0160208091040260200160405190810160405280929190818152602001828054610dfb90612cc6565b8015610e485780601f10610e1d57610100808354040283529160200191610e48565b820191906000526020600020905b815481529060010190602001808311610e2b57829003601f168201915b5050505050905090565b610e5a611a26565b610e646000611b85565b565b610e6e611a26565b60003373ffffffffffffffffffffffffffffffffffffffff1647604051610e949061341d565b60006040518083038185875af1925050503d8060008114610ed1576040519150601f19603f3d011682016040523d82523d6000602084013e610ed6565b606091505b5050905080610f1a576040517f08c379a0000000000000000000000000000000000000000000000000000000008152600401610f119061347e565b60405180910390fd5b50565b6000600660019054906101000a900473ffffffffffffffffffffffffffffffffffffffff16905090565b606060018054610f5690612cc6565b80601f0160208091040260200160405190810160405280929190818152602001828054610f8290612cc6565b8015610fcf5780601f10610fa457610100808354040283529160200191610fcf565b820191906000526020600020905b815481529060010190602001808311610fb257829003601f168201915b5050505050905090565b610fe1611a26565b600073ffffffffffffffffffffffffffffffffffffffff163373ffffffffffffffffffffffffffffffffffffffff1603611047576040517f48ac165200000000000000000000000000000000000000000000000000000000815260040160405180910390fd5b8173ffffffffffffffffffffffffffffffffffffffff1663a9059cbb33836040518363ffffffff1660e01b8152600401611082929190612ffc565b6020604051808303816000875af11580156110a1573d6000803e3d6000fd5b505050506040513d601f19601f820116820180604052508101906110c5919061303a565b505050565b6110dc6110d5611560565b8383611c4b565b5050565b6110e8611a26565b3073ffffffffffffffffffffffffffffffffffffffff16635c975abb6040518163ffffffff1660e01b8152600401602060405180830381865afa158015611133573d6000803e3d6000fd5b505050506040513d601f19601f82011682018060405250810190611157919061303a565b1561116557611164611db7565b5b565b611178611172611560565b83611621565b6111b7576040517f08c379a00000000000000000000000000000000000000000000000000000000081526004016111ae90612e8d565b60405180910390fd5b6111c384848484611e1a565b50505050565b60606111d482611b07565b611213576040517f08c379a000000000000000000000000000000000000000000000000000000000815260040161120a90613510565b60405180910390fd5b600961121e83611e76565b60405160200161122f9291906135ef565b6040516020818303038152906040529050919050565b600a5481565b6009805461125890612cc6565b80601f016020809104026020016040519081016040528092919081815260200182805461128490612cc6565b80156112d15780601f106112a6576101008083540402835291602001916112d1565b820191906000526020600020905b8154815290600101906020018083116112b457829003601f168201915b505050505081565b6000600560008473ffffffffffffffffffffffffffffffffffffffff1673ffffffffffffffffffffffffffffffffffffffff16815260200190815260200160002060008373ffffffffffffffffffffffffffffffffffffffff1673ffffffffffffffffffffffffffffffffffffffff16815260200190815260200160002060009054906101000a900460ff16905092915050565b611375611a26565b600073ffffffffffffffffffffffffffffffffffffffff168173ffffffffffffffffffffffffffffffffffffffff16036113e4576040517f08c379a00000000000000000000000000000000000000000000000000000000081526004016113db90613685565b60405180910390fd5b6113ed81611b85565b50565b6113f8611a26565b600073ffffffffffffffffffffffffffffffffffffffff168173ffffffffffffffffffffffffffffffffffffffff1603611467576040517f08c379a000000000000000000000000000000000000000000000000000000000815260040161145e906136f1565b60405180910390fd5b80600860006101000a81548173ffffffffffffffffffffffffffffffffffffffff021916908373ffffffffffffffffffffffffffffffffffffffff16021790555050565b60007f01ffc9a7000000000000000000000000000000000000000000000000000000007bffffffffffffffffffffffffffffffffffffffffffffffffffffffff1916827bffffffffffffffffffffffffffffffffffffffffffffffffffffffff1916149050919050565b61151e81611b07565b61155d576040517f08c379a00000000000000000000000000000000000000000000000000000000081526004016115549061333a565b60405180910390fd5b50565b600033905090565b816004600083815260200190815260200160002060006101000a81548173ffffffffffffffffffffffffffffffffffffffff021916908373ffffffffffffffffffffffffffffffffffffffff160217905550808273ffffffffffffffffffffffffffffffffffffffff166115db83610c83565b73ffffffffffffffffffffffffffffffffffffffff167f8c5be1e5ebec7d5bd14f71427d1e84f3dd0314c0f7b2291e5b200ac8c7c3b92560405160405180910390a45050565b60008061162d83610c83565b90508073ffffffffffffffffffffffffffffffffffffffff168473ffffffffffffffffffffffffffffffffffffffff16148061166f575061166e81856112d9565b5b806116ad57508373ffffffffffffffffffffffffffffffffffffffff166116958461085d565b73ffffffffffffffffffffffffffffffffffffffff16145b91505092915050565b8273ffffffffffffffffffffffffffffffffffffffff166116d682610c83565b73ffffffffffffffffffffffffffffffffffffffff161461172c576040517f08c379a000000000000000000000000000000000000000000000000000000000815260040161172390613783565b60405180910390fd5b600073ffffffffffffffffffffffffffffffffffffffff168273ffffffffffffffffffffffffffffffffffffffff160361179b576040517f08c379a000000000000000000000000000000000000000000000000000000000815260040161179290613815565b60405180910390fd5b6117a88383836001611f44565b8273ffffffffffffffffffffffffffffffffffffffff166117c882610c83565b73ffffffffffffffffffffffffffffffffffffffff161461181e576040517f08c379a000000000000000000000000000000000000000000000000000000000815260040161181590613783565b60405180910390fd5b6004600082815260200190815260200160002060006101000a81549073ffffffffffffffffffffffffffffffffffffffff02191690556001600360008573ffffffffffffffffffffffffffffffffffffffff1673ffffffffffffffffffffffffffffffffffffffff168152602001908152602001600020600082825403925050819055506001600360008473ffffffffffffffffffffffffffffffffffffffff1673ffffffffffffffffffffffffffffffffffffffff16815260200190815260200160002060008282540192505081905550816002600083815260200190815260200160002060006101000a81548173ffffffffffffffffffffffffffffffffffffffff021916908373ffffffffffffffffffffffffffffffffffffffff160217905550808273ffffffffffffffffffffffffffffffffffffffff168473ffffffffffffffffffffffffffffffffffffffff167fddf252ad1be2c89b69c2b068fc378daa952ba7f163c4a11628f55a4df523b3ef60405160405180910390a46119aa8383836001611f9e565b505050565b6002600754036119f4576040517f08c379a00000000000000000000000000000000000000000000000000000000081526004016119eb90613881565b60405180910390fd5b6002600781905550565b611a18828260405180602001604052806000815250611fa4565b5050565b6001600781905550565b611a2e611560565b73ffffffffffffffffffffffffffffffffffffffff16611a4c610f1d565b73ffffffffffffffffffffffffffffffffffffffff1614611aa2576040517f08c379a0000000000000000000000000000000000000000000000000000000008152600401611a99906138ed565b60405180910390fd5b565b611aac611fff565b6001600660006101000a81548160ff0219169083151502179055507f62e78cea01bee320cd4e420270b5ea74000d11b0c9f74754ebdbfc544b05a258611af0611560565b604051611afd91906127d7565b60405180910390a1565b60008073ffffffffffffffffffffffffffffffffffffffff16611b2983611b48565b73ffffffffffffffffffffffffffffffffffffffff1614159050919050565b60006002600083815260200190815260200160002060009054906101000a900473ffffffffffffffffffffffffffffffffffffffff169050919050565b6000600660019054906101000a900473ffffffffffffffffffffffffffffffffffffffff16905081600660016101000a81548173ffffffffffffffffffffffffffffffffffffffff021916908373ffffffffffffffffffffffffffffffffffffffff1602179055508173ffffffffffffffffffffffffffffffffffffffff168173ffffffffffffffffffffffffffffffffffffffff167f8be0079c531659141344cd1fd0a4f28419497f9722a3daafe3b4186f6b6457e060405160405180910390a35050565b8173ffffffffffffffffffffffffffffffffffffffff168373ffffffffffffffffffffffffffffffffffffffff1603611cb9576040517f08c379a0000000000000000000000000000000000000000000000000000000008152600401611cb090613959565b60405180910390fd5b80600560008573ffffffffffffffffffffffffffffffffffffffff1673ffffffffffffffffffffffffffffffffffffffff16815260200190815260200160002060008473ffffffffffffffffffffffffffffffffffffffff1673ffffffffffffffffffffffffffffffffffffffff16815260200190815260200160002060006101000a81548160ff0219169083151502179055508173ffffffffffffffffffffffffffffffffffffffff168373ffffffffffffffffffffffffffffffffffffffff167f17307eab39ab6107e8899845ad3d59bd9653f200f220920489ca2b5937696c3183604051611daa9190612666565b60405180910390a3505050565b611dbf612049565b6000600660006101000a81548160ff0219169083151502179055507f5db9ee0a495bf2e6ff9c91a7834c1ba4fdd244a5e8aa4e537bd38aeae4b073aa611e03611560565b604051611e1091906127d7565b60405180910390a1565b611e258484846116b6565b611e3184848484612092565b611e70576040517f08c379a0000000000000000000000000000000000000000000000000000000008152600401611e67906139eb565b60405180910390fd5b50505050565b606060006001611e8584612219565b01905060008167ffffffffffffffff811115611ea457611ea3612aa9565b5b6040519080825280601f01601f191660200182016040528015611ed65781602001600182028036833780820191505090505b509050600082602001820190505b600115611f39578080600190039150507f3031323334353637383961626364656600000000000000000000000000000000600a86061a8153600a8581611f2d57611f2c613a0b565b5b04945060008503611ee4575b819350505050919050565b611f508484848461236c565b611f58610c6c565b15611f98576040517f08c379a0000000000000000000000000000000000000000000000000000000008152600401611f8f90613aac565b60405180910390fd5b50505050565b50505050565b611fae8383612372565b611fbb6000848484612092565b611ffa576040517f08c379a0000000000000000000000000000000000000000000000000000000008152600401611ff1906139eb565b60405180910390fd5b505050565b612007610c6c565b15612047576040517f08c379a000000000000000000000000000000000000000000000000000000000815260040161203e90613b18565b60405180910390fd5b565b612051610c6c565b612090576040517f08c379a000000000000000000000000000000000000000000000000000000000815260040161208790613b84565b60405180910390fd5b565b60006120b38473ffffffffffffffffffffffffffffffffffffffff1661258f565b1561220c578373ffffffffffffffffffffffffffffffffffffffff1663150b7a026120dc611560565b8786866040518563ffffffff1660e01b81526004016120fe9493929190613bf9565b6020604051808303816000875af192505050801561213a57506040513d601f19601f820116820180604052508101906121379190613c5a565b60015b6121bc573d806000811461216a576040519150601f19603f3d011682016040523d82523d6000602084013e61216f565b606091505b5060008151036121b4576040517f08c379a00000000000000000000000000000000000000000000000000000000081526004016121ab906139eb565b60405180910390fd5b805181602001fd5b63150b7a0260e01b7bffffffffffffffffffffffffffffffffffffffffffffffffffffffff1916817bffffffffffffffffffffffffffffffffffffffffffffffffffffffff191614915050612211565b600190505b949350505050565b600080600090507a184f03e93ff9f4daa797ed6e38ed64bf6a1f0100000000000000008310612277577a184f03e93ff9f4daa797ed6e38ed64bf6a1f010000000000000000838161226d5761226c613a0b565b5b0492506040810190505b6d04ee2d6d415b85acef810000000083106122b4576d04ee2d6d415b85acef810000000083816122aa576122a9613a0b565b5b0492506020810190505b662386f26fc1000083106122e357662386f26fc1000083816122d9576122d8613a0b565b5b0492506010810190505b6305f5e100831061230c576305f5e100838161230257612301613a0b565b5b0492506008810190505b612710831061233157612710838161232757612326613a0b565b5b0492506004810190505b60648310612354576064838161234a57612349613a0b565b5b0492506002810190505b600a8310612363576001810190505b80915050919050565b50505050565b600073ffffffffffffffffffffffffffffffffffffffff168273ffffffffffffffffffffffffffffffffffffffff16036123e1576040517f08c379a00000000000000000000000000000000000000000000000000000000081526004016123d890613cd3565b60405180910390fd5b6123ea81611b07565b1561242a576040517f08c379a000000000000000000000000000000000000000000000000000000000815260040161242190613d3f565b60405180910390fd5b612438600083836001611f44565b61244181611b07565b15612481576040517f08c379a000000000000000000000000000000000000000000000000000000000815260040161247890613d3f565b60405180910390fd5b6001600360008473ffffffffffffffffffffffffffffffffffffffff1673ffffffffffffffffffffffffffffffffffffffff16815260200190815260200160002060008282540192505081905550816002600083815260200190815260200160002060006101000a81548173ffffffffffffffffffffffffffffffffffffffff021916908373ffffffffffffffffffffffffffffffffffffffff160217905550808273ffffffffffffffffffffffffffffffffffffffff16600073ffffffffffffffffffffffffffffffffffffffff167fddf252ad1be2c89b69c2b068fc378daa952ba7f163c4a11628f55a4df523b3ef60405160405180910390a461258b600083836001611f9e565b5050565b6000808273ffffffffffffffffffffffffffffffffffffffff163b119050919050565b6000604051905090565b600080fd5b600080fd5b60007fffffffff0000000000000000000000000000000000000000000000000000000082169050919050565b6125fb816125c6565b811461260657600080fd5b50565b600081359050612618816125f2565b92915050565b600060208284031215612634576126336125bc565b5b600061264284828501612609565b91505092915050565b60008115159050919050565b6126608161264b565b82525050565b600060208201905061267b6000830184612657565b92915050565b600081519050919050565b600082825260208201905092915050565b60005b838110156126bb5780820151818401526020810190506126a0565b60008484015250505050565b6000601f19601f8301169050919050565b60006126e382612681565b6126ed818561268c565b93506126fd81856020860161269d565b612706816126c7565b840191505092915050565b6000602082019050818103600083015261272b81846126d8565b905092915050565b6000819050919050565b61274681612733565b811461275157600080fd5b50565b6000813590506127638161273d565b92915050565b60006020828403121561277f5761277e6125bc565b5b600061278d84828501612754565b91505092915050565b600073ffffffffffffffffffffffffffffffffffffffff82169050919050565b60006127c182612796565b9050919050565b6127d1816127b6565b82525050565b60006020820190506127ec60008301846127c8565b92915050565b6127fb816127b6565b811461280657600080fd5b50565b600081359050612818816127f2565b92915050565b60008060408385031215612835576128346125bc565b5b600061284385828601612809565b925050602061285485828601612754565b9150509250929050565b61286781612733565b82525050565b6000602082019050612882600083018461285e565b92915050565b6000806000606084860312156128a1576128a06125bc565b5b60006128af86828701612809565b93505060206128c086828701612809565b92505060406128d186828701612754565b9150509250925092565b600080fd5b600080fd5b600080fd5b60008083601f840112612900576128ff6128db565b5b8235905067ffffffffffffffff81111561291d5761291c6128e0565b5b602083019150836001820283011115612939576129386128e5565b5b9250929050565b60008060208385031215612957576129566125bc565b5b600083013567ffffffffffffffff811115612975576129746125c1565b5b612981858286016128ea565b92509250509250929050565b6000602082840312156129a3576129a26125bc565b5b60006129b184828501612809565b91505092915050565b60006129c5826127b6565b9050919050565b6129d5816129ba565b81146129e057600080fd5b50565b6000813590506129f2816129cc565b92915050565b60008060408385031215612a0f57612a0e6125bc565b5b6000612a1d858286016129e3565b9250506020612a2e85828601612754565b9150509250929050565b612a418161264b565b8114612a4c57600080fd5b50565b600081359050612a5e81612a38565b92915050565b60008060408385031215612a7b57612a7a6125bc565b5b6000612a8985828601612809565b9250506020612a9a85828601612a4f565b9150509250929050565b600080fd5b7f4e487b7100000000000000000000000000000000000000000000000000000000600052604160045260246000fd5b612ae1826126c7565b810181811067ffffffffffffffff82111715612b0057612aff612aa9565b5b80604052505050565b6000612b136125b2565b9050612b1f8282612ad8565b919050565b600067ffffffffffffffff821115612b3f57612b3e612aa9565b5b612b48826126c7565b9050602081019050919050565b82818337600083830152505050565b6000612b77612b7284612b24565b612b09565b905082815260208101848484011115612b9357612b92612aa4565b5b612b9e848285612b55565b509392505050565b600082601f830112612bbb57612bba6128db565b5b8135612bcb848260208601612b64565b91505092915050565b60008060008060808587031215612bee57612bed6125bc565b5b6000612bfc87828801612809565b9450506020612c0d87828801612809565b9350506040612c1e87828801612754565b925050606085013567ffffffffffffffff811115612c3f57612c3e6125c1565b5b612c4b87828801612ba6565b91505092959194509250565b60008060408385031215612c6e57612c6d6125bc565b5b6000612c7c85828601612809565b9250506020612c8d85828601612809565b9150509250929050565b7f4e487b7100000000000000000000000000000000000000000000000000000000600052602260045260246000fd5b60006002820490506001821680612cde57607f821691505b602082108103612cf157612cf0612c97565b5b50919050565b7f4552433732313a20617070726f76616c20746f2063757272656e74206f776e6560008201527f7200000000000000000000000000000000000000000000000000000000000000602082015250565b6000612d5360218361268c565b9150612d5e82612cf7565b604082019050919050565b60006020820190508181036000830152612d8281612d46565b9050919050565b7f4552433732313a20617070726f76652063616c6c6572206973206e6f7420746f60008201527f6b656e206f776e6572206f7220617070726f76656420666f7220616c6c000000602082015250565b6000612de5603d8361268c565b9150612df082612d89565b604082019050919050565b60006020820190508181036000830152612e1481612dd8565b9050919050565b7f4552433732313a2063616c6c6572206973206e6f7420746f6b656e206f776e6560008201527f72206f7220617070726f76656400000000000000000000000000000000000000602082015250565b6000612e77602d8361268c565b9150612e8282612e1b565b604082019050919050565b60006020820190508181036000830152612ea681612e6a565b9050919050565b7f4d696e74696e6720697320706175736564000000000000000000000000000000600082015250565b6000612ee360118361268c565b9150612eee82612ead565b602082019050919050565b60006020820190508181036000830152612f1281612ed6565b9050919050565b7f4d696e7465722061646472657373206973206e6f742076616c69640000000000600082015250565b6000612f4f601b8361268c565b9150612f5a82612f19565b602082019050919050565b60006020820190508181036000830152612f7e81612f42565b9050919050565b7f4e487b7100000000000000000000000000000000000000000000000000000000600052601160045260246000fd5b6000612fbf82612733565b91507fffffffffffffffffffffffffffffffffffffffffffffffffffffffffffffffff8203612ff157612ff0612f85565b5b600182019050919050565b600060408201905061301160008301856127c8565b61301e602083018461285e565b9392505050565b60008151905061303481612a38565b92915050565b6000602082840312156130505761304f6125bc565b5b600061305e84828501613025565b91505092915050565b600082905092915050565b60008190508160005260206000209050919050565b60006020601f8301049050919050565b600082821b905092915050565b6000600883026130d47fffffffffffffffffffffffffffffffffffffffffffffffffffffffffffffffff82613097565b6130de8683613097565b95508019841693508086168417925050509392505050565b6000819050919050565b600061311b61311661311184612733565b6130f6565b612733565b9050919050565b6000819050919050565b61313583613100565b61314961314182613122565b8484546130a4565b825550505050565b600090565b61315e613151565b61316981848461312c565b505050565b5b8181101561318d57613182600082613156565b60018101905061316f565b5050565b601f8211156131d2576131a381613072565b6131ac84613087565b810160208510156131bb578190505b6131cf6131c785613087565b83018261316e565b50505b505050565b600082821c905092915050565b60006131f5600019846008026131d7565b1980831691505092915050565b600061320e83836131e4565b9150826002028217905092915050565b6132288383613067565b67ffffffffffffffff81111561324157613240612aa9565b5b61324b8254612cc6565b613256828285613191565b6000601f8311600181146132855760008415613273578287013590505b61327d8582613202565b8655506132e5565b601f19841661329386613072565b60005b828110156132bb57848901358255600182019150602085019450602081019050613296565b868310156132d857848901356132d4601f8916826131e4565b8355505b6001600288020188555050505b50505050505050565b7f4552433732313a20696e76616c696420746f6b656e2049440000000000000000600082015250565b600061332460188361268c565b915061332f826132ee565b602082019050919050565b6000602082019050818103600083015261335381613317565b9050919050565b7f4552433732313a2061646472657373207a65726f206973206e6f74206120766160008201527f6c6964206f776e65720000000000000000000000000000000000000000000000602082015250565b60006133b660298361268c565b91506133c18261335a565b604082019050919050565b600060208201905081810360008301526133e5816133a9565b9050919050565b600081905092915050565b50565b60006134076000836133ec565b9150613412826133f7565b600082019050919050565b6000613428826133fa565b9150819050919050565b7f776974686472617720776173206e6f742073756363657366756c6c0000000000600082015250565b6000613468601b8361268c565b915061347382613432565b602082019050919050565b600060208201905081810360008301526134978161345b565b9050919050565b7f4552433732314d657461646174613a2055524920717565727920666f72206e6f60008201527f6e6578697374656e7420746f6b656e0000000000000000000000000000000000602082015250565b60006134fa602f8361268c565b91506135058261349e565b604082019050919050565b60006020820190508181036000830152613529816134ed565b9050919050565b600081905092915050565b6000815461354881612cc6565b6135528186613530565b9450600182166000811461356d5760018114613582576135b5565b60ff19831686528115158202860193506135b5565b61358b85613072565b60005b838110156135ad5781548189015260018201915060208101905061358e565b838801955050505b50505092915050565b60006135c982612681565b6135d38185613530565b93506135e381856020860161269d565b80840191505092915050565b60006135fb828561353b565b915061360782846135be565b91508190509392505050565b7f4f776e61626c653a206e6577206f776e657220697320746865207a65726f206160008201527f6464726573730000000000000000000000000000000000000000000000000000602082015250565b600061366f60268361268c565b915061367a82613613565b604082019050919050565b6000602082019050818103600083015261369e81613662565b9050919050565b7f496e76616c6964206d696e746572206164647265737300000000000000000000600082015250565b60006136db60168361268c565b91506136e6826136a5565b602082019050919050565b6000602082019050818103600083015261370a816136ce565b9050919050565b7f4552433732313a207472616e736665722066726f6d20696e636f72726563742060008201527f6f776e6572000000000000000000000000000000000000000000000000000000602082015250565b600061376d60258361268c565b915061377882613711565b604082019050919050565b6000602082019050818103600083015261379c81613760565b9050919050565b7f4552433732313a207472616e7366657220746f20746865207a65726f2061646460008201527f7265737300000000000000000000000000000000000000000000000000000000602082015250565b60006137ff60248361268c565b915061380a826137a3565b604082019050919050565b6000602082019050818103600083015261382e816137f2565b9050919050565b7f5265656e7472616e637947756172643a207265656e7472616e742063616c6c00600082015250565b600061386b601f8361268c565b915061387682613835565b602082019050919050565b6000602082019050818103600083015261389a8161385e565b9050919050565b7f4f776e61626c653a2063616c6c6572206973206e6f7420746865206f776e6572600082015250565b60006138d760208361268c565b91506138e2826138a1565b602082019050919050565b60006020820190508181036000830152613906816138ca565b9050919050565b7f4552433732313a20617070726f766520746f2063616c6c657200000000000000600082015250565b600061394360198361268c565b915061394e8261390d565b602082019050919050565b6000602082019050818103600083015261397281613936565b9050919050565b7f4552433732313a207472616e7366657220746f206e6f6e20455243373231526560008201527f63656976657220696d706c656d656e7465720000000000000000000000000000602082015250565b60006139d560328361268c565b91506139e082613979565b604082019050919050565b60006020820190508181036000830152613a04816139c8565b9050919050565b7f4e487b7100000000000000000000000000000000000000000000000000000000600052601260045260246000fd5b7f4552433732315061757361626c653a20746f6b656e207472616e73666572207760008201527f68696c6520706175736564000000000000000000000000000000000000000000602082015250565b6000613a96602b8361268c565b9150613aa182613a3a565b604082019050919050565b60006020820190508181036000830152613ac581613a89565b9050919050565b7f5061757361626c653a2070617573656400000000000000000000000000000000600082015250565b6000613b0260108361268c565b9150613b0d82613acc565b602082019050919050565b60006020820190508181036000830152613b3181613af5565b9050919050565b7f5061757361626c653a206e6f7420706175736564000000000000000000000000600082015250565b6000613b6e60148361268c565b9150613b7982613b38565b602082019050919050565b60006020820190508181036000830152613b9d81613b61565b9050919050565b600081519050919050565b600082825260208201905092915050565b6000613bcb82613ba4565b613bd58185613baf565b9350613be581856020860161269d565b613bee816126c7565b840191505092915050565b6000608082019050613c0e60008301876127c8565b613c1b60208301866127c8565b613c28604083018561285e565b8181036060830152613c3a8184613bc0565b905095945050505050565b600081519050613c54816125f2565b92915050565b600060208284031215613c7057613c6f6125bc565b5b6000613c7e84828501613c45565b91505092915050565b7f4552433732313a206d696e7420746f20746865207a65726f2061646472657373600082015250565b6000613cbd60208361268c565b9150613cc882613c87565b602082019050919050565b60006020820190508181036000830152613cec81613cb0565b9050919050565b7f4552433732313a20746f6b656e20616c7265616479206d696e74656400000000600082015250565b6000613d29601c8361268c565b9150613d3482613cf3565b602082019050919050565b60006020820190508181036000830152613d5881613d1c565b905091905056fea26469706673582212205cc6905b0ff5864ce1d67c2ba250780a050e6195cc4728a8c2f1cb66d9d4906c64736f6c63430008120033",
  "linkReferences": {},
  "deployedLinkReferences": {}
}