{
  "_format": "hh-sol-artifact-1",
  "contractName": "RuniverseItem",
  "sourceName": "contracts/RuniverseItem.sol",
  "abi": [
    {
      "inputs": [
        {
          "internalType": "string",
          "name": "_baseURI",
          "type": "string"
        }
      ],
      "stateMutability": "nonpayable",
      "type": "constructor"
    },
    {
      "inputs": [],
      "name": "Address0Error",
      "type": "error"
    },
    {
      "anonymous": false,
      "inputs": [
        {
          "indexed": true,
          "internalType": "address",
          "name": "owner",
          "type": "address"
        },
        {
          "indexed": true,
          "internalType": "address",
          "name": "approved",
          "type": "address"
        },
        {
          "indexed": true,
          "internalType": "uint256",
          "name": "tokenId",
          "type": "uint256"
        }
      ],
      "name": "Approval",
      "type": "event"
    },
    {
      "anonymous": false,
      "inputs": [
        {
          "indexed": true,
          "internalType": "address",
          "name": "owner",
          "type": "address"
        },
        {
          "indexed": true,
          "internalType": "address",
          "name": "operator",
          "type": "address"
        },
        {
          "indexed": false,
          "internalType": "bool",
          "name": "approved",
          "type": "bool"
        }
      ],
      "name": "ApprovalForAll",
      "type": "event"
    },
    {
      "anonymous": false,
      "inputs": [
        {
          "indexed": true,
          "internalType": "uint256",
          "name": "_tokenId",
          "type": "uint256"
        },
        {
          "indexed": true,
          "internalType": "uint256",
          "name": "_nonce",
          "type": "uint256"
        }
      ],
      "name": "NonceUpdated",
      "type": "event"
    },
    {
      "anonymous": false,
      "inputs": [
        {
          "indexed": true,
          "internalType": "address",
          "name": "previousOwner",
          "type": "address"
        },
        {
          "indexed": true,
          "internalType": "address",
          "name": "newOwner",
          "type": "address"
        }
      ],
      "name": "OwnershipTransferred",
      "type": "event"
    },
    {
      "anonymous": false,
      "inputs": [
        {
          "indexed": false,
          "internalType": "address",
          "name": "account",
          "type": "address"
        }
      ],
      "name": "Paused",
      "type": "event"
    },
    {
      "anonymous": false,
      "inputs": [
        {
          "indexed": true,
          "internalType": "bytes32",
          "name": "role",
          "type": "bytes32"
        },
        {
          "indexed": true,
          "internalType": "bytes32",
          "name": "previousAdminRole",
          "type": "bytes32"
        },
        {
          "indexed": true,
          "internalType": "bytes32",
          "name": "newAdminRole",
          "type": "bytes32"
        }
      ],
      "name": "RoleAdminChanged",
      "type": "event"
    },
    {
      "anonymous": false,
      "inputs": [
        {
          "indexed": true,
          "internalType": "bytes32",
          "name": "role",
          "type": "bytes32"
        },
        {
          "indexed": true,
          "internalType": "address",
          "name": "account",
          "type": "address"
        },
        {
          "indexed": true,
          "internalType": "address",
          "name": "sender",
          "type": "address"
        }
      ],
      "name": "RoleGranted",
      "type": "event"
    },
    {
      "anonymous": false,
      "inputs": [
        {
          "indexed": true,
          "internalType": "bytes32",
          "name": "role",
          "type": "bytes32"
        },
        {
          "indexed": true,
          "internalType": "address",
          "name": "account",
          "type": "address"
        },
        {
          "indexed": true,
          "internalType": "address",
          "name": "sender",
          "type": "address"
        }
      ],
      "name": "RoleRevoked",
      "type": "event"
    },
    {
      "anonymous": false,
      "inputs": [
        {
          "indexed": false,
          "internalType": "address",
          "name": "to",
          "type": "address"
        },
        {
          "indexed": false,
          "internalType": "uint256",
          "name": "tokenId",
          "type": "uint256"
        }
      ],
      "name": "RuniverseItemMinted",
      "type": "event"
    },
    {
      "anonymous": false,
      "inputs": [
        {
          "indexed": true,
          "internalType": "address",
          "name": "from",
          "type": "address"
        },
        {
          "indexed": true,
          "internalType": "address",
          "name": "to",
          "type": "address"
        },
        {
          "indexed": true,
          "internalType": "uint256",
          "name": "tokenId",
          "type": "uint256"
        }
      ],
      "name": "Transfer",
      "type": "event"
    },
    {
      "anonymous": false,
      "inputs": [
        {
          "indexed": false,
          "internalType": "address",
          "name": "account",
          "type": "address"
        }
      ],
      "name": "Unpaused",
      "type": "event"
    },
    {
      "inputs": [],
      "name": "DEFAULT_ADMIN_ROLE",
      "outputs": [
        {
          "internalType": "bytes32",
          "name": "",
          "type": "bytes32"
        }
      ],
      "stateMutability": "view",
      "type": "function"
    },
    {
      "inputs": [],
      "name": "MINTER_ROLE",
      "outputs": [
        {
          "internalType": "bytes32",
          "name": "",
          "type": "bytes32"
        }
      ],
      "stateMutability": "view",
      "type": "function"
    },
    {
      "inputs": [],
      "name": "PAUSER_ROLE",
      "outputs": [
        {
          "internalType": "bytes32",
          "name": "",
          "type": "bytes32"
        }
      ],
      "stateMutability": "view",
      "type": "function"
    },
    {
      "inputs": [
        {
          "internalType": "address",
          "name": "to",
          "type": "address"
        },
        {
          "internalType": "uint256",
          "name": "tokenId",
          "type": "uint256"
        }
      ],
      "name": "approve",
      "outputs": [],
      "stateMutability": "nonpayable",
      "type": "function"
    },
    {
      "inputs": [
        {
          "internalType": "address",
          "name": "owner",
          "type": "address"
        }
      ],
      "name": "balanceOf",
      "outputs": [
        {
          "internalType": "uint256",
          "name": "",
          "type": "uint256"
        }
      ],
      "stateMutability": "view",
      "type": "function"
    },
    {
      "inputs": [],
      "name": "baseTokenURI",
      "outputs": [
        {
          "internalType": "string",
          "name": "",
          "type": "string"
        }
      ],
      "stateMutability": "view",
      "type": "function"
    },
    {
      "inputs": [
        {
          "internalType": "address[]",
          "name": "_recipients",
          "type": "address[]"
        }
      ],
      "name": "bulkMint",
      "outputs": [
        {
          "internalType": "uint256[]",
          "name": "_tokenIds",
          "type": "uint256[]"
        }
      ],
      "stateMutability": "nonpayable",
      "type": "function"
    },
    {
      "inputs": [
        {
          "internalType": "uint256",
          "name": "tokenId",
          "type": "uint256"
        }
      ],
      "name": "burn",
      "outputs": [],
      "stateMutability": "nonpayable",
      "type": "function"
    },
    {
      "inputs": [
        {
          "internalType": "uint256",
          "name": "tokenId",
          "type": "uint256"
        }
      ],
      "name": "exists",
      "outputs": [
        {
          "internalType": "bool",
          "name": "",
          "type": "bool"
        }
      ],
      "stateMutability": "view",
      "type": "function"
    },
    {
      "inputs": [
        {
          "internalType": "contract IERC20",
          "name": "token",
          "type": "address"
        },
        {
          "internalType": "uint256",
          "name": "amount",
          "type": "uint256"
        }
      ],
      "name": "forwardERC20s",
      "outputs": [],
      "stateMutability": "nonpayable",
      "type": "function"
    },
    {
      "inputs": [
        {
          "internalType": "uint256",
          "name": "tokenId",
          "type": "uint256"
        }
      ],
      "name": "getApproved",
      "outputs": [
        {
          "internalType": "address",
          "name": "",
          "type": "address"
        }
      ],
      "stateMutability": "view",
      "type": "function"
    },
    {
      "inputs": [],
      "name": "getBaseURI",
      "outputs": [
        {
          "internalType": "string",
          "name": "",
          "type": "string"
        }
      ],
      "stateMutability": "view",
      "type": "function"
    },
    {
      "inputs": [
        {
          "internalType": "bytes32",
          "name": "role",
          "type": "bytes32"
        }
      ],
      "name": "getRoleAdmin",
      "outputs": [
        {
          "internalType": "bytes32",
          "name": "",
          "type": "bytes32"
        }
      ],
      "stateMutability": "view",
      "type": "function"
    },
    {
      "inputs": [
        {
          "internalType": "bytes32",
          "name": "role",
          "type": "bytes32"
        },
        {
          "internalType": "uint256",
          "name": "index",
          "type": "uint256"
        }
      ],
      "name": "getRoleMember",
      "outputs": [
        {
          "internalType": "address",
          "name": "",
          "type": "address"
        }
      ],
      "stateMutability": "view",
      "type": "function"
    },
    {
      "inputs": [
        {
          "internalType": "bytes32",
          "name": "role",
          "type": "bytes32"
        }
      ],
      "name": "getRoleMemberCount",
      "outputs": [
        {
          "internalType": "uint256",
          "name": "",
          "type": "uint256"
        }
      ],
      "stateMutability": "view",
      "type": "function"
    },
    {
      "inputs": [
        {
          "internalType": "address",
          "name": "ownerAddress",
          "type": "address"
        }
      ],
      "name": "getTokens",
      "outputs": [
        {
          "internalType": "uint256[]",
          "name": "",
          "type": "uint256[]"
        }
      ],
      "stateMutability": "view",
      "type": "function"
    },
    {
      "inputs": [
        {
          "internalType": "bytes32",
          "name": "role",
          "type": "bytes32"
        },
        {
          "internalType": "address",
          "name": "account",
          "type": "address"
        }
      ],
      "name": "grantRole",
      "outputs": [],
      "stateMutability": "nonpayable",
      "type": "function"
    },
    {
      "inputs": [
        {
          "internalType": "bytes32",
          "name": "role",
          "type": "bytes32"
        },
        {
          "internalType": "address",
          "name": "account",
          "type": "address"
        }
      ],
      "name": "hasRole",
      "outputs": [
        {
          "internalType": "bool",
          "name": "",
          "type": "bool"
        }
      ],
      "stateMutability": "view",
      "type": "function"
    },
    {
      "inputs": [
        {
          "internalType": "address",
          "name": "owner",
          "type": "address"
        },
        {
          "internalType": "address",
          "name": "operator",
          "type": "address"
        }
      ],
      "name": "isApprovedForAll",
      "outputs": [
        {
          "internalType": "bool",
          "name": "",
          "type": "bool"
        }
      ],
      "stateMutability": "view",
      "type": "function"
    },
    {
      "inputs": [
        {
          "internalType": "address",
          "name": "to",
          "type": "address"
        }
      ],
      "name": "mint",
      "outputs": [
        {
          "internalType": "uint256",
          "name": "_tokenId",
          "type": "uint256"
        }
      ],
      "stateMutability": "nonpayable",
      "type": "function"
    },
    {
      "inputs": [
        {
          "internalType": "address",
          "name": "recipient",
          "type": "address"
        },
        {
          "internalType": "uint256",
          "name": "tokenId",
          "type": "uint256"
        }
      ],
      "name": "mintTokenId",
      "outputs": [],
      "stateMutability": "nonpayable",
      "type": "function"
    },
    {
      "inputs": [],
      "name": "minterAddress",
      "outputs": [
        {
          "internalType": "address",
          "name": "",
          "type": "address"
        }
      ],
      "stateMutability": "view",
      "type": "function"
    },
    {
      "inputs": [],
      "name": "name",
      "outputs": [
        {
          "internalType": "string",
          "name": "",
          "type": "string"
        }
      ],
      "stateMutability": "view",
      "type": "function"
    },
    {
      "inputs": [
        {
          "internalType": "uint256",
          "name": "",
          "type": "uint256"
        }
      ],
      "name": "nonces",
      "outputs": [
        {
          "internalType": "uint256",
          "name": "",
          "type": "uint256"
        }
      ],
      "stateMutability": "view",
      "type": "function"
    },
    {
      "inputs": [],
      "name": "numMinted",
      "outputs": [
        {
          "internalType": "uint256",
          "name": "",
          "type": "uint256"
        }
      ],
      "stateMutability": "view",
      "type": "function"
    },
    {
      "inputs": [],
      "name": "owner",
      "outputs": [
        {
          "internalType": "address",
          "name": "",
          "type": "address"
        }
      ],
      "stateMutability": "view",
      "type": "function"
    },
    {
      "inputs": [
        {
          "internalType": "uint256",
          "name": "tokenId",
          "type": "uint256"
        }
      ],
      "name": "ownerOf",
      "outputs": [
        {
          "internalType": "address",
          "name": "",
          "type": "address"
        }
      ],
      "stateMutability": "view",
      "type": "function"
    },
    {
      "inputs": [],
      "name": "pause",
      "outputs": [],
      "stateMutability": "nonpayable",
      "type": "function"
    },
    {
      "inputs": [],
      "name": "pauseContract",
      "outputs": [],
      "stateMutability": "nonpayable",
      "type": "function"
    },
    {
      "inputs": [],
      "name": "paused",
      "outputs": [
        {
          "internalType": "bool",
          "name": "",
          "type": "bool"
        }
      ],
      "stateMutability": "view",
      "type": "function"
    },
    {
      "inputs": [],
      "name": "renounceOwnership",
      "outputs": [],
      "stateMutability": "nonpayable",
      "type": "function"
    },
    {
      "inputs": [
        {
          "internalType": "bytes32",
          "name": "role",
          "type": "bytes32"
        },
        {
          "internalType": "address",
          "name": "account",
          "type": "address"
        }
      ],
      "name": "renounceRole",
      "outputs": [],
      "stateMutability": "nonpayable",
      "type": "function"
    },
    {
      "inputs": [
        {
          "internalType": "bytes32",
          "name": "role",
          "type": "bytes32"
        },
        {
          "internalType": "address",
          "name": "account",
          "type": "address"
        }
      ],
      "name": "revokeRole",
      "outputs": [],
      "stateMutability": "nonpayable",
      "type": "function"
    },
    {
      "inputs": [
        {
          "internalType": "address",
          "name": "from",
          "type": "address"
        },
        {
          "internalType": "address",
          "name": "to",
          "type": "address"
        },
        {
          "internalType": "uint256",
          "name": "tokenId",
          "type": "uint256"
        }
      ],
      "name": "safeTransferFrom",
      "outputs": [],
      "stateMutability": "nonpayable",
      "type": "function"
    },
    {
      "inputs": [
        {
          "internalType": "address",
          "name": "from",
          "type": "address"
        },
        {
          "internalType": "address",
          "name": "to",
          "type": "address"
        },
        {
          "internalType": "uint256",
          "name": "tokenId",
          "type": "uint256"
        },
        {
          "internalType": "bytes",
          "name": "data",
          "type": "bytes"
        }
      ],
      "name": "safeTransferFrom",
      "outputs": [],
      "stateMutability": "nonpayable",
      "type": "function"
    },
    {
      "inputs": [
        {
          "internalType": "address",
          "name": "operator",
          "type": "address"
        },
        {
          "internalType": "bool",
          "name": "approved",
          "type": "bool"
        }
      ],
      "name": "setApprovalForAll",
      "outputs": [],
      "stateMutability": "nonpayable",
      "type": "function"
    },
    {
      "inputs": [
        {
          "internalType": "string",
          "name": "baseTokenURI",
          "type": "string"
        }
      ],
      "name": "setBaseURI",
      "outputs": [],
      "stateMutability": "nonpayable",
      "type": "function"
    },
    {
      "inputs": [
        {
          "internalType": "address",
          "name": "newMinter",
          "type": "address"
        }
      ],
      "name": "setMinter",
      "outputs": [],
      "stateMutability": "nonpayable",
      "type": "function"
    },
    {
      "inputs": [
        {
          "internalType": "string",
          "name": "newBaseURI",
          "type": "string"
        }
      ],
      "name": "setNewBaseURI",
      "outputs": [],
      "stateMutability": "nonpayable",
      "type": "function"
    },
    {
      "inputs": [
        {
          "internalType": "uint256",
          "name": "_tokenId",
          "type": "uint256"
        }
      ],
      "name": "stateOf",
      "outputs": [
        {
          "internalType": "bytes",
          "name": "",
          "type": "bytes"
        }
      ],
      "stateMutability": "view",
      "type": "function"
    },
    {
      "inputs": [
        {
          "internalType": "bytes4",
          "name": "interfaceId",
          "type": "bytes4"
        }
      ],
      "name": "supportsInterface",
      "outputs": [
        {
          "internalType": "bool",
          "name": "",
          "type": "bool"
        }
      ],
      "stateMutability": "view",
      "type": "function"
    },
    {
      "inputs": [],
      "name": "symbol",
      "outputs": [
        {
          "internalType": "string",
          "name": "",
          "type": "string"
        }
      ],
      "stateMutability": "view",
      "type": "function"
    },
    {
      "inputs": [
        {
          "internalType": "uint256",
          "name": "index",
          "type": "uint256"
        }
      ],
      "name": "tokenByIndex",
      "outputs": [
        {
          "internalType": "uint256",
          "name": "",
          "type": "uint256"
        }
      ],
      "stateMutability": "view",
      "type": "function"
    },
    {
      "inputs": [
        {
          "internalType": "address",
          "name": "owner",
          "type": "address"
        },
        {
          "internalType": "uint256",
          "name": "index",
          "type": "uint256"
        }
      ],
      "name": "tokenOfOwnerByIndex",
      "outputs": [
        {
          "internalType": "uint256",
          "name": "",
          "type": "uint256"
        }
      ],
      "stateMutability": "view",
      "type": "function"
    },
    {
      "inputs": [
        {
          "internalType": "uint256",
          "name": "tokenId",
          "type": "uint256"
        }
      ],
      "name": "tokenURI",
      "outputs": [
        {
          "internalType": "string",
          "name": "",
          "type": "string"
        }
      ],
      "stateMutability": "view",
      "type": "function"
    },
    {
      "inputs": [],
      "name": "totalSupply",
      "outputs": [
        {
          "internalType": "uint256",
          "name": "",
          "type": "uint256"
        }
      ],
      "stateMutability": "view",
      "type": "function"
    },
    {
      "inputs": [
        {
          "internalType": "address",
          "name": "from",
          "type": "address"
        },
        {
          "internalType": "address",
          "name": "to",
          "type": "address"
        },
        {
          "internalType": "uint256",
          "name": "tokenId",
          "type": "uint256"
        }
      ],
      "name": "transferFrom",
      "outputs": [],
      "stateMutability": "nonpayable",
      "type": "function"
    },
    {
      "inputs": [
        {
          "internalType": "address",
          "name": "newOwner",
          "type": "address"
        }
      ],
      "name": "transferOwnership",
      "outputs": [],
      "stateMutability": "nonpayable",
      "type": "function"
    },
    {
      "inputs": [],
      "name": "unpause",
      "outputs": [],
      "stateMutability": "nonpayable",
      "type": "function"
    },
    {
      "inputs": [],
      "name": "unpauseContract",
      "outputs": [],
      "stateMutability": "nonpayable",
      "type": "function"
    },
    {
      "inputs": [],
      "name": "withdrawAll",
      "outputs": [],
      "stateMutability": "payable",
      "type": "function"
    }
  ],
  "bytecode": "0x608060405260006046553480156200001657600080fd5b5060405162003e8238038062003e82833981016040819052620000399162000335565b6040518060400160405280600d81526020016c52756e6976657273654974656d60981b815250604051806040016040528060048152602001635249544d60e01b815250828282828282816002908162000093919062000498565b506003620000a2828262000498565b5050603f805460ff19169055506041620000bd828262000498565b50620000cb60003362000180565b620000f77f9f2df0fed2c77648de5860a4cc508cd0818c85b8b8a1ab4ceeef8d981c8956a63362000180565b620001237f65d7a28e3265b37a6474929f336521b332c1681b933f6cb9f3376673440d862a3362000180565b62000132604080546001019055565b505050505050620001526200014c6200017c60201b60201c565b62000190565b6001604355604562000165828262000498565b50604162000174828262000498565b505062000564565b3390565b6200018c8282620001e2565b5050565b604280546001600160a01b038381166001600160a01b0319831681179093556040519116919082907f8be0079c531659141344cd1fd0a4f28419497f9722a3daafe3b4186f6b6457e090600090a35050565b620001ee82826200020d565b6000828152600160205260409020620002089082620002ad565b505050565b6000828152602081815260408083206001600160a01b038516845290915290205460ff166200018c576000828152602081815260408083206001600160a01b03851684529091529020805460ff19166001179055620002693390565b6001600160a01b0316816001600160a01b0316837f2f8788117e7eff1d82e926ec794901d17c78024a50270940304540a733656f0d60405160405180910390a45050565b6000620002c4836001600160a01b038416620002cd565b90505b92915050565b60008181526001830160205260408120546200031657508154600181810184556000848152602080822090930184905584548482528286019093526040902091909155620002c7565b506000620002c7565b634e487b7160e01b600052604160045260246000fd5b600060208083850312156200034957600080fd5b82516001600160401b03808211156200036157600080fd5b818501915085601f8301126200037657600080fd5b8151818111156200038b576200038b6200031f565b604051601f8201601f19908116603f01168101908382118183101715620003b657620003b66200031f565b816040528281528886848701011115620003cf57600080fd5b600093505b82841015620003f35784840186015181850187015292850192620003d4565b600086848301015280965050505050505092915050565b600181811c908216806200041f57607f821691505b6020821081036200044057634e487b7160e01b600052602260045260246000fd5b50919050565b601f8211156200020857600081815260208120601f850160051c810160208610156200046f5750805b601f850160051c820191505b8181101562000490578281556001016200047b565b505050505050565b81516001600160401b03811115620004b457620004b46200031f565b620004cc81620004c584546200040a565b8462000446565b602080601f831160018114620005045760008415620004eb5750858301515b600019600386901b1c1916600185901b17855562000490565b600085815260208120601f198616915b82811015620005355788860151825594840194600190910190840162000514565b5085821015620005545787850151600019600388901b60f8161c191681555b5050505050600190811b01905550565b61390e80620005746000396000f3fe6080604052600436106102e45760003560e01c80636352211e11610190578063a22cb465116100dc578063d539139311610095578063e63ab1e91161006f578063e63ab1e9146108ac578063e985e9c5146108e0578063f2fde38b14610929578063fca3b5aa1461094957600080fd5b8063d539139314610843578063d547741f14610877578063d547cfb71461089757600080fd5b8063a22cb46514610798578063b33712c5146107b8578063b88d4fde146107cd578063c87b56dd146107ed578063ca15c8731461080d578063d52079b41461082d57600080fd5b8063853828b61161014957806391d148541161012357806391d148541461072e57806395d89b411461074e5780639727151a14610763578063a217fddf1461078357600080fd5b8063853828b6146106e85780638da5cb5b146106f05780639010d07c1461070e57600080fd5b80636352211e146106495780636a6278421461066957806370a0823114610689578063714c5398146106a9578063715018a6146106be5780638456cb59146106d357600080fd5b806332761d161161024f57806342966c68116102085780634f558e79116101e25780634f558e79146105d15780634f6ccce7146105f157806355f804b3146106115780635c975abb1461063157600080fd5b806342966c681461057c578063439766ce1461059c578063450efe21146105b157600080fd5b806332761d16146104ba57806334d722c9146104da57806336568abe146104fa5780633771aaa11461051a5780633f4ba83a1461054757806342842e0e1461055c57600080fd5b806318160ddd116102a157806318160ddd146103f55780631cb1ac0b1461040a57806323b872dd1461042a578063248a9ca31461044a5780632f2ff15d1461047a5780632f745c591461049a57600080fd5b806301ffc9a7146102e957806306fdde031461031e578063081812fc14610340578063095ea7b314610378578063131a7e241461039a578063141a468c146103ba575b600080fd5b3480156102f557600080fd5b50610309610304366004612f4f565b610969565b60405190151581526020015b60405180910390f35b34801561032a57600080fd5b5061033361097a565b6040516103159190612fbc565b34801561034c57600080fd5b5061036061035b366004612fcf565b610a0c565b6040516001600160a01b039091168152602001610315565b34801561038457600080fd5b50610398610393366004612ffd565b610a33565b005b3480156103a657600080fd5b506103336103b5366004612fcf565b610b4d565b3480156103c657600080fd5b506103e76103d5366004612fcf565b60086020526000908152604090205481565b604051908152602001610315565b34801561040157600080fd5b50603d546103e7565b34801561041657600080fd5b50610398610425366004613029565b610c14565b34801561043657600080fd5b5061039861044536600461309b565b610c37565b34801561045657600080fd5b506103e7610465366004612fcf565b60009081526020819052604090206001015490565b34801561048657600080fd5b506103986104953660046130dc565b610c69565b3480156104a657600080fd5b506103e76104b5366004612ffd565b610c8e565b3480156104c657600080fd5b506103986104d5366004612ffd565b610d24565b3480156104e657600080fd5b50604454610360906001600160a01b031681565b34801561050657600080fd5b506103986105153660046130dc565b610e43565b34801561052657600080fd5b5061053a61053536600461310c565b610ebd565b604051610315919061316f565b34801561055357600080fd5b50610398610ff8565b34801561056857600080fd5b5061039861057736600461309b565b6110a0565b34801561058857600080fd5b50610398610597366004612fcf565b6110bb565b3480156105a857600080fd5b506103986110ec565b3480156105bd57600080fd5b5061053a6105cc3660046131b3565b611162565b3480156105dd57600080fd5b506103096105ec366004612fcf565b6112ca565b3480156105fd57600080fd5b506103e761060c366004612fcf565b6112d5565b34801561061d57600080fd5b5061039861062c36600461325c565b611368565b34801561063d57600080fd5b50603f5460ff16610309565b34801561065557600080fd5b50610360610664366004612fcf565b61137f565b34801561067557600080fd5b506103e76106843660046131b3565b6113df565b34801561069557600080fd5b506103e76106a43660046131b3565b611486565b3480156106b557600080fd5b5061033361150c565b3480156106ca57600080fd5b5061039861151b565b3480156106df57600080fd5b5061039861152d565b6103986115d1565b3480156106fc57600080fd5b506042546001600160a01b0316610360565b34801561071a57600080fd5b506103606107293660046132a5565b611671565b34801561073a57600080fd5b506103096107493660046130dc565b611690565b34801561075a57600080fd5b506103336116b9565b34801561076f57600080fd5b5061039861077e366004612ffd565b6116c8565b34801561078f57600080fd5b506103e7600081565b3480156107a457600080fd5b506103986107b33660046132d5565b61175f565b3480156107c457600080fd5b5061039861176a565b3480156107d957600080fd5b506103986107e8366004613303565b6117e1565b3480156107f957600080fd5b50610333610808366004612fcf565b611819565b34801561081957600080fd5b506103e7610828366004612fcf565b6118a4565b34801561083957600080fd5b506103e760465481565b34801561084f57600080fd5b506103e77f9f2df0fed2c77648de5860a4cc508cd0818c85b8b8a1ab4ceeef8d981c8956a681565b34801561088357600080fd5b506103986108923660046130dc565b6118bb565b3480156108a357600080fd5b506103336118e0565b3480156108b857600080fd5b506103e77f65d7a28e3265b37a6474929f336521b332c1681b933f6cb9f3376673440d862a81565b3480156108ec57600080fd5b506103096108fb366004613383565b6001600160a01b03918216600090815260076020908152604080832093909416825291909152205460ff1690565b34801561093557600080fd5b506103986109443660046131b3565b61196e565b34801561095557600080fd5b506103986109643660046131b3565b6119e4565b600061097482611a5d565b92915050565b606060028054610989906133b1565b80601f01602080910402602001604051908101604052809291908181526020018280546109b5906133b1565b8015610a025780601f106109d757610100808354040283529160200191610a02565b820191906000526020600020905b8154815290600101906020018083116109e557829003601f168201915b5050505050905090565b6000610a1782611a9d565b506000908152600660205260409020546001600160a01b031690565b6000610a3e8261137f565b9050806001600160a01b0316836001600160a01b031603610ab05760405162461bcd60e51b815260206004820152602160248201527f4552433732313a20617070726f76616c20746f2063757272656e74206f776e656044820152603960f91b60648201526084015b60405180910390fd5b336001600160a01b0382161480610acc5750610acc81336108fb565b610b3e5760405162461bcd60e51b815260206004820152603d60248201527f4552433732313a20617070726f76652063616c6c6572206973206e6f7420746f60448201527f6b656e206f776e6572206f7220617070726f76656420666f7220616c6c0000006064820152608401610aa7565b610b488383611aed565b505050565b6060610b5882611b5b565b610bb75760405162461bcd60e51b815260206004820152602a60248201527f455243373231436f6d6d6f6e3a20717565727920666f72206e6f6e2d657869736044820152693a32b73a103a37b5b2b760b11b6064820152608401610aa7565b610bc08261137f565b60008381526008602090815260409182902054915160609390931b6bffffffffffffffffffffffff1916908301526034820152605481018390526074015b6040516020818303038152906040529050919050565b610c1c611b78565b6045610c29828483613439565b506041610b48828483613439565b610c42335b82611bd2565b610c5e5760405162461bcd60e51b8152600401610aa7906134f9565b610b48838383611c51565b600082815260208190526040902060010154610c8481611dc2565b610b488383611dcc565b6000610c9983611486565b8210610cfb5760405162461bcd60e51b815260206004820152602b60248201527f455243373231456e756d657261626c653a206f776e657220696e646578206f7560448201526a74206f6620626f756e647360a81b6064820152608401610aa7565b506001600160a01b03919091166000908152603b60209081526040808320938352929052205490565b610d2c611dee565b603f5460ff1615610d735760405162461bcd60e51b8152602060048201526011602482015270135a5b9d1a5b99c81a5cc81c185d5cd959607a1b6044820152606401610aa7565b6044546001600160a01b0316336001600160a01b031614610dd65760405162461bcd60e51b815260206004820152601b60248201527f4d696e7465722061646472657373206973206e6f742076616c696400000000006044820152606401610aa7565b604660008154610de59061355c565b90915550604080516001600160a01b0384168152602081018390527f604e0f34ba8d6d3f7f48c01c251c7bf880d71369b217e5b976ca6120cc51710c910160405180910390a1610e358282611e47565b610e3f6001604355565b5050565b6001600160a01b0381163314610eb35760405162461bcd60e51b815260206004820152602f60248201527f416363657373436f6e74726f6c3a2063616e206f6e6c792072656e6f756e636560448201526e103937b632b9903337b91039b2b63360891b6064820152608401610aa7565b610e3f8282611e61565b60607f9f2df0fed2c77648de5860a4cc508cd0818c85b8b8a1ab4ceeef8d981c8956a6610ee981611dc2565b82610f425760405162461bcd60e51b815260206004820152602360248201527f455243373231436f6d6d6f6e3a20696e76616c6964206172726179206c656e6760448201526274687360e81b6064820152608401610aa7565b8267ffffffffffffffff811115610f5b57610f5b6131d0565b604051908082528060200260200182016040528015610f84578160200160208202803683370190505b50915060005b83811015610ff057610fc1858583818110610fa757610fa7613575565b9050602002016020810190610fbc91906131b3565b611e83565b838281518110610fd357610fd3613575565b602090810291909101015280610fe88161355c565b915050610f8a565b505092915050565b6110227f65d7a28e3265b37a6474929f336521b332c1681b933f6cb9f3376673440d862a33611690565b611096576040805162461bcd60e51b81526020600482015260248101919091527f4552433732315072657365744d696e7465725061757365724175746f49643a2060448201527f6d75737420686176652070617573657220726f6c6520746f20756e70617573656064820152608401610aa7565b61109e611ead565b565b610b48838383604051806020016040528060008152506117e1565b6110c433610c3c565b6110e05760405162461bcd60e51b8152600401610aa7906134f9565b6110e981611eff565b50565b6110f4611b78565b306001600160a01b0316635c975abb6040518163ffffffff1660e01b8152600401602060405180830381865afa158015611132573d6000803e3d6000fd5b505050506040513d601f19601f82011682018060405250810190611156919061358b565b61109e5761109e611fa2565b6040516370a0823160e01b81526001600160a01b038216600482015260609060009030906370a0823190602401602060405180830381865afa1580156111ac573d6000803e3d6000fd5b505050506040513d601f19601f820116820180604052508101906111d091906135a8565b905060008167ffffffffffffffff8111156111ed576111ed6131d0565b604051908082528060200260200182016040528015611216578160200160208202803683370190505b50905060005b828110156112c257604051632f745c5960e01b81526001600160a01b0386166004820152602481018290523090632f745c5990604401602060405180830381865afa15801561126f573d6000803e3d6000fd5b505050506040513d601f19601f8201168201806040525081019061129391906135a8565b8282815181106112a5576112a5613575565b6020908102919091010152806112ba8161355c565b91505061121c565b509392505050565b600061097482611b5b565b60006112e0603d5490565b82106113435760405162461bcd60e51b815260206004820152602c60248201527f455243373231456e756d657261626c653a20676c6f62616c20696e646578206f60448201526b7574206f6620626f756e647360a01b6064820152608401610aa7565b603d828154811061135657611356613575565b90600052602060002001549050919050565b600061137381611dc2565b6041610b4883826135c1565b6000818152600460205260408120546001600160a01b0316806109745760405162461bcd60e51b8152602060048201526018602482015277115490cdcc8c4e881a5b9d985b1a59081d1bdad95b88125160421b6044820152606401610aa7565b600061140b7f9f2df0fed2c77648de5860a4cc508cd0818c85b8b8a1ab4ceeef8d981c8956a633611690565b61147d5760405162461bcd60e51b815260206004820152603d60248201527f4552433732315072657365744d696e7465725061757365724175746f49643a2060448201527f6d7573742068617665206d696e74657220726f6c6520746f206d696e740000006064820152608401610aa7565b61097482611e83565b60006001600160a01b0382166114f05760405162461bcd60e51b815260206004820152602960248201527f4552433732313a2061646472657373207a65726f206973206e6f7420612076616044820152683634b21037bbb732b960b91b6064820152608401610aa7565b506001600160a01b031660009081526005602052604090205490565b606060458054610989906133b1565b611523611b78565b61109e6000611fdf565b6115577f65d7a28e3265b37a6474929f336521b332c1681b933f6cb9f3376673440d862a33611690565b6115c95760405162461bcd60e51b815260206004820152603e60248201527f4552433732315072657365744d696e7465725061757365724175746f49643a2060448201527f6d75737420686176652070617573657220726f6c6520746f20706175736500006064820152608401610aa7565b61109e611fa2565b6115d9611b78565b604051600090339047908381818185875af1925050503d806000811461161b576040519150601f19603f3d011682016040523d82523d6000602084013e611620565b606091505b50509050806110e95760405162461bcd60e51b815260206004820152601b60248201527f776974686472617720776173206e6f742073756363657366756c6c00000000006044820152606401610aa7565b60008281526001602052604081206116899083612031565b9392505050565b6000918252602082815260408084206001600160a01b0393909316845291905290205460ff1690565b606060038054610989906133b1565b6116d0611b78565b336116ee576040516324560b2960e11b815260040160405180910390fd5b60405163a9059cbb60e01b8152336004820152602481018290526001600160a01b0383169063a9059cbb906044016020604051808303816000875af115801561173b573d6000803e3d6000fd5b505050506040513d601f19601f82011682018060405250810190610b48919061358b565b610e3f33838361203d565b611772611b78565b306001600160a01b0316635c975abb6040518163ffffffff1660e01b8152600401602060405180830381865afa1580156117b0573d6000803e3d6000fd5b505050506040513d601f19601f820116820180604052508101906117d4919061358b565b1561109e5761109e611ead565b6117eb3383611bd2565b6118075760405162461bcd60e51b8152600401610aa7906134f9565b6118138484848461210b565b50505050565b606061182482611b5b565b6118885760405162461bcd60e51b815260206004820152602f60248201527f4552433732314d657461646174613a2055524920717565727920666f72206e6f60448201526e3732bc34b9ba32b73a103a37b5b2b760891b6064820152608401610aa7565b60456118938361213e565b604051602001610bfe929190613681565b6000818152600160205260408120610974906121d1565b6000828152602081905260409020600101546118d681611dc2565b610b488383611e61565b604580546118ed906133b1565b80601f0160208091040260200160405190810160405280929190818152602001828054611919906133b1565b80156119665780601f1061193b57610100808354040283529160200191611966565b820191906000526020600020905b81548152906001019060200180831161194957829003601f168201915b505050505081565b611976611b78565b6001600160a01b0381166119db5760405162461bcd60e51b815260206004820152602660248201527f4f776e61626c653a206e6577206f776e657220697320746865207a65726f206160448201526564647265737360d01b6064820152608401610aa7565b6110e981611fdf565b6119ec611b78565b6001600160a01b038116611a3b5760405162461bcd60e51b8152602060048201526016602482015275496e76616c6964206d696e746572206164647265737360501b6044820152606401610aa7565b604480546001600160a01b0319166001600160a01b0392909216919091179055565b60006001600160e01b03198216633771aaa160e01b1480611a8e57506001600160e01b031982166304c69f8960e21b145b806109745750610974826121db565b611aa681611b5b565b6110e95760405162461bcd60e51b8152602060048201526018602482015277115490cdcc8c4e881a5b9d985b1a59081d1bdad95b88125160421b6044820152606401610aa7565b600081815260066020526040902080546001600160a01b0319166001600160a01b0384169081179091558190611b228261137f565b6001600160a01b03167f8c5be1e5ebec7d5bd14f71427d1e84f3dd0314c0f7b2291e5b200ac8c7c3b92560405160405180910390a45050565b6000908152600460205260409020546001600160a01b0316151590565b6042546001600160a01b0316331461109e5760405162461bcd60e51b815260206004820181905260248201527f4f776e61626c653a2063616c6c6572206973206e6f7420746865206f776e65726044820152606401610aa7565b600080611bde8361137f565b9050806001600160a01b0316846001600160a01b03161480611c2557506001600160a01b0380821660009081526007602090815260408083209388168352929052205460ff165b80611c495750836001600160a01b0316611c3e84610a0c565b6001600160a01b0316145b949350505050565b826001600160a01b0316611c648261137f565b6001600160a01b031614611c8a5760405162461bcd60e51b8152600401610aa790613708565b6001600160a01b038216611cec5760405162461bcd60e51b8152602060048201526024808201527f4552433732313a207472616e7366657220746f20746865207a65726f206164646044820152637265737360e01b6064820152608401610aa7565b611cf98383836001612200565b826001600160a01b0316611d0c8261137f565b6001600160a01b031614611d325760405162461bcd60e51b8152600401610aa790613708565b600081815260066020908152604080832080546001600160a01b03199081169091556001600160a01b0387811680865260058552838620805460001901905590871680865283862080546001019055868652600490945282852080549092168417909155905184937fddf252ad1be2c89b69c2b068fc378daa952ba7f163c4a11628f55a4df523b3ef91a4505050565b6110e9813361220c565b611dd68282612265565b6000828152600160205260409020610b4890826122e9565b600260435403611e405760405162461bcd60e51b815260206004820152601f60248201527f5265656e7472616e637947756172643a207265656e7472616e742063616c6c006044820152606401610aa7565b6002604355565b610e3f8282604051806020016040528060008152506122fe565b611e6b8282612331565b6000828152600160205260409020610b489082612396565b6000611e8e60405490565b9050611e9a82826123ab565b611ea8604080546001019055565b919050565b611eb5612526565b603f805460ff191690557f5db9ee0a495bf2e6ff9c91a7834c1ba4fdd244a5e8aa4e537bd38aeae4b073aa335b6040516001600160a01b03909116815260200160405180910390a1565b6000611f0a8261137f565b9050611f1a816000846001612200565b611f238261137f565b600083815260066020908152604080832080546001600160a01b03199081169091556001600160a01b0385168085526005845282852080546000190190558785526004909352818420805490911690555192935084927fddf252ad1be2c89b69c2b068fc378daa952ba7f163c4a11628f55a4df523b3ef908390a45050565b611faa61256f565b603f805460ff191660011790557f62e78cea01bee320cd4e420270b5ea74000d11b0c9f74754ebdbfc544b05a258611ee23390565b604280546001600160a01b038381166001600160a01b0319831681179093556040519116919082907f8be0079c531659141344cd1fd0a4f28419497f9722a3daafe3b4186f6b6457e090600090a35050565b600061168983836125b5565b816001600160a01b0316836001600160a01b03160361209e5760405162461bcd60e51b815260206004820152601960248201527f4552433732313a20617070726f766520746f2063616c6c6572000000000000006044820152606401610aa7565b6001600160a01b03838116600081815260076020908152604080832094871680845294825291829020805460ff191686151590811790915591519182527f17307eab39ab6107e8899845ad3d59bd9653f200f220920489ca2b5937696c31910160405180910390a3505050565b612116848484611c51565b612122848484846125df565b6118135760405162461bcd60e51b8152600401610aa79061374d565b6060600061214b836126e0565b600101905060008167ffffffffffffffff81111561216b5761216b6131d0565b6040519080825280601f01601f191660200182016040528015612195576020820181803683370190505b5090508181016020015b600019016f181899199a1a9b1b9c1cb0b131b232b360811b600a86061a8153600a850494508461219f57509392505050565b6000610974825490565b60006001600160e01b0319821663d17f1b2160e01b14806109745750610974826127b8565b611813848484846127dd565b6122168282611690565b610e3f57612223816127e9565b61222e8360206127fb565b60405160200161223f92919061379f565b60408051601f198184030181529082905262461bcd60e51b8252610aa791600401612fbc565b61226f8282611690565b610e3f576000828152602081815260408083206001600160a01b03851684529091529020805460ff191660011790556122a53390565b6001600160a01b0316816001600160a01b0316837f2f8788117e7eff1d82e926ec794901d17c78024a50270940304540a733656f0d60405160405180910390a45050565b6000611689836001600160a01b038416612997565b61230883836123ab565b61231560008484846125df565b610b485760405162461bcd60e51b8152600401610aa79061374d565b61233b8282611690565b15610e3f576000828152602081815260408083206001600160a01b0385168085529252808320805460ff1916905551339285917ff6391f5c32d9c69d2a47ea670b442974b53935d1edc7fd64eb21e047a839171b9190a45050565b6000611689836001600160a01b0384166129e6565b6001600160a01b0382166124015760405162461bcd60e51b815260206004820181905260248201527f4552433732313a206d696e7420746f20746865207a65726f20616464726573736044820152606401610aa7565b61240a81611b5b565b156124575760405162461bcd60e51b815260206004820152601c60248201527f4552433732313a20746f6b656e20616c7265616479206d696e746564000000006044820152606401610aa7565b612465600083836001612200565b61246e81611b5b565b156124bb5760405162461bcd60e51b815260206004820152601c60248201527f4552433732313a20746f6b656e20616c7265616479206d696e746564000000006044820152606401610aa7565b6001600160a01b038216600081815260056020908152604080832080546001019055848352600490915280822080546001600160a01b0319168417905551839291907fddf252ad1be2c89b69c2b068fc378daa952ba7f163c4a11628f55a4df523b3ef908290a45050565b603f5460ff1661109e5760405162461bcd60e51b815260206004820152601460248201527314185d5cd8589b194e881b9bdd081c185d5cd95960621b6044820152606401610aa7565b603f5460ff161561109e5760405162461bcd60e51b815260206004820152601060248201526f14185d5cd8589b194e881c185d5cd95960821b6044820152606401610aa7565b60008260000182815481106125cc576125cc613575565b9060005260206000200154905092915050565b60006001600160a01b0384163b156126d557604051630a85bd0160e11b81526001600160a01b0385169063150b7a0290612623903390899088908890600401613814565b6020604051808303816000875af192505050801561265e575060408051601f3d908101601f1916820190925261265b91810190613851565b60015b6126bb573d80801561268c576040519150601f19603f3d011682016040523d82523d6000602084013e612691565b606091505b5080516000036126b35760405162461bcd60e51b8152600401610aa79061374d565b805181602001fd5b6001600160e01b031916630a85bd0160e11b149050611c49565b506001949350505050565b60008072184f03e93ff9f4daa797ed6e38ed64bf6a1f0160401b831061271f5772184f03e93ff9f4daa797ed6e38ed64bf6a1f0160401b830492506040015b6d04ee2d6d415b85acef8100000000831061274b576d04ee2d6d415b85acef8100000000830492506020015b662386f26fc10000831061276957662386f26fc10000830492506010015b6305f5e1008310612781576305f5e100830492506008015b612710831061279557612710830492506004015b606483106127a7576064830492506002015b600a83106109745760010192915050565b60006001600160e01b0319821663780e9d6360e01b1480610974575061097482612ad9565b61181384848484612b19565b60606109746001600160a01b03831660145b6060600061280a83600261386e565b612815906002613885565b67ffffffffffffffff81111561282d5761282d6131d0565b6040519080825280601f01601f191660200182016040528015612857576020820181803683370190505b509050600360fc1b8160008151811061287257612872613575565b60200101906001600160f81b031916908160001a905350600f60fb1b816001815181106128a1576128a1613575565b60200101906001600160f81b031916908160001a90535060006128c584600261386e565b6128d0906001613885565b90505b6001811115612948576f181899199a1a9b1b9c1cb0b131b232b360811b85600f166010811061290457612904613575565b1a60f81b82828151811061291a5761291a613575565b60200101906001600160f81b031916908160001a90535060049490941c9361294181613898565b90506128d3565b5083156116895760405162461bcd60e51b815260206004820181905260248201527f537472696e67733a20686578206c656e67746820696e73756666696369656e746044820152606401610aa7565b60008181526001830160205260408120546129de57508154600181810184556000848152602080822090930184905584548482528286019093526040902091909155610974565b506000610974565b60008181526001830160205260408120548015612acf576000612a0a6001836138af565b8554909150600090612a1e906001906138af565b9050818114612a83576000866000018281548110612a3e57612a3e613575565b9060005260206000200154905080876000018481548110612a6157612a61613575565b6000918252602080832090910192909255918252600188019052604090208390555b8554869080612a9457612a946138c2565b600190038181906000526020600020016000905590558560010160008681526020019081526020016000206000905560019350505050610974565b6000915050610974565b60006001600160e01b031982166380ac58cd60e01b1480612b0a57506001600160e01b03198216635b5e139f60e01b145b80610974575061097482612b25565b61181384848484612b4a565b60006001600160e01b03198216635a05180f60e01b1480610974575061097482612bbd565b612b5684848484612bf2565b603f5460ff16156118135760405162461bcd60e51b815260206004820152602b60248201527f4552433732315061757361626c653a20746f6b656e207472616e73666572207760448201526a1a1a5b19481c185d5cd95960aa1b6064820152608401610aa7565b60006001600160e01b03198216637965db0b60e01b148061097457506301ffc9a760e01b6001600160e01b0319831614610974565b612bfe84848484612d32565b6001811115612c6d5760405162461bcd60e51b815260206004820152603560248201527f455243373231456e756d657261626c653a20636f6e7365637574697665207472604482015274185b9cd9995c9cc81b9bdd081cdd5c1c1bdc9d1959605a1b6064820152608401610aa7565b816001600160a01b038516612cc957612cc481603d80546000838152603e60205260408120829055600182018355919091527fece66cfdbd22e3f37d348a3d8e19074452862cd65fd4b9a11f0336d1ac6d1dc30155565b612cec565b836001600160a01b0316856001600160a01b031614612cec57612cec8582612da9565b6001600160a01b038416612d0857612d0381612e46565b612d2b565b846001600160a01b0316846001600160a01b031614612d2b57612d2b8482612ef5565b5050505050565b815b612d3e8284613885565b811015612da35760008181526008602052604081208054909190612d619061355c565b918290555060405182907fcc2c68164f9f7f0c063ba98bcf89498c0f3f5e3acc32bf4ab46195ecb489c13b90600090a380612d9b8161355c565b915050612d34565b50611813565b60006001612db684611486565b612dc091906138af565b6000838152603c6020526040902054909150808214612e13576001600160a01b0384166000908152603b602090815260408083208584528252808320548484528184208190558352603c90915290208190555b506000918252603c602090815260408084208490556001600160a01b039094168352603b81528383209183525290812055565b603d54600090612e58906001906138af565b6000838152603e6020526040812054603d8054939450909284908110612e8057612e80613575565b9060005260206000200154905080603d8381548110612ea157612ea1613575565b6000918252602080832090910192909255828152603e9091526040808220849055858252812055603d805480612ed957612ed96138c2565b6001900381819060005260206000200160009055905550505050565b6000612f0083611486565b6001600160a01b039093166000908152603b602090815260408083208684528252808320859055938252603c9052919091209190915550565b6001600160e01b0319811681146110e957600080fd5b600060208284031215612f6157600080fd5b813561168981612f39565b60005b83811015612f87578181015183820152602001612f6f565b50506000910152565b60008151808452612fa8816020860160208601612f6c565b601f01601f19169290920160200192915050565b6020815260006116896020830184612f90565b600060208284031215612fe157600080fd5b5035919050565b6001600160a01b03811681146110e957600080fd5b6000806040838503121561301057600080fd5b823561301b81612fe8565b946020939093013593505050565b6000806020838503121561303c57600080fd5b823567ffffffffffffffff8082111561305457600080fd5b818501915085601f83011261306857600080fd5b81358181111561307757600080fd5b86602082850101111561308957600080fd5b60209290920196919550909350505050565b6000806000606084860312156130b057600080fd5b83356130bb81612fe8565b925060208401356130cb81612fe8565b929592945050506040919091013590565b600080604083850312156130ef57600080fd5b82359150602083013561310181612fe8565b809150509250929050565b6000806020838503121561311f57600080fd5b823567ffffffffffffffff8082111561313757600080fd5b818501915085601f83011261314b57600080fd5b81358181111561315a57600080fd5b8660208260051b850101111561308957600080fd5b6020808252825182820181905260009190848201906040850190845b818110156131a75783518352928401929184019160010161318b565b50909695505050505050565b6000602082840312156131c557600080fd5b813561168981612fe8565b634e487b7160e01b600052604160045260246000fd5b600067ffffffffffffffff80841115613201576132016131d0565b604051601f8501601f19908116603f01168101908282118183101715613229576132296131d0565b8160405280935085815286868601111561324257600080fd5b858560208301376000602087830101525050509392505050565b60006020828403121561326e57600080fd5b813567ffffffffffffffff81111561328557600080fd5b8201601f8101841361329657600080fd5b611c49848235602084016131e6565b600080604083850312156132b857600080fd5b50508035926020909101359150565b80151581146110e957600080fd5b600080604083850312156132e857600080fd5b82356132f381612fe8565b91506020830135613101816132c7565b6000806000806080858703121561331957600080fd5b843561332481612fe8565b9350602085013561333481612fe8565b925060408501359150606085013567ffffffffffffffff81111561335757600080fd5b8501601f8101871361336857600080fd5b613377878235602084016131e6565b91505092959194509250565b6000806040838503121561339657600080fd5b82356133a181612fe8565b9150602083013561310181612fe8565b600181811c908216806133c557607f821691505b6020821081036133e557634e487b7160e01b600052602260045260246000fd5b50919050565b601f821115610b4857600081815260208120601f850160051c810160208610156134125750805b601f850160051c820191505b818110156134315782815560010161341e565b505050505050565b67ffffffffffffffff831115613451576134516131d0565b6134658361345f83546133b1565b836133eb565b6000601f84116001811461349957600085156134815750838201355b600019600387901b1c1916600186901b178355612d2b565b600083815260209020601f19861690835b828110156134ca57868501358255602094850194600190920191016134aa565b50868210156134e75760001960f88860031b161c19848701351681555b505060018560011b0183555050505050565b6020808252602d908201527f4552433732313a2063616c6c6572206973206e6f7420746f6b656e206f776e6560408201526c1c881bdc88185c1c1c9bdd9959609a1b606082015260800190565b634e487b7160e01b600052601160045260246000fd5b60006001820161356e5761356e613546565b5060010190565b634e487b7160e01b600052603260045260246000fd5b60006020828403121561359d57600080fd5b8151611689816132c7565b6000602082840312156135ba57600080fd5b5051919050565b815167ffffffffffffffff8111156135db576135db6131d0565b6135ef816135e984546133b1565b846133eb565b602080601f831160018114613624576000841561360c5750858301515b600019600386901b1c1916600185901b178555613431565b600085815260208120601f198616915b8281101561365357888601518255948401946001909101908401613634565b50858210156136715787850151600019600388901b60f8161c191681555b5050505050600190811b01905550565b600080845461368f816133b1565b600182811680156136a757600181146136bc576136eb565b60ff19841687528215158302870194506136eb565b8860005260208060002060005b858110156136e25781548a8201529084019082016136c9565b50505082870194505b5050505083516136ff818360208801612f6c565b01949350505050565b60208082526025908201527f4552433732313a207472616e736665722066726f6d20696e636f72726563742060408201526437bbb732b960d91b606082015260800190565b60208082526032908201527f4552433732313a207472616e7366657220746f206e6f6e20455243373231526560408201527131b2b4bb32b91034b6b83632b6b2b73a32b960711b606082015260800190565b7f416363657373436f6e74726f6c3a206163636f756e74200000000000000000008152600083516137d7816017850160208801612f6c565b7001034b99036b4b9b9b4b733903937b6329607d1b6017918401918201528351613808816028840160208801612f6c565b01602801949350505050565b6001600160a01b038581168252841660208201526040810183905260806060820181905260009061384790830184612f90565b9695505050505050565b60006020828403121561386357600080fd5b815161168981612f39565b808202811582820484141761097457610974613546565b8082018082111561097457610974613546565b6000816138a7576138a7613546565b506000190190565b8181038181111561097457610974613546565b634e487b7160e01b600052603160045260246000fdfea264697066735822122006d70ad92329ddead6dd5ca8a5b8e4063b93a80c762ec4e4ff7b4d675cc6232264736f6c63430008130033",
  "linkReferences": {},
  "deployedLinkReferences": {}
}