{
  "_format": "hh-sol-artifact-1",
  "contractName": "RuniverseItem",
  "sourceName": "contracts/RuniverseItem.sol",
  "abi": [
    {
      "inputs": [
        {
          "internalType": "string",
          "name": "_baseURI",
          "type": "string"
        }
      ],
      "stateMutability": "nonpayable",
      "type": "constructor"
    },
    {
      "inputs": [],
      "name": "Address0Error",
      "type": "error"
    },
    {
      "anonymous": false,
      "inputs": [
        {
          "indexed": true,
          "internalType": "address",
          "name": "owner",
          "type": "address"
        },
        {
          "indexed": true,
          "internalType": "address",
          "name": "approved",
          "type": "address"
        },
        {
          "indexed": true,
          "internalType": "uint256",
          "name": "tokenId",
          "type": "uint256"
        }
      ],
      "name": "Approval",
      "type": "event"
    },
    {
      "anonymous": false,
      "inputs": [
        {
          "indexed": true,
          "internalType": "address",
          "name": "owner",
          "type": "address"
        },
        {
          "indexed": true,
          "internalType": "address",
          "name": "operator",
          "type": "address"
        },
        {
          "indexed": false,
          "internalType": "bool",
          "name": "approved",
          "type": "bool"
        }
      ],
      "name": "ApprovalForAll",
      "type": "event"
    },
    {
      "anonymous": false,
      "inputs": [
        {
          "indexed": true,
          "internalType": "uint256",
          "name": "_tokenId",
          "type": "uint256"
        },
        {
          "indexed": true,
          "internalType": "uint256",
          "name": "_nonce",
          "type": "uint256"
        }
      ],
      "name": "NonceUpdated",
      "type": "event"
    },
    {
      "anonymous": false,
      "inputs": [
        {
          "indexed": true,
          "internalType": "address",
          "name": "previousOwner",
          "type": "address"
        },
        {
          "indexed": true,
          "internalType": "address",
          "name": "newOwner",
          "type": "address"
        }
      ],
      "name": "OwnershipTransferred",
      "type": "event"
    },
    {
      "anonymous": false,
      "inputs": [
        {
          "indexed": false,
          "internalType": "address",
          "name": "account",
          "type": "address"
        }
      ],
      "name": "Paused",
      "type": "event"
    },
    {
      "anonymous": false,
      "inputs": [
        {
          "indexed": true,
          "internalType": "bytes32",
          "name": "role",
          "type": "bytes32"
        },
        {
          "indexed": true,
          "internalType": "bytes32",
          "name": "previousAdminRole",
          "type": "bytes32"
        },
        {
          "indexed": true,
          "internalType": "bytes32",
          "name": "newAdminRole",
          "type": "bytes32"
        }
      ],
      "name": "RoleAdminChanged",
      "type": "event"
    },
    {
      "anonymous": false,
      "inputs": [
        {
          "indexed": true,
          "internalType": "bytes32",
          "name": "role",
          "type": "bytes32"
        },
        {
          "indexed": true,
          "internalType": "address",
          "name": "account",
          "type": "address"
        },
        {
          "indexed": true,
          "internalType": "address",
          "name": "sender",
          "type": "address"
        }
      ],
      "name": "RoleGranted",
      "type": "event"
    },
    {
      "anonymous": false,
      "inputs": [
        {
          "indexed": true,
          "internalType": "bytes32",
          "name": "role",
          "type": "bytes32"
        },
        {
          "indexed": true,
          "internalType": "address",
          "name": "account",
          "type": "address"
        },
        {
          "indexed": true,
          "internalType": "address",
          "name": "sender",
          "type": "address"
        }
      ],
      "name": "RoleRevoked",
      "type": "event"
    },
    {
      "anonymous": false,
      "inputs": [
        {
          "indexed": false,
          "internalType": "address",
          "name": "to",
          "type": "address"
        },
        {
          "indexed": false,
          "internalType": "uint256",
          "name": "tokenId",
          "type": "uint256"
        }
      ],
      "name": "RuniverseItemMinted",
      "type": "event"
    },
    {
      "anonymous": false,
      "inputs": [
        {
          "indexed": true,
          "internalType": "address",
          "name": "from",
          "type": "address"
        },
        {
          "indexed": true,
          "internalType": "address",
          "name": "to",
          "type": "address"
        },
        {
          "indexed": true,
          "internalType": "uint256",
          "name": "tokenId",
          "type": "uint256"
        }
      ],
      "name": "Transfer",
      "type": "event"
    },
    {
      "anonymous": false,
      "inputs": [
        {
          "indexed": false,
          "internalType": "address",
          "name": "account",
          "type": "address"
        }
      ],
      "name": "Unpaused",
      "type": "event"
    },
    {
      "inputs": [],
      "name": "DEFAULT_ADMIN_ROLE",
      "outputs": [
        {
          "internalType": "bytes32",
          "name": "",
          "type": "bytes32"
        }
      ],
      "stateMutability": "view",
      "type": "function"
    },
    {
      "inputs": [],
      "name": "MINTER_ROLE",
      "outputs": [
        {
          "internalType": "bytes32",
          "name": "",
          "type": "bytes32"
        }
      ],
      "stateMutability": "view",
      "type": "function"
    },
    {
      "inputs": [],
      "name": "PAUSER_ROLE",
      "outputs": [
        {
          "internalType": "bytes32",
          "name": "",
          "type": "bytes32"
        }
      ],
      "stateMutability": "view",
      "type": "function"
    },
    {
      "inputs": [
        {
          "internalType": "address",
          "name": "to",
          "type": "address"
        },
        {
          "internalType": "uint256",
          "name": "tokenId",
          "type": "uint256"
        }
      ],
      "name": "approve",
      "outputs": [],
      "stateMutability": "nonpayable",
      "type": "function"
    },
    {
      "inputs": [
        {
          "internalType": "address",
          "name": "owner",
          "type": "address"
        }
      ],
      "name": "balanceOf",
      "outputs": [
        {
          "internalType": "uint256",
          "name": "",
          "type": "uint256"
        }
      ],
      "stateMutability": "view",
      "type": "function"
    },
    {
      "inputs": [],
      "name": "baseTokenURI",
      "outputs": [
        {
          "internalType": "string",
          "name": "",
          "type": "string"
        }
      ],
      "stateMutability": "view",
      "type": "function"
    },
    {
      "inputs": [
        {
          "internalType": "address[]",
          "name": "_recipients",
          "type": "address[]"
        }
      ],
      "name": "bulkMint",
      "outputs": [
        {
          "internalType": "uint256[]",
          "name": "_tokenIds",
          "type": "uint256[]"
        }
      ],
      "stateMutability": "nonpayable",
      "type": "function"
    },
    {
      "inputs": [
        {
          "internalType": "uint256",
          "name": "tokenId",
          "type": "uint256"
        }
      ],
      "name": "burn",
      "outputs": [],
      "stateMutability": "nonpayable",
      "type": "function"
    },
    {
      "inputs": [
        {
          "internalType": "uint256",
          "name": "tokenId",
          "type": "uint256"
        }
      ],
      "name": "exists",
      "outputs": [
        {
          "internalType": "bool",
          "name": "",
          "type": "bool"
        }
      ],
      "stateMutability": "view",
      "type": "function"
    },
    {
      "inputs": [
        {
          "internalType": "contract IERC20",
          "name": "token",
          "type": "address"
        },
        {
          "internalType": "uint256",
          "name": "amount",
          "type": "uint256"
        }
      ],
      "name": "forwardERC20s",
      "outputs": [],
      "stateMutability": "nonpayable",
      "type": "function"
    },
    {
      "inputs": [
        {
          "internalType": "uint256",
          "name": "tokenId",
          "type": "uint256"
        }
      ],
      "name": "getApproved",
      "outputs": [
        {
          "internalType": "address",
          "name": "",
          "type": "address"
        }
      ],
      "stateMutability": "view",
      "type": "function"
    },
    {
      "inputs": [],
      "name": "getBaseURI",
      "outputs": [
        {
          "internalType": "string",
          "name": "",
          "type": "string"
        }
      ],
      "stateMutability": "view",
      "type": "function"
    },
    {
      "inputs": [
        {
          "internalType": "bytes32",
          "name": "role",
          "type": "bytes32"
        }
      ],
      "name": "getRoleAdmin",
      "outputs": [
        {
          "internalType": "bytes32",
          "name": "",
          "type": "bytes32"
        }
      ],
      "stateMutability": "view",
      "type": "function"
    },
    {
      "inputs": [
        {
          "internalType": "bytes32",
          "name": "role",
          "type": "bytes32"
        },
        {
          "internalType": "uint256",
          "name": "index",
          "type": "uint256"
        }
      ],
      "name": "getRoleMember",
      "outputs": [
        {
          "internalType": "address",
          "name": "",
          "type": "address"
        }
      ],
      "stateMutability": "view",
      "type": "function"
    },
    {
      "inputs": [
        {
          "internalType": "bytes32",
          "name": "role",
          "type": "bytes32"
        }
      ],
      "name": "getRoleMemberCount",
      "outputs": [
        {
          "internalType": "uint256",
          "name": "",
          "type": "uint256"
        }
      ],
      "stateMutability": "view",
      "type": "function"
    },
    {
      "inputs": [
        {
          "internalType": "address",
          "name": "ownerAddress",
          "type": "address"
        }
      ],
      "name": "getTokens",
      "outputs": [
        {
          "internalType": "uint256[]",
          "name": "",
          "type": "uint256[]"
        }
      ],
      "stateMutability": "view",
      "type": "function"
    },
    {
      "inputs": [
        {
          "internalType": "bytes32",
          "name": "role",
          "type": "bytes32"
        },
        {
          "internalType": "address",
          "name": "account",
          "type": "address"
        }
      ],
      "name": "grantRole",
      "outputs": [],
      "stateMutability": "nonpayable",
      "type": "function"
    },
    {
      "inputs": [
        {
          "internalType": "bytes32",
          "name": "role",
          "type": "bytes32"
        },
        {
          "internalType": "address",
          "name": "account",
          "type": "address"
        }
      ],
      "name": "hasRole",
      "outputs": [
        {
          "internalType": "bool",
          "name": "",
          "type": "bool"
        }
      ],
      "stateMutability": "view",
      "type": "function"
    },
    {
      "inputs": [
        {
          "internalType": "address",
          "name": "owner",
          "type": "address"
        },
        {
          "internalType": "address",
          "name": "operator",
          "type": "address"
        }
      ],
      "name": "isApprovedForAll",
      "outputs": [
        {
          "internalType": "bool",
          "name": "",
          "type": "bool"
        }
      ],
      "stateMutability": "view",
      "type": "function"
    },
    {
      "inputs": [
        {
          "internalType": "uint256",
          "name": "tokenId",
          "type": "uint256"
        }
      ],
      "name": "isItemPaused",
      "outputs": [
        {
          "internalType": "bool",
          "name": "",
          "type": "bool"
        }
      ],
      "stateMutability": "view",
      "type": "function"
    },
    {
      "inputs": [
        {
          "internalType": "address",
          "name": "to",
          "type": "address"
        }
      ],
      "name": "mint",
      "outputs": [
        {
          "internalType": "uint256",
          "name": "_tokenId",
          "type": "uint256"
        }
      ],
      "stateMutability": "nonpayable",
      "type": "function"
    },
    {
      "inputs": [
        {
          "internalType": "address",
          "name": "recipient",
          "type": "address"
        },
        {
          "internalType": "uint256",
          "name": "tokenId",
          "type": "uint256"
        }
      ],
      "name": "mintTokenId",
      "outputs": [],
      "stateMutability": "nonpayable",
      "type": "function"
    },
    {
      "inputs": [],
      "name": "minterAddress",
      "outputs": [
        {
          "internalType": "address",
          "name": "",
          "type": "address"
        }
      ],
      "stateMutability": "view",
      "type": "function"
    },
    {
      "inputs": [],
      "name": "name",
      "outputs": [
        {
          "internalType": "string",
          "name": "",
          "type": "string"
        }
      ],
      "stateMutability": "view",
      "type": "function"
    },
    {
      "inputs": [
        {
          "internalType": "uint256",
          "name": "",
          "type": "uint256"
        }
      ],
      "name": "nonces",
      "outputs": [
        {
          "internalType": "uint256",
          "name": "",
          "type": "uint256"
        }
      ],
      "stateMutability": "view",
      "type": "function"
    },
    {
      "inputs": [],
      "name": "numMinted",
      "outputs": [
        {
          "internalType": "uint256",
          "name": "",
          "type": "uint256"
        }
      ],
      "stateMutability": "view",
      "type": "function"
    },
    {
      "inputs": [],
      "name": "owner",
      "outputs": [
        {
          "internalType": "address",
          "name": "",
          "type": "address"
        }
      ],
      "stateMutability": "view",
      "type": "function"
    },
    {
      "inputs": [
        {
          "internalType": "uint256",
          "name": "tokenId",
          "type": "uint256"
        }
      ],
      "name": "ownerOf",
      "outputs": [
        {
          "internalType": "address",
          "name": "",
          "type": "address"
        }
      ],
      "stateMutability": "view",
      "type": "function"
    },
    {
      "inputs": [],
      "name": "pause",
      "outputs": [],
      "stateMutability": "nonpayable",
      "type": "function"
    },
    {
      "inputs": [],
      "name": "pauseContract",
      "outputs": [],
      "stateMutability": "nonpayable",
      "type": "function"
    },
    {
      "inputs": [
        {
          "internalType": "uint256",
          "name": "tag",
          "type": "uint256"
        },
        {
          "internalType": "bool",
          "name": "paused",
          "type": "bool"
        }
      ],
      "name": "pauseItem",
      "outputs": [],
      "stateMutability": "nonpayable",
      "type": "function"
    },
    {
      "inputs": [
        {
          "internalType": "uint256[]",
          "name": "tags",
          "type": "uint256[]"
        },
        {
          "internalType": "bool[]",
          "name": "paused",
          "type": "bool[]"
        }
      ],
      "name": "pauseItemsBatch",
      "outputs": [],
      "stateMutability": "nonpayable",
      "type": "function"
    },
    {
      "inputs": [],
      "name": "paused",
      "outputs": [
        {
          "internalType": "bool",
          "name": "",
          "type": "bool"
        }
      ],
      "stateMutability": "view",
      "type": "function"
    },
    {
      "inputs": [],
      "name": "renounceOwnership",
      "outputs": [],
      "stateMutability": "nonpayable",
      "type": "function"
    },
    {
      "inputs": [
        {
          "internalType": "bytes32",
          "name": "role",
          "type": "bytes32"
        },
        {
          "internalType": "address",
          "name": "account",
          "type": "address"
        }
      ],
      "name": "renounceRole",
      "outputs": [],
      "stateMutability": "nonpayable",
      "type": "function"
    },
    {
      "inputs": [
        {
          "internalType": "bytes32",
          "name": "role",
          "type": "bytes32"
        },
        {
          "internalType": "address",
          "name": "account",
          "type": "address"
        }
      ],
      "name": "revokeRole",
      "outputs": [],
      "stateMutability": "nonpayable",
      "type": "function"
    },
    {
      "inputs": [
        {
          "internalType": "address",
          "name": "from",
          "type": "address"
        },
        {
          "internalType": "address",
          "name": "to",
          "type": "address"
        },
        {
          "internalType": "uint256",
          "name": "tokenId",
          "type": "uint256"
        }
      ],
      "name": "safeTransferFrom",
      "outputs": [],
      "stateMutability": "nonpayable",
      "type": "function"
    },
    {
      "inputs": [
        {
          "internalType": "address",
          "name": "from",
          "type": "address"
        },
        {
          "internalType": "address",
          "name": "to",
          "type": "address"
        },
        {
          "internalType": "uint256",
          "name": "tokenId",
          "type": "uint256"
        },
        {
          "internalType": "bytes",
          "name": "data",
          "type": "bytes"
        }
      ],
      "name": "safeTransferFrom",
      "outputs": [],
      "stateMutability": "nonpayable",
      "type": "function"
    },
    {
      "inputs": [
        {
          "internalType": "address",
          "name": "operator",
          "type": "address"
        },
        {
          "internalType": "bool",
          "name": "approved",
          "type": "bool"
        }
      ],
      "name": "setApprovalForAll",
      "outputs": [],
      "stateMutability": "nonpayable",
      "type": "function"
    },
    {
      "inputs": [
        {
          "internalType": "string",
          "name": "baseTokenURI",
          "type": "string"
        }
      ],
      "name": "setBaseURI",
      "outputs": [],
      "stateMutability": "nonpayable",
      "type": "function"
    },
    {
      "inputs": [
        {
          "internalType": "address",
          "name": "newMinter",
          "type": "address"
        }
      ],
      "name": "setMinter",
      "outputs": [],
      "stateMutability": "nonpayable",
      "type": "function"
    },
    {
      "inputs": [
        {
          "internalType": "string",
          "name": "newBaseURI",
          "type": "string"
        }
      ],
      "name": "setNewBaseURI",
      "outputs": [],
      "stateMutability": "nonpayable",
      "type": "function"
    },
    {
      "inputs": [
        {
          "internalType": "uint256",
          "name": "_tokenId",
          "type": "uint256"
        }
      ],
      "name": "stateOf",
      "outputs": [
        {
          "internalType": "bytes",
          "name": "",
          "type": "bytes"
        }
      ],
      "stateMutability": "view",
      "type": "function"
    },
    {
      "inputs": [
        {
          "internalType": "bytes4",
          "name": "interfaceId",
          "type": "bytes4"
        }
      ],
      "name": "supportsInterface",
      "outputs": [
        {
          "internalType": "bool",
          "name": "",
          "type": "bool"
        }
      ],
      "stateMutability": "view",
      "type": "function"
    },
    {
      "inputs": [],
      "name": "symbol",
      "outputs": [
        {
          "internalType": "string",
          "name": "",
          "type": "string"
        }
      ],
      "stateMutability": "view",
      "type": "function"
    },
    {
      "inputs": [
        {
          "internalType": "uint256",
          "name": "index",
          "type": "uint256"
        }
      ],
      "name": "tokenByIndex",
      "outputs": [
        {
          "internalType": "uint256",
          "name": "",
          "type": "uint256"
        }
      ],
      "stateMutability": "view",
      "type": "function"
    },
    {
      "inputs": [
        {
          "internalType": "address",
          "name": "owner",
          "type": "address"
        },
        {
          "internalType": "uint256",
          "name": "index",
          "type": "uint256"
        }
      ],
      "name": "tokenOfOwnerByIndex",
      "outputs": [
        {
          "internalType": "uint256",
          "name": "",
          "type": "uint256"
        }
      ],
      "stateMutability": "view",
      "type": "function"
    },
    {
      "inputs": [
        {
          "internalType": "uint256",
          "name": "tokenId",
          "type": "uint256"
        }
      ],
      "name": "tokenURI",
      "outputs": [
        {
          "internalType": "string",
          "name": "",
          "type": "string"
        }
      ],
      "stateMutability": "view",
      "type": "function"
    },
    {
      "inputs": [],
      "name": "totalSupply",
      "outputs": [
        {
          "internalType": "uint256",
          "name": "",
          "type": "uint256"
        }
      ],
      "stateMutability": "view",
      "type": "function"
    },
    {
      "inputs": [
        {
          "internalType": "address",
          "name": "from",
          "type": "address"
        },
        {
          "internalType": "address",
          "name": "to",
          "type": "address"
        },
        {
          "internalType": "uint256",
          "name": "tokenId",
          "type": "uint256"
        }
      ],
      "name": "transferFrom",
      "outputs": [],
      "stateMutability": "nonpayable",
      "type": "function"
    },
    {
      "inputs": [
        {
          "internalType": "address",
          "name": "newOwner",
          "type": "address"
        }
      ],
      "name": "transferOwnership",
      "outputs": [],
      "stateMutability": "nonpayable",
      "type": "function"
    },
    {
      "inputs": [],
      "name": "unpause",
      "outputs": [],
      "stateMutability": "nonpayable",
      "type": "function"
    },
    {
      "inputs": [],
      "name": "unpauseContract",
      "outputs": [],
      "stateMutability": "nonpayable",
      "type": "function"
    },
    {
      "inputs": [],
      "name": "withdrawAll",
      "outputs": [],
      "stateMutability": "payable",
      "type": "function"
    }
  ],
  "bytecode": "0x608060405260006046553480156200001657600080fd5b506040516200421338038062004213833981016040819052620000399162000335565b6040518060400160405280600d81526020016c52756e6976657273654974656d60981b815250604051806040016040528060048152602001635249544d60e01b815250828282828282816002908162000093919062000498565b506003620000a2828262000498565b5050603f805460ff19169055506041620000bd828262000498565b50620000cb60003362000180565b620000f77f9f2df0fed2c77648de5860a4cc508cd0818c85b8b8a1ab4ceeef8d981c8956a63362000180565b620001237f65d7a28e3265b37a6474929f336521b332c1681b933f6cb9f3376673440d862a3362000180565b62000132604080546001019055565b505050505050620001526200014c6200017c60201b60201c565b62000190565b6001604355604562000165828262000498565b50604162000174828262000498565b505062000564565b3390565b6200018c8282620001e2565b5050565b604280546001600160a01b038381166001600160a01b0319831681179093556040519116919082907f8be0079c531659141344cd1fd0a4f28419497f9722a3daafe3b4186f6b6457e090600090a35050565b620001ee82826200020d565b6000828152600160205260409020620002089082620002ad565b505050565b6000828152602081815260408083206001600160a01b038516845290915290205460ff166200018c576000828152602081815260408083206001600160a01b03851684529091529020805460ff19166001179055620002693390565b6001600160a01b0316816001600160a01b0316837f2f8788117e7eff1d82e926ec794901d17c78024a50270940304540a733656f0d60405160405180910390a45050565b6000620002c4836001600160a01b038416620002cd565b90505b92915050565b60008181526001830160205260408120546200031657508154600181810184556000848152602080822090930184905584548482528286019093526040902091909155620002c7565b506000620002c7565b634e487b7160e01b600052604160045260246000fd5b600060208083850312156200034957600080fd5b82516001600160401b03808211156200036157600080fd5b818501915085601f8301126200037657600080fd5b8151818111156200038b576200038b6200031f565b604051601f8201601f19908116603f01168101908382118183101715620003b657620003b66200031f565b816040528281528886848701011115620003cf57600080fd5b600093505b82841015620003f35784840186015181850187015292850192620003d4565b600086848301015280965050505050505092915050565b600181811c908216806200041f57607f821691505b6020821081036200044057634e487b7160e01b600052602260045260246000fd5b50919050565b601f8211156200020857600081815260208120601f850160051c810160208610156200046f5750805b601f850160051c820191505b8181101562000490578281556001016200047b565b505050505050565b81516001600160401b03811115620004b457620004b46200031f565b620004cc81620004c584546200040a565b8462000446565b602080601f831160018114620005045760008415620004eb5750858301515b600019600386901b1c1916600185901b17855562000490565b600085815260208120601f198616915b82811015620005355788860151825594840194600190910190840162000514565b5085821015620005545787850151600019600388901b60f8161c191681555b5050505050600190811b01905550565b613c9f80620005746000396000f3fe6080604052600436106103355760003560e01c80636352211e116101ab578063a22cb465116100f7578063d539139311610095578063e63ab1e91161006f578063e63ab1e914610970578063e985e9c5146109a4578063f2fde38b146109ed578063fca3b5aa14610a0d57600080fd5b8063d539139314610907578063d547741f1461093b578063d547cfb71461095b57600080fd5b8063b88d4fde116100d1578063b88d4fde14610891578063c87b56dd146108b1578063ca15c873146108d1578063d52079b4146108f157600080fd5b8063a22cb4651461083c578063a9af70231461085c578063b33712c51461087c57600080fd5b8063853828b61161016457806391d148541161013e57806391d14854146107d257806395d89b41146107f25780639727151a14610807578063a217fddf1461082757600080fd5b8063853828b61461078c5780638da5cb5b146107945780639010d07c146107b257600080fd5b80636352211e146106ed5780636a6278421461070d57806370a082311461072d578063714c53981461074d578063715018a6146107625780638456cb591461077757600080fd5b806332761d1611610285578063439766ce116102235780634f558e79116101fd5780634f558e79146106755780634f6ccce71461069557806355f804b3146106b55780635c975abb146106d557600080fd5b8063439766ce1461060d578063450efe21146106225780634b82dca01461064257600080fd5b80633771aaa11161025f5780633771aaa11461058b5780633f4ba83a146105b857806342842e0e146105cd57806342966c68146105ed57600080fd5b806332761d161461052b57806334d722c91461054b57806336568abe1461056b57600080fd5b8063141a468c116102f257806323b872dd116102cc57806323b872dd1461049b578063248a9ca3146104bb5780632f2ff15d146104eb5780632f745c591461050b57600080fd5b8063141a468c1461042b57806318160ddd146104665780631cb1ac0b1461047b57600080fd5b806301ffc9a71461033a57806306fdde031461036f578063081812fc14610391578063083ec667146103c9578063095ea7b3146103eb578063131a7e241461040b575b600080fd5b34801561034657600080fd5b5061035a6103553660046131e8565b610a2d565b60405190151581526020015b60405180910390f35b34801561037b57600080fd5b50610384610a3e565b6040516103669190613255565b34801561039d57600080fd5b506103b16103ac366004613268565b610ad0565b6040516001600160a01b039091168152602001610366565b3480156103d557600080fd5b506103e96103e43660046132cc565b610af7565b005b3480156103f757600080fd5b506103e961040636600461334c565b610bea565b34801561041757600080fd5b50610384610426366004613268565b610cff565b34801561043757600080fd5b50610458610446366004613268565b60086020526000908152604090205481565b604051908152602001610366565b34801561047257600080fd5b50603d54610458565b34801561048757600080fd5b506103e9610496366004613378565b610dc6565b3480156104a757600080fd5b506103e96104b63660046133e9565b610de9565b3480156104c757600080fd5b506104586104d6366004613268565b60009081526020819052604090206001015490565b3480156104f757600080fd5b506103e961050636600461342a565b610e2d565b34801561051757600080fd5b5061045861052636600461334c565b610e52565b34801561053757600080fd5b506103e961054636600461334c565b610ee8565b34801561055757600080fd5b506044546103b1906001600160a01b031681565b34801561057757600080fd5b506103e961058636600461342a565b611007565b34801561059757600080fd5b506105ab6105a636600461345a565b611081565b604051610366919061349b565b3480156105c457600080fd5b506103e96111bb565b3480156105d957600080fd5b506103e96105e83660046133e9565b611263565b3480156105f957600080fd5b506103e9610608366004613268565b61127e565b34801561061957600080fd5b506103e96112b1565b34801561062e57600080fd5b506105ab61063d3660046134df565b611327565b34801561064e57600080fd5b5061035a61065d366004613268565b60601c60009081526047602052604090205460ff1690565b34801561068157600080fd5b5061035a610690366004613268565b61148e565b3480156106a157600080fd5b506104586106b0366004613268565b611499565b3480156106c157600080fd5b506103e96106d0366004613587565b61152c565b3480156106e157600080fd5b50603f5460ff1661035a565b3480156106f957600080fd5b506103b1610708366004613268565b611543565b34801561071957600080fd5b506104586107283660046134df565b6115a3565b34801561073957600080fd5b506104586107483660046134df565b61164a565b34801561075957600080fd5b506103846116d0565b34801561076e57600080fd5b506103e96116df565b34801561078357600080fd5b506103e96116f1565b6103e9611795565b3480156107a057600080fd5b506042546001600160a01b03166103b1565b3480156107be57600080fd5b506103b16107cd3660046135cf565b611835565b3480156107de57600080fd5b5061035a6107ed36600461342a565b611854565b3480156107fe57600080fd5b5061038461187d565b34801561081357600080fd5b506103e961082236600461334c565b61188c565b34801561083357600080fd5b50610458600081565b34801561084857600080fd5b506103e96108573660046135ff565b611923565b34801561086857600080fd5b506103e961087736600461362d565b61192e565b34801561088857600080fd5b506103e9611956565b34801561089d57600080fd5b506103e96108ac366004613652565b6119cd565b3480156108bd57600080fd5b506103846108cc366004613268565b611a05565b3480156108dd57600080fd5b506104586108ec366004613268565b611a90565b3480156108fd57600080fd5b5061045860465481565b34801561091357600080fd5b506104587f9f2df0fed2c77648de5860a4cc508cd0818c85b8b8a1ab4ceeef8d981c8956a681565b34801561094757600080fd5b506103e961095636600461342a565b611aa7565b34801561096757600080fd5b50610384611acc565b34801561097c57600080fd5b506104587f65d7a28e3265b37a6474929f336521b332c1681b933f6cb9f3376673440d862a81565b3480156109b057600080fd5b5061035a6109bf3660046136d1565b6001600160a01b03918216600090815260076020908152604080832093909416825291909152205460ff1690565b3480156109f957600080fd5b506103e9610a083660046134df565b611b5a565b348015610a1957600080fd5b506103e9610a283660046134df565b611bd0565b6000610a3882611c49565b92915050565b606060028054610a4d906136ff565b80601f0160208091040260200160405190810160405280929190818152602001828054610a79906136ff565b8015610ac65780601f10610a9b57610100808354040283529160200191610ac6565b820191906000526020600020905b815481529060010190602001808311610aa957829003601f168201915b5050505050905090565b6000610adb82611c89565b506000908152600660205260409020546001600160a01b031690565b610aff611cd9565b828114610b5e5760405162461bcd60e51b815260206004820152602260248201527f4172726179732073686f756c642068617665207468652073616d65206c656e676044820152610e8d60f31b60648201526084015b60405180910390fd5b60005b83811015610be357828282818110610b7b57610b7b613739565b9050602002016020810190610b90919061374f565b60476000878785818110610ba657610ba6613739565b90506020020135815260200190815260200160002060006101000a81548160ff02191690831515021790555080610bdc90613782565b9050610b61565b5050505050565b6000610bf582611543565b9050806001600160a01b0316836001600160a01b031603610c625760405162461bcd60e51b815260206004820152602160248201527f4552433732313a20617070726f76616c20746f2063757272656e74206f776e656044820152603960f91b6064820152608401610b55565b336001600160a01b0382161480610c7e5750610c7e81336109bf565b610cf05760405162461bcd60e51b815260206004820152603d60248201527f4552433732313a20617070726f76652063616c6c6572206973206e6f7420746f60448201527f6b656e206f776e6572206f7220617070726f76656420666f7220616c6c0000006064820152608401610b55565b610cfa8383611d33565b505050565b6060610d0a82611da1565b610d695760405162461bcd60e51b815260206004820152602a60248201527f455243373231436f6d6d6f6e3a20717565727920666f72206e6f6e2d657869736044820152693a32b73a103a37b5b2b760b11b6064820152608401610b55565b610d7282611543565b60008381526008602090815260409182902054915160609390931b6bffffffffffffffffffffffff1916908301526034820152605481018390526074015b6040516020818303038152906040529050919050565b610dce611cd9565b6045610ddb8284836137e9565b506041610cfa8284836137e9565b610e058160601c60009081526047602052604090205460ff1690565b15610e225760405162461bcd60e51b8152600401610b55906138a8565b610cfa838383611dbe565b600082815260208190526040902060010154610e4881611dee565b610cfa8383611df8565b6000610e5d8361164a565b8210610ebf5760405162461bcd60e51b815260206004820152602b60248201527f455243373231456e756d657261626c653a206f776e657220696e646578206f7560448201526a74206f6620626f756e647360a81b6064820152608401610b55565b506001600160a01b03919091166000908152603b60209081526040808320938352929052205490565b610ef0611e1a565b603f5460ff1615610f375760405162461bcd60e51b8152602060048201526011602482015270135a5b9d1a5b99c81a5cc81c185d5cd959607a1b6044820152606401610b55565b6044546001600160a01b0316336001600160a01b031614610f9a5760405162461bcd60e51b815260206004820152601b60248201527f4d696e7465722061646472657373206973206e6f742076616c696400000000006044820152606401610b55565b604660008154610fa990613782565b90915550604080516001600160a01b0384168152602081018390527f604e0f34ba8d6d3f7f48c01c251c7bf880d71369b217e5b976ca6120cc51710c910160405180910390a1610ff98282611e73565b6110036001604355565b5050565b6001600160a01b03811633146110775760405162461bcd60e51b815260206004820152602f60248201527f416363657373436f6e74726f6c3a2063616e206f6e6c792072656e6f756e636560448201526e103937b632b9903337b91039b2b63360891b6064820152608401610b55565b6110038282611e8d565b60607f9f2df0fed2c77648de5860a4cc508cd0818c85b8b8a1ab4ceeef8d981c8956a66110ad81611dee565b826111065760405162461bcd60e51b815260206004820152602360248201527f455243373231436f6d6d6f6e3a20696e76616c6964206172726179206c656e6760448201526274687360e81b6064820152608401610b55565b826001600160401b0381111561111e5761111e6134fc565b604051908082528060200260200182016040528015611147578160200160208202803683370190505b50915060005b838110156111b35761118485858381811061116a5761116a613739565b905060200201602081019061117f91906134df565b611eaf565b83828151811061119657611196613739565b6020908102919091010152806111ab81613782565b91505061114d565b505092915050565b6111e57f65d7a28e3265b37a6474929f336521b332c1681b933f6cb9f3376673440d862a33611854565b611259576040805162461bcd60e51b81526020600482015260248101919091527f4552433732315072657365744d696e7465725061757365724175746f49643a2060448201527f6d75737420686176652070617573657220726f6c6520746f20756e70617573656064820152608401610b55565b611261611ed9565b565b610cfa838383604051806020016040528060008152506119cd565b611289335b82611f2b565b6112a55760405162461bcd60e51b8152600401610b55906138d0565b6112ae81611faa565b50565b6112b9611cd9565b306001600160a01b0316635c975abb6040518163ffffffff1660e01b8152600401602060405180830381865afa1580156112f7573d6000803e3d6000fd5b505050506040513d601f19601f8201168201806040525081019061131b919061391d565b61126157611261611fec565b6040516370a0823160e01b81526001600160a01b038216600482015260609060009030906370a0823190602401602060405180830381865afa158015611371573d6000803e3d6000fd5b505050506040513d601f19601f82011682018060405250810190611395919061393a565b90506000816001600160401b038111156113b1576113b16134fc565b6040519080825280602002602001820160405280156113da578160200160208202803683370190505b50905060005b8281101561148657604051632f745c5960e01b81526001600160a01b0386166004820152602481018290523090632f745c5990604401602060405180830381865afa158015611433573d6000803e3d6000fd5b505050506040513d601f19601f82011682018060405250810190611457919061393a565b82828151811061146957611469613739565b60209081029190910101528061147e81613782565b9150506113e0565b509392505050565b6000610a3882611da1565b60006114a4603d5490565b82106115075760405162461bcd60e51b815260206004820152602c60248201527f455243373231456e756d657261626c653a20676c6f62616c20696e646578206f60448201526b7574206f6620626f756e647360a01b6064820152608401610b55565b603d828154811061151a5761151a613739565b90600052602060002001549050919050565b600061153781611dee565b6041610cfa8382613953565b6000818152600460205260408120546001600160a01b031680610a385760405162461bcd60e51b8152602060048201526018602482015277115490cdcc8c4e881a5b9d985b1a59081d1bdad95b88125160421b6044820152606401610b55565b60006115cf7f9f2df0fed2c77648de5860a4cc508cd0818c85b8b8a1ab4ceeef8d981c8956a633611854565b6116415760405162461bcd60e51b815260206004820152603d60248201527f4552433732315072657365744d696e7465725061757365724175746f49643a2060448201527f6d7573742068617665206d696e74657220726f6c6520746f206d696e740000006064820152608401610b55565b610a3882611eaf565b60006001600160a01b0382166116b45760405162461bcd60e51b815260206004820152602960248201527f4552433732313a2061646472657373207a65726f206973206e6f7420612076616044820152683634b21037bbb732b960b91b6064820152608401610b55565b506001600160a01b031660009081526005602052604090205490565b606060458054610a4d906136ff565b6116e7611cd9565b6112616000612029565b61171b7f65d7a28e3265b37a6474929f336521b332c1681b933f6cb9f3376673440d862a33611854565b61178d5760405162461bcd60e51b815260206004820152603e60248201527f4552433732315072657365744d696e7465725061757365724175746f49643a2060448201527f6d75737420686176652070617573657220726f6c6520746f20706175736500006064820152608401610b55565b611261611fec565b61179d611cd9565b604051600090339047908381818185875af1925050503d80600081146117df576040519150601f19603f3d011682016040523d82523d6000602084013e6117e4565b606091505b50509050806112ae5760405162461bcd60e51b815260206004820152601b60248201527f776974686472617720776173206e6f742073756363657366756c6c00000000006044820152606401610b55565b600082815260016020526040812061184d908361207b565b9392505050565b6000918252602082815260408084206001600160a01b0393909316845291905290205460ff1690565b606060038054610a4d906136ff565b611894611cd9565b336118b2576040516324560b2960e11b815260040160405180910390fd5b60405163a9059cbb60e01b8152336004820152602481018290526001600160a01b0383169063a9059cbb906044016020604051808303816000875af11580156118ff573d6000803e3d6000fd5b505050506040513d601f19601f82011682018060405250810190610cfa919061391d565b611003338383612087565b611936611cd9565b600091825260476020526040909120805460ff1916911515919091179055565b61195e611cd9565b306001600160a01b0316635c975abb6040518163ffffffff1660e01b8152600401602060405180830381865afa15801561199c573d6000803e3d6000fd5b505050506040513d601f19601f820116820180604052508101906119c0919061391d565b1561126157611261611ed9565b6119d73383611f2b565b6119f35760405162461bcd60e51b8152600401610b55906138d0565b6119ff84848484612155565b50505050565b6060611a1082611da1565b611a745760405162461bcd60e51b815260206004820152602f60248201527f4552433732314d657461646174613a2055524920717565727920666f72206e6f60448201526e3732bc34b9ba32b73a103a37b5b2b760891b6064820152608401610b55565b6045611a7f83612188565b604051602001610db0929190613a12565b6000818152600160205260408120610a389061221a565b600082815260208190526040902060010154611ac281611dee565b610cfa8383611e8d565b60458054611ad9906136ff565b80601f0160208091040260200160405190810160405280929190818152602001828054611b05906136ff565b8015611b525780601f10611b2757610100808354040283529160200191611b52565b820191906000526020600020905b815481529060010190602001808311611b3557829003601f168201915b505050505081565b611b62611cd9565b6001600160a01b038116611bc75760405162461bcd60e51b815260206004820152602660248201527f4f776e61626c653a206e6577206f776e657220697320746865207a65726f206160448201526564647265737360d01b6064820152608401610b55565b6112ae81612029565b611bd8611cd9565b6001600160a01b038116611c275760405162461bcd60e51b8152602060048201526016602482015275496e76616c6964206d696e746572206164647265737360501b6044820152606401610b55565b604480546001600160a01b0319166001600160a01b0392909216919091179055565b60006001600160e01b03198216633771aaa160e01b1480611c7a57506001600160e01b031982166304c69f8960e21b145b80610a385750610a3882612224565b611c9281611da1565b6112ae5760405162461bcd60e51b8152602060048201526018602482015277115490cdcc8c4e881a5b9d985b1a59081d1bdad95b88125160421b6044820152606401610b55565b6042546001600160a01b031633146112615760405162461bcd60e51b815260206004820181905260248201527f4f776e61626c653a2063616c6c6572206973206e6f7420746865206f776e65726044820152606401610b55565b600081815260066020526040902080546001600160a01b0319166001600160a01b0384169081179091558190611d6882611543565b6001600160a01b03167f8c5be1e5ebec7d5bd14f71427d1e84f3dd0314c0f7b2291e5b200ac8c7c3b92560405160405180910390a45050565b6000908152600460205260409020546001600160a01b0316151590565b611dc733611283565b611de35760405162461bcd60e51b8152600401610b55906138d0565b610cfa838383612249565b6112ae813361228d565b611e0282826122e6565b6000828152600160205260409020610cfa908261236a565b600260435403611e6c5760405162461bcd60e51b815260206004820152601f60248201527f5265656e7472616e637947756172643a207265656e7472616e742063616c6c006044820152606401610b55565b6002604355565b61100382826040518060200160405280600081525061237f565b611e9782826123b2565b6000828152600160205260409020610cfa9082612417565b6000611eba60405490565b9050611ec6828261242c565b611ed4604080546001019055565b919050565b611ee16125a7565b603f805460ff191690557f5db9ee0a495bf2e6ff9c91a7834c1ba4fdd244a5e8aa4e537bd38aeae4b073aa335b6040516001600160a01b03909116815260200160405180910390a1565b600080611f3783611543565b9050806001600160a01b0316846001600160a01b03161480611f7e57506001600160a01b0380821660009081526007602090815260408083209388168352929052205460ff165b80611fa25750836001600160a01b0316611f9784610ad0565b6001600160a01b0316145b949350505050565b611fc68160601c60009081526047602052604090205460ff1690565b15611fe35760405162461bcd60e51b8152600401610b55906138a8565b6112ae816125f0565b611ff4612693565b603f805460ff191660011790557f62e78cea01bee320cd4e420270b5ea74000d11b0c9f74754ebdbfc544b05a258611f0e3390565b604280546001600160a01b038381166001600160a01b0319831681179093556040519116919082907f8be0079c531659141344cd1fd0a4f28419497f9722a3daafe3b4186f6b6457e090600090a35050565b600061184d83836126d9565b816001600160a01b0316836001600160a01b0316036120e85760405162461bcd60e51b815260206004820152601960248201527f4552433732313a20617070726f766520746f2063616c6c6572000000000000006044820152606401610b55565b6001600160a01b03838116600081815260076020908152604080832094871680845294825291829020805460ff191686151590811790915591519182527f17307eab39ab6107e8899845ad3d59bd9653f200f220920489ca2b5937696c31910160405180910390a3505050565b612160848484612249565b61216c84848484612703565b6119ff5760405162461bcd60e51b8152600401610b5590613a99565b6060600061219583612804565b60010190506000816001600160401b038111156121b4576121b46134fc565b6040519080825280601f01601f1916602001820160405280156121de576020820181803683370190505b5090508181016020015b600019016f181899199a1a9b1b9c1cb0b131b232b360811b600a86061a8153600a85049450846121e857509392505050565b6000610a38825490565b60006001600160e01b0319821663d17f1b2160e01b1480610a385750610a38826128dc565b6122658160601c60009081526047602052604090205460ff1690565b156122825760405162461bcd60e51b8152600401610b55906138a8565b610cfa838383612901565b6122978282611854565b611003576122a481612a72565b6122af836020612a84565b6040516020016122c0929190613aeb565b60408051601f198184030181529082905262461bcd60e51b8252610b5591600401613255565b6122f08282611854565b611003576000828152602081815260408083206001600160a01b03851684529091529020805460ff191660011790556123263390565b6001600160a01b0316816001600160a01b0316837f2f8788117e7eff1d82e926ec794901d17c78024a50270940304540a733656f0d60405160405180910390a45050565b600061184d836001600160a01b038416612c1f565b612389838361242c565b6123966000848484612703565b610cfa5760405162461bcd60e51b8152600401610b5590613a99565b6123bc8282611854565b15611003576000828152602081815260408083206001600160a01b0385168085529252808320805460ff1916905551339285917ff6391f5c32d9c69d2a47ea670b442974b53935d1edc7fd64eb21e047a839171b9190a45050565b600061184d836001600160a01b038416612c6e565b6001600160a01b0382166124825760405162461bcd60e51b815260206004820181905260248201527f4552433732313a206d696e7420746f20746865207a65726f20616464726573736044820152606401610b55565b61248b81611da1565b156124d85760405162461bcd60e51b815260206004820152601c60248201527f4552433732313a20746f6b656e20616c7265616479206d696e746564000000006044820152606401610b55565b6124e6600083836001612d61565b6124ef81611da1565b1561253c5760405162461bcd60e51b815260206004820152601c60248201527f4552433732313a20746f6b656e20616c7265616479206d696e746564000000006044820152606401610b55565b6001600160a01b038216600081815260056020908152604080832080546001019055848352600490915280822080546001600160a01b0319168417905551839291907fddf252ad1be2c89b69c2b068fc378daa952ba7f163c4a11628f55a4df523b3ef908290a45050565b603f5460ff166112615760405162461bcd60e51b815260206004820152601460248201527314185d5cd8589b194e881b9bdd081c185d5cd95960621b6044820152606401610b55565b60006125fb82611543565b905061260b816000846001612d61565b61261482611543565b600083815260066020908152604080832080546001600160a01b03199081169091556001600160a01b0385168085526005845282852080546000190190558785526004909352818420805490911690555192935084927fddf252ad1be2c89b69c2b068fc378daa952ba7f163c4a11628f55a4df523b3ef908390a45050565b603f5460ff16156112615760405162461bcd60e51b815260206004820152601060248201526f14185d5cd8589b194e881c185d5cd95960821b6044820152606401610b55565b60008260000182815481106126f0576126f0613739565b9060005260206000200154905092915050565b60006001600160a01b0384163b156127f957604051630a85bd0160e11b81526001600160a01b0385169063150b7a0290612747903390899088908890600401613b60565b6020604051808303816000875af1925050508015612782575060408051601f3d908101601f1916820190925261277f91810190613b9d565b60015b6127df573d8080156127b0576040519150601f19603f3d011682016040523d82523d6000602084013e6127b5565b606091505b5080516000036127d75760405162461bcd60e51b8152600401610b5590613a99565b805181602001fd5b6001600160e01b031916630a85bd0160e11b149050611fa2565b506001949350505050565b60008072184f03e93ff9f4daa797ed6e38ed64bf6a1f0160401b83106128435772184f03e93ff9f4daa797ed6e38ed64bf6a1f0160401b830492506040015b6d04ee2d6d415b85acef8100000000831061286f576d04ee2d6d415b85acef8100000000830492506020015b662386f26fc10000831061288d57662386f26fc10000830492506010015b6305f5e10083106128a5576305f5e100830492506008015b61271083106128b957612710830492506004015b606483106128cb576064830492506002015b600a8310610a385760010192915050565b60006001600160e01b0319821663780e9d6360e01b1480610a385750610a3882612d6d565b826001600160a01b031661291482611543565b6001600160a01b03161461293a5760405162461bcd60e51b8152600401610b5590613bba565b6001600160a01b03821661299c5760405162461bcd60e51b8152602060048201526024808201527f4552433732313a207472616e7366657220746f20746865207a65726f206164646044820152637265737360e01b6064820152608401610b55565b6129a98383836001612d61565b826001600160a01b03166129bc82611543565b6001600160a01b0316146129e25760405162461bcd60e51b8152600401610b5590613bba565b600081815260066020908152604080832080546001600160a01b03199081169091556001600160a01b0387811680865260058552838620805460001901905590871680865283862080546001019055868652600490945282852080549092168417909155905184937fddf252ad1be2c89b69c2b068fc378daa952ba7f163c4a11628f55a4df523b3ef91a4505050565b6060610a386001600160a01b03831660145b60606000612a93836002613bff565b612a9e906002613c16565b6001600160401b03811115612ab557612ab56134fc565b6040519080825280601f01601f191660200182016040528015612adf576020820181803683370190505b509050600360fc1b81600081518110612afa57612afa613739565b60200101906001600160f81b031916908160001a905350600f60fb1b81600181518110612b2957612b29613739565b60200101906001600160f81b031916908160001a9053506000612b4d846002613bff565b612b58906001613c16565b90505b6001811115612bd0576f181899199a1a9b1b9c1cb0b131b232b360811b85600f1660108110612b8c57612b8c613739565b1a60f81b828281518110612ba257612ba2613739565b60200101906001600160f81b031916908160001a90535060049490941c93612bc981613c29565b9050612b5b565b50831561184d5760405162461bcd60e51b815260206004820181905260248201527f537472696e67733a20686578206c656e67746820696e73756666696369656e746044820152606401610b55565b6000818152600183016020526040812054612c6657508154600181810184556000848152602080822090930184905584548482528286019093526040902091909155610a38565b506000610a38565b60008181526001830160205260408120548015612d57576000612c92600183613c40565b8554909150600090612ca690600190613c40565b9050818114612d0b576000866000018281548110612cc657612cc6613739565b9060005260206000200154905080876000018481548110612ce957612ce9613739565b6000918252602080832090910192909255918252600188019052604090208390555b8554869080612d1c57612d1c613c53565b600190038181906000526020600020016000905590558560010160008681526020019081526020016000206000905560019350505050610a38565b6000915050610a38565b6119ff84848484612dad565b60006001600160e01b031982166380ac58cd60e01b1480612d9e57506001600160e01b03198216635b5e139f60e01b145b80610a385750610a3882612db9565b6119ff84848484612dde565b60006001600160e01b03198216635a05180f60e01b1480610a385750610a3882612dea565b6119ff84848484612e1f565b60006001600160e01b03198216637965db0b60e01b1480610a3857506301ffc9a760e01b6001600160e01b0319831614610a38565b612e2b84848484612e92565b603f5460ff16156119ff5760405162461bcd60e51b815260206004820152602b60248201527f4552433732315061757361626c653a20746f6b656e207472616e73666572207760448201526a1a1a5b19481c185d5cd95960aa1b6064820152608401610b55565b612e9e84848484612fcb565b6001811115612f0d5760405162461bcd60e51b815260206004820152603560248201527f455243373231456e756d657261626c653a20636f6e7365637574697665207472604482015274185b9cd9995c9cc81b9bdd081cdd5c1c1bdc9d1959605a1b6064820152608401610b55565b816001600160a01b038516612f6957612f6481603d80546000838152603e60205260408120829055600182018355919091527fece66cfdbd22e3f37d348a3d8e19074452862cd65fd4b9a11f0336d1ac6d1dc30155565b612f8c565b836001600160a01b0316856001600160a01b031614612f8c57612f8c8582613042565b6001600160a01b038416612fa857612fa3816130df565b610be3565b846001600160a01b0316846001600160a01b031614610be357610be3848261318e565b815b612fd78284613c16565b81101561303c5760008181526008602052604081208054909190612ffa90613782565b918290555060405182907fcc2c68164f9f7f0c063ba98bcf89498c0f3f5e3acc32bf4ab46195ecb489c13b90600090a38061303481613782565b915050612fcd565b506119ff565b6000600161304f8461164a565b6130599190613c40565b6000838152603c60205260409020549091508082146130ac576001600160a01b0384166000908152603b602090815260408083208584528252808320548484528184208190558352603c90915290208190555b506000918252603c602090815260408084208490556001600160a01b039094168352603b81528383209183525290812055565b603d546000906130f190600190613c40565b6000838152603e6020526040812054603d805493945090928490811061311957613119613739565b9060005260206000200154905080603d838154811061313a5761313a613739565b6000918252602080832090910192909255828152603e9091526040808220849055858252812055603d80548061317257613172613c53565b6001900381819060005260206000200160009055905550505050565b60006131998361164a565b6001600160a01b039093166000908152603b602090815260408083208684528252808320859055938252603c9052919091209190915550565b6001600160e01b0319811681146112ae57600080fd5b6000602082840312156131fa57600080fd5b813561184d816131d2565b60005b83811015613220578181015183820152602001613208565b50506000910152565b60008151808452613241816020860160208601613205565b601f01601f19169290920160200192915050565b60208152600061184d6020830184613229565b60006020828403121561327a57600080fd5b5035919050565b60008083601f84011261329357600080fd5b5081356001600160401b038111156132aa57600080fd5b6020830191508360208260051b85010111156132c557600080fd5b9250929050565b600080600080604085870312156132e257600080fd5b84356001600160401b03808211156132f957600080fd5b61330588838901613281565b9096509450602087013591508082111561331e57600080fd5b5061332b87828801613281565b95989497509550505050565b6001600160a01b03811681146112ae57600080fd5b6000806040838503121561335f57600080fd5b823561336a81613337565b946020939093013593505050565b6000806020838503121561338b57600080fd5b82356001600160401b03808211156133a257600080fd5b818501915085601f8301126133b657600080fd5b8135818111156133c557600080fd5b8660208285010111156133d757600080fd5b60209290920196919550909350505050565b6000806000606084860312156133fe57600080fd5b833561340981613337565b9250602084013561341981613337565b929592945050506040919091013590565b6000806040838503121561343d57600080fd5b82359150602083013561344f81613337565b809150509250929050565b6000806020838503121561346d57600080fd5b82356001600160401b0381111561348357600080fd5b61348f85828601613281565b90969095509350505050565b6020808252825182820181905260009190848201906040850190845b818110156134d3578351835292840192918401916001016134b7565b50909695505050505050565b6000602082840312156134f157600080fd5b813561184d81613337565b634e487b7160e01b600052604160045260246000fd5b60006001600160401b038084111561352c5761352c6134fc565b604051601f8501601f19908116603f01168101908282118183101715613554576135546134fc565b8160405280935085815286868601111561356d57600080fd5b858560208301376000602087830101525050509392505050565b60006020828403121561359957600080fd5b81356001600160401b038111156135af57600080fd5b8201601f810184136135c057600080fd5b611fa284823560208401613512565b600080604083850312156135e257600080fd5b50508035926020909101359150565b80151581146112ae57600080fd5b6000806040838503121561361257600080fd5b823561361d81613337565b9150602083013561344f816135f1565b6000806040838503121561364057600080fd5b82359150602083013561344f816135f1565b6000806000806080858703121561366857600080fd5b843561367381613337565b9350602085013561368381613337565b92506040850135915060608501356001600160401b038111156136a557600080fd5b8501601f810187136136b657600080fd5b6136c587823560208401613512565b91505092959194509250565b600080604083850312156136e457600080fd5b82356136ef81613337565b9150602083013561344f81613337565b600181811c9082168061371357607f821691505b60208210810361373357634e487b7160e01b600052602260045260246000fd5b50919050565b634e487b7160e01b600052603260045260246000fd5b60006020828403121561376157600080fd5b813561184d816135f1565b634e487b7160e01b600052601160045260246000fd5b6000600182016137945761379461376c565b5060010190565b601f821115610cfa57600081815260208120601f850160051c810160208610156137c25750805b601f850160051c820191505b818110156137e1578281556001016137ce565b505050505050565b6001600160401b03831115613800576138006134fc565b6138148361380e83546136ff565b8361379b565b6000601f84116001811461384857600085156138305750838201355b600019600387901b1c1916600186901b178355610be3565b600083815260209020601f19861690835b828110156138795786850135825560209485019460019092019101613859565b50868210156138965760001960f88860031b161c19848701351681555b505060018560011b0183555050505050565b6020808252600e908201526d125d195b481a5cc81c185d5cd95960921b604082015260600190565b6020808252602d908201527f4552433732313a2063616c6c6572206973206e6f7420746f6b656e206f776e6560408201526c1c881bdc88185c1c1c9bdd9959609a1b606082015260800190565b60006020828403121561392f57600080fd5b815161184d816135f1565b60006020828403121561394c57600080fd5b5051919050565b81516001600160401b0381111561396c5761396c6134fc565b6139808161397a84546136ff565b8461379b565b602080601f8311600181146139b5576000841561399d5750858301515b600019600386901b1c1916600185901b1785556137e1565b600085815260208120601f198616915b828110156139e4578886015182559484019460019091019084016139c5565b5085821015613a025787850151600019600388901b60f8161c191681555b5050505050600190811b01905550565b6000808454613a20816136ff565b60018281168015613a385760018114613a4d57613a7c565b60ff1984168752821515830287019450613a7c565b8860005260208060002060005b85811015613a735781548a820152908401908201613a5a565b50505082870194505b505050508351613a90818360208801613205565b01949350505050565b60208082526032908201527f4552433732313a207472616e7366657220746f206e6f6e20455243373231526560408201527131b2b4bb32b91034b6b83632b6b2b73a32b960711b606082015260800190565b7f416363657373436f6e74726f6c3a206163636f756e7420000000000000000000815260008351613b23816017850160208801613205565b7001034b99036b4b9b9b4b733903937b6329607d1b6017918401918201528351613b54816028840160208801613205565b01602801949350505050565b6001600160a01b0385811682528416602082015260408101839052608060608201819052600090613b9390830184613229565b9695505050505050565b600060208284031215613baf57600080fd5b815161184d816131d2565b60208082526025908201527f4552433732313a207472616e736665722066726f6d20696e636f72726563742060408201526437bbb732b960d91b606082015260800190565b8082028115828204841417610a3857610a3861376c565b80820180821115610a3857610a3861376c565b600081613c3857613c3861376c565b506000190190565b81810381811115610a3857610a3861376c565b634e487b7160e01b600052603160045260246000fdfea2646970667358221220d2f5a6e7b9bfccd4e161cf7f74315303e0acd3afeaf1511647e8fed2944fed3564736f6c63430008130033",
  "linkReferences": {},
  "deployedLinkReferences": {}
}