{
  "_format": "hh-sol-artifact-1",
  "contractName": "RuniverseItem",
  "sourceName": "contracts/RuniverseItem.sol",
  "abi": [
    {
      "inputs": [
        {
          "internalType": "string",
          "name": "_baseURI",
          "type": "string"
        }
      ],
      "stateMutability": "nonpayable",
      "type": "constructor"
    },
    {
      "inputs": [],
      "name": "Address0Error",
      "type": "error"
    },
    {
      "anonymous": false,
      "inputs": [
        {
          "indexed": true,
          "internalType": "address",
          "name": "owner",
          "type": "address"
        },
        {
          "indexed": true,
          "internalType": "address",
          "name": "approved",
          "type": "address"
        },
        {
          "indexed": true,
          "internalType": "uint256",
          "name": "tokenId",
          "type": "uint256"
        }
      ],
      "name": "Approval",
      "type": "event"
    },
    {
      "anonymous": false,
      "inputs": [
        {
          "indexed": true,
          "internalType": "address",
          "name": "owner",
          "type": "address"
        },
        {
          "indexed": true,
          "internalType": "address",
          "name": "operator",
          "type": "address"
        },
        {
          "indexed": false,
          "internalType": "bool",
          "name": "approved",
          "type": "bool"
        }
      ],
      "name": "ApprovalForAll",
      "type": "event"
    },
    {
      "anonymous": false,
      "inputs": [
        {
          "indexed": true,
          "internalType": "uint256",
          "name": "_tokenId",
          "type": "uint256"
        },
        {
          "indexed": true,
          "internalType": "uint256",
          "name": "_nonce",
          "type": "uint256"
        }
      ],
      "name": "NonceUpdated",
      "type": "event"
    },
    {
      "anonymous": false,
      "inputs": [
        {
          "indexed": true,
          "internalType": "address",
          "name": "previousOwner",
          "type": "address"
        },
        {
          "indexed": true,
          "internalType": "address",
          "name": "newOwner",
          "type": "address"
        }
      ],
      "name": "OwnershipTransferred",
      "type": "event"
    },
    {
      "anonymous": false,
      "inputs": [
        {
          "indexed": false,
          "internalType": "address",
          "name": "account",
          "type": "address"
        }
      ],
      "name": "Paused",
      "type": "event"
    },
    {
      "anonymous": false,
      "inputs": [
        {
          "indexed": true,
          "internalType": "bytes32",
          "name": "role",
          "type": "bytes32"
        },
        {
          "indexed": true,
          "internalType": "bytes32",
          "name": "previousAdminRole",
          "type": "bytes32"
        },
        {
          "indexed": true,
          "internalType": "bytes32",
          "name": "newAdminRole",
          "type": "bytes32"
        }
      ],
      "name": "RoleAdminChanged",
      "type": "event"
    },
    {
      "anonymous": false,
      "inputs": [
        {
          "indexed": true,
          "internalType": "bytes32",
          "name": "role",
          "type": "bytes32"
        },
        {
          "indexed": true,
          "internalType": "address",
          "name": "account",
          "type": "address"
        },
        {
          "indexed": true,
          "internalType": "address",
          "name": "sender",
          "type": "address"
        }
      ],
      "name": "RoleGranted",
      "type": "event"
    },
    {
      "anonymous": false,
      "inputs": [
        {
          "indexed": true,
          "internalType": "bytes32",
          "name": "role",
          "type": "bytes32"
        },
        {
          "indexed": true,
          "internalType": "address",
          "name": "account",
          "type": "address"
        },
        {
          "indexed": true,
          "internalType": "address",
          "name": "sender",
          "type": "address"
        }
      ],
      "name": "RoleRevoked",
      "type": "event"
    },
    {
      "anonymous": false,
      "inputs": [
        {
          "indexed": false,
          "internalType": "address",
          "name": "to",
          "type": "address"
        },
        {
          "indexed": false,
          "internalType": "uint256",
          "name": "tokenId",
          "type": "uint256"
        }
      ],
      "name": "RuniverseItemMinted",
      "type": "event"
    },
    {
      "anonymous": false,
      "inputs": [
        {
          "indexed": true,
          "internalType": "address",
          "name": "from",
          "type": "address"
        },
        {
          "indexed": true,
          "internalType": "address",
          "name": "to",
          "type": "address"
        },
        {
          "indexed": true,
          "internalType": "uint256",
          "name": "tokenId",
          "type": "uint256"
        }
      ],
      "name": "Transfer",
      "type": "event"
    },
    {
      "anonymous": false,
      "inputs": [
        {
          "indexed": false,
          "internalType": "address",
          "name": "account",
          "type": "address"
        }
      ],
      "name": "Unpaused",
      "type": "event"
    },
    {
      "inputs": [],
      "name": "DEFAULT_ADMIN_ROLE",
      "outputs": [
        {
          "internalType": "bytes32",
          "name": "",
          "type": "bytes32"
        }
      ],
      "stateMutability": "view",
      "type": "function"
    },
    {
      "inputs": [],
      "name": "MINTER_ROLE",
      "outputs": [
        {
          "internalType": "bytes32",
          "name": "",
          "type": "bytes32"
        }
      ],
      "stateMutability": "view",
      "type": "function"
    },
    {
      "inputs": [],
      "name": "PAUSER_ROLE",
      "outputs": [
        {
          "internalType": "bytes32",
          "name": "",
          "type": "bytes32"
        }
      ],
      "stateMutability": "view",
      "type": "function"
    },
    {
      "inputs": [
        {
          "internalType": "address",
          "name": "to",
          "type": "address"
        },
        {
          "internalType": "uint256",
          "name": "tokenId",
          "type": "uint256"
        }
      ],
      "name": "approve",
      "outputs": [],
      "stateMutability": "nonpayable",
      "type": "function"
    },
    {
      "inputs": [
        {
          "internalType": "address",
          "name": "owner",
          "type": "address"
        }
      ],
      "name": "balanceOf",
      "outputs": [
        {
          "internalType": "uint256",
          "name": "",
          "type": "uint256"
        }
      ],
      "stateMutability": "view",
      "type": "function"
    },
    {
      "inputs": [],
      "name": "baseTokenURI",
      "outputs": [
        {
          "internalType": "string",
          "name": "",
          "type": "string"
        }
      ],
      "stateMutability": "view",
      "type": "function"
    },
    {
      "inputs": [
        {
          "internalType": "address[]",
          "name": "_recipients",
          "type": "address[]"
        }
      ],
      "name": "bulkMint",
      "outputs": [
        {
          "internalType": "uint256[]",
          "name": "_tokenIds",
          "type": "uint256[]"
        }
      ],
      "stateMutability": "nonpayable",
      "type": "function"
    },
    {
      "inputs": [
        {
          "internalType": "uint256",
          "name": "tokenId",
          "type": "uint256"
        }
      ],
      "name": "burn",
      "outputs": [],
      "stateMutability": "nonpayable",
      "type": "function"
    },
    {
      "inputs": [
        {
          "internalType": "uint256",
          "name": "tokenId",
          "type": "uint256"
        }
      ],
      "name": "exists",
      "outputs": [
        {
          "internalType": "bool",
          "name": "",
          "type": "bool"
        }
      ],
      "stateMutability": "view",
      "type": "function"
    },
    {
      "inputs": [
        {
          "internalType": "contract IERC20",
          "name": "token",
          "type": "address"
        },
        {
          "internalType": "uint256",
          "name": "amount",
          "type": "uint256"
        }
      ],
      "name": "forwardERC20s",
      "outputs": [],
      "stateMutability": "nonpayable",
      "type": "function"
    },
    {
      "inputs": [
        {
          "internalType": "uint256",
          "name": "tokenId",
          "type": "uint256"
        }
      ],
      "name": "getApproved",
      "outputs": [
        {
          "internalType": "address",
          "name": "",
          "type": "address"
        }
      ],
      "stateMutability": "view",
      "type": "function"
    },
    {
      "inputs": [],
      "name": "getBaseURI",
      "outputs": [
        {
          "internalType": "string",
          "name": "",
          "type": "string"
        }
      ],
      "stateMutability": "view",
      "type": "function"
    },
    {
      "inputs": [
        {
          "internalType": "bytes32",
          "name": "role",
          "type": "bytes32"
        }
      ],
      "name": "getRoleAdmin",
      "outputs": [
        {
          "internalType": "bytes32",
          "name": "",
          "type": "bytes32"
        }
      ],
      "stateMutability": "view",
      "type": "function"
    },
    {
      "inputs": [
        {
          "internalType": "bytes32",
          "name": "role",
          "type": "bytes32"
        },
        {
          "internalType": "uint256",
          "name": "index",
          "type": "uint256"
        }
      ],
      "name": "getRoleMember",
      "outputs": [
        {
          "internalType": "address",
          "name": "",
          "type": "address"
        }
      ],
      "stateMutability": "view",
      "type": "function"
    },
    {
      "inputs": [
        {
          "internalType": "bytes32",
          "name": "role",
          "type": "bytes32"
        }
      ],
      "name": "getRoleMemberCount",
      "outputs": [
        {
          "internalType": "uint256",
          "name": "",
          "type": "uint256"
        }
      ],
      "stateMutability": "view",
      "type": "function"
    },
    {
      "inputs": [
        {
          "internalType": "address",
          "name": "ownerAddress",
          "type": "address"
        }
      ],
      "name": "getTokens",
      "outputs": [
        {
          "internalType": "uint256[]",
          "name": "",
          "type": "uint256[]"
        }
      ],
      "stateMutability": "view",
      "type": "function"
    },
    {
      "inputs": [
        {
          "internalType": "bytes32",
          "name": "role",
          "type": "bytes32"
        },
        {
          "internalType": "address",
          "name": "account",
          "type": "address"
        }
      ],
      "name": "grantRole",
      "outputs": [],
      "stateMutability": "nonpayable",
      "type": "function"
    },
    {
      "inputs": [
        {
          "internalType": "bytes32",
          "name": "role",
          "type": "bytes32"
        },
        {
          "internalType": "address",
          "name": "account",
          "type": "address"
        }
      ],
      "name": "hasRole",
      "outputs": [
        {
          "internalType": "bool",
          "name": "",
          "type": "bool"
        }
      ],
      "stateMutability": "view",
      "type": "function"
    },
    {
      "inputs": [
        {
          "internalType": "address",
          "name": "owner",
          "type": "address"
        },
        {
          "internalType": "address",
          "name": "operator",
          "type": "address"
        }
      ],
      "name": "isApprovedForAll",
      "outputs": [
        {
          "internalType": "bool",
          "name": "",
          "type": "bool"
        }
      ],
      "stateMutability": "view",
      "type": "function"
    },
    {
      "inputs": [
        {
          "internalType": "address",
          "name": "to",
          "type": "address"
        }
      ],
      "name": "mint",
      "outputs": [
        {
          "internalType": "uint256",
          "name": "_tokenId",
          "type": "uint256"
        }
      ],
      "stateMutability": "nonpayable",
      "type": "function"
    },
    {
      "inputs": [
        {
          "internalType": "address",
          "name": "recipient",
          "type": "address"
        },
        {
          "internalType": "uint256",
          "name": "tokenId",
          "type": "uint256"
        }
      ],
      "name": "mintTokenId",
      "outputs": [],
      "stateMutability": "nonpayable",
      "type": "function"
    },
    {
      "inputs": [],
      "name": "minterAddress",
      "outputs": [
        {
          "internalType": "address",
          "name": "",
          "type": "address"
        }
      ],
      "stateMutability": "view",
      "type": "function"
    },
    {
      "inputs": [],
      "name": "name",
      "outputs": [
        {
          "internalType": "string",
          "name": "",
          "type": "string"
        }
      ],
      "stateMutability": "view",
      "type": "function"
    },
    {
      "inputs": [
        {
          "internalType": "uint256",
          "name": "",
          "type": "uint256"
        }
      ],
      "name": "nonces",
      "outputs": [
        {
          "internalType": "uint256",
          "name": "",
          "type": "uint256"
        }
      ],
      "stateMutability": "view",
      "type": "function"
    },
    {
      "inputs": [],
      "name": "numMinted",
      "outputs": [
        {
          "internalType": "uint256",
          "name": "",
          "type": "uint256"
        }
      ],
      "stateMutability": "view",
      "type": "function"
    },
    {
      "inputs": [],
      "name": "owner",
      "outputs": [
        {
          "internalType": "address",
          "name": "",
          "type": "address"
        }
      ],
      "stateMutability": "view",
      "type": "function"
    },
    {
      "inputs": [
        {
          "internalType": "uint256",
          "name": "tokenId",
          "type": "uint256"
        }
      ],
      "name": "ownerOf",
      "outputs": [
        {
          "internalType": "address",
          "name": "",
          "type": "address"
        }
      ],
      "stateMutability": "view",
      "type": "function"
    },
    {
      "inputs": [],
      "name": "pause",
      "outputs": [],
      "stateMutability": "nonpayable",
      "type": "function"
    },
    {
      "inputs": [],
      "name": "pauseContract",
      "outputs": [],
      "stateMutability": "nonpayable",
      "type": "function"
    },
    {
      "inputs": [],
      "name": "paused",
      "outputs": [
        {
          "internalType": "bool",
          "name": "",
          "type": "bool"
        }
      ],
      "stateMutability": "view",
      "type": "function"
    },
    {
      "inputs": [],
      "name": "renounceOwnership",
      "outputs": [],
      "stateMutability": "nonpayable",
      "type": "function"
    },
    {
      "inputs": [
        {
          "internalType": "bytes32",
          "name": "role",
          "type": "bytes32"
        },
        {
          "internalType": "address",
          "name": "account",
          "type": "address"
        }
      ],
      "name": "renounceRole",
      "outputs": [],
      "stateMutability": "nonpayable",
      "type": "function"
    },
    {
      "inputs": [
        {
          "internalType": "bytes32",
          "name": "role",
          "type": "bytes32"
        },
        {
          "internalType": "address",
          "name": "account",
          "type": "address"
        }
      ],
      "name": "revokeRole",
      "outputs": [],
      "stateMutability": "nonpayable",
      "type": "function"
    },
    {
      "inputs": [
        {
          "internalType": "address",
          "name": "from",
          "type": "address"
        },
        {
          "internalType": "address",
          "name": "to",
          "type": "address"
        },
        {
          "internalType": "uint256",
          "name": "tokenId",
          "type": "uint256"
        }
      ],
      "name": "safeTransferFrom",
      "outputs": [],
      "stateMutability": "nonpayable",
      "type": "function"
    },
    {
      "inputs": [
        {
          "internalType": "address",
          "name": "from",
          "type": "address"
        },
        {
          "internalType": "address",
          "name": "to",
          "type": "address"
        },
        {
          "internalType": "uint256",
          "name": "tokenId",
          "type": "uint256"
        },
        {
          "internalType": "bytes",
          "name": "data",
          "type": "bytes"
        }
      ],
      "name": "safeTransferFrom",
      "outputs": [],
      "stateMutability": "nonpayable",
      "type": "function"
    },
    {
      "inputs": [
        {
          "internalType": "address",
          "name": "operator",
          "type": "address"
        },
        {
          "internalType": "bool",
          "name": "approved",
          "type": "bool"
        }
      ],
      "name": "setApprovalForAll",
      "outputs": [],
      "stateMutability": "nonpayable",
      "type": "function"
    },
    {
      "inputs": [
        {
          "internalType": "string",
          "name": "baseTokenURI",
          "type": "string"
        }
      ],
      "name": "setBaseURI",
      "outputs": [],
      "stateMutability": "nonpayable",
      "type": "function"
    },
    {
      "inputs": [
        {
          "internalType": "address",
          "name": "newMinter",
          "type": "address"
        }
      ],
      "name": "setMinter",
      "outputs": [],
      "stateMutability": "nonpayable",
      "type": "function"
    },
    {
      "inputs": [
        {
          "internalType": "string",
          "name": "newBaseURI",
          "type": "string"
        }
      ],
      "name": "setNewBaseURI",
      "outputs": [],
      "stateMutability": "nonpayable",
      "type": "function"
    },
    {
      "inputs": [
        {
          "internalType": "uint256",
          "name": "_tokenId",
          "type": "uint256"
        }
      ],
      "name": "stateOf",
      "outputs": [
        {
          "internalType": "bytes",
          "name": "",
          "type": "bytes"
        }
      ],
      "stateMutability": "view",
      "type": "function"
    },
    {
      "inputs": [
        {
          "internalType": "bytes4",
          "name": "interfaceId",
          "type": "bytes4"
        }
      ],
      "name": "supportsInterface",
      "outputs": [
        {
          "internalType": "bool",
          "name": "",
          "type": "bool"
        }
      ],
      "stateMutability": "view",
      "type": "function"
    },
    {
      "inputs": [],
      "name": "symbol",
      "outputs": [
        {
          "internalType": "string",
          "name": "",
          "type": "string"
        }
      ],
      "stateMutability": "view",
      "type": "function"
    },
    {
      "inputs": [
        {
          "internalType": "uint256",
          "name": "index",
          "type": "uint256"
        }
      ],
      "name": "tokenByIndex",
      "outputs": [
        {
          "internalType": "uint256",
          "name": "",
          "type": "uint256"
        }
      ],
      "stateMutability": "view",
      "type": "function"
    },
    {
      "inputs": [
        {
          "internalType": "address",
          "name": "owner",
          "type": "address"
        },
        {
          "internalType": "uint256",
          "name": "index",
          "type": "uint256"
        }
      ],
      "name": "tokenOfOwnerByIndex",
      "outputs": [
        {
          "internalType": "uint256",
          "name": "",
          "type": "uint256"
        }
      ],
      "stateMutability": "view",
      "type": "function"
    },
    {
      "inputs": [
        {
          "internalType": "uint256",
          "name": "tokenId",
          "type": "uint256"
        }
      ],
      "name": "tokenURI",
      "outputs": [
        {
          "internalType": "string",
          "name": "",
          "type": "string"
        }
      ],
      "stateMutability": "view",
      "type": "function"
    },
    {
      "inputs": [],
      "name": "totalSupply",
      "outputs": [
        {
          "internalType": "uint256",
          "name": "",
          "type": "uint256"
        }
      ],
      "stateMutability": "view",
      "type": "function"
    },
    {
      "inputs": [
        {
          "internalType": "address",
          "name": "from",
          "type": "address"
        },
        {
          "internalType": "address",
          "name": "to",
          "type": "address"
        },
        {
          "internalType": "uint256",
          "name": "tokenId",
          "type": "uint256"
        }
      ],
      "name": "transferFrom",
      "outputs": [],
      "stateMutability": "nonpayable",
      "type": "function"
    },
    {
      "inputs": [
        {
          "internalType": "address",
          "name": "newOwner",
          "type": "address"
        }
      ],
      "name": "transferOwnership",
      "outputs": [],
      "stateMutability": "nonpayable",
      "type": "function"
    },
    {
      "inputs": [],
      "name": "unpause",
      "outputs": [],
      "stateMutability": "nonpayable",
      "type": "function"
    },
    {
      "inputs": [],
      "name": "unpauseContract",
      "outputs": [],
      "stateMutability": "nonpayable",
      "type": "function"
    },
    {
      "inputs": [],
      "name": "withdrawAll",
      "outputs": [],
      "stateMutability": "payable",
      "type": "function"
    }
  ],
  "bytecode": "0x608060405260006046553480156200001657600080fd5b506040516200740b3803806200740b83398181016040528101906200003c91906200070d565b6040518060400160405280600d81526020017f52756e6976657273654974656d000000000000000000000000000000000000008152506040518060400160405280600481526020017f5249544d000000000000000000000000000000000000000000000000000000008152508282828282828160029081620000bf9190620009a9565b508060039081620000d19190620009a9565b5050506000603f60006101000a81548160ff0219169083151502179055508060419081620001009190620009a9565b50620001256000801b620001196200021260201b60201c565b6200021a60201b60201c565b620001667f9f2df0fed2c77648de5860a4cc508cd0818c85b8b8a1ab4ceeef8d981c8956a66200015a6200021260201b60201c565b6200021a60201b60201c565b620001a77f65d7a28e3265b37a6474929f336521b332c1681b933f6cb9f3376673440d862a6200019b6200021260201b60201c565b6200021a60201b60201c565b620001b960406200023060201b60201c565b505050505050620001df620001d36200021260201b60201c565b6200024660201b60201c565b60016043819055508060459081620001f89190620009a9565b5080604190816200020a9190620009a9565b505062000a90565b600033905090565b6200022c82826200030c60201b60201c565b5050565b6001816000016000828254019250508190555050565b6000604260009054906101000a900473ffffffffffffffffffffffffffffffffffffffff16905081604260006101000a81548173ffffffffffffffffffffffffffffffffffffffff021916908373ffffffffffffffffffffffffffffffffffffffff1602179055508173ffffffffffffffffffffffffffffffffffffffff168173ffffffffffffffffffffffffffffffffffffffff167f8be0079c531659141344cd1fd0a4f28419497f9722a3daafe3b4186f6b6457e060405160405180910390a35050565b6200031e82826200034a60201b60201c565b6200034581600160008581526020019081526020016000206200043b60201b90919060201c565b505050565b6200035c82826200047360201b60201c565b6200043757600160008084815260200190815260200160002060000160008373ffffffffffffffffffffffffffffffffffffffff1673ffffffffffffffffffffffffffffffffffffffff16815260200190815260200160002060006101000a81548160ff021916908315150217905550620003dc6200021260201b60201c565b73ffffffffffffffffffffffffffffffffffffffff168173ffffffffffffffffffffffffffffffffffffffff16837f2f8788117e7eff1d82e926ec794901d17c78024a50270940304540a733656f0d60405160405180910390a45b5050565b60006200046b836000018373ffffffffffffffffffffffffffffffffffffffff1660001b620004dd60201b60201c565b905092915050565b600080600084815260200190815260200160002060000160008373ffffffffffffffffffffffffffffffffffffffff1673ffffffffffffffffffffffffffffffffffffffff16815260200190815260200160002060009054906101000a900460ff16905092915050565b6000620004f183836200055760201b60201c565b6200054c57826000018290806001815401808255809150506001900390600052602060002001600090919091909150558260000180549050836001016000848152602001908152602001600020819055506001905062000551565b600090505b92915050565b600080836001016000848152602001908152602001600020541415905092915050565b6000604051905090565b600080fd5b600080fd5b600080fd5b600080fd5b6000601f19601f8301169050919050565b7f4e487b7100000000000000000000000000000000000000000000000000000000600052604160045260246000fd5b620005e38262000598565b810181811067ffffffffffffffff82111715620006055762000604620005a9565b5b80604052505050565b60006200061a6200057a565b9050620006288282620005d8565b919050565b600067ffffffffffffffff8211156200064b576200064a620005a9565b5b620006568262000598565b9050602081019050919050565b60005b838110156200068357808201518184015260208101905062000666565b60008484015250505050565b6000620006a6620006a0846200062d565b6200060e565b905082815260208101848484011115620006c557620006c462000593565b5b620006d284828562000663565b509392505050565b600082601f830112620006f257620006f16200058e565b5b8151620007048482602086016200068f565b91505092915050565b60006020828403121562000726576200072562000584565b5b600082015167ffffffffffffffff81111562000747576200074662000589565b5b6200075584828501620006da565b91505092915050565b600081519050919050565b7f4e487b7100000000000000000000000000000000000000000000000000000000600052602260045260246000fd5b60006002820490506001821680620007b157607f821691505b602082108103620007c757620007c662000769565b5b50919050565b60008190508160005260206000209050919050565b60006020601f8301049050919050565b600082821b905092915050565b600060088302620008317fffffffffffffffffffffffffffffffffffffffffffffffffffffffffffffffff82620007f2565b6200083d8683620007f2565b95508019841693508086168417925050509392505050565b6000819050919050565b6000819050919050565b60006200088a620008846200087e8462000855565b6200085f565b62000855565b9050919050565b6000819050919050565b620008a68362000869565b620008be620008b58262000891565b848454620007ff565b825550505050565b600090565b620008d5620008c6565b620008e28184846200089b565b505050565b5b818110156200090a57620008fe600082620008cb565b600181019050620008e8565b5050565b601f82111562000959576200092381620007cd565b6200092e84620007e2565b810160208510156200093e578190505b620009566200094d85620007e2565b830182620008e7565b50505b505050565b600082821c905092915050565b60006200097e600019846008026200095e565b1980831691505092915050565b60006200099983836200096b565b9150826002028217905092915050565b620009b4826200075e565b67ffffffffffffffff811115620009d057620009cf620005a9565b5b620009dc825462000798565b620009e98282856200090e565b600060209050601f83116001811462000a21576000841562000a0c578287015190505b62000a1885826200098b565b86555062000a88565b601f19841662000a3186620007cd565b60005b8281101562000a5b5784890151825560018201915060208501945060208101905062000a34565b8683101562000a7b578489015162000a77601f8916826200096b565b8355505b6001600288020188555050505b505050505050565b61696b8062000aa06000396000f3fe6080604052600436106102e45760003560e01c80636352211e11610190578063a22cb465116100dc578063d539139311610095578063e63ab1e91161006f578063e63ab1e914610b61578063e985e9c514610b8c578063f2fde38b14610bc9578063fca3b5aa14610bf2576102e4565b8063d539139314610ae2578063d547741f14610b0d578063d547cfb714610b36576102e4565b8063a22cb465146109d4578063b33712c5146109fd578063b88d4fde14610a14578063c87b56dd14610a3d578063ca15c87314610a7a578063d52079b414610ab7576102e4565b8063853828b61161014957806391d148541161012357806391d148541461091857806395d89b41146109555780639727151a14610980578063a217fddf146109a9576102e4565b8063853828b6146108a65780638da5cb5b146108b05780639010d07c146108db576102e4565b80636352211e146107965780636a627842146107d357806370a0823114610810578063714c53981461084d578063715018a6146108785780638456cb591461088f576102e4565b806332761d161161024f57806342966c68116102085780634f558e79116101e25780634f558e79146106c85780634f6ccce71461070557806355f804b3146107425780635c975abb1461076b576102e4565b806342966c681461064b578063439766ce14610674578063450efe211461068b576102e4565b806332761d161461055157806334d722c91461057a57806336568abe146105a55780633771aaa1146105ce5780633f4ba83a1461060b57806342842e0e14610622576102e4565b806318160ddd116102a157806318160ddd146104315780631cb1ac0b1461045c57806323b872dd14610485578063248a9ca3146104ae5780632f2ff15d146104eb5780632f745c5914610514576102e4565b806301ffc9a7146102e957806306fdde0314610326578063081812fc14610351578063095ea7b31461038e578063131a7e24146103b7578063141a468c146103f4575b600080fd5b3480156102f557600080fd5b50610310600480360381019061030b919061450d565b610c1b565b60405161031d9190614555565b60405180910390f35b34801561033257600080fd5b5061033b610c2d565b6040516103489190614600565b60405180910390f35b34801561035d57600080fd5b5061037860048036038101906103739190614658565b610cbf565b60405161038591906146c6565b60405180910390f35b34801561039a57600080fd5b506103b560048036038101906103b0919061470d565b610d05565b005b3480156103c357600080fd5b506103de60048036038101906103d99190614658565b610e1c565b6040516103eb91906147a2565b60405180910390f35b34801561040057600080fd5b5061041b60048036038101906104169190614658565b610eac565b60405161042891906147d3565b60405180910390f35b34801561043d57600080fd5b50610446610ec4565b60405161045391906147d3565b60405180910390f35b34801561046857600080fd5b50610483600480360381019061047e9190614853565b610ed1565b005b34801561049157600080fd5b506104ac60048036038101906104a791906148a0565b610f01565b005b3480156104ba57600080fd5b506104d560048036038101906104d09190614929565b610f61565b6040516104e29190614965565b60405180910390f35b3480156104f757600080fd5b50610512600480360381019061050d9190614980565b610f80565b005b34801561052057600080fd5b5061053b6004803603810190610536919061470d565b610fa1565b60405161054891906147d3565b60405180910390f35b34801561055d57600080fd5b506105786004803603810190610573919061470d565b611046565b005b34801561058657600080fd5b5061058f611192565b60405161059c91906146c6565b60405180910390f35b3480156105b157600080fd5b506105cc60048036038101906105c79190614980565b6111b8565b005b3480156105da57600080fd5b506105f560048036038101906105f09190614a16565b61123b565b6040516106029190614b21565b60405180910390f35b34801561061757600080fd5b50610620611373565b005b34801561062e57600080fd5b50610649600480360381019061064491906148a0565b6113ed565b005b34801561065757600080fd5b50610672600480360381019061066d9190614658565b61140d565b005b34801561068057600080fd5b50610689611469565b005b34801561069757600080fd5b506106b260048036038101906106ad9190614b43565b6114ef565b6040516106bf9190614b21565b60405180910390f35b3480156106d457600080fd5b506106ef60048036038101906106ea9190614658565b611680565b6040516106fc9190614555565b60405180910390f35b34801561071157600080fd5b5061072c60048036038101906107279190614658565b611692565b60405161073991906147d3565b60405180910390f35b34801561074e57600080fd5b5061076960048036038101906107649190614ca0565b611703565b005b34801561077757600080fd5b50610780611724565b60405161078d9190614555565b60405180910390f35b3480156107a257600080fd5b506107bd60048036038101906107b89190614658565b61173b565b6040516107ca91906146c6565b60405180910390f35b3480156107df57600080fd5b506107fa60048036038101906107f59190614b43565b6117c1565b60405161080791906147d3565b60405180910390f35b34801561081c57600080fd5b5061083760048036038101906108329190614b43565b611843565b60405161084491906147d3565b60405180910390f35b34801561085957600080fd5b506108626118fa565b60405161086f9190614600565b60405180910390f35b34801561088457600080fd5b5061088d61198c565b005b34801561089b57600080fd5b506108a46119a0565b005b6108ae611a1a565b005b3480156108bc57600080fd5b506108c5611ad1565b6040516108d291906146c6565b60405180910390f35b3480156108e757600080fd5b5061090260048036038101906108fd9190614ce9565b611afb565b60405161090f91906146c6565b60405180910390f35b34801561092457600080fd5b5061093f600480360381019061093a9190614980565b611b2a565b60405161094c9190614555565b60405180910390f35b34801561096157600080fd5b5061096a611b94565b6040516109779190614600565b60405180910390f35b34801561098c57600080fd5b506109a760048036038101906109a29190614d67565b611c26565b005b3480156109b557600080fd5b506109be611d17565b6040516109cb9190614965565b60405180910390f35b3480156109e057600080fd5b506109fb60048036038101906109f69190614dd3565b611d1e565b005b348015610a0957600080fd5b50610a12611d34565b005b348015610a2057600080fd5b50610a3b6004803603810190610a369190614eb4565b611dbb565b005b348015610a4957600080fd5b50610a646004803603810190610a5f9190614658565b611e1d565b604051610a719190614600565b60405180910390f35b348015610a8657600080fd5b50610aa16004803603810190610a9c9190614929565b611e99565b604051610aae91906147d3565b60405180910390f35b348015610ac357600080fd5b50610acc611ebd565b604051610ad991906147d3565b60405180910390f35b348015610aee57600080fd5b50610af7611ec3565b604051610b049190614965565b60405180910390f35b348015610b1957600080fd5b50610b346004803603810190610b2f9190614980565b611ee7565b005b348015610b4257600080fd5b50610b4b611f08565b604051610b589190614600565b60405180910390f35b348015610b6d57600080fd5b50610b76611f96565b604051610b839190614965565b60405180910390f35b348015610b9857600080fd5b50610bb36004803603810190610bae9190614f37565b611fba565b604051610bc09190614555565b60405180910390f35b348015610bd557600080fd5b50610bf06004803603810190610beb9190614b43565b61204e565b005b348015610bfe57600080fd5b50610c196004803603810190610c149190614b43565b6120d1565b005b6000610c268261218c565b9050919050565b606060028054610c3c90614fa6565b80601f0160208091040260200160405190810160405280929190818152602001828054610c6890614fa6565b8015610cb55780601f10610c8a57610100808354040283529160200191610cb5565b820191906000526020600020905b815481529060010190602001808311610c9857829003601f168201915b5050505050905090565b6000610cca8261226e565b6006600083815260200190815260200160002060009054906101000a900473ffffffffffffffffffffffffffffffffffffffff169050919050565b6000610d108261173b565b90508073ffffffffffffffffffffffffffffffffffffffff168373ffffffffffffffffffffffffffffffffffffffff1603610d80576040517f08c379a0000000000000000000000000000000000000000000000000000000008152600401610d7790615049565b60405180910390fd5b8073ffffffffffffffffffffffffffffffffffffffff16610d9f6122b9565b73ffffffffffffffffffffffffffffffffffffffff161480610dce5750610dcd81610dc86122b9565b611fba565b5b610e0d576040517f08c379a0000000000000000000000000000000000000000000000000000000008152600401610e04906150db565b60405180910390fd5b610e1783836122c1565b505050565b6060610e278261237a565b610e66576040517f08c379a0000000000000000000000000000000000000000000000000000000008152600401610e5d9061516d565b60405180910390fd5b610e6f8261173b565b600860008481526020019081526020016000205483604051602001610e96939291906151f6565b6040516020818303038152906040529050919050565b60086020528060005260406000206000915090505481565b6000603d80549050905090565b610ed96123bb565b818160459182610eea9291906153ea565b50818160419182610efc9291906153ea565b505050565b610f12610f0c6122b9565b82612439565b610f51576040517f08c379a0000000000000000000000000000000000000000000000000000000008152600401610f489061552c565b60405180910390fd5b610f5c8383836124ce565b505050565b6000806000838152602001908152602001600020600101549050919050565b610f8982610f61565b610f92816127c7565b610f9c83836127db565b505050565b6000610fac83611843565b8210610fed576040517f08c379a0000000000000000000000000000000000000000000000000000000008152600401610fe4906155be565b60405180910390fd5b603b60008473ffffffffffffffffffffffffffffffffffffffff1673ffffffffffffffffffffffffffffffffffffffff168152602001908152602001600020600083815260200190815260200160002054905092915050565b61104e61280f565b611056611724565b15611096576040517f08c379a000000000000000000000000000000000000000000000000000000000815260040161108d9061562a565b60405180910390fd5b604460009054906101000a900473ffffffffffffffffffffffffffffffffffffffff1673ffffffffffffffffffffffffffffffffffffffff166110d76122b9565b73ffffffffffffffffffffffffffffffffffffffff161461112d576040517f08c379a000000000000000000000000000000000000000000000000000000000815260040161112490615696565b60405180910390fd5b60466000815461113c906156e5565b919050819055507f604e0f34ba8d6d3f7f48c01c251c7bf880d71369b217e5b976ca6120cc51710c828260405161117492919061572d565b60405180910390a1611186828261285e565b61118e61287c565b5050565b604460009054906101000a900473ffffffffffffffffffffffffffffffffffffffff1681565b6111c06122b9565b73ffffffffffffffffffffffffffffffffffffffff168173ffffffffffffffffffffffffffffffffffffffff161461122d576040517f08c379a0000000000000000000000000000000000000000000000000000000008152600401611224906157c8565b60405180910390fd5b6112378282612886565b5050565b60607f9f2df0fed2c77648de5860a4cc508cd0818c85b8b8a1ab4ceeef8d981c8956a6611267816127c7565b600084849050116112ad576040517f08c379a00000000000000000000000000000000000000000000000000000000081526004016112a49061585a565b60405180910390fd5b8383905067ffffffffffffffff8111156112ca576112c9614b75565b5b6040519080825280602002602001820160405280156112f85781602001602082028036833780820191505090505b50915060005b8484905081101561136b5761133985858381811061131f5761131e61587a565b5b90506020020160208101906113349190614b43565b6128ba565b83828151811061134c5761134b61587a565b5b6020026020010181815250508080611363906156e5565b9150506112fe565b505092915050565b6113a47f65d7a28e3265b37a6474929f336521b332c1681b933f6cb9f3376673440d862a61139f6122b9565b611b2a565b6113e3576040517f08c379a00000000000000000000000000000000000000000000000000000000081526004016113da9061591b565b60405180910390fd5b6113eb6128e1565b565b61140883838360405180602001604052806000815250611dbb565b505050565b61141e6114186122b9565b82612439565b61145d576040517f08c379a00000000000000000000000000000000000000000000000000000000081526004016114549061552c565b60405180910390fd5b61146681612944565b50565b6114716123bb565b3073ffffffffffffffffffffffffffffffffffffffff16635c975abb6040518163ffffffff1660e01b8152600401602060405180830381865afa1580156114bc573d6000803e3d6000fd5b505050506040513d601f19601f820116820180604052508101906114e09190615950565b6114ed576114ec612a92565b5b565b606060003073ffffffffffffffffffffffffffffffffffffffff166370a08231846040518263ffffffff1660e01b815260040161152c91906146c6565b602060405180830381865afa158015611549573d6000803e3d6000fd5b505050506040513d601f19601f8201168201806040525081019061156d9190615992565b905060008167ffffffffffffffff81111561158b5761158a614b75565b5b6040519080825280602002602001820160405280156115b95781602001602082028036833780820191505090505b50905060005b82811015611675573073ffffffffffffffffffffffffffffffffffffffff16632f745c5986836040518363ffffffff1660e01b815260040161160292919061572d565b602060405180830381865afa15801561161f573d6000803e3d6000fd5b505050506040513d601f19601f820116820180604052508101906116439190615992565b8282815181106116565761165561587a565b5b602002602001018181525050808061166d906156e5565b9150506115bf565b508092505050919050565b600061168b8261237a565b9050919050565b600061169c610ec4565b82106116dd576040517f08c379a00000000000000000000000000000000000000000000000000000000081526004016116d490615a31565b60405180910390fd5b603d82815481106116f1576116f061587a565b5b90600052602060002001549050919050565b6000801b611710816127c7565b816041908161171f9190615a51565b505050565b6000603f60009054906101000a900460ff16905090565b60008061174783612af5565b9050600073ffffffffffffffffffffffffffffffffffffffff168173ffffffffffffffffffffffffffffffffffffffff16036117b8576040517f08c379a00000000000000000000000000000000000000000000000000000000081526004016117af90615b6f565b60405180910390fd5b80915050919050565b60006117f47f9f2df0fed2c77648de5860a4cc508cd0818c85b8b8a1ab4ceeef8d981c8956a66117ef6122b9565b611b2a565b611833576040517f08c379a000000000000000000000000000000000000000000000000000000000815260040161182a90615c01565b60405180910390fd5b61183c826128ba565b9050919050565b60008073ffffffffffffffffffffffffffffffffffffffff168273ffffffffffffffffffffffffffffffffffffffff16036118b3576040517f08c379a00000000000000000000000000000000000000000000000000000000081526004016118aa90615c93565b60405180910390fd5b600560008373ffffffffffffffffffffffffffffffffffffffff1673ffffffffffffffffffffffffffffffffffffffff168152602001908152602001600020549050919050565b60606045805461190990614fa6565b80601f016020809104026020016040519081016040528092919081815260200182805461193590614fa6565b80156119825780601f1061195757610100808354040283529160200191611982565b820191906000526020600020905b81548152906001019060200180831161196557829003601f168201915b5050505050905090565b6119946123bb565b61199e6000612b32565b565b6119d17f65d7a28e3265b37a6474929f336521b332c1681b933f6cb9f3376673440d862a6119cc6122b9565b611b2a565b611a10576040517f08c379a0000000000000000000000000000000000000000000000000000000008152600401611a0790615d25565b60405180910390fd5b611a18612a92565b565b611a226123bb565b60003373ffffffffffffffffffffffffffffffffffffffff1647604051611a4890615d76565b60006040518083038185875af1925050503d8060008114611a85576040519150601f19603f3d011682016040523d82523d6000602084013e611a8a565b606091505b5050905080611ace576040517f08c379a0000000000000000000000000000000000000000000000000000000008152600401611ac590615dd7565b60405180910390fd5b50565b6000604260009054906101000a900473ffffffffffffffffffffffffffffffffffffffff16905090565b6000611b228260016000868152602001908152602001600020612bf890919063ffffffff16565b905092915050565b600080600084815260200190815260200160002060000160008373ffffffffffffffffffffffffffffffffffffffff1673ffffffffffffffffffffffffffffffffffffffff16815260200190815260200160002060009054906101000a900460ff16905092915050565b606060038054611ba390614fa6565b80601f0160208091040260200160405190810160405280929190818152602001828054611bcf90614fa6565b8015611c1c5780601f10611bf157610100808354040283529160200191611c1c565b820191906000526020600020905b815481529060010190602001808311611bff57829003601f168201915b5050505050905090565b611c2e6123bb565b600073ffffffffffffffffffffffffffffffffffffffff163373ffffffffffffffffffffffffffffffffffffffff1603611c94576040517f48ac165200000000000000000000000000000000000000000000000000000000815260040160405180910390fd5b8173ffffffffffffffffffffffffffffffffffffffff1663a9059cbb33836040518363ffffffff1660e01b8152600401611ccf92919061572d565b6020604051808303816000875af1158015611cee573d6000803e3d6000fd5b505050506040513d601f19601f82011682018060405250810190611d129190615950565b505050565b6000801b81565b611d30611d296122b9565b8383612c12565b5050565b611d3c6123bb565b3073ffffffffffffffffffffffffffffffffffffffff16635c975abb6040518163ffffffff1660e01b8152600401602060405180830381865afa158015611d87573d6000803e3d6000fd5b505050506040513d601f19601f82011682018060405250810190611dab9190615950565b15611db957611db86128e1565b5b565b611dcc611dc66122b9565b83612439565b611e0b576040517f08c379a0000000000000000000000000000000000000000000000000000000008152600401611e029061552c565b60405180910390fd5b611e1784848484612d7e565b50505050565b6060611e288261237a565b611e67576040517f08c379a0000000000000000000000000000000000000000000000000000000008152600401611e5e90615e69565b60405180910390fd5b6045611e7283612dda565b604051602001611e83929190615f48565b6040516020818303038152906040529050919050565b6000611eb660016000848152602001908152602001600020612ea8565b9050919050565b60465481565b7f9f2df0fed2c77648de5860a4cc508cd0818c85b8b8a1ab4ceeef8d981c8956a681565b611ef082610f61565b611ef9816127c7565b611f038383612886565b505050565b60458054611f1590614fa6565b80601f0160208091040260200160405190810160405280929190818152602001828054611f4190614fa6565b8015611f8e5780601f10611f6357610100808354040283529160200191611f8e565b820191906000526020600020905b815481529060010190602001808311611f7157829003601f168201915b505050505081565b7f65d7a28e3265b37a6474929f336521b332c1681b933f6cb9f3376673440d862a81565b6000600760008473ffffffffffffffffffffffffffffffffffffffff1673ffffffffffffffffffffffffffffffffffffffff16815260200190815260200160002060008373ffffffffffffffffffffffffffffffffffffffff1673ffffffffffffffffffffffffffffffffffffffff16815260200190815260200160002060009054906101000a900460ff16905092915050565b6120566123bb565b600073ffffffffffffffffffffffffffffffffffffffff168173ffffffffffffffffffffffffffffffffffffffff16036120c5576040517f08c379a00000000000000000000000000000000000000000000000000000000081526004016120bc90615fde565b60405180910390fd5b6120ce81612b32565b50565b6120d96123bb565b600073ffffffffffffffffffffffffffffffffffffffff168173ffffffffffffffffffffffffffffffffffffffff1603612148576040517f08c379a000000000000000000000000000000000000000000000000000000000815260040161213f9061604a565b60405180910390fd5b80604460006101000a81548173ffffffffffffffffffffffffffffffffffffffff021916908373ffffffffffffffffffffffffffffffffffffffff16021790555050565b60007f3771aaa1000000000000000000000000000000000000000000000000000000007bffffffffffffffffffffffffffffffffffffffffffffffffffffffff1916827bffffffffffffffffffffffffffffffffffffffffffffffffffffffff1916148061225757507f131a7e24000000000000000000000000000000000000000000000000000000007bffffffffffffffffffffffffffffffffffffffffffffffffffffffff1916827bffffffffffffffffffffffffffffffffffffffffffffffffffffffff1916145b80612267575061226682612ebd565b5b9050919050565b6122778161237a565b6122b6576040517f08c379a00000000000000000000000000000000000000000000000000000000081526004016122ad90615b6f565b60405180910390fd5b50565b600033905090565b816006600083815260200190815260200160002060006101000a81548173ffffffffffffffffffffffffffffffffffffffff021916908373ffffffffffffffffffffffffffffffffffffffff160217905550808273ffffffffffffffffffffffffffffffffffffffff166123348361173b565b73ffffffffffffffffffffffffffffffffffffffff167f8c5be1e5ebec7d5bd14f71427d1e84f3dd0314c0f7b2291e5b200ac8c7c3b92560405160405180910390a45050565b60008073ffffffffffffffffffffffffffffffffffffffff1661239c83612af5565b73ffffffffffffffffffffffffffffffffffffffff1614159050919050565b6123c36122b9565b73ffffffffffffffffffffffffffffffffffffffff166123e1611ad1565b73ffffffffffffffffffffffffffffffffffffffff1614612437576040517f08c379a000000000000000000000000000000000000000000000000000000000815260040161242e906160b6565b60405180910390fd5b565b6000806124458361173b565b90508073ffffffffffffffffffffffffffffffffffffffff168473ffffffffffffffffffffffffffffffffffffffff16148061248757506124868185611fba565b5b806124c557508373ffffffffffffffffffffffffffffffffffffffff166124ad84610cbf565b73ffffffffffffffffffffffffffffffffffffffff16145b91505092915050565b8273ffffffffffffffffffffffffffffffffffffffff166124ee8261173b565b73ffffffffffffffffffffffffffffffffffffffff1614612544576040517f08c379a000000000000000000000000000000000000000000000000000000000815260040161253b90616148565b60405180910390fd5b600073ffffffffffffffffffffffffffffffffffffffff168273ffffffffffffffffffffffffffffffffffffffff16036125b3576040517f08c379a00000000000000000000000000000000000000000000000000000000081526004016125aa906161da565b60405180910390fd5b6125c08383836001612f37565b8273ffffffffffffffffffffffffffffffffffffffff166125e08261173b565b73ffffffffffffffffffffffffffffffffffffffff1614612636576040517f08c379a000000000000000000000000000000000000000000000000000000000815260040161262d90616148565b60405180910390fd5b6006600082815260200190815260200160002060006101000a81549073ffffffffffffffffffffffffffffffffffffffff02191690556001600560008573ffffffffffffffffffffffffffffffffffffffff1673ffffffffffffffffffffffffffffffffffffffff168152602001908152602001600020600082825403925050819055506001600560008473ffffffffffffffffffffffffffffffffffffffff1673ffffffffffffffffffffffffffffffffffffffff16815260200190815260200160002060008282540192505081905550816004600083815260200190815260200160002060006101000a81548173ffffffffffffffffffffffffffffffffffffffff021916908373ffffffffffffffffffffffffffffffffffffffff160217905550808273ffffffffffffffffffffffffffffffffffffffff168473ffffffffffffffffffffffffffffffffffffffff167fddf252ad1be2c89b69c2b068fc378daa952ba7f163c4a11628f55a4df523b3ef60405160405180910390a46127c28383836001612f49565b505050565b6127d8816127d36122b9565b612f4f565b50565b6127e58282612fd4565b61280a81600160008581526020019081526020016000206130b490919063ffffffff16565b505050565b600260435403612854576040517f08c379a000000000000000000000000000000000000000000000000000000000815260040161284b90616246565b60405180910390fd5b6002604381905550565b6128788282604051806020016040528060008152506130e4565b5050565b6001604381905550565b612890828261313f565b6128b5816001600085815260200190815260200160002061322090919063ffffffff16565b505050565b60006128c66040613250565b90506128d2828261325e565b6128dc604061347b565b919050565b6128e9613491565b6000603f60006101000a81548160ff0219169083151502179055507f5db9ee0a495bf2e6ff9c91a7834c1ba4fdd244a5e8aa4e537bd38aeae4b073aa61292d6122b9565b60405161293a91906146c6565b60405180910390a1565b600061294f8261173b565b905061295f816000846001612f37565b6129688261173b565b90506006600083815260200190815260200160002060006101000a81549073ffffffffffffffffffffffffffffffffffffffff02191690556001600560008373ffffffffffffffffffffffffffffffffffffffff1673ffffffffffffffffffffffffffffffffffffffff168152602001908152602001600020600082825403925050819055506004600083815260200190815260200160002060006101000a81549073ffffffffffffffffffffffffffffffffffffffff021916905581600073ffffffffffffffffffffffffffffffffffffffff168273ffffffffffffffffffffffffffffffffffffffff167fddf252ad1be2c89b69c2b068fc378daa952ba7f163c4a11628f55a4df523b3ef60405160405180910390a4612a8e816000846001612f49565b5050565b612a9a6134da565b6001603f60006101000a81548160ff0219169083151502179055507f62e78cea01bee320cd4e420270b5ea74000d11b0c9f74754ebdbfc544b05a258612ade6122b9565b604051612aeb91906146c6565b60405180910390a1565b60006004600083815260200190815260200160002060009054906101000a900473ffffffffffffffffffffffffffffffffffffffff169050919050565b6000604260009054906101000a900473ffffffffffffffffffffffffffffffffffffffff16905081604260006101000a81548173ffffffffffffffffffffffffffffffffffffffff021916908373ffffffffffffffffffffffffffffffffffffffff1602179055508173ffffffffffffffffffffffffffffffffffffffff168173ffffffffffffffffffffffffffffffffffffffff167f8be0079c531659141344cd1fd0a4f28419497f9722a3daafe3b4186f6b6457e060405160405180910390a35050565b6000612c078360000183613524565b60001c905092915050565b8173ffffffffffffffffffffffffffffffffffffffff168373ffffffffffffffffffffffffffffffffffffffff1603612c80576040517f08c379a0000000000000000000000000000000000000000000000000000000008152600401612c77906162b2565b60405180910390fd5b80600760008573ffffffffffffffffffffffffffffffffffffffff1673ffffffffffffffffffffffffffffffffffffffff16815260200190815260200160002060008473ffffffffffffffffffffffffffffffffffffffff1673ffffffffffffffffffffffffffffffffffffffff16815260200190815260200160002060006101000a81548160ff0219169083151502179055508173ffffffffffffffffffffffffffffffffffffffff168373ffffffffffffffffffffffffffffffffffffffff167f17307eab39ab6107e8899845ad3d59bd9653f200f220920489ca2b5937696c3183604051612d719190614555565b60405180910390a3505050565b612d898484846124ce565b612d958484848461354f565b612dd4576040517f08c379a0000000000000000000000000000000000000000000000000000000008152600401612dcb90616344565b60405180910390fd5b50505050565b606060006001612de9846136d6565b01905060008167ffffffffffffffff811115612e0857612e07614b75565b5b6040519080825280601f01601f191660200182016040528015612e3a5781602001600182028036833780820191505090505b509050600082602001820190505b600115612e9d578080600190039150507f3031323334353637383961626364656600000000000000000000000000000000600a86061a8153600a8581612e9157612e90616364565b5b04945060008503612e48575b819350505050919050565b6000612eb682600001613829565b9050919050565b60007fd17f1b21000000000000000000000000000000000000000000000000000000007bffffffffffffffffffffffffffffffffffffffffffffffffffffffff1916827bffffffffffffffffffffffffffffffffffffffffffffffffffffffff19161480612f305750612f2f8261383a565b5b9050919050565b612f43848484846138b4565b50505050565b50505050565b612f598282611b2a565b612fd057612f66816138c6565b612f748360001c60206138f3565b604051602001612f8592919061642b565b6040516020818303038152906040526040517f08c379a0000000000000000000000000000000000000000000000000000000008152600401612fc79190614600565b60405180910390fd5b5050565b612fde8282611b2a565b6130b057600160008084815260200190815260200160002060000160008373ffffffffffffffffffffffffffffffffffffffff1673ffffffffffffffffffffffffffffffffffffffff16815260200190815260200160002060006101000a81548160ff0219169083151502179055506130556122b9565b73ffffffffffffffffffffffffffffffffffffffff168173ffffffffffffffffffffffffffffffffffffffff16837f2f8788117e7eff1d82e926ec794901d17c78024a50270940304540a733656f0d60405160405180910390a45b5050565b60006130dc836000018373ffffffffffffffffffffffffffffffffffffffff1660001b613b2f565b905092915050565b6130ee838361325e565b6130fb600084848461354f565b61313a576040517f08c379a000000000000000000000000000000000000000000000000000000000815260040161313190616344565b60405180910390fd5b505050565b6131498282611b2a565b1561321c57600080600084815260200190815260200160002060000160008373ffffffffffffffffffffffffffffffffffffffff1673ffffffffffffffffffffffffffffffffffffffff16815260200190815260200160002060006101000a81548160ff0219169083151502179055506131c16122b9565b73ffffffffffffffffffffffffffffffffffffffff168173ffffffffffffffffffffffffffffffffffffffff16837ff6391f5c32d9c69d2a47ea670b442974b53935d1edc7fd64eb21e047a839171b60405160405180910390a45b5050565b6000613248836000018373ffffffffffffffffffffffffffffffffffffffff1660001b613b9f565b905092915050565b600081600001549050919050565b600073ffffffffffffffffffffffffffffffffffffffff168273ffffffffffffffffffffffffffffffffffffffff16036132cd576040517f08c379a00000000000000000000000000000000000000000000000000000000081526004016132c4906164b1565b60405180910390fd5b6132d68161237a565b15613316576040517f08c379a000000000000000000000000000000000000000000000000000000000815260040161330d9061651d565b60405180910390fd5b613324600083836001612f37565b61332d8161237a565b1561336d576040517f08c379a00000000000000000000000000000000000000000000000000000000081526004016133649061651d565b60405180910390fd5b6001600560008473ffffffffffffffffffffffffffffffffffffffff1673ffffffffffffffffffffffffffffffffffffffff16815260200190815260200160002060008282540192505081905550816004600083815260200190815260200160002060006101000a81548173ffffffffffffffffffffffffffffffffffffffff021916908373ffffffffffffffffffffffffffffffffffffffff160217905550808273ffffffffffffffffffffffffffffffffffffffff16600073ffffffffffffffffffffffffffffffffffffffff167fddf252ad1be2c89b69c2b068fc378daa952ba7f163c4a11628f55a4df523b3ef60405160405180910390a4613477600083836001612f49565b5050565b6001816000016000828254019250508190555050565b613499611724565b6134d8576040517f08c379a00000000000000000000000000000000000000000000000000000000081526004016134cf90616589565b60405180910390fd5b565b6134e2611724565b15613522576040517f08c379a0000000000000000000000000000000000000000000000000000000008152600401613519906165f5565b60405180910390fd5b565b600082600001828154811061353c5761353b61587a565b5b9060005260206000200154905092915050565b60006135708473ffffffffffffffffffffffffffffffffffffffff16613cb3565b156136c9578373ffffffffffffffffffffffffffffffffffffffff1663150b7a026135996122b9565b8786866040518563ffffffff1660e01b81526004016135bb9493929190616615565b6020604051808303816000875af19250505080156135f757506040513d601f19601f820116820180604052508101906135f49190616676565b60015b613679573d8060008114613627576040519150601f19603f3d011682016040523d82523d6000602084013e61362c565b606091505b506000815103613671576040517f08c379a000000000000000000000000000000000000000000000000000000000815260040161366890616344565b60405180910390fd5b805181602001fd5b63150b7a0260e01b7bffffffffffffffffffffffffffffffffffffffffffffffffffffffff1916817bffffffffffffffffffffffffffffffffffffffffffffffffffffffff1916149150506136ce565b600190505b949350505050565b600080600090507a184f03e93ff9f4daa797ed6e38ed64bf6a1f0100000000000000008310613734577a184f03e93ff9f4daa797ed6e38ed64bf6a1f010000000000000000838161372a57613729616364565b5b0492506040810190505b6d04ee2d6d415b85acef81000000008310613771576d04ee2d6d415b85acef8100000000838161376757613766616364565b5b0492506020810190505b662386f26fc1000083106137a057662386f26fc10000838161379657613795616364565b5b0492506010810190505b6305f5e10083106137c9576305f5e10083816137bf576137be616364565b5b0492506008810190505b61271083106137ee5761271083816137e4576137e3616364565b5b0492506004810190505b60648310613811576064838161380757613806616364565b5b0492506002810190505b600a8310613820576001810190505b80915050919050565b600081600001805490509050919050565b60007f780e9d63000000000000000000000000000000000000000000000000000000007bffffffffffffffffffffffffffffffffffffffffffffffffffffffff1916827bffffffffffffffffffffffffffffffffffffffffffffffffffffffff191614806138ad57506138ac82613cd6565b5b9050919050565b6138c084848484613db8565b50505050565b60606138ec8273ffffffffffffffffffffffffffffffffffffffff16601460ff166138f3565b9050919050565b60606000600283600261390691906166a3565b61391091906166e5565b67ffffffffffffffff81111561392957613928614b75565b5b6040519080825280601f01601f19166020018201604052801561395b5781602001600182028036833780820191505090505b5090507f3000000000000000000000000000000000000000000000000000000000000000816000815181106139935761399261587a565b5b60200101907effffffffffffffffffffffffffffffffffffffffffffffffffffffffffffff1916908160001a9053507f7800000000000000000000000000000000000000000000000000000000000000816001815181106139f7576139f661587a565b5b60200101907effffffffffffffffffffffffffffffffffffffffffffffffffffffffffffff1916908160001a90535060006001846002613a3791906166a3565b613a4191906166e5565b90505b6001811115613ae1577f3031323334353637383961626364656600000000000000000000000000000000600f861660108110613a8357613a8261587a565b5b1a60f81b828281518110613a9a57613a9961587a565b5b60200101907effffffffffffffffffffffffffffffffffffffffffffffffffffffffffffff1916908160001a905350600485901c945080613ada90616719565b9050613a44565b5060008414613b25576040517f08c379a0000000000000000000000000000000000000000000000000000000008152600401613b1c9061678e565b60405180910390fd5b8091505092915050565b6000613b3b8383613dca565b613b94578260000182908060018154018082558091505060019003906000526020600020016000909190919091505582600001805490508360010160008481526020019081526020016000208190555060019050613b99565b600090505b92915050565b60008083600101600084815260200190815260200160002054905060008114613ca7576000600182613bd191906167ae565b9050600060018660000180549050613be991906167ae565b9050818114613c58576000866000018281548110613c0a57613c0961587a565b5b9060005260206000200154905080876000018481548110613c2e57613c2d61587a565b5b90600052602060002001819055508387600101600083815260200190815260200160002081905550505b85600001805480613c6c57613c6b6167e2565b5b600190038181906000526020600020016000905590558560010160008681526020019081526020016000206000905560019350505050613cad565b60009150505b92915050565b6000808273ffffffffffffffffffffffffffffffffffffffff163b119050919050565b60007f80ac58cd000000000000000000000000000000000000000000000000000000007bffffffffffffffffffffffffffffffffffffffffffffffffffffffff1916827bffffffffffffffffffffffffffffffffffffffffffffffffffffffff19161480613da157507f5b5e139f000000000000000000000000000000000000000000000000000000007bffffffffffffffffffffffffffffffffffffffffffffffffffffffff1916827bffffffffffffffffffffffffffffffffffffffffffffffffffffffff1916145b80613db15750613db082613ded565b5b9050919050565b613dc484848484613e67565b50505050565b600080836001016000848152602001908152602001600020541415905092915050565b60007f5a05180f000000000000000000000000000000000000000000000000000000007bffffffffffffffffffffffffffffffffffffffffffffffffffffffff1916827bffffffffffffffffffffffffffffffffffffffffffffffffffffffff19161480613e605750613e5f82613ec1565b5b9050919050565b613e7384848484613f3b565b613e7b611724565b15613ebb576040517f08c379a0000000000000000000000000000000000000000000000000000000008152600401613eb290616883565b60405180910390fd5b50505050565b60007f7965db0b000000000000000000000000000000000000000000000000000000007bffffffffffffffffffffffffffffffffffffffffffffffffffffffff1916827bffffffffffffffffffffffffffffffffffffffffffffffffffffffff19161480613f345750613f3382614099565b5b9050919050565b613f4784848484614103565b6001811115613f8b576040517f08c379a0000000000000000000000000000000000000000000000000000000008152600401613f8290616915565b60405180910390fd5b6000829050600073ffffffffffffffffffffffffffffffffffffffff168573ffffffffffffffffffffffffffffffffffffffff1603613fd257613fcd81614195565b614011565b8373ffffffffffffffffffffffffffffffffffffffff168573ffffffffffffffffffffffffffffffffffffffff16146140105761400f85826141de565b5b5b600073ffffffffffffffffffffffffffffffffffffffff168473ffffffffffffffffffffffffffffffffffffffff16036140535761404e8161434b565b614092565b8473ffffffffffffffffffffffffffffffffffffffff168473ffffffffffffffffffffffffffffffffffffffff161461409157614090848261441c565b5b5b5050505050565b60007f01ffc9a7000000000000000000000000000000000000000000000000000000007bffffffffffffffffffffffffffffffffffffffffffffffffffffffff1916827bffffffffffffffffffffffffffffffffffffffffffffffffffffffff1916149050919050565b60008290505b818361411591906166e5565b81101561418257600860008281526020019081526020016000206000815461413c906156e5565b919050819055817fcc2c68164f9f7f0c063ba98bcf89498c0f3f5e3acc32bf4ab46195ecb489c13b60405160405180910390a3808061417a906156e5565b915050614109565b5061418f8484848461449b565b50505050565b603d80549050603e600083815260200190815260200160002081905550603d81908060018154018082558091505060019003906000526020600020016000909190919091505550565b600060016141eb84611843565b6141f591906167ae565b90506000603c60008481526020019081526020016000205490508181146142da576000603b60008673ffffffffffffffffffffffffffffffffffffffff1673ffffffffffffffffffffffffffffffffffffffff168152602001908152602001600020600084815260200190815260200160002054905080603b60008773ffffffffffffffffffffffffffffffffffffffff1673ffffffffffffffffffffffffffffffffffffffff16815260200190815260200160002060008481526020019081526020016000208190555081603c600083815260200190815260200160002081905550505b603c600084815260200190815260200160002060009055603b60008573ffffffffffffffffffffffffffffffffffffffff1673ffffffffffffffffffffffffffffffffffffffff16815260200190815260200160002060008381526020019081526020016000206000905550505050565b60006001603d8054905061435f91906167ae565b90506000603e60008481526020019081526020016000205490506000603d838154811061438f5761438e61587a565b5b9060005260206000200154905080603d83815481106143b1576143b061587a565b5b906000526020600020018190555081603e600083815260200190815260200160002081905550603e600085815260200190815260200160002060009055603d805480614400576143ff6167e2565b5b6001900381819060005260206000200160009055905550505050565b600061442783611843565b905081603b60008573ffffffffffffffffffffffffffffffffffffffff1673ffffffffffffffffffffffffffffffffffffffff16815260200190815260200160002060008381526020019081526020016000208190555080603c600084815260200190815260200160002081905550505050565b50505050565b6000604051905090565b600080fd5b600080fd5b60007fffffffff0000000000000000000000000000000000000000000000000000000082169050919050565b6144ea816144b5565b81146144f557600080fd5b50565b600081359050614507816144e1565b92915050565b600060208284031215614523576145226144ab565b5b6000614531848285016144f8565b91505092915050565b60008115159050919050565b61454f8161453a565b82525050565b600060208201905061456a6000830184614546565b92915050565b600081519050919050565b600082825260208201905092915050565b60005b838110156145aa57808201518184015260208101905061458f565b60008484015250505050565b6000601f19601f8301169050919050565b60006145d282614570565b6145dc818561457b565b93506145ec81856020860161458c565b6145f5816145b6565b840191505092915050565b6000602082019050818103600083015261461a81846145c7565b905092915050565b6000819050919050565b61463581614622565b811461464057600080fd5b50565b6000813590506146528161462c565b92915050565b60006020828403121561466e5761466d6144ab565b5b600061467c84828501614643565b91505092915050565b600073ffffffffffffffffffffffffffffffffffffffff82169050919050565b60006146b082614685565b9050919050565b6146c0816146a5565b82525050565b60006020820190506146db60008301846146b7565b92915050565b6146ea816146a5565b81146146f557600080fd5b50565b600081359050614707816146e1565b92915050565b60008060408385031215614724576147236144ab565b5b6000614732858286016146f8565b925050602061474385828601614643565b9150509250929050565b600081519050919050565b600082825260208201905092915050565b60006147748261474d565b61477e8185614758565b935061478e81856020860161458c565b614797816145b6565b840191505092915050565b600060208201905081810360008301526147bc8184614769565b905092915050565b6147cd81614622565b82525050565b60006020820190506147e860008301846147c4565b92915050565b600080fd5b600080fd5b600080fd5b60008083601f840112614813576148126147ee565b5b8235905067ffffffffffffffff8111156148305761482f6147f3565b5b60208301915083600182028301111561484c5761484b6147f8565b5b9250929050565b6000806020838503121561486a576148696144ab565b5b600083013567ffffffffffffffff811115614888576148876144b0565b5b614894858286016147fd565b92509250509250929050565b6000806000606084860312156148b9576148b86144ab565b5b60006148c7868287016146f8565b93505060206148d8868287016146f8565b92505060406148e986828701614643565b9150509250925092565b6000819050919050565b614906816148f3565b811461491157600080fd5b50565b600081359050614923816148fd565b92915050565b60006020828403121561493f5761493e6144ab565b5b600061494d84828501614914565b91505092915050565b61495f816148f3565b82525050565b600060208201905061497a6000830184614956565b92915050565b60008060408385031215614997576149966144ab565b5b60006149a585828601614914565b92505060206149b6858286016146f8565b9150509250929050565b60008083601f8401126149d6576149d56147ee565b5b8235905067ffffffffffffffff8111156149f3576149f26147f3565b5b602083019150836020820283011115614a0f57614a0e6147f8565b5b9250929050565b60008060208385031215614a2d57614a2c6144ab565b5b600083013567ffffffffffffffff811115614a4b57614a4a6144b0565b5b614a57858286016149c0565b92509250509250929050565b600081519050919050565b600082825260208201905092915050565b6000819050602082019050919050565b614a9881614622565b82525050565b6000614aaa8383614a8f565b60208301905092915050565b6000602082019050919050565b6000614ace82614a63565b614ad88185614a6e565b9350614ae383614a7f565b8060005b83811015614b14578151614afb8882614a9e565b9750614b0683614ab6565b925050600181019050614ae7565b5085935050505092915050565b60006020820190508181036000830152614b3b8184614ac3565b905092915050565b600060208284031215614b5957614b586144ab565b5b6000614b67848285016146f8565b91505092915050565b600080fd5b7f4e487b7100000000000000000000000000000000000000000000000000000000600052604160045260246000fd5b614bad826145b6565b810181811067ffffffffffffffff82111715614bcc57614bcb614b75565b5b80604052505050565b6000614bdf6144a1565b9050614beb8282614ba4565b919050565b600067ffffffffffffffff821115614c0b57614c0a614b75565b5b614c14826145b6565b9050602081019050919050565b82818337600083830152505050565b6000614c43614c3e84614bf0565b614bd5565b905082815260208101848484011115614c5f57614c5e614b70565b5b614c6a848285614c21565b509392505050565b600082601f830112614c8757614c866147ee565b5b8135614c97848260208601614c30565b91505092915050565b600060208284031215614cb657614cb56144ab565b5b600082013567ffffffffffffffff811115614cd457614cd36144b0565b5b614ce084828501614c72565b91505092915050565b60008060408385031215614d0057614cff6144ab565b5b6000614d0e85828601614914565b9250506020614d1f85828601614643565b9150509250929050565b6000614d34826146a5565b9050919050565b614d4481614d29565b8114614d4f57600080fd5b50565b600081359050614d6181614d3b565b92915050565b60008060408385031215614d7e57614d7d6144ab565b5b6000614d8c85828601614d52565b9250506020614d9d85828601614643565b9150509250929050565b614db08161453a565b8114614dbb57600080fd5b50565b600081359050614dcd81614da7565b92915050565b60008060408385031215614dea57614de96144ab565b5b6000614df8858286016146f8565b9250506020614e0985828601614dbe565b9150509250929050565b600067ffffffffffffffff821115614e2e57614e2d614b75565b5b614e37826145b6565b9050602081019050919050565b6000614e57614e5284614e13565b614bd5565b905082815260208101848484011115614e7357614e72614b70565b5b614e7e848285614c21565b509392505050565b600082601f830112614e9b57614e9a6147ee565b5b8135614eab848260208601614e44565b91505092915050565b60008060008060808587031215614ece57614ecd6144ab565b5b6000614edc878288016146f8565b9450506020614eed878288016146f8565b9350506040614efe87828801614643565b925050606085013567ffffffffffffffff811115614f1f57614f1e6144b0565b5b614f2b87828801614e86565b91505092959194509250565b60008060408385031215614f4e57614f4d6144ab565b5b6000614f5c858286016146f8565b9250506020614f6d858286016146f8565b9150509250929050565b7f4e487b7100000000000000000000000000000000000000000000000000000000600052602260045260246000fd5b60006002820490506001821680614fbe57607f821691505b602082108103614fd157614fd0614f77565b5b50919050565b7f4552433732313a20617070726f76616c20746f2063757272656e74206f776e6560008201527f7200000000000000000000000000000000000000000000000000000000000000602082015250565b600061503360218361457b565b915061503e82614fd7565b604082019050919050565b6000602082019050818103600083015261506281615026565b9050919050565b7f4552433732313a20617070726f76652063616c6c6572206973206e6f7420746f60008201527f6b656e206f776e6572206f7220617070726f76656420666f7220616c6c000000602082015250565b60006150c5603d8361457b565b91506150d082615069565b604082019050919050565b600060208201905081810360008301526150f4816150b8565b9050919050565b7f455243373231436f6d6d6f6e3a20717565727920666f72206e6f6e2d6578697360008201527f74656e7420746f6b656e00000000000000000000000000000000000000000000602082015250565b6000615157602a8361457b565b9150615162826150fb565b604082019050919050565b600060208201905081810360008301526151868161514a565b9050919050565b60008160601b9050919050565b60006151a58261518d565b9050919050565b60006151b78261519a565b9050919050565b6151cf6151ca826146a5565b6151ac565b82525050565b6000819050919050565b6151f06151eb82614622565b6151d5565b82525050565b600061520282866151be565b60148201915061521282856151df565b60208201915061522282846151df565b602082019150819050949350505050565b600082905092915050565b60008190508160005260206000209050919050565b60006020601f8301049050919050565b600082821b905092915050565b6000600883026152a07fffffffffffffffffffffffffffffffffffffffffffffffffffffffffffffffff82615263565b6152aa8683615263565b95508019841693508086168417925050509392505050565b6000819050919050565b60006152e76152e26152dd84614622565b6152c2565b614622565b9050919050565b6000819050919050565b615301836152cc565b61531561530d826152ee565b848454615270565b825550505050565b600090565b61532a61531d565b6153358184846152f8565b505050565b5b818110156153595761534e600082615322565b60018101905061533b565b5050565b601f82111561539e5761536f8161523e565b61537884615253565b81016020851015615387578190505b61539b61539385615253565b83018261533a565b50505b505050565b600082821c905092915050565b60006153c1600019846008026153a3565b1980831691505092915050565b60006153da83836153b0565b9150826002028217905092915050565b6153f48383615233565b67ffffffffffffffff81111561540d5761540c614b75565b5b6154178254614fa6565b61542282828561535d565b6000601f831160018114615451576000841561543f578287013590505b61544985826153ce565b8655506154b1565b601f19841661545f8661523e565b60005b8281101561548757848901358255600182019150602085019450602081019050615462565b868310156154a457848901356154a0601f8916826153b0565b8355505b6001600288020188555050505b50505050505050565b7f4552433732313a2063616c6c6572206973206e6f7420746f6b656e206f776e6560008201527f72206f7220617070726f76656400000000000000000000000000000000000000602082015250565b6000615516602d8361457b565b9150615521826154ba565b604082019050919050565b6000602082019050818103600083015261554581615509565b9050919050565b7f455243373231456e756d657261626c653a206f776e657220696e646578206f7560008201527f74206f6620626f756e6473000000000000000000000000000000000000000000602082015250565b60006155a8602b8361457b565b91506155b38261554c565b604082019050919050565b600060208201905081810360008301526155d78161559b565b9050919050565b7f4d696e74696e6720697320706175736564000000000000000000000000000000600082015250565b600061561460118361457b565b915061561f826155de565b602082019050919050565b6000602082019050818103600083015261564381615607565b9050919050565b7f4d696e7465722061646472657373206973206e6f742076616c69640000000000600082015250565b6000615680601b8361457b565b915061568b8261564a565b602082019050919050565b600060208201905081810360008301526156af81615673565b9050919050565b7f4e487b7100000000000000000000000000000000000000000000000000000000600052601160045260246000fd5b60006156f082614622565b91507fffffffffffffffffffffffffffffffffffffffffffffffffffffffffffffffff8203615722576157216156b6565b5b600182019050919050565b600060408201905061574260008301856146b7565b61574f60208301846147c4565b9392505050565b7f416363657373436f6e74726f6c3a2063616e206f6e6c792072656e6f756e636560008201527f20726f6c657320666f722073656c660000000000000000000000000000000000602082015250565b60006157b2602f8361457b565b91506157bd82615756565b604082019050919050565b600060208201905081810360008301526157e1816157a5565b9050919050565b7f455243373231436f6d6d6f6e3a20696e76616c6964206172726179206c656e6760008201527f7468730000000000000000000000000000000000000000000000000000000000602082015250565b600061584460238361457b565b915061584f826157e8565b604082019050919050565b6000602082019050818103600083015261587381615837565b9050919050565b7f4e487b7100000000000000000000000000000000000000000000000000000000600052603260045260246000fd5b7f4552433732315072657365744d696e7465725061757365724175746f49643a2060008201527f6d75737420686176652070617573657220726f6c6520746f20756e7061757365602082015250565b600061590560408361457b565b9150615910826158a9565b604082019050919050565b60006020820190508181036000830152615934816158f8565b9050919050565b60008151905061594a81614da7565b92915050565b600060208284031215615966576159656144ab565b5b60006159748482850161593b565b91505092915050565b60008151905061598c8161462c565b92915050565b6000602082840312156159a8576159a76144ab565b5b60006159b68482850161597d565b91505092915050565b7f455243373231456e756d657261626c653a20676c6f62616c20696e646578206f60008201527f7574206f6620626f756e64730000000000000000000000000000000000000000602082015250565b6000615a1b602c8361457b565b9150615a26826159bf565b604082019050919050565b60006020820190508181036000830152615a4a81615a0e565b9050919050565b615a5a82614570565b67ffffffffffffffff811115615a7357615a72614b75565b5b615a7d8254614fa6565b615a8882828561535d565b600060209050601f831160018114615abb5760008415615aa9578287015190505b615ab385826153ce565b865550615b1b565b601f198416615ac98661523e565b60005b82811015615af157848901518255600182019150602085019450602081019050615acc565b86831015615b0e5784890151615b0a601f8916826153b0565b8355505b6001600288020188555050505b505050505050565b7f4552433732313a20696e76616c696420746f6b656e2049440000000000000000600082015250565b6000615b5960188361457b565b9150615b6482615b23565b602082019050919050565b60006020820190508181036000830152615b8881615b4c565b9050919050565b7f4552433732315072657365744d696e7465725061757365724175746f49643a2060008201527f6d7573742068617665206d696e74657220726f6c6520746f206d696e74000000602082015250565b6000615beb603d8361457b565b9150615bf682615b8f565b604082019050919050565b60006020820190508181036000830152615c1a81615bde565b9050919050565b7f4552433732313a2061646472657373207a65726f206973206e6f74206120766160008201527f6c6964206f776e65720000000000000000000000000000000000000000000000602082015250565b6000615c7d60298361457b565b9150615c8882615c21565b604082019050919050565b60006020820190508181036000830152615cac81615c70565b9050919050565b7f4552433732315072657365744d696e7465725061757365724175746f49643a2060008201527f6d75737420686176652070617573657220726f6c6520746f2070617573650000602082015250565b6000615d0f603e8361457b565b9150615d1a82615cb3565b604082019050919050565b60006020820190508181036000830152615d3e81615d02565b9050919050565b600081905092915050565b50565b6000615d60600083615d45565b9150615d6b82615d50565b600082019050919050565b6000615d8182615d53565b9150819050919050565b7f776974686472617720776173206e6f742073756363657366756c6c0000000000600082015250565b6000615dc1601b8361457b565b9150615dcc82615d8b565b602082019050919050565b60006020820190508181036000830152615df081615db4565b9050919050565b7f4552433732314d657461646174613a2055524920717565727920666f72206e6f60008201527f6e6578697374656e7420746f6b656e0000000000000000000000000000000000602082015250565b6000615e53602f8361457b565b9150615e5e82615df7565b604082019050919050565b60006020820190508181036000830152615e8281615e46565b9050919050565b600081905092915050565b60008154615ea181614fa6565b615eab8186615e89565b94506001821660008114615ec65760018114615edb57615f0e565b60ff1983168652811515820286019350615f0e565b615ee48561523e565b60005b83811015615f0657815481890152600182019150602081019050615ee7565b838801955050505b50505092915050565b6000615f2282614570565b615f2c8185615e89565b9350615f3c81856020860161458c565b80840191505092915050565b6000615f548285615e94565b9150615f608284615f17565b91508190509392505050565b7f4f776e61626c653a206e6577206f776e657220697320746865207a65726f206160008201527f6464726573730000000000000000000000000000000000000000000000000000602082015250565b6000615fc860268361457b565b9150615fd382615f6c565b604082019050919050565b60006020820190508181036000830152615ff781615fbb565b9050919050565b7f496e76616c6964206d696e746572206164647265737300000000000000000000600082015250565b600061603460168361457b565b915061603f82615ffe565b602082019050919050565b6000602082019050818103600083015261606381616027565b9050919050565b7f4f776e61626c653a2063616c6c6572206973206e6f7420746865206f776e6572600082015250565b60006160a060208361457b565b91506160ab8261606a565b602082019050919050565b600060208201905081810360008301526160cf81616093565b9050919050565b7f4552433732313a207472616e736665722066726f6d20696e636f72726563742060008201527f6f776e6572000000000000000000000000000000000000000000000000000000602082015250565b600061613260258361457b565b915061613d826160d6565b604082019050919050565b6000602082019050818103600083015261616181616125565b9050919050565b7f4552433732313a207472616e7366657220746f20746865207a65726f2061646460008201527f7265737300000000000000000000000000000000000000000000000000000000602082015250565b60006161c460248361457b565b91506161cf82616168565b604082019050919050565b600060208201905081810360008301526161f3816161b7565b9050919050565b7f5265656e7472616e637947756172643a207265656e7472616e742063616c6c00600082015250565b6000616230601f8361457b565b915061623b826161fa565b602082019050919050565b6000602082019050818103600083015261625f81616223565b9050919050565b7f4552433732313a20617070726f766520746f2063616c6c657200000000000000600082015250565b600061629c60198361457b565b91506162a782616266565b602082019050919050565b600060208201905081810360008301526162cb8161628f565b9050919050565b7f4552433732313a207472616e7366657220746f206e6f6e20455243373231526560008201527f63656976657220696d706c656d656e7465720000000000000000000000000000602082015250565b600061632e60328361457b565b9150616339826162d2565b604082019050919050565b6000602082019050818103600083015261635d81616321565b9050919050565b7f4e487b7100000000000000000000000000000000000000000000000000000000600052601260045260246000fd5b7f416363657373436f6e74726f6c3a206163636f756e7420000000000000000000600082015250565b60006163c9601783615e89565b91506163d482616393565b601782019050919050565b7f206973206d697373696e6720726f6c6520000000000000000000000000000000600082015250565b6000616415601183615e89565b9150616420826163df565b601182019050919050565b6000616436826163bc565b91506164428285615f17565b915061644d82616408565b91506164598284615f17565b91508190509392505050565b7f4552433732313a206d696e7420746f20746865207a65726f2061646472657373600082015250565b600061649b60208361457b565b91506164a682616465565b602082019050919050565b600060208201905081810360008301526164ca8161648e565b9050919050565b7f4552433732313a20746f6b656e20616c7265616479206d696e74656400000000600082015250565b6000616507601c8361457b565b9150616512826164d1565b602082019050919050565b60006020820190508181036000830152616536816164fa565b9050919050565b7f5061757361626c653a206e6f7420706175736564000000000000000000000000600082015250565b600061657360148361457b565b915061657e8261653d565b602082019050919050565b600060208201905081810360008301526165a281616566565b9050919050565b7f5061757361626c653a2070617573656400000000000000000000000000000000600082015250565b60006165df60108361457b565b91506165ea826165a9565b602082019050919050565b6000602082019050818103600083015261660e816165d2565b9050919050565b600060808201905061662a60008301876146b7565b61663760208301866146b7565b61664460408301856147c4565b81810360608301526166568184614769565b905095945050505050565b600081519050616670816144e1565b92915050565b60006020828403121561668c5761668b6144ab565b5b600061669a84828501616661565b91505092915050565b60006166ae82614622565b91506166b983614622565b92508282026166c781614622565b915082820484148315176166de576166dd6156b6565b5b5092915050565b60006166f082614622565b91506166fb83614622565b9250828201905080821115616713576167126156b6565b5b92915050565b600061672482614622565b915060008203616737576167366156b6565b5b600182039050919050565b7f537472696e67733a20686578206c656e67746820696e73756666696369656e74600082015250565b600061677860208361457b565b915061678382616742565b602082019050919050565b600060208201905081810360008301526167a78161676b565b9050919050565b60006167b982614622565b91506167c483614622565b92508282039050818111156167dc576167db6156b6565b5b92915050565b7f4e487b7100000000000000000000000000000000000000000000000000000000600052603160045260246000fd5b7f4552433732315061757361626c653a20746f6b656e207472616e73666572207760008201527f68696c6520706175736564000000000000000000000000000000000000000000602082015250565b600061686d602b8361457b565b915061687882616811565b604082019050919050565b6000602082019050818103600083015261689c81616860565b9050919050565b7f455243373231456e756d657261626c653a20636f6e736563757469766520747260008201527f616e7366657273206e6f7420737570706f727465640000000000000000000000602082015250565b60006168ff60358361457b565b915061690a826168a3565b604082019050919050565b6000602082019050818103600083015261692e816168f2565b905091905056fea264697066735822122058e2abc46bd36a03ba7dc6d831322b307c621f686242dec96ca483a58ef64b3964736f6c63430008130033",
  "linkReferences": {},
  "deployedLinkReferences": {}
}