{
  "_format": "hh-sol-artifact-1",
  "contractName": "RuniverseItem",
  "sourceName": "contracts/RuniverseItem.sol",
  "abi": [
    {
      "inputs": [
        {
          "internalType": "string",
          "name": "_baseURI",
          "type": "string"
        }
      ],
      "stateMutability": "nonpayable",
      "type": "constructor"
    },
    {
      "inputs": [],
      "name": "Address0Error",
      "type": "error"
    },
    {
      "anonymous": false,
      "inputs": [
        {
          "indexed": true,
          "internalType": "address",
          "name": "owner",
          "type": "address"
        },
        {
          "indexed": true,
          "internalType": "address",
          "name": "approved",
          "type": "address"
        },
        {
          "indexed": true,
          "internalType": "uint256",
          "name": "tokenId",
          "type": "uint256"
        }
      ],
      "name": "Approval",
      "type": "event"
    },
    {
      "anonymous": false,
      "inputs": [
        {
          "indexed": true,
          "internalType": "address",
          "name": "owner",
          "type": "address"
        },
        {
          "indexed": true,
          "internalType": "address",
          "name": "operator",
          "type": "address"
        },
        {
          "indexed": false,
          "internalType": "bool",
          "name": "approved",
          "type": "bool"
        }
      ],
      "name": "ApprovalForAll",
      "type": "event"
    },
    {
      "anonymous": false,
      "inputs": [
        {
          "indexed": true,
          "internalType": "address",
          "name": "previousOwner",
          "type": "address"
        },
        {
          "indexed": true,
          "internalType": "address",
          "name": "newOwner",
          "type": "address"
        }
      ],
      "name": "OwnershipTransferred",
      "type": "event"
    },
    {
      "anonymous": false,
      "inputs": [
        {
          "indexed": false,
          "internalType": "address",
          "name": "account",
          "type": "address"
        }
      ],
      "name": "Paused",
      "type": "event"
    },
    {
      "anonymous": false,
      "inputs": [
        {
          "indexed": false,
          "internalType": "address",
          "name": "to",
          "type": "address"
        },
        {
          "indexed": false,
          "internalType": "uint256",
          "name": "tokenId",
          "type": "uint256"
        }
      ],
      "name": "RuniverseItemMinted",
      "type": "event"
    },
    {
      "anonymous": false,
      "inputs": [
        {
          "indexed": true,
          "internalType": "address",
          "name": "from",
          "type": "address"
        },
        {
          "indexed": true,
          "internalType": "address",
          "name": "to",
          "type": "address"
        },
        {
          "indexed": true,
          "internalType": "uint256",
          "name": "tokenId",
          "type": "uint256"
        }
      ],
      "name": "Transfer",
      "type": "event"
    },
    {
      "anonymous": false,
      "inputs": [
        {
          "indexed": false,
          "internalType": "address",
          "name": "account",
          "type": "address"
        }
      ],
      "name": "Unpaused",
      "type": "event"
    },
    {
      "inputs": [
        {
          "internalType": "address",
          "name": "to",
          "type": "address"
        },
        {
          "internalType": "uint256",
          "name": "tokenId",
          "type": "uint256"
        }
      ],
      "name": "approve",
      "outputs": [],
      "stateMutability": "nonpayable",
      "type": "function"
    },
    {
      "inputs": [
        {
          "internalType": "address",
          "name": "owner",
          "type": "address"
        }
      ],
      "name": "balanceOf",
      "outputs": [
        {
          "internalType": "uint256",
          "name": "",
          "type": "uint256"
        }
      ],
      "stateMutability": "view",
      "type": "function"
    },
    {
      "inputs": [],
      "name": "baseTokenURI",
      "outputs": [
        {
          "internalType": "string",
          "name": "",
          "type": "string"
        }
      ],
      "stateMutability": "view",
      "type": "function"
    },
    {
      "inputs": [
        {
          "internalType": "uint256",
          "name": "tokenId",
          "type": "uint256"
        }
      ],
      "name": "burn",
      "outputs": [],
      "stateMutability": "nonpayable",
      "type": "function"
    },
    {
      "inputs": [
        {
          "internalType": "uint256",
          "name": "tokenId",
          "type": "uint256"
        }
      ],
      "name": "exists",
      "outputs": [
        {
          "internalType": "bool",
          "name": "",
          "type": "bool"
        }
      ],
      "stateMutability": "view",
      "type": "function"
    },
    {
      "inputs": [
        {
          "internalType": "contract IERC20",
          "name": "token",
          "type": "address"
        },
        {
          "internalType": "uint256",
          "name": "amount",
          "type": "uint256"
        }
      ],
      "name": "forwardERC20s",
      "outputs": [],
      "stateMutability": "nonpayable",
      "type": "function"
    },
    {
      "inputs": [
        {
          "internalType": "uint256",
          "name": "tokenId",
          "type": "uint256"
        }
      ],
      "name": "getApproved",
      "outputs": [
        {
          "internalType": "address",
          "name": "",
          "type": "address"
        }
      ],
      "stateMutability": "view",
      "type": "function"
    },
    {
      "inputs": [],
      "name": "getBaseURI",
      "outputs": [
        {
          "internalType": "string",
          "name": "",
          "type": "string"
        }
      ],
      "stateMutability": "view",
      "type": "function"
    },
    {
      "inputs": [
        {
          "internalType": "address",
          "name": "owner",
          "type": "address"
        },
        {
          "internalType": "address",
          "name": "operator",
          "type": "address"
        }
      ],
      "name": "isApprovedForAll",
      "outputs": [
        {
          "internalType": "bool",
          "name": "",
          "type": "bool"
        }
      ],
      "stateMutability": "view",
      "type": "function"
    },
    {
      "inputs": [
        {
          "internalType": "address",
          "name": "recipient",
          "type": "address"
        },
        {
          "internalType": "uint256",
          "name": "tokenId",
          "type": "uint256"
        }
      ],
      "name": "mintTokenId",
      "outputs": [],
      "stateMutability": "nonpayable",
      "type": "function"
    },
    {
      "inputs": [],
      "name": "minterAddress",
      "outputs": [
        {
          "internalType": "address",
          "name": "",
          "type": "address"
        }
      ],
      "stateMutability": "view",
      "type": "function"
    },
    {
      "inputs": [],
      "name": "name",
      "outputs": [
        {
          "internalType": "string",
          "name": "",
          "type": "string"
        }
      ],
      "stateMutability": "view",
      "type": "function"
    },
    {
      "inputs": [],
      "name": "numMinted",
      "outputs": [
        {
          "internalType": "uint256",
          "name": "",
          "type": "uint256"
        }
      ],
      "stateMutability": "view",
      "type": "function"
    },
    {
      "inputs": [],
      "name": "owner",
      "outputs": [
        {
          "internalType": "address",
          "name": "",
          "type": "address"
        }
      ],
      "stateMutability": "view",
      "type": "function"
    },
    {
      "inputs": [
        {
          "internalType": "uint256",
          "name": "tokenId",
          "type": "uint256"
        }
      ],
      "name": "ownerOf",
      "outputs": [
        {
          "internalType": "address",
          "name": "",
          "type": "address"
        }
      ],
      "stateMutability": "view",
      "type": "function"
    },
    {
      "inputs": [],
      "name": "pauseContract",
      "outputs": [],
      "stateMutability": "nonpayable",
      "type": "function"
    },
    {
      "inputs": [],
      "name": "paused",
      "outputs": [
        {
          "internalType": "bool",
          "name": "",
          "type": "bool"
        }
      ],
      "stateMutability": "view",
      "type": "function"
    },
    {
      "inputs": [],
      "name": "renounceOwnership",
      "outputs": [],
      "stateMutability": "nonpayable",
      "type": "function"
    },
    {
      "inputs": [
        {
          "internalType": "address",
          "name": "from",
          "type": "address"
        },
        {
          "internalType": "address",
          "name": "to",
          "type": "address"
        },
        {
          "internalType": "uint256",
          "name": "tokenId",
          "type": "uint256"
        }
      ],
      "name": "safeTransferFrom",
      "outputs": [],
      "stateMutability": "nonpayable",
      "type": "function"
    },
    {
      "inputs": [
        {
          "internalType": "address",
          "name": "from",
          "type": "address"
        },
        {
          "internalType": "address",
          "name": "to",
          "type": "address"
        },
        {
          "internalType": "uint256",
          "name": "tokenId",
          "type": "uint256"
        },
        {
          "internalType": "bytes",
          "name": "data",
          "type": "bytes"
        }
      ],
      "name": "safeTransferFrom",
      "outputs": [],
      "stateMutability": "nonpayable",
      "type": "function"
    },
    {
      "inputs": [
        {
          "internalType": "address",
          "name": "operator",
          "type": "address"
        },
        {
          "internalType": "bool",
          "name": "approved",
          "type": "bool"
        }
      ],
      "name": "setApprovalForAll",
      "outputs": [],
      "stateMutability": "nonpayable",
      "type": "function"
    },
    {
      "inputs": [
        {
          "internalType": "string",
          "name": "newBaseURI",
          "type": "string"
        }
      ],
      "name": "setBaseURI",
      "outputs": [],
      "stateMutability": "nonpayable",
      "type": "function"
    },
    {
      "inputs": [
        {
          "internalType": "address",
          "name": "newMinter",
          "type": "address"
        }
      ],
      "name": "setMinter",
      "outputs": [],
      "stateMutability": "nonpayable",
      "type": "function"
    },
    {
      "inputs": [
        {
          "internalType": "bytes4",
          "name": "interfaceId",
          "type": "bytes4"
        }
      ],
      "name": "supportsInterface",
      "outputs": [
        {
          "internalType": "bool",
          "name": "",
          "type": "bool"
        }
      ],
      "stateMutability": "view",
      "type": "function"
    },
    {
      "inputs": [],
      "name": "symbol",
      "outputs": [
        {
          "internalType": "string",
          "name": "",
          "type": "string"
        }
      ],
      "stateMutability": "view",
      "type": "function"
    },
    {
      "inputs": [
        {
          "internalType": "uint256",
          "name": "index",
          "type": "uint256"
        }
      ],
      "name": "tokenByIndex",
      "outputs": [
        {
          "internalType": "uint256",
          "name": "",
          "type": "uint256"
        }
      ],
      "stateMutability": "view",
      "type": "function"
    },
    {
      "inputs": [
        {
          "internalType": "address",
          "name": "owner",
          "type": "address"
        },
        {
          "internalType": "uint256",
          "name": "index",
          "type": "uint256"
        }
      ],
      "name": "tokenOfOwnerByIndex",
      "outputs": [
        {
          "internalType": "uint256",
          "name": "",
          "type": "uint256"
        }
      ],
      "stateMutability": "view",
      "type": "function"
    },
    {
      "inputs": [
        {
          "internalType": "uint256",
          "name": "tokenId",
          "type": "uint256"
        }
      ],
      "name": "tokenURI",
      "outputs": [
        {
          "internalType": "string",
          "name": "",
          "type": "string"
        }
      ],
      "stateMutability": "view",
      "type": "function"
    },
    {
      "inputs": [],
      "name": "totalSupply",
      "outputs": [
        {
          "internalType": "uint256",
          "name": "",
          "type": "uint256"
        }
      ],
      "stateMutability": "view",
      "type": "function"
    },
    {
      "inputs": [
        {
          "internalType": "address",
          "name": "from",
          "type": "address"
        },
        {
          "internalType": "address",
          "name": "to",
          "type": "address"
        },
        {
          "internalType": "uint256",
          "name": "tokenId",
          "type": "uint256"
        }
      ],
      "name": "transferFrom",
      "outputs": [],
      "stateMutability": "nonpayable",
      "type": "function"
    },
    {
      "inputs": [
        {
          "internalType": "address",
          "name": "newOwner",
          "type": "address"
        }
      ],
      "name": "transferOwnership",
      "outputs": [],
      "stateMutability": "nonpayable",
      "type": "function"
    },
    {
      "inputs": [],
      "name": "unpauseContract",
      "outputs": [],
      "stateMutability": "nonpayable",
      "type": "function"
    },
    {
      "inputs": [],
      "name": "withdrawAll",
      "outputs": [],
      "stateMutability": "payable",
      "type": "function"
    }
  ],
  "bytecode": "0x60806040526000600f553480156200001657600080fd5b5060405162004f8438038062004f8483398181016040528101906200003c91906200038b565b6040518060400160405280600d81526020017f52756e6976657273654974656d000000000000000000000000000000000000008152506040518060400160405280600481526020017f5249544d000000000000000000000000000000000000000000000000000000008152508160009081620000b9919062000627565b508060019081620000cb919062000627565b5050506000600660006101000a81548160ff02191690831515021790555062000109620000fd6200012a60201b60201c565b6200013260201b60201c565b6001600c8190555080600e908162000122919062000627565b50506200070e565b600033905090565b6000600b60009054906101000a900473ffffffffffffffffffffffffffffffffffffffff16905081600b60006101000a81548173ffffffffffffffffffffffffffffffffffffffff021916908373ffffffffffffffffffffffffffffffffffffffff1602179055508173ffffffffffffffffffffffffffffffffffffffff168173ffffffffffffffffffffffffffffffffffffffff167f8be0079c531659141344cd1fd0a4f28419497f9722a3daafe3b4186f6b6457e060405160405180910390a35050565b6000604051905090565b600080fd5b600080fd5b600080fd5b600080fd5b6000601f19601f8301169050919050565b7f4e487b7100000000000000000000000000000000000000000000000000000000600052604160045260246000fd5b620002618262000216565b810181811067ffffffffffffffff8211171562000283576200028262000227565b5b80604052505050565b600062000298620001f8565b9050620002a6828262000256565b919050565b600067ffffffffffffffff821115620002c957620002c862000227565b5b620002d48262000216565b9050602081019050919050565b60005b8381101562000301578082015181840152602081019050620002e4565b60008484015250505050565b6000620003246200031e84620002ab565b6200028c565b90508281526020810184848401111562000343576200034262000211565b5b62000350848285620002e1565b509392505050565b600082601f83011262000370576200036f6200020c565b5b8151620003828482602086016200030d565b91505092915050565b600060208284031215620003a457620003a362000202565b5b600082015167ffffffffffffffff811115620003c557620003c462000207565b5b620003d38482850162000358565b91505092915050565b600081519050919050565b7f4e487b7100000000000000000000000000000000000000000000000000000000600052602260045260246000fd5b600060028204905060018216806200042f57607f821691505b602082108103620004455762000444620003e7565b5b50919050565b60008190508160005260206000209050919050565b60006020601f8301049050919050565b600082821b905092915050565b600060088302620004af7fffffffffffffffffffffffffffffffffffffffffffffffffffffffffffffffff8262000470565b620004bb868362000470565b95508019841693508086168417925050509392505050565b6000819050919050565b6000819050919050565b60006200050862000502620004fc84620004d3565b620004dd565b620004d3565b9050919050565b6000819050919050565b6200052483620004e7565b6200053c62000533826200050f565b8484546200047d565b825550505050565b600090565b6200055362000544565b6200056081848462000519565b505050565b5b8181101562000588576200057c60008262000549565b60018101905062000566565b5050565b601f821115620005d757620005a1816200044b565b620005ac8462000460565b81016020851015620005bc578190505b620005d4620005cb8562000460565b83018262000565565b50505b505050565b600082821c905092915050565b6000620005fc60001984600802620005dc565b1980831691505092915050565b6000620006178383620005e9565b9150826002028217905092915050565b6200063282620003dc565b67ffffffffffffffff8111156200064e576200064d62000227565b5b6200065a825462000416565b620006678282856200058c565b600060209050601f8311600181146200069f57600084156200068a578287015190505b62000696858262000609565b86555062000706565b601f198416620006af866200044b565b60005b82811015620006d957848901518255600182019150602085019450602081019050620006b2565b86831015620006f95784890151620006f5601f891682620005e9565b8355505b6001600288020188555050505b505050505050565b614866806200071e6000396000f3fe6080604052600436106101ee5760003560e01c80636352211e1161010d578063a22cb465116100a0578063d52079b41161006f578063d52079b4146106c8578063d547cfb7146106f3578063e985e9c51461071e578063f2fde38b1461075b578063fca3b5aa14610784576101ee565b8063a22cb46514610622578063b33712c51461064b578063b88d4fde14610662578063c87b56dd1461068b576101ee565b8063853828b6116100dc578063853828b6146105995780638da5cb5b146105a357806395d89b41146105ce5780639727151a146105f9576101ee565b80636352211e146104dd57806370a082311461051a578063714c539814610557578063715018a614610582576101ee565b806334d722c9116101855780634f558e79116101545780634f558e791461040f5780634f6ccce71461044c57806355f804b3146104895780635c975abb146104b2576101ee565b806334d722c91461037b57806342842e0e146103a657806342966c68146103cf578063439766ce146103f8576101ee565b806318160ddd116101c157806318160ddd146102c157806323b872dd146102ec5780632f745c591461031557806332761d1614610352576101ee565b806301ffc9a7146101f357806306fdde0314610230578063081812fc1461025b578063095ea7b314610298575b600080fd5b3480156101ff57600080fd5b5061021a60048036038101906102159190612ea7565b6107ad565b6040516102279190612eef565b60405180910390f35b34801561023c57600080fd5b506102456107bf565b6040516102529190612f9a565b60405180910390f35b34801561026757600080fd5b50610282600480360381019061027d9190612ff2565b610851565b60405161028f9190613060565b60405180910390f35b3480156102a457600080fd5b506102bf60048036038101906102ba91906130a7565b610897565b005b3480156102cd57600080fd5b506102d66109ae565b6040516102e391906130f6565b60405180910390f35b3480156102f857600080fd5b50610313600480360381019061030e9190613111565b6109bb565b005b34801561032157600080fd5b5061033c600480360381019061033791906130a7565b610a1b565b60405161034991906130f6565b60405180910390f35b34801561035e57600080fd5b50610379600480360381019061037491906130a7565b610ac0565b005b34801561038757600080fd5b50610390610c0c565b60405161039d9190613060565b60405180910390f35b3480156103b257600080fd5b506103cd60048036038101906103c89190613111565b610c32565b005b3480156103db57600080fd5b506103f660048036038101906103f19190612ff2565b610c52565b005b34801561040457600080fd5b5061040d610cae565b005b34801561041b57600080fd5b5061043660048036038101906104319190612ff2565b610d34565b6040516104439190612eef565b60405180910390f35b34801561045857600080fd5b50610473600480360381019061046e9190612ff2565b610d46565b60405161048091906130f6565b60405180910390f35b34801561049557600080fd5b506104b060048036038101906104ab91906131c9565b610db7565b005b3480156104be57600080fd5b506104c7610dd5565b6040516104d49190612eef565b60405180910390f35b3480156104e957600080fd5b5061050460048036038101906104ff9190612ff2565b610dec565b6040516105119190613060565b60405180910390f35b34801561052657600080fd5b50610541600480360381019061053c9190613216565b610e72565b60405161054e91906130f6565b60405180910390f35b34801561056357600080fd5b5061056c610f29565b6040516105799190612f9a565b60405180910390f35b34801561058e57600080fd5b50610597610fbb565b005b6105a1610fcf565b005b3480156105af57600080fd5b506105b8611086565b6040516105c59190613060565b60405180910390f35b3480156105da57600080fd5b506105e36110b0565b6040516105f09190612f9a565b60405180910390f35b34801561060557600080fd5b50610620600480360381019061061b9190613281565b611142565b005b34801561062e57600080fd5b50610649600480360381019061064491906132ed565b611233565b005b34801561065757600080fd5b50610660611249565b005b34801561066e57600080fd5b506106896004803603810190610684919061345d565b6112d0565b005b34801561069757600080fd5b506106b260048036038101906106ad9190612ff2565b611332565b6040516106bf9190612f9a565b60405180910390f35b3480156106d457600080fd5b506106dd6113ae565b6040516106ea91906130f6565b60405180910390f35b3480156106ff57600080fd5b506107086113b4565b6040516107159190612f9a565b60405180910390f35b34801561072a57600080fd5b50610745600480360381019061074091906134e0565b611442565b6040516107529190612eef565b60405180910390f35b34801561076757600080fd5b50610782600480360381019061077d9190613216565b6114d6565b005b34801561079057600080fd5b506107ab60048036038101906107a69190613216565b611559565b005b60006107b882611614565b9050919050565b6060600080546107ce9061354f565b80601f01602080910402602001604051908101604052809291908181526020018280546107fa9061354f565b80156108475780601f1061081c57610100808354040283529160200191610847565b820191906000526020600020905b81548152906001019060200180831161082a57829003601f168201915b5050505050905090565b600061085c8261168e565b6004600083815260200190815260200160002060009054906101000a900473ffffffffffffffffffffffffffffffffffffffff169050919050565b60006108a282610dec565b90508073ffffffffffffffffffffffffffffffffffffffff168373ffffffffffffffffffffffffffffffffffffffff1603610912576040517f08c379a0000000000000000000000000000000000000000000000000000000008152600401610909906135f2565b60405180910390fd5b8073ffffffffffffffffffffffffffffffffffffffff166109316116d9565b73ffffffffffffffffffffffffffffffffffffffff161480610960575061095f8161095a6116d9565b611442565b5b61099f576040517f08c379a000000000000000000000000000000000000000000000000000000000815260040161099690613684565b60405180910390fd5b6109a983836116e1565b505050565b6000600980549050905090565b6109cc6109c66116d9565b8261179a565b610a0b576040517f08c379a0000000000000000000000000000000000000000000000000000000008152600401610a0290613716565b60405180910390fd5b610a1683838361182f565b505050565b6000610a2683610e72565b8210610a67576040517f08c379a0000000000000000000000000000000000000000000000000000000008152600401610a5e906137a8565b60405180910390fd5b600760008473ffffffffffffffffffffffffffffffffffffffff1673ffffffffffffffffffffffffffffffffffffffff168152602001908152602001600020600083815260200190815260200160002054905092915050565b610ac8611b28565b610ad0610dd5565b15610b10576040517f08c379a0000000000000000000000000000000000000000000000000000000008152600401610b0790613814565b60405180910390fd5b600d60009054906101000a900473ffffffffffffffffffffffffffffffffffffffff1673ffffffffffffffffffffffffffffffffffffffff16610b516116d9565b73ffffffffffffffffffffffffffffffffffffffff1614610ba7576040517f08c379a0000000000000000000000000000000000000000000000000000000008152600401610b9e90613880565b60405180910390fd5b600f60008154610bb6906138cf565b919050819055507f604e0f34ba8d6d3f7f48c01c251c7bf880d71369b217e5b976ca6120cc51710c8282604051610bee929190613917565b60405180910390a1610c008282611b77565b610c08611b95565b5050565b600d60009054906101000a900473ffffffffffffffffffffffffffffffffffffffff1681565b610c4d838383604051806020016040528060008152506112d0565b505050565b610c63610c5d6116d9565b8261179a565b610ca2576040517f08c379a0000000000000000000000000000000000000000000000000000000008152600401610c9990613716565b60405180910390fd5b610cab81611b9f565b50565b610cb6611ced565b3073ffffffffffffffffffffffffffffffffffffffff16635c975abb6040518163ffffffff1660e01b8152600401602060405180830381865afa158015610d01573d6000803e3d6000fd5b505050506040513d601f19601f82011682018060405250810190610d259190613955565b610d3257610d31611d6b565b5b565b6000610d3f82611dce565b9050919050565b6000610d506109ae565b8210610d91576040517f08c379a0000000000000000000000000000000000000000000000000000000008152600401610d88906139f4565b60405180910390fd5b60098281548110610da557610da4613a14565b5b90600052602060002001549050919050565b610dbf611ced565b8181600e9182610dd0929190613bfa565b505050565b6000600660009054906101000a900460ff16905090565b600080610df883611e0f565b9050600073ffffffffffffffffffffffffffffffffffffffff168173ffffffffffffffffffffffffffffffffffffffff1603610e69576040517f08c379a0000000000000000000000000000000000000000000000000000000008152600401610e6090613d16565b60405180910390fd5b80915050919050565b60008073ffffffffffffffffffffffffffffffffffffffff168273ffffffffffffffffffffffffffffffffffffffff1603610ee2576040517f08c379a0000000000000000000000000000000000000000000000000000000008152600401610ed990613da8565b60405180910390fd5b600360008373ffffffffffffffffffffffffffffffffffffffff1673ffffffffffffffffffffffffffffffffffffffff168152602001908152602001600020549050919050565b6060600e8054610f389061354f565b80601f0160208091040260200160405190810160405280929190818152602001828054610f649061354f565b8015610fb15780601f10610f8657610100808354040283529160200191610fb1565b820191906000526020600020905b815481529060010190602001808311610f9457829003601f168201915b5050505050905090565b610fc3611ced565b610fcd6000611e4c565b565b610fd7611ced565b60003373ffffffffffffffffffffffffffffffffffffffff1647604051610ffd90613df9565b60006040518083038185875af1925050503d806000811461103a576040519150601f19603f3d011682016040523d82523d6000602084013e61103f565b606091505b5050905080611083576040517f08c379a000000000000000000000000000000000000000000000000000000000815260040161107a90613e5a565b60405180910390fd5b50565b6000600b60009054906101000a900473ffffffffffffffffffffffffffffffffffffffff16905090565b6060600180546110bf9061354f565b80601f01602080910402602001604051908101604052809291908181526020018280546110eb9061354f565b80156111385780601f1061110d57610100808354040283529160200191611138565b820191906000526020600020905b81548152906001019060200180831161111b57829003601f168201915b5050505050905090565b61114a611ced565b600073ffffffffffffffffffffffffffffffffffffffff163373ffffffffffffffffffffffffffffffffffffffff16036111b0576040517f48ac165200000000000000000000000000000000000000000000000000000000815260040160405180910390fd5b8173ffffffffffffffffffffffffffffffffffffffff1663a9059cbb33836040518363ffffffff1660e01b81526004016111eb929190613917565b6020604051808303816000875af115801561120a573d6000803e3d6000fd5b505050506040513d601f19601f8201168201806040525081019061122e9190613955565b505050565b61124561123e6116d9565b8383611f12565b5050565b611251611ced565b3073ffffffffffffffffffffffffffffffffffffffff16635c975abb6040518163ffffffff1660e01b8152600401602060405180830381865afa15801561129c573d6000803e3d6000fd5b505050506040513d601f19601f820116820180604052508101906112c09190613955565b156112ce576112cd61207e565b5b565b6112e16112db6116d9565b8361179a565b611320576040517f08c379a000000000000000000000000000000000000000000000000000000000815260040161131790613716565b60405180910390fd5b61132c848484846120e1565b50505050565b606061133d82611dce565b61137c576040517f08c379a000000000000000000000000000000000000000000000000000000000815260040161137390613eec565b60405180910390fd5b600e6113878361213d565b604051602001611398929190613fcb565b6040516020818303038152906040529050919050565b600f5481565b600e80546113c19061354f565b80601f01602080910402602001604051908101604052809291908181526020018280546113ed9061354f565b801561143a5780601f1061140f5761010080835404028352916020019161143a565b820191906000526020600020905b81548152906001019060200180831161141d57829003601f168201915b505050505081565b6000600560008473ffffffffffffffffffffffffffffffffffffffff1673ffffffffffffffffffffffffffffffffffffffff16815260200190815260200160002060008373ffffffffffffffffffffffffffffffffffffffff1673ffffffffffffffffffffffffffffffffffffffff16815260200190815260200160002060009054906101000a900460ff16905092915050565b6114de611ced565b600073ffffffffffffffffffffffffffffffffffffffff168173ffffffffffffffffffffffffffffffffffffffff160361154d576040517f08c379a000000000000000000000000000000000000000000000000000000000815260040161154490614061565b60405180910390fd5b61155681611e4c565b50565b611561611ced565b600073ffffffffffffffffffffffffffffffffffffffff168173ffffffffffffffffffffffffffffffffffffffff16036115d0576040517f08c379a00000000000000000000000000000000000000000000000000000000081526004016115c7906140cd565b60405180910390fd5b80600d60006101000a81548173ffffffffffffffffffffffffffffffffffffffff021916908373ffffffffffffffffffffffffffffffffffffffff16021790555050565b60007f780e9d63000000000000000000000000000000000000000000000000000000007bffffffffffffffffffffffffffffffffffffffffffffffffffffffff1916827bffffffffffffffffffffffffffffffffffffffffffffffffffffffff1916148061168757506116868261220b565b5b9050919050565b61169781611dce565b6116d6576040517f08c379a00000000000000000000000000000000000000000000000000000000081526004016116cd90613d16565b60405180910390fd5b50565b600033905090565b816004600083815260200190815260200160002060006101000a81548173ffffffffffffffffffffffffffffffffffffffff021916908373ffffffffffffffffffffffffffffffffffffffff160217905550808273ffffffffffffffffffffffffffffffffffffffff1661175483610dec565b73ffffffffffffffffffffffffffffffffffffffff167f8c5be1e5ebec7d5bd14f71427d1e84f3dd0314c0f7b2291e5b200ac8c7c3b92560405160405180910390a45050565b6000806117a683610dec565b90508073ffffffffffffffffffffffffffffffffffffffff168473ffffffffffffffffffffffffffffffffffffffff1614806117e857506117e78185611442565b5b8061182657508373ffffffffffffffffffffffffffffffffffffffff1661180e84610851565b73ffffffffffffffffffffffffffffffffffffffff16145b91505092915050565b8273ffffffffffffffffffffffffffffffffffffffff1661184f82610dec565b73ffffffffffffffffffffffffffffffffffffffff16146118a5576040517f08c379a000000000000000000000000000000000000000000000000000000000815260040161189c9061415f565b60405180910390fd5b600073ffffffffffffffffffffffffffffffffffffffff168273ffffffffffffffffffffffffffffffffffffffff1603611914576040517f08c379a000000000000000000000000000000000000000000000000000000000815260040161190b906141f1565b60405180910390fd5b61192183838360016122ed565b8273ffffffffffffffffffffffffffffffffffffffff1661194182610dec565b73ffffffffffffffffffffffffffffffffffffffff1614611997576040517f08c379a000000000000000000000000000000000000000000000000000000000815260040161198e9061415f565b60405180910390fd5b6004600082815260200190815260200160002060006101000a81549073ffffffffffffffffffffffffffffffffffffffff02191690556001600360008573ffffffffffffffffffffffffffffffffffffffff1673ffffffffffffffffffffffffffffffffffffffff168152602001908152602001600020600082825403925050819055506001600360008473ffffffffffffffffffffffffffffffffffffffff1673ffffffffffffffffffffffffffffffffffffffff16815260200190815260200160002060008282540192505081905550816002600083815260200190815260200160002060006101000a81548173ffffffffffffffffffffffffffffffffffffffff021916908373ffffffffffffffffffffffffffffffffffffffff160217905550808273ffffffffffffffffffffffffffffffffffffffff168473ffffffffffffffffffffffffffffffffffffffff167fddf252ad1be2c89b69c2b068fc378daa952ba7f163c4a11628f55a4df523b3ef60405160405180910390a4611b2383838360016122ff565b505050565b6002600c5403611b6d576040517f08c379a0000000000000000000000000000000000000000000000000000000008152600401611b649061425d565b60405180910390fd5b6002600c81905550565b611b91828260405180602001604052806000815250612305565b5050565b6001600c81905550565b6000611baa82610dec565b9050611bba8160008460016122ed565b611bc382610dec565b90506004600083815260200190815260200160002060006101000a81549073ffffffffffffffffffffffffffffffffffffffff02191690556001600360008373ffffffffffffffffffffffffffffffffffffffff1673ffffffffffffffffffffffffffffffffffffffff168152602001908152602001600020600082825403925050819055506002600083815260200190815260200160002060006101000a81549073ffffffffffffffffffffffffffffffffffffffff021916905581600073ffffffffffffffffffffffffffffffffffffffff168273ffffffffffffffffffffffffffffffffffffffff167fddf252ad1be2c89b69c2b068fc378daa952ba7f163c4a11628f55a4df523b3ef60405160405180910390a4611ce98160008460016122ff565b5050565b611cf56116d9565b73ffffffffffffffffffffffffffffffffffffffff16611d13611086565b73ffffffffffffffffffffffffffffffffffffffff1614611d69576040517f08c379a0000000000000000000000000000000000000000000000000000000008152600401611d60906142c9565b60405180910390fd5b565b611d73612360565b6001600660006101000a81548160ff0219169083151502179055507f62e78cea01bee320cd4e420270b5ea74000d11b0c9f74754ebdbfc544b05a258611db76116d9565b604051611dc49190613060565b60405180910390a1565b60008073ffffffffffffffffffffffffffffffffffffffff16611df083611e0f565b73ffffffffffffffffffffffffffffffffffffffff1614159050919050565b60006002600083815260200190815260200160002060009054906101000a900473ffffffffffffffffffffffffffffffffffffffff169050919050565b6000600b60009054906101000a900473ffffffffffffffffffffffffffffffffffffffff16905081600b60006101000a81548173ffffffffffffffffffffffffffffffffffffffff021916908373ffffffffffffffffffffffffffffffffffffffff1602179055508173ffffffffffffffffffffffffffffffffffffffff168173ffffffffffffffffffffffffffffffffffffffff167f8be0079c531659141344cd1fd0a4f28419497f9722a3daafe3b4186f6b6457e060405160405180910390a35050565b8173ffffffffffffffffffffffffffffffffffffffff168373ffffffffffffffffffffffffffffffffffffffff1603611f80576040517f08c379a0000000000000000000000000000000000000000000000000000000008152600401611f7790614335565b60405180910390fd5b80600560008573ffffffffffffffffffffffffffffffffffffffff1673ffffffffffffffffffffffffffffffffffffffff16815260200190815260200160002060008473ffffffffffffffffffffffffffffffffffffffff1673ffffffffffffffffffffffffffffffffffffffff16815260200190815260200160002060006101000a81548160ff0219169083151502179055508173ffffffffffffffffffffffffffffffffffffffff168373ffffffffffffffffffffffffffffffffffffffff167f17307eab39ab6107e8899845ad3d59bd9653f200f220920489ca2b5937696c31836040516120719190612eef565b60405180910390a3505050565b6120866123aa565b6000600660006101000a81548160ff0219169083151502179055507f5db9ee0a495bf2e6ff9c91a7834c1ba4fdd244a5e8aa4e537bd38aeae4b073aa6120ca6116d9565b6040516120d79190613060565b60405180910390a1565b6120ec84848461182f565b6120f8848484846123f3565b612137576040517f08c379a000000000000000000000000000000000000000000000000000000000815260040161212e906143c7565b60405180910390fd5b50505050565b60606000600161214c8461257a565b01905060008167ffffffffffffffff81111561216b5761216a613332565b5b6040519080825280601f01601f19166020018201604052801561219d5781602001600182028036833780820191505090505b509050600082602001820190505b600115612200578080600190039150507f3031323334353637383961626364656600000000000000000000000000000000600a86061a8153600a85816121f4576121f36143e7565b5b049450600085036121ab575b819350505050919050565b60007f80ac58cd000000000000000000000000000000000000000000000000000000007bffffffffffffffffffffffffffffffffffffffffffffffffffffffff1916827bffffffffffffffffffffffffffffffffffffffffffffffffffffffff191614806122d657507f5b5e139f000000000000000000000000000000000000000000000000000000007bffffffffffffffffffffffffffffffffffffffffffffffffffffffff1916827bffffffffffffffffffffffffffffffffffffffffffffffffffffffff1916145b806122e657506122e5826126cd565b5b9050919050565b6122f984848484612737565b50505050565b50505050565b61230f8383612895565b61231c60008484846123f3565b61235b576040517f08c379a0000000000000000000000000000000000000000000000000000000008152600401612352906143c7565b60405180910390fd5b505050565b612368610dd5565b156123a8576040517f08c379a000000000000000000000000000000000000000000000000000000000815260040161239f90614462565b60405180910390fd5b565b6123b2610dd5565b6123f1576040517f08c379a00000000000000000000000000000000000000000000000000000000081526004016123e8906144ce565b60405180910390fd5b565b60006124148473ffffffffffffffffffffffffffffffffffffffff16612ab2565b1561256d578373ffffffffffffffffffffffffffffffffffffffff1663150b7a0261243d6116d9565b8786866040518563ffffffff1660e01b815260040161245f9493929190614543565b6020604051808303816000875af192505050801561249b57506040513d601f19601f8201168201806040525081019061249891906145a4565b60015b61251d573d80600081146124cb576040519150601f19603f3d011682016040523d82523d6000602084013e6124d0565b606091505b506000815103612515576040517f08c379a000000000000000000000000000000000000000000000000000000000815260040161250c906143c7565b60405180910390fd5b805181602001fd5b63150b7a0260e01b7bffffffffffffffffffffffffffffffffffffffffffffffffffffffff1916817bffffffffffffffffffffffffffffffffffffffffffffffffffffffff191614915050612572565b600190505b949350505050565b600080600090507a184f03e93ff9f4daa797ed6e38ed64bf6a1f01000000000000000083106125d8577a184f03e93ff9f4daa797ed6e38ed64bf6a1f01000000000000000083816125ce576125cd6143e7565b5b0492506040810190505b6d04ee2d6d415b85acef81000000008310612615576d04ee2d6d415b85acef8100000000838161260b5761260a6143e7565b5b0492506020810190505b662386f26fc10000831061264457662386f26fc10000838161263a576126396143e7565b5b0492506010810190505b6305f5e100831061266d576305f5e1008381612663576126626143e7565b5b0492506008810190505b6127108310612692576127108381612688576126876143e7565b5b0492506004810190505b606483106126b557606483816126ab576126aa6143e7565b5b0492506002810190505b600a83106126c4576001810190505b80915050919050565b60007f01ffc9a7000000000000000000000000000000000000000000000000000000007bffffffffffffffffffffffffffffffffffffffffffffffffffffffff1916827bffffffffffffffffffffffffffffffffffffffffffffffffffffffff1916149050919050565b61274384848484612ad5565b6001811115612787576040517f08c379a000000000000000000000000000000000000000000000000000000000815260040161277e90614643565b60405180910390fd5b6000829050600073ffffffffffffffffffffffffffffffffffffffff168573ffffffffffffffffffffffffffffffffffffffff16036127ce576127c981612b2f565b61280d565b8373ffffffffffffffffffffffffffffffffffffffff168573ffffffffffffffffffffffffffffffffffffffff161461280c5761280b8582612b78565b5b5b600073ffffffffffffffffffffffffffffffffffffffff168473ffffffffffffffffffffffffffffffffffffffff160361284f5761284a81612ce5565b61288e565b8473ffffffffffffffffffffffffffffffffffffffff168473ffffffffffffffffffffffffffffffffffffffff161461288d5761288c8482612db6565b5b5b5050505050565b600073ffffffffffffffffffffffffffffffffffffffff168273ffffffffffffffffffffffffffffffffffffffff1603612904576040517f08c379a00000000000000000000000000000000000000000000000000000000081526004016128fb906146af565b60405180910390fd5b61290d81611dce565b1561294d576040517f08c379a00000000000000000000000000000000000000000000000000000000081526004016129449061471b565b60405180910390fd5b61295b6000838360016122ed565b61296481611dce565b156129a4576040517f08c379a000000000000000000000000000000000000000000000000000000000815260040161299b9061471b565b60405180910390fd5b6001600360008473ffffffffffffffffffffffffffffffffffffffff1673ffffffffffffffffffffffffffffffffffffffff16815260200190815260200160002060008282540192505081905550816002600083815260200190815260200160002060006101000a81548173ffffffffffffffffffffffffffffffffffffffff021916908373ffffffffffffffffffffffffffffffffffffffff160217905550808273ffffffffffffffffffffffffffffffffffffffff16600073ffffffffffffffffffffffffffffffffffffffff167fddf252ad1be2c89b69c2b068fc378daa952ba7f163c4a11628f55a4df523b3ef60405160405180910390a4612aae6000838360016122ff565b5050565b6000808273ffffffffffffffffffffffffffffffffffffffff163b119050919050565b612ae184848484612e35565b612ae9610dd5565b15612b29576040517f08c379a0000000000000000000000000000000000000000000000000000000008152600401612b20906147ad565b60405180910390fd5b50505050565b600980549050600a600083815260200190815260200160002081905550600981908060018154018082558091505060019003906000526020600020016000909190919091505550565b60006001612b8584610e72565b612b8f91906147cd565b9050600060086000848152602001908152602001600020549050818114612c74576000600760008673ffffffffffffffffffffffffffffffffffffffff1673ffffffffffffffffffffffffffffffffffffffff168152602001908152602001600020600084815260200190815260200160002054905080600760008773ffffffffffffffffffffffffffffffffffffffff1673ffffffffffffffffffffffffffffffffffffffff168152602001908152602001600020600084815260200190815260200160002081905550816008600083815260200190815260200160002081905550505b6008600084815260200190815260200160002060009055600760008573ffffffffffffffffffffffffffffffffffffffff1673ffffffffffffffffffffffffffffffffffffffff16815260200190815260200160002060008381526020019081526020016000206000905550505050565b60006001600980549050612cf991906147cd565b90506000600a6000848152602001908152602001600020549050600060098381548110612d2957612d28613a14565b5b906000526020600020015490508060098381548110612d4b57612d4a613a14565b5b906000526020600020018190555081600a600083815260200190815260200160002081905550600a6000858152602001908152602001600020600090556009805480612d9a57612d99614801565b5b6001900381819060005260206000200160009055905550505050565b6000612dc183610e72565b905081600760008573ffffffffffffffffffffffffffffffffffffffff1673ffffffffffffffffffffffffffffffffffffffff168152602001908152602001600020600083815260200190815260200160002081905550806008600084815260200190815260200160002081905550505050565b50505050565b6000604051905090565b600080fd5b600080fd5b60007fffffffff0000000000000000000000000000000000000000000000000000000082169050919050565b612e8481612e4f565b8114612e8f57600080fd5b50565b600081359050612ea181612e7b565b92915050565b600060208284031215612ebd57612ebc612e45565b5b6000612ecb84828501612e92565b91505092915050565b60008115159050919050565b612ee981612ed4565b82525050565b6000602082019050612f046000830184612ee0565b92915050565b600081519050919050565b600082825260208201905092915050565b60005b83811015612f44578082015181840152602081019050612f29565b60008484015250505050565b6000601f19601f8301169050919050565b6000612f6c82612f0a565b612f768185612f15565b9350612f86818560208601612f26565b612f8f81612f50565b840191505092915050565b60006020820190508181036000830152612fb48184612f61565b905092915050565b6000819050919050565b612fcf81612fbc565b8114612fda57600080fd5b50565b600081359050612fec81612fc6565b92915050565b60006020828403121561300857613007612e45565b5b600061301684828501612fdd565b91505092915050565b600073ffffffffffffffffffffffffffffffffffffffff82169050919050565b600061304a8261301f565b9050919050565b61305a8161303f565b82525050565b60006020820190506130756000830184613051565b92915050565b6130848161303f565b811461308f57600080fd5b50565b6000813590506130a18161307b565b92915050565b600080604083850312156130be576130bd612e45565b5b60006130cc85828601613092565b92505060206130dd85828601612fdd565b9150509250929050565b6130f081612fbc565b82525050565b600060208201905061310b60008301846130e7565b92915050565b60008060006060848603121561312a57613129612e45565b5b600061313886828701613092565b935050602061314986828701613092565b925050604061315a86828701612fdd565b9150509250925092565b600080fd5b600080fd5b600080fd5b60008083601f84011261318957613188613164565b5b8235905067ffffffffffffffff8111156131a6576131a5613169565b5b6020830191508360018202830111156131c2576131c161316e565b5b9250929050565b600080602083850312156131e0576131df612e45565b5b600083013567ffffffffffffffff8111156131fe576131fd612e4a565b5b61320a85828601613173565b92509250509250929050565b60006020828403121561322c5761322b612e45565b5b600061323a84828501613092565b91505092915050565b600061324e8261303f565b9050919050565b61325e81613243565b811461326957600080fd5b50565b60008135905061327b81613255565b92915050565b6000806040838503121561329857613297612e45565b5b60006132a68582860161326c565b92505060206132b785828601612fdd565b9150509250929050565b6132ca81612ed4565b81146132d557600080fd5b50565b6000813590506132e7816132c1565b92915050565b6000806040838503121561330457613303612e45565b5b600061331285828601613092565b9250506020613323858286016132d8565b9150509250929050565b600080fd5b7f4e487b7100000000000000000000000000000000000000000000000000000000600052604160045260246000fd5b61336a82612f50565b810181811067ffffffffffffffff8211171561338957613388613332565b5b80604052505050565b600061339c612e3b565b90506133a88282613361565b919050565b600067ffffffffffffffff8211156133c8576133c7613332565b5b6133d182612f50565b9050602081019050919050565b82818337600083830152505050565b60006134006133fb846133ad565b613392565b90508281526020810184848401111561341c5761341b61332d565b5b6134278482856133de565b509392505050565b600082601f83011261344457613443613164565b5b81356134548482602086016133ed565b91505092915050565b6000806000806080858703121561347757613476612e45565b5b600061348587828801613092565b945050602061349687828801613092565b93505060406134a787828801612fdd565b925050606085013567ffffffffffffffff8111156134c8576134c7612e4a565b5b6134d48782880161342f565b91505092959194509250565b600080604083850312156134f7576134f6612e45565b5b600061350585828601613092565b925050602061351685828601613092565b9150509250929050565b7f4e487b7100000000000000000000000000000000000000000000000000000000600052602260045260246000fd5b6000600282049050600182168061356757607f821691505b60208210810361357a57613579613520565b5b50919050565b7f4552433732313a20617070726f76616c20746f2063757272656e74206f776e6560008201527f7200000000000000000000000000000000000000000000000000000000000000602082015250565b60006135dc602183612f15565b91506135e782613580565b604082019050919050565b6000602082019050818103600083015261360b816135cf565b9050919050565b7f4552433732313a20617070726f76652063616c6c6572206973206e6f7420746f60008201527f6b656e206f776e6572206f7220617070726f76656420666f7220616c6c000000602082015250565b600061366e603d83612f15565b915061367982613612565b604082019050919050565b6000602082019050818103600083015261369d81613661565b9050919050565b7f4552433732313a2063616c6c6572206973206e6f7420746f6b656e206f776e6560008201527f72206f7220617070726f76656400000000000000000000000000000000000000602082015250565b6000613700602d83612f15565b915061370b826136a4565b604082019050919050565b6000602082019050818103600083015261372f816136f3565b9050919050565b7f455243373231456e756d657261626c653a206f776e657220696e646578206f7560008201527f74206f6620626f756e6473000000000000000000000000000000000000000000602082015250565b6000613792602b83612f15565b915061379d82613736565b604082019050919050565b600060208201905081810360008301526137c181613785565b9050919050565b7f4d696e74696e6720697320706175736564000000000000000000000000000000600082015250565b60006137fe601183612f15565b9150613809826137c8565b602082019050919050565b6000602082019050818103600083015261382d816137f1565b9050919050565b7f4d696e7465722061646472657373206973206e6f742076616c69640000000000600082015250565b600061386a601b83612f15565b915061387582613834565b602082019050919050565b600060208201905081810360008301526138998161385d565b9050919050565b7f4e487b7100000000000000000000000000000000000000000000000000000000600052601160045260246000fd5b60006138da82612fbc565b91507fffffffffffffffffffffffffffffffffffffffffffffffffffffffffffffffff820361390c5761390b6138a0565b5b600182019050919050565b600060408201905061392c6000830185613051565b61393960208301846130e7565b9392505050565b60008151905061394f816132c1565b92915050565b60006020828403121561396b5761396a612e45565b5b600061397984828501613940565b91505092915050565b7f455243373231456e756d657261626c653a20676c6f62616c20696e646578206f60008201527f7574206f6620626f756e64730000000000000000000000000000000000000000602082015250565b60006139de602c83612f15565b91506139e982613982565b604082019050919050565b60006020820190508181036000830152613a0d816139d1565b9050919050565b7f4e487b7100000000000000000000000000000000000000000000000000000000600052603260045260246000fd5b600082905092915050565b60008190508160005260206000209050919050565b60006020601f8301049050919050565b600082821b905092915050565b600060088302613ab07fffffffffffffffffffffffffffffffffffffffffffffffffffffffffffffffff82613a73565b613aba8683613a73565b95508019841693508086168417925050509392505050565b6000819050919050565b6000613af7613af2613aed84612fbc565b613ad2565b612fbc565b9050919050565b6000819050919050565b613b1183613adc565b613b25613b1d82613afe565b848454613a80565b825550505050565b600090565b613b3a613b2d565b613b45818484613b08565b505050565b5b81811015613b6957613b5e600082613b32565b600181019050613b4b565b5050565b601f821115613bae57613b7f81613a4e565b613b8884613a63565b81016020851015613b97578190505b613bab613ba385613a63565b830182613b4a565b50505b505050565b600082821c905092915050565b6000613bd160001984600802613bb3565b1980831691505092915050565b6000613bea8383613bc0565b9150826002028217905092915050565b613c048383613a43565b67ffffffffffffffff811115613c1d57613c1c613332565b5b613c27825461354f565b613c32828285613b6d565b6000601f831160018114613c615760008415613c4f578287013590505b613c598582613bde565b865550613cc1565b601f198416613c6f86613a4e565b60005b82811015613c9757848901358255600182019150602085019450602081019050613c72565b86831015613cb45784890135613cb0601f891682613bc0565b8355505b6001600288020188555050505b50505050505050565b7f4552433732313a20696e76616c696420746f6b656e2049440000000000000000600082015250565b6000613d00601883612f15565b9150613d0b82613cca565b602082019050919050565b60006020820190508181036000830152613d2f81613cf3565b9050919050565b7f4552433732313a2061646472657373207a65726f206973206e6f74206120766160008201527f6c6964206f776e65720000000000000000000000000000000000000000000000602082015250565b6000613d92602983612f15565b9150613d9d82613d36565b604082019050919050565b60006020820190508181036000830152613dc181613d85565b9050919050565b600081905092915050565b50565b6000613de3600083613dc8565b9150613dee82613dd3565b600082019050919050565b6000613e0482613dd6565b9150819050919050565b7f776974686472617720776173206e6f742073756363657366756c6c0000000000600082015250565b6000613e44601b83612f15565b9150613e4f82613e0e565b602082019050919050565b60006020820190508181036000830152613e7381613e37565b9050919050565b7f4552433732314d657461646174613a2055524920717565727920666f72206e6f60008201527f6e6578697374656e7420746f6b656e0000000000000000000000000000000000602082015250565b6000613ed6602f83612f15565b9150613ee182613e7a565b604082019050919050565b60006020820190508181036000830152613f0581613ec9565b9050919050565b600081905092915050565b60008154613f248161354f565b613f2e8186613f0c565b94506001821660008114613f495760018114613f5e57613f91565b60ff1983168652811515820286019350613f91565b613f6785613a4e565b60005b83811015613f8957815481890152600182019150602081019050613f6a565b838801955050505b50505092915050565b6000613fa582612f0a565b613faf8185613f0c565b9350613fbf818560208601612f26565b80840191505092915050565b6000613fd78285613f17565b9150613fe38284613f9a565b91508190509392505050565b7f4f776e61626c653a206e6577206f776e657220697320746865207a65726f206160008201527f6464726573730000000000000000000000000000000000000000000000000000602082015250565b600061404b602683612f15565b915061405682613fef565b604082019050919050565b6000602082019050818103600083015261407a8161403e565b9050919050565b7f496e76616c6964206d696e746572206164647265737300000000000000000000600082015250565b60006140b7601683612f15565b91506140c282614081565b602082019050919050565b600060208201905081810360008301526140e6816140aa565b9050919050565b7f4552433732313a207472616e736665722066726f6d20696e636f72726563742060008201527f6f776e6572000000000000000000000000000000000000000000000000000000602082015250565b6000614149602583612f15565b9150614154826140ed565b604082019050919050565b600060208201905081810360008301526141788161413c565b9050919050565b7f4552433732313a207472616e7366657220746f20746865207a65726f2061646460008201527f7265737300000000000000000000000000000000000000000000000000000000602082015250565b60006141db602483612f15565b91506141e68261417f565b604082019050919050565b6000602082019050818103600083015261420a816141ce565b9050919050565b7f5265656e7472616e637947756172643a207265656e7472616e742063616c6c00600082015250565b6000614247601f83612f15565b915061425282614211565b602082019050919050565b600060208201905081810360008301526142768161423a565b9050919050565b7f4f776e61626c653a2063616c6c6572206973206e6f7420746865206f776e6572600082015250565b60006142b3602083612f15565b91506142be8261427d565b602082019050919050565b600060208201905081810360008301526142e2816142a6565b9050919050565b7f4552433732313a20617070726f766520746f2063616c6c657200000000000000600082015250565b600061431f601983612f15565b915061432a826142e9565b602082019050919050565b6000602082019050818103600083015261434e81614312565b9050919050565b7f4552433732313a207472616e7366657220746f206e6f6e20455243373231526560008201527f63656976657220696d706c656d656e7465720000000000000000000000000000602082015250565b60006143b1603283612f15565b91506143bc82614355565b604082019050919050565b600060208201905081810360008301526143e0816143a4565b9050919050565b7f4e487b7100000000000000000000000000000000000000000000000000000000600052601260045260246000fd5b7f5061757361626c653a2070617573656400000000000000000000000000000000600082015250565b600061444c601083612f15565b915061445782614416565b602082019050919050565b6000602082019050818103600083015261447b8161443f565b9050919050565b7f5061757361626c653a206e6f7420706175736564000000000000000000000000600082015250565b60006144b8601483612f15565b91506144c382614482565b602082019050919050565b600060208201905081810360008301526144e7816144ab565b9050919050565b600081519050919050565b600082825260208201905092915050565b6000614515826144ee565b61451f81856144f9565b935061452f818560208601612f26565b61453881612f50565b840191505092915050565b60006080820190506145586000830187613051565b6145656020830186613051565b61457260408301856130e7565b8181036060830152614584818461450a565b905095945050505050565b60008151905061459e81612e7b565b92915050565b6000602082840312156145ba576145b9612e45565b5b60006145c88482850161458f565b91505092915050565b7f455243373231456e756d657261626c653a20636f6e736563757469766520747260008201527f616e7366657273206e6f7420737570706f727465640000000000000000000000602082015250565b600061462d603583612f15565b9150614638826145d1565b604082019050919050565b6000602082019050818103600083015261465c81614620565b9050919050565b7f4552433732313a206d696e7420746f20746865207a65726f2061646472657373600082015250565b6000614699602083612f15565b91506146a482614663565b602082019050919050565b600060208201905081810360008301526146c88161468c565b9050919050565b7f4552433732313a20746f6b656e20616c7265616479206d696e74656400000000600082015250565b6000614705601c83612f15565b9150614710826146cf565b602082019050919050565b60006020820190508181036000830152614734816146f8565b9050919050565b7f4552433732315061757361626c653a20746f6b656e207472616e73666572207760008201527f68696c6520706175736564000000000000000000000000000000000000000000602082015250565b6000614797602b83612f15565b91506147a28261473b565b604082019050919050565b600060208201905081810360008301526147c68161478a565b9050919050565b60006147d882612fbc565b91506147e383612fbc565b92508282039050818111156147fb576147fa6138a0565b5b92915050565b7f4e487b7100000000000000000000000000000000000000000000000000000000600052603160045260246000fdfea26469706673582212200ea480ec75737374b40f28a12e63d2256e6e44097e990365fd63bf90e608e61864736f6c63430008120033",
  "linkReferences": {},
  "deployedLinkReferences": {}
}