{
  "_format": "hh-sol-artifact-1",
  "contractName": "RuniverseItem",
  "sourceName": "contracts/RuniverseItem.sol",
  "abi": [
    {
      "inputs": [
        {
          "internalType": "address",
          "name": "_signer",
          "type": "address"
        },
        {
          "internalType": "string",
          "name": "_baseURI",
          "type": "string"
        }
      ],
      "stateMutability": "nonpayable",
      "type": "constructor"
    },
    {
      "anonymous": false,
      "inputs": [
        {
          "indexed": true,
          "internalType": "address",
          "name": "owner",
          "type": "address"
        },
        {
          "indexed": true,
          "internalType": "address",
          "name": "approved",
          "type": "address"
        },
        {
          "indexed": true,
          "internalType": "uint256",
          "name": "tokenId",
          "type": "uint256"
        }
      ],
      "name": "Approval",
      "type": "event"
    },
    {
      "anonymous": false,
      "inputs": [
        {
          "indexed": true,
          "internalType": "address",
          "name": "owner",
          "type": "address"
        },
        {
          "indexed": true,
          "internalType": "address",
          "name": "operator",
          "type": "address"
        },
        {
          "indexed": false,
          "internalType": "bool",
          "name": "approved",
          "type": "bool"
        }
      ],
      "name": "ApprovalForAll",
      "type": "event"
    },
    {
      "anonymous": false,
      "inputs": [
        {
          "indexed": true,
          "internalType": "address",
          "name": "previousOwner",
          "type": "address"
        },
        {
          "indexed": true,
          "internalType": "address",
          "name": "newOwner",
          "type": "address"
        }
      ],
      "name": "OwnershipTransferred",
      "type": "event"
    },
    {
      "anonymous": false,
      "inputs": [
        {
          "indexed": true,
          "internalType": "address",
          "name": "from",
          "type": "address"
        },
        {
          "indexed": true,
          "internalType": "address",
          "name": "to",
          "type": "address"
        },
        {
          "indexed": true,
          "internalType": "uint256",
          "name": "tokenId",
          "type": "uint256"
        }
      ],
      "name": "Transfer",
      "type": "event"
    },
    {
      "inputs": [
        {
          "internalType": "address",
          "name": "to",
          "type": "address"
        },
        {
          "internalType": "uint256",
          "name": "tokenId",
          "type": "uint256"
        }
      ],
      "name": "approve",
      "outputs": [],
      "stateMutability": "nonpayable",
      "type": "function"
    },
    {
      "inputs": [
        {
          "internalType": "address",
          "name": "owner",
          "type": "address"
        }
      ],
      "name": "balanceOf",
      "outputs": [
        {
          "internalType": "uint256",
          "name": "",
          "type": "uint256"
        }
      ],
      "stateMutability": "view",
      "type": "function"
    },
    {
      "inputs": [],
      "name": "baseTokenURI",
      "outputs": [
        {
          "internalType": "string",
          "name": "",
          "type": "string"
        }
      ],
      "stateMutability": "view",
      "type": "function"
    },
    {
      "inputs": [
        {
          "internalType": "uint256",
          "name": "tokenId",
          "type": "uint256"
        }
      ],
      "name": "getApproved",
      "outputs": [
        {
          "internalType": "address",
          "name": "",
          "type": "address"
        }
      ],
      "stateMutability": "view",
      "type": "function"
    },
    {
      "inputs": [],
      "name": "getBaseURI",
      "outputs": [
        {
          "internalType": "string",
          "name": "",
          "type": "string"
        }
      ],
      "stateMutability": "view",
      "type": "function"
    },
    {
      "inputs": [
        {
          "internalType": "bytes32",
          "name": "_messageHash",
          "type": "bytes32"
        }
      ],
      "name": "getEthSignedMessageHash",
      "outputs": [
        {
          "internalType": "bytes32",
          "name": "",
          "type": "bytes32"
        }
      ],
      "stateMutability": "pure",
      "type": "function"
    },
    {
      "inputs": [
        {
          "internalType": "string",
          "name": "_message",
          "type": "string"
        }
      ],
      "name": "getMessageHash",
      "outputs": [
        {
          "internalType": "bytes32",
          "name": "",
          "type": "bytes32"
        }
      ],
      "stateMutability": "pure",
      "type": "function"
    },
    {
      "inputs": [],
      "name": "getSigner",
      "outputs": [
        {
          "internalType": "address",
          "name": "",
          "type": "address"
        }
      ],
      "stateMutability": "view",
      "type": "function"
    },
    {
      "inputs": [
        {
          "internalType": "address",
          "name": "owner",
          "type": "address"
        },
        {
          "internalType": "address",
          "name": "operator",
          "type": "address"
        }
      ],
      "name": "isApprovedForAll",
      "outputs": [
        {
          "internalType": "bool",
          "name": "",
          "type": "bool"
        }
      ],
      "stateMutability": "view",
      "type": "function"
    },
    {
      "inputs": [],
      "name": "name",
      "outputs": [
        {
          "internalType": "string",
          "name": "",
          "type": "string"
        }
      ],
      "stateMutability": "view",
      "type": "function"
    },
    {
      "inputs": [],
      "name": "owner",
      "outputs": [
        {
          "internalType": "address",
          "name": "",
          "type": "address"
        }
      ],
      "stateMutability": "view",
      "type": "function"
    },
    {
      "inputs": [
        {
          "internalType": "uint256[]",
          "name": "tokenIds",
          "type": "uint256[]"
        },
        {
          "internalType": "address[]",
          "name": "recipients",
          "type": "address[]"
        }
      ],
      "name": "ownerMint",
      "outputs": [],
      "stateMutability": "nonpayable",
      "type": "function"
    },
    {
      "inputs": [
        {
          "internalType": "uint256",
          "name": "tokenId",
          "type": "uint256"
        }
      ],
      "name": "ownerOf",
      "outputs": [
        {
          "internalType": "address",
          "name": "",
          "type": "address"
        }
      ],
      "stateMutability": "view",
      "type": "function"
    },
    {
      "inputs": [],
      "name": "renounceOwnership",
      "outputs": [],
      "stateMutability": "nonpayable",
      "type": "function"
    },
    {
      "inputs": [
        {
          "internalType": "address",
          "name": "from",
          "type": "address"
        },
        {
          "internalType": "address",
          "name": "to",
          "type": "address"
        },
        {
          "internalType": "uint256",
          "name": "tokenId",
          "type": "uint256"
        }
      ],
      "name": "safeTransferFrom",
      "outputs": [],
      "stateMutability": "nonpayable",
      "type": "function"
    },
    {
      "inputs": [
        {
          "internalType": "address",
          "name": "from",
          "type": "address"
        },
        {
          "internalType": "address",
          "name": "to",
          "type": "address"
        },
        {
          "internalType": "uint256",
          "name": "tokenId",
          "type": "uint256"
        },
        {
          "internalType": "bytes",
          "name": "data",
          "type": "bytes"
        }
      ],
      "name": "safeTransferFrom",
      "outputs": [],
      "stateMutability": "nonpayable",
      "type": "function"
    },
    {
      "inputs": [
        {
          "internalType": "address",
          "name": "operator",
          "type": "address"
        },
        {
          "internalType": "bool",
          "name": "approved",
          "type": "bool"
        }
      ],
      "name": "setApprovalForAll",
      "outputs": [],
      "stateMutability": "nonpayable",
      "type": "function"
    },
    {
      "inputs": [
        {
          "internalType": "string",
          "name": "newBaseURI",
          "type": "string"
        }
      ],
      "name": "setBaseURI",
      "outputs": [],
      "stateMutability": "nonpayable",
      "type": "function"
    },
    {
      "inputs": [
        {
          "internalType": "address",
          "name": "_signer",
          "type": "address"
        }
      ],
      "name": "setSigner",
      "outputs": [],
      "stateMutability": "nonpayable",
      "type": "function"
    },
    {
      "inputs": [],
      "name": "signer",
      "outputs": [
        {
          "internalType": "address",
          "name": "",
          "type": "address"
        }
      ],
      "stateMutability": "view",
      "type": "function"
    },
    {
      "inputs": [
        {
          "internalType": "bytes4",
          "name": "interfaceId",
          "type": "bytes4"
        }
      ],
      "name": "supportsInterface",
      "outputs": [
        {
          "internalType": "bool",
          "name": "",
          "type": "bool"
        }
      ],
      "stateMutability": "view",
      "type": "function"
    },
    {
      "inputs": [],
      "name": "symbol",
      "outputs": [
        {
          "internalType": "string",
          "name": "",
          "type": "string"
        }
      ],
      "stateMutability": "view",
      "type": "function"
    },
    {
      "inputs": [
        {
          "internalType": "uint256",
          "name": "tokenId",
          "type": "uint256"
        }
      ],
      "name": "tokenURI",
      "outputs": [
        {
          "internalType": "string",
          "name": "",
          "type": "string"
        }
      ],
      "stateMutability": "view",
      "type": "function"
    },
    {
      "inputs": [
        {
          "internalType": "address",
          "name": "from",
          "type": "address"
        },
        {
          "internalType": "address",
          "name": "to",
          "type": "address"
        },
        {
          "internalType": "uint256",
          "name": "tokenId",
          "type": "uint256"
        }
      ],
      "name": "transferFrom",
      "outputs": [],
      "stateMutability": "nonpayable",
      "type": "function"
    },
    {
      "inputs": [
        {
          "internalType": "address",
          "name": "newOwner",
          "type": "address"
        }
      ],
      "name": "transferOwnership",
      "outputs": [],
      "stateMutability": "nonpayable",
      "type": "function"
    },
    {
      "inputs": [
        {
          "internalType": "address",
          "name": "_signer",
          "type": "address"
        },
        {
          "internalType": "string",
          "name": "_message",
          "type": "string"
        },
        {
          "internalType": "bytes",
          "name": "_signature",
          "type": "bytes"
        }
      ],
      "name": "verify",
      "outputs": [
        {
          "internalType": "bool",
          "name": "",
          "type": "bool"
        }
      ],
      "stateMutability": "pure",
      "type": "function"
    },
    {
      "inputs": [
        {
          "internalType": "string",
          "name": "_message",
          "type": "string"
        },
        {
          "internalType": "string",
          "name": "_messageHash",
          "type": "string"
        },
        {
          "internalType": "bytes",
          "name": "_signature",
          "type": "bytes"
        },
        {
          "internalType": "uint256",
          "name": "tokenId",
          "type": "uint256"
        }
      ],
      "name": "verifyAndMint",
      "outputs": [],
      "stateMutability": "nonpayable",
      "type": "function"
    }
  ],
  "bytecode": "0x60806040523480156200001157600080fd5b5060405162004da538038062004da5833981810160405281019062000037919062000461565b6040518060400160405280600d81526020017f52756e6976657273654974656d000000000000000000000000000000000000008152506040518060400160405280600481526020017f5249544d000000000000000000000000000000000000000000000000000000008152508160009081620000b4919062000712565b508060019081620000c6919062000712565b505050620000e9620000dd6200019860201b60201c565b620001a060201b60201c565b620001056776cbd2e6b5a00bf860c01b6200026660201b60201c565b620001216783d3b980e70a340560c01b6200026660201b60201c565b81600760006101000a81548173ffffffffffffffffffffffffffffffffffffffff021916908373ffffffffffffffffffffffffffffffffffffffff1602179055506200017e67ff57b482b22f081960c01b6200026660201b60201c565b80600890816200018f919062000712565b505050620007f9565b600033905090565b6000600660009054906101000a900473ffffffffffffffffffffffffffffffffffffffff16905081600660006101000a81548173ffffffffffffffffffffffffffffffffffffffff021916908373ffffffffffffffffffffffffffffffffffffffff1602179055508173ffffffffffffffffffffffffffffffffffffffff168173ffffffffffffffffffffffffffffffffffffffff167f8be0079c531659141344cd1fd0a4f28419497f9722a3daafe3b4186f6b6457e060405160405180910390a35050565b50565b6000604051905090565b600080fd5b600080fd5b600073ffffffffffffffffffffffffffffffffffffffff82169050919050565b6000620002aa826200027d565b9050919050565b620002bc816200029d565b8114620002c857600080fd5b50565b600081519050620002dc81620002b1565b92915050565b600080fd5b600080fd5b6000601f19601f8301169050919050565b7f4e487b7100000000000000000000000000000000000000000000000000000000600052604160045260246000fd5b6200033782620002ec565b810181811067ffffffffffffffff82111715620003595762000358620002fd565b5b80604052505050565b60006200036e62000269565b90506200037c82826200032c565b919050565b600067ffffffffffffffff8211156200039f576200039e620002fd565b5b620003aa82620002ec565b9050602081019050919050565b60005b83811015620003d7578082015181840152602081019050620003ba565b60008484015250505050565b6000620003fa620003f48462000381565b62000362565b905082815260208101848484011115620004195762000418620002e7565b5b62000426848285620003b7565b509392505050565b600082601f830112620004465762000445620002e2565b5b815162000458848260208601620003e3565b91505092915050565b600080604083850312156200047b576200047a62000273565b5b60006200048b85828601620002cb565b925050602083015167ffffffffffffffff811115620004af57620004ae62000278565b5b620004bd858286016200042e565b9150509250929050565b600081519050919050565b7f4e487b7100000000000000000000000000000000000000000000000000000000600052602260045260246000fd5b600060028204905060018216806200051a57607f821691505b60208210810362000530576200052f620004d2565b5b50919050565b60008190508160005260206000209050919050565b60006020601f8301049050919050565b600082821b905092915050565b6000600883026200059a7fffffffffffffffffffffffffffffffffffffffffffffffffffffffffffffffff826200055b565b620005a686836200055b565b95508019841693508086168417925050509392505050565b6000819050919050565b6000819050919050565b6000620005f3620005ed620005e784620005be565b620005c8565b620005be565b9050919050565b6000819050919050565b6200060f83620005d2565b620006276200061e82620005fa565b84845462000568565b825550505050565b600090565b6200063e6200062f565b6200064b81848462000604565b505050565b5b8181101562000673576200066760008262000634565b60018101905062000651565b5050565b601f821115620006c2576200068c8162000536565b62000697846200054b565b81016020851015620006a7578190505b620006bf620006b6856200054b565b83018262000650565b50505b505050565b600082821c905092915050565b6000620006e760001984600802620006c7565b1980831691505092915050565b6000620007028383620006d4565b9150826002028217905092915050565b6200071d82620004c7565b67ffffffffffffffff811115620007395762000738620002fd565b5b62000745825462000501565b6200075282828562000677565b600060209050601f8311600181146200078a576000841562000775578287015190505b620007818582620006f4565b865550620007f1565b601f1984166200079a8662000536565b60005b82811015620007c4578489015182556001820191506020850194506020810190506200079d565b86831015620007e45784890151620007e0601f891682620006d4565b8355505b6001600288020188555050505b505050505050565b61459c80620008096000396000f3fe608060405234801561001057600080fd5b50600436106101a95760003560e01c8063714c5398116100f9578063b446f3b211610097578063d547cfb711610071578063d547cfb7146104b8578063e985e9c5146104d6578063f2fde38b14610506578063fa54080114610522576101a9565b8063b446f3b21461043c578063b88d4fde1461046c578063c87b56dd14610488576101a9565b80638da5cb5b116100d35780638da5cb5b146103c857806395d89b41146103e6578063a22cb46514610404578063af633a7214610420576101a9565b8063714c539814610382578063715018a6146103a05780637ac3c02f146103aa576101a9565b80632dd34f0f116101665780636352211e116101405780636352211e146102ea5780636c19e7831461031a5780636e9849dd1461033657806370a0823114610352576101a9565b80632dd34f0f1461028257806342842e0e146102b257806355f804b3146102ce576101a9565b806301ffc9a7146101ae57806306fdde03146101de578063081812fc146101fc578063095ea7b31461022c578063238ac9331461024857806323b872dd14610266575b600080fd5b6101c860048036038101906101c39190612a74565b610552565b6040516101d59190612abc565b60405180910390f35b6101e6610634565b6040516101f39190612b67565b60405180910390f35b61021660048036038101906102119190612bbf565b6106c6565b6040516102239190612c2d565b60405180910390f35b61024660048036038101906102419190612c74565b61070c565b005b610250610823565b60405161025d9190612c2d565b60405180910390f35b610280600480360381019061027b9190612cb4565b610849565b005b61029c60048036038101906102979190612edd565b6108a9565b6040516102a99190612abc565b60405180910390f35b6102cc60048036038101906102c79190612cb4565b610994565b005b6102e860048036038101906102e39190612fc8565b6109b4565b005b61030460048036038101906102ff9190612bbf565b610a22565b6040516103119190612c2d565b60405180910390f35b610334600480360381019061032f9190613015565b610aa8565b005b610350600480360381019061034b91906130ee565b610b44565b005b61036c60048036038101906103679190613015565b610ce0565b604051610379919061317e565b60405180910390f35b61038a610d97565b6040516103979190612b67565b60405180910390f35b6103a8610e65565b005b6103b2610e79565b6040516103bf9190612c2d565b60405180910390f35b6103d0610edf565b6040516103dd9190612c2d565b60405180910390f35b6103ee610f09565b6040516103fb9190612b67565b60405180910390f35b61041e600480360381019061041991906131c5565b610f9b565b005b61043a60048036038101906104359190613205565b610fb1565b005b610456600480360381019061045191906132c0565b611282565b6040516104639190613322565b60405180910390f35b6104866004803603810190610481919061333d565b6112ed565b005b6104a2600480360381019061049d9190612bbf565b61134f565b6040516104af9190612b67565b60405180910390f35b6104c0611457565b6040516104cd9190612b67565b60405180910390f35b6104f060048036038101906104eb91906133c0565b6114e5565b6040516104fd9190612abc565b60405180910390f35b610520600480360381019061051b9190613015565b611579565b005b61053c6004803603810190610537919061342c565b6115fc565b6040516105499190613322565b60405180910390f35b60007f80ac58cd000000000000000000000000000000000000000000000000000000007bffffffffffffffffffffffffffffffffffffffffffffffffffffffff1916827bffffffffffffffffffffffffffffffffffffffffffffffffffffffff1916148061061d57507f5b5e139f000000000000000000000000000000000000000000000000000000007bffffffffffffffffffffffffffffffffffffffffffffffffffffffff1916827bffffffffffffffffffffffffffffffffffffffffffffffffffffffff1916145b8061062d575061062c82611668565b5b9050919050565b60606000805461064390613488565b80601f016020809104026020016040519081016040528092919081815260200182805461066f90613488565b80156106bc5780601f10610691576101008083540402835291602001916106bc565b820191906000526020600020905b81548152906001019060200180831161069f57829003601f168201915b5050505050905090565b60006106d1826116d2565b6004600083815260200190815260200160002060009054906101000a900473ffffffffffffffffffffffffffffffffffffffff169050919050565b600061071782610a22565b90508073ffffffffffffffffffffffffffffffffffffffff168373ffffffffffffffffffffffffffffffffffffffff1603610787576040517f08c379a000000000000000000000000000000000000000000000000000000000815260040161077e9061352b565b60405180910390fd5b8073ffffffffffffffffffffffffffffffffffffffff166107a661171d565b73ffffffffffffffffffffffffffffffffffffffff1614806107d557506107d4816107cf61171d565b6114e5565b5b610814576040517f08c379a000000000000000000000000000000000000000000000000000000000815260040161080b906135bd565b60405180910390fd5b61081e8383611725565b505050565b600760009054906101000a900473ffffffffffffffffffffffffffffffffffffffff1681565b61085a61085461171d565b826117de565b610899576040517f08c379a00000000000000000000000000000000000000000000000000000000081526004016108909061364f565b60405180910390fd5b6108a4838383611873565b505050565b60006108bf67e63c9ddacb1c74fa60c01b611b6c565b6108d367faec4321ebcaf4c060c01b611b6c565b6108e7677d6b1a3699cea96f60c01b611b6c565b60006108f284611282565b9050610908670a4aa5d125e3435560c01b611b6c565b61091c673139f79ae6bb586a60c01b611b6c565b6000610927826115fc565b905061093d67f5bce65635962f7f60c01b611b6c565b61095167f4f04c1d01e5c2c960c01b611b6c565b8573ffffffffffffffffffffffffffffffffffffffff166109728286611b6f565b73ffffffffffffffffffffffffffffffffffffffff1614925050509392505050565b6109af838383604051806020016040528060008152506112ed565b505050565b6109c867a4de76a321e34d6760c01b611b6c565b6109d0611c43565b6109e467d67a8f09c0544aa260c01b611b6c565b6109f8672819d847b0e7ceee60c01b611b6c565b610a0c6732d61ae3e9e3b5d660c01b611b6c565b818160089182610a1d929190613826565b505050565b600080610a2e83611cc1565b9050600073ffffffffffffffffffffffffffffffffffffffff168173ffffffffffffffffffffffffffffffffffffffff1603610a9f576040517f08c379a0000000000000000000000000000000000000000000000000000000008152600401610a9690613942565b60405180910390fd5b80915050919050565b610abc67f4b0caaee14069ac60c01b611b6c565b610ac4611c43565b610ad8673b7a17279e93b2dc60c01b611b6c565b610aec67f432091d249b6c8060c01b611b6c565b610b00676fe07f180e78122560c01b611b6c565b80600760006101000a81548173ffffffffffffffffffffffffffffffffffffffff021916908373ffffffffffffffffffffffffffffffffffffffff16021790555050565b610b5867225082bd0b41c92260c01b611b6c565b610b60611c43565b610b746778ca04ace5f56a5660c01b611b6c565b610b8867fa642f72e2822dca60c01b611b6c565b610b9c677fd7575c94bab2d060c01b611b6c565b610bb0676661cecba992391260c01b611b6c565b610bc46771edb029fdbcdc2560c01b611b6c565b818190508484905014610c0c576040517f08c379a0000000000000000000000000000000000000000000000000000000008152600401610c03906139ae565b60405180910390fd5b610c206772bd2ce78abae20b60c01b611b6c565b610c346731d112f6a04f77a760c01b611b6c565b610c48673b109d9b1446b9be60c01b611b6c565b60005b82829050811015610cd957610c6a6786a0e815dc394fd060c01b611b6c565b610c7e67082319aa2a4d0fa860c01b611b6c565b610cc8838383818110610c9457610c936139ce565b5b9050602002016020810190610ca99190613015565b868684818110610cbc57610cbb6139ce565b5b90506020020135611cfe565b80610cd290613a2c565b9050610c4b565b5050505050565b60008073ffffffffffffffffffffffffffffffffffffffff168273ffffffffffffffffffffffffffffffffffffffff1603610d50576040517f08c379a0000000000000000000000000000000000000000000000000000000008152600401610d4790613ae6565b60405180910390fd5b600360008373ffffffffffffffffffffffffffffffffffffffff1673ffffffffffffffffffffffffffffffffffffffff168152602001908152602001600020549050919050565b6060610dad67a9690b24edbadb2260c01b611b6c565b610dc167573ad7445a4ac6b960c01b611b6c565b610dd56731010e0f3f2237ab60c01b611b6c565b60088054610de290613488565b80601f0160208091040260200160405190810160405280929190818152602001828054610e0e90613488565b8015610e5b5780601f10610e3057610100808354040283529160200191610e5b565b820191906000526020600020905b815481529060010190602001808311610e3e57829003601f168201915b5050505050905090565b610e6d611c43565b610e776000611d1c565b565b6000610e8f6780e276e616c9de9560c01b611b6c565b610ea367e0d46ea291cbbd1f60c01b611b6c565b610eb767f1e8f16232f5d91760c01b611b6c565b600760009054906101000a900473ffffffffffffffffffffffffffffffffffffffff16905090565b6000600660009054906101000a900473ffffffffffffffffffffffffffffffffffffffff16905090565b606060018054610f1890613488565b80601f0160208091040260200160405190810160405280929190818152602001828054610f4490613488565b8015610f915780601f10610f6657610100808354040283529160200191610f91565b820191906000526020600020905b815481529060010190602001808311610f7457829003601f168201915b5050505050905090565b610fad610fa661171d565b8383611de2565b5050565b610fc567706a652a54c88f9160c01b611b6c565b610fd9670e1f315f9fb2acfb60c01b611b6c565b610fed67fec1a2f08c03ad2c60c01b611b6c565b6000610ff885611f4e565b905061100e673f0ee9238c27fe8860c01b611b6c565b6110226764ef6088a57f520460c01b611b6c565b60006110328260001c6020612000565b9050611048677e9a32e742516f5960c01b611b6c565b61105c67a2356950ab2fe5fc60c01b611b6c565b611070675a6bffbaece5cafb60c01b611b6c565b846040516020016110819190613b42565b60405160208183030381529060405280519060200120816040516020016110a89190613b42565b60405160208183030381529060405280519060200120146110fe576040517f08c379a00000000000000000000000000000000000000000000000000000000081526004016110f590613ba5565b60405180910390fd5b611112674e2a91e89dd5552860c01b611b6c565b61112667bf10f753e01247b660c01b611b6c565b61113a679503977ff0494c0260c01b611b6c565b61114e67eeedbdb771801d9d60c01b611b6c565b600115153073ffffffffffffffffffffffffffffffffffffffff16632dd34f0f600760009054906101000a900473ffffffffffffffffffffffffffffffffffffffff1689886040518463ffffffff1660e01b81526004016111b193929190613c1a565b602060405180830381865afa1580156111ce573d6000803e3d6000fd5b505050506040513d601f19601f820116820180604052508101906111f29190613c74565b151514611234576040517f08c379a000000000000000000000000000000000000000000000000000000000815260040161122b90613ced565b60405180910390fd5b6112486735ea158c351aa91f60c01b611b6c565b61125c67e4ca9acf6e8aae4f60c01b611b6c565b61127067ff61f49c8daee30460c01b611b6c565b61127a3384611cfe565b505050505050565b60006112986788bb0c7a9240eb8f60c01b611b6c565b6112ac67af4d2fd5cb83771d60c01b611b6c565b6112bf6634c22dfd99817f60c01b611b6c565b816040516020016112d09190613b42565b604051602081830303815290604052805190602001209050919050565b6112fe6112f861171d565b836117de565b61133d576040517f08c379a00000000000000000000000000000000000000000000000000000000081526004016113349061364f565b60405180910390fd5b6113498484848461223c565b50505050565b606061136567872ee9655f85c0e860c01b611b6c565b611379670f3e8474f54041e160c01b611b6c565b61138d673032024355d2962360c01b611b6c565b6113a16745ccea3d49d6d96160c01b611b6c565b6113aa82612298565b6113e9576040517f08c379a00000000000000000000000000000000000000000000000000000000081526004016113e090613d7f565b60405180910390fd5b6113fd67bef3fd7412932ea460c01b611b6c565b61141167349048ceba2729ac60c01b611b6c565b611425676f0289823e72e07f60c01b611b6c565b6008611430836122d9565b604051602001611441929190613e22565b6040516020818303038152906040529050919050565b6008805461146490613488565b80601f016020809104026020016040519081016040528092919081815260200182805461149090613488565b80156114dd5780601f106114b2576101008083540402835291602001916114dd565b820191906000526020600020905b8154815290600101906020018083116114c057829003601f168201915b505050505081565b6000600560008473ffffffffffffffffffffffffffffffffffffffff1673ffffffffffffffffffffffffffffffffffffffff16815260200190815260200160002060008373ffffffffffffffffffffffffffffffffffffffff1673ffffffffffffffffffffffffffffffffffffffff16815260200190815260200160002060009054906101000a900460ff16905092915050565b611581611c43565b600073ffffffffffffffffffffffffffffffffffffffff168173ffffffffffffffffffffffffffffffffffffffff16036115f0576040517f08c379a00000000000000000000000000000000000000000000000000000000081526004016115e790613eb8565b60405180910390fd5b6115f981611d1c565b50565b6000611612678064eb596a5289e060c01b611b6c565b61162667f24651b2bcdd2a3560c01b611b6c565b61163a674980e914efc1276460c01b611b6c565b8160405160200161164b9190613f45565b604051602081830303815290604052805190602001209050919050565b60007f01ffc9a7000000000000000000000000000000000000000000000000000000007bffffffffffffffffffffffffffffffffffffffffffffffffffffffff1916827bffffffffffffffffffffffffffffffffffffffffffffffffffffffff1916149050919050565b6116db81612298565b61171a576040517f08c379a000000000000000000000000000000000000000000000000000000000815260040161171190613942565b60405180910390fd5b50565b600033905090565b816004600083815260200190815260200160002060006101000a81548173ffffffffffffffffffffffffffffffffffffffff021916908373ffffffffffffffffffffffffffffffffffffffff160217905550808273ffffffffffffffffffffffffffffffffffffffff1661179883610a22565b73ffffffffffffffffffffffffffffffffffffffff167f8c5be1e5ebec7d5bd14f71427d1e84f3dd0314c0f7b2291e5b200ac8c7c3b92560405160405180910390a45050565b6000806117ea83610a22565b90508073ffffffffffffffffffffffffffffffffffffffff168473ffffffffffffffffffffffffffffffffffffffff16148061182c575061182b81856114e5565b5b8061186a57508373ffffffffffffffffffffffffffffffffffffffff16611852846106c6565b73ffffffffffffffffffffffffffffffffffffffff16145b91505092915050565b8273ffffffffffffffffffffffffffffffffffffffff1661189382610a22565b73ffffffffffffffffffffffffffffffffffffffff16146118e9576040517f08c379a00000000000000000000000000000000000000000000000000000000081526004016118e090613fdd565b60405180910390fd5b600073ffffffffffffffffffffffffffffffffffffffff168273ffffffffffffffffffffffffffffffffffffffff1603611958576040517f08c379a000000000000000000000000000000000000000000000000000000000815260040161194f9061406f565b60405180910390fd5b61196583838360016123a7565b8273ffffffffffffffffffffffffffffffffffffffff1661198582610a22565b73ffffffffffffffffffffffffffffffffffffffff16146119db576040517f08c379a00000000000000000000000000000000000000000000000000000000081526004016119d290613fdd565b60405180910390fd5b6004600082815260200190815260200160002060006101000a81549073ffffffffffffffffffffffffffffffffffffffff02191690556001600360008573ffffffffffffffffffffffffffffffffffffffff1673ffffffffffffffffffffffffffffffffffffffff168152602001908152602001600020600082825403925050819055506001600360008473ffffffffffffffffffffffffffffffffffffffff1673ffffffffffffffffffffffffffffffffffffffff16815260200190815260200160002060008282540192505081905550816002600083815260200190815260200160002060006101000a81548173ffffffffffffffffffffffffffffffffffffffff021916908373ffffffffffffffffffffffffffffffffffffffff160217905550808273ffffffffffffffffffffffffffffffffffffffff168473ffffffffffffffffffffffffffffffffffffffff167fddf252ad1be2c89b69c2b068fc378daa952ba7f163c4a11628f55a4df523b3ef60405160405180910390a4611b6783838360016123ad565b505050565b50565b6000611b85678f6facd9e7580b2a60c01b611b6c565b611b996731f20ce25863b67960c01b611b6c565b611bad67f0ec8e78f65f040760c01b611b6c565b6000806000611bbb856123b3565b925092509250611bd56710c831df0bf3b2c560c01b611b6c565b611be9672ad170c71015b2c060c01b611b6c565b60018682858560405160008152602001604052604051611c0c94939291906140ab565b6020604051602081039080840390855afa158015611c2e573d6000803e3d6000fd5b50505060206040510351935050505092915050565b611c4b61171d565b73ffffffffffffffffffffffffffffffffffffffff16611c69610edf565b73ffffffffffffffffffffffffffffffffffffffff1614611cbf576040517f08c379a0000000000000000000000000000000000000000000000000000000008152600401611cb69061413c565b60405180910390fd5b565b60006002600083815260200190815260200160002060009054906101000a900473ffffffffffffffffffffffffffffffffffffffff169050919050565b611d18828260405180602001604052806000815250612493565b5050565b6000600660009054906101000a900473ffffffffffffffffffffffffffffffffffffffff16905081600660006101000a81548173ffffffffffffffffffffffffffffffffffffffff021916908373ffffffffffffffffffffffffffffffffffffffff1602179055508173ffffffffffffffffffffffffffffffffffffffff168173ffffffffffffffffffffffffffffffffffffffff167f8be0079c531659141344cd1fd0a4f28419497f9722a3daafe3b4186f6b6457e060405160405180910390a35050565b8173ffffffffffffffffffffffffffffffffffffffff168373ffffffffffffffffffffffffffffffffffffffff1603611e50576040517f08c379a0000000000000000000000000000000000000000000000000000000008152600401611e47906141a8565b60405180910390fd5b80600560008573ffffffffffffffffffffffffffffffffffffffff1673ffffffffffffffffffffffffffffffffffffffff16815260200190815260200160002060008473ffffffffffffffffffffffffffffffffffffffff1673ffffffffffffffffffffffffffffffffffffffff16815260200190815260200160002060006101000a81548160ff0219169083151502179055508173ffffffffffffffffffffffffffffffffffffffff168373ffffffffffffffffffffffffffffffffffffffff167f17307eab39ab6107e8899845ad3d59bd9653f200f220920489ca2b5937696c3183604051611f419190612abc565b60405180910390a3505050565b6000611f64679a17dd6876e0b11660c01b611b6c565b611f78672d4272871bd4be2c60c01b611b6c565b611f8c67d1d3ec2516e4777460c01b611b6c565b6000611f9783611282565b9050611fad67c5551717fe74377b60c01b611b6c565b611fc167e1dd2985d1bb330360c01b611b6c565b6000611fcc826115fc565b9050611fe267688be6d6e0d5f3b560c01b611b6c565b611ff6672d0949c8149e757660c01b611b6c565b8092505050919050565b60606000600283600261201391906141c8565b61201d919061420a565b67ffffffffffffffff81111561203657612035612d11565b5b6040519080825280601f01601f1916602001820160405280156120685781602001600182028036833780820191505090505b5090507f3000000000000000000000000000000000000000000000000000000000000000816000815181106120a05761209f6139ce565b5b60200101907effffffffffffffffffffffffffffffffffffffffffffffffffffffffffffff1916908160001a9053507f780000000000000000000000000000000000000000000000000000000000000081600181518110612104576121036139ce565b5b60200101907effffffffffffffffffffffffffffffffffffffffffffffffffffffffffffff1916908160001a9053506000600184600261214491906141c8565b61214e919061420a565b90505b60018111156121ee577f3031323334353637383961626364656600000000000000000000000000000000600f8616601081106121905761218f6139ce565b5b1a60f81b8282815181106121a7576121a66139ce565b5b60200101907effffffffffffffffffffffffffffffffffffffffffffffffffffffffffffff1916908160001a905350600485901c9450806121e79061423e565b9050612151565b5060008414612232576040517f08c379a0000000000000000000000000000000000000000000000000000000008152600401612229906142b3565b60405180910390fd5b8091505092915050565b612247848484611873565b612253848484846124ee565b612292576040517f08c379a000000000000000000000000000000000000000000000000000000000815260040161228990614345565b60405180910390fd5b50505050565b60008073ffffffffffffffffffffffffffffffffffffffff166122ba83611cc1565b73ffffffffffffffffffffffffffffffffffffffff1614159050919050565b6060600060016122e884612675565b01905060008167ffffffffffffffff81111561230757612306612d11565b5b6040519080825280601f01601f1916602001820160405280156123395781602001600182028036833780820191505090505b509050600082602001820190505b60011561239c578080600190039150507f3031323334353637383961626364656600000000000000000000000000000000600a86061a8153600a85816123905761238f614365565b5b04945060008503612347575b819350505050919050565b50505050565b50505050565b60008060006123cc6758bb62d7093902cc60c01b611b6c565b6123e067e5acac8130a9f4e460c01b611b6c565b6123f467631c9183e02929d860c01b611b6c565b612408677424703cde6b337560c01b611b6c565b604184511461244c576040517f08c379a0000000000000000000000000000000000000000000000000000000008152600401612443906143e0565b60405180910390fd5b61246067012beb33b42a208e60c01b611b6c565b6124746757fbdb9978e7cb6a60c01b611b6c565b6020840151925060408401519150606084015160001a90509193909250565b61249d83836127c8565b6124aa60008484846124ee565b6124e9576040517f08c379a00000000000000000000000000000000000000000000000000000000081526004016124e090614345565b60405180910390fd5b505050565b600061250f8473ffffffffffffffffffffffffffffffffffffffff166129e5565b15612668578373ffffffffffffffffffffffffffffffffffffffff1663150b7a0261253861171d565b8786866040518563ffffffff1660e01b815260040161255a9493929190614400565b6020604051808303816000875af192505050801561259657506040513d601f19601f820116820180604052508101906125939190614461565b60015b612618573d80600081146125c6576040519150601f19603f3d011682016040523d82523d6000602084013e6125cb565b606091505b506000815103612610576040517f08c379a000000000000000000000000000000000000000000000000000000000815260040161260790614345565b60405180910390fd5b805181602001fd5b63150b7a0260e01b7bffffffffffffffffffffffffffffffffffffffffffffffffffffffff1916817bffffffffffffffffffffffffffffffffffffffffffffffffffffffff19161491505061266d565b600190505b949350505050565b600080600090507a184f03e93ff9f4daa797ed6e38ed64bf6a1f01000000000000000083106126d3577a184f03e93ff9f4daa797ed6e38ed64bf6a1f01000000000000000083816126c9576126c8614365565b5b0492506040810190505b6d04ee2d6d415b85acef81000000008310612710576d04ee2d6d415b85acef8100000000838161270657612705614365565b5b0492506020810190505b662386f26fc10000831061273f57662386f26fc10000838161273557612734614365565b5b0492506010810190505b6305f5e1008310612768576305f5e100838161275e5761275d614365565b5b0492506008810190505b612710831061278d57612710838161278357612782614365565b5b0492506004810190505b606483106127b057606483816127a6576127a5614365565b5b0492506002810190505b600a83106127bf576001810190505b80915050919050565b600073ffffffffffffffffffffffffffffffffffffffff168273ffffffffffffffffffffffffffffffffffffffff1603612837576040517f08c379a000000000000000000000000000000000000000000000000000000000815260040161282e906144da565b60405180910390fd5b61284081612298565b15612880576040517f08c379a000000000000000000000000000000000000000000000000000000000815260040161287790614546565b60405180910390fd5b61288e6000838360016123a7565b61289781612298565b156128d7576040517f08c379a00000000000000000000000000000000000000000000000000000000081526004016128ce90614546565b60405180910390fd5b6001600360008473ffffffffffffffffffffffffffffffffffffffff1673ffffffffffffffffffffffffffffffffffffffff16815260200190815260200160002060008282540192505081905550816002600083815260200190815260200160002060006101000a81548173ffffffffffffffffffffffffffffffffffffffff021916908373ffffffffffffffffffffffffffffffffffffffff160217905550808273ffffffffffffffffffffffffffffffffffffffff16600073ffffffffffffffffffffffffffffffffffffffff167fddf252ad1be2c89b69c2b068fc378daa952ba7f163c4a11628f55a4df523b3ef60405160405180910390a46129e16000838360016123ad565b5050565b6000808273ffffffffffffffffffffffffffffffffffffffff163b119050919050565b6000604051905090565b600080fd5b600080fd5b60007fffffffff0000000000000000000000000000000000000000000000000000000082169050919050565b612a5181612a1c565b8114612a5c57600080fd5b50565b600081359050612a6e81612a48565b92915050565b600060208284031215612a8a57612a89612a12565b5b6000612a9884828501612a5f565b91505092915050565b60008115159050919050565b612ab681612aa1565b82525050565b6000602082019050612ad16000830184612aad565b92915050565b600081519050919050565b600082825260208201905092915050565b60005b83811015612b11578082015181840152602081019050612af6565b60008484015250505050565b6000601f19601f8301169050919050565b6000612b3982612ad7565b612b438185612ae2565b9350612b53818560208601612af3565b612b5c81612b1d565b840191505092915050565b60006020820190508181036000830152612b818184612b2e565b905092915050565b6000819050919050565b612b9c81612b89565b8114612ba757600080fd5b50565b600081359050612bb981612b93565b92915050565b600060208284031215612bd557612bd4612a12565b5b6000612be384828501612baa565b91505092915050565b600073ffffffffffffffffffffffffffffffffffffffff82169050919050565b6000612c1782612bec565b9050919050565b612c2781612c0c565b82525050565b6000602082019050612c426000830184612c1e565b92915050565b612c5181612c0c565b8114612c5c57600080fd5b50565b600081359050612c6e81612c48565b92915050565b60008060408385031215612c8b57612c8a612a12565b5b6000612c9985828601612c5f565b9250506020612caa85828601612baa565b9150509250929050565b600080600060608486031215612ccd57612ccc612a12565b5b6000612cdb86828701612c5f565b9350506020612cec86828701612c5f565b9250506040612cfd86828701612baa565b9150509250925092565b600080fd5b600080fd5b7f4e487b7100000000000000000000000000000000000000000000000000000000600052604160045260246000fd5b612d4982612b1d565b810181811067ffffffffffffffff82111715612d6857612d67612d11565b5b80604052505050565b6000612d7b612a08565b9050612d878282612d40565b919050565b600067ffffffffffffffff821115612da757612da6612d11565b5b612db082612b1d565b9050602081019050919050565b82818337600083830152505050565b6000612ddf612dda84612d8c565b612d71565b905082815260208101848484011115612dfb57612dfa612d0c565b5b612e06848285612dbd565b509392505050565b600082601f830112612e2357612e22612d07565b5b8135612e33848260208601612dcc565b91505092915050565b600067ffffffffffffffff821115612e5757612e56612d11565b5b612e6082612b1d565b9050602081019050919050565b6000612e80612e7b84612e3c565b612d71565b905082815260208101848484011115612e9c57612e9b612d0c565b5b612ea7848285612dbd565b509392505050565b600082601f830112612ec457612ec3612d07565b5b8135612ed4848260208601612e6d565b91505092915050565b600080600060608486031215612ef657612ef5612a12565b5b6000612f0486828701612c5f565b935050602084013567ffffffffffffffff811115612f2557612f24612a17565b5b612f3186828701612e0e565b925050604084013567ffffffffffffffff811115612f5257612f51612a17565b5b612f5e86828701612eaf565b9150509250925092565b600080fd5b600080fd5b60008083601f840112612f8857612f87612d07565b5b8235905067ffffffffffffffff811115612fa557612fa4612f68565b5b602083019150836001820283011115612fc157612fc0612f6d565b5b9250929050565b60008060208385031215612fdf57612fde612a12565b5b600083013567ffffffffffffffff811115612ffd57612ffc612a17565b5b61300985828601612f72565b92509250509250929050565b60006020828403121561302b5761302a612a12565b5b600061303984828501612c5f565b91505092915050565b60008083601f84011261305857613057612d07565b5b8235905067ffffffffffffffff81111561307557613074612f68565b5b60208301915083602082028301111561309157613090612f6d565b5b9250929050565b60008083601f8401126130ae576130ad612d07565b5b8235905067ffffffffffffffff8111156130cb576130ca612f68565b5b6020830191508360208202830111156130e7576130e6612f6d565b5b9250929050565b6000806000806040858703121561310857613107612a12565b5b600085013567ffffffffffffffff81111561312657613125612a17565b5b61313287828801613042565b9450945050602085013567ffffffffffffffff81111561315557613154612a17565b5b61316187828801613098565b925092505092959194509250565b61317881612b89565b82525050565b6000602082019050613193600083018461316f565b92915050565b6131a281612aa1565b81146131ad57600080fd5b50565b6000813590506131bf81613199565b92915050565b600080604083850312156131dc576131db612a12565b5b60006131ea85828601612c5f565b92505060206131fb858286016131b0565b9150509250929050565b6000806000806080858703121561321f5761321e612a12565b5b600085013567ffffffffffffffff81111561323d5761323c612a17565b5b61324987828801612e0e565b945050602085013567ffffffffffffffff81111561326a57613269612a17565b5b61327687828801612e0e565b935050604085013567ffffffffffffffff81111561329757613296612a17565b5b6132a387828801612eaf565b92505060606132b487828801612baa565b91505092959194509250565b6000602082840312156132d6576132d5612a12565b5b600082013567ffffffffffffffff8111156132f4576132f3612a17565b5b61330084828501612e0e565b91505092915050565b6000819050919050565b61331c81613309565b82525050565b60006020820190506133376000830184613313565b92915050565b6000806000806080858703121561335757613356612a12565b5b600061336587828801612c5f565b945050602061337687828801612c5f565b935050604061338787828801612baa565b925050606085013567ffffffffffffffff8111156133a8576133a7612a17565b5b6133b487828801612eaf565b91505092959194509250565b600080604083850312156133d7576133d6612a12565b5b60006133e585828601612c5f565b92505060206133f685828601612c5f565b9150509250929050565b61340981613309565b811461341457600080fd5b50565b60008135905061342681613400565b92915050565b60006020828403121561344257613441612a12565b5b600061345084828501613417565b91505092915050565b7f4e487b7100000000000000000000000000000000000000000000000000000000600052602260045260246000fd5b600060028204905060018216806134a057607f821691505b6020821081036134b3576134b2613459565b5b50919050565b7f4552433732313a20617070726f76616c20746f2063757272656e74206f776e6560008201527f7200000000000000000000000000000000000000000000000000000000000000602082015250565b6000613515602183612ae2565b9150613520826134b9565b604082019050919050565b6000602082019050818103600083015261354481613508565b9050919050565b7f4552433732313a20617070726f76652063616c6c6572206973206e6f7420746f60008201527f6b656e206f776e6572206f7220617070726f76656420666f7220616c6c000000602082015250565b60006135a7603d83612ae2565b91506135b28261354b565b604082019050919050565b600060208201905081810360008301526135d68161359a565b9050919050565b7f4552433732313a2063616c6c6572206973206e6f7420746f6b656e206f776e6560008201527f72206f7220617070726f76656400000000000000000000000000000000000000602082015250565b6000613639602d83612ae2565b9150613644826135dd565b604082019050919050565b600060208201905081810360008301526136688161362c565b9050919050565b600082905092915050565b60008190508160005260206000209050919050565b60006020601f8301049050919050565b600082821b905092915050565b6000600883026136dc7fffffffffffffffffffffffffffffffffffffffffffffffffffffffffffffffff8261369f565b6136e6868361369f565b95508019841693508086168417925050509392505050565b6000819050919050565b600061372361371e61371984612b89565b6136fe565b612b89565b9050919050565b6000819050919050565b61373d83613708565b6137516137498261372a565b8484546136ac565b825550505050565b600090565b613766613759565b613771818484613734565b505050565b5b818110156137955761378a60008261375e565b600181019050613777565b5050565b601f8211156137da576137ab8161367a565b6137b48461368f565b810160208510156137c3578190505b6137d76137cf8561368f565b830182613776565b50505b505050565b600082821c905092915050565b60006137fd600019846008026137df565b1980831691505092915050565b600061381683836137ec565b9150826002028217905092915050565b613830838361366f565b67ffffffffffffffff81111561384957613848612d11565b5b6138538254613488565b61385e828285613799565b6000601f83116001811461388d576000841561387b578287013590505b613885858261380a565b8655506138ed565b601f19841661389b8661367a565b60005b828110156138c35784890135825560018201915060208501945060208101905061389e565b868310156138e057848901356138dc601f8916826137ec565b8355505b6001600288020188555050505b50505050505050565b7f4552433732313a20696e76616c696420746f6b656e2049440000000000000000600082015250565b600061392c601883612ae2565b9150613937826138f6565b602082019050919050565b6000602082019050818103600083015261395b8161391f565b9050919050565b7f4172726179732073686f756c642068617665207468652073616d652073697a65600082015250565b6000613998602083612ae2565b91506139a382613962565b602082019050919050565b600060208201905081810360008301526139c78161398b565b9050919050565b7f4e487b7100000000000000000000000000000000000000000000000000000000600052603260045260246000fd5b7f4e487b7100000000000000000000000000000000000000000000000000000000600052601160045260246000fd5b6000613a3782612b89565b91507fffffffffffffffffffffffffffffffffffffffffffffffffffffffffffffffff8203613a6957613a686139fd565b5b600182019050919050565b7f4552433732313a2061646472657373207a65726f206973206e6f74206120766160008201527f6c6964206f776e65720000000000000000000000000000000000000000000000602082015250565b6000613ad0602983612ae2565b9150613adb82613a74565b604082019050919050565b60006020820190508181036000830152613aff81613ac3565b9050919050565b600081905092915050565b6000613b1c82612ad7565b613b268185613b06565b9350613b36818560208601612af3565b80840191505092915050565b6000613b4e8284613b11565b915081905092915050565b7f4d6573736167652068617368657320646f206e6f7420636f72726573706f6e64600082015250565b6000613b8f602083612ae2565b9150613b9a82613b59565b602082019050919050565b60006020820190508181036000830152613bbe81613b82565b9050919050565b600081519050919050565b600082825260208201905092915050565b6000613bec82613bc5565b613bf68185613bd0565b9350613c06818560208601612af3565b613c0f81612b1d565b840191505092915050565b6000606082019050613c2f6000830186612c1e565b8181036020830152613c418185612b2e565b90508181036040830152613c558184613be1565b9050949350505050565b600081519050613c6e81613199565b92915050565b600060208284031215613c8a57613c89612a12565b5b6000613c9884828501613c5f565b91505092915050565b7f496e76616c6964207369676e6572000000000000000000000000000000000000600082015250565b6000613cd7600e83612ae2565b9150613ce282613ca1565b602082019050919050565b60006020820190508181036000830152613d0681613cca565b9050919050565b7f4552433732314d657461646174613a2055524920717565727920666f72206e6f60008201527f6e6578697374656e7420746f6b656e0000000000000000000000000000000000602082015250565b6000613d69602f83612ae2565b9150613d7482613d0d565b604082019050919050565b60006020820190508181036000830152613d9881613d5c565b9050919050565b60008154613dac81613488565b613db68186613b06565b94506001821660008114613dd15760018114613de657613e19565b60ff1983168652811515820286019350613e19565b613def8561367a565b60005b83811015613e1157815481890152600182019150602081019050613df2565b838801955050505b50505092915050565b6000613e2e8285613d9f565b9150613e3a8284613b11565b91508190509392505050565b7f4f776e61626c653a206e6577206f776e657220697320746865207a65726f206160008201527f6464726573730000000000000000000000000000000000000000000000000000602082015250565b6000613ea2602683612ae2565b9150613ead82613e46565b604082019050919050565b60006020820190508181036000830152613ed181613e95565b9050919050565b7f19457468657265756d205369676e6564204d6573736167653a0a333200000000600082015250565b6000613f0e601c83613b06565b9150613f1982613ed8565b601c82019050919050565b6000819050919050565b613f3f613f3a82613309565b613f24565b82525050565b6000613f5082613f01565b9150613f5c8284613f2e565b60208201915081905092915050565b7f4552433732313a207472616e736665722066726f6d20696e636f72726563742060008201527f6f776e6572000000000000000000000000000000000000000000000000000000602082015250565b6000613fc7602583612ae2565b9150613fd282613f6b565b604082019050919050565b60006020820190508181036000830152613ff681613fba565b9050919050565b7f4552433732313a207472616e7366657220746f20746865207a65726f2061646460008201527f7265737300000000000000000000000000000000000000000000000000000000602082015250565b6000614059602483612ae2565b915061406482613ffd565b604082019050919050565b600060208201905081810360008301526140888161404c565b9050919050565b600060ff82169050919050565b6140a58161408f565b82525050565b60006080820190506140c06000830187613313565b6140cd602083018661409c565b6140da6040830185613313565b6140e76060830184613313565b95945050505050565b7f4f776e61626c653a2063616c6c6572206973206e6f7420746865206f776e6572600082015250565b6000614126602083612ae2565b9150614131826140f0565b602082019050919050565b6000602082019050818103600083015261415581614119565b9050919050565b7f4552433732313a20617070726f766520746f2063616c6c657200000000000000600082015250565b6000614192601983612ae2565b915061419d8261415c565b602082019050919050565b600060208201905081810360008301526141c181614185565b9050919050565b60006141d382612b89565b91506141de83612b89565b92508282026141ec81612b89565b91508282048414831517614203576142026139fd565b5b5092915050565b600061421582612b89565b915061422083612b89565b9250828201905080821115614238576142376139fd565b5b92915050565b600061424982612b89565b91506000820361425c5761425b6139fd565b5b600182039050919050565b7f537472696e67733a20686578206c656e67746820696e73756666696369656e74600082015250565b600061429d602083612ae2565b91506142a882614267565b602082019050919050565b600060208201905081810360008301526142cc81614290565b9050919050565b7f4552433732313a207472616e7366657220746f206e6f6e20455243373231526560008201527f63656976657220696d706c656d656e7465720000000000000000000000000000602082015250565b600061432f603283612ae2565b915061433a826142d3565b604082019050919050565b6000602082019050818103600083015261435e81614322565b9050919050565b7f4e487b7100000000000000000000000000000000000000000000000000000000600052601260045260246000fd5b7f496e76616c6964207369676e6174757265206c656e6774682100000000000000600082015250565b60006143ca601983612ae2565b91506143d582614394565b602082019050919050565b600060208201905081810360008301526143f9816143bd565b9050919050565b60006080820190506144156000830187612c1e565b6144226020830186612c1e565b61442f604083018561316f565b81810360608301526144418184613be1565b905095945050505050565b60008151905061445b81612a48565b92915050565b60006020828403121561447757614476612a12565b5b60006144858482850161444c565b91505092915050565b7f4552433732313a206d696e7420746f20746865207a65726f2061646472657373600082015250565b60006144c4602083612ae2565b91506144cf8261448e565b602082019050919050565b600060208201905081810360008301526144f3816144b7565b9050919050565b7f4552433732313a20746f6b656e20616c7265616479206d696e74656400000000600082015250565b6000614530601c83612ae2565b915061453b826144fa565b602082019050919050565b6000602082019050818103600083015261455f81614523565b905091905056fea2646970667358221220e49f3cba4b8b0f5019cfc1711c1a8369fec47480c2238de76d6efd7638492e1f64736f6c63430008120033",
  "linkReferences": {},
  "deployedLinkReferences": {}
}