{
  "_format": "hh-sol-artifact-1",
  "contractName": "RuniverseItem",
  "sourceName": "contracts/RuniverseItem.sol",
  "abi": [
    {
      "inputs": [
        {
          "internalType": "address",
          "name": "_signer",
          "type": "address"
        },
        {
          "internalType": "string",
          "name": "_baseURI",
          "type": "string"
        }
      ],
      "stateMutability": "nonpayable",
      "type": "constructor"
    },
    {
      "anonymous": false,
      "inputs": [
        {
          "indexed": true,
          "internalType": "address",
          "name": "owner",
          "type": "address"
        },
        {
          "indexed": true,
          "internalType": "address",
          "name": "approved",
          "type": "address"
        },
        {
          "indexed": true,
          "internalType": "uint256",
          "name": "tokenId",
          "type": "uint256"
        }
      ],
      "name": "Approval",
      "type": "event"
    },
    {
      "anonymous": false,
      "inputs": [
        {
          "indexed": true,
          "internalType": "address",
          "name": "owner",
          "type": "address"
        },
        {
          "indexed": true,
          "internalType": "address",
          "name": "operator",
          "type": "address"
        },
        {
          "indexed": false,
          "internalType": "bool",
          "name": "approved",
          "type": "bool"
        }
      ],
      "name": "ApprovalForAll",
      "type": "event"
    },
    {
      "anonymous": false,
      "inputs": [
        {
          "indexed": true,
          "internalType": "address",
          "name": "previousOwner",
          "type": "address"
        },
        {
          "indexed": true,
          "internalType": "address",
          "name": "newOwner",
          "type": "address"
        }
      ],
      "name": "OwnershipTransferred",
      "type": "event"
    },
    {
      "anonymous": false,
      "inputs": [
        {
          "indexed": true,
          "internalType": "address",
          "name": "from",
          "type": "address"
        },
        {
          "indexed": true,
          "internalType": "address",
          "name": "to",
          "type": "address"
        },
        {
          "indexed": true,
          "internalType": "uint256",
          "name": "tokenId",
          "type": "uint256"
        }
      ],
      "name": "Transfer",
      "type": "event"
    },
    {
      "inputs": [
        {
          "internalType": "address",
          "name": "to",
          "type": "address"
        },
        {
          "internalType": "uint256",
          "name": "tokenId",
          "type": "uint256"
        }
      ],
      "name": "approve",
      "outputs": [],
      "stateMutability": "nonpayable",
      "type": "function"
    },
    {
      "inputs": [
        {
          "internalType": "address",
          "name": "owner",
          "type": "address"
        }
      ],
      "name": "balanceOf",
      "outputs": [
        {
          "internalType": "uint256",
          "name": "",
          "type": "uint256"
        }
      ],
      "stateMutability": "view",
      "type": "function"
    },
    {
      "inputs": [],
      "name": "baseTokenURI",
      "outputs": [
        {
          "internalType": "string",
          "name": "",
          "type": "string"
        }
      ],
      "stateMutability": "view",
      "type": "function"
    },
    {
      "inputs": [
        {
          "internalType": "uint256",
          "name": "tokenId",
          "type": "uint256"
        }
      ],
      "name": "exists",
      "outputs": [
        {
          "internalType": "bool",
          "name": "",
          "type": "bool"
        }
      ],
      "stateMutability": "view",
      "type": "function"
    },
    {
      "inputs": [
        {
          "internalType": "uint256",
          "name": "tokenId",
          "type": "uint256"
        }
      ],
      "name": "getApproved",
      "outputs": [
        {
          "internalType": "address",
          "name": "",
          "type": "address"
        }
      ],
      "stateMutability": "view",
      "type": "function"
    },
    {
      "inputs": [],
      "name": "getBaseURI",
      "outputs": [
        {
          "internalType": "string",
          "name": "",
          "type": "string"
        }
      ],
      "stateMutability": "view",
      "type": "function"
    },
    {
      "inputs": [
        {
          "internalType": "bytes32",
          "name": "_messageHash",
          "type": "bytes32"
        }
      ],
      "name": "getEthSignedMessageHash",
      "outputs": [
        {
          "internalType": "bytes32",
          "name": "",
          "type": "bytes32"
        }
      ],
      "stateMutability": "pure",
      "type": "function"
    },
    {
      "inputs": [
        {
          "internalType": "string",
          "name": "_message",
          "type": "string"
        }
      ],
      "name": "getMessageHash",
      "outputs": [
        {
          "internalType": "bytes32",
          "name": "",
          "type": "bytes32"
        }
      ],
      "stateMutability": "pure",
      "type": "function"
    },
    {
      "inputs": [],
      "name": "getSigner",
      "outputs": [
        {
          "internalType": "address",
          "name": "",
          "type": "address"
        }
      ],
      "stateMutability": "view",
      "type": "function"
    },
    {
      "inputs": [
        {
          "internalType": "address",
          "name": "owner",
          "type": "address"
        },
        {
          "internalType": "address",
          "name": "operator",
          "type": "address"
        }
      ],
      "name": "isApprovedForAll",
      "outputs": [
        {
          "internalType": "bool",
          "name": "",
          "type": "bool"
        }
      ],
      "stateMutability": "view",
      "type": "function"
    },
    {
      "inputs": [],
      "name": "name",
      "outputs": [
        {
          "internalType": "string",
          "name": "",
          "type": "string"
        }
      ],
      "stateMutability": "view",
      "type": "function"
    },
    {
      "inputs": [],
      "name": "owner",
      "outputs": [
        {
          "internalType": "address",
          "name": "",
          "type": "address"
        }
      ],
      "stateMutability": "view",
      "type": "function"
    },
    {
      "inputs": [
        {
          "internalType": "uint256[]",
          "name": "tokenIds",
          "type": "uint256[]"
        },
        {
          "internalType": "address[]",
          "name": "recipients",
          "type": "address[]"
        }
      ],
      "name": "ownerMint",
      "outputs": [],
      "stateMutability": "nonpayable",
      "type": "function"
    },
    {
      "inputs": [
        {
          "internalType": "uint256",
          "name": "tokenId",
          "type": "uint256"
        }
      ],
      "name": "ownerOf",
      "outputs": [
        {
          "internalType": "address",
          "name": "",
          "type": "address"
        }
      ],
      "stateMutability": "view",
      "type": "function"
    },
    {
      "inputs": [],
      "name": "renounceOwnership",
      "outputs": [],
      "stateMutability": "nonpayable",
      "type": "function"
    },
    {
      "inputs": [
        {
          "internalType": "address",
          "name": "from",
          "type": "address"
        },
        {
          "internalType": "address",
          "name": "to",
          "type": "address"
        },
        {
          "internalType": "uint256",
          "name": "tokenId",
          "type": "uint256"
        }
      ],
      "name": "safeTransferFrom",
      "outputs": [],
      "stateMutability": "nonpayable",
      "type": "function"
    },
    {
      "inputs": [
        {
          "internalType": "address",
          "name": "from",
          "type": "address"
        },
        {
          "internalType": "address",
          "name": "to",
          "type": "address"
        },
        {
          "internalType": "uint256",
          "name": "tokenId",
          "type": "uint256"
        },
        {
          "internalType": "bytes",
          "name": "data",
          "type": "bytes"
        }
      ],
      "name": "safeTransferFrom",
      "outputs": [],
      "stateMutability": "nonpayable",
      "type": "function"
    },
    {
      "inputs": [
        {
          "internalType": "address",
          "name": "operator",
          "type": "address"
        },
        {
          "internalType": "bool",
          "name": "approved",
          "type": "bool"
        }
      ],
      "name": "setApprovalForAll",
      "outputs": [],
      "stateMutability": "nonpayable",
      "type": "function"
    },
    {
      "inputs": [
        {
          "internalType": "string",
          "name": "newBaseURI",
          "type": "string"
        }
      ],
      "name": "setBaseURI",
      "outputs": [],
      "stateMutability": "nonpayable",
      "type": "function"
    },
    {
      "inputs": [
        {
          "internalType": "address",
          "name": "_signer",
          "type": "address"
        }
      ],
      "name": "setSigner",
      "outputs": [],
      "stateMutability": "nonpayable",
      "type": "function"
    },
    {
      "inputs": [],
      "name": "signer",
      "outputs": [
        {
          "internalType": "address",
          "name": "",
          "type": "address"
        }
      ],
      "stateMutability": "view",
      "type": "function"
    },
    {
      "inputs": [
        {
          "internalType": "bytes4",
          "name": "interfaceId",
          "type": "bytes4"
        }
      ],
      "name": "supportsInterface",
      "outputs": [
        {
          "internalType": "bool",
          "name": "",
          "type": "bool"
        }
      ],
      "stateMutability": "view",
      "type": "function"
    },
    {
      "inputs": [],
      "name": "symbol",
      "outputs": [
        {
          "internalType": "string",
          "name": "",
          "type": "string"
        }
      ],
      "stateMutability": "view",
      "type": "function"
    },
    {
      "inputs": [
        {
          "internalType": "uint256",
          "name": "tokenId",
          "type": "uint256"
        }
      ],
      "name": "tokenURI",
      "outputs": [
        {
          "internalType": "string",
          "name": "",
          "type": "string"
        }
      ],
      "stateMutability": "view",
      "type": "function"
    },
    {
      "inputs": [
        {
          "internalType": "address",
          "name": "from",
          "type": "address"
        },
        {
          "internalType": "address",
          "name": "to",
          "type": "address"
        },
        {
          "internalType": "uint256",
          "name": "tokenId",
          "type": "uint256"
        }
      ],
      "name": "transferFrom",
      "outputs": [],
      "stateMutability": "nonpayable",
      "type": "function"
    },
    {
      "inputs": [
        {
          "internalType": "address",
          "name": "newOwner",
          "type": "address"
        }
      ],
      "name": "transferOwnership",
      "outputs": [],
      "stateMutability": "nonpayable",
      "type": "function"
    },
    {
      "inputs": [
        {
          "internalType": "address",
          "name": "_signer",
          "type": "address"
        },
        {
          "internalType": "string",
          "name": "_message",
          "type": "string"
        },
        {
          "internalType": "bytes",
          "name": "_signature",
          "type": "bytes"
        }
      ],
      "name": "verify",
      "outputs": [
        {
          "internalType": "bool",
          "name": "",
          "type": "bool"
        }
      ],
      "stateMutability": "pure",
      "type": "function"
    },
    {
      "inputs": [
        {
          "internalType": "string",
          "name": "_message",
          "type": "string"
        },
        {
          "internalType": "string",
          "name": "_messageHash",
          "type": "string"
        },
        {
          "internalType": "bytes",
          "name": "_signature",
          "type": "bytes"
        },
        {
          "internalType": "uint256",
          "name": "tokenId",
          "type": "uint256"
        }
      ],
      "name": "verifyAndMint",
      "outputs": [],
      "stateMutability": "nonpayable",
      "type": "function"
    }
  ],
  "bytecode": "0x60806040523480156200001157600080fd5b506040516200478e3803806200478e83398181016040528101906200003791906200040a565b6040518060400160405280600d81526020017f52756e6976657273654974656d000000000000000000000000000000000000008152506040518060400160405280600481526020017f5249544d000000000000000000000000000000000000000000000000000000008152508160009081620000b49190620006bb565b508060019081620000c69190620006bb565b505050620000e9620000dd6200014460201b60201c565b6200014c60201b60201c565b81600760006101000a81548173ffffffffffffffffffffffffffffffffffffffff021916908373ffffffffffffffffffffffffffffffffffffffff16021790555080600890816200013b9190620006bb565b505050620007a2565b600033905090565b6000600660009054906101000a900473ffffffffffffffffffffffffffffffffffffffff16905081600660006101000a81548173ffffffffffffffffffffffffffffffffffffffff021916908373ffffffffffffffffffffffffffffffffffffffff1602179055508173ffffffffffffffffffffffffffffffffffffffff168173ffffffffffffffffffffffffffffffffffffffff167f8be0079c531659141344cd1fd0a4f28419497f9722a3daafe3b4186f6b6457e060405160405180910390a35050565b6000604051905090565b600080fd5b600080fd5b600073ffffffffffffffffffffffffffffffffffffffff82169050919050565b6000620002538262000226565b9050919050565b620002658162000246565b81146200027157600080fd5b50565b60008151905062000285816200025a565b92915050565b600080fd5b600080fd5b6000601f19601f8301169050919050565b7f4e487b7100000000000000000000000000000000000000000000000000000000600052604160045260246000fd5b620002e08262000295565b810181811067ffffffffffffffff82111715620003025762000301620002a6565b5b80604052505050565b60006200031762000212565b9050620003258282620002d5565b919050565b600067ffffffffffffffff821115620003485762000347620002a6565b5b620003538262000295565b9050602081019050919050565b60005b838110156200038057808201518184015260208101905062000363565b60008484015250505050565b6000620003a36200039d846200032a565b6200030b565b905082815260208101848484011115620003c257620003c162000290565b5b620003cf84828562000360565b509392505050565b600082601f830112620003ef57620003ee6200028b565b5b8151620004018482602086016200038c565b91505092915050565b600080604083850312156200042457620004236200021c565b5b6000620004348582860162000274565b925050602083015167ffffffffffffffff81111562000458576200045762000221565b5b6200046685828601620003d7565b9150509250929050565b600081519050919050565b7f4e487b7100000000000000000000000000000000000000000000000000000000600052602260045260246000fd5b60006002820490506001821680620004c357607f821691505b602082108103620004d957620004d86200047b565b5b50919050565b60008190508160005260206000209050919050565b60006020601f8301049050919050565b600082821b905092915050565b600060088302620005437fffffffffffffffffffffffffffffffffffffffffffffffffffffffffffffffff8262000504565b6200054f868362000504565b95508019841693508086168417925050509392505050565b6000819050919050565b6000819050919050565b60006200059c62000596620005908462000567565b62000571565b62000567565b9050919050565b6000819050919050565b620005b8836200057b565b620005d0620005c782620005a3565b84845462000511565b825550505050565b600090565b620005e7620005d8565b620005f4818484620005ad565b505050565b5b818110156200061c5762000610600082620005dd565b600181019050620005fa565b5050565b601f8211156200066b576200063581620004df565b6200064084620004f4565b8101602085101562000650578190505b620006686200065f85620004f4565b830182620005f9565b50505b505050565b600082821c905092915050565b6000620006906000198460080262000670565b1980831691505092915050565b6000620006ab83836200067d565b9150826002028217905092915050565b620006c68262000470565b67ffffffffffffffff811115620006e257620006e1620002a6565b5b620006ee8254620004aa565b620006fb82828562000620565b600060209050601f8311600181146200073357600084156200071e578287015190505b6200072a85826200069d565b8655506200079a565b601f1984166200074386620004df565b60005b828110156200076d5784890151825560018201915060208501945060208101905062000746565b868310156200078d578489015162000789601f8916826200067d565b8355505b6001600288020188555050505b505050505050565b613fdc80620007b26000396000f3fe608060405234801561001057600080fd5b50600436106101c45760003560e01c8063714c5398116100f9578063b446f3b211610097578063d547cfb711610071578063d547cfb714610503578063e985e9c514610521578063f2fde38b14610551578063fa5408011461056d576101c4565b8063b446f3b214610487578063b88d4fde146104b7578063c87b56dd146104d3576101c4565b80638da5cb5b116100d35780638da5cb5b1461041357806395d89b4114610431578063a22cb4651461044f578063af633a721461046b576101c4565b8063714c5398146103cd578063715018a6146103eb5780637ac3c02f146103f5576101c4565b806342842e0e116101665780636352211e116101405780636352211e146103355780636c19e783146103655780636e9849dd1461038157806370a082311461039d576101c4565b806342842e0e146102cd5780634f558e79146102e957806355f804b314610319576101c4565b8063095ea7b3116101a2578063095ea7b314610247578063238ac9331461026357806323b872dd146102815780632dd34f0f1461029d576101c4565b806301ffc9a7146101c957806306fdde03146101f9578063081812fc14610217575b600080fd5b6101e360048036038101906101de91906124b4565b61059d565b6040516101f091906124fc565b60405180910390f35b61020161067f565b60405161020e91906125a7565b60405180910390f35b610231600480360381019061022c91906125ff565b610711565b60405161023e919061266d565b60405180910390f35b610261600480360381019061025c91906126b4565b610757565b005b61026b61086e565b604051610278919061266d565b60405180910390f35b61029b600480360381019061029691906126f4565b610894565b005b6102b760048036038101906102b2919061291d565b6108f4565b6040516102c491906124fc565b60405180910390f35b6102e760048036038101906102e291906126f4565b610952565b005b61030360048036038101906102fe91906125ff565b610972565b60405161031091906124fc565b60405180910390f35b610333600480360381019061032e9190612a08565b610984565b005b61034f600480360381019061034a91906125ff565b6109a2565b60405161035c919061266d565b60405180910390f35b61037f600480360381019061037a9190612a55565b610a28565b005b61039b60048036038101906103969190612b2e565b610a74565b005b6103b760048036038101906103b29190612a55565b610b34565b6040516103c49190612bbe565b60405180910390f35b6103d5610beb565b6040516103e291906125a7565b60405180910390f35b6103f3610c7d565b005b6103fd610c91565b60405161040a919061266d565b60405180910390f35b61041b610cbb565b604051610428919061266d565b60405180910390f35b610439610ce5565b60405161044691906125a7565b60405180910390f35b61046960048036038101906104649190612c05565b610d77565b005b61048560048036038101906104809190612c45565b610d8d565b005b6104a1600480360381019061049c9190612d00565b610f32565b6040516104ae9190612d62565b60405180910390f35b6104d160048036038101906104cc9190612d7d565b610f62565b005b6104ed60048036038101906104e891906125ff565b610fc4565b6040516104fa91906125a7565b60405180910390f35b61050b611040565b60405161051891906125a7565b60405180910390f35b61053b60048036038101906105369190612e00565b6110ce565b60405161054891906124fc565b60405180910390f35b61056b60048036038101906105669190612a55565b611162565b005b61058760048036038101906105829190612e6c565b6111e5565b6040516105949190612d62565b60405180910390f35b60007f80ac58cd000000000000000000000000000000000000000000000000000000007bffffffffffffffffffffffffffffffffffffffffffffffffffffffff1916827bffffffffffffffffffffffffffffffffffffffffffffffffffffffff1916148061066857507f5b5e139f000000000000000000000000000000000000000000000000000000007bffffffffffffffffffffffffffffffffffffffffffffffffffffffff1916827bffffffffffffffffffffffffffffffffffffffffffffffffffffffff1916145b80610678575061067782611215565b5b9050919050565b60606000805461068e90612ec8565b80601f01602080910402602001604051908101604052809291908181526020018280546106ba90612ec8565b80156107075780601f106106dc57610100808354040283529160200191610707565b820191906000526020600020905b8154815290600101906020018083116106ea57829003601f168201915b5050505050905090565b600061071c8261127f565b6004600083815260200190815260200160002060009054906101000a900473ffffffffffffffffffffffffffffffffffffffff169050919050565b6000610762826109a2565b90508073ffffffffffffffffffffffffffffffffffffffff168373ffffffffffffffffffffffffffffffffffffffff16036107d2576040517f08c379a00000000000000000000000000000000000000000000000000000000081526004016107c990612f6b565b60405180910390fd5b8073ffffffffffffffffffffffffffffffffffffffff166107f16112ca565b73ffffffffffffffffffffffffffffffffffffffff161480610820575061081f8161081a6112ca565b6110ce565b5b61085f576040517f08c379a000000000000000000000000000000000000000000000000000000000815260040161085690612ffd565b60405180910390fd5b61086983836112d2565b505050565b600760009054906101000a900473ffffffffffffffffffffffffffffffffffffffff1681565b6108a561089f6112ca565b8261138b565b6108e4576040517f08c379a00000000000000000000000000000000000000000000000000000000081526004016108db9061308f565b60405180910390fd5b6108ef838383611420565b505050565b60008061090084610f32565b9050600061090d826111e5565b90508573ffffffffffffffffffffffffffffffffffffffff166109308286611719565b73ffffffffffffffffffffffffffffffffffffffff1614925050509392505050565b61096d83838360405180602001604052806000815250610f62565b505050565b600061097d82611788565b9050919050565b61098c6117c9565b81816008918261099d929190613266565b505050565b6000806109ae83611847565b9050600073ffffffffffffffffffffffffffffffffffffffff168173ffffffffffffffffffffffffffffffffffffffff1603610a1f576040517f08c379a0000000000000000000000000000000000000000000000000000000008152600401610a1690613382565b60405180910390fd5b80915050919050565b610a306117c9565b80600760006101000a81548173ffffffffffffffffffffffffffffffffffffffff021916908373ffffffffffffffffffffffffffffffffffffffff16021790555050565b610a7c6117c9565b818190508484905014610ac4576040517f08c379a0000000000000000000000000000000000000000000000000000000008152600401610abb906133ee565b60405180910390fd5b60005b82829050811015610b2d57610b1c838383818110610ae857610ae761340e565b5b9050602002016020810190610afd9190612a55565b868684818110610b1057610b0f61340e565b5b90506020020135611884565b80610b269061346c565b9050610ac7565b5050505050565b60008073ffffffffffffffffffffffffffffffffffffffff168273ffffffffffffffffffffffffffffffffffffffff1603610ba4576040517f08c379a0000000000000000000000000000000000000000000000000000000008152600401610b9b90613526565b60405180910390fd5b600360008373ffffffffffffffffffffffffffffffffffffffff1673ffffffffffffffffffffffffffffffffffffffff168152602001908152602001600020549050919050565b606060088054610bfa90612ec8565b80601f0160208091040260200160405190810160405280929190818152602001828054610c2690612ec8565b8015610c735780601f10610c4857610100808354040283529160200191610c73565b820191906000526020600020905b815481529060010190602001808311610c5657829003601f168201915b5050505050905090565b610c856117c9565b610c8f60006118a2565b565b6000600760009054906101000a900473ffffffffffffffffffffffffffffffffffffffff16905090565b6000600660009054906101000a900473ffffffffffffffffffffffffffffffffffffffff16905090565b606060018054610cf490612ec8565b80601f0160208091040260200160405190810160405280929190818152602001828054610d2090612ec8565b8015610d6d5780601f10610d4257610100808354040283529160200191610d6d565b820191906000526020600020905b815481529060010190602001808311610d5057829003601f168201915b5050505050905090565b610d89610d826112ca565b8383611968565b5050565b6000610d9885611ad4565b90506000610daa8260001c6020611af9565b905084604051602001610dbd9190613582565b6040516020818303038152906040528051906020012081604051602001610de49190613582565b6040516020818303038152906040528051906020012014610e3a576040517f08c379a0000000000000000000000000000000000000000000000000000000008152600401610e31906135e5565b60405180910390fd5b600115153073ffffffffffffffffffffffffffffffffffffffff16632dd34f0f600760009054906101000a900473ffffffffffffffffffffffffffffffffffffffff1689886040518463ffffffff1660e01b8152600401610e9d9392919061365a565b602060405180830381865afa158015610eba573d6000803e3d6000fd5b505050506040513d601f19601f82011682018060405250810190610ede91906136b4565b151514610f20576040517f08c379a0000000000000000000000000000000000000000000000000000000008152600401610f179061372d565b60405180910390fd5b610f2a3384611884565b505050505050565b600081604051602001610f459190613582565b604051602081830303815290604052805190602001209050919050565b610f73610f6d6112ca565b8361138b565b610fb2576040517f08c379a0000000000000000000000000000000000000000000000000000000008152600401610fa99061308f565b60405180910390fd5b610fbe84848484611d35565b50505050565b6060610fcf82611788565b61100e576040517f08c379a0000000000000000000000000000000000000000000000000000000008152600401611005906137bf565b60405180910390fd5b600861101983611d91565b60405160200161102a929190613862565b6040516020818303038152906040529050919050565b6008805461104d90612ec8565b80601f016020809104026020016040519081016040528092919081815260200182805461107990612ec8565b80156110c65780601f1061109b576101008083540402835291602001916110c6565b820191906000526020600020905b8154815290600101906020018083116110a957829003601f168201915b505050505081565b6000600560008473ffffffffffffffffffffffffffffffffffffffff1673ffffffffffffffffffffffffffffffffffffffff16815260200190815260200160002060008373ffffffffffffffffffffffffffffffffffffffff1673ffffffffffffffffffffffffffffffffffffffff16815260200190815260200160002060009054906101000a900460ff16905092915050565b61116a6117c9565b600073ffffffffffffffffffffffffffffffffffffffff168173ffffffffffffffffffffffffffffffffffffffff16036111d9576040517f08c379a00000000000000000000000000000000000000000000000000000000081526004016111d0906138f8565b60405180910390fd5b6111e2816118a2565b50565b6000816040516020016111f89190613985565b604051602081830303815290604052805190602001209050919050565b60007f01ffc9a7000000000000000000000000000000000000000000000000000000007bffffffffffffffffffffffffffffffffffffffffffffffffffffffff1916827bffffffffffffffffffffffffffffffffffffffffffffffffffffffff1916149050919050565b61128881611788565b6112c7576040517f08c379a00000000000000000000000000000000000000000000000000000000081526004016112be90613382565b60405180910390fd5b50565b600033905090565b816004600083815260200190815260200160002060006101000a81548173ffffffffffffffffffffffffffffffffffffffff021916908373ffffffffffffffffffffffffffffffffffffffff160217905550808273ffffffffffffffffffffffffffffffffffffffff16611345836109a2565b73ffffffffffffffffffffffffffffffffffffffff167f8c5be1e5ebec7d5bd14f71427d1e84f3dd0314c0f7b2291e5b200ac8c7c3b92560405160405180910390a45050565b600080611397836109a2565b90508073ffffffffffffffffffffffffffffffffffffffff168473ffffffffffffffffffffffffffffffffffffffff1614806113d957506113d881856110ce565b5b8061141757508373ffffffffffffffffffffffffffffffffffffffff166113ff84610711565b73ffffffffffffffffffffffffffffffffffffffff16145b91505092915050565b8273ffffffffffffffffffffffffffffffffffffffff16611440826109a2565b73ffffffffffffffffffffffffffffffffffffffff1614611496576040517f08c379a000000000000000000000000000000000000000000000000000000000815260040161148d90613a1d565b60405180910390fd5b600073ffffffffffffffffffffffffffffffffffffffff168273ffffffffffffffffffffffffffffffffffffffff1603611505576040517f08c379a00000000000000000000000000000000000000000000000000000000081526004016114fc90613aaf565b60405180910390fd5b6115128383836001611e5f565b8273ffffffffffffffffffffffffffffffffffffffff16611532826109a2565b73ffffffffffffffffffffffffffffffffffffffff1614611588576040517f08c379a000000000000000000000000000000000000000000000000000000000815260040161157f90613a1d565b60405180910390fd5b6004600082815260200190815260200160002060006101000a81549073ffffffffffffffffffffffffffffffffffffffff02191690556001600360008573ffffffffffffffffffffffffffffffffffffffff1673ffffffffffffffffffffffffffffffffffffffff168152602001908152602001600020600082825403925050819055506001600360008473ffffffffffffffffffffffffffffffffffffffff1673ffffffffffffffffffffffffffffffffffffffff16815260200190815260200160002060008282540192505081905550816002600083815260200190815260200160002060006101000a81548173ffffffffffffffffffffffffffffffffffffffff021916908373ffffffffffffffffffffffffffffffffffffffff160217905550808273ffffffffffffffffffffffffffffffffffffffff168473ffffffffffffffffffffffffffffffffffffffff167fddf252ad1be2c89b69c2b068fc378daa952ba7f163c4a11628f55a4df523b3ef60405160405180910390a46117148383836001611e65565b505050565b60008060008061172885611e6b565b925092509250600186828585604051600081526020016040526040516117519493929190613aeb565b6020604051602081039080840390855afa158015611773573d6000803e3d6000fd5b50505060206040510351935050505092915050565b60008073ffffffffffffffffffffffffffffffffffffffff166117aa83611847565b73ffffffffffffffffffffffffffffffffffffffff1614159050919050565b6117d16112ca565b73ffffffffffffffffffffffffffffffffffffffff166117ef610cbb565b73ffffffffffffffffffffffffffffffffffffffff1614611845576040517f08c379a000000000000000000000000000000000000000000000000000000000815260040161183c90613b7c565b60405180910390fd5b565b60006002600083815260200190815260200160002060009054906101000a900473ffffffffffffffffffffffffffffffffffffffff169050919050565b61189e828260405180602001604052806000815250611ed3565b5050565b6000600660009054906101000a900473ffffffffffffffffffffffffffffffffffffffff16905081600660006101000a81548173ffffffffffffffffffffffffffffffffffffffff021916908373ffffffffffffffffffffffffffffffffffffffff1602179055508173ffffffffffffffffffffffffffffffffffffffff168173ffffffffffffffffffffffffffffffffffffffff167f8be0079c531659141344cd1fd0a4f28419497f9722a3daafe3b4186f6b6457e060405160405180910390a35050565b8173ffffffffffffffffffffffffffffffffffffffff168373ffffffffffffffffffffffffffffffffffffffff16036119d6576040517f08c379a00000000000000000000000000000000000000000000000000000000081526004016119cd90613be8565b60405180910390fd5b80600560008573ffffffffffffffffffffffffffffffffffffffff1673ffffffffffffffffffffffffffffffffffffffff16815260200190815260200160002060008473ffffffffffffffffffffffffffffffffffffffff1673ffffffffffffffffffffffffffffffffffffffff16815260200190815260200160002060006101000a81548160ff0219169083151502179055508173ffffffffffffffffffffffffffffffffffffffff168373ffffffffffffffffffffffffffffffffffffffff167f17307eab39ab6107e8899845ad3d59bd9653f200f220920489ca2b5937696c3183604051611ac791906124fc565b60405180910390a3505050565b600080611ae083610f32565b90506000611aed826111e5565b90508092505050919050565b606060006002836002611b0c9190613c08565b611b169190613c4a565b67ffffffffffffffff811115611b2f57611b2e612751565b5b6040519080825280601f01601f191660200182016040528015611b615781602001600182028036833780820191505090505b5090507f300000000000000000000000000000000000000000000000000000000000000081600081518110611b9957611b9861340e565b5b60200101907effffffffffffffffffffffffffffffffffffffffffffffffffffffffffffff1916908160001a9053507f780000000000000000000000000000000000000000000000000000000000000081600181518110611bfd57611bfc61340e565b5b60200101907effffffffffffffffffffffffffffffffffffffffffffffffffffffffffffff1916908160001a90535060006001846002611c3d9190613c08565b611c479190613c4a565b90505b6001811115611ce7577f3031323334353637383961626364656600000000000000000000000000000000600f861660108110611c8957611c8861340e565b5b1a60f81b828281518110611ca057611c9f61340e565b5b60200101907effffffffffffffffffffffffffffffffffffffffffffffffffffffffffffff1916908160001a905350600485901c945080611ce090613c7e565b9050611c4a565b5060008414611d2b576040517f08c379a0000000000000000000000000000000000000000000000000000000008152600401611d2290613cf3565b60405180910390fd5b8091505092915050565b611d40848484611420565b611d4c84848484611f2e565b611d8b576040517f08c379a0000000000000000000000000000000000000000000000000000000008152600401611d8290613d85565b60405180910390fd5b50505050565b606060006001611da0846120b5565b01905060008167ffffffffffffffff811115611dbf57611dbe612751565b5b6040519080825280601f01601f191660200182016040528015611df15781602001600182028036833780820191505090505b509050600082602001820190505b600115611e54578080600190039150507f3031323334353637383961626364656600000000000000000000000000000000600a86061a8153600a8581611e4857611e47613da5565b5b04945060008503611dff575b819350505050919050565b50505050565b50505050565b60008060006041845114611eb4576040517f08c379a0000000000000000000000000000000000000000000000000000000008152600401611eab90613e20565b60405180910390fd5b6020840151925060408401519150606084015160001a90509193909250565b611edd8383612208565b611eea6000848484611f2e565b611f29576040517f08c379a0000000000000000000000000000000000000000000000000000000008152600401611f2090613d85565b60405180910390fd5b505050565b6000611f4f8473ffffffffffffffffffffffffffffffffffffffff16612425565b156120a8578373ffffffffffffffffffffffffffffffffffffffff1663150b7a02611f786112ca565b8786866040518563ffffffff1660e01b8152600401611f9a9493929190613e40565b6020604051808303816000875af1925050508015611fd657506040513d601f19601f82011682018060405250810190611fd39190613ea1565b60015b612058573d8060008114612006576040519150601f19603f3d011682016040523d82523d6000602084013e61200b565b606091505b506000815103612050576040517f08c379a000000000000000000000000000000000000000000000000000000000815260040161204790613d85565b60405180910390fd5b805181602001fd5b63150b7a0260e01b7bffffffffffffffffffffffffffffffffffffffffffffffffffffffff1916817bffffffffffffffffffffffffffffffffffffffffffffffffffffffff1916149150506120ad565b600190505b949350505050565b600080600090507a184f03e93ff9f4daa797ed6e38ed64bf6a1f0100000000000000008310612113577a184f03e93ff9f4daa797ed6e38ed64bf6a1f010000000000000000838161210957612108613da5565b5b0492506040810190505b6d04ee2d6d415b85acef81000000008310612150576d04ee2d6d415b85acef8100000000838161214657612145613da5565b5b0492506020810190505b662386f26fc10000831061217f57662386f26fc10000838161217557612174613da5565b5b0492506010810190505b6305f5e10083106121a8576305f5e100838161219e5761219d613da5565b5b0492506008810190505b61271083106121cd5761271083816121c3576121c2613da5565b5b0492506004810190505b606483106121f057606483816121e6576121e5613da5565b5b0492506002810190505b600a83106121ff576001810190505b80915050919050565b600073ffffffffffffffffffffffffffffffffffffffff168273ffffffffffffffffffffffffffffffffffffffff1603612277576040517f08c379a000000000000000000000000000000000000000000000000000000000815260040161226e90613f1a565b60405180910390fd5b61228081611788565b156122c0576040517f08c379a00000000000000000000000000000000000000000000000000000000081526004016122b790613f86565b60405180910390fd5b6122ce600083836001611e5f565b6122d781611788565b15612317576040517f08c379a000000000000000000000000000000000000000000000000000000000815260040161230e90613f86565b60405180910390fd5b6001600360008473ffffffffffffffffffffffffffffffffffffffff1673ffffffffffffffffffffffffffffffffffffffff16815260200190815260200160002060008282540192505081905550816002600083815260200190815260200160002060006101000a81548173ffffffffffffffffffffffffffffffffffffffff021916908373ffffffffffffffffffffffffffffffffffffffff160217905550808273ffffffffffffffffffffffffffffffffffffffff16600073ffffffffffffffffffffffffffffffffffffffff167fddf252ad1be2c89b69c2b068fc378daa952ba7f163c4a11628f55a4df523b3ef60405160405180910390a4612421600083836001611e65565b5050565b6000808273ffffffffffffffffffffffffffffffffffffffff163b119050919050565b6000604051905090565b600080fd5b600080fd5b60007fffffffff0000000000000000000000000000000000000000000000000000000082169050919050565b6124918161245c565b811461249c57600080fd5b50565b6000813590506124ae81612488565b92915050565b6000602082840312156124ca576124c9612452565b5b60006124d88482850161249f565b91505092915050565b60008115159050919050565b6124f6816124e1565b82525050565b600060208201905061251160008301846124ed565b92915050565b600081519050919050565b600082825260208201905092915050565b60005b83811015612551578082015181840152602081019050612536565b60008484015250505050565b6000601f19601f8301169050919050565b600061257982612517565b6125838185612522565b9350612593818560208601612533565b61259c8161255d565b840191505092915050565b600060208201905081810360008301526125c1818461256e565b905092915050565b6000819050919050565b6125dc816125c9565b81146125e757600080fd5b50565b6000813590506125f9816125d3565b92915050565b60006020828403121561261557612614612452565b5b6000612623848285016125ea565b91505092915050565b600073ffffffffffffffffffffffffffffffffffffffff82169050919050565b60006126578261262c565b9050919050565b6126678161264c565b82525050565b6000602082019050612682600083018461265e565b92915050565b6126918161264c565b811461269c57600080fd5b50565b6000813590506126ae81612688565b92915050565b600080604083850312156126cb576126ca612452565b5b60006126d98582860161269f565b92505060206126ea858286016125ea565b9150509250929050565b60008060006060848603121561270d5761270c612452565b5b600061271b8682870161269f565b935050602061272c8682870161269f565b925050604061273d868287016125ea565b9150509250925092565b600080fd5b600080fd5b7f4e487b7100000000000000000000000000000000000000000000000000000000600052604160045260246000fd5b6127898261255d565b810181811067ffffffffffffffff821117156127a8576127a7612751565b5b80604052505050565b60006127bb612448565b90506127c78282612780565b919050565b600067ffffffffffffffff8211156127e7576127e6612751565b5b6127f08261255d565b9050602081019050919050565b82818337600083830152505050565b600061281f61281a846127cc565b6127b1565b90508281526020810184848401111561283b5761283a61274c565b5b6128468482856127fd565b509392505050565b600082601f83011261286357612862612747565b5b813561287384826020860161280c565b91505092915050565b600067ffffffffffffffff82111561289757612896612751565b5b6128a08261255d565b9050602081019050919050565b60006128c06128bb8461287c565b6127b1565b9050828152602081018484840111156128dc576128db61274c565b5b6128e78482856127fd565b509392505050565b600082601f83011261290457612903612747565b5b81356129148482602086016128ad565b91505092915050565b60008060006060848603121561293657612935612452565b5b60006129448682870161269f565b935050602084013567ffffffffffffffff81111561296557612964612457565b5b6129718682870161284e565b925050604084013567ffffffffffffffff81111561299257612991612457565b5b61299e868287016128ef565b9150509250925092565b600080fd5b600080fd5b60008083601f8401126129c8576129c7612747565b5b8235905067ffffffffffffffff8111156129e5576129e46129a8565b5b602083019150836001820283011115612a0157612a006129ad565b5b9250929050565b60008060208385031215612a1f57612a1e612452565b5b600083013567ffffffffffffffff811115612a3d57612a3c612457565b5b612a49858286016129b2565b92509250509250929050565b600060208284031215612a6b57612a6a612452565b5b6000612a798482850161269f565b91505092915050565b60008083601f840112612a9857612a97612747565b5b8235905067ffffffffffffffff811115612ab557612ab46129a8565b5b602083019150836020820283011115612ad157612ad06129ad565b5b9250929050565b60008083601f840112612aee57612aed612747565b5b8235905067ffffffffffffffff811115612b0b57612b0a6129a8565b5b602083019150836020820283011115612b2757612b266129ad565b5b9250929050565b60008060008060408587031215612b4857612b47612452565b5b600085013567ffffffffffffffff811115612b6657612b65612457565b5b612b7287828801612a82565b9450945050602085013567ffffffffffffffff811115612b9557612b94612457565b5b612ba187828801612ad8565b925092505092959194509250565b612bb8816125c9565b82525050565b6000602082019050612bd36000830184612baf565b92915050565b612be2816124e1565b8114612bed57600080fd5b50565b600081359050612bff81612bd9565b92915050565b60008060408385031215612c1c57612c1b612452565b5b6000612c2a8582860161269f565b9250506020612c3b85828601612bf0565b9150509250929050565b60008060008060808587031215612c5f57612c5e612452565b5b600085013567ffffffffffffffff811115612c7d57612c7c612457565b5b612c898782880161284e565b945050602085013567ffffffffffffffff811115612caa57612ca9612457565b5b612cb68782880161284e565b935050604085013567ffffffffffffffff811115612cd757612cd6612457565b5b612ce3878288016128ef565b9250506060612cf4878288016125ea565b91505092959194509250565b600060208284031215612d1657612d15612452565b5b600082013567ffffffffffffffff811115612d3457612d33612457565b5b612d408482850161284e565b91505092915050565b6000819050919050565b612d5c81612d49565b82525050565b6000602082019050612d776000830184612d53565b92915050565b60008060008060808587031215612d9757612d96612452565b5b6000612da58782880161269f565b9450506020612db68782880161269f565b9350506040612dc7878288016125ea565b925050606085013567ffffffffffffffff811115612de857612de7612457565b5b612df4878288016128ef565b91505092959194509250565b60008060408385031215612e1757612e16612452565b5b6000612e258582860161269f565b9250506020612e368582860161269f565b9150509250929050565b612e4981612d49565b8114612e5457600080fd5b50565b600081359050612e6681612e40565b92915050565b600060208284031215612e8257612e81612452565b5b6000612e9084828501612e57565b91505092915050565b7f4e487b7100000000000000000000000000000000000000000000000000000000600052602260045260246000fd5b60006002820490506001821680612ee057607f821691505b602082108103612ef357612ef2612e99565b5b50919050565b7f4552433732313a20617070726f76616c20746f2063757272656e74206f776e6560008201527f7200000000000000000000000000000000000000000000000000000000000000602082015250565b6000612f55602183612522565b9150612f6082612ef9565b604082019050919050565b60006020820190508181036000830152612f8481612f48565b9050919050565b7f4552433732313a20617070726f76652063616c6c6572206973206e6f7420746f60008201527f6b656e206f776e6572206f7220617070726f76656420666f7220616c6c000000602082015250565b6000612fe7603d83612522565b9150612ff282612f8b565b604082019050919050565b6000602082019050818103600083015261301681612fda565b9050919050565b7f4552433732313a2063616c6c6572206973206e6f7420746f6b656e206f776e6560008201527f72206f7220617070726f76656400000000000000000000000000000000000000602082015250565b6000613079602d83612522565b91506130848261301d565b604082019050919050565b600060208201905081810360008301526130a88161306c565b9050919050565b600082905092915050565b60008190508160005260206000209050919050565b60006020601f8301049050919050565b600082821b905092915050565b60006008830261311c7fffffffffffffffffffffffffffffffffffffffffffffffffffffffffffffffff826130df565b61312686836130df565b95508019841693508086168417925050509392505050565b6000819050919050565b600061316361315e613159846125c9565b61313e565b6125c9565b9050919050565b6000819050919050565b61317d83613148565b6131916131898261316a565b8484546130ec565b825550505050565b600090565b6131a6613199565b6131b1818484613174565b505050565b5b818110156131d5576131ca60008261319e565b6001810190506131b7565b5050565b601f82111561321a576131eb816130ba565b6131f4846130cf565b81016020851015613203578190505b61321761320f856130cf565b8301826131b6565b50505b505050565b600082821c905092915050565b600061323d6000198460080261321f565b1980831691505092915050565b6000613256838361322c565b9150826002028217905092915050565b61327083836130af565b67ffffffffffffffff81111561328957613288612751565b5b6132938254612ec8565b61329e8282856131d9565b6000601f8311600181146132cd57600084156132bb578287013590505b6132c5858261324a565b86555061332d565b601f1984166132db866130ba565b60005b82811015613303578489013582556001820191506020850194506020810190506132de565b86831015613320578489013561331c601f89168261322c565b8355505b6001600288020188555050505b50505050505050565b7f4552433732313a20696e76616c696420746f6b656e2049440000000000000000600082015250565b600061336c601883612522565b915061337782613336565b602082019050919050565b6000602082019050818103600083015261339b8161335f565b9050919050565b7f4172726179732073686f756c642068617665207468652073616d652073697a65600082015250565b60006133d8602083612522565b91506133e3826133a2565b602082019050919050565b60006020820190508181036000830152613407816133cb565b9050919050565b7f4e487b7100000000000000000000000000000000000000000000000000000000600052603260045260246000fd5b7f4e487b7100000000000000000000000000000000000000000000000000000000600052601160045260246000fd5b6000613477826125c9565b91507fffffffffffffffffffffffffffffffffffffffffffffffffffffffffffffffff82036134a9576134a861343d565b5b600182019050919050565b7f4552433732313a2061646472657373207a65726f206973206e6f74206120766160008201527f6c6964206f776e65720000000000000000000000000000000000000000000000602082015250565b6000613510602983612522565b915061351b826134b4565b604082019050919050565b6000602082019050818103600083015261353f81613503565b9050919050565b600081905092915050565b600061355c82612517565b6135668185613546565b9350613576818560208601612533565b80840191505092915050565b600061358e8284613551565b915081905092915050565b7f4d6573736167652068617368657320646f206e6f7420636f72726573706f6e64600082015250565b60006135cf602083612522565b91506135da82613599565b602082019050919050565b600060208201905081810360008301526135fe816135c2565b9050919050565b600081519050919050565b600082825260208201905092915050565b600061362c82613605565b6136368185613610565b9350613646818560208601612533565b61364f8161255d565b840191505092915050565b600060608201905061366f600083018661265e565b8181036020830152613681818561256e565b905081810360408301526136958184613621565b9050949350505050565b6000815190506136ae81612bd9565b92915050565b6000602082840312156136ca576136c9612452565b5b60006136d88482850161369f565b91505092915050565b7f496e76616c6964207369676e6572000000000000000000000000000000000000600082015250565b6000613717600e83612522565b9150613722826136e1565b602082019050919050565b600060208201905081810360008301526137468161370a565b9050919050565b7f4552433732314d657461646174613a2055524920717565727920666f72206e6f60008201527f6e6578697374656e7420746f6b656e0000000000000000000000000000000000602082015250565b60006137a9602f83612522565b91506137b48261374d565b604082019050919050565b600060208201905081810360008301526137d88161379c565b9050919050565b600081546137ec81612ec8565b6137f68186613546565b94506001821660008114613811576001811461382657613859565b60ff1983168652811515820286019350613859565b61382f856130ba565b60005b8381101561385157815481890152600182019150602081019050613832565b838801955050505b50505092915050565b600061386e82856137df565b915061387a8284613551565b91508190509392505050565b7f4f776e61626c653a206e6577206f776e657220697320746865207a65726f206160008201527f6464726573730000000000000000000000000000000000000000000000000000602082015250565b60006138e2602683612522565b91506138ed82613886565b604082019050919050565b60006020820190508181036000830152613911816138d5565b9050919050565b7f19457468657265756d205369676e6564204d6573736167653a0a333200000000600082015250565b600061394e601c83613546565b915061395982613918565b601c82019050919050565b6000819050919050565b61397f61397a82612d49565b613964565b82525050565b600061399082613941565b915061399c828461396e565b60208201915081905092915050565b7f4552433732313a207472616e736665722066726f6d20696e636f72726563742060008201527f6f776e6572000000000000000000000000000000000000000000000000000000602082015250565b6000613a07602583612522565b9150613a12826139ab565b604082019050919050565b60006020820190508181036000830152613a36816139fa565b9050919050565b7f4552433732313a207472616e7366657220746f20746865207a65726f2061646460008201527f7265737300000000000000000000000000000000000000000000000000000000602082015250565b6000613a99602483612522565b9150613aa482613a3d565b604082019050919050565b60006020820190508181036000830152613ac881613a8c565b9050919050565b600060ff82169050919050565b613ae581613acf565b82525050565b6000608082019050613b006000830187612d53565b613b0d6020830186613adc565b613b1a6040830185612d53565b613b276060830184612d53565b95945050505050565b7f4f776e61626c653a2063616c6c6572206973206e6f7420746865206f776e6572600082015250565b6000613b66602083612522565b9150613b7182613b30565b602082019050919050565b60006020820190508181036000830152613b9581613b59565b9050919050565b7f4552433732313a20617070726f766520746f2063616c6c657200000000000000600082015250565b6000613bd2601983612522565b9150613bdd82613b9c565b602082019050919050565b60006020820190508181036000830152613c0181613bc5565b9050919050565b6000613c13826125c9565b9150613c1e836125c9565b9250828202613c2c816125c9565b91508282048414831517613c4357613c4261343d565b5b5092915050565b6000613c55826125c9565b9150613c60836125c9565b9250828201905080821115613c7857613c7761343d565b5b92915050565b6000613c89826125c9565b915060008203613c9c57613c9b61343d565b5b600182039050919050565b7f537472696e67733a20686578206c656e67746820696e73756666696369656e74600082015250565b6000613cdd602083612522565b9150613ce882613ca7565b602082019050919050565b60006020820190508181036000830152613d0c81613cd0565b9050919050565b7f4552433732313a207472616e7366657220746f206e6f6e20455243373231526560008201527f63656976657220696d706c656d656e7465720000000000000000000000000000602082015250565b6000613d6f603283612522565b9150613d7a82613d13565b604082019050919050565b60006020820190508181036000830152613d9e81613d62565b9050919050565b7f4e487b7100000000000000000000000000000000000000000000000000000000600052601260045260246000fd5b7f496e76616c6964207369676e6174757265206c656e6774682100000000000000600082015250565b6000613e0a601983612522565b9150613e1582613dd4565b602082019050919050565b60006020820190508181036000830152613e3981613dfd565b9050919050565b6000608082019050613e55600083018761265e565b613e62602083018661265e565b613e6f6040830185612baf565b8181036060830152613e818184613621565b905095945050505050565b600081519050613e9b81612488565b92915050565b600060208284031215613eb757613eb6612452565b5b6000613ec584828501613e8c565b91505092915050565b7f4552433732313a206d696e7420746f20746865207a65726f2061646472657373600082015250565b6000613f04602083612522565b9150613f0f82613ece565b602082019050919050565b60006020820190508181036000830152613f3381613ef7565b9050919050565b7f4552433732313a20746f6b656e20616c7265616479206d696e74656400000000600082015250565b6000613f70601c83612522565b9150613f7b82613f3a565b602082019050919050565b60006020820190508181036000830152613f9f81613f63565b905091905056fea2646970667358221220ed75c65471fe92295c10fd97fe8f47d95c27272b4a0c4400ca0dfe84fe187c3064736f6c63430008120033",
  "linkReferences": {},
  "deployedLinkReferences": {}
}