{
  "_format": "hh-sol-artifact-1",
  "contractName": "ERC721PresetMinterPauserAutoIdCustomized",
  "sourceName": "contracts/ERC721PresetMinterPauserAutoIdCustomized.sol",
  "abi": [
    {
      "inputs": [
        {
          "internalType": "string",
          "name": "name",
          "type": "string"
        },
        {
          "internalType": "string",
          "name": "symbol",
          "type": "string"
        },
        {
          "internalType": "string",
          "name": "baseTokenURI",
          "type": "string"
        }
      ],
      "stateMutability": "nonpayable",
      "type": "constructor"
    },
    {
      "anonymous": false,
      "inputs": [
        {
          "indexed": true,
          "internalType": "address",
          "name": "owner",
          "type": "address"
        },
        {
          "indexed": true,
          "internalType": "address",
          "name": "approved",
          "type": "address"
        },
        {
          "indexed": true,
          "internalType": "uint256",
          "name": "tokenId",
          "type": "uint256"
        }
      ],
      "name": "Approval",
      "type": "event"
    },
    {
      "anonymous": false,
      "inputs": [
        {
          "indexed": true,
          "internalType": "address",
          "name": "owner",
          "type": "address"
        },
        {
          "indexed": true,
          "internalType": "address",
          "name": "operator",
          "type": "address"
        },
        {
          "indexed": false,
          "internalType": "bool",
          "name": "approved",
          "type": "bool"
        }
      ],
      "name": "ApprovalForAll",
      "type": "event"
    },
    {
      "anonymous": false,
      "inputs": [
        {
          "indexed": false,
          "internalType": "address",
          "name": "account",
          "type": "address"
        }
      ],
      "name": "Paused",
      "type": "event"
    },
    {
      "anonymous": false,
      "inputs": [
        {
          "indexed": true,
          "internalType": "bytes32",
          "name": "role",
          "type": "bytes32"
        },
        {
          "indexed": true,
          "internalType": "bytes32",
          "name": "previousAdminRole",
          "type": "bytes32"
        },
        {
          "indexed": true,
          "internalType": "bytes32",
          "name": "newAdminRole",
          "type": "bytes32"
        }
      ],
      "name": "RoleAdminChanged",
      "type": "event"
    },
    {
      "anonymous": false,
      "inputs": [
        {
          "indexed": true,
          "internalType": "bytes32",
          "name": "role",
          "type": "bytes32"
        },
        {
          "indexed": true,
          "internalType": "address",
          "name": "account",
          "type": "address"
        },
        {
          "indexed": true,
          "internalType": "address",
          "name": "sender",
          "type": "address"
        }
      ],
      "name": "RoleGranted",
      "type": "event"
    },
    {
      "anonymous": false,
      "inputs": [
        {
          "indexed": true,
          "internalType": "bytes32",
          "name": "role",
          "type": "bytes32"
        },
        {
          "indexed": true,
          "internalType": "address",
          "name": "account",
          "type": "address"
        },
        {
          "indexed": true,
          "internalType": "address",
          "name": "sender",
          "type": "address"
        }
      ],
      "name": "RoleRevoked",
      "type": "event"
    },
    {
      "anonymous": false,
      "inputs": [
        {
          "indexed": true,
          "internalType": "address",
          "name": "from",
          "type": "address"
        },
        {
          "indexed": true,
          "internalType": "address",
          "name": "to",
          "type": "address"
        },
        {
          "indexed": true,
          "internalType": "uint256",
          "name": "tokenId",
          "type": "uint256"
        }
      ],
      "name": "Transfer",
      "type": "event"
    },
    {
      "anonymous": false,
      "inputs": [
        {
          "indexed": false,
          "internalType": "address",
          "name": "account",
          "type": "address"
        }
      ],
      "name": "Unpaused",
      "type": "event"
    },
    {
      "inputs": [],
      "name": "DEFAULT_ADMIN_ROLE",
      "outputs": [
        {
          "internalType": "bytes32",
          "name": "",
          "type": "bytes32"
        }
      ],
      "stateMutability": "view",
      "type": "function"
    },
    {
      "inputs": [],
      "name": "MINTER_ROLE",
      "outputs": [
        {
          "internalType": "bytes32",
          "name": "",
          "type": "bytes32"
        }
      ],
      "stateMutability": "view",
      "type": "function"
    },
    {
      "inputs": [],
      "name": "PAUSER_ROLE",
      "outputs": [
        {
          "internalType": "bytes32",
          "name": "",
          "type": "bytes32"
        }
      ],
      "stateMutability": "view",
      "type": "function"
    },
    {
      "inputs": [
        {
          "internalType": "address",
          "name": "to",
          "type": "address"
        },
        {
          "internalType": "uint256",
          "name": "tokenId",
          "type": "uint256"
        }
      ],
      "name": "approve",
      "outputs": [],
      "stateMutability": "nonpayable",
      "type": "function"
    },
    {
      "inputs": [
        {
          "internalType": "address",
          "name": "owner",
          "type": "address"
        }
      ],
      "name": "balanceOf",
      "outputs": [
        {
          "internalType": "uint256",
          "name": "",
          "type": "uint256"
        }
      ],
      "stateMutability": "view",
      "type": "function"
    },
    {
      "inputs": [
        {
          "internalType": "uint256",
          "name": "tokenId",
          "type": "uint256"
        }
      ],
      "name": "burn",
      "outputs": [],
      "stateMutability": "nonpayable",
      "type": "function"
    },
    {
      "inputs": [
        {
          "internalType": "uint256",
          "name": "tokenId",
          "type": "uint256"
        }
      ],
      "name": "getApproved",
      "outputs": [
        {
          "internalType": "address",
          "name": "",
          "type": "address"
        }
      ],
      "stateMutability": "view",
      "type": "function"
    },
    {
      "inputs": [
        {
          "internalType": "bytes32",
          "name": "role",
          "type": "bytes32"
        }
      ],
      "name": "getRoleAdmin",
      "outputs": [
        {
          "internalType": "bytes32",
          "name": "",
          "type": "bytes32"
        }
      ],
      "stateMutability": "view",
      "type": "function"
    },
    {
      "inputs": [
        {
          "internalType": "bytes32",
          "name": "role",
          "type": "bytes32"
        },
        {
          "internalType": "uint256",
          "name": "index",
          "type": "uint256"
        }
      ],
      "name": "getRoleMember",
      "outputs": [
        {
          "internalType": "address",
          "name": "",
          "type": "address"
        }
      ],
      "stateMutability": "view",
      "type": "function"
    },
    {
      "inputs": [
        {
          "internalType": "bytes32",
          "name": "role",
          "type": "bytes32"
        }
      ],
      "name": "getRoleMemberCount",
      "outputs": [
        {
          "internalType": "uint256",
          "name": "",
          "type": "uint256"
        }
      ],
      "stateMutability": "view",
      "type": "function"
    },
    {
      "inputs": [
        {
          "internalType": "bytes32",
          "name": "role",
          "type": "bytes32"
        },
        {
          "internalType": "address",
          "name": "account",
          "type": "address"
        }
      ],
      "name": "grantRole",
      "outputs": [],
      "stateMutability": "nonpayable",
      "type": "function"
    },
    {
      "inputs": [
        {
          "internalType": "bytes32",
          "name": "role",
          "type": "bytes32"
        },
        {
          "internalType": "address",
          "name": "account",
          "type": "address"
        }
      ],
      "name": "hasRole",
      "outputs": [
        {
          "internalType": "bool",
          "name": "",
          "type": "bool"
        }
      ],
      "stateMutability": "view",
      "type": "function"
    },
    {
      "inputs": [
        {
          "internalType": "address",
          "name": "owner",
          "type": "address"
        },
        {
          "internalType": "address",
          "name": "operator",
          "type": "address"
        }
      ],
      "name": "isApprovedForAll",
      "outputs": [
        {
          "internalType": "bool",
          "name": "",
          "type": "bool"
        }
      ],
      "stateMutability": "view",
      "type": "function"
    },
    {
      "inputs": [
        {
          "internalType": "address",
          "name": "to",
          "type": "address"
        }
      ],
      "name": "mint",
      "outputs": [
        {
          "internalType": "uint256",
          "name": "_tokenId",
          "type": "uint256"
        }
      ],
      "stateMutability": "nonpayable",
      "type": "function"
    },
    {
      "inputs": [],
      "name": "name",
      "outputs": [
        {
          "internalType": "string",
          "name": "",
          "type": "string"
        }
      ],
      "stateMutability": "view",
      "type": "function"
    },
    {
      "inputs": [
        {
          "internalType": "uint256",
          "name": "tokenId",
          "type": "uint256"
        }
      ],
      "name": "ownerOf",
      "outputs": [
        {
          "internalType": "address",
          "name": "",
          "type": "address"
        }
      ],
      "stateMutability": "view",
      "type": "function"
    },
    {
      "inputs": [],
      "name": "pause",
      "outputs": [],
      "stateMutability": "nonpayable",
      "type": "function"
    },
    {
      "inputs": [],
      "name": "paused",
      "outputs": [
        {
          "internalType": "bool",
          "name": "",
          "type": "bool"
        }
      ],
      "stateMutability": "view",
      "type": "function"
    },
    {
      "inputs": [
        {
          "internalType": "bytes32",
          "name": "role",
          "type": "bytes32"
        },
        {
          "internalType": "address",
          "name": "account",
          "type": "address"
        }
      ],
      "name": "renounceRole",
      "outputs": [],
      "stateMutability": "nonpayable",
      "type": "function"
    },
    {
      "inputs": [
        {
          "internalType": "bytes32",
          "name": "role",
          "type": "bytes32"
        },
        {
          "internalType": "address",
          "name": "account",
          "type": "address"
        }
      ],
      "name": "revokeRole",
      "outputs": [],
      "stateMutability": "nonpayable",
      "type": "function"
    },
    {
      "inputs": [
        {
          "internalType": "address",
          "name": "from",
          "type": "address"
        },
        {
          "internalType": "address",
          "name": "to",
          "type": "address"
        },
        {
          "internalType": "uint256",
          "name": "tokenId",
          "type": "uint256"
        }
      ],
      "name": "safeTransferFrom",
      "outputs": [],
      "stateMutability": "nonpayable",
      "type": "function"
    },
    {
      "inputs": [
        {
          "internalType": "address",
          "name": "from",
          "type": "address"
        },
        {
          "internalType": "address",
          "name": "to",
          "type": "address"
        },
        {
          "internalType": "uint256",
          "name": "tokenId",
          "type": "uint256"
        },
        {
          "internalType": "bytes",
          "name": "data",
          "type": "bytes"
        }
      ],
      "name": "safeTransferFrom",
      "outputs": [],
      "stateMutability": "nonpayable",
      "type": "function"
    },
    {
      "inputs": [
        {
          "internalType": "address",
          "name": "operator",
          "type": "address"
        },
        {
          "internalType": "bool",
          "name": "approved",
          "type": "bool"
        }
      ],
      "name": "setApprovalForAll",
      "outputs": [],
      "stateMutability": "nonpayable",
      "type": "function"
    },
    {
      "inputs": [
        {
          "internalType": "string",
          "name": "baseTokenURI",
          "type": "string"
        }
      ],
      "name": "setBaseURI",
      "outputs": [],
      "stateMutability": "nonpayable",
      "type": "function"
    },
    {
      "inputs": [
        {
          "internalType": "bytes4",
          "name": "interfaceId",
          "type": "bytes4"
        }
      ],
      "name": "supportsInterface",
      "outputs": [
        {
          "internalType": "bool",
          "name": "",
          "type": "bool"
        }
      ],
      "stateMutability": "view",
      "type": "function"
    },
    {
      "inputs": [],
      "name": "symbol",
      "outputs": [
        {
          "internalType": "string",
          "name": "",
          "type": "string"
        }
      ],
      "stateMutability": "view",
      "type": "function"
    },
    {
      "inputs": [
        {
          "internalType": "uint256",
          "name": "index",
          "type": "uint256"
        }
      ],
      "name": "tokenByIndex",
      "outputs": [
        {
          "internalType": "uint256",
          "name": "",
          "type": "uint256"
        }
      ],
      "stateMutability": "view",
      "type": "function"
    },
    {
      "inputs": [
        {
          "internalType": "address",
          "name": "owner",
          "type": "address"
        },
        {
          "internalType": "uint256",
          "name": "index",
          "type": "uint256"
        }
      ],
      "name": "tokenOfOwnerByIndex",
      "outputs": [
        {
          "internalType": "uint256",
          "name": "",
          "type": "uint256"
        }
      ],
      "stateMutability": "view",
      "type": "function"
    },
    {
      "inputs": [
        {
          "internalType": "uint256",
          "name": "tokenId",
          "type": "uint256"
        }
      ],
      "name": "tokenURI",
      "outputs": [
        {
          "internalType": "string",
          "name": "",
          "type": "string"
        }
      ],
      "stateMutability": "view",
      "type": "function"
    },
    {
      "inputs": [],
      "name": "totalSupply",
      "outputs": [
        {
          "internalType": "uint256",
          "name": "",
          "type": "uint256"
        }
      ],
      "stateMutability": "view",
      "type": "function"
    },
    {
      "inputs": [
        {
          "internalType": "address",
          "name": "from",
          "type": "address"
        },
        {
          "internalType": "address",
          "name": "to",
          "type": "address"
        },
        {
          "internalType": "uint256",
          "name": "tokenId",
          "type": "uint256"
        }
      ],
      "name": "transferFrom",
      "outputs": [],
      "stateMutability": "nonpayable",
      "type": "function"
    },
    {
      "inputs": [],
      "name": "unpause",
      "outputs": [],
      "stateMutability": "nonpayable",
      "type": "function"
    }
  ],
  "bytecode": "0x60806040523480156200001157600080fd5b5060405162002c0a38038062002c0a8339810160408190526200003491620002fe565b828260026200004483826200041d565b5060036200005382826200041d565b5050600c805460ff1916905550600e6200006e82826200041d565b506200007c600033620000ec565b620000a87f9f2df0fed2c77648de5860a4cc508cd0818c85b8b8a1ab4ceeef8d981c8956a633620000ec565b620000d47f65d7a28e3265b37a6474929f336521b332c1681b933f6cb9f3376673440d862a33620000ec565b620000e3600d80546001019055565b505050620004e9565b620000f88282620000fc565b5050565b62000108828262000127565b6000828152600160205260409020620001229082620001c7565b505050565b6000828152602081815260408083206001600160a01b038516845290915290205460ff16620000f8576000828152602081815260408083206001600160a01b03851684529091529020805460ff19166001179055620001833390565b6001600160a01b0316816001600160a01b0316837f2f8788117e7eff1d82e926ec794901d17c78024a50270940304540a733656f0d60405160405180910390a45050565b6000620001de836001600160a01b038416620001e7565b90505b92915050565b60008181526001830160205260408120546200023057508154600181810184556000848152602080822090930184905584548482528286019093526040902091909155620001e1565b506000620001e1565b634e487b7160e01b600052604160045260246000fd5b600082601f8301126200026157600080fd5b81516001600160401b03808211156200027e576200027e62000239565b604051601f8301601f19908116603f01168101908282118183101715620002a957620002a962000239565b81604052838152602092508683858801011115620002c657600080fd5b600091505b83821015620002ea5785820183015181830184015290820190620002cb565b600093810190920192909252949350505050565b6000806000606084860312156200031457600080fd5b83516001600160401b03808211156200032c57600080fd5b6200033a878388016200024f565b945060208601519150808211156200035157600080fd5b6200035f878388016200024f565b935060408601519150808211156200037657600080fd5b5062000385868287016200024f565b9150509250925092565b600181811c90821680620003a457607f821691505b602082108103620003c557634e487b7160e01b600052602260045260246000fd5b50919050565b601f8211156200012257600081815260208120601f850160051c81016020861015620003f45750805b601f850160051c820191505b81811015620004155782815560010162000400565b505050505050565b81516001600160401b0381111562000439576200043962000239565b62000451816200044a84546200038f565b84620003cb565b602080601f831160018114620004895760008415620004705750858301515b600019600386901b1c1916600185901b17855562000415565b600085815260208120601f198616915b82811015620004ba5788860151825594840194600190910190840162000499565b5085821015620004d95787850151600019600388901b60f8161c191681555b5050505050600190811b01905550565b61271180620004f96000396000f3fe608060405234801561001057600080fd5b50600436106101f05760003560e01c80636352211e1161010f578063a22cb465116100a2578063d539139311610071578063d539139314610415578063d547741f1461043c578063e63ab1e91461044f578063e985e9c51461047657600080fd5b8063a22cb465146103c9578063b88d4fde146103dc578063c87b56dd146103ef578063ca15c8731461040257600080fd5b80639010d07c116100de5780639010d07c1461039357806391d14854146103a657806395d89b41146103b9578063a217fddf146103c157600080fd5b80636352211e146103525780636a6278421461036557806370a08231146103785780638456cb591461038b57600080fd5b80632f745c591161018757806342966c681161015657806342966c681461030e5780634f6ccce71461032157806355f804b3146103345780635c975abb1461034757600080fd5b80632f745c59146102cd57806336568abe146102e05780633f4ba83a146102f357806342842e0e146102fb57600080fd5b806318160ddd116101c357806318160ddd1461027257806323b872dd14610284578063248a9ca3146102975780632f2ff15d146102ba57600080fd5b806301ffc9a7146101f557806306fdde031461021d578063081812fc14610232578063095ea7b31461025d575b600080fd5b610208610203366004611fe5565b6104b2565b60405190151581526020015b60405180910390f35b6102256104dd565b6040516102149190612052565b610245610240366004612065565b61056f565b6040516001600160a01b039091168152602001610214565b61027061026b366004612095565b610596565b005b600a545b604051908152602001610214565b6102706102923660046120bf565b6106b0565b6102766102a5366004612065565b60009081526020819052604090206001015490565b6102706102c83660046120fb565b6106e2565b6102766102db366004612095565b610707565b6102706102ee3660046120fb565b61079d565b61027061081b565b6102706103093660046120bf565b6108c3565b61027061031c366004612065565b6108de565b61027661032f366004612065565b61090f565b6102706103423660046121b3565b6109a2565b600c5460ff16610208565b610245610360366004612065565b6109b9565b6102766103733660046121fc565b610a19565b6102766103863660046121fc565b610ac0565b610270610b46565b6102456103a1366004612217565b610bea565b6102086103b43660046120fb565b610c09565b610225610c32565b610276600081565b6102706103d7366004612239565b610c41565b6102706103ea366004612275565b610c4c565b6102256103fd366004612065565b610c84565b610276610410366004612065565b610cea565b6102767f9f2df0fed2c77648de5860a4cc508cd0818c85b8b8a1ab4ceeef8d981c8956a681565b61027061044a3660046120fb565b610d01565b6102767f65d7a28e3265b37a6474929f336521b332c1681b933f6cb9f3376673440d862a81565b6102086104843660046122f1565b6001600160a01b03918216600090815260076020908152604080832093909416825291909152205460ff1690565b60006001600160e01b0319821663d17f1b2160e01b14806104d757506104d782610d26565b92915050565b6060600280546104ec9061231b565b80601f01602080910402602001604051908101604052809291908181526020018280546105189061231b565b80156105655780601f1061053a57610100808354040283529160200191610565565b820191906000526020600020905b81548152906001019060200180831161054857829003601f168201915b5050505050905090565b600061057a82610d4b565b506000908152600660205260409020546001600160a01b031690565b60006105a1826109b9565b9050806001600160a01b0316836001600160a01b0316036106135760405162461bcd60e51b815260206004820152602160248201527f4552433732313a20617070726f76616c20746f2063757272656e74206f776e656044820152603960f91b60648201526084015b60405180910390fd5b336001600160a01b038216148061062f575061062f8133610484565b6106a15760405162461bcd60e51b815260206004820152603d60248201527f4552433732313a20617070726f76652063616c6c6572206973206e6f7420746f60448201527f6b656e206f776e6572206f7220617070726f76656420666f7220616c6c000000606482015260840161060a565b6106ab8383610daa565b505050565b6106bb335b82610e18565b6106d75760405162461bcd60e51b815260040161060a90612355565b6106ab838383610e97565b6000828152602081905260409020600101546106fd81611008565b6106ab8383611012565b600061071283610ac0565b82106107745760405162461bcd60e51b815260206004820152602b60248201527f455243373231456e756d657261626c653a206f776e657220696e646578206f7560448201526a74206f6620626f756e647360a81b606482015260840161060a565b506001600160a01b03919091166000908152600860209081526040808320938352929052205490565b6001600160a01b038116331461080d5760405162461bcd60e51b815260206004820152602f60248201527f416363657373436f6e74726f6c3a2063616e206f6e6c792072656e6f756e636560448201526e103937b632b9903337b91039b2b63360891b606482015260840161060a565b6108178282611034565b5050565b6108457f65d7a28e3265b37a6474929f336521b332c1681b933f6cb9f3376673440d862a33610c09565b6108b9576040805162461bcd60e51b81526020600482015260248101919091527f4552433732315072657365744d696e7465725061757365724175746f49643a2060448201527f6d75737420686176652070617573657220726f6c6520746f20756e7061757365606482015260840161060a565b6108c1611056565b565b6106ab83838360405180602001604052806000815250610c4c565b6108e7336106b5565b6109035760405162461bcd60e51b815260040161060a90612355565b61090c816110a8565b50565b600061091a600a5490565b821061097d5760405162461bcd60e51b815260206004820152602c60248201527f455243373231456e756d657261626c653a20676c6f62616c20696e646578206f60448201526b7574206f6620626f756e647360a01b606482015260840161060a565b600a8281548110610990576109906123a2565b90600052602060002001549050919050565b60006109ad81611008565b600e6106ab8382612406565b6000818152600460205260408120546001600160a01b0316806104d75760405162461bcd60e51b8152602060048201526018602482015277115490cdcc8c4e881a5b9d985b1a59081d1bdad95b88125160421b604482015260640161060a565b6000610a457f9f2df0fed2c77648de5860a4cc508cd0818c85b8b8a1ab4ceeef8d981c8956a633610c09565b610ab75760405162461bcd60e51b815260206004820152603d60248201527f4552433732315072657365744d696e7465725061757365724175746f49643a2060448201527f6d7573742068617665206d696e74657220726f6c6520746f206d696e74000000606482015260840161060a565b6104d78261114b565b60006001600160a01b038216610b2a5760405162461bcd60e51b815260206004820152602960248201527f4552433732313a2061646472657373207a65726f206973206e6f7420612076616044820152683634b21037bbb732b960b91b606482015260840161060a565b506001600160a01b031660009081526005602052604090205490565b610b707f65d7a28e3265b37a6474929f336521b332c1681b933f6cb9f3376673440d862a33610c09565b610be25760405162461bcd60e51b815260206004820152603e60248201527f4552433732315072657365744d696e7465725061757365724175746f49643a2060448201527f6d75737420686176652070617573657220726f6c6520746f2070617573650000606482015260840161060a565b6108c1611175565b6000828152600160205260408120610c0290836111b2565b9392505050565b6000918252602082815260408084206001600160a01b0393909316845291905290205460ff1690565b6060600380546104ec9061231b565b6108173383836111be565b610c563383610e18565b610c725760405162461bcd60e51b815260040161060a90612355565b610c7e8484848461128c565b50505050565b6060610c8f82610d4b565b6000610c996112bf565b90506000815111610cb95760405180602001604052806000815250610c02565b80610cc3846112ce565b604051602001610cd49291906124c6565b6040516020818303038152906040529392505050565b60008181526001602052604081206104d790611361565b600082815260208190526040902060010154610d1c81611008565b6106ab8383611034565b60006001600160e01b0319821663780e9d6360e01b14806104d757506104d78261136b565b6000818152600460205260409020546001600160a01b031661090c5760405162461bcd60e51b8152602060048201526018602482015277115490cdcc8c4e881a5b9d985b1a59081d1bdad95b88125160421b604482015260640161060a565b600081815260066020526040902080546001600160a01b0319166001600160a01b0384169081179091558190610ddf826109b9565b6001600160a01b03167f8c5be1e5ebec7d5bd14f71427d1e84f3dd0314c0f7b2291e5b200ac8c7c3b92560405160405180910390a45050565b600080610e24836109b9565b9050806001600160a01b0316846001600160a01b03161480610e6b57506001600160a01b0380821660009081526007602090815260408083209388168352929052205460ff165b80610e8f5750836001600160a01b0316610e848461056f565b6001600160a01b0316145b949350505050565b826001600160a01b0316610eaa826109b9565b6001600160a01b031614610ed05760405162461bcd60e51b815260040161060a906124f5565b6001600160a01b038216610f325760405162461bcd60e51b8152602060048201526024808201527f4552433732313a207472616e7366657220746f20746865207a65726f206164646044820152637265737360e01b606482015260840161060a565b610f3f83838360016113ab565b826001600160a01b0316610f52826109b9565b6001600160a01b031614610f785760405162461bcd60e51b815260040161060a906124f5565b600081815260066020908152604080832080546001600160a01b03199081169091556001600160a01b0387811680865260058552838620805460001901905590871680865283862080546001019055868652600490945282852080549092168417909155905184937fddf252ad1be2c89b69c2b068fc378daa952ba7f163c4a11628f55a4df523b3ef91a4505050565b61090c81336113b7565b61101c8282611410565b60008281526001602052604090206106ab9082611494565b61103e82826114a9565b60008281526001602052604090206106ab908261150e565b61105e611523565b600c805460ff191690557f5db9ee0a495bf2e6ff9c91a7834c1ba4fdd244a5e8aa4e537bd38aeae4b073aa335b6040516001600160a01b03909116815260200160405180910390a1565b60006110b3826109b9565b90506110c38160008460016113ab565b6110cc826109b9565b600083815260066020908152604080832080546001600160a01b03199081169091556001600160a01b0385168085526005845282852080546000190190558785526004909352818420805490911690555192935084927fddf252ad1be2c89b69c2b068fc378daa952ba7f163c4a11628f55a4df523b3ef908390a45050565b6000611156600d5490565b9050611162828261156c565b611170600d80546001019055565b919050565b61117d611705565b600c805460ff191660011790557f62e78cea01bee320cd4e420270b5ea74000d11b0c9f74754ebdbfc544b05a25861108b3390565b6000610c02838361174b565b816001600160a01b0316836001600160a01b03160361121f5760405162461bcd60e51b815260206004820152601960248201527f4552433732313a20617070726f766520746f2063616c6c657200000000000000604482015260640161060a565b6001600160a01b03838116600081815260076020908152604080832094871680845294825291829020805460ff191686151590811790915591519182527f17307eab39ab6107e8899845ad3d59bd9653f200f220920489ca2b5937696c31910160405180910390a3505050565b611297848484610e97565b6112a384848484611775565b610c7e5760405162461bcd60e51b815260040161060a9061253a565b6060600e80546104ec9061231b565b606060006112db83611876565b600101905060008167ffffffffffffffff8111156112fb576112fb612127565b6040519080825280601f01601f191660200182016040528015611325576020820181803683370190505b5090508181016020015b600019016f181899199a1a9b1b9c1cb0b131b232b360811b600a86061a8153600a850494508461132f57509392505050565b60006104d7825490565b60006001600160e01b031982166380ac58cd60e01b148061139c57506001600160e01b03198216635b5e139f60e01b145b806104d757506104d78261194e565b610c7e84848484611973565b6113c18282610c09565b610817576113ce816119e6565b6113d98360206119f8565b6040516020016113ea92919061258c565b60408051601f198184030181529082905262461bcd60e51b825261060a91600401612052565b61141a8282610c09565b610817576000828152602081815260408083206001600160a01b03851684529091529020805460ff191660011790556114503390565b6001600160a01b0316816001600160a01b0316837f2f8788117e7eff1d82e926ec794901d17c78024a50270940304540a733656f0d60405160405180910390a45050565b6000610c02836001600160a01b038416611b94565b6114b38282610c09565b15610817576000828152602081815260408083206001600160a01b0385168085529252808320805460ff1916905551339285917ff6391f5c32d9c69d2a47ea670b442974b53935d1edc7fd64eb21e047a839171b9190a45050565b6000610c02836001600160a01b038416611be3565b600c5460ff166108c15760405162461bcd60e51b815260206004820152601460248201527314185d5cd8589b194e881b9bdd081c185d5cd95960621b604482015260640161060a565b6001600160a01b0382166115c25760405162461bcd60e51b815260206004820181905260248201527f4552433732313a206d696e7420746f20746865207a65726f2061646472657373604482015260640161060a565b6000818152600460205260409020546001600160a01b0316156116275760405162461bcd60e51b815260206004820152601c60248201527f4552433732313a20746f6b656e20616c7265616479206d696e74656400000000604482015260640161060a565b6116356000838360016113ab565b6000818152600460205260409020546001600160a01b03161561169a5760405162461bcd60e51b815260206004820152601c60248201527f4552433732313a20746f6b656e20616c7265616479206d696e74656400000000604482015260640161060a565b6001600160a01b038216600081815260056020908152604080832080546001019055848352600490915280822080546001600160a01b0319168417905551839291907fddf252ad1be2c89b69c2b068fc378daa952ba7f163c4a11628f55a4df523b3ef908290a45050565b600c5460ff16156108c15760405162461bcd60e51b815260206004820152601060248201526f14185d5cd8589b194e881c185d5cd95960821b604482015260640161060a565b6000826000018281548110611762576117626123a2565b9060005260206000200154905092915050565b60006001600160a01b0384163b1561186b57604051630a85bd0160e11b81526001600160a01b0385169063150b7a02906117b9903390899088908890600401612601565b6020604051808303816000875af19250505080156117f4575060408051601f3d908101601f191682019092526117f19181019061263e565b60015b611851573d808015611822576040519150601f19603f3d011682016040523d82523d6000602084013e611827565b606091505b5080516000036118495760405162461bcd60e51b815260040161060a9061253a565b805181602001fd5b6001600160e01b031916630a85bd0160e11b149050610e8f565b506001949350505050565b60008072184f03e93ff9f4daa797ed6e38ed64bf6a1f0160401b83106118b55772184f03e93ff9f4daa797ed6e38ed64bf6a1f0160401b830492506040015b6d04ee2d6d415b85acef810000000083106118e1576d04ee2d6d415b85acef8100000000830492506020015b662386f26fc1000083106118ff57662386f26fc10000830492506010015b6305f5e1008310611917576305f5e100830492506008015b612710831061192b57612710830492506004015b6064831061193d576064830492506002015b600a83106104d75760010192915050565b60006001600160e01b03198216635a05180f60e01b14806104d757506104d782611cd6565b61197f84848484611d0b565b600c5460ff1615610c7e5760405162461bcd60e51b815260206004820152602b60248201527f4552433732315061757361626c653a20746f6b656e207472616e73666572207760448201526a1a1a5b19481c185d5cd95960aa1b606482015260840161060a565b60606104d76001600160a01b03831660145b60606000611a07836002612671565b611a12906002612688565b67ffffffffffffffff811115611a2a57611a2a612127565b6040519080825280601f01601f191660200182016040528015611a54576020820181803683370190505b509050600360fc1b81600081518110611a6f57611a6f6123a2565b60200101906001600160f81b031916908160001a905350600f60fb1b81600181518110611a9e57611a9e6123a2565b60200101906001600160f81b031916908160001a9053506000611ac2846002612671565b611acd906001612688565b90505b6001811115611b45576f181899199a1a9b1b9c1cb0b131b232b360811b85600f1660108110611b0157611b016123a2565b1a60f81b828281518110611b1757611b176123a2565b60200101906001600160f81b031916908160001a90535060049490941c93611b3e8161269b565b9050611ad0565b508315610c025760405162461bcd60e51b815260206004820181905260248201527f537472696e67733a20686578206c656e67746820696e73756666696369656e74604482015260640161060a565b6000818152600183016020526040812054611bdb575081546001818101845560008481526020808220909301849055845484825282860190935260409020919091556104d7565b5060006104d7565b60008181526001830160205260408120548015611ccc576000611c076001836126b2565b8554909150600090611c1b906001906126b2565b9050818114611c80576000866000018281548110611c3b57611c3b6123a2565b9060005260206000200154905080876000018481548110611c5e57611c5e6123a2565b6000918252602080832090910192909255918252600188019052604090208390555b8554869080611c9157611c916126c5565b6001900381819060005260206000200160009055905585600101600086815260200190815260200160002060009055600193505050506104d7565b60009150506104d7565b60006001600160e01b03198216637965db0b60e01b14806104d757506301ffc9a760e01b6001600160e01b03198316146104d7565b6001811115611d7a5760405162461bcd60e51b815260206004820152603560248201527f455243373231456e756d657261626c653a20636f6e7365637574697665207472604482015274185b9cd9995c9cc81b9bdd081cdd5c1c1bdc9d1959605a1b606482015260840161060a565b816001600160a01b038516611dd657611dd181600a80546000838152600b60205260408120829055600182018355919091527fc65a7bb8d6351c1cf70c95a316cc6a92839c986682d98bc35f958f4883f9d2a80155565b611df9565b836001600160a01b0316856001600160a01b031614611df957611df98582611e3f565b6001600160a01b038416611e1557611e1081611edc565b611e38565b846001600160a01b0316846001600160a01b031614611e3857611e388482611f8b565b5050505050565b60006001611e4c84610ac0565b611e5691906126b2565b600083815260096020526040902054909150808214611ea9576001600160a01b03841660009081526008602090815260408083208584528252808320548484528184208190558352600990915290208190555b5060009182526009602090815260408084208490556001600160a01b039094168352600881528383209183525290812055565b600a54600090611eee906001906126b2565b6000838152600b6020526040812054600a8054939450909284908110611f1657611f166123a2565b9060005260206000200154905080600a8381548110611f3757611f376123a2565b6000918252602080832090910192909255828152600b9091526040808220849055858252812055600a805480611f6f57611f6f6126c5565b6001900381819060005260206000200160009055905550505050565b6000611f9683610ac0565b6001600160a01b039093166000908152600860209081526040808320868452825280832085905593825260099052919091209190915550565b6001600160e01b03198116811461090c57600080fd5b600060208284031215611ff757600080fd5b8135610c0281611fcf565b60005b8381101561201d578181015183820152602001612005565b50506000910152565b6000815180845261203e816020860160208601612002565b601f01601f19169290920160200192915050565b602081526000610c026020830184612026565b60006020828403121561207757600080fd5b5035919050565b80356001600160a01b038116811461117057600080fd5b600080604083850312156120a857600080fd5b6120b18361207e565b946020939093013593505050565b6000806000606084860312156120d457600080fd5b6120dd8461207e565b92506120eb6020850161207e565b9150604084013590509250925092565b6000806040838503121561210e57600080fd5b8235915061211e6020840161207e565b90509250929050565b634e487b7160e01b600052604160045260246000fd5b600067ffffffffffffffff8084111561215857612158612127565b604051601f8501601f19908116603f0116810190828211818310171561218057612180612127565b8160405280935085815286868601111561219957600080fd5b858560208301376000602087830101525050509392505050565b6000602082840312156121c557600080fd5b813567ffffffffffffffff8111156121dc57600080fd5b8201601f810184136121ed57600080fd5b610e8f8482356020840161213d565b60006020828403121561220e57600080fd5b610c028261207e565b6000806040838503121561222a57600080fd5b50508035926020909101359150565b6000806040838503121561224c57600080fd5b6122558361207e565b91506020830135801515811461226a57600080fd5b809150509250929050565b6000806000806080858703121561228b57600080fd5b6122948561207e565b93506122a26020860161207e565b925060408501359150606085013567ffffffffffffffff8111156122c557600080fd5b8501601f810187136122d657600080fd5b6122e58782356020840161213d565b91505092959194509250565b6000806040838503121561230457600080fd5b61230d8361207e565b915061211e6020840161207e565b600181811c9082168061232f57607f821691505b60208210810361234f57634e487b7160e01b600052602260045260246000fd5b50919050565b6020808252602d908201527f4552433732313a2063616c6c6572206973206e6f7420746f6b656e206f776e6560408201526c1c881bdc88185c1c1c9bdd9959609a1b606082015260800190565b634e487b7160e01b600052603260045260246000fd5b601f8211156106ab57600081815260208120601f850160051c810160208610156123df5750805b601f850160051c820191505b818110156123fe578281556001016123eb565b505050505050565b815167ffffffffffffffff81111561242057612420612127565b6124348161242e845461231b565b846123b8565b602080601f83116001811461246957600084156124515750858301515b600019600386901b1c1916600185901b1785556123fe565b600085815260208120601f198616915b8281101561249857888601518255948401946001909101908401612479565b50858210156124b65787850151600019600388901b60f8161c191681555b5050505050600190811b01905550565b600083516124d8818460208801612002565b8351908301906124ec818360208801612002565b01949350505050565b60208082526025908201527f4552433732313a207472616e736665722066726f6d20696e636f72726563742060408201526437bbb732b960d91b606082015260800190565b60208082526032908201527f4552433732313a207472616e7366657220746f206e6f6e20455243373231526560408201527131b2b4bb32b91034b6b83632b6b2b73a32b960711b606082015260800190565b7f416363657373436f6e74726f6c3a206163636f756e74200000000000000000008152600083516125c4816017850160208801612002565b7001034b99036b4b9b9b4b733903937b6329607d1b60179184019182015283516125f5816028840160208801612002565b01602801949350505050565b6001600160a01b038581168252841660208201526040810183905260806060820181905260009061263490830184612026565b9695505050505050565b60006020828403121561265057600080fd5b8151610c0281611fcf565b634e487b7160e01b600052601160045260246000fd5b80820281158282048414176104d7576104d761265b565b808201808211156104d7576104d761265b565b6000816126aa576126aa61265b565b506000190190565b818103818111156104d7576104d761265b565b634e487b7160e01b600052603160045260246000fdfea2646970667358221220dfc9f23b77a2d06863a6b0d59f806812af3910c7b84815575bedf32f362acd2264736f6c63430008130033",
  "linkReferences": {},
  "deployedLinkReferences": {}
}