{
  "_format": "hh-sol-artifact-1",
  "contractName": "ERC721PresetMinterPauserAutoIdCustomized",
  "sourceName": "contracts/ERC721PresetMinterPauserAutoIdCustomized.sol",
  "abi": [
    {
      "inputs": [
        {
          "internalType": "string",
          "name": "name",
          "type": "string"
        },
        {
          "internalType": "string",
          "name": "symbol",
          "type": "string"
        },
        {
          "internalType": "string",
          "name": "baseTokenURI",
          "type": "string"
        }
      ],
      "stateMutability": "nonpayable",
      "type": "constructor"
    },
    {
      "anonymous": false,
      "inputs": [
        {
          "indexed": true,
          "internalType": "address",
          "name": "owner",
          "type": "address"
        },
        {
          "indexed": true,
          "internalType": "address",
          "name": "approved",
          "type": "address"
        },
        {
          "indexed": true,
          "internalType": "uint256",
          "name": "tokenId",
          "type": "uint256"
        }
      ],
      "name": "Approval",
      "type": "event"
    },
    {
      "anonymous": false,
      "inputs": [
        {
          "indexed": true,
          "internalType": "address",
          "name": "owner",
          "type": "address"
        },
        {
          "indexed": true,
          "internalType": "address",
          "name": "operator",
          "type": "address"
        },
        {
          "indexed": false,
          "internalType": "bool",
          "name": "approved",
          "type": "bool"
        }
      ],
      "name": "ApprovalForAll",
      "type": "event"
    },
    {
      "anonymous": false,
      "inputs": [
        {
          "indexed": false,
          "internalType": "address",
          "name": "account",
          "type": "address"
        }
      ],
      "name": "Paused",
      "type": "event"
    },
    {
      "anonymous": false,
      "inputs": [
        {
          "indexed": true,
          "internalType": "bytes32",
          "name": "role",
          "type": "bytes32"
        },
        {
          "indexed": true,
          "internalType": "bytes32",
          "name": "previousAdminRole",
          "type": "bytes32"
        },
        {
          "indexed": true,
          "internalType": "bytes32",
          "name": "newAdminRole",
          "type": "bytes32"
        }
      ],
      "name": "RoleAdminChanged",
      "type": "event"
    },
    {
      "anonymous": false,
      "inputs": [
        {
          "indexed": true,
          "internalType": "bytes32",
          "name": "role",
          "type": "bytes32"
        },
        {
          "indexed": true,
          "internalType": "address",
          "name": "account",
          "type": "address"
        },
        {
          "indexed": true,
          "internalType": "address",
          "name": "sender",
          "type": "address"
        }
      ],
      "name": "RoleGranted",
      "type": "event"
    },
    {
      "anonymous": false,
      "inputs": [
        {
          "indexed": true,
          "internalType": "bytes32",
          "name": "role",
          "type": "bytes32"
        },
        {
          "indexed": true,
          "internalType": "address",
          "name": "account",
          "type": "address"
        },
        {
          "indexed": true,
          "internalType": "address",
          "name": "sender",
          "type": "address"
        }
      ],
      "name": "RoleRevoked",
      "type": "event"
    },
    {
      "anonymous": false,
      "inputs": [
        {
          "indexed": true,
          "internalType": "address",
          "name": "from",
          "type": "address"
        },
        {
          "indexed": true,
          "internalType": "address",
          "name": "to",
          "type": "address"
        },
        {
          "indexed": true,
          "internalType": "uint256",
          "name": "tokenId",
          "type": "uint256"
        }
      ],
      "name": "Transfer",
      "type": "event"
    },
    {
      "anonymous": false,
      "inputs": [
        {
          "indexed": false,
          "internalType": "address",
          "name": "account",
          "type": "address"
        }
      ],
      "name": "Unpaused",
      "type": "event"
    },
    {
      "inputs": [],
      "name": "DEFAULT_ADMIN_ROLE",
      "outputs": [
        {
          "internalType": "bytes32",
          "name": "",
          "type": "bytes32"
        }
      ],
      "stateMutability": "view",
      "type": "function"
    },
    {
      "inputs": [],
      "name": "MINTER_ROLE",
      "outputs": [
        {
          "internalType": "bytes32",
          "name": "",
          "type": "bytes32"
        }
      ],
      "stateMutability": "view",
      "type": "function"
    },
    {
      "inputs": [],
      "name": "PAUSER_ROLE",
      "outputs": [
        {
          "internalType": "bytes32",
          "name": "",
          "type": "bytes32"
        }
      ],
      "stateMutability": "view",
      "type": "function"
    },
    {
      "inputs": [
        {
          "internalType": "address",
          "name": "to",
          "type": "address"
        },
        {
          "internalType": "uint256",
          "name": "tokenId",
          "type": "uint256"
        }
      ],
      "name": "approve",
      "outputs": [],
      "stateMutability": "nonpayable",
      "type": "function"
    },
    {
      "inputs": [
        {
          "internalType": "address",
          "name": "owner",
          "type": "address"
        }
      ],
      "name": "balanceOf",
      "outputs": [
        {
          "internalType": "uint256",
          "name": "",
          "type": "uint256"
        }
      ],
      "stateMutability": "view",
      "type": "function"
    },
    {
      "inputs": [
        {
          "internalType": "uint256",
          "name": "tokenId",
          "type": "uint256"
        }
      ],
      "name": "burn",
      "outputs": [],
      "stateMutability": "nonpayable",
      "type": "function"
    },
    {
      "inputs": [
        {
          "internalType": "uint256",
          "name": "tokenId",
          "type": "uint256"
        }
      ],
      "name": "getApproved",
      "outputs": [
        {
          "internalType": "address",
          "name": "",
          "type": "address"
        }
      ],
      "stateMutability": "view",
      "type": "function"
    },
    {
      "inputs": [
        {
          "internalType": "bytes32",
          "name": "role",
          "type": "bytes32"
        }
      ],
      "name": "getRoleAdmin",
      "outputs": [
        {
          "internalType": "bytes32",
          "name": "",
          "type": "bytes32"
        }
      ],
      "stateMutability": "view",
      "type": "function"
    },
    {
      "inputs": [
        {
          "internalType": "bytes32",
          "name": "role",
          "type": "bytes32"
        },
        {
          "internalType": "uint256",
          "name": "index",
          "type": "uint256"
        }
      ],
      "name": "getRoleMember",
      "outputs": [
        {
          "internalType": "address",
          "name": "",
          "type": "address"
        }
      ],
      "stateMutability": "view",
      "type": "function"
    },
    {
      "inputs": [
        {
          "internalType": "bytes32",
          "name": "role",
          "type": "bytes32"
        }
      ],
      "name": "getRoleMemberCount",
      "outputs": [
        {
          "internalType": "uint256",
          "name": "",
          "type": "uint256"
        }
      ],
      "stateMutability": "view",
      "type": "function"
    },
    {
      "inputs": [
        {
          "internalType": "bytes32",
          "name": "role",
          "type": "bytes32"
        },
        {
          "internalType": "address",
          "name": "account",
          "type": "address"
        }
      ],
      "name": "grantRole",
      "outputs": [],
      "stateMutability": "nonpayable",
      "type": "function"
    },
    {
      "inputs": [
        {
          "internalType": "bytes32",
          "name": "role",
          "type": "bytes32"
        },
        {
          "internalType": "address",
          "name": "account",
          "type": "address"
        }
      ],
      "name": "hasRole",
      "outputs": [
        {
          "internalType": "bool",
          "name": "",
          "type": "bool"
        }
      ],
      "stateMutability": "view",
      "type": "function"
    },
    {
      "inputs": [
        {
          "internalType": "address",
          "name": "owner",
          "type": "address"
        },
        {
          "internalType": "address",
          "name": "operator",
          "type": "address"
        }
      ],
      "name": "isApprovedForAll",
      "outputs": [
        {
          "internalType": "bool",
          "name": "",
          "type": "bool"
        }
      ],
      "stateMutability": "view",
      "type": "function"
    },
    {
      "inputs": [
        {
          "internalType": "address",
          "name": "to",
          "type": "address"
        }
      ],
      "name": "mint",
      "outputs": [
        {
          "internalType": "uint256",
          "name": "_tokenId",
          "type": "uint256"
        }
      ],
      "stateMutability": "nonpayable",
      "type": "function"
    },
    {
      "inputs": [],
      "name": "name",
      "outputs": [
        {
          "internalType": "string",
          "name": "",
          "type": "string"
        }
      ],
      "stateMutability": "view",
      "type": "function"
    },
    {
      "inputs": [
        {
          "internalType": "uint256",
          "name": "tokenId",
          "type": "uint256"
        }
      ],
      "name": "ownerOf",
      "outputs": [
        {
          "internalType": "address",
          "name": "",
          "type": "address"
        }
      ],
      "stateMutability": "view",
      "type": "function"
    },
    {
      "inputs": [],
      "name": "pause",
      "outputs": [],
      "stateMutability": "nonpayable",
      "type": "function"
    },
    {
      "inputs": [],
      "name": "paused",
      "outputs": [
        {
          "internalType": "bool",
          "name": "",
          "type": "bool"
        }
      ],
      "stateMutability": "view",
      "type": "function"
    },
    {
      "inputs": [
        {
          "internalType": "bytes32",
          "name": "role",
          "type": "bytes32"
        },
        {
          "internalType": "address",
          "name": "account",
          "type": "address"
        }
      ],
      "name": "renounceRole",
      "outputs": [],
      "stateMutability": "nonpayable",
      "type": "function"
    },
    {
      "inputs": [
        {
          "internalType": "bytes32",
          "name": "role",
          "type": "bytes32"
        },
        {
          "internalType": "address",
          "name": "account",
          "type": "address"
        }
      ],
      "name": "revokeRole",
      "outputs": [],
      "stateMutability": "nonpayable",
      "type": "function"
    },
    {
      "inputs": [
        {
          "internalType": "address",
          "name": "from",
          "type": "address"
        },
        {
          "internalType": "address",
          "name": "to",
          "type": "address"
        },
        {
          "internalType": "uint256",
          "name": "tokenId",
          "type": "uint256"
        }
      ],
      "name": "safeTransferFrom",
      "outputs": [],
      "stateMutability": "nonpayable",
      "type": "function"
    },
    {
      "inputs": [
        {
          "internalType": "address",
          "name": "from",
          "type": "address"
        },
        {
          "internalType": "address",
          "name": "to",
          "type": "address"
        },
        {
          "internalType": "uint256",
          "name": "tokenId",
          "type": "uint256"
        },
        {
          "internalType": "bytes",
          "name": "data",
          "type": "bytes"
        }
      ],
      "name": "safeTransferFrom",
      "outputs": [],
      "stateMutability": "nonpayable",
      "type": "function"
    },
    {
      "inputs": [
        {
          "internalType": "address",
          "name": "operator",
          "type": "address"
        },
        {
          "internalType": "bool",
          "name": "approved",
          "type": "bool"
        }
      ],
      "name": "setApprovalForAll",
      "outputs": [],
      "stateMutability": "nonpayable",
      "type": "function"
    },
    {
      "inputs": [
        {
          "internalType": "string",
          "name": "baseTokenURI",
          "type": "string"
        }
      ],
      "name": "setBaseURI",
      "outputs": [],
      "stateMutability": "nonpayable",
      "type": "function"
    },
    {
      "inputs": [
        {
          "internalType": "bytes4",
          "name": "interfaceId",
          "type": "bytes4"
        }
      ],
      "name": "supportsInterface",
      "outputs": [
        {
          "internalType": "bool",
          "name": "",
          "type": "bool"
        }
      ],
      "stateMutability": "view",
      "type": "function"
    },
    {
      "inputs": [],
      "name": "symbol",
      "outputs": [
        {
          "internalType": "string",
          "name": "",
          "type": "string"
        }
      ],
      "stateMutability": "view",
      "type": "function"
    },
    {
      "inputs": [
        {
          "internalType": "uint256",
          "name": "index",
          "type": "uint256"
        }
      ],
      "name": "tokenByIndex",
      "outputs": [
        {
          "internalType": "uint256",
          "name": "",
          "type": "uint256"
        }
      ],
      "stateMutability": "view",
      "type": "function"
    },
    {
      "inputs": [
        {
          "internalType": "address",
          "name": "owner",
          "type": "address"
        },
        {
          "internalType": "uint256",
          "name": "index",
          "type": "uint256"
        }
      ],
      "name": "tokenOfOwnerByIndex",
      "outputs": [
        {
          "internalType": "uint256",
          "name": "",
          "type": "uint256"
        }
      ],
      "stateMutability": "view",
      "type": "function"
    },
    {
      "inputs": [
        {
          "internalType": "uint256",
          "name": "tokenId",
          "type": "uint256"
        }
      ],
      "name": "tokenURI",
      "outputs": [
        {
          "internalType": "string",
          "name": "",
          "type": "string"
        }
      ],
      "stateMutability": "view",
      "type": "function"
    },
    {
      "inputs": [],
      "name": "totalSupply",
      "outputs": [
        {
          "internalType": "uint256",
          "name": "",
          "type": "uint256"
        }
      ],
      "stateMutability": "view",
      "type": "function"
    },
    {
      "inputs": [
        {
          "internalType": "address",
          "name": "from",
          "type": "address"
        },
        {
          "internalType": "address",
          "name": "to",
          "type": "address"
        },
        {
          "internalType": "uint256",
          "name": "tokenId",
          "type": "uint256"
        }
      ],
      "name": "transferFrom",
      "outputs": [],
      "stateMutability": "nonpayable",
      "type": "function"
    },
    {
      "inputs": [],
      "name": "unpause",
      "outputs": [],
      "stateMutability": "nonpayable",
      "type": "function"
    }
  ],
  "bytecode": "0x60806040523480156200001157600080fd5b506040516200549338038062005493833981810160405281019062000037919062000582565b828281600290816200004a919062000886565b5080600390816200005c919062000886565b5050506000600c60006101000a81548160ff02191690831515021790555080600e90816200008b919062000886565b50620000b06000801b620000a46200014d60201b60201c565b6200015560201b60201c565b620000f17f9f2df0fed2c77648de5860a4cc508cd0818c85b8b8a1ab4ceeef8d981c8956a6620000e56200014d60201b60201c565b6200015560201b60201c565b620001327f65d7a28e3265b37a6474929f336521b332c1681b933f6cb9f3376673440d862a620001266200014d60201b60201c565b6200015560201b60201c565b62000144600d6200016b60201b60201c565b5050506200096d565b600033905090565b6200016782826200018160201b60201c565b5050565b6001816000016000828254019250508190555050565b620001938282620001bf60201b60201c565b620001ba8160016000858152602001908152602001600020620002b060201b90919060201c565b505050565b620001d18282620002e860201b60201c565b620002ac57600160008084815260200190815260200160002060000160008373ffffffffffffffffffffffffffffffffffffffff1673ffffffffffffffffffffffffffffffffffffffff16815260200190815260200160002060006101000a81548160ff021916908315150217905550620002516200014d60201b60201c565b73ffffffffffffffffffffffffffffffffffffffff168173ffffffffffffffffffffffffffffffffffffffff16837f2f8788117e7eff1d82e926ec794901d17c78024a50270940304540a733656f0d60405160405180910390a45b5050565b6000620002e0836000018373ffffffffffffffffffffffffffffffffffffffff1660001b6200035260201b60201c565b905092915050565b600080600084815260200190815260200160002060000160008373ffffffffffffffffffffffffffffffffffffffff1673ffffffffffffffffffffffffffffffffffffffff16815260200190815260200160002060009054906101000a900460ff16905092915050565b6000620003668383620003cc60201b60201c565b620003c1578260000182908060018154018082558091505060019003906000526020600020016000909190919091505582600001805490508360010160008481526020019081526020016000208190555060019050620003c6565b600090505b92915050565b600080836001016000848152602001908152602001600020541415905092915050565b6000604051905090565b600080fd5b600080fd5b600080fd5b600080fd5b6000601f19601f8301169050919050565b7f4e487b7100000000000000000000000000000000000000000000000000000000600052604160045260246000fd5b62000458826200040d565b810181811067ffffffffffffffff821117156200047a57620004796200041e565b5b80604052505050565b60006200048f620003ef565b90506200049d82826200044d565b919050565b600067ffffffffffffffff821115620004c057620004bf6200041e565b5b620004cb826200040d565b9050602081019050919050565b60005b83811015620004f8578082015181840152602081019050620004db565b60008484015250505050565b60006200051b6200051584620004a2565b62000483565b9050828152602081018484840111156200053a576200053962000408565b5b62000547848285620004d8565b509392505050565b600082601f83011262000567576200056662000403565b5b81516200057984826020860162000504565b91505092915050565b6000806000606084860312156200059e576200059d620003f9565b5b600084015167ffffffffffffffff811115620005bf57620005be620003fe565b5b620005cd868287016200054f565b935050602084015167ffffffffffffffff811115620005f157620005f0620003fe565b5b620005ff868287016200054f565b925050604084015167ffffffffffffffff811115620006235762000622620003fe565b5b62000631868287016200054f565b9150509250925092565b600081519050919050565b7f4e487b7100000000000000000000000000000000000000000000000000000000600052602260045260246000fd5b600060028204905060018216806200068e57607f821691505b602082108103620006a457620006a362000646565b5b50919050565b60008190508160005260206000209050919050565b60006020601f8301049050919050565b600082821b905092915050565b6000600883026200070e7fffffffffffffffffffffffffffffffffffffffffffffffffffffffffffffffff82620006cf565b6200071a8683620006cf565b95508019841693508086168417925050509392505050565b6000819050919050565b6000819050919050565b600062000767620007616200075b8462000732565b6200073c565b62000732565b9050919050565b6000819050919050565b620007838362000746565b6200079b62000792826200076e565b848454620006dc565b825550505050565b600090565b620007b2620007a3565b620007bf81848462000778565b505050565b5b81811015620007e757620007db600082620007a8565b600181019050620007c5565b5050565b601f82111562000836576200080081620006aa565b6200080b84620006bf565b810160208510156200081b578190505b620008336200082a85620006bf565b830182620007c4565b50505b505050565b600082821c905092915050565b60006200085b600019846008026200083b565b1980831691505092915050565b600062000876838362000848565b9150826002028217905092915050565b62000891826200063b565b67ffffffffffffffff811115620008ad57620008ac6200041e565b5b620008b9825462000675565b620008c6828285620007eb565b600060209050601f831160018114620008fe5760008415620008e9578287015190505b620008f5858262000868565b86555062000965565b601f1984166200090e86620006aa565b60005b82811015620009385784890151825560018201915060208501945060208101905062000911565b8683101562000958578489015162000954601f89168262000848565b8355505b6001600288020188555050505b505050505050565b614b16806200097d6000396000f3fe608060405234801561001057600080fd5b50600436106101f05760003560e01c80636352211e1161010f578063a22cb465116100a2578063d539139311610071578063d5391393146105db578063d547741f146105f9578063e63ab1e914610615578063e985e9c514610633576101f0565b8063a22cb46514610543578063b88d4fde1461055f578063c87b56dd1461057b578063ca15c873146105ab576101f0565b80639010d07c116100de5780639010d07c146104a757806391d14854146104d757806395d89b4114610507578063a217fddf14610525576101f0565b80636352211e1461040d5780636a6278421461043d57806370a082311461046d5780638456cb591461049d576101f0565b80632f745c591161018757806342966c681161015657806342966c68146103875780634f6ccce7146103a357806355f804b3146103d35780635c975abb146103ef576101f0565b80632f745c591461031557806336568abe146103455780633f4ba83a1461036157806342842e0e1461036b576101f0565b806318160ddd116101c357806318160ddd1461028f57806323b872dd146102ad578063248a9ca3146102c95780632f2ff15d146102f9576101f0565b806301ffc9a7146101f557806306fdde0314610225578063081812fc14610243578063095ea7b314610273575b600080fd5b61020f600480360381019061020a9190613197565b610663565b60405161021c91906131df565b60405180910390f35b61022d6106dd565b60405161023a919061328a565b60405180910390f35b61025d600480360381019061025891906132e2565b61076f565b60405161026a9190613350565b60405180910390f35b61028d60048036038101906102889190613397565b6107b5565b005b6102976108cc565b6040516102a491906133e6565b60405180910390f35b6102c760048036038101906102c29190613401565b6108d9565b005b6102e360048036038101906102de919061348a565b610939565b6040516102f091906134c6565b60405180910390f35b610313600480360381019061030e91906134e1565b610958565b005b61032f600480360381019061032a9190613397565b610979565b60405161033c91906133e6565b60405180910390f35b61035f600480360381019061035a91906134e1565b610a1e565b005b610369610aa1565b005b61038560048036038101906103809190613401565b610b1b565b005b6103a1600480360381019061039c91906132e2565b610b3b565b005b6103bd60048036038101906103b891906132e2565b610b97565b6040516103ca91906133e6565b60405180910390f35b6103ed60048036038101906103e89190613656565b610c08565b005b6103f7610c29565b60405161040491906131df565b60405180910390f35b610427600480360381019061042291906132e2565b610c40565b6040516104349190613350565b60405180910390f35b6104576004803603810190610452919061369f565b610cc6565b60405161046491906133e6565b60405180910390f35b6104876004803603810190610482919061369f565b610d48565b60405161049491906133e6565b60405180910390f35b6104a5610dff565b005b6104c160048036038101906104bc91906136cc565b610e79565b6040516104ce9190613350565b60405180910390f35b6104f160048036038101906104ec91906134e1565b610ea8565b6040516104fe91906131df565b60405180910390f35b61050f610f12565b60405161051c919061328a565b60405180910390f35b61052d610fa4565b60405161053a91906134c6565b60405180910390f35b61055d60048036038101906105589190613738565b610fab565b005b61057960048036038101906105749190613819565b610fc1565b005b610595600480360381019061059091906132e2565b611023565b6040516105a2919061328a565b60405180910390f35b6105c560048036038101906105c0919061348a565b61108b565b6040516105d291906133e6565b60405180910390f35b6105e36110af565b6040516105f091906134c6565b60405180910390f35b610613600480360381019061060e91906134e1565b6110d3565b005b61061d6110f4565b60405161062a91906134c6565b60405180910390f35b61064d6004803603810190610648919061389c565b611118565b60405161065a91906131df565b60405180910390f35b60007fd17f1b21000000000000000000000000000000000000000000000000000000007bffffffffffffffffffffffffffffffffffffffffffffffffffffffff1916827bffffffffffffffffffffffffffffffffffffffffffffffffffffffff191614806106d657506106d5826111ac565b5b9050919050565b6060600280546106ec9061390b565b80601f01602080910402602001604051908101604052809291908181526020018280546107189061390b565b80156107655780601f1061073a57610100808354040283529160200191610765565b820191906000526020600020905b81548152906001019060200180831161074857829003601f168201915b5050505050905090565b600061077a82611226565b6006600083815260200190815260200160002060009054906101000a900473ffffffffffffffffffffffffffffffffffffffff169050919050565b60006107c082610c40565b90508073ffffffffffffffffffffffffffffffffffffffff168373ffffffffffffffffffffffffffffffffffffffff1603610830576040517f08c379a0000000000000000000000000000000000000000000000000000000008152600401610827906139ae565b60405180910390fd5b8073ffffffffffffffffffffffffffffffffffffffff1661084f611271565b73ffffffffffffffffffffffffffffffffffffffff16148061087e575061087d81610878611271565b611118565b5b6108bd576040517f08c379a00000000000000000000000000000000000000000000000000000000081526004016108b490613a40565b60405180910390fd5b6108c78383611279565b505050565b6000600a80549050905090565b6108ea6108e4611271565b82611332565b610929576040517f08c379a000000000000000000000000000000000000000000000000000000000815260040161092090613ad2565b60405180910390fd5b6109348383836113c7565b505050565b6000806000838152602001908152602001600020600101549050919050565b61096182610939565b61096a816116c0565b61097483836116d4565b505050565b600061098483610d48565b82106109c5576040517f08c379a00000000000000000000000000000000000000000000000000000000081526004016109bc90613b64565b60405180910390fd5b600860008473ffffffffffffffffffffffffffffffffffffffff1673ffffffffffffffffffffffffffffffffffffffff168152602001908152602001600020600083815260200190815260200160002054905092915050565b610a26611271565b73ffffffffffffffffffffffffffffffffffffffff168173ffffffffffffffffffffffffffffffffffffffff1614610a93576040517f08c379a0000000000000000000000000000000000000000000000000000000008152600401610a8a90613bf6565b60405180910390fd5b610a9d8282611708565b5050565b610ad27f65d7a28e3265b37a6474929f336521b332c1681b933f6cb9f3376673440d862a610acd611271565b610ea8565b610b11576040517f08c379a0000000000000000000000000000000000000000000000000000000008152600401610b0890613c88565b60405180910390fd5b610b1961173c565b565b610b3683838360405180602001604052806000815250610fc1565b505050565b610b4c610b46611271565b82611332565b610b8b576040517f08c379a0000000000000000000000000000000000000000000000000000000008152600401610b8290613ad2565b60405180910390fd5b610b948161179f565b50565b6000610ba16108cc565b8210610be2576040517f08c379a0000000000000000000000000000000000000000000000000000000008152600401610bd990613d1a565b60405180910390fd5b600a8281548110610bf657610bf5613d3a565b5b90600052602060002001549050919050565b6000801b610c15816116c0565b81600e9081610c249190613f15565b505050565b6000600c60009054906101000a900460ff16905090565b600080610c4c836118ed565b9050600073ffffffffffffffffffffffffffffffffffffffff168173ffffffffffffffffffffffffffffffffffffffff1603610cbd576040517f08c379a0000000000000000000000000000000000000000000000000000000008152600401610cb490614033565b60405180910390fd5b80915050919050565b6000610cf97f9f2df0fed2c77648de5860a4cc508cd0818c85b8b8a1ab4ceeef8d981c8956a6610cf4611271565b610ea8565b610d38576040517f08c379a0000000000000000000000000000000000000000000000000000000008152600401610d2f906140c5565b60405180910390fd5b610d418261192a565b9050919050565b60008073ffffffffffffffffffffffffffffffffffffffff168273ffffffffffffffffffffffffffffffffffffffff1603610db8576040517f08c379a0000000000000000000000000000000000000000000000000000000008152600401610daf90614157565b60405180910390fd5b600560008373ffffffffffffffffffffffffffffffffffffffff1673ffffffffffffffffffffffffffffffffffffffff168152602001908152602001600020549050919050565b610e307f65d7a28e3265b37a6474929f336521b332c1681b933f6cb9f3376673440d862a610e2b611271565b610ea8565b610e6f576040517f08c379a0000000000000000000000000000000000000000000000000000000008152600401610e66906141e9565b60405180910390fd5b610e77611951565b565b6000610ea082600160008681526020019081526020016000206119b490919063ffffffff16565b905092915050565b600080600084815260200190815260200160002060000160008373ffffffffffffffffffffffffffffffffffffffff1673ffffffffffffffffffffffffffffffffffffffff16815260200190815260200160002060009054906101000a900460ff16905092915050565b606060038054610f219061390b565b80601f0160208091040260200160405190810160405280929190818152602001828054610f4d9061390b565b8015610f9a5780601f10610f6f57610100808354040283529160200191610f9a565b820191906000526020600020905b815481529060010190602001808311610f7d57829003601f168201915b5050505050905090565b6000801b81565b610fbd610fb6611271565b83836119ce565b5050565b610fd2610fcc611271565b83611332565b611011576040517f08c379a000000000000000000000000000000000000000000000000000000000815260040161100890613ad2565b60405180910390fd5b61101d84848484611b3a565b50505050565b606061102e82611226565b6000611038611b96565b905060008151116110585760405180602001604052806000815250611083565b8061106284611c28565b604051602001611073929190614245565b6040516020818303038152906040525b915050919050565b60006110a860016000848152602001908152602001600020611cf6565b9050919050565b7f9f2df0fed2c77648de5860a4cc508cd0818c85b8b8a1ab4ceeef8d981c8956a681565b6110dc82610939565b6110e5816116c0565b6110ef8383611708565b505050565b7f65d7a28e3265b37a6474929f336521b332c1681b933f6cb9f3376673440d862a81565b6000600760008473ffffffffffffffffffffffffffffffffffffffff1673ffffffffffffffffffffffffffffffffffffffff16815260200190815260200160002060008373ffffffffffffffffffffffffffffffffffffffff1673ffffffffffffffffffffffffffffffffffffffff16815260200190815260200160002060009054906101000a900460ff16905092915050565b60007f780e9d63000000000000000000000000000000000000000000000000000000007bffffffffffffffffffffffffffffffffffffffffffffffffffffffff1916827bffffffffffffffffffffffffffffffffffffffffffffffffffffffff1916148061121f575061121e82611d0b565b5b9050919050565b61122f81611ded565b61126e576040517f08c379a000000000000000000000000000000000000000000000000000000000815260040161126590614033565b60405180910390fd5b50565b600033905090565b816006600083815260200190815260200160002060006101000a81548173ffffffffffffffffffffffffffffffffffffffff021916908373ffffffffffffffffffffffffffffffffffffffff160217905550808273ffffffffffffffffffffffffffffffffffffffff166112ec83610c40565b73ffffffffffffffffffffffffffffffffffffffff167f8c5be1e5ebec7d5bd14f71427d1e84f3dd0314c0f7b2291e5b200ac8c7c3b92560405160405180910390a45050565b60008061133e83610c40565b90508073ffffffffffffffffffffffffffffffffffffffff168473ffffffffffffffffffffffffffffffffffffffff161480611380575061137f8185611118565b5b806113be57508373ffffffffffffffffffffffffffffffffffffffff166113a68461076f565b73ffffffffffffffffffffffffffffffffffffffff16145b91505092915050565b8273ffffffffffffffffffffffffffffffffffffffff166113e782610c40565b73ffffffffffffffffffffffffffffffffffffffff161461143d576040517f08c379a0000000000000000000000000000000000000000000000000000000008152600401611434906142db565b60405180910390fd5b600073ffffffffffffffffffffffffffffffffffffffff168273ffffffffffffffffffffffffffffffffffffffff16036114ac576040517f08c379a00000000000000000000000000000000000000000000000000000000081526004016114a39061436d565b60405180910390fd5b6114b98383836001611e2e565b8273ffffffffffffffffffffffffffffffffffffffff166114d982610c40565b73ffffffffffffffffffffffffffffffffffffffff161461152f576040517f08c379a0000000000000000000000000000000000000000000000000000000008152600401611526906142db565b60405180910390fd5b6006600082815260200190815260200160002060006101000a81549073ffffffffffffffffffffffffffffffffffffffff02191690556001600560008573ffffffffffffffffffffffffffffffffffffffff1673ffffffffffffffffffffffffffffffffffffffff168152602001908152602001600020600082825403925050819055506001600560008473ffffffffffffffffffffffffffffffffffffffff1673ffffffffffffffffffffffffffffffffffffffff16815260200190815260200160002060008282540192505081905550816004600083815260200190815260200160002060006101000a81548173ffffffffffffffffffffffffffffffffffffffff021916908373ffffffffffffffffffffffffffffffffffffffff160217905550808273ffffffffffffffffffffffffffffffffffffffff168473ffffffffffffffffffffffffffffffffffffffff167fddf252ad1be2c89b69c2b068fc378daa952ba7f163c4a11628f55a4df523b3ef60405160405180910390a46116bb8383836001611e40565b505050565b6116d1816116cc611271565b611e46565b50565b6116de8282611ecb565b6117038160016000858152602001908152602001600020611fab90919063ffffffff16565b505050565b6117128282611fdb565b61173781600160008581526020019081526020016000206120bc90919063ffffffff16565b505050565b6117446120ec565b6000600c60006101000a81548160ff0219169083151502179055507f5db9ee0a495bf2e6ff9c91a7834c1ba4fdd244a5e8aa4e537bd38aeae4b073aa611788611271565b6040516117959190613350565b60405180910390a1565b60006117aa82610c40565b90506117ba816000846001611e2e565b6117c382610c40565b90506006600083815260200190815260200160002060006101000a81549073ffffffffffffffffffffffffffffffffffffffff02191690556001600560008373ffffffffffffffffffffffffffffffffffffffff1673ffffffffffffffffffffffffffffffffffffffff168152602001908152602001600020600082825403925050819055506004600083815260200190815260200160002060006101000a81549073ffffffffffffffffffffffffffffffffffffffff021916905581600073ffffffffffffffffffffffffffffffffffffffff168273ffffffffffffffffffffffffffffffffffffffff167fddf252ad1be2c89b69c2b068fc378daa952ba7f163c4a11628f55a4df523b3ef60405160405180910390a46118e9816000846001611e40565b5050565b60006004600083815260200190815260200160002060009054906101000a900473ffffffffffffffffffffffffffffffffffffffff169050919050565b6000611936600d612135565b90506119428282612143565b61194c600d612360565b919050565b611959612376565b6001600c60006101000a81548160ff0219169083151502179055507f62e78cea01bee320cd4e420270b5ea74000d11b0c9f74754ebdbfc544b05a25861199d611271565b6040516119aa9190613350565b60405180910390a1565b60006119c383600001836123c0565b60001c905092915050565b8173ffffffffffffffffffffffffffffffffffffffff168373ffffffffffffffffffffffffffffffffffffffff1603611a3c576040517f08c379a0000000000000000000000000000000000000000000000000000000008152600401611a33906143d9565b60405180910390fd5b80600760008573ffffffffffffffffffffffffffffffffffffffff1673ffffffffffffffffffffffffffffffffffffffff16815260200190815260200160002060008473ffffffffffffffffffffffffffffffffffffffff1673ffffffffffffffffffffffffffffffffffffffff16815260200190815260200160002060006101000a81548160ff0219169083151502179055508173ffffffffffffffffffffffffffffffffffffffff168373ffffffffffffffffffffffffffffffffffffffff167f17307eab39ab6107e8899845ad3d59bd9653f200f220920489ca2b5937696c3183604051611b2d91906131df565b60405180910390a3505050565b611b458484846113c7565b611b51848484846123eb565b611b90576040517f08c379a0000000000000000000000000000000000000000000000000000000008152600401611b879061446b565b60405180910390fd5b50505050565b6060600e8054611ba59061390b565b80601f0160208091040260200160405190810160405280929190818152602001828054611bd19061390b565b8015611c1e5780601f10611bf357610100808354040283529160200191611c1e565b820191906000526020600020905b815481529060010190602001808311611c0157829003601f168201915b5050505050905090565b606060006001611c3784612572565b01905060008167ffffffffffffffff811115611c5657611c5561352b565b5b6040519080825280601f01601f191660200182016040528015611c885781602001600182028036833780820191505090505b509050600082602001820190505b600115611ceb578080600190039150507f3031323334353637383961626364656600000000000000000000000000000000600a86061a8153600a8581611cdf57611cde61448b565b5b04945060008503611c96575b819350505050919050565b6000611d04826000016126c5565b9050919050565b60007f80ac58cd000000000000000000000000000000000000000000000000000000007bffffffffffffffffffffffffffffffffffffffffffffffffffffffff1916827bffffffffffffffffffffffffffffffffffffffffffffffffffffffff19161480611dd657507f5b5e139f000000000000000000000000000000000000000000000000000000007bffffffffffffffffffffffffffffffffffffffffffffffffffffffff1916827bffffffffffffffffffffffffffffffffffffffffffffffffffffffff1916145b80611de65750611de5826126d6565b5b9050919050565b60008073ffffffffffffffffffffffffffffffffffffffff16611e0f836118ed565b73ffffffffffffffffffffffffffffffffffffffff1614159050919050565b611e3a84848484612750565b50505050565b50505050565b611e508282610ea8565b611ec757611e5d816127aa565b611e6b8360001c60206127d7565b604051602001611e7c929190614552565b6040516020818303038152906040526040517f08c379a0000000000000000000000000000000000000000000000000000000008152600401611ebe919061328a565b60405180910390fd5b5050565b611ed58282610ea8565b611fa757600160008084815260200190815260200160002060000160008373ffffffffffffffffffffffffffffffffffffffff1673ffffffffffffffffffffffffffffffffffffffff16815260200190815260200160002060006101000a81548160ff021916908315150217905550611f4c611271565b73ffffffffffffffffffffffffffffffffffffffff168173ffffffffffffffffffffffffffffffffffffffff16837f2f8788117e7eff1d82e926ec794901d17c78024a50270940304540a733656f0d60405160405180910390a45b5050565b6000611fd3836000018373ffffffffffffffffffffffffffffffffffffffff1660001b612a13565b905092915050565b611fe58282610ea8565b156120b857600080600084815260200190815260200160002060000160008373ffffffffffffffffffffffffffffffffffffffff1673ffffffffffffffffffffffffffffffffffffffff16815260200190815260200160002060006101000a81548160ff02191690831515021790555061205d611271565b73ffffffffffffffffffffffffffffffffffffffff168173ffffffffffffffffffffffffffffffffffffffff16837ff6391f5c32d9c69d2a47ea670b442974b53935d1edc7fd64eb21e047a839171b60405160405180910390a45b5050565b60006120e4836000018373ffffffffffffffffffffffffffffffffffffffff1660001b612a83565b905092915050565b6120f4610c29565b612133576040517f08c379a000000000000000000000000000000000000000000000000000000000815260040161212a906145d8565b60405180910390fd5b565b600081600001549050919050565b600073ffffffffffffffffffffffffffffffffffffffff168273ffffffffffffffffffffffffffffffffffffffff16036121b2576040517f08c379a00000000000000000000000000000000000000000000000000000000081526004016121a990614644565b60405180910390fd5b6121bb81611ded565b156121fb576040517f08c379a00000000000000000000000000000000000000000000000000000000081526004016121f2906146b0565b60405180910390fd5b612209600083836001611e2e565b61221281611ded565b15612252576040517f08c379a0000000000000000000000000000000000000000000000000000000008152600401612249906146b0565b60405180910390fd5b6001600560008473ffffffffffffffffffffffffffffffffffffffff1673ffffffffffffffffffffffffffffffffffffffff16815260200190815260200160002060008282540192505081905550816004600083815260200190815260200160002060006101000a81548173ffffffffffffffffffffffffffffffffffffffff021916908373ffffffffffffffffffffffffffffffffffffffff160217905550808273ffffffffffffffffffffffffffffffffffffffff16600073ffffffffffffffffffffffffffffffffffffffff167fddf252ad1be2c89b69c2b068fc378daa952ba7f163c4a11628f55a4df523b3ef60405160405180910390a461235c600083836001611e40565b5050565b6001816000016000828254019250508190555050565b61237e610c29565b156123be576040517f08c379a00000000000000000000000000000000000000000000000000000000081526004016123b59061471c565b60405180910390fd5b565b60008260000182815481106123d8576123d7613d3a565b5b9060005260206000200154905092915050565b600061240c8473ffffffffffffffffffffffffffffffffffffffff16612b97565b15612565578373ffffffffffffffffffffffffffffffffffffffff1663150b7a02612435611271565b8786866040518563ffffffff1660e01b81526004016124579493929190614791565b6020604051808303816000875af192505050801561249357506040513d601f19601f8201168201806040525081019061249091906147f2565b60015b612515573d80600081146124c3576040519150601f19603f3d011682016040523d82523d6000602084013e6124c8565b606091505b50600081510361250d576040517f08c379a00000000000000000000000000000000000000000000000000000000081526004016125049061446b565b60405180910390fd5b805181602001fd5b63150b7a0260e01b7bffffffffffffffffffffffffffffffffffffffffffffffffffffffff1916817bffffffffffffffffffffffffffffffffffffffffffffffffffffffff19161491505061256a565b600190505b949350505050565b600080600090507a184f03e93ff9f4daa797ed6e38ed64bf6a1f01000000000000000083106125d0577a184f03e93ff9f4daa797ed6e38ed64bf6a1f01000000000000000083816125c6576125c561448b565b5b0492506040810190505b6d04ee2d6d415b85acef8100000000831061260d576d04ee2d6d415b85acef810000000083816126035761260261448b565b5b0492506020810190505b662386f26fc10000831061263c57662386f26fc1000083816126325761263161448b565b5b0492506010810190505b6305f5e1008310612665576305f5e100838161265b5761265a61448b565b5b0492506008810190505b612710831061268a5761271083816126805761267f61448b565b5b0492506004810190505b606483106126ad57606483816126a3576126a261448b565b5b0492506002810190505b600a83106126bc576001810190505b80915050919050565b600081600001805490509050919050565b60007f5a05180f000000000000000000000000000000000000000000000000000000007bffffffffffffffffffffffffffffffffffffffffffffffffffffffff1916827bffffffffffffffffffffffffffffffffffffffffffffffffffffffff19161480612749575061274882612bba565b5b9050919050565b61275c84848484612c34565b612764610c29565b156127a4576040517f08c379a000000000000000000000000000000000000000000000000000000000815260040161279b90614891565b60405180910390fd5b50505050565b60606127d08273ffffffffffffffffffffffffffffffffffffffff16601460ff166127d7565b9050919050565b6060600060028360026127ea91906148e0565b6127f49190614922565b67ffffffffffffffff81111561280d5761280c61352b565b5b6040519080825280601f01601f19166020018201604052801561283f5781602001600182028036833780820191505090505b5090507f30000000000000000000000000000000000000000000000000000000000000008160008151811061287757612876613d3a565b5b60200101907effffffffffffffffffffffffffffffffffffffffffffffffffffffffffffff1916908160001a9053507f7800000000000000000000000000000000000000000000000000000000000000816001815181106128db576128da613d3a565b5b60200101907effffffffffffffffffffffffffffffffffffffffffffffffffffffffffffff1916908160001a9053506000600184600261291b91906148e0565b6129259190614922565b90505b60018111156129c5577f3031323334353637383961626364656600000000000000000000000000000000600f86166010811061296757612966613d3a565b5b1a60f81b82828151811061297e5761297d613d3a565b5b60200101907effffffffffffffffffffffffffffffffffffffffffffffffffffffffffffff1916908160001a905350600485901c9450806129be90614956565b9050612928565b5060008414612a09576040517f08c379a0000000000000000000000000000000000000000000000000000000008152600401612a00906149cb565b60405180910390fd5b8091505092915050565b6000612a1f8383612d92565b612a78578260000182908060018154018082558091505060019003906000526020600020016000909190919091505582600001805490508360010160008481526020019081526020016000208190555060019050612a7d565b600090505b92915050565b60008083600101600084815260200190815260200160002054905060008114612b8b576000600182612ab591906149eb565b9050600060018660000180549050612acd91906149eb565b9050818114612b3c576000866000018281548110612aee57612aed613d3a565b5b9060005260206000200154905080876000018481548110612b1257612b11613d3a565b5b90600052602060002001819055508387600101600083815260200190815260200160002081905550505b85600001805480612b5057612b4f614a1f565b5b600190038181906000526020600020016000905590558560010160008681526020019081526020016000206000905560019350505050612b91565b60009150505b92915050565b6000808273ffffffffffffffffffffffffffffffffffffffff163b119050919050565b60007f7965db0b000000000000000000000000000000000000000000000000000000007bffffffffffffffffffffffffffffffffffffffffffffffffffffffff1916827bffffffffffffffffffffffffffffffffffffffffffffffffffffffff19161480612c2d5750612c2c82612db5565b5b9050919050565b612c4084848484612e1f565b6001811115612c84576040517f08c379a0000000000000000000000000000000000000000000000000000000008152600401612c7b90614ac0565b60405180910390fd5b6000829050600073ffffffffffffffffffffffffffffffffffffffff168573ffffffffffffffffffffffffffffffffffffffff1603612ccb57612cc681612e25565b612d0a565b8373ffffffffffffffffffffffffffffffffffffffff168573ffffffffffffffffffffffffffffffffffffffff1614612d0957612d088582612e6e565b5b5b600073ffffffffffffffffffffffffffffffffffffffff168473ffffffffffffffffffffffffffffffffffffffff1603612d4c57612d4781612fdb565b612d8b565b8473ffffffffffffffffffffffffffffffffffffffff168473ffffffffffffffffffffffffffffffffffffffff1614612d8a57612d8984826130ac565b5b5b5050505050565b600080836001016000848152602001908152602001600020541415905092915050565b60007f01ffc9a7000000000000000000000000000000000000000000000000000000007bffffffffffffffffffffffffffffffffffffffffffffffffffffffff1916827bffffffffffffffffffffffffffffffffffffffffffffffffffffffff1916149050919050565b50505050565b600a80549050600b600083815260200190815260200160002081905550600a81908060018154018082558091505060019003906000526020600020016000909190919091505550565b60006001612e7b84610d48565b612e8591906149eb565b9050600060096000848152602001908152602001600020549050818114612f6a576000600860008673ffffffffffffffffffffffffffffffffffffffff1673ffffffffffffffffffffffffffffffffffffffff168152602001908152602001600020600084815260200190815260200160002054905080600860008773ffffffffffffffffffffffffffffffffffffffff1673ffffffffffffffffffffffffffffffffffffffff168152602001908152602001600020600084815260200190815260200160002081905550816009600083815260200190815260200160002081905550505b6009600084815260200190815260200160002060009055600860008573ffffffffffffffffffffffffffffffffffffffff1673ffffffffffffffffffffffffffffffffffffffff16815260200190815260200160002060008381526020019081526020016000206000905550505050565b60006001600a80549050612fef91906149eb565b90506000600b60008481526020019081526020016000205490506000600a838154811061301f5761301e613d3a565b5b9060005260206000200154905080600a838154811061304157613040613d3a565b5b906000526020600020018190555081600b600083815260200190815260200160002081905550600b600085815260200190815260200160002060009055600a8054806130905761308f614a1f565b5b6001900381819060005260206000200160009055905550505050565b60006130b783610d48565b905081600860008573ffffffffffffffffffffffffffffffffffffffff1673ffffffffffffffffffffffffffffffffffffffff168152602001908152602001600020600083815260200190815260200160002081905550806009600084815260200190815260200160002081905550505050565b6000604051905090565b600080fd5b600080fd5b60007fffffffff0000000000000000000000000000000000000000000000000000000082169050919050565b6131748161313f565b811461317f57600080fd5b50565b6000813590506131918161316b565b92915050565b6000602082840312156131ad576131ac613135565b5b60006131bb84828501613182565b91505092915050565b60008115159050919050565b6131d9816131c4565b82525050565b60006020820190506131f460008301846131d0565b92915050565b600081519050919050565b600082825260208201905092915050565b60005b83811015613234578082015181840152602081019050613219565b60008484015250505050565b6000601f19601f8301169050919050565b600061325c826131fa565b6132668185613205565b9350613276818560208601613216565b61327f81613240565b840191505092915050565b600060208201905081810360008301526132a48184613251565b905092915050565b6000819050919050565b6132bf816132ac565b81146132ca57600080fd5b50565b6000813590506132dc816132b6565b92915050565b6000602082840312156132f8576132f7613135565b5b6000613306848285016132cd565b91505092915050565b600073ffffffffffffffffffffffffffffffffffffffff82169050919050565b600061333a8261330f565b9050919050565b61334a8161332f565b82525050565b60006020820190506133656000830184613341565b92915050565b6133748161332f565b811461337f57600080fd5b50565b6000813590506133918161336b565b92915050565b600080604083850312156133ae576133ad613135565b5b60006133bc85828601613382565b92505060206133cd858286016132cd565b9150509250929050565b6133e0816132ac565b82525050565b60006020820190506133fb60008301846133d7565b92915050565b60008060006060848603121561341a57613419613135565b5b600061342886828701613382565b935050602061343986828701613382565b925050604061344a868287016132cd565b9150509250925092565b6000819050919050565b61346781613454565b811461347257600080fd5b50565b6000813590506134848161345e565b92915050565b6000602082840312156134a05761349f613135565b5b60006134ae84828501613475565b91505092915050565b6134c081613454565b82525050565b60006020820190506134db60008301846134b7565b92915050565b600080604083850312156134f8576134f7613135565b5b600061350685828601613475565b925050602061351785828601613382565b9150509250929050565b600080fd5b600080fd5b7f4e487b7100000000000000000000000000000000000000000000000000000000600052604160045260246000fd5b61356382613240565b810181811067ffffffffffffffff821117156135825761358161352b565b5b80604052505050565b600061359561312b565b90506135a1828261355a565b919050565b600067ffffffffffffffff8211156135c1576135c061352b565b5b6135ca82613240565b9050602081019050919050565b82818337600083830152505050565b60006135f96135f4846135a6565b61358b565b90508281526020810184848401111561361557613614613526565b5b6136208482856135d7565b509392505050565b600082601f83011261363d5761363c613521565b5b813561364d8482602086016135e6565b91505092915050565b60006020828403121561366c5761366b613135565b5b600082013567ffffffffffffffff81111561368a5761368961313a565b5b61369684828501613628565b91505092915050565b6000602082840312156136b5576136b4613135565b5b60006136c384828501613382565b91505092915050565b600080604083850312156136e3576136e2613135565b5b60006136f185828601613475565b9250506020613702858286016132cd565b9150509250929050565b613715816131c4565b811461372057600080fd5b50565b6000813590506137328161370c565b92915050565b6000806040838503121561374f5761374e613135565b5b600061375d85828601613382565b925050602061376e85828601613723565b9150509250929050565b600067ffffffffffffffff8211156137935761379261352b565b5b61379c82613240565b9050602081019050919050565b60006137bc6137b784613778565b61358b565b9050828152602081018484840111156137d8576137d7613526565b5b6137e38482856135d7565b509392505050565b600082601f830112613800576137ff613521565b5b81356138108482602086016137a9565b91505092915050565b6000806000806080858703121561383357613832613135565b5b600061384187828801613382565b945050602061385287828801613382565b9350506040613863878288016132cd565b925050606085013567ffffffffffffffff8111156138845761388361313a565b5b613890878288016137eb565b91505092959194509250565b600080604083850312156138b3576138b2613135565b5b60006138c185828601613382565b92505060206138d285828601613382565b9150509250929050565b7f4e487b7100000000000000000000000000000000000000000000000000000000600052602260045260246000fd5b6000600282049050600182168061392357607f821691505b602082108103613936576139356138dc565b5b50919050565b7f4552433732313a20617070726f76616c20746f2063757272656e74206f776e6560008201527f7200000000000000000000000000000000000000000000000000000000000000602082015250565b6000613998602183613205565b91506139a38261393c565b604082019050919050565b600060208201905081810360008301526139c78161398b565b9050919050565b7f4552433732313a20617070726f76652063616c6c6572206973206e6f7420746f60008201527f6b656e206f776e6572206f7220617070726f76656420666f7220616c6c000000602082015250565b6000613a2a603d83613205565b9150613a35826139ce565b604082019050919050565b60006020820190508181036000830152613a5981613a1d565b9050919050565b7f4552433732313a2063616c6c6572206973206e6f7420746f6b656e206f776e6560008201527f72206f7220617070726f76656400000000000000000000000000000000000000602082015250565b6000613abc602d83613205565b9150613ac782613a60565b604082019050919050565b60006020820190508181036000830152613aeb81613aaf565b9050919050565b7f455243373231456e756d657261626c653a206f776e657220696e646578206f7560008201527f74206f6620626f756e6473000000000000000000000000000000000000000000602082015250565b6000613b4e602b83613205565b9150613b5982613af2565b604082019050919050565b60006020820190508181036000830152613b7d81613b41565b9050919050565b7f416363657373436f6e74726f6c3a2063616e206f6e6c792072656e6f756e636560008201527f20726f6c657320666f722073656c660000000000000000000000000000000000602082015250565b6000613be0602f83613205565b9150613beb82613b84565b604082019050919050565b60006020820190508181036000830152613c0f81613bd3565b9050919050565b7f4552433732315072657365744d696e7465725061757365724175746f49643a2060008201527f6d75737420686176652070617573657220726f6c6520746f20756e7061757365602082015250565b6000613c72604083613205565b9150613c7d82613c16565b604082019050919050565b60006020820190508181036000830152613ca181613c65565b9050919050565b7f455243373231456e756d657261626c653a20676c6f62616c20696e646578206f60008201527f7574206f6620626f756e64730000000000000000000000000000000000000000602082015250565b6000613d04602c83613205565b9150613d0f82613ca8565b604082019050919050565b60006020820190508181036000830152613d3381613cf7565b9050919050565b7f4e487b7100000000000000000000000000000000000000000000000000000000600052603260045260246000fd5b60008190508160005260206000209050919050565b60006020601f8301049050919050565b600082821b905092915050565b600060088302613dcb7fffffffffffffffffffffffffffffffffffffffffffffffffffffffffffffffff82613d8e565b613dd58683613d8e565b95508019841693508086168417925050509392505050565b6000819050919050565b6000613e12613e0d613e08846132ac565b613ded565b6132ac565b9050919050565b6000819050919050565b613e2c83613df7565b613e40613e3882613e19565b848454613d9b565b825550505050565b600090565b613e55613e48565b613e60818484613e23565b505050565b5b81811015613e8457613e79600082613e4d565b600181019050613e66565b5050565b601f821115613ec957613e9a81613d69565b613ea384613d7e565b81016020851015613eb2578190505b613ec6613ebe85613d7e565b830182613e65565b50505b505050565b600082821c905092915050565b6000613eec60001984600802613ece565b1980831691505092915050565b6000613f058383613edb565b9150826002028217905092915050565b613f1e826131fa565b67ffffffffffffffff811115613f3757613f3661352b565b5b613f41825461390b565b613f4c828285613e88565b600060209050601f831160018114613f7f5760008415613f6d578287015190505b613f778582613ef9565b865550613fdf565b601f198416613f8d86613d69565b60005b82811015613fb557848901518255600182019150602085019450602081019050613f90565b86831015613fd25784890151613fce601f891682613edb565b8355505b6001600288020188555050505b505050505050565b7f4552433732313a20696e76616c696420746f6b656e2049440000000000000000600082015250565b600061401d601883613205565b915061402882613fe7565b602082019050919050565b6000602082019050818103600083015261404c81614010565b9050919050565b7f4552433732315072657365744d696e7465725061757365724175746f49643a2060008201527f6d7573742068617665206d696e74657220726f6c6520746f206d696e74000000602082015250565b60006140af603d83613205565b91506140ba82614053565b604082019050919050565b600060208201905081810360008301526140de816140a2565b9050919050565b7f4552433732313a2061646472657373207a65726f206973206e6f74206120766160008201527f6c6964206f776e65720000000000000000000000000000000000000000000000602082015250565b6000614141602983613205565b915061414c826140e5565b604082019050919050565b6000602082019050818103600083015261417081614134565b9050919050565b7f4552433732315072657365744d696e7465725061757365724175746f49643a2060008201527f6d75737420686176652070617573657220726f6c6520746f2070617573650000602082015250565b60006141d3603e83613205565b91506141de82614177565b604082019050919050565b60006020820190508181036000830152614202816141c6565b9050919050565b600081905092915050565b600061421f826131fa565b6142298185614209565b9350614239818560208601613216565b80840191505092915050565b60006142518285614214565b915061425d8284614214565b91508190509392505050565b7f4552433732313a207472616e736665722066726f6d20696e636f72726563742060008201527f6f776e6572000000000000000000000000000000000000000000000000000000602082015250565b60006142c5602583613205565b91506142d082614269565b604082019050919050565b600060208201905081810360008301526142f4816142b8565b9050919050565b7f4552433732313a207472616e7366657220746f20746865207a65726f2061646460008201527f7265737300000000000000000000000000000000000000000000000000000000602082015250565b6000614357602483613205565b9150614362826142fb565b604082019050919050565b600060208201905081810360008301526143868161434a565b9050919050565b7f4552433732313a20617070726f766520746f2063616c6c657200000000000000600082015250565b60006143c3601983613205565b91506143ce8261438d565b602082019050919050565b600060208201905081810360008301526143f2816143b6565b9050919050565b7f4552433732313a207472616e7366657220746f206e6f6e20455243373231526560008201527f63656976657220696d706c656d656e7465720000000000000000000000000000602082015250565b6000614455603283613205565b9150614460826143f9565b604082019050919050565b6000602082019050818103600083015261448481614448565b9050919050565b7f4e487b7100000000000000000000000000000000000000000000000000000000600052601260045260246000fd5b7f416363657373436f6e74726f6c3a206163636f756e7420000000000000000000600082015250565b60006144f0601783614209565b91506144fb826144ba565b601782019050919050565b7f206973206d697373696e6720726f6c6520000000000000000000000000000000600082015250565b600061453c601183614209565b915061454782614506565b601182019050919050565b600061455d826144e3565b91506145698285614214565b91506145748261452f565b91506145808284614214565b91508190509392505050565b7f5061757361626c653a206e6f7420706175736564000000000000000000000000600082015250565b60006145c2601483613205565b91506145cd8261458c565b602082019050919050565b600060208201905081810360008301526145f1816145b5565b9050919050565b7f4552433732313a206d696e7420746f20746865207a65726f2061646472657373600082015250565b600061462e602083613205565b9150614639826145f8565b602082019050919050565b6000602082019050818103600083015261465d81614621565b9050919050565b7f4552433732313a20746f6b656e20616c7265616479206d696e74656400000000600082015250565b600061469a601c83613205565b91506146a582614664565b602082019050919050565b600060208201905081810360008301526146c98161468d565b9050919050565b7f5061757361626c653a2070617573656400000000000000000000000000000000600082015250565b6000614706601083613205565b9150614711826146d0565b602082019050919050565b60006020820190508181036000830152614735816146f9565b9050919050565b600081519050919050565b600082825260208201905092915050565b60006147638261473c565b61476d8185614747565b935061477d818560208601613216565b61478681613240565b840191505092915050565b60006080820190506147a66000830187613341565b6147b36020830186613341565b6147c060408301856133d7565b81810360608301526147d28184614758565b905095945050505050565b6000815190506147ec8161316b565b92915050565b60006020828403121561480857614807613135565b5b6000614816848285016147dd565b91505092915050565b7f4552433732315061757361626c653a20746f6b656e207472616e73666572207760008201527f68696c6520706175736564000000000000000000000000000000000000000000602082015250565b600061487b602b83613205565b91506148868261481f565b604082019050919050565b600060208201905081810360008301526148aa8161486e565b9050919050565b7f4e487b7100000000000000000000000000000000000000000000000000000000600052601160045260246000fd5b60006148eb826132ac565b91506148f6836132ac565b9250828202614904816132ac565b9150828204841483151761491b5761491a6148b1565b5b5092915050565b600061492d826132ac565b9150614938836132ac565b92508282019050808211156149505761494f6148b1565b5b92915050565b6000614961826132ac565b915060008203614974576149736148b1565b5b600182039050919050565b7f537472696e67733a20686578206c656e67746820696e73756666696369656e74600082015250565b60006149b5602083613205565b91506149c08261497f565b602082019050919050565b600060208201905081810360008301526149e4816149a8565b9050919050565b60006149f6826132ac565b9150614a01836132ac565b9250828203905081811115614a1957614a186148b1565b5b92915050565b7f4e487b7100000000000000000000000000000000000000000000000000000000600052603160045260246000fd5b7f455243373231456e756d657261626c653a20636f6e736563757469766520747260008201527f616e7366657273206e6f7420737570706f727465640000000000000000000000602082015250565b6000614aaa603583613205565b9150614ab582614a4e565b604082019050919050565b60006020820190508181036000830152614ad981614a9d565b905091905056fea2646970667358221220852c5d010d0e7b20d922f23124b698590167c6317d7f4fa272e9109f4020f33464736f6c63430008130033",
  "linkReferences": {},
  "deployedLinkReferences": {}
}