{
  "_format": "hh-sol-artifact-1",
  "contractName": "Item",
  "sourceName": "contracts/Item.sol",
  "abi": [
    {
      "inputs": [],
      "stateMutability": "nonpayable",
      "type": "constructor"
    },
    {
      "anonymous": false,
      "inputs": [
        {
          "indexed": true,
          "internalType": "address",
          "name": "owner",
          "type": "address"
        },
        {
          "indexed": true,
          "internalType": "address",
          "name": "approved",
          "type": "address"
        },
        {
          "indexed": true,
          "internalType": "uint256",
          "name": "tokenId",
          "type": "uint256"
        }
      ],
      "name": "Approval",
      "type": "event"
    },
    {
      "anonymous": false,
      "inputs": [
        {
          "indexed": true,
          "internalType": "address",
          "name": "owner",
          "type": "address"
        },
        {
          "indexed": true,
          "internalType": "address",
          "name": "operator",
          "type": "address"
        },
        {
          "indexed": false,
          "internalType": "bool",
          "name": "approved",
          "type": "bool"
        }
      ],
      "name": "ApprovalForAll",
      "type": "event"
    },
    {
      "anonymous": false,
      "inputs": [
        {
          "indexed": true,
          "internalType": "address",
          "name": "previousOwner",
          "type": "address"
        },
        {
          "indexed": true,
          "internalType": "address",
          "name": "newOwner",
          "type": "address"
        }
      ],
      "name": "OwnershipTransferred",
      "type": "event"
    },
    {
      "anonymous": false,
      "inputs": [
        {
          "indexed": true,
          "internalType": "address",
          "name": "from",
          "type": "address"
        },
        {
          "indexed": true,
          "internalType": "address",
          "name": "to",
          "type": "address"
        },
        {
          "indexed": true,
          "internalType": "uint256",
          "name": "tokenId",
          "type": "uint256"
        }
      ],
      "name": "Transfer",
      "type": "event"
    },
    {
      "inputs": [
        {
          "internalType": "address",
          "name": "to",
          "type": "address"
        },
        {
          "internalType": "uint256",
          "name": "tokenId",
          "type": "uint256"
        }
      ],
      "name": "approve",
      "outputs": [],
      "stateMutability": "nonpayable",
      "type": "function"
    },
    {
      "inputs": [
        {
          "internalType": "address",
          "name": "owner",
          "type": "address"
        }
      ],
      "name": "balanceOf",
      "outputs": [
        {
          "internalType": "uint256",
          "name": "",
          "type": "uint256"
        }
      ],
      "stateMutability": "view",
      "type": "function"
    },
    {
      "inputs": [],
      "name": "baseTokenURI",
      "outputs": [
        {
          "internalType": "string",
          "name": "",
          "type": "string"
        }
      ],
      "stateMutability": "view",
      "type": "function"
    },
    {
      "inputs": [
        {
          "internalType": "uint256",
          "name": "tokenId",
          "type": "uint256"
        }
      ],
      "name": "getApproved",
      "outputs": [
        {
          "internalType": "address",
          "name": "",
          "type": "address"
        }
      ],
      "stateMutability": "view",
      "type": "function"
    },
    {
      "inputs": [],
      "name": "getBaseURI",
      "outputs": [
        {
          "internalType": "string",
          "name": "",
          "type": "string"
        }
      ],
      "stateMutability": "view",
      "type": "function"
    },
    {
      "inputs": [
        {
          "internalType": "bytes32",
          "name": "_messageHash",
          "type": "bytes32"
        }
      ],
      "name": "getEthSignedMessageHash",
      "outputs": [
        {
          "internalType": "bytes32",
          "name": "",
          "type": "bytes32"
        }
      ],
      "stateMutability": "pure",
      "type": "function"
    },
    {
      "inputs": [
        {
          "internalType": "string",
          "name": "_message",
          "type": "string"
        }
      ],
      "name": "getMessageHash",
      "outputs": [
        {
          "internalType": "bytes32",
          "name": "",
          "type": "bytes32"
        }
      ],
      "stateMutability": "pure",
      "type": "function"
    },
    {
      "inputs": [],
      "name": "getSigner",
      "outputs": [
        {
          "internalType": "address",
          "name": "",
          "type": "address"
        }
      ],
      "stateMutability": "view",
      "type": "function"
    },
    {
      "inputs": [
        {
          "internalType": "address",
          "name": "owner",
          "type": "address"
        },
        {
          "internalType": "address",
          "name": "operator",
          "type": "address"
        }
      ],
      "name": "isApprovedForAll",
      "outputs": [
        {
          "internalType": "bool",
          "name": "",
          "type": "bool"
        }
      ],
      "stateMutability": "view",
      "type": "function"
    },
    {
      "inputs": [],
      "name": "name",
      "outputs": [
        {
          "internalType": "string",
          "name": "",
          "type": "string"
        }
      ],
      "stateMutability": "view",
      "type": "function"
    },
    {
      "inputs": [],
      "name": "owner",
      "outputs": [
        {
          "internalType": "address",
          "name": "",
          "type": "address"
        }
      ],
      "stateMutability": "view",
      "type": "function"
    },
    {
      "inputs": [
        {
          "internalType": "uint256[]",
          "name": "tokenIds",
          "type": "uint256[]"
        },
        {
          "internalType": "address[]",
          "name": "recipients",
          "type": "address[]"
        }
      ],
      "name": "ownerMint",
      "outputs": [],
      "stateMutability": "nonpayable",
      "type": "function"
    },
    {
      "inputs": [
        {
          "internalType": "uint256",
          "name": "tokenId",
          "type": "uint256"
        }
      ],
      "name": "ownerOf",
      "outputs": [
        {
          "internalType": "address",
          "name": "",
          "type": "address"
        }
      ],
      "stateMutability": "view",
      "type": "function"
    },
    {
      "inputs": [
        {
          "internalType": "bytes32",
          "name": "_ethSignedMessageHash",
          "type": "bytes32"
        },
        {
          "internalType": "bytes",
          "name": "_signature",
          "type": "bytes"
        }
      ],
      "name": "recover",
      "outputs": [
        {
          "internalType": "address",
          "name": "",
          "type": "address"
        }
      ],
      "stateMutability": "pure",
      "type": "function"
    },
    {
      "inputs": [],
      "name": "renounceOwnership",
      "outputs": [],
      "stateMutability": "nonpayable",
      "type": "function"
    },
    {
      "inputs": [
        {
          "internalType": "address",
          "name": "from",
          "type": "address"
        },
        {
          "internalType": "address",
          "name": "to",
          "type": "address"
        },
        {
          "internalType": "uint256",
          "name": "tokenId",
          "type": "uint256"
        }
      ],
      "name": "safeTransferFrom",
      "outputs": [],
      "stateMutability": "nonpayable",
      "type": "function"
    },
    {
      "inputs": [
        {
          "internalType": "address",
          "name": "from",
          "type": "address"
        },
        {
          "internalType": "address",
          "name": "to",
          "type": "address"
        },
        {
          "internalType": "uint256",
          "name": "tokenId",
          "type": "uint256"
        },
        {
          "internalType": "bytes",
          "name": "data",
          "type": "bytes"
        }
      ],
      "name": "safeTransferFrom",
      "outputs": [],
      "stateMutability": "nonpayable",
      "type": "function"
    },
    {
      "inputs": [
        {
          "internalType": "address",
          "name": "operator",
          "type": "address"
        },
        {
          "internalType": "bool",
          "name": "approved",
          "type": "bool"
        }
      ],
      "name": "setApprovalForAll",
      "outputs": [],
      "stateMutability": "nonpayable",
      "type": "function"
    },
    {
      "inputs": [
        {
          "internalType": "string",
          "name": "newBaseURI",
          "type": "string"
        }
      ],
      "name": "setBaseURI",
      "outputs": [],
      "stateMutability": "nonpayable",
      "type": "function"
    },
    {
      "inputs": [
        {
          "internalType": "address",
          "name": "_signer",
          "type": "address"
        }
      ],
      "name": "setSigner",
      "outputs": [],
      "stateMutability": "nonpayable",
      "type": "function"
    },
    {
      "inputs": [],
      "name": "signer",
      "outputs": [
        {
          "internalType": "address",
          "name": "",
          "type": "address"
        }
      ],
      "stateMutability": "view",
      "type": "function"
    },
    {
      "inputs": [
        {
          "internalType": "bytes4",
          "name": "interfaceId",
          "type": "bytes4"
        }
      ],
      "name": "supportsInterface",
      "outputs": [
        {
          "internalType": "bool",
          "name": "",
          "type": "bool"
        }
      ],
      "stateMutability": "view",
      "type": "function"
    },
    {
      "inputs": [],
      "name": "symbol",
      "outputs": [
        {
          "internalType": "string",
          "name": "",
          "type": "string"
        }
      ],
      "stateMutability": "view",
      "type": "function"
    },
    {
      "inputs": [
        {
          "internalType": "uint256",
          "name": "tokenId",
          "type": "uint256"
        }
      ],
      "name": "tokenURI",
      "outputs": [
        {
          "internalType": "string",
          "name": "",
          "type": "string"
        }
      ],
      "stateMutability": "view",
      "type": "function"
    },
    {
      "inputs": [
        {
          "internalType": "address",
          "name": "from",
          "type": "address"
        },
        {
          "internalType": "address",
          "name": "to",
          "type": "address"
        },
        {
          "internalType": "uint256",
          "name": "tokenId",
          "type": "uint256"
        }
      ],
      "name": "transferFrom",
      "outputs": [],
      "stateMutability": "nonpayable",
      "type": "function"
    },
    {
      "inputs": [
        {
          "internalType": "address",
          "name": "newOwner",
          "type": "address"
        }
      ],
      "name": "transferOwnership",
      "outputs": [],
      "stateMutability": "nonpayable",
      "type": "function"
    },
    {
      "inputs": [
        {
          "internalType": "address",
          "name": "_signer",
          "type": "address"
        },
        {
          "internalType": "string",
          "name": "_message",
          "type": "string"
        },
        {
          "internalType": "bytes",
          "name": "_signature",
          "type": "bytes"
        }
      ],
      "name": "verify",
      "outputs": [
        {
          "internalType": "bool",
          "name": "",
          "type": "bool"
        }
      ],
      "stateMutability": "pure",
      "type": "function"
    },
    {
      "inputs": [
        {
          "internalType": "string",
          "name": "_message",
          "type": "string"
        },
        {
          "internalType": "string",
          "name": "_messageHash",
          "type": "string"
        },
        {
          "internalType": "bytes",
          "name": "_signature",
          "type": "bytes"
        },
        {
          "internalType": "uint256",
          "name": "tokenId",
          "type": "uint256"
        }
      ],
      "name": "verifyAndMint",
      "outputs": [],
      "stateMutability": "nonpayable",
      "type": "function"
    }
  ],
  "bytecode": "0x60806040523480156200001157600080fd5b506040518060400160405280600481526020017f4974656d000000000000000000000000000000000000000000000000000000008152506040518060400160405280600381526020017f49544d000000000000000000000000000000000000000000000000000000000081525081600090816200008f919062000492565b508060019081620000a1919062000492565b505050620000c4620000b86200014a60201b60201c565b6200015260201b60201c565b73a0ff5b048e0e53f1204f0537f1cec8f49dc9d515600760006101000a81548173ffffffffffffffffffffffffffffffffffffffff021916908373ffffffffffffffffffffffffffffffffffffffff160217905550604051806060016040528060338152602001620045af603391396008908162000143919062000492565b5062000579565b600033905090565b6000600660009054906101000a900473ffffffffffffffffffffffffffffffffffffffff16905081600660006101000a81548173ffffffffffffffffffffffffffffffffffffffff021916908373ffffffffffffffffffffffffffffffffffffffff1602179055508173ffffffffffffffffffffffffffffffffffffffff168173ffffffffffffffffffffffffffffffffffffffff167f8be0079c531659141344cd1fd0a4f28419497f9722a3daafe3b4186f6b6457e060405160405180910390a35050565b600081519050919050565b7f4e487b7100000000000000000000000000000000000000000000000000000000600052604160045260246000fd5b7f4e487b7100000000000000000000000000000000000000000000000000000000600052602260045260246000fd5b600060028204905060018216806200029a57607f821691505b602082108103620002b057620002af62000252565b5b50919050565b60008190508160005260206000209050919050565b60006020601f8301049050919050565b600082821b905092915050565b6000600883026200031a7fffffffffffffffffffffffffffffffffffffffffffffffffffffffffffffffff82620002db565b620003268683620002db565b95508019841693508086168417925050509392505050565b6000819050919050565b6000819050919050565b6000620003736200036d62000367846200033e565b62000348565b6200033e565b9050919050565b6000819050919050565b6200038f8362000352565b620003a76200039e826200037a565b848454620002e8565b825550505050565b600090565b620003be620003af565b620003cb81848462000384565b505050565b5b81811015620003f357620003e7600082620003b4565b600181019050620003d1565b5050565b601f82111562000442576200040c81620002b6565b6200041784620002cb565b8101602085101562000427578190505b6200043f6200043685620002cb565b830182620003d0565b50505b505050565b600082821c905092915050565b6000620004676000198460080262000447565b1980831691505092915050565b600062000482838362000454565b9150826002028217905092915050565b6200049d8262000218565b67ffffffffffffffff811115620004b957620004b862000223565b5b620004c5825462000281565b620004d2828285620003f7565b600060209050601f8311600181146200050a5760008415620004f5578287015190505b62000501858262000474565b86555062000571565b601f1984166200051a86620002b6565b60005b8281101562000544578489015182556001820191506020850194506020810190506200051d565b8683101562000564578489015162000560601f89168262000454565b8355505b6001600288020188555050505b505050505050565b61402680620005896000396000f3fe608060405234801561001057600080fd5b50600436106101c45760003560e01c8063714c5398116100f9578063b446f3b211610097578063d547cfb711610071578063d547cfb714610503578063e985e9c514610521578063f2fde38b14610551578063fa5408011461056d576101c4565b8063b446f3b214610487578063b88d4fde146104b7578063c87b56dd146104d3576101c4565b80638da5cb5b116100d35780638da5cb5b1461041357806395d89b4114610431578063a22cb4651461044f578063af633a721461046b576101c4565b8063714c5398146103cd578063715018a6146103eb5780637ac3c02f146103f5576101c4565b80632dd34f0f116101665780636352211e116101405780636352211e146103355780636c19e783146103655780636e9849dd1461038157806370a082311461039d576101c4565b80632dd34f0f146102cd57806342842e0e146102fd57806355f804b314610319576101c4565b8063095ea7b3116101a2578063095ea7b31461024757806319045a2514610263578063238ac9331461029357806323b872dd146102b1576101c4565b806301ffc9a7146101c957806306fdde03146101f9578063081812fc14610217575b600080fd5b6101e360048036038101906101de91906124a2565b61059d565b6040516101f091906124ea565b60405180910390f35b61020161067f565b60405161020e9190612595565b60405180910390f35b610231600480360381019061022c91906125ed565b610711565b60405161023e919061265b565b60405180910390f35b610261600480360381019061025c91906126a2565b610757565b005b61027d6004803603810190610278919061284d565b61086e565b60405161028a919061265b565b60405180910390f35b61029b6108dd565b6040516102a8919061265b565b60405180910390f35b6102cb60048036038101906102c691906128a9565b610903565b005b6102e760048036038101906102e2919061299d565b610963565b6040516102f491906124ea565b60405180910390f35b610317600480360381019061031291906128a9565b6109c1565b005b610333600480360381019061032e9190612a88565b6109e1565b005b61034f600480360381019061034a91906125ed565b6109ff565b60405161035c919061265b565b60405180910390f35b61037f600480360381019061037a9190612ad5565b610a85565b005b61039b60048036038101906103969190612bae565b610ad1565b005b6103b760048036038101906103b29190612ad5565b610b91565b6040516103c49190612c3e565b60405180910390f35b6103d5610c48565b6040516103e29190612595565b60405180910390f35b6103f3610cda565b005b6103fd610cee565b60405161040a919061265b565b60405180910390f35b61041b610d18565b604051610428919061265b565b60405180910390f35b610439610d42565b6040516104469190612595565b60405180910390f35b61046960048036038101906104649190612c85565b610dd4565b005b61048560048036038101906104809190612cc5565b610dea565b005b6104a1600480360381019061049c9190612d80565b610f8f565b6040516104ae9190612dd8565b60405180910390f35b6104d160048036038101906104cc9190612df3565b610fbf565b005b6104ed60048036038101906104e891906125ed565b611021565b6040516104fa9190612595565b60405180910390f35b61050b61109d565b6040516105189190612595565b60405180910390f35b61053b60048036038101906105369190612e76565b61112b565b60405161054891906124ea565b60405180910390f35b61056b60048036038101906105669190612ad5565b6111bf565b005b61058760048036038101906105829190612eb6565b611242565b6040516105949190612dd8565b60405180910390f35b60007f80ac58cd000000000000000000000000000000000000000000000000000000007bffffffffffffffffffffffffffffffffffffffffffffffffffffffff1916827bffffffffffffffffffffffffffffffffffffffffffffffffffffffff1916148061066857507f5b5e139f000000000000000000000000000000000000000000000000000000007bffffffffffffffffffffffffffffffffffffffffffffffffffffffff1916827bffffffffffffffffffffffffffffffffffffffffffffffffffffffff1916145b80610678575061067782611272565b5b9050919050565b60606000805461068e90612f12565b80601f01602080910402602001604051908101604052809291908181526020018280546106ba90612f12565b80156107075780601f106106dc57610100808354040283529160200191610707565b820191906000526020600020905b8154815290600101906020018083116106ea57829003601f168201915b5050505050905090565b600061071c826112dc565b6004600083815260200190815260200160002060009054906101000a900473ffffffffffffffffffffffffffffffffffffffff169050919050565b6000610762826109ff565b90508073ffffffffffffffffffffffffffffffffffffffff168373ffffffffffffffffffffffffffffffffffffffff16036107d2576040517f08c379a00000000000000000000000000000000000000000000000000000000081526004016107c990612fb5565b60405180910390fd5b8073ffffffffffffffffffffffffffffffffffffffff166107f1611327565b73ffffffffffffffffffffffffffffffffffffffff161480610820575061081f8161081a611327565b61112b565b5b61085f576040517f08c379a000000000000000000000000000000000000000000000000000000000815260040161085690613047565b60405180910390fd5b610869838361132f565b505050565b60008060008061087d856113e8565b925092509250600186828585604051600081526020016040526040516108a69493929190613083565b6020604051602081039080840390855afa1580156108c8573d6000803e3d6000fd5b50505060206040510351935050505092915050565b600760009054906101000a900473ffffffffffffffffffffffffffffffffffffffff1681565b61091461090e611327565b82611450565b610953576040517f08c379a000000000000000000000000000000000000000000000000000000000815260040161094a9061313a565b60405180910390fd5b61095e8383836114e5565b505050565b60008061096f84610f8f565b9050600061097c82611242565b90508573ffffffffffffffffffffffffffffffffffffffff1661099f828661086e565b73ffffffffffffffffffffffffffffffffffffffff1614925050509392505050565b6109dc83838360405180602001604052806000815250610fbf565b505050565b6109e96117de565b8181600891826109fa929190613311565b505050565b600080610a0b8361185c565b9050600073ffffffffffffffffffffffffffffffffffffffff168173ffffffffffffffffffffffffffffffffffffffff1603610a7c576040517f08c379a0000000000000000000000000000000000000000000000000000000008152600401610a739061342d565b60405180910390fd5b80915050919050565b610a8d6117de565b80600760006101000a81548173ffffffffffffffffffffffffffffffffffffffff021916908373ffffffffffffffffffffffffffffffffffffffff16021790555050565b610ad96117de565b818190508484905014610b21576040517f08c379a0000000000000000000000000000000000000000000000000000000008152600401610b1890613499565b60405180910390fd5b60005b82829050811015610b8a57610b79838383818110610b4557610b446134b9565b5b9050602002016020810190610b5a9190612ad5565b868684818110610b6d57610b6c6134b9565b5b90506020020135611899565b80610b8390613517565b9050610b24565b5050505050565b60008073ffffffffffffffffffffffffffffffffffffffff168273ffffffffffffffffffffffffffffffffffffffff1603610c01576040517f08c379a0000000000000000000000000000000000000000000000000000000008152600401610bf8906135d1565b60405180910390fd5b600360008373ffffffffffffffffffffffffffffffffffffffff1673ffffffffffffffffffffffffffffffffffffffff168152602001908152602001600020549050919050565b606060088054610c5790612f12565b80601f0160208091040260200160405190810160405280929190818152602001828054610c8390612f12565b8015610cd05780601f10610ca557610100808354040283529160200191610cd0565b820191906000526020600020905b815481529060010190602001808311610cb357829003601f168201915b5050505050905090565b610ce26117de565b610cec60006118b7565b565b6000600760009054906101000a900473ffffffffffffffffffffffffffffffffffffffff16905090565b6000600660009054906101000a900473ffffffffffffffffffffffffffffffffffffffff16905090565b606060018054610d5190612f12565b80601f0160208091040260200160405190810160405280929190818152602001828054610d7d90612f12565b8015610dca5780601f10610d9f57610100808354040283529160200191610dca565b820191906000526020600020905b815481529060010190602001808311610dad57829003601f168201915b5050505050905090565b610de6610ddf611327565b838361197d565b5050565b6000610df585611ae9565b90506000610e078260001c6020611b0e565b905084604051602001610e1a919061362d565b6040516020818303038152906040528051906020012081604051602001610e41919061362d565b6040516020818303038152906040528051906020012014610e97576040517f08c379a0000000000000000000000000000000000000000000000000000000008152600401610e8e90613690565b60405180910390fd5b600115153073ffffffffffffffffffffffffffffffffffffffff16632dd34f0f600760009054906101000a900473ffffffffffffffffffffffffffffffffffffffff1689886040518463ffffffff1660e01b8152600401610efa93929190613705565b602060405180830381865afa158015610f17573d6000803e3d6000fd5b505050506040513d601f19601f82011682018060405250810190610f3b919061375f565b151514610f7d576040517f08c379a0000000000000000000000000000000000000000000000000000000008152600401610f74906137d8565b60405180910390fd5b610f873384611899565b505050505050565b600081604051602001610fa2919061362d565b604051602081830303815290604052805190602001209050919050565b610fd0610fca611327565b83611450565b61100f576040517f08c379a00000000000000000000000000000000000000000000000000000000081526004016110069061313a565b60405180910390fd5b61101b84848484611d4a565b50505050565b606061102c82611da6565b61106b576040517f08c379a00000000000000000000000000000000000000000000000000000000081526004016110629061386a565b60405180910390fd5b600861107683611de7565b60405160200161108792919061390d565b6040516020818303038152906040529050919050565b600880546110aa90612f12565b80601f01602080910402602001604051908101604052809291908181526020018280546110d690612f12565b80156111235780601f106110f857610100808354040283529160200191611123565b820191906000526020600020905b81548152906001019060200180831161110657829003601f168201915b505050505081565b6000600560008473ffffffffffffffffffffffffffffffffffffffff1673ffffffffffffffffffffffffffffffffffffffff16815260200190815260200160002060008373ffffffffffffffffffffffffffffffffffffffff1673ffffffffffffffffffffffffffffffffffffffff16815260200190815260200160002060009054906101000a900460ff16905092915050565b6111c76117de565b600073ffffffffffffffffffffffffffffffffffffffff168173ffffffffffffffffffffffffffffffffffffffff1603611236576040517f08c379a000000000000000000000000000000000000000000000000000000000815260040161122d906139a3565b60405180910390fd5b61123f816118b7565b50565b6000816040516020016112559190613a30565b604051602081830303815290604052805190602001209050919050565b60007f01ffc9a7000000000000000000000000000000000000000000000000000000007bffffffffffffffffffffffffffffffffffffffffffffffffffffffff1916827bffffffffffffffffffffffffffffffffffffffffffffffffffffffff1916149050919050565b6112e581611da6565b611324576040517f08c379a000000000000000000000000000000000000000000000000000000000815260040161131b9061342d565b60405180910390fd5b50565b600033905090565b816004600083815260200190815260200160002060006101000a81548173ffffffffffffffffffffffffffffffffffffffff021916908373ffffffffffffffffffffffffffffffffffffffff160217905550808273ffffffffffffffffffffffffffffffffffffffff166113a2836109ff565b73ffffffffffffffffffffffffffffffffffffffff167f8c5be1e5ebec7d5bd14f71427d1e84f3dd0314c0f7b2291e5b200ac8c7c3b92560405160405180910390a45050565b60008060006041845114611431576040517f08c379a000000000000000000000000000000000000000000000000000000000815260040161142890613aa2565b60405180910390fd5b6020840151925060408401519150606084015160001a90509193909250565b60008061145c836109ff565b90508073ffffffffffffffffffffffffffffffffffffffff168473ffffffffffffffffffffffffffffffffffffffff16148061149e575061149d818561112b565b5b806114dc57508373ffffffffffffffffffffffffffffffffffffffff166114c484610711565b73ffffffffffffffffffffffffffffffffffffffff16145b91505092915050565b8273ffffffffffffffffffffffffffffffffffffffff16611505826109ff565b73ffffffffffffffffffffffffffffffffffffffff161461155b576040517f08c379a000000000000000000000000000000000000000000000000000000000815260040161155290613b34565b60405180910390fd5b600073ffffffffffffffffffffffffffffffffffffffff168273ffffffffffffffffffffffffffffffffffffffff16036115ca576040517f08c379a00000000000000000000000000000000000000000000000000000000081526004016115c190613bc6565b60405180910390fd5b6115d78383836001611eb5565b8273ffffffffffffffffffffffffffffffffffffffff166115f7826109ff565b73ffffffffffffffffffffffffffffffffffffffff161461164d576040517f08c379a000000000000000000000000000000000000000000000000000000000815260040161164490613b34565b60405180910390fd5b6004600082815260200190815260200160002060006101000a81549073ffffffffffffffffffffffffffffffffffffffff02191690556001600360008573ffffffffffffffffffffffffffffffffffffffff1673ffffffffffffffffffffffffffffffffffffffff168152602001908152602001600020600082825403925050819055506001600360008473ffffffffffffffffffffffffffffffffffffffff1673ffffffffffffffffffffffffffffffffffffffff16815260200190815260200160002060008282540192505081905550816002600083815260200190815260200160002060006101000a81548173ffffffffffffffffffffffffffffffffffffffff021916908373ffffffffffffffffffffffffffffffffffffffff160217905550808273ffffffffffffffffffffffffffffffffffffffff168473ffffffffffffffffffffffffffffffffffffffff167fddf252ad1be2c89b69c2b068fc378daa952ba7f163c4a11628f55a4df523b3ef60405160405180910390a46117d98383836001611ebb565b505050565b6117e6611327565b73ffffffffffffffffffffffffffffffffffffffff16611804610d18565b73ffffffffffffffffffffffffffffffffffffffff161461185a576040517f08c379a000000000000000000000000000000000000000000000000000000000815260040161185190613c32565b60405180910390fd5b565b60006002600083815260200190815260200160002060009054906101000a900473ffffffffffffffffffffffffffffffffffffffff169050919050565b6118b3828260405180602001604052806000815250611ec1565b5050565b6000600660009054906101000a900473ffffffffffffffffffffffffffffffffffffffff16905081600660006101000a81548173ffffffffffffffffffffffffffffffffffffffff021916908373ffffffffffffffffffffffffffffffffffffffff1602179055508173ffffffffffffffffffffffffffffffffffffffff168173ffffffffffffffffffffffffffffffffffffffff167f8be0079c531659141344cd1fd0a4f28419497f9722a3daafe3b4186f6b6457e060405160405180910390a35050565b8173ffffffffffffffffffffffffffffffffffffffff168373ffffffffffffffffffffffffffffffffffffffff16036119eb576040517f08c379a00000000000000000000000000000000000000000000000000000000081526004016119e290613c9e565b60405180910390fd5b80600560008573ffffffffffffffffffffffffffffffffffffffff1673ffffffffffffffffffffffffffffffffffffffff16815260200190815260200160002060008473ffffffffffffffffffffffffffffffffffffffff1673ffffffffffffffffffffffffffffffffffffffff16815260200190815260200160002060006101000a81548160ff0219169083151502179055508173ffffffffffffffffffffffffffffffffffffffff168373ffffffffffffffffffffffffffffffffffffffff167f17307eab39ab6107e8899845ad3d59bd9653f200f220920489ca2b5937696c3183604051611adc91906124ea565b60405180910390a3505050565b600080611af583610f8f565b90506000611b0282611242565b90508092505050919050565b606060006002836002611b219190613cbe565b611b2b9190613d00565b67ffffffffffffffff811115611b4457611b43612722565b5b6040519080825280601f01601f191660200182016040528015611b765781602001600182028036833780820191505090505b5090507f300000000000000000000000000000000000000000000000000000000000000081600081518110611bae57611bad6134b9565b5b60200101907effffffffffffffffffffffffffffffffffffffffffffffffffffffffffffff1916908160001a9053507f780000000000000000000000000000000000000000000000000000000000000081600181518110611c1257611c116134b9565b5b60200101907effffffffffffffffffffffffffffffffffffffffffffffffffffffffffffff1916908160001a90535060006001846002611c529190613cbe565b611c5c9190613d00565b90505b6001811115611cfc577f3031323334353637383961626364656600000000000000000000000000000000600f861660108110611c9e57611c9d6134b9565b5b1a60f81b828281518110611cb557611cb46134b9565b5b60200101907effffffffffffffffffffffffffffffffffffffffffffffffffffffffffffff1916908160001a905350600485901c945080611cf590613d34565b9050611c5f565b5060008414611d40576040517f08c379a0000000000000000000000000000000000000000000000000000000008152600401611d3790613da9565b60405180910390fd5b8091505092915050565b611d558484846114e5565b611d6184848484611f1c565b611da0576040517f08c379a0000000000000000000000000000000000000000000000000000000008152600401611d9790613e3b565b60405180910390fd5b50505050565b60008073ffffffffffffffffffffffffffffffffffffffff16611dc88361185c565b73ffffffffffffffffffffffffffffffffffffffff1614159050919050565b606060006001611df6846120a3565b01905060008167ffffffffffffffff811115611e1557611e14612722565b5b6040519080825280601f01601f191660200182016040528015611e475781602001600182028036833780820191505090505b509050600082602001820190505b600115611eaa578080600190039150507f3031323334353637383961626364656600000000000000000000000000000000600a86061a8153600a8581611e9e57611e9d613e5b565b5b04945060008503611e55575b819350505050919050565b50505050565b50505050565b611ecb83836121f6565b611ed86000848484611f1c565b611f17576040517f08c379a0000000000000000000000000000000000000000000000000000000008152600401611f0e90613e3b565b60405180910390fd5b505050565b6000611f3d8473ffffffffffffffffffffffffffffffffffffffff16612413565b15612096578373ffffffffffffffffffffffffffffffffffffffff1663150b7a02611f66611327565b8786866040518563ffffffff1660e01b8152600401611f889493929190613e8a565b6020604051808303816000875af1925050508015611fc457506040513d601f19601f82011682018060405250810190611fc19190613eeb565b60015b612046573d8060008114611ff4576040519150601f19603f3d011682016040523d82523d6000602084013e611ff9565b606091505b50600081510361203e576040517f08c379a000000000000000000000000000000000000000000000000000000000815260040161203590613e3b565b60405180910390fd5b805181602001fd5b63150b7a0260e01b7bffffffffffffffffffffffffffffffffffffffffffffffffffffffff1916817bffffffffffffffffffffffffffffffffffffffffffffffffffffffff19161491505061209b565b600190505b949350505050565b600080600090507a184f03e93ff9f4daa797ed6e38ed64bf6a1f0100000000000000008310612101577a184f03e93ff9f4daa797ed6e38ed64bf6a1f01000000000000000083816120f7576120f6613e5b565b5b0492506040810190505b6d04ee2d6d415b85acef8100000000831061213e576d04ee2d6d415b85acef8100000000838161213457612133613e5b565b5b0492506020810190505b662386f26fc10000831061216d57662386f26fc10000838161216357612162613e5b565b5b0492506010810190505b6305f5e1008310612196576305f5e100838161218c5761218b613e5b565b5b0492506008810190505b61271083106121bb5761271083816121b1576121b0613e5b565b5b0492506004810190505b606483106121de57606483816121d4576121d3613e5b565b5b0492506002810190505b600a83106121ed576001810190505b80915050919050565b600073ffffffffffffffffffffffffffffffffffffffff168273ffffffffffffffffffffffffffffffffffffffff1603612265576040517f08c379a000000000000000000000000000000000000000000000000000000000815260040161225c90613f64565b60405180910390fd5b61226e81611da6565b156122ae576040517f08c379a00000000000000000000000000000000000000000000000000000000081526004016122a590613fd0565b60405180910390fd5b6122bc600083836001611eb5565b6122c581611da6565b15612305576040517f08c379a00000000000000000000000000000000000000000000000000000000081526004016122fc90613fd0565b60405180910390fd5b6001600360008473ffffffffffffffffffffffffffffffffffffffff1673ffffffffffffffffffffffffffffffffffffffff16815260200190815260200160002060008282540192505081905550816002600083815260200190815260200160002060006101000a81548173ffffffffffffffffffffffffffffffffffffffff021916908373ffffffffffffffffffffffffffffffffffffffff160217905550808273ffffffffffffffffffffffffffffffffffffffff16600073ffffffffffffffffffffffffffffffffffffffff167fddf252ad1be2c89b69c2b068fc378daa952ba7f163c4a11628f55a4df523b3ef60405160405180910390a461240f600083836001611ebb565b5050565b6000808273ffffffffffffffffffffffffffffffffffffffff163b119050919050565b6000604051905090565b600080fd5b600080fd5b60007fffffffff0000000000000000000000000000000000000000000000000000000082169050919050565b61247f8161244a565b811461248a57600080fd5b50565b60008135905061249c81612476565b92915050565b6000602082840312156124b8576124b7612440565b5b60006124c68482850161248d565b91505092915050565b60008115159050919050565b6124e4816124cf565b82525050565b60006020820190506124ff60008301846124db565b92915050565b600081519050919050565b600082825260208201905092915050565b60005b8381101561253f578082015181840152602081019050612524565b60008484015250505050565b6000601f19601f8301169050919050565b600061256782612505565b6125718185612510565b9350612581818560208601612521565b61258a8161254b565b840191505092915050565b600060208201905081810360008301526125af818461255c565b905092915050565b6000819050919050565b6125ca816125b7565b81146125d557600080fd5b50565b6000813590506125e7816125c1565b92915050565b60006020828403121561260357612602612440565b5b6000612611848285016125d8565b91505092915050565b600073ffffffffffffffffffffffffffffffffffffffff82169050919050565b60006126458261261a565b9050919050565b6126558161263a565b82525050565b6000602082019050612670600083018461264c565b92915050565b61267f8161263a565b811461268a57600080fd5b50565b60008135905061269c81612676565b92915050565b600080604083850312156126b9576126b8612440565b5b60006126c78582860161268d565b92505060206126d8858286016125d8565b9150509250929050565b6000819050919050565b6126f5816126e2565b811461270057600080fd5b50565b600081359050612712816126ec565b92915050565b600080fd5b600080fd5b7f4e487b7100000000000000000000000000000000000000000000000000000000600052604160045260246000fd5b61275a8261254b565b810181811067ffffffffffffffff8211171561277957612778612722565b5b80604052505050565b600061278c612436565b90506127988282612751565b919050565b600067ffffffffffffffff8211156127b8576127b7612722565b5b6127c18261254b565b9050602081019050919050565b82818337600083830152505050565b60006127f06127eb8461279d565b612782565b90508281526020810184848401111561280c5761280b61271d565b5b6128178482856127ce565b509392505050565b600082601f83011261283457612833612718565b5b81356128448482602086016127dd565b91505092915050565b6000806040838503121561286457612863612440565b5b600061287285828601612703565b925050602083013567ffffffffffffffff81111561289357612892612445565b5b61289f8582860161281f565b9150509250929050565b6000806000606084860312156128c2576128c1612440565b5b60006128d08682870161268d565b93505060206128e18682870161268d565b92505060406128f2868287016125d8565b9150509250925092565b600067ffffffffffffffff82111561291757612916612722565b5b6129208261254b565b9050602081019050919050565b600061294061293b846128fc565b612782565b90508281526020810184848401111561295c5761295b61271d565b5b6129678482856127ce565b509392505050565b600082601f83011261298457612983612718565b5b813561299484826020860161292d565b91505092915050565b6000806000606084860312156129b6576129b5612440565b5b60006129c48682870161268d565b935050602084013567ffffffffffffffff8111156129e5576129e4612445565b5b6129f18682870161296f565b925050604084013567ffffffffffffffff811115612a1257612a11612445565b5b612a1e8682870161281f565b9150509250925092565b600080fd5b600080fd5b60008083601f840112612a4857612a47612718565b5b8235905067ffffffffffffffff811115612a6557612a64612a28565b5b602083019150836001820283011115612a8157612a80612a2d565b5b9250929050565b60008060208385031215612a9f57612a9e612440565b5b600083013567ffffffffffffffff811115612abd57612abc612445565b5b612ac985828601612a32565b92509250509250929050565b600060208284031215612aeb57612aea612440565b5b6000612af98482850161268d565b91505092915050565b60008083601f840112612b1857612b17612718565b5b8235905067ffffffffffffffff811115612b3557612b34612a28565b5b602083019150836020820283011115612b5157612b50612a2d565b5b9250929050565b60008083601f840112612b6e57612b6d612718565b5b8235905067ffffffffffffffff811115612b8b57612b8a612a28565b5b602083019150836020820283011115612ba757612ba6612a2d565b5b9250929050565b60008060008060408587031215612bc857612bc7612440565b5b600085013567ffffffffffffffff811115612be657612be5612445565b5b612bf287828801612b02565b9450945050602085013567ffffffffffffffff811115612c1557612c14612445565b5b612c2187828801612b58565b925092505092959194509250565b612c38816125b7565b82525050565b6000602082019050612c536000830184612c2f565b92915050565b612c62816124cf565b8114612c6d57600080fd5b50565b600081359050612c7f81612c59565b92915050565b60008060408385031215612c9c57612c9b612440565b5b6000612caa8582860161268d565b9250506020612cbb85828601612c70565b9150509250929050565b60008060008060808587031215612cdf57612cde612440565b5b600085013567ffffffffffffffff811115612cfd57612cfc612445565b5b612d098782880161296f565b945050602085013567ffffffffffffffff811115612d2a57612d29612445565b5b612d368782880161296f565b935050604085013567ffffffffffffffff811115612d5757612d56612445565b5b612d638782880161281f565b9250506060612d74878288016125d8565b91505092959194509250565b600060208284031215612d9657612d95612440565b5b600082013567ffffffffffffffff811115612db457612db3612445565b5b612dc08482850161296f565b91505092915050565b612dd2816126e2565b82525050565b6000602082019050612ded6000830184612dc9565b92915050565b60008060008060808587031215612e0d57612e0c612440565b5b6000612e1b8782880161268d565b9450506020612e2c8782880161268d565b9350506040612e3d878288016125d8565b925050606085013567ffffffffffffffff811115612e5e57612e5d612445565b5b612e6a8782880161281f565b91505092959194509250565b60008060408385031215612e8d57612e8c612440565b5b6000612e9b8582860161268d565b9250506020612eac8582860161268d565b9150509250929050565b600060208284031215612ecc57612ecb612440565b5b6000612eda84828501612703565b91505092915050565b7f4e487b7100000000000000000000000000000000000000000000000000000000600052602260045260246000fd5b60006002820490506001821680612f2a57607f821691505b602082108103612f3d57612f3c612ee3565b5b50919050565b7f4552433732313a20617070726f76616c20746f2063757272656e74206f776e6560008201527f7200000000000000000000000000000000000000000000000000000000000000602082015250565b6000612f9f602183612510565b9150612faa82612f43565b604082019050919050565b60006020820190508181036000830152612fce81612f92565b9050919050565b7f4552433732313a20617070726f76652063616c6c6572206973206e6f7420746f60008201527f6b656e206f776e6572206f7220617070726f76656420666f7220616c6c000000602082015250565b6000613031603d83612510565b915061303c82612fd5565b604082019050919050565b6000602082019050818103600083015261306081613024565b9050919050565b600060ff82169050919050565b61307d81613067565b82525050565b60006080820190506130986000830187612dc9565b6130a56020830186613074565b6130b26040830185612dc9565b6130bf6060830184612dc9565b95945050505050565b7f4552433732313a2063616c6c6572206973206e6f7420746f6b656e206f776e6560008201527f72206f7220617070726f76656400000000000000000000000000000000000000602082015250565b6000613124602d83612510565b915061312f826130c8565b604082019050919050565b6000602082019050818103600083015261315381613117565b9050919050565b600082905092915050565b60008190508160005260206000209050919050565b60006020601f8301049050919050565b600082821b905092915050565b6000600883026131c77fffffffffffffffffffffffffffffffffffffffffffffffffffffffffffffffff8261318a565b6131d1868361318a565b95508019841693508086168417925050509392505050565b6000819050919050565b600061320e613209613204846125b7565b6131e9565b6125b7565b9050919050565b6000819050919050565b613228836131f3565b61323c61323482613215565b848454613197565b825550505050565b600090565b613251613244565b61325c81848461321f565b505050565b5b8181101561328057613275600082613249565b600181019050613262565b5050565b601f8211156132c55761329681613165565b61329f8461317a565b810160208510156132ae578190505b6132c26132ba8561317a565b830182613261565b50505b505050565b600082821c905092915050565b60006132e8600019846008026132ca565b1980831691505092915050565b600061330183836132d7565b9150826002028217905092915050565b61331b838361315a565b67ffffffffffffffff81111561333457613333612722565b5b61333e8254612f12565b613349828285613284565b6000601f8311600181146133785760008415613366578287013590505b61337085826132f5565b8655506133d8565b601f19841661338686613165565b60005b828110156133ae57848901358255600182019150602085019450602081019050613389565b868310156133cb57848901356133c7601f8916826132d7565b8355505b6001600288020188555050505b50505050505050565b7f4552433732313a20696e76616c696420746f6b656e2049440000000000000000600082015250565b6000613417601883612510565b9150613422826133e1565b602082019050919050565b600060208201905081810360008301526134468161340a565b9050919050565b7f4172726179732073686f756c642068617665207468652073616d652073697a65600082015250565b6000613483602083612510565b915061348e8261344d565b602082019050919050565b600060208201905081810360008301526134b281613476565b9050919050565b7f4e487b7100000000000000000000000000000000000000000000000000000000600052603260045260246000fd5b7f4e487b7100000000000000000000000000000000000000000000000000000000600052601160045260246000fd5b6000613522826125b7565b91507fffffffffffffffffffffffffffffffffffffffffffffffffffffffffffffffff8203613554576135536134e8565b5b600182019050919050565b7f4552433732313a2061646472657373207a65726f206973206e6f74206120766160008201527f6c6964206f776e65720000000000000000000000000000000000000000000000602082015250565b60006135bb602983612510565b91506135c68261355f565b604082019050919050565b600060208201905081810360008301526135ea816135ae565b9050919050565b600081905092915050565b600061360782612505565b61361181856135f1565b9350613621818560208601612521565b80840191505092915050565b600061363982846135fc565b915081905092915050565b7f4d6573736167652068617368657320646f206e6f7420636f72726573706f6e64600082015250565b600061367a602083612510565b915061368582613644565b602082019050919050565b600060208201905081810360008301526136a98161366d565b9050919050565b600081519050919050565b600082825260208201905092915050565b60006136d7826136b0565b6136e181856136bb565b93506136f1818560208601612521565b6136fa8161254b565b840191505092915050565b600060608201905061371a600083018661264c565b818103602083015261372c818561255c565b9050818103604083015261374081846136cc565b9050949350505050565b60008151905061375981612c59565b92915050565b60006020828403121561377557613774612440565b5b60006137838482850161374a565b91505092915050565b7f496e76616c6964207369676e6572000000000000000000000000000000000000600082015250565b60006137c2600e83612510565b91506137cd8261378c565b602082019050919050565b600060208201905081810360008301526137f1816137b5565b9050919050565b7f4552433732314d657461646174613a2055524920717565727920666f72206e6f60008201527f6e6578697374656e7420746f6b656e0000000000000000000000000000000000602082015250565b6000613854602f83612510565b915061385f826137f8565b604082019050919050565b6000602082019050818103600083015261388381613847565b9050919050565b6000815461389781612f12565b6138a181866135f1565b945060018216600081146138bc57600181146138d157613904565b60ff1983168652811515820286019350613904565b6138da85613165565b60005b838110156138fc578154818901526001820191506020810190506138dd565b838801955050505b50505092915050565b6000613919828561388a565b915061392582846135fc565b91508190509392505050565b7f4f776e61626c653a206e6577206f776e657220697320746865207a65726f206160008201527f6464726573730000000000000000000000000000000000000000000000000000602082015250565b600061398d602683612510565b915061399882613931565b604082019050919050565b600060208201905081810360008301526139bc81613980565b9050919050565b7f19457468657265756d205369676e6564204d6573736167653a0a333200000000600082015250565b60006139f9601c836135f1565b9150613a04826139c3565b601c82019050919050565b6000819050919050565b613a2a613a25826126e2565b613a0f565b82525050565b6000613a3b826139ec565b9150613a478284613a19565b60208201915081905092915050565b7f496e76616c6964207369676e6174757265206c656e6774682100000000000000600082015250565b6000613a8c601983612510565b9150613a9782613a56565b602082019050919050565b60006020820190508181036000830152613abb81613a7f565b9050919050565b7f4552433732313a207472616e736665722066726f6d20696e636f72726563742060008201527f6f776e6572000000000000000000000000000000000000000000000000000000602082015250565b6000613b1e602583612510565b9150613b2982613ac2565b604082019050919050565b60006020820190508181036000830152613b4d81613b11565b9050919050565b7f4552433732313a207472616e7366657220746f20746865207a65726f2061646460008201527f7265737300000000000000000000000000000000000000000000000000000000602082015250565b6000613bb0602483612510565b9150613bbb82613b54565b604082019050919050565b60006020820190508181036000830152613bdf81613ba3565b9050919050565b7f4f776e61626c653a2063616c6c6572206973206e6f7420746865206f776e6572600082015250565b6000613c1c602083612510565b9150613c2782613be6565b602082019050919050565b60006020820190508181036000830152613c4b81613c0f565b9050919050565b7f4552433732313a20617070726f766520746f2063616c6c657200000000000000600082015250565b6000613c88601983612510565b9150613c9382613c52565b602082019050919050565b60006020820190508181036000830152613cb781613c7b565b9050919050565b6000613cc9826125b7565b9150613cd4836125b7565b9250828202613ce2816125b7565b91508282048414831517613cf957613cf86134e8565b5b5092915050565b6000613d0b826125b7565b9150613d16836125b7565b9250828201905080821115613d2e57613d2d6134e8565b5b92915050565b6000613d3f826125b7565b915060008203613d5257613d516134e8565b5b600182039050919050565b7f537472696e67733a20686578206c656e67746820696e73756666696369656e74600082015250565b6000613d93602083612510565b9150613d9e82613d5d565b602082019050919050565b60006020820190508181036000830152613dc281613d86565b9050919050565b7f4552433732313a207472616e7366657220746f206e6f6e20455243373231526560008201527f63656976657220696d706c656d656e7465720000000000000000000000000000602082015250565b6000613e25603283612510565b9150613e3082613dc9565b604082019050919050565b60006020820190508181036000830152613e5481613e18565b9050919050565b7f4e487b7100000000000000000000000000000000000000000000000000000000600052601260045260246000fd5b6000608082019050613e9f600083018761264c565b613eac602083018661264c565b613eb96040830185612c2f565b8181036060830152613ecb81846136cc565b905095945050505050565b600081519050613ee581612476565b92915050565b600060208284031215613f0157613f00612440565b5b6000613f0f84828501613ed6565b91505092915050565b7f4552433732313a206d696e7420746f20746865207a65726f2061646472657373600082015250565b6000613f4e602083612510565b9150613f5982613f18565b602082019050919050565b60006020820190508181036000830152613f7d81613f41565b9050919050565b7f4552433732313a20746f6b656e20616c7265616479206d696e74656400000000600082015250565b6000613fba601c83612510565b9150613fc582613f84565b602082019050919050565b60006020820190508181036000830152613fe981613fad565b905091905056fea2646970667358221220be311ed4e233b0c422344eb0f960615916d9946bed8bc4c9904133057181d51c64736f6c6343000812003368747470733a2f2f746573746e6574732e6f70656e7365612e696f2f6173736574732f617262697472756d2d676f65726c692f",
  "linkReferences": {},
  "deployedLinkReferences": {}
}