{
  "_format": "hh-sol-artifact-1",
  "contractName": "Item",
  "sourceName": "contracts/Item.sol",
  "abi": [
    {
      "inputs": [],
      "stateMutability": "nonpayable",
      "type": "constructor"
    },
    {
      "anonymous": false,
      "inputs": [
        {
          "indexed": true,
          "internalType": "address",
          "name": "owner",
          "type": "address"
        },
        {
          "indexed": true,
          "internalType": "address",
          "name": "approved",
          "type": "address"
        },
        {
          "indexed": true,
          "internalType": "uint256",
          "name": "tokenId",
          "type": "uint256"
        }
      ],
      "name": "Approval",
      "type": "event"
    },
    {
      "anonymous": false,
      "inputs": [
        {
          "indexed": true,
          "internalType": "address",
          "name": "owner",
          "type": "address"
        },
        {
          "indexed": true,
          "internalType": "address",
          "name": "operator",
          "type": "address"
        },
        {
          "indexed": false,
          "internalType": "bool",
          "name": "approved",
          "type": "bool"
        }
      ],
      "name": "ApprovalForAll",
      "type": "event"
    },
    {
      "anonymous": false,
      "inputs": [
        {
          "indexed": true,
          "internalType": "address",
          "name": "previousOwner",
          "type": "address"
        },
        {
          "indexed": true,
          "internalType": "address",
          "name": "newOwner",
          "type": "address"
        }
      ],
      "name": "OwnershipTransferred",
      "type": "event"
    },
    {
      "anonymous": false,
      "inputs": [
        {
          "indexed": true,
          "internalType": "address",
          "name": "from",
          "type": "address"
        },
        {
          "indexed": true,
          "internalType": "address",
          "name": "to",
          "type": "address"
        },
        {
          "indexed": true,
          "internalType": "uint256",
          "name": "tokenId",
          "type": "uint256"
        }
      ],
      "name": "Transfer",
      "type": "event"
    },
    {
      "inputs": [
        {
          "internalType": "address",
          "name": "to",
          "type": "address"
        },
        {
          "internalType": "uint256",
          "name": "tokenId",
          "type": "uint256"
        }
      ],
      "name": "approve",
      "outputs": [],
      "stateMutability": "nonpayable",
      "type": "function"
    },
    {
      "inputs": [
        {
          "internalType": "address",
          "name": "owner",
          "type": "address"
        }
      ],
      "name": "balanceOf",
      "outputs": [
        {
          "internalType": "uint256",
          "name": "",
          "type": "uint256"
        }
      ],
      "stateMutability": "view",
      "type": "function"
    },
    {
      "inputs": [],
      "name": "baseTokenURI",
      "outputs": [
        {
          "internalType": "string",
          "name": "",
          "type": "string"
        }
      ],
      "stateMutability": "view",
      "type": "function"
    },
    {
      "inputs": [
        {
          "internalType": "uint256",
          "name": "tokenId",
          "type": "uint256"
        }
      ],
      "name": "getApproved",
      "outputs": [
        {
          "internalType": "address",
          "name": "",
          "type": "address"
        }
      ],
      "stateMutability": "view",
      "type": "function"
    },
    {
      "inputs": [],
      "name": "getBaseURI",
      "outputs": [
        {
          "internalType": "string",
          "name": "",
          "type": "string"
        }
      ],
      "stateMutability": "view",
      "type": "function"
    },
    {
      "inputs": [
        {
          "internalType": "bytes32",
          "name": "_messageHash",
          "type": "bytes32"
        }
      ],
      "name": "getEthSignedMessageHash",
      "outputs": [
        {
          "internalType": "bytes32",
          "name": "",
          "type": "bytes32"
        }
      ],
      "stateMutability": "pure",
      "type": "function"
    },
    {
      "inputs": [
        {
          "internalType": "string",
          "name": "_message",
          "type": "string"
        }
      ],
      "name": "getMessageHash",
      "outputs": [
        {
          "internalType": "bytes32",
          "name": "",
          "type": "bytes32"
        }
      ],
      "stateMutability": "pure",
      "type": "function"
    },
    {
      "inputs": [],
      "name": "getSigner",
      "outputs": [
        {
          "internalType": "address",
          "name": "",
          "type": "address"
        }
      ],
      "stateMutability": "view",
      "type": "function"
    },
    {
      "inputs": [
        {
          "internalType": "address",
          "name": "owner",
          "type": "address"
        },
        {
          "internalType": "address",
          "name": "operator",
          "type": "address"
        }
      ],
      "name": "isApprovedForAll",
      "outputs": [
        {
          "internalType": "bool",
          "name": "",
          "type": "bool"
        }
      ],
      "stateMutability": "view",
      "type": "function"
    },
    {
      "inputs": [],
      "name": "name",
      "outputs": [
        {
          "internalType": "string",
          "name": "",
          "type": "string"
        }
      ],
      "stateMutability": "view",
      "type": "function"
    },
    {
      "inputs": [],
      "name": "owner",
      "outputs": [
        {
          "internalType": "address",
          "name": "",
          "type": "address"
        }
      ],
      "stateMutability": "view",
      "type": "function"
    },
    {
      "inputs": [
        {
          "internalType": "uint256[]",
          "name": "tokenIds",
          "type": "uint256[]"
        },
        {
          "internalType": "address[]",
          "name": "recipients",
          "type": "address[]"
        }
      ],
      "name": "ownerMint",
      "outputs": [],
      "stateMutability": "nonpayable",
      "type": "function"
    },
    {
      "inputs": [
        {
          "internalType": "uint256",
          "name": "tokenId",
          "type": "uint256"
        }
      ],
      "name": "ownerOf",
      "outputs": [
        {
          "internalType": "address",
          "name": "",
          "type": "address"
        }
      ],
      "stateMutability": "view",
      "type": "function"
    },
    {
      "inputs": [
        {
          "internalType": "bytes32",
          "name": "_ethSignedMessageHash",
          "type": "bytes32"
        },
        {
          "internalType": "bytes",
          "name": "_signature",
          "type": "bytes"
        }
      ],
      "name": "recover",
      "outputs": [
        {
          "internalType": "address",
          "name": "",
          "type": "address"
        }
      ],
      "stateMutability": "pure",
      "type": "function"
    },
    {
      "inputs": [],
      "name": "renounceOwnership",
      "outputs": [],
      "stateMutability": "nonpayable",
      "type": "function"
    },
    {
      "inputs": [
        {
          "internalType": "address",
          "name": "from",
          "type": "address"
        },
        {
          "internalType": "address",
          "name": "to",
          "type": "address"
        },
        {
          "internalType": "uint256",
          "name": "tokenId",
          "type": "uint256"
        }
      ],
      "name": "safeTransferFrom",
      "outputs": [],
      "stateMutability": "nonpayable",
      "type": "function"
    },
    {
      "inputs": [
        {
          "internalType": "address",
          "name": "from",
          "type": "address"
        },
        {
          "internalType": "address",
          "name": "to",
          "type": "address"
        },
        {
          "internalType": "uint256",
          "name": "tokenId",
          "type": "uint256"
        },
        {
          "internalType": "bytes",
          "name": "data",
          "type": "bytes"
        }
      ],
      "name": "safeTransferFrom",
      "outputs": [],
      "stateMutability": "nonpayable",
      "type": "function"
    },
    {
      "inputs": [
        {
          "internalType": "address",
          "name": "operator",
          "type": "address"
        },
        {
          "internalType": "bool",
          "name": "approved",
          "type": "bool"
        }
      ],
      "name": "setApprovalForAll",
      "outputs": [],
      "stateMutability": "nonpayable",
      "type": "function"
    },
    {
      "inputs": [
        {
          "internalType": "string",
          "name": "newBaseURI",
          "type": "string"
        }
      ],
      "name": "setBaseURI",
      "outputs": [],
      "stateMutability": "nonpayable",
      "type": "function"
    },
    {
      "inputs": [
        {
          "internalType": "address",
          "name": "_signer",
          "type": "address"
        }
      ],
      "name": "setSigner",
      "outputs": [],
      "stateMutability": "nonpayable",
      "type": "function"
    },
    {
      "inputs": [],
      "name": "signer",
      "outputs": [
        {
          "internalType": "address",
          "name": "",
          "type": "address"
        }
      ],
      "stateMutability": "view",
      "type": "function"
    },
    {
      "inputs": [
        {
          "internalType": "bytes4",
          "name": "interfaceId",
          "type": "bytes4"
        }
      ],
      "name": "supportsInterface",
      "outputs": [
        {
          "internalType": "bool",
          "name": "",
          "type": "bool"
        }
      ],
      "stateMutability": "view",
      "type": "function"
    },
    {
      "inputs": [],
      "name": "symbol",
      "outputs": [
        {
          "internalType": "string",
          "name": "",
          "type": "string"
        }
      ],
      "stateMutability": "view",
      "type": "function"
    },
    {
      "inputs": [
        {
          "internalType": "uint256",
          "name": "tokenId",
          "type": "uint256"
        }
      ],
      "name": "tokenURI",
      "outputs": [
        {
          "internalType": "string",
          "name": "",
          "type": "string"
        }
      ],
      "stateMutability": "view",
      "type": "function"
    },
    {
      "inputs": [
        {
          "internalType": "address",
          "name": "from",
          "type": "address"
        },
        {
          "internalType": "address",
          "name": "to",
          "type": "address"
        },
        {
          "internalType": "uint256",
          "name": "tokenId",
          "type": "uint256"
        }
      ],
      "name": "transferFrom",
      "outputs": [],
      "stateMutability": "nonpayable",
      "type": "function"
    },
    {
      "inputs": [
        {
          "internalType": "address",
          "name": "newOwner",
          "type": "address"
        }
      ],
      "name": "transferOwnership",
      "outputs": [],
      "stateMutability": "nonpayable",
      "type": "function"
    },
    {
      "inputs": [
        {
          "internalType": "address",
          "name": "_signer",
          "type": "address"
        },
        {
          "internalType": "string",
          "name": "_message",
          "type": "string"
        },
        {
          "internalType": "bytes",
          "name": "_signature",
          "type": "bytes"
        }
      ],
      "name": "verify",
      "outputs": [
        {
          "internalType": "bool",
          "name": "",
          "type": "bool"
        }
      ],
      "stateMutability": "pure",
      "type": "function"
    },
    {
      "inputs": [
        {
          "internalType": "string",
          "name": "_message",
          "type": "string"
        },
        {
          "internalType": "bytes",
          "name": "_signature",
          "type": "bytes"
        },
        {
          "internalType": "address",
          "name": "to",
          "type": "address"
        },
        {
          "internalType": "uint256",
          "name": "tokenId",
          "type": "uint256"
        }
      ],
      "name": "verifyAndMint",
      "outputs": [],
      "stateMutability": "nonpayable",
      "type": "function"
    }
  ],
  "bytecode": "0x60806040523480156200001157600080fd5b506040518060400160405280600481526020017f4974656d000000000000000000000000000000000000000000000000000000008152506040518060400160405280600381526020017f49544d000000000000000000000000000000000000000000000000000000000081525081600090816200008f9190620004e9565b508060019081620000a19190620004e9565b505050620000c4620000b86200019e60201b60201c565b620001a660201b60201c565b620000e0673067ef4765fbc09a60c01b6200026c60201b60201c565b620000fc674bb2dce6d525e43b60c01b6200026c60201b60201c565b730d72fd549214eb53cc241f400b147364e926e15b600760006101000a81548173ffffffffffffffffffffffffffffffffffffffff021916908373ffffffffffffffffffffffffffffffffffffffff1602179055506200016d678a3cdd294e7c588a60c01b6200026c60201b60201c565b604051806060016040528060338152602001620046546033913960089081620001979190620004e9565b50620005d0565b600033905090565b6000600660009054906101000a900473ffffffffffffffffffffffffffffffffffffffff16905081600660006101000a81548173ffffffffffffffffffffffffffffffffffffffff021916908373ffffffffffffffffffffffffffffffffffffffff1602179055508173ffffffffffffffffffffffffffffffffffffffff168173ffffffffffffffffffffffffffffffffffffffff167f8be0079c531659141344cd1fd0a4f28419497f9722a3daafe3b4186f6b6457e060405160405180910390a35050565b50565b600081519050919050565b7f4e487b7100000000000000000000000000000000000000000000000000000000600052604160045260246000fd5b7f4e487b7100000000000000000000000000000000000000000000000000000000600052602260045260246000fd5b60006002820490506001821680620002f157607f821691505b602082108103620003075762000306620002a9565b5b50919050565b60008190508160005260206000209050919050565b60006020601f8301049050919050565b600082821b905092915050565b600060088302620003717fffffffffffffffffffffffffffffffffffffffffffffffffffffffffffffffff8262000332565b6200037d868362000332565b95508019841693508086168417925050509392505050565b6000819050919050565b6000819050919050565b6000620003ca620003c4620003be8462000395565b6200039f565b62000395565b9050919050565b6000819050919050565b620003e683620003a9565b620003fe620003f582620003d1565b8484546200033f565b825550505050565b600090565b6200041562000406565b62000422818484620003db565b505050565b5b818110156200044a576200043e6000826200040b565b60018101905062000428565b5050565b601f821115620004995762000463816200030d565b6200046e8462000322565b810160208510156200047e578190505b620004966200048d8562000322565b83018262000427565b50505b505050565b600082821c905092915050565b6000620004be600019846008026200049e565b1980831691505092915050565b6000620004d98383620004ab565b9150826002028217905092915050565b620004f4826200026f565b67ffffffffffffffff81111562000510576200050f6200027a565b5b6200051c8254620002d8565b620005298282856200044e565b600060209050601f8311600181146200056157600084156200054c578287015190505b620005588582620004cb565b865550620005c8565b601f19841662000571866200030d565b60005b828110156200059b5784890151825560018201915060208501945060208101905062000574565b86831015620005bb5784890151620005b7601f891682620004ab565b8355505b6001600288020188555050505b505050505050565b61407480620005e06000396000f3fe608060405234801561001057600080fd5b50600436106101c45760003560e01c806370a08231116100f9578063b446f3b211610097578063d547cfb711610071578063d547cfb714610503578063e985e9c514610521578063f2fde38b14610551578063fa5408011461056d576101c4565b8063b446f3b214610487578063b88d4fde146104b7578063c87b56dd146104d3576101c4565b80637ac3c02f116100d35780637ac3c02f146104115780638da5cb5b1461042f57806395d89b411461044d578063a22cb4651461046b576101c4565b806370a08231146103b9578063714c5398146103e9578063715018a614610407576101c4565b80632dd34f0f116101665780636352211e116101405780636352211e14610335578063654886be146103655780636c19e783146103815780636e9849dd1461039d576101c4565b80632dd34f0f146102cd57806342842e0e146102fd57806355f804b314610319576101c4565b8063095ea7b3116101a2578063095ea7b31461024757806319045a2514610263578063238ac9331461029357806323b872dd146102b1576101c4565b806301ffc9a7146101c957806306fdde03146101f9578063081812fc14610217575b600080fd5b6101e360048036038101906101de9190612683565b61059d565b6040516101f091906126cb565b60405180910390f35b61020161067f565b60405161020e9190612776565b60405180910390f35b610231600480360381019061022c91906127ce565b610711565b60405161023e919061283c565b60405180910390f35b610261600480360381019061025c9190612883565b610757565b005b61027d60048036038101906102789190612a2e565b61086e565b60405161028a919061283c565b60405180910390f35b61029b610942565b6040516102a8919061283c565b60405180910390f35b6102cb60048036038101906102c69190612a8a565b610968565b005b6102e760048036038101906102e29190612b7e565b6109c8565b6040516102f491906126cb565b60405180910390f35b61031760048036038101906103129190612a8a565b610ab3565b005b610333600480360381019061032e9190612c69565b610ad3565b005b61034f600480360381019061034a91906127ce565b610b41565b60405161035c919061283c565b60405180910390f35b61037f600480360381019061037a9190612cb6565b610bc7565b005b61039b60048036038101906103969190612d55565b610d49565b005b6103b760048036038101906103b29190612e2e565b610de5565b005b6103d360048036038101906103ce9190612d55565b610f81565b6040516103e09190612ebe565b60405180910390f35b6103f1611038565b6040516103fe9190612776565b60405180910390f35b61040f611106565b005b61041961111a565b604051610426919061283c565b60405180910390f35b610437611180565b604051610444919061283c565b60405180910390f35b6104556111aa565b6040516104629190612776565b60405180910390f35b61048560048036038101906104809190612f05565b61123c565b005b6104a1600480360381019061049c9190612f45565b611252565b6040516104ae9190612f9d565b60405180910390f35b6104d160048036038101906104cc9190612fb8565b6112be565b005b6104ed60048036038101906104e891906127ce565b611320565b6040516104fa9190612776565b60405180910390f35b61050b611428565b6040516105189190612776565b60405180910390f35b61053b6004803603810190610536919061303b565b6114b6565b60405161054891906126cb565b60405180910390f35b61056b60048036038101906105669190612d55565b61154a565b005b6105876004803603810190610582919061307b565b6115cd565b6040516105949190612f9d565b60405180910390f35b60007f80ac58cd000000000000000000000000000000000000000000000000000000007bffffffffffffffffffffffffffffffffffffffffffffffffffffffff1916827bffffffffffffffffffffffffffffffffffffffffffffffffffffffff1916148061066857507f5b5e139f000000000000000000000000000000000000000000000000000000007bffffffffffffffffffffffffffffffffffffffffffffffffffffffff1916827bffffffffffffffffffffffffffffffffffffffffffffffffffffffff1916145b80610678575061067782611639565b5b9050919050565b60606000805461068e906130d7565b80601f01602080910402602001604051908101604052809291908181526020018280546106ba906130d7565b80156107075780601f106106dc57610100808354040283529160200191610707565b820191906000526020600020905b8154815290600101906020018083116106ea57829003601f168201915b5050505050905090565b600061071c826116a3565b6004600083815260200190815260200160002060009054906101000a900473ffffffffffffffffffffffffffffffffffffffff169050919050565b600061076282610b41565b90508073ffffffffffffffffffffffffffffffffffffffff168373ffffffffffffffffffffffffffffffffffffffff16036107d2576040517f08c379a00000000000000000000000000000000000000000000000000000000081526004016107c99061317a565b60405180910390fd5b8073ffffffffffffffffffffffffffffffffffffffff166107f16116ee565b73ffffffffffffffffffffffffffffffffffffffff161480610820575061081f8161081a6116ee565b6114b6565b5b61085f576040517f08c379a00000000000000000000000000000000000000000000000000000000081526004016108569061320c565b60405180910390fd5b61086983836116f6565b505050565b6000610884672c7197cfb0c886b860c01b6117af565b610898672baa3ed9ae717f1260c01b6117af565b6108ac67b0b5b34fc7963aed60c01b6117af565b60008060006108ba856117b2565b9250925092506108d46752bb854342615f9760c01b6117af565b6108e8671a5272060ae344b460c01b6117af565b6001868285856040516000815260200160405260405161090b9493929190613248565b6020604051602081039080840390855afa15801561092d573d6000803e3d6000fd5b50505060206040510351935050505092915050565b600760009054906101000a900473ffffffffffffffffffffffffffffffffffffffff1681565b6109796109736116ee565b82611892565b6109b8576040517f08c379a00000000000000000000000000000000000000000000000000000000081526004016109af906132ff565b60405180910390fd5b6109c3838383611927565b505050565b60006109de6721099bb7f96ee6f760c01b6117af565b6109f267dad16ceb9283b2c260c01b6117af565b610a06678cb10e462183b60f60c01b6117af565b6000610a1184611252565b9050610a276779c94505b7e78cd960c01b6117af565b610a3b6770ec63df878f38d160c01b6117af565b6000610a46826115cd565b9050610a5c67ee7b58264a269a8460c01b6117af565b610a70678b4016f88e9f0ef160c01b6117af565b8573ffffffffffffffffffffffffffffffffffffffff16610a91828661086e565b73ffffffffffffffffffffffffffffffffffffffff1614925050509392505050565b610ace838383604051806020016040528060008152506112be565b505050565b610ae767d90e419df5b72dbc60c01b6117af565b610aef611c20565b610b03677a09808e66d8281660c01b6117af565b610b17674544a43d23f34c1d60c01b6117af565b610b2b678764f6a7b1d7b55560c01b6117af565b818160089182610b3c9291906134d6565b505050565b600080610b4d83611c9e565b9050600073ffffffffffffffffffffffffffffffffffffffff168173ffffffffffffffffffffffffffffffffffffffff1603610bbe576040517f08c379a0000000000000000000000000000000000000000000000000000000008152600401610bb5906135f2565b60405180910390fd5b80915050919050565b610bdb6786ebecf4988a8e5b60c01b6117af565b610bef6720a2e73717905d5a60c01b6117af565b610c0367749884f6b561cfd960c01b6117af565b610c1767d16bdc82adbe2cba60c01b6117af565b600115153073ffffffffffffffffffffffffffffffffffffffff16632dd34f0f600760009054906101000a900473ffffffffffffffffffffffffffffffffffffffff1687876040518463ffffffff1660e01b8152600401610c7a93929190613667565b602060405180830381865afa158015610c97573d6000803e3d6000fd5b505050506040513d601f19601f82011682018060405250810190610cbb91906136c1565b151514610cfd576040517f08c379a0000000000000000000000000000000000000000000000000000000008152600401610cf49061373a565b60405180910390fd5b610d1167515a1adcf444abcc60c01b6117af565b610d2567835faef4e7c834e260c01b6117af565b610d39676cf5cbd127e4fd3760c01b6117af565b610d438282611cdb565b50505050565b610d5d67b52839da6ea1f50160c01b6117af565b610d65611c20565b610d7967f43b581f311cd4bb60c01b6117af565b610d8d671a03aea62438c37b60c01b6117af565b610da1675073ddde3a60e8cc60c01b6117af565b80600760006101000a81548173ffffffffffffffffffffffffffffffffffffffff021916908373ffffffffffffffffffffffffffffffffffffffff16021790555050565b610df96782404168b85d198160c01b6117af565b610e01611c20565b610e1567911a645a18d5d5f060c01b6117af565b610e2967d01d3a930647f4e360c01b6117af565b610e3d6713ad92cd81fe4bfb60c01b6117af565b610e51675f5b5d46907d4b1160c01b6117af565b610e65673700fc14afdec2a460c01b6117af565b818190508484905014610ead576040517f08c379a0000000000000000000000000000000000000000000000000000000008152600401610ea4906137a6565b60405180910390fd5b610ec167e679de81a50aa66e60c01b6117af565b610ed5676188a358bb4c14fa60c01b6117af565b610ee967659996fc801fc35560c01b6117af565b60005b82829050811015610f7a57610f0b67d04a9114cb2e2eae60c01b6117af565b610f1f67ef5f8d6337e3cb8960c01b6117af565b610f69838383818110610f3557610f346137c6565b5b9050602002016020810190610f4a9190612d55565b868684818110610f5d57610f5c6137c6565b5b90506020020135611cdb565b80610f7390613824565b9050610eec565b5050505050565b60008073ffffffffffffffffffffffffffffffffffffffff168273ffffffffffffffffffffffffffffffffffffffff1603610ff1576040517f08c379a0000000000000000000000000000000000000000000000000000000008152600401610fe8906138de565b60405180910390fd5b600360008373ffffffffffffffffffffffffffffffffffffffff1673ffffffffffffffffffffffffffffffffffffffff168152602001908152602001600020549050919050565b606061104e67c96a9ff1e7c5353860c01b6117af565b61106267875e08b5d384f1b560c01b6117af565b611076678d7c272ab1bbd54660c01b6117af565b60088054611083906130d7565b80601f01602080910402602001604051908101604052809291908181526020018280546110af906130d7565b80156110fc5780601f106110d1576101008083540402835291602001916110fc565b820191906000526020600020905b8154815290600101906020018083116110df57829003601f168201915b5050505050905090565b61110e611c20565b6111186000611cf9565b565b600061113067a7d19f30a9da84ac60c01b6117af565b611144671235b896817e2ce960c01b6117af565b61115867ba44ed99ffbea8f360c01b6117af565b600760009054906101000a900473ffffffffffffffffffffffffffffffffffffffff16905090565b6000600660009054906101000a900473ffffffffffffffffffffffffffffffffffffffff16905090565b6060600180546111b9906130d7565b80601f01602080910402602001604051908101604052809291908181526020018280546111e5906130d7565b80156112325780601f1061120757610100808354040283529160200191611232565b820191906000526020600020905b81548152906001019060200180831161121557829003601f168201915b5050505050905090565b61124e6112476116ee565b8383611dbf565b5050565b600061126867ed5e603dafde184160c01b6117af565b61127c67e7e4838f94e9f22b60c01b6117af565b6112906798ca6dd48a570ebf60c01b6117af565b816040516020016112a1919061393a565b604051602081830303815290604052805190602001209050919050565b6112cf6112c96116ee565b83611892565b61130e576040517f08c379a0000000000000000000000000000000000000000000000000000000008152600401611305906132ff565b60405180910390fd5b61131a84848484611f2b565b50505050565b60606113366737a60f955411c93c60c01b6117af565b61134a6770c4970a5c97db4560c01b6117af565b61135e674641e0f4f0ad0c8e60c01b6117af565b61137267c1731836d569246d60c01b6117af565b61137b82611f87565b6113ba576040517f08c379a00000000000000000000000000000000000000000000000000000000081526004016113b1906139c3565b60405180910390fd5b6113ce67a7d3f43cc1db3db260c01b6117af565b6113e26749a8ef2c042dfa8a60c01b6117af565b6113f667e4b99a4bae5ca15360c01b6117af565b600861140183611fc8565b604051602001611412929190613a66565b6040516020818303038152906040529050919050565b60088054611435906130d7565b80601f0160208091040260200160405190810160405280929190818152602001828054611461906130d7565b80156114ae5780601f10611483576101008083540402835291602001916114ae565b820191906000526020600020905b81548152906001019060200180831161149157829003601f168201915b505050505081565b6000600560008473ffffffffffffffffffffffffffffffffffffffff1673ffffffffffffffffffffffffffffffffffffffff16815260200190815260200160002060008373ffffffffffffffffffffffffffffffffffffffff1673ffffffffffffffffffffffffffffffffffffffff16815260200190815260200160002060009054906101000a900460ff16905092915050565b611552611c20565b600073ffffffffffffffffffffffffffffffffffffffff168173ffffffffffffffffffffffffffffffffffffffff16036115c1576040517f08c379a00000000000000000000000000000000000000000000000000000000081526004016115b890613afc565b60405180910390fd5b6115ca81611cf9565b50565b60006115e367b9d8c8f8c8bcfdd160c01b6117af565b6115f767c17e84e99e4c428760c01b6117af565b61160b678c9f55695a1e9efb60c01b6117af565b8160405160200161161c9190613b89565b604051602081830303815290604052805190602001209050919050565b60007f01ffc9a7000000000000000000000000000000000000000000000000000000007bffffffffffffffffffffffffffffffffffffffffffffffffffffffff1916827bffffffffffffffffffffffffffffffffffffffffffffffffffffffff1916149050919050565b6116ac81611f87565b6116eb576040517f08c379a00000000000000000000000000000000000000000000000000000000081526004016116e2906135f2565b60405180910390fd5b50565b600033905090565b816004600083815260200190815260200160002060006101000a81548173ffffffffffffffffffffffffffffffffffffffff021916908373ffffffffffffffffffffffffffffffffffffffff160217905550808273ffffffffffffffffffffffffffffffffffffffff1661176983610b41565b73ffffffffffffffffffffffffffffffffffffffff167f8c5be1e5ebec7d5bd14f71427d1e84f3dd0314c0f7b2291e5b200ac8c7c3b92560405160405180910390a45050565b50565b60008060006117cb67cd20313a7af67b0b60c01b6117af565b6117df67f560d406af3f259560c01b6117af565b6117f367077ce42475e14c3860c01b6117af565b611807677196bfb7f37b7ad560c01b6117af565b604184511461184b576040517f08c379a000000000000000000000000000000000000000000000000000000000815260040161184290613bfb565b60405180910390fd5b61185f6793094c3b9efa5ad860c01b6117af565b611873670e70e3dad9dd696460c01b6117af565b6020840151925060408401519150606084015160001a90509193909250565b60008061189e83610b41565b90508073ffffffffffffffffffffffffffffffffffffffff168473ffffffffffffffffffffffffffffffffffffffff1614806118e057506118df81856114b6565b5b8061191e57508373ffffffffffffffffffffffffffffffffffffffff1661190684610711565b73ffffffffffffffffffffffffffffffffffffffff16145b91505092915050565b8273ffffffffffffffffffffffffffffffffffffffff1661194782610b41565b73ffffffffffffffffffffffffffffffffffffffff161461199d576040517f08c379a000000000000000000000000000000000000000000000000000000000815260040161199490613c8d565b60405180910390fd5b600073ffffffffffffffffffffffffffffffffffffffff168273ffffffffffffffffffffffffffffffffffffffff1603611a0c576040517f08c379a0000000000000000000000000000000000000000000000000000000008152600401611a0390613d1f565b60405180910390fd5b611a198383836001612096565b8273ffffffffffffffffffffffffffffffffffffffff16611a3982610b41565b73ffffffffffffffffffffffffffffffffffffffff1614611a8f576040517f08c379a0000000000000000000000000000000000000000000000000000000008152600401611a8690613c8d565b60405180910390fd5b6004600082815260200190815260200160002060006101000a81549073ffffffffffffffffffffffffffffffffffffffff02191690556001600360008573ffffffffffffffffffffffffffffffffffffffff1673ffffffffffffffffffffffffffffffffffffffff168152602001908152602001600020600082825403925050819055506001600360008473ffffffffffffffffffffffffffffffffffffffff1673ffffffffffffffffffffffffffffffffffffffff16815260200190815260200160002060008282540192505081905550816002600083815260200190815260200160002060006101000a81548173ffffffffffffffffffffffffffffffffffffffff021916908373ffffffffffffffffffffffffffffffffffffffff160217905550808273ffffffffffffffffffffffffffffffffffffffff168473ffffffffffffffffffffffffffffffffffffffff167fddf252ad1be2c89b69c2b068fc378daa952ba7f163c4a11628f55a4df523b3ef60405160405180910390a4611c1b838383600161209c565b505050565b611c286116ee565b73ffffffffffffffffffffffffffffffffffffffff16611c46611180565b73ffffffffffffffffffffffffffffffffffffffff1614611c9c576040517f08c379a0000000000000000000000000000000000000000000000000000000008152600401611c9390613d8b565b60405180910390fd5b565b60006002600083815260200190815260200160002060009054906101000a900473ffffffffffffffffffffffffffffffffffffffff169050919050565b611cf58282604051806020016040528060008152506120a2565b5050565b6000600660009054906101000a900473ffffffffffffffffffffffffffffffffffffffff16905081600660006101000a81548173ffffffffffffffffffffffffffffffffffffffff021916908373ffffffffffffffffffffffffffffffffffffffff1602179055508173ffffffffffffffffffffffffffffffffffffffff168173ffffffffffffffffffffffffffffffffffffffff167f8be0079c531659141344cd1fd0a4f28419497f9722a3daafe3b4186f6b6457e060405160405180910390a35050565b8173ffffffffffffffffffffffffffffffffffffffff168373ffffffffffffffffffffffffffffffffffffffff1603611e2d576040517f08c379a0000000000000000000000000000000000000000000000000000000008152600401611e2490613df7565b60405180910390fd5b80600560008573ffffffffffffffffffffffffffffffffffffffff1673ffffffffffffffffffffffffffffffffffffffff16815260200190815260200160002060008473ffffffffffffffffffffffffffffffffffffffff1673ffffffffffffffffffffffffffffffffffffffff16815260200190815260200160002060006101000a81548160ff0219169083151502179055508173ffffffffffffffffffffffffffffffffffffffff168373ffffffffffffffffffffffffffffffffffffffff167f17307eab39ab6107e8899845ad3d59bd9653f200f220920489ca2b5937696c3183604051611f1e91906126cb565b60405180910390a3505050565b611f36848484611927565b611f42848484846120fd565b611f81576040517f08c379a0000000000000000000000000000000000000000000000000000000008152600401611f7890613e89565b60405180910390fd5b50505050565b60008073ffffffffffffffffffffffffffffffffffffffff16611fa983611c9e565b73ffffffffffffffffffffffffffffffffffffffff1614159050919050565b606060006001611fd784612284565b01905060008167ffffffffffffffff811115611ff657611ff5612903565b5b6040519080825280601f01601f1916602001820160405280156120285781602001600182028036833780820191505090505b509050600082602001820190505b60011561208b578080600190039150507f3031323334353637383961626364656600000000000000000000000000000000600a86061a8153600a858161207f5761207e613ea9565b5b04945060008503612036575b819350505050919050565b50505050565b50505050565b6120ac83836123d7565b6120b960008484846120fd565b6120f8576040517f08c379a00000000000000000000000000000000000000000000000000000000081526004016120ef90613e89565b60405180910390fd5b505050565b600061211e8473ffffffffffffffffffffffffffffffffffffffff166125f4565b15612277578373ffffffffffffffffffffffffffffffffffffffff1663150b7a026121476116ee565b8786866040518563ffffffff1660e01b81526004016121699493929190613ed8565b6020604051808303816000875af19250505080156121a557506040513d601f19601f820116820180604052508101906121a29190613f39565b60015b612227573d80600081146121d5576040519150601f19603f3d011682016040523d82523d6000602084013e6121da565b606091505b50600081510361221f576040517f08c379a000000000000000000000000000000000000000000000000000000000815260040161221690613e89565b60405180910390fd5b805181602001fd5b63150b7a0260e01b7bffffffffffffffffffffffffffffffffffffffffffffffffffffffff1916817bffffffffffffffffffffffffffffffffffffffffffffffffffffffff19161491505061227c565b600190505b949350505050565b600080600090507a184f03e93ff9f4daa797ed6e38ed64bf6a1f01000000000000000083106122e2577a184f03e93ff9f4daa797ed6e38ed64bf6a1f01000000000000000083816122d8576122d7613ea9565b5b0492506040810190505b6d04ee2d6d415b85acef8100000000831061231f576d04ee2d6d415b85acef8100000000838161231557612314613ea9565b5b0492506020810190505b662386f26fc10000831061234e57662386f26fc10000838161234457612343613ea9565b5b0492506010810190505b6305f5e1008310612377576305f5e100838161236d5761236c613ea9565b5b0492506008810190505b612710831061239c57612710838161239257612391613ea9565b5b0492506004810190505b606483106123bf57606483816123b5576123b4613ea9565b5b0492506002810190505b600a83106123ce576001810190505b80915050919050565b600073ffffffffffffffffffffffffffffffffffffffff168273ffffffffffffffffffffffffffffffffffffffff1603612446576040517f08c379a000000000000000000000000000000000000000000000000000000000815260040161243d90613fb2565b60405180910390fd5b61244f81611f87565b1561248f576040517f08c379a00000000000000000000000000000000000000000000000000000000081526004016124869061401e565b60405180910390fd5b61249d600083836001612096565b6124a681611f87565b156124e6576040517f08c379a00000000000000000000000000000000000000000000000000000000081526004016124dd9061401e565b60405180910390fd5b6001600360008473ffffffffffffffffffffffffffffffffffffffff1673ffffffffffffffffffffffffffffffffffffffff16815260200190815260200160002060008282540192505081905550816002600083815260200190815260200160002060006101000a81548173ffffffffffffffffffffffffffffffffffffffff021916908373ffffffffffffffffffffffffffffffffffffffff160217905550808273ffffffffffffffffffffffffffffffffffffffff16600073ffffffffffffffffffffffffffffffffffffffff167fddf252ad1be2c89b69c2b068fc378daa952ba7f163c4a11628f55a4df523b3ef60405160405180910390a46125f060008383600161209c565b5050565b6000808273ffffffffffffffffffffffffffffffffffffffff163b119050919050565b6000604051905090565b600080fd5b600080fd5b60007fffffffff0000000000000000000000000000000000000000000000000000000082169050919050565b6126608161262b565b811461266b57600080fd5b50565b60008135905061267d81612657565b92915050565b60006020828403121561269957612698612621565b5b60006126a78482850161266e565b91505092915050565b60008115159050919050565b6126c5816126b0565b82525050565b60006020820190506126e060008301846126bc565b92915050565b600081519050919050565b600082825260208201905092915050565b60005b83811015612720578082015181840152602081019050612705565b60008484015250505050565b6000601f19601f8301169050919050565b6000612748826126e6565b61275281856126f1565b9350612762818560208601612702565b61276b8161272c565b840191505092915050565b60006020820190508181036000830152612790818461273d565b905092915050565b6000819050919050565b6127ab81612798565b81146127b657600080fd5b50565b6000813590506127c8816127a2565b92915050565b6000602082840312156127e4576127e3612621565b5b60006127f2848285016127b9565b91505092915050565b600073ffffffffffffffffffffffffffffffffffffffff82169050919050565b6000612826826127fb565b9050919050565b6128368161281b565b82525050565b6000602082019050612851600083018461282d565b92915050565b6128608161281b565b811461286b57600080fd5b50565b60008135905061287d81612857565b92915050565b6000806040838503121561289a57612899612621565b5b60006128a88582860161286e565b92505060206128b9858286016127b9565b9150509250929050565b6000819050919050565b6128d6816128c3565b81146128e157600080fd5b50565b6000813590506128f3816128cd565b92915050565b600080fd5b600080fd5b7f4e487b7100000000000000000000000000000000000000000000000000000000600052604160045260246000fd5b61293b8261272c565b810181811067ffffffffffffffff8211171561295a57612959612903565b5b80604052505050565b600061296d612617565b90506129798282612932565b919050565b600067ffffffffffffffff82111561299957612998612903565b5b6129a28261272c565b9050602081019050919050565b82818337600083830152505050565b60006129d16129cc8461297e565b612963565b9050828152602081018484840111156129ed576129ec6128fe565b5b6129f88482856129af565b509392505050565b600082601f830112612a1557612a146128f9565b5b8135612a258482602086016129be565b91505092915050565b60008060408385031215612a4557612a44612621565b5b6000612a53858286016128e4565b925050602083013567ffffffffffffffff811115612a7457612a73612626565b5b612a8085828601612a00565b9150509250929050565b600080600060608486031215612aa357612aa2612621565b5b6000612ab18682870161286e565b9350506020612ac28682870161286e565b9250506040612ad3868287016127b9565b9150509250925092565b600067ffffffffffffffff821115612af857612af7612903565b5b612b018261272c565b9050602081019050919050565b6000612b21612b1c84612add565b612963565b905082815260208101848484011115612b3d57612b3c6128fe565b5b612b488482856129af565b509392505050565b600082601f830112612b6557612b646128f9565b5b8135612b75848260208601612b0e565b91505092915050565b600080600060608486031215612b9757612b96612621565b5b6000612ba58682870161286e565b935050602084013567ffffffffffffffff811115612bc657612bc5612626565b5b612bd286828701612b50565b925050604084013567ffffffffffffffff811115612bf357612bf2612626565b5b612bff86828701612a00565b9150509250925092565b600080fd5b600080fd5b60008083601f840112612c2957612c286128f9565b5b8235905067ffffffffffffffff811115612c4657612c45612c09565b5b602083019150836001820283011115612c6257612c61612c0e565b5b9250929050565b60008060208385031215612c8057612c7f612621565b5b600083013567ffffffffffffffff811115612c9e57612c9d612626565b5b612caa85828601612c13565b92509250509250929050565b60008060008060808587031215612cd057612ccf612621565b5b600085013567ffffffffffffffff811115612cee57612ced612626565b5b612cfa87828801612b50565b945050602085013567ffffffffffffffff811115612d1b57612d1a612626565b5b612d2787828801612a00565b9350506040612d388782880161286e565b9250506060612d49878288016127b9565b91505092959194509250565b600060208284031215612d6b57612d6a612621565b5b6000612d798482850161286e565b91505092915050565b60008083601f840112612d9857612d976128f9565b5b8235905067ffffffffffffffff811115612db557612db4612c09565b5b602083019150836020820283011115612dd157612dd0612c0e565b5b9250929050565b60008083601f840112612dee57612ded6128f9565b5b8235905067ffffffffffffffff811115612e0b57612e0a612c09565b5b602083019150836020820283011115612e2757612e26612c0e565b5b9250929050565b60008060008060408587031215612e4857612e47612621565b5b600085013567ffffffffffffffff811115612e6657612e65612626565b5b612e7287828801612d82565b9450945050602085013567ffffffffffffffff811115612e9557612e94612626565b5b612ea187828801612dd8565b925092505092959194509250565b612eb881612798565b82525050565b6000602082019050612ed36000830184612eaf565b92915050565b612ee2816126b0565b8114612eed57600080fd5b50565b600081359050612eff81612ed9565b92915050565b60008060408385031215612f1c57612f1b612621565b5b6000612f2a8582860161286e565b9250506020612f3b85828601612ef0565b9150509250929050565b600060208284031215612f5b57612f5a612621565b5b600082013567ffffffffffffffff811115612f7957612f78612626565b5b612f8584828501612b50565b91505092915050565b612f97816128c3565b82525050565b6000602082019050612fb26000830184612f8e565b92915050565b60008060008060808587031215612fd257612fd1612621565b5b6000612fe08782880161286e565b9450506020612ff18782880161286e565b9350506040613002878288016127b9565b925050606085013567ffffffffffffffff81111561302357613022612626565b5b61302f87828801612a00565b91505092959194509250565b6000806040838503121561305257613051612621565b5b60006130608582860161286e565b92505060206130718582860161286e565b9150509250929050565b60006020828403121561309157613090612621565b5b600061309f848285016128e4565b91505092915050565b7f4e487b7100000000000000000000000000000000000000000000000000000000600052602260045260246000fd5b600060028204905060018216806130ef57607f821691505b602082108103613102576131016130a8565b5b50919050565b7f4552433732313a20617070726f76616c20746f2063757272656e74206f776e6560008201527f7200000000000000000000000000000000000000000000000000000000000000602082015250565b60006131646021836126f1565b915061316f82613108565b604082019050919050565b6000602082019050818103600083015261319381613157565b9050919050565b7f4552433732313a20617070726f76652063616c6c6572206973206e6f7420746f60008201527f6b656e206f776e6572206f7220617070726f76656420666f7220616c6c000000602082015250565b60006131f6603d836126f1565b91506132018261319a565b604082019050919050565b60006020820190508181036000830152613225816131e9565b9050919050565b600060ff82169050919050565b6132428161322c565b82525050565b600060808201905061325d6000830187612f8e565b61326a6020830186613239565b6132776040830185612f8e565b6132846060830184612f8e565b95945050505050565b7f4552433732313a2063616c6c6572206973206e6f7420746f6b656e206f776e6560008201527f72206f7220617070726f76656400000000000000000000000000000000000000602082015250565b60006132e9602d836126f1565b91506132f48261328d565b604082019050919050565b60006020820190508181036000830152613318816132dc565b9050919050565b600082905092915050565b60008190508160005260206000209050919050565b60006020601f8301049050919050565b600082821b905092915050565b60006008830261338c7fffffffffffffffffffffffffffffffffffffffffffffffffffffffffffffffff8261334f565b613396868361334f565b95508019841693508086168417925050509392505050565b6000819050919050565b60006133d36133ce6133c984612798565b6133ae565b612798565b9050919050565b6000819050919050565b6133ed836133b8565b6134016133f9826133da565b84845461335c565b825550505050565b600090565b613416613409565b6134218184846133e4565b505050565b5b818110156134455761343a60008261340e565b600181019050613427565b5050565b601f82111561348a5761345b8161332a565b6134648461333f565b81016020851015613473578190505b61348761347f8561333f565b830182613426565b50505b505050565b600082821c905092915050565b60006134ad6000198460080261348f565b1980831691505092915050565b60006134c6838361349c565b9150826002028217905092915050565b6134e0838361331f565b67ffffffffffffffff8111156134f9576134f8612903565b5b61350382546130d7565b61350e828285613449565b6000601f83116001811461353d576000841561352b578287013590505b61353585826134ba565b86555061359d565b601f19841661354b8661332a565b60005b828110156135735784890135825560018201915060208501945060208101905061354e565b86831015613590578489013561358c601f89168261349c565b8355505b6001600288020188555050505b50505050505050565b7f4552433732313a20696e76616c696420746f6b656e2049440000000000000000600082015250565b60006135dc6018836126f1565b91506135e7826135a6565b602082019050919050565b6000602082019050818103600083015261360b816135cf565b9050919050565b600081519050919050565b600082825260208201905092915050565b600061363982613612565b613643818561361d565b9350613653818560208601612702565b61365c8161272c565b840191505092915050565b600060608201905061367c600083018661282d565b818103602083015261368e818561273d565b905081810360408301526136a2818461362e565b9050949350505050565b6000815190506136bb81612ed9565b92915050565b6000602082840312156136d7576136d6612621565b5b60006136e5848285016136ac565b91505092915050565b7f496e76616c6964207369676e6572000000000000000000000000000000000000600082015250565b6000613724600e836126f1565b915061372f826136ee565b602082019050919050565b6000602082019050818103600083015261375381613717565b9050919050565b7f4172726179732073686f756c642068617665207468652073616d652073697a65600082015250565b60006137906020836126f1565b915061379b8261375a565b602082019050919050565b600060208201905081810360008301526137bf81613783565b9050919050565b7f4e487b7100000000000000000000000000000000000000000000000000000000600052603260045260246000fd5b7f4e487b7100000000000000000000000000000000000000000000000000000000600052601160045260246000fd5b600061382f82612798565b91507fffffffffffffffffffffffffffffffffffffffffffffffffffffffffffffffff8203613861576138606137f5565b5b600182019050919050565b7f4552433732313a2061646472657373207a65726f206973206e6f74206120766160008201527f6c6964206f776e65720000000000000000000000000000000000000000000000602082015250565b60006138c86029836126f1565b91506138d38261386c565b604082019050919050565b600060208201905081810360008301526138f7816138bb565b9050919050565b600081905092915050565b6000613914826126e6565b61391e81856138fe565b935061392e818560208601612702565b80840191505092915050565b60006139468284613909565b915081905092915050565b7f4552433732314d657461646174613a2055524920717565727920666f72206e6f60008201527f6e6578697374656e7420746f6b656e0000000000000000000000000000000000602082015250565b60006139ad602f836126f1565b91506139b882613951565b604082019050919050565b600060208201905081810360008301526139dc816139a0565b9050919050565b600081546139f0816130d7565b6139fa81866138fe565b94506001821660008114613a155760018114613a2a57613a5d565b60ff1983168652811515820286019350613a5d565b613a338561332a565b60005b83811015613a5557815481890152600182019150602081019050613a36565b838801955050505b50505092915050565b6000613a7282856139e3565b9150613a7e8284613909565b91508190509392505050565b7f4f776e61626c653a206e6577206f776e657220697320746865207a65726f206160008201527f6464726573730000000000000000000000000000000000000000000000000000602082015250565b6000613ae66026836126f1565b9150613af182613a8a565b604082019050919050565b60006020820190508181036000830152613b1581613ad9565b9050919050565b7f19457468657265756d205369676e6564204d6573736167653a0a333200000000600082015250565b6000613b52601c836138fe565b9150613b5d82613b1c565b601c82019050919050565b6000819050919050565b613b83613b7e826128c3565b613b68565b82525050565b6000613b9482613b45565b9150613ba08284613b72565b60208201915081905092915050565b7f496e76616c6964207369676e6174757265206c656e6774682100000000000000600082015250565b6000613be56019836126f1565b9150613bf082613baf565b602082019050919050565b60006020820190508181036000830152613c1481613bd8565b9050919050565b7f4552433732313a207472616e736665722066726f6d20696e636f72726563742060008201527f6f776e6572000000000000000000000000000000000000000000000000000000602082015250565b6000613c776025836126f1565b9150613c8282613c1b565b604082019050919050565b60006020820190508181036000830152613ca681613c6a565b9050919050565b7f4552433732313a207472616e7366657220746f20746865207a65726f2061646460008201527f7265737300000000000000000000000000000000000000000000000000000000602082015250565b6000613d096024836126f1565b9150613d1482613cad565b604082019050919050565b60006020820190508181036000830152613d3881613cfc565b9050919050565b7f4f776e61626c653a2063616c6c6572206973206e6f7420746865206f776e6572600082015250565b6000613d756020836126f1565b9150613d8082613d3f565b602082019050919050565b60006020820190508181036000830152613da481613d68565b9050919050565b7f4552433732313a20617070726f766520746f2063616c6c657200000000000000600082015250565b6000613de16019836126f1565b9150613dec82613dab565b602082019050919050565b60006020820190508181036000830152613e1081613dd4565b9050919050565b7f4552433732313a207472616e7366657220746f206e6f6e20455243373231526560008201527f63656976657220696d706c656d656e7465720000000000000000000000000000602082015250565b6000613e736032836126f1565b9150613e7e82613e17565b604082019050919050565b60006020820190508181036000830152613ea281613e66565b9050919050565b7f4e487b7100000000000000000000000000000000000000000000000000000000600052601260045260246000fd5b6000608082019050613eed600083018761282d565b613efa602083018661282d565b613f076040830185612eaf565b8181036060830152613f19818461362e565b905095945050505050565b600081519050613f3381612657565b92915050565b600060208284031215613f4f57613f4e612621565b5b6000613f5d84828501613f24565b91505092915050565b7f4552433732313a206d696e7420746f20746865207a65726f2061646472657373600082015250565b6000613f9c6020836126f1565b9150613fa782613f66565b602082019050919050565b60006020820190508181036000830152613fcb81613f8f565b9050919050565b7f4552433732313a20746f6b656e20616c7265616479206d696e74656400000000600082015250565b6000614008601c836126f1565b915061401382613fd2565b602082019050919050565b6000602082019050818103600083015261403781613ffb565b905091905056fea2646970667358221220b1c066ca373ba1a1317ad0bfa5e52ac5df28132f3b8430b1b333c00f4c56aa5a64736f6c6343000812003368747470733a2f2f746573746e6574732e6f70656e7365612e696f2f6173736574732f617262697472756d2d676f65726c692f",
  "linkReferences": {},
  "deployedLinkReferences": {}
}