{
  "_format": "hh-sol-artifact-1",
  "contractName": "Item",
  "sourceName": "contracts/Item.sol",
  "abi": [
    {
      "inputs": [],
      "stateMutability": "nonpayable",
      "type": "constructor"
    },
    {
      "anonymous": false,
      "inputs": [
        {
          "indexed": true,
          "internalType": "address",
          "name": "owner",
          "type": "address"
        },
        {
          "indexed": true,
          "internalType": "address",
          "name": "approved",
          "type": "address"
        },
        {
          "indexed": true,
          "internalType": "uint256",
          "name": "tokenId",
          "type": "uint256"
        }
      ],
      "name": "Approval",
      "type": "event"
    },
    {
      "anonymous": false,
      "inputs": [
        {
          "indexed": true,
          "internalType": "address",
          "name": "owner",
          "type": "address"
        },
        {
          "indexed": true,
          "internalType": "address",
          "name": "operator",
          "type": "address"
        },
        {
          "indexed": false,
          "internalType": "bool",
          "name": "approved",
          "type": "bool"
        }
      ],
      "name": "ApprovalForAll",
      "type": "event"
    },
    {
      "anonymous": false,
      "inputs": [
        {
          "indexed": true,
          "internalType": "address",
          "name": "from",
          "type": "address"
        },
        {
          "indexed": true,
          "internalType": "address",
          "name": "to",
          "type": "address"
        },
        {
          "indexed": true,
          "internalType": "uint256",
          "name": "tokenId",
          "type": "uint256"
        }
      ],
      "name": "Transfer",
      "type": "event"
    },
    {
      "inputs": [
        {
          "internalType": "address",
          "name": "to",
          "type": "address"
        },
        {
          "internalType": "uint256",
          "name": "tokenId",
          "type": "uint256"
        }
      ],
      "name": "approve",
      "outputs": [],
      "stateMutability": "nonpayable",
      "type": "function"
    },
    {
      "inputs": [
        {
          "internalType": "address",
          "name": "owner",
          "type": "address"
        }
      ],
      "name": "balanceOf",
      "outputs": [
        {
          "internalType": "uint256",
          "name": "",
          "type": "uint256"
        }
      ],
      "stateMutability": "view",
      "type": "function"
    },
    {
      "inputs": [
        {
          "internalType": "uint256",
          "name": "tokenId",
          "type": "uint256"
        }
      ],
      "name": "getApproved",
      "outputs": [
        {
          "internalType": "address",
          "name": "",
          "type": "address"
        }
      ],
      "stateMutability": "view",
      "type": "function"
    },
    {
      "inputs": [
        {
          "internalType": "bytes32",
          "name": "_messageHash",
          "type": "bytes32"
        }
      ],
      "name": "getEthSignedMessageHash",
      "outputs": [
        {
          "internalType": "bytes32",
          "name": "",
          "type": "bytes32"
        }
      ],
      "stateMutability": "pure",
      "type": "function"
    },
    {
      "inputs": [
        {
          "internalType": "string",
          "name": "_message",
          "type": "string"
        }
      ],
      "name": "getMessageHash",
      "outputs": [
        {
          "internalType": "bytes32",
          "name": "",
          "type": "bytes32"
        }
      ],
      "stateMutability": "pure",
      "type": "function"
    },
    {
      "inputs": [
        {
          "internalType": "address",
          "name": "owner",
          "type": "address"
        },
        {
          "internalType": "address",
          "name": "operator",
          "type": "address"
        }
      ],
      "name": "isApprovedForAll",
      "outputs": [
        {
          "internalType": "bool",
          "name": "",
          "type": "bool"
        }
      ],
      "stateMutability": "view",
      "type": "function"
    },
    {
      "inputs": [
        {
          "internalType": "address",
          "name": "to",
          "type": "address"
        },
        {
          "internalType": "uint256",
          "name": "tokenId",
          "type": "uint256"
        }
      ],
      "name": "mint",
      "outputs": [],
      "stateMutability": "nonpayable",
      "type": "function"
    },
    {
      "inputs": [],
      "name": "name",
      "outputs": [
        {
          "internalType": "string",
          "name": "",
          "type": "string"
        }
      ],
      "stateMutability": "view",
      "type": "function"
    },
    {
      "inputs": [
        {
          "internalType": "uint256",
          "name": "tokenId",
          "type": "uint256"
        }
      ],
      "name": "ownerOf",
      "outputs": [
        {
          "internalType": "address",
          "name": "",
          "type": "address"
        }
      ],
      "stateMutability": "view",
      "type": "function"
    },
    {
      "inputs": [
        {
          "internalType": "bytes32",
          "name": "_ethSignedMessageHash",
          "type": "bytes32"
        },
        {
          "internalType": "bytes",
          "name": "_signature",
          "type": "bytes"
        }
      ],
      "name": "recover",
      "outputs": [
        {
          "internalType": "address",
          "name": "",
          "type": "address"
        }
      ],
      "stateMutability": "pure",
      "type": "function"
    },
    {
      "inputs": [
        {
          "internalType": "address",
          "name": "from",
          "type": "address"
        },
        {
          "internalType": "address",
          "name": "to",
          "type": "address"
        },
        {
          "internalType": "uint256",
          "name": "tokenId",
          "type": "uint256"
        }
      ],
      "name": "safeTransferFrom",
      "outputs": [],
      "stateMutability": "nonpayable",
      "type": "function"
    },
    {
      "inputs": [
        {
          "internalType": "address",
          "name": "from",
          "type": "address"
        },
        {
          "internalType": "address",
          "name": "to",
          "type": "address"
        },
        {
          "internalType": "uint256",
          "name": "tokenId",
          "type": "uint256"
        },
        {
          "internalType": "bytes",
          "name": "data",
          "type": "bytes"
        }
      ],
      "name": "safeTransferFrom",
      "outputs": [],
      "stateMutability": "nonpayable",
      "type": "function"
    },
    {
      "inputs": [
        {
          "internalType": "address",
          "name": "operator",
          "type": "address"
        },
        {
          "internalType": "bool",
          "name": "approved",
          "type": "bool"
        }
      ],
      "name": "setApprovalForAll",
      "outputs": [],
      "stateMutability": "nonpayable",
      "type": "function"
    },
    {
      "inputs": [
        {
          "internalType": "bytes4",
          "name": "interfaceId",
          "type": "bytes4"
        }
      ],
      "name": "supportsInterface",
      "outputs": [
        {
          "internalType": "bool",
          "name": "",
          "type": "bool"
        }
      ],
      "stateMutability": "view",
      "type": "function"
    },
    {
      "inputs": [],
      "name": "symbol",
      "outputs": [
        {
          "internalType": "string",
          "name": "",
          "type": "string"
        }
      ],
      "stateMutability": "view",
      "type": "function"
    },
    {
      "inputs": [
        {
          "internalType": "uint256",
          "name": "tokenId",
          "type": "uint256"
        }
      ],
      "name": "tokenURI",
      "outputs": [
        {
          "internalType": "string",
          "name": "",
          "type": "string"
        }
      ],
      "stateMutability": "view",
      "type": "function"
    },
    {
      "inputs": [
        {
          "internalType": "address",
          "name": "from",
          "type": "address"
        },
        {
          "internalType": "address",
          "name": "to",
          "type": "address"
        },
        {
          "internalType": "uint256",
          "name": "tokenId",
          "type": "uint256"
        }
      ],
      "name": "transferFrom",
      "outputs": [],
      "stateMutability": "nonpayable",
      "type": "function"
    },
    {
      "inputs": [
        {
          "internalType": "address",
          "name": "_signer",
          "type": "address"
        },
        {
          "internalType": "string",
          "name": "_message",
          "type": "string"
        },
        {
          "internalType": "bytes",
          "name": "_signature",
          "type": "bytes"
        }
      ],
      "name": "verify",
      "outputs": [
        {
          "internalType": "bool",
          "name": "",
          "type": "bool"
        }
      ],
      "stateMutability": "pure",
      "type": "function"
    },
    {
      "inputs": [
        {
          "internalType": "address",
          "name": "_signer",
          "type": "address"
        },
        {
          "internalType": "string",
          "name": "_message",
          "type": "string"
        },
        {
          "internalType": "bytes",
          "name": "_signature",
          "type": "bytes"
        },
        {
          "internalType": "address",
          "name": "to",
          "type": "address"
        },
        {
          "internalType": "uint256",
          "name": "tokenId",
          "type": "uint256"
        }
      ],
      "name": "verifyAndMint",
      "outputs": [
        {
          "internalType": "bool",
          "name": "",
          "type": "bool"
        }
      ],
      "stateMutability": "nonpayable",
      "type": "function"
    }
  ],
  "bytecode": "0x60806040523480156200001157600080fd5b506040518060400160405280600481526020017f4974656d000000000000000000000000000000000000000000000000000000008152506040518060400160405280600381526020017f49544d000000000000000000000000000000000000000000000000000000000081525081600090816200008f919062000324565b508060019081620000a1919062000324565b5050506200040b565b600081519050919050565b7f4e487b7100000000000000000000000000000000000000000000000000000000600052604160045260246000fd5b7f4e487b7100000000000000000000000000000000000000000000000000000000600052602260045260246000fd5b600060028204905060018216806200012c57607f821691505b602082108103620001425762000141620000e4565b5b50919050565b60008190508160005260206000209050919050565b60006020601f8301049050919050565b600082821b905092915050565b600060088302620001ac7fffffffffffffffffffffffffffffffffffffffffffffffffffffffffffffffff826200016d565b620001b886836200016d565b95508019841693508086168417925050509392505050565b6000819050919050565b6000819050919050565b600062000205620001ff620001f984620001d0565b620001da565b620001d0565b9050919050565b6000819050919050565b6200022183620001e4565b6200023962000230826200020c565b8484546200017a565b825550505050565b600090565b6200025062000241565b6200025d81848462000216565b505050565b5b8181101562000285576200027960008262000246565b60018101905062000263565b5050565b601f821115620002d4576200029e8162000148565b620002a9846200015d565b81016020851015620002b9578190505b620002d1620002c8856200015d565b83018262000262565b50505b505050565b600082821c905092915050565b6000620002f960001984600802620002d9565b1980831691505092915050565b6000620003148383620002e6565b9150826002028217905092915050565b6200032f82620000aa565b67ffffffffffffffff8111156200034b576200034a620000b5565b5b62000357825462000113565b6200036482828562000289565b600060209050601f8311600181146200039c576000841562000387578287015190505b62000393858262000306565b86555062000403565b601f198416620003ac8662000148565b60005b82811015620003d657848901518255600182019150602085019450602081019050620003af565b86831015620003f65784890151620003f2601f891682620002e6565b8355505b6001600288020188555050505b505050505050565b612dfd806200041b6000396000f3fe608060405234801561001057600080fd5b50600436106101215760003560e01c80636352211e116100ad578063b88d4fde11610071578063b88d4fde1461033e578063c87b56dd1461035a578063e8531d921461038a578063e985e9c5146103ba578063fa540801146103ea57610121565b80636352211e1461027457806370a08231146102a457806395d89b41146102d4578063a22cb465146102f2578063b446f3b21461030e57610121565b806319045a25116100f457806319045a25146101c057806323b872dd146101f05780632dd34f0f1461020c57806340c10f191461023c57806342842e0e1461025857610121565b806301ffc9a71461012657806306fdde0314610156578063081812fc14610174578063095ea7b3146101a4575b600080fd5b610140600480360381019061013b9190611b7e565b61041a565b60405161014d9190611bc6565b60405180910390f35b61015e6104fc565b60405161016b9190611c71565b60405180910390f35b61018e60048036038101906101899190611cc9565b61058e565b60405161019b9190611d37565b60405180910390f35b6101be60048036038101906101b99190611d7e565b6105d4565b005b6101da60048036038101906101d59190611f29565b6106eb565b6040516101e79190611d37565b60405180910390f35b61020a60048036038101906102059190611f85565b61075a565b005b61022660048036038101906102219190612079565b6107ba565b6040516102339190611bc6565b60405180910390f35b61025660048036038101906102519190611d7e565b610818565b005b610272600480360381019061026d9190611f85565b610826565b005b61028e60048036038101906102899190611cc9565b610846565b60405161029b9190611d37565b60405180910390f35b6102be60048036038101906102b99190612104565b6108cc565b6040516102cb9190612140565b60405180910390f35b6102dc610983565b6040516102e99190611c71565b60405180910390f35b61030c60048036038101906103079190612187565b610a15565b005b610328600480360381019061032391906121c7565b610a2b565b604051610335919061221f565b60405180910390f35b6103586004803603810190610353919061223a565b610a5b565b005b610374600480360381019061036f9190611cc9565b610abd565b6040516103819190611c71565b60405180910390f35b6103a4600480360381019061039f91906122bd565b610b25565b6040516103b19190611bc6565b60405180910390f35b6103d460048036038101906103cf9190612370565b610c18565b6040516103e19190611bc6565b60405180910390f35b61040460048036038101906103ff91906123b0565b610cac565b604051610411919061221f565b60405180910390f35b60007f80ac58cd000000000000000000000000000000000000000000000000000000007bffffffffffffffffffffffffffffffffffffffffffffffffffffffff1916827bffffffffffffffffffffffffffffffffffffffffffffffffffffffff191614806104e557507f5b5e139f000000000000000000000000000000000000000000000000000000007bffffffffffffffffffffffffffffffffffffffffffffffffffffffff1916827bffffffffffffffffffffffffffffffffffffffffffffffffffffffff1916145b806104f557506104f482610cdc565b5b9050919050565b60606000805461050b9061240c565b80601f01602080910402602001604051908101604052809291908181526020018280546105379061240c565b80156105845780601f1061055957610100808354040283529160200191610584565b820191906000526020600020905b81548152906001019060200180831161056757829003601f168201915b5050505050905090565b600061059982610d46565b6004600083815260200190815260200160002060009054906101000a900473ffffffffffffffffffffffffffffffffffffffff169050919050565b60006105df82610846565b90508073ffffffffffffffffffffffffffffffffffffffff168373ffffffffffffffffffffffffffffffffffffffff160361064f576040517f08c379a0000000000000000000000000000000000000000000000000000000008152600401610646906124af565b60405180910390fd5b8073ffffffffffffffffffffffffffffffffffffffff1661066e610d91565b73ffffffffffffffffffffffffffffffffffffffff16148061069d575061069c81610697610d91565b610c18565b5b6106dc576040517f08c379a00000000000000000000000000000000000000000000000000000000081526004016106d390612541565b60405180910390fd5b6106e68383610d99565b505050565b6000806000806106fa85610e52565b92509250925060018682858560405160008152602001604052604051610723949392919061257d565b6020604051602081039080840390855afa158015610745573d6000803e3d6000fd5b50505060206040510351935050505092915050565b61076b610765610d91565b82610eba565b6107aa576040517f08c379a00000000000000000000000000000000000000000000000000000000081526004016107a190612634565b60405180910390fd5b6107b5838383610f4f565b505050565b6000806107c684610a2b565b905060006107d382610cac565b90508573ffffffffffffffffffffffffffffffffffffffff166107f682866106eb565b73ffffffffffffffffffffffffffffffffffffffff1614925050509392505050565b6108228282611248565b5050565b61084183838360405180602001604052806000815250610a5b565b505050565b60008061085283611266565b9050600073ffffffffffffffffffffffffffffffffffffffff168173ffffffffffffffffffffffffffffffffffffffff16036108c3576040517f08c379a00000000000000000000000000000000000000000000000000000000081526004016108ba906126a0565b60405180910390fd5b80915050919050565b60008073ffffffffffffffffffffffffffffffffffffffff168273ffffffffffffffffffffffffffffffffffffffff160361093c576040517f08c379a000000000000000000000000000000000000000000000000000000000815260040161093390612732565b60405180910390fd5b600360008373ffffffffffffffffffffffffffffffffffffffff1673ffffffffffffffffffffffffffffffffffffffff168152602001908152602001600020549050919050565b6060600180546109929061240c565b80601f01602080910402602001604051908101604052809291908181526020018280546109be9061240c565b8015610a0b5780601f106109e057610100808354040283529160200191610a0b565b820191906000526020600020905b8154815290600101906020018083116109ee57829003601f168201915b5050505050905090565b610a27610a20610d91565b83836112a3565b5050565b600081604051602001610a3e919061278e565b604051602081830303815290604052805190602001209050919050565b610a6c610a66610d91565b83610eba565b610aab576040517f08c379a0000000000000000000000000000000000000000000000000000000008152600401610aa290612634565b60405180910390fd5b610ab78484848461140f565b50505050565b6060610ac882610d46565b6000610ad261146b565b90506000815111610af25760405180602001604052806000815250610b1d565b80610afc84611482565b604051602001610b0d9291906127a5565b6040516020818303038152906040525b915050919050565b6000803073ffffffffffffffffffffffffffffffffffffffff16632dd34f0f8888886040518463ffffffff1660e01b8152600401610b659392919061281e565b602060405180830381865afa158015610b82573d6000803e3d6000fd5b505050506040513d601f19601f82011682018060405250810190610ba69190612878565b90506001151581151514610bef576040517f08c379a0000000000000000000000000000000000000000000000000000000008152600401610be6906128f1565b60405180910390fd5b8015610c0957610bff8484610818565b6001915050610c0f565b60009150505b95945050505050565b6000600560008473ffffffffffffffffffffffffffffffffffffffff1673ffffffffffffffffffffffffffffffffffffffff16815260200190815260200160002060008373ffffffffffffffffffffffffffffffffffffffff1673ffffffffffffffffffffffffffffffffffffffff16815260200190815260200160002060009054906101000a900460ff16905092915050565b600081604051602001610cbf919061297e565b604051602081830303815290604052805190602001209050919050565b60007f01ffc9a7000000000000000000000000000000000000000000000000000000007bffffffffffffffffffffffffffffffffffffffffffffffffffffffff1916827bffffffffffffffffffffffffffffffffffffffffffffffffffffffff1916149050919050565b610d4f81611550565b610d8e576040517f08c379a0000000000000000000000000000000000000000000000000000000008152600401610d85906126a0565b60405180910390fd5b50565b600033905090565b816004600083815260200190815260200160002060006101000a81548173ffffffffffffffffffffffffffffffffffffffff021916908373ffffffffffffffffffffffffffffffffffffffff160217905550808273ffffffffffffffffffffffffffffffffffffffff16610e0c83610846565b73ffffffffffffffffffffffffffffffffffffffff167f8c5be1e5ebec7d5bd14f71427d1e84f3dd0314c0f7b2291e5b200ac8c7c3b92560405160405180910390a45050565b60008060006041845114610e9b576040517f08c379a0000000000000000000000000000000000000000000000000000000008152600401610e92906129f0565b60405180910390fd5b6020840151925060408401519150606084015160001a90509193909250565b600080610ec683610846565b90508073ffffffffffffffffffffffffffffffffffffffff168473ffffffffffffffffffffffffffffffffffffffff161480610f085750610f078185610c18565b5b80610f4657508373ffffffffffffffffffffffffffffffffffffffff16610f2e8461058e565b73ffffffffffffffffffffffffffffffffffffffff16145b91505092915050565b8273ffffffffffffffffffffffffffffffffffffffff16610f6f82610846565b73ffffffffffffffffffffffffffffffffffffffff1614610fc5576040517f08c379a0000000000000000000000000000000000000000000000000000000008152600401610fbc90612a82565b60405180910390fd5b600073ffffffffffffffffffffffffffffffffffffffff168273ffffffffffffffffffffffffffffffffffffffff1603611034576040517f08c379a000000000000000000000000000000000000000000000000000000000815260040161102b90612b14565b60405180910390fd5b6110418383836001611591565b8273ffffffffffffffffffffffffffffffffffffffff1661106182610846565b73ffffffffffffffffffffffffffffffffffffffff16146110b7576040517f08c379a00000000000000000000000000000000000000000000000000000000081526004016110ae90612a82565b60405180910390fd5b6004600082815260200190815260200160002060006101000a81549073ffffffffffffffffffffffffffffffffffffffff02191690556001600360008573ffffffffffffffffffffffffffffffffffffffff1673ffffffffffffffffffffffffffffffffffffffff168152602001908152602001600020600082825403925050819055506001600360008473ffffffffffffffffffffffffffffffffffffffff1673ffffffffffffffffffffffffffffffffffffffff16815260200190815260200160002060008282540192505081905550816002600083815260200190815260200160002060006101000a81548173ffffffffffffffffffffffffffffffffffffffff021916908373ffffffffffffffffffffffffffffffffffffffff160217905550808273ffffffffffffffffffffffffffffffffffffffff168473ffffffffffffffffffffffffffffffffffffffff167fddf252ad1be2c89b69c2b068fc378daa952ba7f163c4a11628f55a4df523b3ef60405160405180910390a46112438383836001611597565b505050565b61126282826040518060200160405280600081525061159d565b5050565b60006002600083815260200190815260200160002060009054906101000a900473ffffffffffffffffffffffffffffffffffffffff169050919050565b8173ffffffffffffffffffffffffffffffffffffffff168373ffffffffffffffffffffffffffffffffffffffff1603611311576040517f08c379a000000000000000000000000000000000000000000000000000000000815260040161130890612b80565b60405180910390fd5b80600560008573ffffffffffffffffffffffffffffffffffffffff1673ffffffffffffffffffffffffffffffffffffffff16815260200190815260200160002060008473ffffffffffffffffffffffffffffffffffffffff1673ffffffffffffffffffffffffffffffffffffffff16815260200190815260200160002060006101000a81548160ff0219169083151502179055508173ffffffffffffffffffffffffffffffffffffffff168373ffffffffffffffffffffffffffffffffffffffff167f17307eab39ab6107e8899845ad3d59bd9653f200f220920489ca2b5937696c31836040516114029190611bc6565b60405180910390a3505050565b61141a848484610f4f565b611426848484846115f8565b611465576040517f08c379a000000000000000000000000000000000000000000000000000000000815260040161145c90612c12565b60405180910390fd5b50505050565b606060405180602001604052806000815250905090565b6060600060016114918461177f565b01905060008167ffffffffffffffff8111156114b0576114af611dfe565b5b6040519080825280601f01601f1916602001820160405280156114e25781602001600182028036833780820191505090505b509050600082602001820190505b600115611545578080600190039150507f3031323334353637383961626364656600000000000000000000000000000000600a86061a8153600a858161153957611538612c32565b5b049450600085036114f0575b819350505050919050565b60008073ffffffffffffffffffffffffffffffffffffffff1661157283611266565b73ffffffffffffffffffffffffffffffffffffffff1614159050919050565b50505050565b50505050565b6115a783836118d2565b6115b460008484846115f8565b6115f3576040517f08c379a00000000000000000000000000000000000000000000000000000000081526004016115ea90612c12565b60405180910390fd5b505050565b60006116198473ffffffffffffffffffffffffffffffffffffffff16611aef565b15611772578373ffffffffffffffffffffffffffffffffffffffff1663150b7a02611642610d91565b8786866040518563ffffffff1660e01b81526004016116649493929190612c61565b6020604051808303816000875af19250505080156116a057506040513d601f19601f8201168201806040525081019061169d9190612cc2565b60015b611722573d80600081146116d0576040519150601f19603f3d011682016040523d82523d6000602084013e6116d5565b606091505b50600081510361171a576040517f08c379a000000000000000000000000000000000000000000000000000000000815260040161171190612c12565b60405180910390fd5b805181602001fd5b63150b7a0260e01b7bffffffffffffffffffffffffffffffffffffffffffffffffffffffff1916817bffffffffffffffffffffffffffffffffffffffffffffffffffffffff191614915050611777565b600190505b949350505050565b600080600090507a184f03e93ff9f4daa797ed6e38ed64bf6a1f01000000000000000083106117dd577a184f03e93ff9f4daa797ed6e38ed64bf6a1f01000000000000000083816117d3576117d2612c32565b5b0492506040810190505b6d04ee2d6d415b85acef8100000000831061181a576d04ee2d6d415b85acef810000000083816118105761180f612c32565b5b0492506020810190505b662386f26fc10000831061184957662386f26fc10000838161183f5761183e612c32565b5b0492506010810190505b6305f5e1008310611872576305f5e100838161186857611867612c32565b5b0492506008810190505b612710831061189757612710838161188d5761188c612c32565b5b0492506004810190505b606483106118ba57606483816118b0576118af612c32565b5b0492506002810190505b600a83106118c9576001810190505b80915050919050565b600073ffffffffffffffffffffffffffffffffffffffff168273ffffffffffffffffffffffffffffffffffffffff1603611941576040517f08c379a000000000000000000000000000000000000000000000000000000000815260040161193890612d3b565b60405180910390fd5b61194a81611550565b1561198a576040517f08c379a000000000000000000000000000000000000000000000000000000000815260040161198190612da7565b60405180910390fd5b611998600083836001611591565b6119a181611550565b156119e1576040517f08c379a00000000000000000000000000000000000000000000000000000000081526004016119d890612da7565b60405180910390fd5b6001600360008473ffffffffffffffffffffffffffffffffffffffff1673ffffffffffffffffffffffffffffffffffffffff16815260200190815260200160002060008282540192505081905550816002600083815260200190815260200160002060006101000a81548173ffffffffffffffffffffffffffffffffffffffff021916908373ffffffffffffffffffffffffffffffffffffffff160217905550808273ffffffffffffffffffffffffffffffffffffffff16600073ffffffffffffffffffffffffffffffffffffffff167fddf252ad1be2c89b69c2b068fc378daa952ba7f163c4a11628f55a4df523b3ef60405160405180910390a4611aeb600083836001611597565b5050565b6000808273ffffffffffffffffffffffffffffffffffffffff163b119050919050565b6000604051905090565b600080fd5b600080fd5b60007fffffffff0000000000000000000000000000000000000000000000000000000082169050919050565b611b5b81611b26565b8114611b6657600080fd5b50565b600081359050611b7881611b52565b92915050565b600060208284031215611b9457611b93611b1c565b5b6000611ba284828501611b69565b91505092915050565b60008115159050919050565b611bc081611bab565b82525050565b6000602082019050611bdb6000830184611bb7565b92915050565b600081519050919050565b600082825260208201905092915050565b60005b83811015611c1b578082015181840152602081019050611c00565b60008484015250505050565b6000601f19601f8301169050919050565b6000611c4382611be1565b611c4d8185611bec565b9350611c5d818560208601611bfd565b611c6681611c27565b840191505092915050565b60006020820190508181036000830152611c8b8184611c38565b905092915050565b6000819050919050565b611ca681611c93565b8114611cb157600080fd5b50565b600081359050611cc381611c9d565b92915050565b600060208284031215611cdf57611cde611b1c565b5b6000611ced84828501611cb4565b91505092915050565b600073ffffffffffffffffffffffffffffffffffffffff82169050919050565b6000611d2182611cf6565b9050919050565b611d3181611d16565b82525050565b6000602082019050611d4c6000830184611d28565b92915050565b611d5b81611d16565b8114611d6657600080fd5b50565b600081359050611d7881611d52565b92915050565b60008060408385031215611d9557611d94611b1c565b5b6000611da385828601611d69565b9250506020611db485828601611cb4565b9150509250929050565b6000819050919050565b611dd181611dbe565b8114611ddc57600080fd5b50565b600081359050611dee81611dc8565b92915050565b600080fd5b600080fd5b7f4e487b7100000000000000000000000000000000000000000000000000000000600052604160045260246000fd5b611e3682611c27565b810181811067ffffffffffffffff82111715611e5557611e54611dfe565b5b80604052505050565b6000611e68611b12565b9050611e748282611e2d565b919050565b600067ffffffffffffffff821115611e9457611e93611dfe565b5b611e9d82611c27565b9050602081019050919050565b82818337600083830152505050565b6000611ecc611ec784611e79565b611e5e565b905082815260208101848484011115611ee857611ee7611df9565b5b611ef3848285611eaa565b509392505050565b600082601f830112611f1057611f0f611df4565b5b8135611f20848260208601611eb9565b91505092915050565b60008060408385031215611f4057611f3f611b1c565b5b6000611f4e85828601611ddf565b925050602083013567ffffffffffffffff811115611f6f57611f6e611b21565b5b611f7b85828601611efb565b9150509250929050565b600080600060608486031215611f9e57611f9d611b1c565b5b6000611fac86828701611d69565b9350506020611fbd86828701611d69565b9250506040611fce86828701611cb4565b9150509250925092565b600067ffffffffffffffff821115611ff357611ff2611dfe565b5b611ffc82611c27565b9050602081019050919050565b600061201c61201784611fd8565b611e5e565b90508281526020810184848401111561203857612037611df9565b5b612043848285611eaa565b509392505050565b600082601f8301126120605761205f611df4565b5b8135612070848260208601612009565b91505092915050565b60008060006060848603121561209257612091611b1c565b5b60006120a086828701611d69565b935050602084013567ffffffffffffffff8111156120c1576120c0611b21565b5b6120cd8682870161204b565b925050604084013567ffffffffffffffff8111156120ee576120ed611b21565b5b6120fa86828701611efb565b9150509250925092565b60006020828403121561211a57612119611b1c565b5b600061212884828501611d69565b91505092915050565b61213a81611c93565b82525050565b60006020820190506121556000830184612131565b92915050565b61216481611bab565b811461216f57600080fd5b50565b6000813590506121818161215b565b92915050565b6000806040838503121561219e5761219d611b1c565b5b60006121ac85828601611d69565b92505060206121bd85828601612172565b9150509250929050565b6000602082840312156121dd576121dc611b1c565b5b600082013567ffffffffffffffff8111156121fb576121fa611b21565b5b6122078482850161204b565b91505092915050565b61221981611dbe565b82525050565b60006020820190506122346000830184612210565b92915050565b6000806000806080858703121561225457612253611b1c565b5b600061226287828801611d69565b945050602061227387828801611d69565b935050604061228487828801611cb4565b925050606085013567ffffffffffffffff8111156122a5576122a4611b21565b5b6122b187828801611efb565b91505092959194509250565b600080600080600060a086880312156122d9576122d8611b1c565b5b60006122e788828901611d69565b955050602086013567ffffffffffffffff81111561230857612307611b21565b5b6123148882890161204b565b945050604086013567ffffffffffffffff81111561233557612334611b21565b5b61234188828901611efb565b935050606061235288828901611d69565b925050608061236388828901611cb4565b9150509295509295909350565b6000806040838503121561238757612386611b1c565b5b600061239585828601611d69565b92505060206123a685828601611d69565b9150509250929050565b6000602082840312156123c6576123c5611b1c565b5b60006123d484828501611ddf565b91505092915050565b7f4e487b7100000000000000000000000000000000000000000000000000000000600052602260045260246000fd5b6000600282049050600182168061242457607f821691505b602082108103612437576124366123dd565b5b50919050565b7f4552433732313a20617070726f76616c20746f2063757272656e74206f776e6560008201527f7200000000000000000000000000000000000000000000000000000000000000602082015250565b6000612499602183611bec565b91506124a48261243d565b604082019050919050565b600060208201905081810360008301526124c88161248c565b9050919050565b7f4552433732313a20617070726f76652063616c6c6572206973206e6f7420746f60008201527f6b656e206f776e6572206f7220617070726f76656420666f7220616c6c000000602082015250565b600061252b603d83611bec565b9150612536826124cf565b604082019050919050565b6000602082019050818103600083015261255a8161251e565b9050919050565b600060ff82169050919050565b61257781612561565b82525050565b60006080820190506125926000830187612210565b61259f602083018661256e565b6125ac6040830185612210565b6125b96060830184612210565b95945050505050565b7f4552433732313a2063616c6c6572206973206e6f7420746f6b656e206f776e6560008201527f72206f7220617070726f76656400000000000000000000000000000000000000602082015250565b600061261e602d83611bec565b9150612629826125c2565b604082019050919050565b6000602082019050818103600083015261264d81612611565b9050919050565b7f4552433732313a20696e76616c696420746f6b656e2049440000000000000000600082015250565b600061268a601883611bec565b915061269582612654565b602082019050919050565b600060208201905081810360008301526126b98161267d565b9050919050565b7f4552433732313a2061646472657373207a65726f206973206e6f74206120766160008201527f6c6964206f776e65720000000000000000000000000000000000000000000000602082015250565b600061271c602983611bec565b9150612727826126c0565b604082019050919050565b6000602082019050818103600083015261274b8161270f565b9050919050565b600081905092915050565b600061276882611be1565b6127728185612752565b9350612782818560208601611bfd565b80840191505092915050565b600061279a828461275d565b915081905092915050565b60006127b1828561275d565b91506127bd828461275d565b91508190509392505050565b600081519050919050565b600082825260208201905092915050565b60006127f0826127c9565b6127fa81856127d4565b935061280a818560208601611bfd565b61281381611c27565b840191505092915050565b60006060820190506128336000830186611d28565b81810360208301526128458185611c38565b9050818103604083015261285981846127e5565b9050949350505050565b6000815190506128728161215b565b92915050565b60006020828403121561288e5761288d611b1c565b5b600061289c84828501612863565b91505092915050565b7f496e76616c6964207369676e6572210000000000000000000000000000000000600082015250565b60006128db600f83611bec565b91506128e6826128a5565b602082019050919050565b6000602082019050818103600083015261290a816128ce565b9050919050565b7f19457468657265756d205369676e6564204d6573736167653a0a333200000000600082015250565b6000612947601c83612752565b915061295282612911565b601c82019050919050565b6000819050919050565b61297861297382611dbe565b61295d565b82525050565b60006129898261293a565b91506129958284612967565b60208201915081905092915050565b7f496e76616c6964207369676e6174757265206c656e6774682100000000000000600082015250565b60006129da601983611bec565b91506129e5826129a4565b602082019050919050565b60006020820190508181036000830152612a09816129cd565b9050919050565b7f4552433732313a207472616e736665722066726f6d20696e636f72726563742060008201527f6f776e6572000000000000000000000000000000000000000000000000000000602082015250565b6000612a6c602583611bec565b9150612a7782612a10565b604082019050919050565b60006020820190508181036000830152612a9b81612a5f565b9050919050565b7f4552433732313a207472616e7366657220746f20746865207a65726f2061646460008201527f7265737300000000000000000000000000000000000000000000000000000000602082015250565b6000612afe602483611bec565b9150612b0982612aa2565b604082019050919050565b60006020820190508181036000830152612b2d81612af1565b9050919050565b7f4552433732313a20617070726f766520746f2063616c6c657200000000000000600082015250565b6000612b6a601983611bec565b9150612b7582612b34565b602082019050919050565b60006020820190508181036000830152612b9981612b5d565b9050919050565b7f4552433732313a207472616e7366657220746f206e6f6e20455243373231526560008201527f63656976657220696d706c656d656e7465720000000000000000000000000000602082015250565b6000612bfc603283611bec565b9150612c0782612ba0565b604082019050919050565b60006020820190508181036000830152612c2b81612bef565b9050919050565b7f4e487b7100000000000000000000000000000000000000000000000000000000600052601260045260246000fd5b6000608082019050612c766000830187611d28565b612c836020830186611d28565b612c906040830185612131565b8181036060830152612ca281846127e5565b905095945050505050565b600081519050612cbc81611b52565b92915050565b600060208284031215612cd857612cd7611b1c565b5b6000612ce684828501612cad565b91505092915050565b7f4552433732313a206d696e7420746f20746865207a65726f2061646472657373600082015250565b6000612d25602083611bec565b9150612d3082612cef565b602082019050919050565b60006020820190508181036000830152612d5481612d18565b9050919050565b7f4552433732313a20746f6b656e20616c7265616479206d696e74656400000000600082015250565b6000612d91601c83611bec565b9150612d9c82612d5b565b602082019050919050565b60006020820190508181036000830152612dc081612d84565b905091905056fea26469706673582212207b2240ddcf1103f3f5508f496e0fb553201e94492a755ff3e49495109ef6258b64736f6c63430008120033",
  "linkReferences": {},
  "deployedLinkReferences": {}
}