{
  "_format": "hh-sol-artifact-1",
  "contractName": "Item",
  "sourceName": "contracts/Item.sol",
  "abi": [
    {
      "inputs": [],
      "stateMutability": "nonpayable",
      "type": "constructor"
    },
    {
      "anonymous": false,
      "inputs": [
        {
          "indexed": true,
          "internalType": "address",
          "name": "owner",
          "type": "address"
        },
        {
          "indexed": true,
          "internalType": "address",
          "name": "approved",
          "type": "address"
        },
        {
          "indexed": true,
          "internalType": "uint256",
          "name": "tokenId",
          "type": "uint256"
        }
      ],
      "name": "Approval",
      "type": "event"
    },
    {
      "anonymous": false,
      "inputs": [
        {
          "indexed": true,
          "internalType": "address",
          "name": "owner",
          "type": "address"
        },
        {
          "indexed": true,
          "internalType": "address",
          "name": "operator",
          "type": "address"
        },
        {
          "indexed": false,
          "internalType": "bool",
          "name": "approved",
          "type": "bool"
        }
      ],
      "name": "ApprovalForAll",
      "type": "event"
    },
    {
      "anonymous": false,
      "inputs": [
        {
          "indexed": true,
          "internalType": "address",
          "name": "from",
          "type": "address"
        },
        {
          "indexed": true,
          "internalType": "address",
          "name": "to",
          "type": "address"
        },
        {
          "indexed": true,
          "internalType": "uint256",
          "name": "tokenId",
          "type": "uint256"
        }
      ],
      "name": "Transfer",
      "type": "event"
    },
    {
      "inputs": [
        {
          "internalType": "address",
          "name": "to",
          "type": "address"
        },
        {
          "internalType": "uint256",
          "name": "tokenId",
          "type": "uint256"
        }
      ],
      "name": "approve",
      "outputs": [],
      "stateMutability": "nonpayable",
      "type": "function"
    },
    {
      "inputs": [
        {
          "internalType": "address",
          "name": "owner",
          "type": "address"
        }
      ],
      "name": "balanceOf",
      "outputs": [
        {
          "internalType": "uint256",
          "name": "",
          "type": "uint256"
        }
      ],
      "stateMutability": "view",
      "type": "function"
    },
    {
      "inputs": [
        {
          "internalType": "uint256",
          "name": "tokenId",
          "type": "uint256"
        }
      ],
      "name": "getApproved",
      "outputs": [
        {
          "internalType": "address",
          "name": "",
          "type": "address"
        }
      ],
      "stateMutability": "view",
      "type": "function"
    },
    {
      "inputs": [
        {
          "internalType": "bytes32",
          "name": "_messageHash",
          "type": "bytes32"
        }
      ],
      "name": "getEthSignedMessageHash",
      "outputs": [
        {
          "internalType": "bytes32",
          "name": "",
          "type": "bytes32"
        }
      ],
      "stateMutability": "pure",
      "type": "function"
    },
    {
      "inputs": [
        {
          "internalType": "string",
          "name": "_message",
          "type": "string"
        }
      ],
      "name": "getMessageHash",
      "outputs": [
        {
          "internalType": "bytes32",
          "name": "",
          "type": "bytes32"
        }
      ],
      "stateMutability": "pure",
      "type": "function"
    },
    {
      "inputs": [
        {
          "internalType": "address",
          "name": "owner",
          "type": "address"
        },
        {
          "internalType": "address",
          "name": "operator",
          "type": "address"
        }
      ],
      "name": "isApprovedForAll",
      "outputs": [
        {
          "internalType": "bool",
          "name": "",
          "type": "bool"
        }
      ],
      "stateMutability": "view",
      "type": "function"
    },
    {
      "inputs": [
        {
          "internalType": "address",
          "name": "to",
          "type": "address"
        },
        {
          "internalType": "uint256",
          "name": "tokenId",
          "type": "uint256"
        }
      ],
      "name": "mint",
      "outputs": [],
      "stateMutability": "nonpayable",
      "type": "function"
    },
    {
      "inputs": [],
      "name": "name",
      "outputs": [
        {
          "internalType": "string",
          "name": "",
          "type": "string"
        }
      ],
      "stateMutability": "view",
      "type": "function"
    },
    {
      "inputs": [
        {
          "internalType": "uint256",
          "name": "tokenId",
          "type": "uint256"
        }
      ],
      "name": "ownerOf",
      "outputs": [
        {
          "internalType": "address",
          "name": "",
          "type": "address"
        }
      ],
      "stateMutability": "view",
      "type": "function"
    },
    {
      "inputs": [
        {
          "internalType": "bytes32",
          "name": "_ethSignedMessageHash",
          "type": "bytes32"
        },
        {
          "internalType": "bytes",
          "name": "_signature",
          "type": "bytes"
        }
      ],
      "name": "recover",
      "outputs": [
        {
          "internalType": "address",
          "name": "",
          "type": "address"
        }
      ],
      "stateMutability": "pure",
      "type": "function"
    },
    {
      "inputs": [
        {
          "internalType": "address",
          "name": "from",
          "type": "address"
        },
        {
          "internalType": "address",
          "name": "to",
          "type": "address"
        },
        {
          "internalType": "uint256",
          "name": "tokenId",
          "type": "uint256"
        }
      ],
      "name": "safeTransferFrom",
      "outputs": [],
      "stateMutability": "nonpayable",
      "type": "function"
    },
    {
      "inputs": [
        {
          "internalType": "address",
          "name": "from",
          "type": "address"
        },
        {
          "internalType": "address",
          "name": "to",
          "type": "address"
        },
        {
          "internalType": "uint256",
          "name": "tokenId",
          "type": "uint256"
        },
        {
          "internalType": "bytes",
          "name": "data",
          "type": "bytes"
        }
      ],
      "name": "safeTransferFrom",
      "outputs": [],
      "stateMutability": "nonpayable",
      "type": "function"
    },
    {
      "inputs": [
        {
          "internalType": "address",
          "name": "operator",
          "type": "address"
        },
        {
          "internalType": "bool",
          "name": "approved",
          "type": "bool"
        }
      ],
      "name": "setApprovalForAll",
      "outputs": [],
      "stateMutability": "nonpayable",
      "type": "function"
    },
    {
      "inputs": [
        {
          "internalType": "bytes4",
          "name": "interfaceId",
          "type": "bytes4"
        }
      ],
      "name": "supportsInterface",
      "outputs": [
        {
          "internalType": "bool",
          "name": "",
          "type": "bool"
        }
      ],
      "stateMutability": "view",
      "type": "function"
    },
    {
      "inputs": [],
      "name": "symbol",
      "outputs": [
        {
          "internalType": "string",
          "name": "",
          "type": "string"
        }
      ],
      "stateMutability": "view",
      "type": "function"
    },
    {
      "inputs": [
        {
          "internalType": "uint256",
          "name": "tokenId",
          "type": "uint256"
        }
      ],
      "name": "tokenURI",
      "outputs": [
        {
          "internalType": "string",
          "name": "",
          "type": "string"
        }
      ],
      "stateMutability": "view",
      "type": "function"
    },
    {
      "inputs": [
        {
          "internalType": "address",
          "name": "from",
          "type": "address"
        },
        {
          "internalType": "address",
          "name": "to",
          "type": "address"
        },
        {
          "internalType": "uint256",
          "name": "tokenId",
          "type": "uint256"
        }
      ],
      "name": "transferFrom",
      "outputs": [],
      "stateMutability": "nonpayable",
      "type": "function"
    },
    {
      "inputs": [
        {
          "internalType": "address",
          "name": "_signer",
          "type": "address"
        },
        {
          "internalType": "string",
          "name": "_message",
          "type": "string"
        },
        {
          "internalType": "bytes",
          "name": "_signature",
          "type": "bytes"
        }
      ],
      "name": "verify",
      "outputs": [
        {
          "internalType": "bool",
          "name": "",
          "type": "bool"
        }
      ],
      "stateMutability": "pure",
      "type": "function"
    },
    {
      "inputs": [
        {
          "internalType": "address",
          "name": "_signer",
          "type": "address"
        },
        {
          "internalType": "string",
          "name": "_message",
          "type": "string"
        },
        {
          "internalType": "bytes",
          "name": "_signature",
          "type": "bytes"
        },
        {
          "internalType": "address",
          "name": "to",
          "type": "address"
        },
        {
          "internalType": "uint256",
          "name": "tokenId",
          "type": "uint256"
        }
      ],
      "name": "verifyAndMint",
      "outputs": [
        {
          "internalType": "bool",
          "name": "success",
          "type": "bool"
        }
      ],
      "stateMutability": "nonpayable",
      "type": "function"
    }
  ],
  "bytecode": "0x60806040523480156200001157600080fd5b506040518060400160405280600481526020017f4974656d000000000000000000000000000000000000000000000000000000008152506040518060400160405280600381526020017f49544d000000000000000000000000000000000000000000000000000000000081525081600090816200008f919062000324565b508060019081620000a1919062000324565b5050506200040b565b600081519050919050565b7f4e487b7100000000000000000000000000000000000000000000000000000000600052604160045260246000fd5b7f4e487b7100000000000000000000000000000000000000000000000000000000600052602260045260246000fd5b600060028204905060018216806200012c57607f821691505b602082108103620001425762000141620000e4565b5b50919050565b60008190508160005260206000209050919050565b60006020601f8301049050919050565b600082821b905092915050565b600060088302620001ac7fffffffffffffffffffffffffffffffffffffffffffffffffffffffffffffffff826200016d565b620001b886836200016d565b95508019841693508086168417925050509392505050565b6000819050919050565b6000819050919050565b600062000205620001ff620001f984620001d0565b620001da565b620001d0565b9050919050565b6000819050919050565b6200022183620001e4565b6200023962000230826200020c565b8484546200017a565b825550505050565b600090565b6200025062000241565b6200025d81848462000216565b505050565b5b8181101562000285576200027960008262000246565b60018101905062000263565b5050565b601f821115620002d4576200029e8162000148565b620002a9846200015d565b81016020851015620002b9578190505b620002d1620002c8856200015d565b83018262000262565b50505b505050565b600082821c905092915050565b6000620002f960001984600802620002d9565b1980831691505092915050565b6000620003148383620002e6565b9150826002028217905092915050565b6200032f82620000aa565b67ffffffffffffffff8111156200034b576200034a620000b5565b5b62000357825462000113565b6200036482828562000289565b600060209050601f8311600181146200039c576000841562000387578287015190505b62000393858262000306565b86555062000403565b601f198416620003ac8662000148565b60005b82811015620003d657848901518255600182019150602085019450602081019050620003af565b86831015620003f65784890151620003f2601f891682620002e6565b8355505b6001600288020188555050505b505050505050565b612d4a806200041b6000396000f3fe608060405234801561001057600080fd5b50600436106101215760003560e01c80636352211e116100ad578063b88d4fde11610071578063b88d4fde1461033e578063c87b56dd1461035a578063e8531d921461038a578063e985e9c5146103ba578063fa540801146103ea57610121565b80636352211e1461027457806370a08231146102a457806395d89b41146102d4578063a22cb465146102f2578063b446f3b21461030e57610121565b806319045a25116100f457806319045a25146101c057806323b872dd146101f05780632dd34f0f1461020c57806340c10f191461023c57806342842e0e1461025857610121565b806301ffc9a71461012657806306fdde0314610156578063081812fc14610174578063095ea7b3146101a4575b600080fd5b610140600480360381019061013b9190611b37565b61041a565b60405161014d9190611b7f565b60405180910390f35b61015e6104fc565b60405161016b9190611c2a565b60405180910390f35b61018e60048036038101906101899190611c82565b61058e565b60405161019b9190611cf0565b60405180910390f35b6101be60048036038101906101b99190611d37565b6105d4565b005b6101da60048036038101906101d59190611ee2565b6106eb565b6040516101e79190611cf0565b60405180910390f35b61020a60048036038101906102059190611f3e565b61075a565b005b61022660048036038101906102219190612032565b6107ba565b6040516102339190611b7f565b60405180910390f35b61025660048036038101906102519190611d37565b610818565b005b610272600480360381019061026d9190611f3e565b610826565b005b61028e60048036038101906102899190611c82565b610846565b60405161029b9190611cf0565b60405180910390f35b6102be60048036038101906102b991906120bd565b6108cc565b6040516102cb91906120f9565b60405180910390f35b6102dc610983565b6040516102e99190611c2a565b60405180910390f35b61030c60048036038101906103079190612140565b610a15565b005b61032860048036038101906103239190612180565b610a2b565b60405161033591906121d8565b60405180910390f35b610358600480360381019061035391906121f3565b610a5b565b005b610374600480360381019061036f9190611c82565b610abd565b6040516103819190611c2a565b60405180910390f35b6103a4600480360381019061039f9190612276565b610b25565b6040516103b19190611b7f565b60405180910390f35b6103d460048036038101906103cf9190612329565b610bd1565b6040516103e19190611b7f565b60405180910390f35b61040460048036038101906103ff9190612369565b610c65565b60405161041191906121d8565b60405180910390f35b60007f80ac58cd000000000000000000000000000000000000000000000000000000007bffffffffffffffffffffffffffffffffffffffffffffffffffffffff1916827bffffffffffffffffffffffffffffffffffffffffffffffffffffffff191614806104e557507f5b5e139f000000000000000000000000000000000000000000000000000000007bffffffffffffffffffffffffffffffffffffffffffffffffffffffff1916827bffffffffffffffffffffffffffffffffffffffffffffffffffffffff1916145b806104f557506104f482610c95565b5b9050919050565b60606000805461050b906123c5565b80601f0160208091040260200160405190810160405280929190818152602001828054610537906123c5565b80156105845780601f1061055957610100808354040283529160200191610584565b820191906000526020600020905b81548152906001019060200180831161056757829003601f168201915b5050505050905090565b600061059982610cff565b6004600083815260200190815260200160002060009054906101000a900473ffffffffffffffffffffffffffffffffffffffff169050919050565b60006105df82610846565b90508073ffffffffffffffffffffffffffffffffffffffff168373ffffffffffffffffffffffffffffffffffffffff160361064f576040517f08c379a000000000000000000000000000000000000000000000000000000000815260040161064690612468565b60405180910390fd5b8073ffffffffffffffffffffffffffffffffffffffff1661066e610d4a565b73ffffffffffffffffffffffffffffffffffffffff16148061069d575061069c81610697610d4a565b610bd1565b5b6106dc576040517f08c379a00000000000000000000000000000000000000000000000000000000081526004016106d3906124fa565b60405180910390fd5b6106e68383610d52565b505050565b6000806000806106fa85610e0b565b925092509250600186828585604051600081526020016040526040516107239493929190612536565b6020604051602081039080840390855afa158015610745573d6000803e3d6000fd5b50505060206040510351935050505092915050565b61076b610765610d4a565b82610e73565b6107aa576040517f08c379a00000000000000000000000000000000000000000000000000000000081526004016107a1906125ed565b60405180910390fd5b6107b5838383610f08565b505050565b6000806107c684610a2b565b905060006107d382610c65565b90508573ffffffffffffffffffffffffffffffffffffffff166107f682866106eb565b73ffffffffffffffffffffffffffffffffffffffff1614925050509392505050565b6108228282611201565b5050565b61084183838360405180602001604052806000815250610a5b565b505050565b6000806108528361121f565b9050600073ffffffffffffffffffffffffffffffffffffffff168173ffffffffffffffffffffffffffffffffffffffff16036108c3576040517f08c379a00000000000000000000000000000000000000000000000000000000081526004016108ba90612659565b60405180910390fd5b80915050919050565b60008073ffffffffffffffffffffffffffffffffffffffff168273ffffffffffffffffffffffffffffffffffffffff160361093c576040517f08c379a0000000000000000000000000000000000000000000000000000000008152600401610933906126eb565b60405180910390fd5b600360008373ffffffffffffffffffffffffffffffffffffffff1673ffffffffffffffffffffffffffffffffffffffff168152602001908152602001600020549050919050565b606060018054610992906123c5565b80601f01602080910402602001604051908101604052809291908181526020018280546109be906123c5565b8015610a0b5780601f106109e057610100808354040283529160200191610a0b565b820191906000526020600020905b8154815290600101906020018083116109ee57829003601f168201915b5050505050905090565b610a27610a20610d4a565b838361125c565b5050565b600081604051602001610a3e9190612747565b604051602081830303815290604052805190602001209050919050565b610a6c610a66610d4a565b83610e73565b610aab576040517f08c379a0000000000000000000000000000000000000000000000000000000008152600401610aa2906125ed565b60405180910390fd5b610ab7848484846113c8565b50505050565b6060610ac882610cff565b6000610ad2611424565b90506000815111610af25760405180602001604052806000815250610b1d565b80610afc8461143b565b604051602001610b0d92919061275e565b6040516020818303038152906040525b915050919050565b6000803073ffffffffffffffffffffffffffffffffffffffff16632dd34f0f8888886040518463ffffffff1660e01b8152600401610b65939291906127d7565b602060405180830381865afa158015610b82573d6000803e3d6000fd5b505050506040513d601f19601f82011682018060405250810190610ba69190612831565b90508015610bc257610bb88484610818565b6001915050610bc8565b60009150505b95945050505050565b6000600560008473ffffffffffffffffffffffffffffffffffffffff1673ffffffffffffffffffffffffffffffffffffffff16815260200190815260200160002060008373ffffffffffffffffffffffffffffffffffffffff1673ffffffffffffffffffffffffffffffffffffffff16815260200190815260200160002060009054906101000a900460ff16905092915050565b600081604051602001610c7891906128cb565b604051602081830303815290604052805190602001209050919050565b60007f01ffc9a7000000000000000000000000000000000000000000000000000000007bffffffffffffffffffffffffffffffffffffffffffffffffffffffff1916827bffffffffffffffffffffffffffffffffffffffffffffffffffffffff1916149050919050565b610d0881611509565b610d47576040517f08c379a0000000000000000000000000000000000000000000000000000000008152600401610d3e90612659565b60405180910390fd5b50565b600033905090565b816004600083815260200190815260200160002060006101000a81548173ffffffffffffffffffffffffffffffffffffffff021916908373ffffffffffffffffffffffffffffffffffffffff160217905550808273ffffffffffffffffffffffffffffffffffffffff16610dc583610846565b73ffffffffffffffffffffffffffffffffffffffff167f8c5be1e5ebec7d5bd14f71427d1e84f3dd0314c0f7b2291e5b200ac8c7c3b92560405160405180910390a45050565b60008060006041845114610e54576040517f08c379a0000000000000000000000000000000000000000000000000000000008152600401610e4b9061293d565b60405180910390fd5b6020840151925060408401519150606084015160001a90509193909250565b600080610e7f83610846565b90508073ffffffffffffffffffffffffffffffffffffffff168473ffffffffffffffffffffffffffffffffffffffff161480610ec15750610ec08185610bd1565b5b80610eff57508373ffffffffffffffffffffffffffffffffffffffff16610ee78461058e565b73ffffffffffffffffffffffffffffffffffffffff16145b91505092915050565b8273ffffffffffffffffffffffffffffffffffffffff16610f2882610846565b73ffffffffffffffffffffffffffffffffffffffff1614610f7e576040517f08c379a0000000000000000000000000000000000000000000000000000000008152600401610f75906129cf565b60405180910390fd5b600073ffffffffffffffffffffffffffffffffffffffff168273ffffffffffffffffffffffffffffffffffffffff1603610fed576040517f08c379a0000000000000000000000000000000000000000000000000000000008152600401610fe490612a61565b60405180910390fd5b610ffa838383600161154a565b8273ffffffffffffffffffffffffffffffffffffffff1661101a82610846565b73ffffffffffffffffffffffffffffffffffffffff1614611070576040517f08c379a0000000000000000000000000000000000000000000000000000000008152600401611067906129cf565b60405180910390fd5b6004600082815260200190815260200160002060006101000a81549073ffffffffffffffffffffffffffffffffffffffff02191690556001600360008573ffffffffffffffffffffffffffffffffffffffff1673ffffffffffffffffffffffffffffffffffffffff168152602001908152602001600020600082825403925050819055506001600360008473ffffffffffffffffffffffffffffffffffffffff1673ffffffffffffffffffffffffffffffffffffffff16815260200190815260200160002060008282540192505081905550816002600083815260200190815260200160002060006101000a81548173ffffffffffffffffffffffffffffffffffffffff021916908373ffffffffffffffffffffffffffffffffffffffff160217905550808273ffffffffffffffffffffffffffffffffffffffff168473ffffffffffffffffffffffffffffffffffffffff167fddf252ad1be2c89b69c2b068fc378daa952ba7f163c4a11628f55a4df523b3ef60405160405180910390a46111fc8383836001611550565b505050565b61121b828260405180602001604052806000815250611556565b5050565b60006002600083815260200190815260200160002060009054906101000a900473ffffffffffffffffffffffffffffffffffffffff169050919050565b8173ffffffffffffffffffffffffffffffffffffffff168373ffffffffffffffffffffffffffffffffffffffff16036112ca576040517f08c379a00000000000000000000000000000000000000000000000000000000081526004016112c190612acd565b60405180910390fd5b80600560008573ffffffffffffffffffffffffffffffffffffffff1673ffffffffffffffffffffffffffffffffffffffff16815260200190815260200160002060008473ffffffffffffffffffffffffffffffffffffffff1673ffffffffffffffffffffffffffffffffffffffff16815260200190815260200160002060006101000a81548160ff0219169083151502179055508173ffffffffffffffffffffffffffffffffffffffff168373ffffffffffffffffffffffffffffffffffffffff167f17307eab39ab6107e8899845ad3d59bd9653f200f220920489ca2b5937696c31836040516113bb9190611b7f565b60405180910390a3505050565b6113d3848484610f08565b6113df848484846115b1565b61141e576040517f08c379a000000000000000000000000000000000000000000000000000000000815260040161141590612b5f565b60405180910390fd5b50505050565b606060405180602001604052806000815250905090565b60606000600161144a84611738565b01905060008167ffffffffffffffff81111561146957611468611db7565b5b6040519080825280601f01601f19166020018201604052801561149b5781602001600182028036833780820191505090505b509050600082602001820190505b6001156114fe578080600190039150507f3031323334353637383961626364656600000000000000000000000000000000600a86061a8153600a85816114f2576114f1612b7f565b5b049450600085036114a9575b819350505050919050565b60008073ffffffffffffffffffffffffffffffffffffffff1661152b8361121f565b73ffffffffffffffffffffffffffffffffffffffff1614159050919050565b50505050565b50505050565b611560838361188b565b61156d60008484846115b1565b6115ac576040517f08c379a00000000000000000000000000000000000000000000000000000000081526004016115a390612b5f565b60405180910390fd5b505050565b60006115d28473ffffffffffffffffffffffffffffffffffffffff16611aa8565b1561172b578373ffffffffffffffffffffffffffffffffffffffff1663150b7a026115fb610d4a565b8786866040518563ffffffff1660e01b815260040161161d9493929190612bae565b6020604051808303816000875af192505050801561165957506040513d601f19601f820116820180604052508101906116569190612c0f565b60015b6116db573d8060008114611689576040519150601f19603f3d011682016040523d82523d6000602084013e61168e565b606091505b5060008151036116d3576040517f08c379a00000000000000000000000000000000000000000000000000000000081526004016116ca90612b5f565b60405180910390fd5b805181602001fd5b63150b7a0260e01b7bffffffffffffffffffffffffffffffffffffffffffffffffffffffff1916817bffffffffffffffffffffffffffffffffffffffffffffffffffffffff191614915050611730565b600190505b949350505050565b600080600090507a184f03e93ff9f4daa797ed6e38ed64bf6a1f0100000000000000008310611796577a184f03e93ff9f4daa797ed6e38ed64bf6a1f010000000000000000838161178c5761178b612b7f565b5b0492506040810190505b6d04ee2d6d415b85acef810000000083106117d3576d04ee2d6d415b85acef810000000083816117c9576117c8612b7f565b5b0492506020810190505b662386f26fc10000831061180257662386f26fc1000083816117f8576117f7612b7f565b5b0492506010810190505b6305f5e100831061182b576305f5e100838161182157611820612b7f565b5b0492506008810190505b612710831061185057612710838161184657611845612b7f565b5b0492506004810190505b60648310611873576064838161186957611868612b7f565b5b0492506002810190505b600a8310611882576001810190505b80915050919050565b600073ffffffffffffffffffffffffffffffffffffffff168273ffffffffffffffffffffffffffffffffffffffff16036118fa576040517f08c379a00000000000000000000000000000000000000000000000000000000081526004016118f190612c88565b60405180910390fd5b61190381611509565b15611943576040517f08c379a000000000000000000000000000000000000000000000000000000000815260040161193a90612cf4565b60405180910390fd5b61195160008383600161154a565b61195a81611509565b1561199a576040517f08c379a000000000000000000000000000000000000000000000000000000000815260040161199190612cf4565b60405180910390fd5b6001600360008473ffffffffffffffffffffffffffffffffffffffff1673ffffffffffffffffffffffffffffffffffffffff16815260200190815260200160002060008282540192505081905550816002600083815260200190815260200160002060006101000a81548173ffffffffffffffffffffffffffffffffffffffff021916908373ffffffffffffffffffffffffffffffffffffffff160217905550808273ffffffffffffffffffffffffffffffffffffffff16600073ffffffffffffffffffffffffffffffffffffffff167fddf252ad1be2c89b69c2b068fc378daa952ba7f163c4a11628f55a4df523b3ef60405160405180910390a4611aa4600083836001611550565b5050565b6000808273ffffffffffffffffffffffffffffffffffffffff163b119050919050565b6000604051905090565b600080fd5b600080fd5b60007fffffffff0000000000000000000000000000000000000000000000000000000082169050919050565b611b1481611adf565b8114611b1f57600080fd5b50565b600081359050611b3181611b0b565b92915050565b600060208284031215611b4d57611b4c611ad5565b5b6000611b5b84828501611b22565b91505092915050565b60008115159050919050565b611b7981611b64565b82525050565b6000602082019050611b946000830184611b70565b92915050565b600081519050919050565b600082825260208201905092915050565b60005b83811015611bd4578082015181840152602081019050611bb9565b60008484015250505050565b6000601f19601f8301169050919050565b6000611bfc82611b9a565b611c068185611ba5565b9350611c16818560208601611bb6565b611c1f81611be0565b840191505092915050565b60006020820190508181036000830152611c448184611bf1565b905092915050565b6000819050919050565b611c5f81611c4c565b8114611c6a57600080fd5b50565b600081359050611c7c81611c56565b92915050565b600060208284031215611c9857611c97611ad5565b5b6000611ca684828501611c6d565b91505092915050565b600073ffffffffffffffffffffffffffffffffffffffff82169050919050565b6000611cda82611caf565b9050919050565b611cea81611ccf565b82525050565b6000602082019050611d056000830184611ce1565b92915050565b611d1481611ccf565b8114611d1f57600080fd5b50565b600081359050611d3181611d0b565b92915050565b60008060408385031215611d4e57611d4d611ad5565b5b6000611d5c85828601611d22565b9250506020611d6d85828601611c6d565b9150509250929050565b6000819050919050565b611d8a81611d77565b8114611d9557600080fd5b50565b600081359050611da781611d81565b92915050565b600080fd5b600080fd5b7f4e487b7100000000000000000000000000000000000000000000000000000000600052604160045260246000fd5b611def82611be0565b810181811067ffffffffffffffff82111715611e0e57611e0d611db7565b5b80604052505050565b6000611e21611acb565b9050611e2d8282611de6565b919050565b600067ffffffffffffffff821115611e4d57611e4c611db7565b5b611e5682611be0565b9050602081019050919050565b82818337600083830152505050565b6000611e85611e8084611e32565b611e17565b905082815260208101848484011115611ea157611ea0611db2565b5b611eac848285611e63565b509392505050565b600082601f830112611ec957611ec8611dad565b5b8135611ed9848260208601611e72565b91505092915050565b60008060408385031215611ef957611ef8611ad5565b5b6000611f0785828601611d98565b925050602083013567ffffffffffffffff811115611f2857611f27611ada565b5b611f3485828601611eb4565b9150509250929050565b600080600060608486031215611f5757611f56611ad5565b5b6000611f6586828701611d22565b9350506020611f7686828701611d22565b9250506040611f8786828701611c6d565b9150509250925092565b600067ffffffffffffffff821115611fac57611fab611db7565b5b611fb582611be0565b9050602081019050919050565b6000611fd5611fd084611f91565b611e17565b905082815260208101848484011115611ff157611ff0611db2565b5b611ffc848285611e63565b509392505050565b600082601f83011261201957612018611dad565b5b8135612029848260208601611fc2565b91505092915050565b60008060006060848603121561204b5761204a611ad5565b5b600061205986828701611d22565b935050602084013567ffffffffffffffff81111561207a57612079611ada565b5b61208686828701612004565b925050604084013567ffffffffffffffff8111156120a7576120a6611ada565b5b6120b386828701611eb4565b9150509250925092565b6000602082840312156120d3576120d2611ad5565b5b60006120e184828501611d22565b91505092915050565b6120f381611c4c565b82525050565b600060208201905061210e60008301846120ea565b92915050565b61211d81611b64565b811461212857600080fd5b50565b60008135905061213a81612114565b92915050565b6000806040838503121561215757612156611ad5565b5b600061216585828601611d22565b92505060206121768582860161212b565b9150509250929050565b60006020828403121561219657612195611ad5565b5b600082013567ffffffffffffffff8111156121b4576121b3611ada565b5b6121c084828501612004565b91505092915050565b6121d281611d77565b82525050565b60006020820190506121ed60008301846121c9565b92915050565b6000806000806080858703121561220d5761220c611ad5565b5b600061221b87828801611d22565b945050602061222c87828801611d22565b935050604061223d87828801611c6d565b925050606085013567ffffffffffffffff81111561225e5761225d611ada565b5b61226a87828801611eb4565b91505092959194509250565b600080600080600060a0868803121561229257612291611ad5565b5b60006122a088828901611d22565b955050602086013567ffffffffffffffff8111156122c1576122c0611ada565b5b6122cd88828901612004565b945050604086013567ffffffffffffffff8111156122ee576122ed611ada565b5b6122fa88828901611eb4565b935050606061230b88828901611d22565b925050608061231c88828901611c6d565b9150509295509295909350565b600080604083850312156123405761233f611ad5565b5b600061234e85828601611d22565b925050602061235f85828601611d22565b9150509250929050565b60006020828403121561237f5761237e611ad5565b5b600061238d84828501611d98565b91505092915050565b7f4e487b7100000000000000000000000000000000000000000000000000000000600052602260045260246000fd5b600060028204905060018216806123dd57607f821691505b6020821081036123f0576123ef612396565b5b50919050565b7f4552433732313a20617070726f76616c20746f2063757272656e74206f776e6560008201527f7200000000000000000000000000000000000000000000000000000000000000602082015250565b6000612452602183611ba5565b915061245d826123f6565b604082019050919050565b6000602082019050818103600083015261248181612445565b9050919050565b7f4552433732313a20617070726f76652063616c6c6572206973206e6f7420746f60008201527f6b656e206f776e6572206f7220617070726f76656420666f7220616c6c000000602082015250565b60006124e4603d83611ba5565b91506124ef82612488565b604082019050919050565b60006020820190508181036000830152612513816124d7565b9050919050565b600060ff82169050919050565b6125308161251a565b82525050565b600060808201905061254b60008301876121c9565b6125586020830186612527565b61256560408301856121c9565b61257260608301846121c9565b95945050505050565b7f4552433732313a2063616c6c6572206973206e6f7420746f6b656e206f776e6560008201527f72206f7220617070726f76656400000000000000000000000000000000000000602082015250565b60006125d7602d83611ba5565b91506125e28261257b565b604082019050919050565b60006020820190508181036000830152612606816125ca565b9050919050565b7f4552433732313a20696e76616c696420746f6b656e2049440000000000000000600082015250565b6000612643601883611ba5565b915061264e8261260d565b602082019050919050565b6000602082019050818103600083015261267281612636565b9050919050565b7f4552433732313a2061646472657373207a65726f206973206e6f74206120766160008201527f6c6964206f776e65720000000000000000000000000000000000000000000000602082015250565b60006126d5602983611ba5565b91506126e082612679565b604082019050919050565b60006020820190508181036000830152612704816126c8565b9050919050565b600081905092915050565b600061272182611b9a565b61272b818561270b565b935061273b818560208601611bb6565b80840191505092915050565b60006127538284612716565b915081905092915050565b600061276a8285612716565b91506127768284612716565b91508190509392505050565b600081519050919050565b600082825260208201905092915050565b60006127a982612782565b6127b3818561278d565b93506127c3818560208601611bb6565b6127cc81611be0565b840191505092915050565b60006060820190506127ec6000830186611ce1565b81810360208301526127fe8185611bf1565b90508181036040830152612812818461279e565b9050949350505050565b60008151905061282b81612114565b92915050565b60006020828403121561284757612846611ad5565b5b60006128558482850161281c565b91505092915050565b7f19457468657265756d205369676e6564204d6573736167653a0a333200000000600082015250565b6000612894601c8361270b565b915061289f8261285e565b601c82019050919050565b6000819050919050565b6128c56128c082611d77565b6128aa565b82525050565b60006128d682612887565b91506128e282846128b4565b60208201915081905092915050565b7f496e76616c6964207369676e6174757265206c656e6774682100000000000000600082015250565b6000612927601983611ba5565b9150612932826128f1565b602082019050919050565b600060208201905081810360008301526129568161291a565b9050919050565b7f4552433732313a207472616e736665722066726f6d20696e636f72726563742060008201527f6f776e6572000000000000000000000000000000000000000000000000000000602082015250565b60006129b9602583611ba5565b91506129c48261295d565b604082019050919050565b600060208201905081810360008301526129e8816129ac565b9050919050565b7f4552433732313a207472616e7366657220746f20746865207a65726f2061646460008201527f7265737300000000000000000000000000000000000000000000000000000000602082015250565b6000612a4b602483611ba5565b9150612a56826129ef565b604082019050919050565b60006020820190508181036000830152612a7a81612a3e565b9050919050565b7f4552433732313a20617070726f766520746f2063616c6c657200000000000000600082015250565b6000612ab7601983611ba5565b9150612ac282612a81565b602082019050919050565b60006020820190508181036000830152612ae681612aaa565b9050919050565b7f4552433732313a207472616e7366657220746f206e6f6e20455243373231526560008201527f63656976657220696d706c656d656e7465720000000000000000000000000000602082015250565b6000612b49603283611ba5565b9150612b5482612aed565b604082019050919050565b60006020820190508181036000830152612b7881612b3c565b9050919050565b7f4e487b7100000000000000000000000000000000000000000000000000000000600052601260045260246000fd5b6000608082019050612bc36000830187611ce1565b612bd06020830186611ce1565b612bdd60408301856120ea565b8181036060830152612bef818461279e565b905095945050505050565b600081519050612c0981611b0b565b92915050565b600060208284031215612c2557612c24611ad5565b5b6000612c3384828501612bfa565b91505092915050565b7f4552433732313a206d696e7420746f20746865207a65726f2061646472657373600082015250565b6000612c72602083611ba5565b9150612c7d82612c3c565b602082019050919050565b60006020820190508181036000830152612ca181612c65565b9050919050565b7f4552433732313a20746f6b656e20616c7265616479206d696e74656400000000600082015250565b6000612cde601c83611ba5565b9150612ce982612ca8565b602082019050919050565b60006020820190508181036000830152612d0d81612cd1565b905091905056fea26469706673582212208e8958ec74ba5d7f383f2a1a613ac5302cc8c44ec75f22a32af7dfef9c39fb7064736f6c63430008120033",
  "linkReferences": {},
  "deployedLinkReferences": {}
}