{
  "_format": "hh-sol-artifact-1",
  "contractName": "Item",
  "sourceName": "contracts/Item.sol",
  "abi": [
    {
      "inputs": [],
      "stateMutability": "nonpayable",
      "type": "constructor"
    },
    {
      "anonymous": false,
      "inputs": [
        {
          "indexed": true,
          "internalType": "address",
          "name": "owner",
          "type": "address"
        },
        {
          "indexed": true,
          "internalType": "address",
          "name": "approved",
          "type": "address"
        },
        {
          "indexed": true,
          "internalType": "uint256",
          "name": "tokenId",
          "type": "uint256"
        }
      ],
      "name": "Approval",
      "type": "event"
    },
    {
      "anonymous": false,
      "inputs": [
        {
          "indexed": true,
          "internalType": "address",
          "name": "owner",
          "type": "address"
        },
        {
          "indexed": true,
          "internalType": "address",
          "name": "operator",
          "type": "address"
        },
        {
          "indexed": false,
          "internalType": "bool",
          "name": "approved",
          "type": "bool"
        }
      ],
      "name": "ApprovalForAll",
      "type": "event"
    },
    {
      "anonymous": false,
      "inputs": [
        {
          "indexed": true,
          "internalType": "address",
          "name": "previousOwner",
          "type": "address"
        },
        {
          "indexed": true,
          "internalType": "address",
          "name": "newOwner",
          "type": "address"
        }
      ],
      "name": "OwnershipTransferred",
      "type": "event"
    },
    {
      "anonymous": false,
      "inputs": [
        {
          "indexed": true,
          "internalType": "address",
          "name": "from",
          "type": "address"
        },
        {
          "indexed": true,
          "internalType": "address",
          "name": "to",
          "type": "address"
        },
        {
          "indexed": true,
          "internalType": "uint256",
          "name": "tokenId",
          "type": "uint256"
        }
      ],
      "name": "Transfer",
      "type": "event"
    },
    {
      "inputs": [
        {
          "internalType": "address",
          "name": "to",
          "type": "address"
        },
        {
          "internalType": "uint256",
          "name": "tokenId",
          "type": "uint256"
        }
      ],
      "name": "approve",
      "outputs": [],
      "stateMutability": "nonpayable",
      "type": "function"
    },
    {
      "inputs": [
        {
          "internalType": "address",
          "name": "owner",
          "type": "address"
        }
      ],
      "name": "balanceOf",
      "outputs": [
        {
          "internalType": "uint256",
          "name": "",
          "type": "uint256"
        }
      ],
      "stateMutability": "view",
      "type": "function"
    },
    {
      "inputs": [
        {
          "internalType": "uint256",
          "name": "tokenId",
          "type": "uint256"
        }
      ],
      "name": "getApproved",
      "outputs": [
        {
          "internalType": "address",
          "name": "",
          "type": "address"
        }
      ],
      "stateMutability": "view",
      "type": "function"
    },
    {
      "inputs": [
        {
          "internalType": "bytes32",
          "name": "_messageHash",
          "type": "bytes32"
        }
      ],
      "name": "getEthSignedMessageHash",
      "outputs": [
        {
          "internalType": "bytes32",
          "name": "",
          "type": "bytes32"
        }
      ],
      "stateMutability": "pure",
      "type": "function"
    },
    {
      "inputs": [
        {
          "internalType": "string",
          "name": "_message",
          "type": "string"
        }
      ],
      "name": "getMessageHash",
      "outputs": [
        {
          "internalType": "bytes32",
          "name": "",
          "type": "bytes32"
        }
      ],
      "stateMutability": "pure",
      "type": "function"
    },
    {
      "inputs": [],
      "name": "getSigner",
      "outputs": [
        {
          "internalType": "address",
          "name": "",
          "type": "address"
        }
      ],
      "stateMutability": "view",
      "type": "function"
    },
    {
      "inputs": [
        {
          "internalType": "address",
          "name": "owner",
          "type": "address"
        },
        {
          "internalType": "address",
          "name": "operator",
          "type": "address"
        }
      ],
      "name": "isApprovedForAll",
      "outputs": [
        {
          "internalType": "bool",
          "name": "",
          "type": "bool"
        }
      ],
      "stateMutability": "view",
      "type": "function"
    },
    {
      "inputs": [],
      "name": "name",
      "outputs": [
        {
          "internalType": "string",
          "name": "",
          "type": "string"
        }
      ],
      "stateMutability": "view",
      "type": "function"
    },
    {
      "inputs": [],
      "name": "owner",
      "outputs": [
        {
          "internalType": "address",
          "name": "",
          "type": "address"
        }
      ],
      "stateMutability": "view",
      "type": "function"
    },
    {
      "inputs": [
        {
          "internalType": "uint256[]",
          "name": "tokenIds",
          "type": "uint256[]"
        },
        {
          "internalType": "address[]",
          "name": "recipients",
          "type": "address[]"
        }
      ],
      "name": "ownerMint",
      "outputs": [],
      "stateMutability": "nonpayable",
      "type": "function"
    },
    {
      "inputs": [
        {
          "internalType": "uint256",
          "name": "tokenId",
          "type": "uint256"
        }
      ],
      "name": "ownerOf",
      "outputs": [
        {
          "internalType": "address",
          "name": "",
          "type": "address"
        }
      ],
      "stateMutability": "view",
      "type": "function"
    },
    {
      "inputs": [
        {
          "internalType": "bytes32",
          "name": "_ethSignedMessageHash",
          "type": "bytes32"
        },
        {
          "internalType": "bytes",
          "name": "_signature",
          "type": "bytes"
        }
      ],
      "name": "recover",
      "outputs": [
        {
          "internalType": "address",
          "name": "",
          "type": "address"
        }
      ],
      "stateMutability": "pure",
      "type": "function"
    },
    {
      "inputs": [],
      "name": "renounceOwnership",
      "outputs": [],
      "stateMutability": "nonpayable",
      "type": "function"
    },
    {
      "inputs": [
        {
          "internalType": "address",
          "name": "from",
          "type": "address"
        },
        {
          "internalType": "address",
          "name": "to",
          "type": "address"
        },
        {
          "internalType": "uint256",
          "name": "tokenId",
          "type": "uint256"
        }
      ],
      "name": "safeTransferFrom",
      "outputs": [],
      "stateMutability": "nonpayable",
      "type": "function"
    },
    {
      "inputs": [
        {
          "internalType": "address",
          "name": "from",
          "type": "address"
        },
        {
          "internalType": "address",
          "name": "to",
          "type": "address"
        },
        {
          "internalType": "uint256",
          "name": "tokenId",
          "type": "uint256"
        },
        {
          "internalType": "bytes",
          "name": "data",
          "type": "bytes"
        }
      ],
      "name": "safeTransferFrom",
      "outputs": [],
      "stateMutability": "nonpayable",
      "type": "function"
    },
    {
      "inputs": [
        {
          "internalType": "address",
          "name": "operator",
          "type": "address"
        },
        {
          "internalType": "bool",
          "name": "approved",
          "type": "bool"
        }
      ],
      "name": "setApprovalForAll",
      "outputs": [],
      "stateMutability": "nonpayable",
      "type": "function"
    },
    {
      "inputs": [
        {
          "internalType": "address",
          "name": "_signer",
          "type": "address"
        }
      ],
      "name": "setSigner",
      "outputs": [],
      "stateMutability": "nonpayable",
      "type": "function"
    },
    {
      "inputs": [],
      "name": "signer",
      "outputs": [
        {
          "internalType": "address",
          "name": "",
          "type": "address"
        }
      ],
      "stateMutability": "view",
      "type": "function"
    },
    {
      "inputs": [
        {
          "internalType": "bytes4",
          "name": "interfaceId",
          "type": "bytes4"
        }
      ],
      "name": "supportsInterface",
      "outputs": [
        {
          "internalType": "bool",
          "name": "",
          "type": "bool"
        }
      ],
      "stateMutability": "view",
      "type": "function"
    },
    {
      "inputs": [],
      "name": "symbol",
      "outputs": [
        {
          "internalType": "string",
          "name": "",
          "type": "string"
        }
      ],
      "stateMutability": "view",
      "type": "function"
    },
    {
      "inputs": [
        {
          "internalType": "uint256",
          "name": "tokenId",
          "type": "uint256"
        }
      ],
      "name": "tokenURI",
      "outputs": [
        {
          "internalType": "string",
          "name": "",
          "type": "string"
        }
      ],
      "stateMutability": "view",
      "type": "function"
    },
    {
      "inputs": [
        {
          "internalType": "address",
          "name": "from",
          "type": "address"
        },
        {
          "internalType": "address",
          "name": "to",
          "type": "address"
        },
        {
          "internalType": "uint256",
          "name": "tokenId",
          "type": "uint256"
        }
      ],
      "name": "transferFrom",
      "outputs": [],
      "stateMutability": "nonpayable",
      "type": "function"
    },
    {
      "inputs": [
        {
          "internalType": "address",
          "name": "newOwner",
          "type": "address"
        }
      ],
      "name": "transferOwnership",
      "outputs": [],
      "stateMutability": "nonpayable",
      "type": "function"
    },
    {
      "inputs": [
        {
          "internalType": "address",
          "name": "_signer",
          "type": "address"
        },
        {
          "internalType": "string",
          "name": "_message",
          "type": "string"
        },
        {
          "internalType": "bytes",
          "name": "_signature",
          "type": "bytes"
        }
      ],
      "name": "verify",
      "outputs": [
        {
          "internalType": "bool",
          "name": "",
          "type": "bool"
        }
      ],
      "stateMutability": "pure",
      "type": "function"
    },
    {
      "inputs": [
        {
          "internalType": "string",
          "name": "_message",
          "type": "string"
        },
        {
          "internalType": "bytes",
          "name": "_signature",
          "type": "bytes"
        },
        {
          "internalType": "address",
          "name": "to",
          "type": "address"
        },
        {
          "internalType": "uint256",
          "name": "tokenId",
          "type": "uint256"
        }
      ],
      "name": "verifyAndMint",
      "outputs": [],
      "stateMutability": "nonpayable",
      "type": "function"
    }
  ],
  "bytecode": "0x60806040523480156200001157600080fd5b506040518060400160405280600481526020017f4974656d000000000000000000000000000000000000000000000000000000008152506040518060400160405280600381526020017f49544d000000000000000000000000000000000000000000000000000000000081525081600090816200008f919062000467565b508060019081620000a1919062000467565b505050620000c4620000b86200011f60201b60201c565b6200012760201b60201c565b730d72fd549214eb53cc241f400b147364e926e15b600760006101000a81548173ffffffffffffffffffffffffffffffffffffffff021916908373ffffffffffffffffffffffffffffffffffffffff1602179055506200054e565b600033905090565b6000600660009054906101000a900473ffffffffffffffffffffffffffffffffffffffff16905081600660006101000a81548173ffffffffffffffffffffffffffffffffffffffff021916908373ffffffffffffffffffffffffffffffffffffffff1602179055508173ffffffffffffffffffffffffffffffffffffffff168173ffffffffffffffffffffffffffffffffffffffff167f8be0079c531659141344cd1fd0a4f28419497f9722a3daafe3b4186f6b6457e060405160405180910390a35050565b600081519050919050565b7f4e487b7100000000000000000000000000000000000000000000000000000000600052604160045260246000fd5b7f4e487b7100000000000000000000000000000000000000000000000000000000600052602260045260246000fd5b600060028204905060018216806200026f57607f821691505b60208210810362000285576200028462000227565b5b50919050565b60008190508160005260206000209050919050565b60006020601f8301049050919050565b600082821b905092915050565b600060088302620002ef7fffffffffffffffffffffffffffffffffffffffffffffffffffffffffffffffff82620002b0565b620002fb8683620002b0565b95508019841693508086168417925050509392505050565b6000819050919050565b6000819050919050565b600062000348620003426200033c8462000313565b6200031d565b62000313565b9050919050565b6000819050919050565b620003648362000327565b6200037c62000373826200034f565b848454620002bd565b825550505050565b600090565b6200039362000384565b620003a081848462000359565b505050565b5b81811015620003c857620003bc60008262000389565b600181019050620003a6565b5050565b601f8211156200041757620003e1816200028b565b620003ec84620002a0565b81016020851015620003fc578190505b620004146200040b85620002a0565b830182620003a5565b50505b505050565b600082821c905092915050565b60006200043c600019846008026200041c565b1980831691505092915050565b600062000457838362000429565b9150826002028217905092915050565b6200047282620001ed565b67ffffffffffffffff8111156200048e576200048d620001f8565b5b6200049a825462000256565b620004a7828285620003cc565b600060209050601f831160018114620004df5760008415620004ca578287015190505b620004d6858262000449565b86555062000546565b601f198416620004ef866200028b565b60005b828110156200051957848901518255600182019150602085019450602081019050620004f2565b8683101562000539578489015162000535601f89168262000429565b8355505b6001600288020188555050505b505050505050565b613560806200055e6000396000f3fe608060405234801561001057600080fd5b50600436106101735760003560e01c80636e9849dd116100de578063a22cb46511610097578063c87b56dd11610071578063c87b56dd14610448578063e985e9c514610478578063f2fde38b146104a8578063fa540801146104c457610173565b8063a22cb465146103e0578063b446f3b2146103fc578063b88d4fde1461042c57610173565b80636e9849dd1461033057806370a082311461034c578063715018a61461037c5780637ac3c02f146103865780638da5cb5b146103a457806395d89b41146103c257610173565b806323b872dd1161013057806323b872dd146102605780632dd34f0f1461027c57806342842e0e146102ac5780636352211e146102c8578063654886be146102f85780636c19e7831461031457610173565b806301ffc9a71461017857806306fdde03146101a8578063081812fc146101c6578063095ea7b3146101f657806319045a2514610212578063238ac93314610242575b600080fd5b610192600480360381019061018d9190611fae565b6104f4565b60405161019f9190611ff6565b60405180910390f35b6101b06105d6565b6040516101bd91906120a1565b60405180910390f35b6101e060048036038101906101db91906120f9565b610668565b6040516101ed9190612167565b60405180910390f35b610210600480360381019061020b91906121ae565b6106ae565b005b61022c60048036038101906102279190612359565b6107c5565b6040516102399190612167565b60405180910390f35b61024a610834565b6040516102579190612167565b60405180910390f35b61027a600480360381019061027591906123b5565b61085a565b005b610296600480360381019061029191906124a9565b6108ba565b6040516102a39190611ff6565b60405180910390f35b6102c660048036038101906102c191906123b5565b610918565b005b6102e260048036038101906102dd91906120f9565b610938565b6040516102ef9190612167565b60405180910390f35b610312600480360381019061030d9190612534565b6109be565b005b61032e600480360381019061032991906125d3565b610ab4565b005b61034a600480360381019061034591906126b6565b610b00565b005b610366600480360381019061036191906125d3565b610bc0565b6040516103739190612746565b60405180910390f35b610384610c77565b005b61038e610c8b565b60405161039b9190612167565b60405180910390f35b6103ac610cb5565b6040516103b99190612167565b60405180910390f35b6103ca610cdf565b6040516103d791906120a1565b60405180910390f35b6103fa60048036038101906103f5919061278d565b610d71565b005b610416600480360381019061041191906127cd565b610d87565b6040516104239190612825565b60405180910390f35b61044660048036038101906104419190612840565b610db7565b005b610462600480360381019061045d91906120f9565b610e19565b60405161046f91906120a1565b60405180910390f35b610492600480360381019061048d91906128c3565b610e81565b60405161049f9190611ff6565b60405180910390f35b6104c260048036038101906104bd91906125d3565b610f15565b005b6104de60048036038101906104d99190612903565b610f98565b6040516104eb9190612825565b60405180910390f35b60007f80ac58cd000000000000000000000000000000000000000000000000000000007bffffffffffffffffffffffffffffffffffffffffffffffffffffffff1916827bffffffffffffffffffffffffffffffffffffffffffffffffffffffff191614806105bf57507f5b5e139f000000000000000000000000000000000000000000000000000000007bffffffffffffffffffffffffffffffffffffffffffffffffffffffff1916827bffffffffffffffffffffffffffffffffffffffffffffffffffffffff1916145b806105cf57506105ce82610fc8565b5b9050919050565b6060600080546105e59061295f565b80601f01602080910402602001604051908101604052809291908181526020018280546106119061295f565b801561065e5780601f106106335761010080835404028352916020019161065e565b820191906000526020600020905b81548152906001019060200180831161064157829003601f168201915b5050505050905090565b600061067382611032565b6004600083815260200190815260200160002060009054906101000a900473ffffffffffffffffffffffffffffffffffffffff169050919050565b60006106b982610938565b90508073ffffffffffffffffffffffffffffffffffffffff168373ffffffffffffffffffffffffffffffffffffffff1603610729576040517f08c379a000000000000000000000000000000000000000000000000000000000815260040161072090612a02565b60405180910390fd5b8073ffffffffffffffffffffffffffffffffffffffff1661074861107d565b73ffffffffffffffffffffffffffffffffffffffff16148061077757506107768161077161107d565b610e81565b5b6107b6576040517f08c379a00000000000000000000000000000000000000000000000000000000081526004016107ad90612a94565b60405180910390fd5b6107c08383611085565b505050565b6000806000806107d48561113e565b925092509250600186828585604051600081526020016040526040516107fd9493929190612ad0565b6020604051602081039080840390855afa15801561081f573d6000803e3d6000fd5b50505060206040510351935050505092915050565b600760009054906101000a900473ffffffffffffffffffffffffffffffffffffffff1681565b61086b61086561107d565b826111a6565b6108aa576040517f08c379a00000000000000000000000000000000000000000000000000000000081526004016108a190612b87565b60405180910390fd5b6108b583838361123b565b505050565b6000806108c684610d87565b905060006108d382610f98565b90508573ffffffffffffffffffffffffffffffffffffffff166108f682866107c5565b73ffffffffffffffffffffffffffffffffffffffff1614925050509392505050565b61093383838360405180602001604052806000815250610db7565b505050565b60008061094483611534565b9050600073ffffffffffffffffffffffffffffffffffffffff168173ffffffffffffffffffffffffffffffffffffffff16036109b5576040517f08c379a00000000000000000000000000000000000000000000000000000000081526004016109ac90612bf3565b60405180910390fd5b80915050919050565b600115153073ffffffffffffffffffffffffffffffffffffffff16632dd34f0f600760009054906101000a900473ffffffffffffffffffffffffffffffffffffffff1687876040518463ffffffff1660e01b8152600401610a2193929190612c68565b602060405180830381865afa158015610a3e573d6000803e3d6000fd5b505050506040513d601f19601f82011682018060405250810190610a629190612cc2565b151514610aa4576040517f08c379a0000000000000000000000000000000000000000000000000000000008152600401610a9b90612d3b565b60405180910390fd5b610aae8282611571565b50505050565b610abc61158f565b80600760006101000a81548173ffffffffffffffffffffffffffffffffffffffff021916908373ffffffffffffffffffffffffffffffffffffffff16021790555050565b610b0861158f565b818190508484905014610b50576040517f08c379a0000000000000000000000000000000000000000000000000000000008152600401610b4790612da7565b60405180910390fd5b60005b82829050811015610bb957610ba8838383818110610b7457610b73612dc7565b5b9050602002016020810190610b8991906125d3565b868684818110610b9c57610b9b612dc7565b5b90506020020135611571565b80610bb290612e25565b9050610b53565b5050505050565b60008073ffffffffffffffffffffffffffffffffffffffff168273ffffffffffffffffffffffffffffffffffffffff1603610c30576040517f08c379a0000000000000000000000000000000000000000000000000000000008152600401610c2790612edf565b60405180910390fd5b600360008373ffffffffffffffffffffffffffffffffffffffff1673ffffffffffffffffffffffffffffffffffffffff168152602001908152602001600020549050919050565b610c7f61158f565b610c89600061160d565b565b6000600760009054906101000a900473ffffffffffffffffffffffffffffffffffffffff16905090565b6000600660009054906101000a900473ffffffffffffffffffffffffffffffffffffffff16905090565b606060018054610cee9061295f565b80601f0160208091040260200160405190810160405280929190818152602001828054610d1a9061295f565b8015610d675780601f10610d3c57610100808354040283529160200191610d67565b820191906000526020600020905b815481529060010190602001808311610d4a57829003601f168201915b5050505050905090565b610d83610d7c61107d565b83836116d3565b5050565b600081604051602001610d9a9190612f3b565b604051602081830303815290604052805190602001209050919050565b610dc8610dc261107d565b836111a6565b610e07576040517f08c379a0000000000000000000000000000000000000000000000000000000008152600401610dfe90612b87565b60405180910390fd5b610e138484848461183f565b50505050565b6060610e2482611032565b6000610e2e61189b565b90506000815111610e4e5760405180602001604052806000815250610e79565b80610e58846118b2565b604051602001610e69929190612f52565b6040516020818303038152906040525b915050919050565b6000600560008473ffffffffffffffffffffffffffffffffffffffff1673ffffffffffffffffffffffffffffffffffffffff16815260200190815260200160002060008373ffffffffffffffffffffffffffffffffffffffff1673ffffffffffffffffffffffffffffffffffffffff16815260200190815260200160002060009054906101000a900460ff16905092915050565b610f1d61158f565b600073ffffffffffffffffffffffffffffffffffffffff168173ffffffffffffffffffffffffffffffffffffffff1603610f8c576040517f08c379a0000000000000000000000000000000000000000000000000000000008152600401610f8390612fe8565b60405180910390fd5b610f958161160d565b50565b600081604051602001610fab9190613075565b604051602081830303815290604052805190602001209050919050565b60007f01ffc9a7000000000000000000000000000000000000000000000000000000007bffffffffffffffffffffffffffffffffffffffffffffffffffffffff1916827bffffffffffffffffffffffffffffffffffffffffffffffffffffffff1916149050919050565b61103b81611980565b61107a576040517f08c379a000000000000000000000000000000000000000000000000000000000815260040161107190612bf3565b60405180910390fd5b50565b600033905090565b816004600083815260200190815260200160002060006101000a81548173ffffffffffffffffffffffffffffffffffffffff021916908373ffffffffffffffffffffffffffffffffffffffff160217905550808273ffffffffffffffffffffffffffffffffffffffff166110f883610938565b73ffffffffffffffffffffffffffffffffffffffff167f8c5be1e5ebec7d5bd14f71427d1e84f3dd0314c0f7b2291e5b200ac8c7c3b92560405160405180910390a45050565b60008060006041845114611187576040517f08c379a000000000000000000000000000000000000000000000000000000000815260040161117e906130e7565b60405180910390fd5b6020840151925060408401519150606084015160001a90509193909250565b6000806111b283610938565b90508073ffffffffffffffffffffffffffffffffffffffff168473ffffffffffffffffffffffffffffffffffffffff1614806111f457506111f38185610e81565b5b8061123257508373ffffffffffffffffffffffffffffffffffffffff1661121a84610668565b73ffffffffffffffffffffffffffffffffffffffff16145b91505092915050565b8273ffffffffffffffffffffffffffffffffffffffff1661125b82610938565b73ffffffffffffffffffffffffffffffffffffffff16146112b1576040517f08c379a00000000000000000000000000000000000000000000000000000000081526004016112a890613179565b60405180910390fd5b600073ffffffffffffffffffffffffffffffffffffffff168273ffffffffffffffffffffffffffffffffffffffff1603611320576040517f08c379a00000000000000000000000000000000000000000000000000000000081526004016113179061320b565b60405180910390fd5b61132d83838360016119c1565b8273ffffffffffffffffffffffffffffffffffffffff1661134d82610938565b73ffffffffffffffffffffffffffffffffffffffff16146113a3576040517f08c379a000000000000000000000000000000000000000000000000000000000815260040161139a90613179565b60405180910390fd5b6004600082815260200190815260200160002060006101000a81549073ffffffffffffffffffffffffffffffffffffffff02191690556001600360008573ffffffffffffffffffffffffffffffffffffffff1673ffffffffffffffffffffffffffffffffffffffff168152602001908152602001600020600082825403925050819055506001600360008473ffffffffffffffffffffffffffffffffffffffff1673ffffffffffffffffffffffffffffffffffffffff16815260200190815260200160002060008282540192505081905550816002600083815260200190815260200160002060006101000a81548173ffffffffffffffffffffffffffffffffffffffff021916908373ffffffffffffffffffffffffffffffffffffffff160217905550808273ffffffffffffffffffffffffffffffffffffffff168473ffffffffffffffffffffffffffffffffffffffff167fddf252ad1be2c89b69c2b068fc378daa952ba7f163c4a11628f55a4df523b3ef60405160405180910390a461152f83838360016119c7565b505050565b60006002600083815260200190815260200160002060009054906101000a900473ffffffffffffffffffffffffffffffffffffffff169050919050565b61158b8282604051806020016040528060008152506119cd565b5050565b61159761107d565b73ffffffffffffffffffffffffffffffffffffffff166115b5610cb5565b73ffffffffffffffffffffffffffffffffffffffff161461160b576040517f08c379a000000000000000000000000000000000000000000000000000000000815260040161160290613277565b60405180910390fd5b565b6000600660009054906101000a900473ffffffffffffffffffffffffffffffffffffffff16905081600660006101000a81548173ffffffffffffffffffffffffffffffffffffffff021916908373ffffffffffffffffffffffffffffffffffffffff1602179055508173ffffffffffffffffffffffffffffffffffffffff168173ffffffffffffffffffffffffffffffffffffffff167f8be0079c531659141344cd1fd0a4f28419497f9722a3daafe3b4186f6b6457e060405160405180910390a35050565b8173ffffffffffffffffffffffffffffffffffffffff168373ffffffffffffffffffffffffffffffffffffffff1603611741576040517f08c379a0000000000000000000000000000000000000000000000000000000008152600401611738906132e3565b60405180910390fd5b80600560008573ffffffffffffffffffffffffffffffffffffffff1673ffffffffffffffffffffffffffffffffffffffff16815260200190815260200160002060008473ffffffffffffffffffffffffffffffffffffffff1673ffffffffffffffffffffffffffffffffffffffff16815260200190815260200160002060006101000a81548160ff0219169083151502179055508173ffffffffffffffffffffffffffffffffffffffff168373ffffffffffffffffffffffffffffffffffffffff167f17307eab39ab6107e8899845ad3d59bd9653f200f220920489ca2b5937696c31836040516118329190611ff6565b60405180910390a3505050565b61184a84848461123b565b61185684848484611a28565b611895576040517f08c379a000000000000000000000000000000000000000000000000000000000815260040161188c90613375565b60405180910390fd5b50505050565b606060405180602001604052806000815250905090565b6060600060016118c184611baf565b01905060008167ffffffffffffffff8111156118e0576118df61222e565b5b6040519080825280601f01601f1916602001820160405280156119125781602001600182028036833780820191505090505b509050600082602001820190505b600115611975578080600190039150507f3031323334353637383961626364656600000000000000000000000000000000600a86061a8153600a858161196957611968613395565b5b04945060008503611920575b819350505050919050565b60008073ffffffffffffffffffffffffffffffffffffffff166119a283611534565b73ffffffffffffffffffffffffffffffffffffffff1614159050919050565b50505050565b50505050565b6119d78383611d02565b6119e46000848484611a28565b611a23576040517f08c379a0000000000000000000000000000000000000000000000000000000008152600401611a1a90613375565b60405180910390fd5b505050565b6000611a498473ffffffffffffffffffffffffffffffffffffffff16611f1f565b15611ba2578373ffffffffffffffffffffffffffffffffffffffff1663150b7a02611a7261107d565b8786866040518563ffffffff1660e01b8152600401611a9494939291906133c4565b6020604051808303816000875af1925050508015611ad057506040513d601f19601f82011682018060405250810190611acd9190613425565b60015b611b52573d8060008114611b00576040519150601f19603f3d011682016040523d82523d6000602084013e611b05565b606091505b506000815103611b4a576040517f08c379a0000000000000000000000000000000000000000000000000000000008152600401611b4190613375565b60405180910390fd5b805181602001fd5b63150b7a0260e01b7bffffffffffffffffffffffffffffffffffffffffffffffffffffffff1916817bffffffffffffffffffffffffffffffffffffffffffffffffffffffff191614915050611ba7565b600190505b949350505050565b600080600090507a184f03e93ff9f4daa797ed6e38ed64bf6a1f0100000000000000008310611c0d577a184f03e93ff9f4daa797ed6e38ed64bf6a1f0100000000000000008381611c0357611c02613395565b5b0492506040810190505b6d04ee2d6d415b85acef81000000008310611c4a576d04ee2d6d415b85acef81000000008381611c4057611c3f613395565b5b0492506020810190505b662386f26fc100008310611c7957662386f26fc100008381611c6f57611c6e613395565b5b0492506010810190505b6305f5e1008310611ca2576305f5e1008381611c9857611c97613395565b5b0492506008810190505b6127108310611cc7576127108381611cbd57611cbc613395565b5b0492506004810190505b60648310611cea5760648381611ce057611cdf613395565b5b0492506002810190505b600a8310611cf9576001810190505b80915050919050565b600073ffffffffffffffffffffffffffffffffffffffff168273ffffffffffffffffffffffffffffffffffffffff1603611d71576040517f08c379a0000000000000000000000000000000000000000000000000000000008152600401611d689061349e565b60405180910390fd5b611d7a81611980565b15611dba576040517f08c379a0000000000000000000000000000000000000000000000000000000008152600401611db19061350a565b60405180910390fd5b611dc86000838360016119c1565b611dd181611980565b15611e11576040517f08c379a0000000000000000000000000000000000000000000000000000000008152600401611e089061350a565b60405180910390fd5b6001600360008473ffffffffffffffffffffffffffffffffffffffff1673ffffffffffffffffffffffffffffffffffffffff16815260200190815260200160002060008282540192505081905550816002600083815260200190815260200160002060006101000a81548173ffffffffffffffffffffffffffffffffffffffff021916908373ffffffffffffffffffffffffffffffffffffffff160217905550808273ffffffffffffffffffffffffffffffffffffffff16600073ffffffffffffffffffffffffffffffffffffffff167fddf252ad1be2c89b69c2b068fc378daa952ba7f163c4a11628f55a4df523b3ef60405160405180910390a4611f1b6000838360016119c7565b5050565b6000808273ffffffffffffffffffffffffffffffffffffffff163b119050919050565b6000604051905090565b600080fd5b600080fd5b60007fffffffff0000000000000000000000000000000000000000000000000000000082169050919050565b611f8b81611f56565b8114611f9657600080fd5b50565b600081359050611fa881611f82565b92915050565b600060208284031215611fc457611fc3611f4c565b5b6000611fd284828501611f99565b91505092915050565b60008115159050919050565b611ff081611fdb565b82525050565b600060208201905061200b6000830184611fe7565b92915050565b600081519050919050565b600082825260208201905092915050565b60005b8381101561204b578082015181840152602081019050612030565b60008484015250505050565b6000601f19601f8301169050919050565b600061207382612011565b61207d818561201c565b935061208d81856020860161202d565b61209681612057565b840191505092915050565b600060208201905081810360008301526120bb8184612068565b905092915050565b6000819050919050565b6120d6816120c3565b81146120e157600080fd5b50565b6000813590506120f3816120cd565b92915050565b60006020828403121561210f5761210e611f4c565b5b600061211d848285016120e4565b91505092915050565b600073ffffffffffffffffffffffffffffffffffffffff82169050919050565b600061215182612126565b9050919050565b61216181612146565b82525050565b600060208201905061217c6000830184612158565b92915050565b61218b81612146565b811461219657600080fd5b50565b6000813590506121a881612182565b92915050565b600080604083850312156121c5576121c4611f4c565b5b60006121d385828601612199565b92505060206121e4858286016120e4565b9150509250929050565b6000819050919050565b612201816121ee565b811461220c57600080fd5b50565b60008135905061221e816121f8565b92915050565b600080fd5b600080fd5b7f4e487b7100000000000000000000000000000000000000000000000000000000600052604160045260246000fd5b61226682612057565b810181811067ffffffffffffffff821117156122855761228461222e565b5b80604052505050565b6000612298611f42565b90506122a4828261225d565b919050565b600067ffffffffffffffff8211156122c4576122c361222e565b5b6122cd82612057565b9050602081019050919050565b82818337600083830152505050565b60006122fc6122f7846122a9565b61228e565b90508281526020810184848401111561231857612317612229565b5b6123238482856122da565b509392505050565b600082601f8301126123405761233f612224565b5b81356123508482602086016122e9565b91505092915050565b600080604083850312156123705761236f611f4c565b5b600061237e8582860161220f565b925050602083013567ffffffffffffffff81111561239f5761239e611f51565b5b6123ab8582860161232b565b9150509250929050565b6000806000606084860312156123ce576123cd611f4c565b5b60006123dc86828701612199565b93505060206123ed86828701612199565b92505060406123fe868287016120e4565b9150509250925092565b600067ffffffffffffffff8211156124235761242261222e565b5b61242c82612057565b9050602081019050919050565b600061244c61244784612408565b61228e565b90508281526020810184848401111561246857612467612229565b5b6124738482856122da565b509392505050565b600082601f8301126124905761248f612224565b5b81356124a0848260208601612439565b91505092915050565b6000806000606084860312156124c2576124c1611f4c565b5b60006124d086828701612199565b935050602084013567ffffffffffffffff8111156124f1576124f0611f51565b5b6124fd8682870161247b565b925050604084013567ffffffffffffffff81111561251e5761251d611f51565b5b61252a8682870161232b565b9150509250925092565b6000806000806080858703121561254e5761254d611f4c565b5b600085013567ffffffffffffffff81111561256c5761256b611f51565b5b6125788782880161247b565b945050602085013567ffffffffffffffff81111561259957612598611f51565b5b6125a58782880161232b565b93505060406125b687828801612199565b92505060606125c7878288016120e4565b91505092959194509250565b6000602082840312156125e9576125e8611f4c565b5b60006125f784828501612199565b91505092915050565b600080fd5b600080fd5b60008083601f8401126126205761261f612224565b5b8235905067ffffffffffffffff81111561263d5761263c612600565b5b60208301915083602082028301111561265957612658612605565b5b9250929050565b60008083601f84011261267657612675612224565b5b8235905067ffffffffffffffff81111561269357612692612600565b5b6020830191508360208202830111156126af576126ae612605565b5b9250929050565b600080600080604085870312156126d0576126cf611f4c565b5b600085013567ffffffffffffffff8111156126ee576126ed611f51565b5b6126fa8782880161260a565b9450945050602085013567ffffffffffffffff81111561271d5761271c611f51565b5b61272987828801612660565b925092505092959194509250565b612740816120c3565b82525050565b600060208201905061275b6000830184612737565b92915050565b61276a81611fdb565b811461277557600080fd5b50565b60008135905061278781612761565b92915050565b600080604083850312156127a4576127a3611f4c565b5b60006127b285828601612199565b92505060206127c385828601612778565b9150509250929050565b6000602082840312156127e3576127e2611f4c565b5b600082013567ffffffffffffffff81111561280157612800611f51565b5b61280d8482850161247b565b91505092915050565b61281f816121ee565b82525050565b600060208201905061283a6000830184612816565b92915050565b6000806000806080858703121561285a57612859611f4c565b5b600061286887828801612199565b945050602061287987828801612199565b935050604061288a878288016120e4565b925050606085013567ffffffffffffffff8111156128ab576128aa611f51565b5b6128b78782880161232b565b91505092959194509250565b600080604083850312156128da576128d9611f4c565b5b60006128e885828601612199565b92505060206128f985828601612199565b9150509250929050565b60006020828403121561291957612918611f4c565b5b60006129278482850161220f565b91505092915050565b7f4e487b7100000000000000000000000000000000000000000000000000000000600052602260045260246000fd5b6000600282049050600182168061297757607f821691505b60208210810361298a57612989612930565b5b50919050565b7f4552433732313a20617070726f76616c20746f2063757272656e74206f776e6560008201527f7200000000000000000000000000000000000000000000000000000000000000602082015250565b60006129ec60218361201c565b91506129f782612990565b604082019050919050565b60006020820190508181036000830152612a1b816129df565b9050919050565b7f4552433732313a20617070726f76652063616c6c6572206973206e6f7420746f60008201527f6b656e206f776e6572206f7220617070726f76656420666f7220616c6c000000602082015250565b6000612a7e603d8361201c565b9150612a8982612a22565b604082019050919050565b60006020820190508181036000830152612aad81612a71565b9050919050565b600060ff82169050919050565b612aca81612ab4565b82525050565b6000608082019050612ae56000830187612816565b612af26020830186612ac1565b612aff6040830185612816565b612b0c6060830184612816565b95945050505050565b7f4552433732313a2063616c6c6572206973206e6f7420746f6b656e206f776e6560008201527f72206f7220617070726f76656400000000000000000000000000000000000000602082015250565b6000612b71602d8361201c565b9150612b7c82612b15565b604082019050919050565b60006020820190508181036000830152612ba081612b64565b9050919050565b7f4552433732313a20696e76616c696420746f6b656e2049440000000000000000600082015250565b6000612bdd60188361201c565b9150612be882612ba7565b602082019050919050565b60006020820190508181036000830152612c0c81612bd0565b9050919050565b600081519050919050565b600082825260208201905092915050565b6000612c3a82612c13565b612c448185612c1e565b9350612c5481856020860161202d565b612c5d81612057565b840191505092915050565b6000606082019050612c7d6000830186612158565b8181036020830152612c8f8185612068565b90508181036040830152612ca38184612c2f565b9050949350505050565b600081519050612cbc81612761565b92915050565b600060208284031215612cd857612cd7611f4c565b5b6000612ce684828501612cad565b91505092915050565b7f496e76616c6964207369676e6572000000000000000000000000000000000000600082015250565b6000612d25600e8361201c565b9150612d3082612cef565b602082019050919050565b60006020820190508181036000830152612d5481612d18565b9050919050565b7f4172726179732073686f756c642068617665207468652073616d652073697a65600082015250565b6000612d9160208361201c565b9150612d9c82612d5b565b602082019050919050565b60006020820190508181036000830152612dc081612d84565b9050919050565b7f4e487b7100000000000000000000000000000000000000000000000000000000600052603260045260246000fd5b7f4e487b7100000000000000000000000000000000000000000000000000000000600052601160045260246000fd5b6000612e30826120c3565b91507fffffffffffffffffffffffffffffffffffffffffffffffffffffffffffffffff8203612e6257612e61612df6565b5b600182019050919050565b7f4552433732313a2061646472657373207a65726f206973206e6f74206120766160008201527f6c6964206f776e65720000000000000000000000000000000000000000000000602082015250565b6000612ec960298361201c565b9150612ed482612e6d565b604082019050919050565b60006020820190508181036000830152612ef881612ebc565b9050919050565b600081905092915050565b6000612f1582612011565b612f1f8185612eff565b9350612f2f81856020860161202d565b80840191505092915050565b6000612f478284612f0a565b915081905092915050565b6000612f5e8285612f0a565b9150612f6a8284612f0a565b91508190509392505050565b7f4f776e61626c653a206e6577206f776e657220697320746865207a65726f206160008201527f6464726573730000000000000000000000000000000000000000000000000000602082015250565b6000612fd260268361201c565b9150612fdd82612f76565b604082019050919050565b6000602082019050818103600083015261300181612fc5565b9050919050565b7f19457468657265756d205369676e6564204d6573736167653a0a333200000000600082015250565b600061303e601c83612eff565b915061304982613008565b601c82019050919050565b6000819050919050565b61306f61306a826121ee565b613054565b82525050565b600061308082613031565b915061308c828461305e565b60208201915081905092915050565b7f496e76616c6964207369676e6174757265206c656e6774682100000000000000600082015250565b60006130d160198361201c565b91506130dc8261309b565b602082019050919050565b60006020820190508181036000830152613100816130c4565b9050919050565b7f4552433732313a207472616e736665722066726f6d20696e636f72726563742060008201527f6f776e6572000000000000000000000000000000000000000000000000000000602082015250565b600061316360258361201c565b915061316e82613107565b604082019050919050565b6000602082019050818103600083015261319281613156565b9050919050565b7f4552433732313a207472616e7366657220746f20746865207a65726f2061646460008201527f7265737300000000000000000000000000000000000000000000000000000000602082015250565b60006131f560248361201c565b915061320082613199565b604082019050919050565b60006020820190508181036000830152613224816131e8565b9050919050565b7f4f776e61626c653a2063616c6c6572206973206e6f7420746865206f776e6572600082015250565b600061326160208361201c565b915061326c8261322b565b602082019050919050565b6000602082019050818103600083015261329081613254565b9050919050565b7f4552433732313a20617070726f766520746f2063616c6c657200000000000000600082015250565b60006132cd60198361201c565b91506132d882613297565b602082019050919050565b600060208201905081810360008301526132fc816132c0565b9050919050565b7f4552433732313a207472616e7366657220746f206e6f6e20455243373231526560008201527f63656976657220696d706c656d656e7465720000000000000000000000000000602082015250565b600061335f60328361201c565b915061336a82613303565b604082019050919050565b6000602082019050818103600083015261338e81613352565b9050919050565b7f4e487b7100000000000000000000000000000000000000000000000000000000600052601260045260246000fd5b60006080820190506133d96000830187612158565b6133e66020830186612158565b6133f36040830185612737565b81810360608301526134058184612c2f565b905095945050505050565b60008151905061341f81611f82565b92915050565b60006020828403121561343b5761343a611f4c565b5b600061344984828501613410565b91505092915050565b7f4552433732313a206d696e7420746f20746865207a65726f2061646472657373600082015250565b600061348860208361201c565b915061349382613452565b602082019050919050565b600060208201905081810360008301526134b78161347b565b9050919050565b7f4552433732313a20746f6b656e20616c7265616479206d696e74656400000000600082015250565b60006134f4601c8361201c565b91506134ff826134be565b602082019050919050565b60006020820190508181036000830152613523816134e7565b905091905056fea2646970667358221220c57e158036c83d7edb89ffc4c3811aee354bf4da95209288e7952164518f0fd564736f6c63430008120033",
  "linkReferences": {},
  "deployedLinkReferences": {}
}